{"contracts/NFTMarketplace.sol":{"NFTMarketplace":{"abi":[{"inputs":[],"stateMutability":"nonpayable","type":"constructor"},{"anonymous":false,"inputs":[{"indexed":true,"internalType":"address","name":"owner","type":"address"},{"indexed":true,"internalType":"address","name":"approved","type":"address"},{"indexed":true,"internalType":"uint256","name":"tokenId","type":"uint256"}],"name":"Approval","type":"event"},{"anonymous":false,"inputs":[{"indexed":true,"internalType":"address","name":"owner","type":"address"},{"indexed":true,"internalType":"address","name":"operator","type":"address"},{"indexed":false,"internalType":"bool","name":"approved","type":"bool"}],"name":"ApprovalForAll","type":"event"},{"anonymous":false,"inputs":[{"indexed":true,"internalType":"uint256","name":"tokenId","type":"uint256"},{"indexed":false,"internalType":"address","name":"creator","type":"address"},{"indexed":false,"internalType":"uint256","name":"endTime","type":"uint256"}],"name":"AuctionCreated","type":"event"},{"anonymous":false,"inputs":[{"indexed":true,"internalType":"uint256","name":"tokenId","type":"uint256"},{"indexed":false,"internalType":"address","name":"winner","type":"address"},{"indexed":false,"internalType":"uint256","name":"winningBid","type":"uint256"}],"name":"AuctionEnded","type":"event"},{"anonymous":false,"inputs":[{"indexed":true,"internalType":"uint256","name":"tokenId","type":"uint256"},{"indexed":false,"internalType":"address","name":"bidder","type":"address"},{"indexed":false,"internalType":"uint256","name":"bidAmount","type":"uint256"}],"name":"BidPlaced","type":"event"},{"anonymous":false,"inputs":[{"indexed":true,"internalType":"uint256","name":"tokenId","type":"uint256"},{"indexed":false,"internalType":"address","name":"seller","type":"address"},{"indexed":false,"internalType":"address","name":"owner","type":"address"},{"indexed":false,"internalType":"uint256","name":"price","type":"uint256"},{"indexed":false,"internalType":"bool","name":"sold","type":"bool"}],"name":"MarketItemCreated","type":"event"},{"anonymous":false,"inputs":[{"indexed":true,"internalType":"address","name":"from","type":"address"},{"indexed":true,"internalType":"address","name":"to","type":"address"},{"indexed":true,"internalType":"uint256","name":"tokenId","type":"uint256"}],"name":"Transfer","type":"event"},{"inputs":[{"internalType":"address","name":"to","type":"address"},{"internalType":"uint256","name":"tokenId","type":"uint256"}],"name":"approve","outputs":[],"stateMutability":"nonpayable","type":"function"},{"inputs":[],"name":"auctionDuration","outputs":[{"internalType":"uint256","name":"","type":"uint256"}],"stateMutability":"view","type":"function"},{"inputs":[],"name":"automateAuctions","outputs":[],"stateMutability":"nonpayable","type":"function"},{"inputs":[{"internalType":"address","name":"owner","type":"address"}],"name":"balanceOf","outputs":[{"internalType":"uint256","name":"","type":"uint256"}],"stateMutability":"view","type":"function"},{"inputs":[],"name":"checkAndEndAuctions","outputs":[],"stateMutability":"nonpayable","type":"function"},{"inputs":[{"internalType":"uint256","name":"tokenId","type":"uint256"}],"name":"createMarketSale","outputs":[],"stateMutability":"nonpayable","type":"function"},{"inputs":[{"internalType":"string","name":"tokenURI","type":"string"},{"internalType":"uint256","name":"price","type":"uint256"}],"name":"createToken","outputs":[{"internalType":"uint256","name":"","type":"uint256"}],"stateMutability":"payable","type":"function"},{"inputs":[{"internalType":"uint256","name":"tokenId","type":"uint256"}],"name":"endAuction","outputs":[],"stateMutability":"nonpayable","type":"function"},{"inputs":[],"name":"fetchItemsListed","outputs":[{"components":[{"internalType":"uint256","name":"tokenId","type":"uint256"},{"internalType":"address payable","name":"seller","type":"address"},{"internalType":"address payable","name":"owner","type":"address"},{"internalType":"uint256","name":"price","type":"uint256"},{"internalType":"bool","name":"sold","type":"bool"}],"internalType":"struct NFTMarketplace.MarketItem[]","name":"","type":"tuple[]"}],"stateMutability":"view","type":"function"},{"inputs":[],"name":"fetchMarketItems","outputs":[{"components":[{"internalType":"uint256","name":"tokenId","type":"uint256"},{"internalType":"address payable","name":"seller","type":"address"},{"internalType":"address payable","name":"owner","type":"address"},{"internalType":"uint256","name":"price","type":"uint256"},{"internalType":"bool","name":"sold","type":"bool"}],"internalType":"struct NFTMarketplace.MarketItem[]","name":"","type":"tuple[]"}],"stateMutability":"view","type":"function"},{"inputs":[],"name":"fetchMyNFTs","outputs":[{"components":[{"internalType":"uint256","name":"tokenId","type":"uint256"},{"internalType":"address payable","name":"seller","type":"address"},{"internalType":"address payable","name":"owner","type":"address"},{"internalType":"uint256","name":"price","type":"uint256"},{"internalType":"bool","name":"sold","type":"bool"}],"internalType":"struct NFTMarketplace.MarketItem[]","name":"","type":"tuple[]"}],"stateMutability":"view","type":"function"},{"inputs":[{"internalType":"uint256","name":"tokenId","type":"uint256"}],"name":"fetchTokenDetails","outputs":[{"components":[{"internalType":"uint256","name":"tokenId","type":"uint256"},{"internalType":"address payable","name":"seller","type":"address"},{"internalType":"address payable","name":"owner","type":"address"},{"internalType":"uint256","name":"price","type":"uint256"},{"internalType":"bool","name":"sold","type":"bool"}],"internalType":"struct NFTMarketplace.MarketItem","name":"","type":"tuple"}],"stateMutability":"view","type":"function"},{"inputs":[{"internalType":"uint256","name":"tokenId","type":"uint256"}],"name":"getApproved","outputs":[{"internalType":"address","name":"","type":"address"}],"stateMutability":"view","type":"function"},{"inputs":[],"name":"getListingPrice","outputs":[{"internalType":"uint256","name":"","type":"uint256"}],"stateMutability":"view","type":"function"},{"inputs":[{"internalType":"address","name":"owner","type":"address"},{"internalType":"address","name":"operator","type":"address"}],"name":"isApprovedForAll","outputs":[{"internalType":"bool","name":"","type":"bool"}],"stateMutability":"view","type":"function"},{"inputs":[],"name":"lastAutomatedTime","outputs":[{"internalType":"uint256","name":"","type":"uint256"}],"stateMutability":"view","type":"function"},{"inputs":[],"name":"listingPrice","outputs":[{"internalType":"uint256","name":"","type":"uint256"}],"stateMutability":"view","type":"function"},{"inputs":[],"name":"name","outputs":[{"internalType":"string","name":"","type":"string"}],"stateMutability":"view","type":"function"},{"inputs":[],"name":"owner","outputs":[{"internalType":"address payable","name":"","type":"address"}],"stateMutability":"view","type":"function"},{"inputs":[{"internalType":"uint256","name":"tokenId","type":"uint256"}],"name":"ownerOf","outputs":[{"internalType":"address","name":"","type":"address"}],"stateMutability":"view","type":"function"},{"inputs":[{"internalType":"uint256","name":"tokenId","type":"uint256"}],"name":"placeBid","outputs":[],"stateMutability":"payable","type":"function"},{"inputs":[{"internalType":"uint256","name":"tokenId","type":"uint256"},{"internalType":"uint256","name":"price","type":"uint256"}],"name":"resellToken","outputs":[],"stateMutability":"payable","type":"function"},{"inputs":[{"internalType":"address","name":"from","type":"address"},{"internalType":"address","name":"to","type":"address"},{"internalType":"uint256","name":"tokenId","type":"uint256"}],"name":"safeTransferFrom","outputs":[],"stateMutability":"nonpayable","type":"function"},{"inputs":[{"internalType":"address","name":"from","type":"address"},{"internalType":"address","name":"to","type":"address"},{"internalType":"uint256","name":"tokenId","type":"uint256"},{"internalType":"bytes","name":"_data","type":"bytes"}],"name":"safeTransferFrom","outputs":[],"stateMutability":"nonpayable","type":"function"},{"inputs":[{"internalType":"address","name":"operator","type":"address"},{"internalType":"bool","name":"approved","type":"bool"}],"name":"setApprovalForAll","outputs":[],"stateMutability":"nonpayable","type":"function"},{"inputs":[{"internalType":"bytes4","name":"interfaceId","type":"bytes4"}],"name":"supportsInterface","outputs":[{"internalType":"bool","name":"","type":"bool"}],"stateMutability":"view","type":"function"},{"inputs":[],"name":"symbol","outputs":[{"internalType":"string","name":"","type":"string"}],"stateMutability":"view","type":"function"},{"inputs":[{"internalType":"uint256","name":"tokenId","type":"uint256"}],"name":"tokenURI","outputs":[{"internalType":"string","name":"","type":"string"}],"stateMutability":"view","type":"function"},{"inputs":[{"internalType":"address","name":"from","type":"address"},{"internalType":"address","name":"to","type":"address"},{"internalType":"uint256","name":"tokenId","type":"uint256"}],"name":"transferFrom","outputs":[],"stateMutability":"nonpayable","type":"function"},{"inputs":[{"internalType":"uint256","name":"_listingPrice","type":"uint256"}],"name":"updateListingPrice","outputs":[],"stateMutability":"payable","type":"function"}],"evm":{"bytecode":{"linkReferences":{},"object":"60806040526658d15e176280006009556104b0600b553480156200002257600080fd5b506040518060400160405280601081526020017f4d657461766572736520546f6b656e73000000000000000000000000000000008152506040518060400160405280600481526020017f4d455454000000000000000000000000000000000000000000000000000000008152508160009081620000a091906200037d565b508060019081620000b291906200037d565b50505033600a60006101000a81548173ffffffffffffffffffffffffffffffffffffffff021916908373ffffffffffffffffffffffffffffffffffffffff16021790555042600c8190555062000464565b600081519050919050565b7f4e487b7100000000000000000000000000000000000000000000000000000000600052604160045260246000fd5b7f4e487b7100000000000000000000000000000000000000000000000000000000600052602260045260246000fd5b600060028204905060018216806200018557607f821691505b6020821081036200019b576200019a6200013d565b5b50919050565b60008190508160005260206000209050919050565b60006020601f8301049050919050565b600082821b905092915050565b600060088302620002057fffffffffffffffffffffffffffffffffffffffffffffffffffffffffffffffff82620001c6565b620002118683620001c6565b95508019841693508086168417925050509392505050565b6000819050919050565b6000819050919050565b60006200025e62000258620002528462000229565b62000233565b62000229565b9050919050565b6000819050919050565b6200027a836200023d565b62000292620002898262000265565b848454620001d3565b825550505050565b600090565b620002a96200029a565b620002b68184846200026f565b505050565b5b81811015620002de57620002d26000826200029f565b600181019050620002bc565b5050565b601f8211156200032d57620002f781620001a1565b6200030284620001b6565b8101602085101562000312578190505b6200032a6200032185620001b6565b830182620002bb565b50505b505050565b600082821c905092915050565b6000620003526000198460080262000332565b1980831691505092915050565b60006200036d83836200033f565b9150826002028217905092915050565b620003888262000103565b67ffffffffffffffff811115620003a457620003a36200010e565b5b620003b082546200016c565b620003bd828285620002e2565b600060209050601f831160018114620003f55760008415620003e0578287015190505b620003ec85826200035f565b8655506200045c565b601f1984166200040586620001a1565b60005b828110156200042f5784890151825560018201915060208501945060208101905062000408565b868310156200044f57848901516200044b601f8916826200033f565b8355505b6001600288020188555050505b505050505050565b61522f80620004746000396000f3fe6080604052600436106101cd5760003560e01c806370a08231116100f7578063b863a7cd11610095578063c78f19f911610064578063c78f19f91461063b578063c87b56dd14610666578063e219fc75146106a3578063e985e9c5146106bf576101cd565b8063b863a7cd14610583578063b88d4fde146105c0578063b9a2de3a146105e9578063be9af53614610612576101cd565b806395d89b41116100d157806395d89b41146104f75780639979ef4514610522578063a22cb4651461053e578063ae677aa314610567576101cd565b806370a082311461045f57806372b3b6201461049c5780638da5cb5b146104cc576101cd565b806312e855851161016f57806345f8fa801161013e57806345f8fa80146103b55780634700c27e146103e057806356f28555146103f75780636352211e14610422576101cd565b806312e855851461030d578063202e37401461033857806323b872dd1461036357806342842e0e1461038c576101cd565b8063081812fc116101ab578063081812fc14610251578063095ea7b31461028e5780630cbf54c8146102b75780630f08efe0146102e2576101cd565b806301ffc9a7146101d257806303bb502f1461020f57806306fdde0314610226575b600080fd5b3480156101de57600080fd5b506101f960048036038101906101f49190613503565b6106fc565b604051610206919061354b565b60405180910390f35b34801561021b57600080fd5b506102246107de565b005b34801561023257600080fd5b5061023b610854565b60405161024891906135f6565b60405180910390f35b34801561025d57600080fd5b506102786004803603810190610273919061364e565b6108e6565b60405161028591906136bc565b60405180910390f35b34801561029a57600080fd5b506102b560048036038101906102b09190613703565b61096b565b005b3480156102c357600080fd5b506102cc610a82565b6040516102d99190613752565b60405180910390f35b3480156102ee57600080fd5b506102f7610a88565b60405161030491906138c3565b60405180910390f35b34801561031957600080fd5b50610322610cc6565b60405161032f9190613752565b60405180910390f35b34801561034457600080fd5b5061034d610cd0565b60405161035a91906138c3565b60405180910390f35b34801561036f57600080fd5b5061038a600480360381019061038591906138e5565b610f97565b005b34801561039857600080fd5b506103b360048036038101906103ae91906138e5565b610ff7565b005b3480156103c157600080fd5b506103ca611017565b6040516103d791906138c3565b60405180910390f35b3480156103ec57600080fd5b506103f56112de565b005b34801561040357600080fd5b5061040c611340565b6040516104199190613752565b60405180910390f35b34801561042e57600080fd5b506104496004803603810190610444919061364e565b611346565b60405161045691906136bc565b60405180910390f35b34801561046b57600080fd5b5061048660048036038101906104819190613938565b6113f7565b6040516104939190613752565b60405180910390f35b6104b660048036038101906104b19190613a9a565b6114ae565b6040516104c39190613752565b60405180910390f35b3480156104d857600080fd5b506104e16114f7565b6040516104ee9190613b05565b60405180910390f35b34801561050357600080fd5b5061050c61151d565b60405161051991906135f6565b60405180910390f35b61053c6004803603810190610537919061364e565b6115af565b005b34801561054a57600080fd5b5061056560048036038101906105609190613b4c565b611826565b005b610581600480360381019061057c919061364e565b61183c565b005b34801561058f57600080fd5b506105aa60048036038101906105a5919061364e565b6118d6565b6040516105b79190613bf4565b60405180910390f35b3480156105cc57600080fd5b506105e760048036038101906105e29190613cb0565b6119de565b005b3480156105f557600080fd5b50610610600480360381019061060b919061364e565b611a40565b005b34801561061e57600080fd5b506106396004803603810190610634919061364e565b611ec1565b005b34801561064757600080fd5b50610650611ed5565b60405161065d9190613752565b60405180910390f35b34801561067257600080fd5b5061068d6004803603810190610688919061364e565b611edb565b60405161069a91906135f6565b60405180910390f35b6106bd60048036038101906106b89190613d33565b61202c565b005b3480156106cb57600080fd5b506106e660048036038101906106e19190613d73565b61222f565b6040516106f3919061354b565b60405180910390f35b60007f80ac58cd000000000000000000000000000000000000000000000000000000007bffffffffffffffffffffffffffffffffffffffffffffffffffffffff1916827bffffffffffffffffffffffffffffffffffffffffffffffffffffffff191614806107c757507f5b5e139f000000000000000000000000000000000000000000000000000000007bffffffffffffffffffffffffffffffffffffffffffffffffffffffff1916827bffffffffffffffffffffffffffffffffffffffffffffffffffffffff1916145b806107d757506107d6826122c3565b5b9050919050565b600060075490506000600190505b818111610850576000600d600083815260200190815260200160002090508060040160009054906101000a900460ff1615801561082d575080600301544210155b1561083c5761083b82611a40565b5b50808061084890613de2565b9150506107ec565b5050565b60606000805461086390613e59565b80601f016020809104026020016040519081016040528092919081815260200182805461088f90613e59565b80156108dc5780601f106108b1576101008083540402835291602001916108dc565b820191906000526020600020905b8154815290600101906020018083116108bf57829003601f168201915b5050505050905090565b60006108f18261232d565b610930576040517f08c379a000000000000000000000000000000000000000000000000000000000815260040161092790613efc565b60405180910390fd5b6004600083815260200190815260200160002060009054906101000a900473ffffffffffffffffffffffffffffffffffffffff169050919050565b600061097682611346565b90508073ffffffffffffffffffffffffffffffffffffffff168373ffffffffffffffffffffffffffffffffffffffff16036109e6576040517f08c379a00000000000000000000000000000000000000000000000000000000081526004016109dd90613f8e565b60405180910390fd5b8073ffffffffffffffffffffffffffffffffffffffff16610a05612399565b73ffffffffffffffffffffffffffffffffffffffff161480610a345750610a3381610a2e612399565b61222f565b5b610a73576040517f08c379a0000000000000000000000000000000000000000000000000000000008152600401610a6a90614020565b60405180910390fd5b610a7d83836123a1565b505050565b600b5481565b6060600060075490506000600854600754610aa39190614040565b90506000808267ffffffffffffffff811115610ac257610ac161396f565b5b604051908082528060200260200182016040528015610afb57816020015b610ae8613430565b815260200190600190039081610ae05790505b5090506000600190505b848111610cbb573073ffffffffffffffffffffffffffffffffffffffff16600e600083815260200190815260200160002060020160009054906101000a900473ffffffffffffffffffffffffffffffffffffffff1673ffffffffffffffffffffffffffffffffffffffff1603610ca85760008190506000600e60008381526020019081526020016000209050806040518060a0016040529081600082015481526020016001820160009054906101000a900473ffffffffffffffffffffffffffffffffffffffff1673ffffffffffffffffffffffffffffffffffffffff1673ffffffffffffffffffffffffffffffffffffffff1681526020016002820160009054906101000a900473ffffffffffffffffffffffffffffffffffffffff1673ffffffffffffffffffffffffffffffffffffffff1673ffffffffffffffffffffffffffffffffffffffff168152602001600382015481526020016004820160009054906101000a900460ff161515151581525050848681518110610c8b57610c8a614074565b5b6020026020010181905250600185610ca391906140a3565b945050505b8080610cb390613de2565b915050610b05565b508094505050505090565b6000600954905090565b6060600060075490506000806000600190505b838111610d76573373ffffffffffffffffffffffffffffffffffffffff16600e600083815260200190815260200160002060020160009054906101000a900473ffffffffffffffffffffffffffffffffffffffff1673ffffffffffffffffffffffffffffffffffffffff1603610d6357600183610d6091906140a3565b92505b8080610d6e90613de2565b915050610ce3565b5060008267ffffffffffffffff811115610d9357610d9261396f565b5b604051908082528060200260200182016040528015610dcc57816020015b610db9613430565b815260200190600190039081610db15790505b5090506000600190505b848111610f8c573373ffffffffffffffffffffffffffffffffffffffff16600e600083815260200190815260200160002060020160009054906101000a900473ffffffffffffffffffffffffffffffffffffffff1673ffffffffffffffffffffffffffffffffffffffff1603610f795760008190506000600e60008381526020019081526020016000209050806040518060a0016040529081600082015481526020016001820160009054906101000a900473ffffffffffffffffffffffffffffffffffffffff1673ffffffffffffffffffffffffffffffffffffffff1673ffffffffffffffffffffffffffffffffffffffff1681526020016002820160009054906101000a900473ffffffffffffffffffffffffffffffffffffffff1673ffffffffffffffffffffffffffffffffffffffff1673ffffffffffffffffffffffffffffffffffffffff168152602001600382015481526020016004820160009054906101000a900460ff161515151581525050848681518110610f5c57610f5b614074565b5b6020026020010181905250600185610f7491906140a3565b945050505b8080610f8490613de2565b915050610dd6565b508094505050505090565b610fa8610fa2612399565b8261245a565b610fe7576040517f08c379a0000000000000000000000000000000000000000000000000000000008152600401610fde90614149565b60405180910390fd5b610ff2838383612538565b505050565b611012838383604051806020016040528060008152506119de565b505050565b6060600060075490506000806000600190505b8381116110bd573373ffffffffffffffffffffffffffffffffffffffff16600e600083815260200190815260200160002060010160009054906101000a900473ffffffffffffffffffffffffffffffffffffffff1673ffffffffffffffffffffffffffffffffffffffff16036110aa576001836110a791906140a3565b92505b80806110b590613de2565b91505061102a565b5060008267ffffffffffffffff8111156110da576110d961396f565b5b60405190808252806020026020018201604052801561111357816020015b611100613430565b8152602001906001900390816110f85790505b5090506000600190505b8481116112d3573373ffffffffffffffffffffffffffffffffffffffff16600e600083815260200190815260200160002060010160009054906101000a900473ffffffffffffffffffffffffffffffffffffffff1673ffffffffffffffffffffffffffffffffffffffff16036112c05760008190506000600e60008381526020019081526020016000209050806040518060a0016040529081600082015481526020016001820160009054906101000a900473ffffffffffffffffffffffffffffffffffffffff1673ffffffffffffffffffffffffffffffffffffffff1673ffffffffffffffffffffffffffffffffffffffff1681526020016002820160009054906101000a900473ffffffffffffffffffffffffffffffffffffffff1673ffffffffffffffffffffffffffffffffffffffff1673ffffffffffffffffffffffffffffffffffffffff168152602001600382015481526020016004820160009054906101000a900460ff1615151515815250508486815181106112a3576112a2614074565b5b60200260200101819052506001856112bb91906140a3565b945050505b80806112cb90613de2565b91505061111d565b508094505050505090565b6078600c546112ed91906140a3565b42101561132f576040517f08c379a0000000000000000000000000000000000000000000000000000000008152600401611326906141b5565b60405180910390fd5b42600c8190555061133e6107de565b565b600c5481565b6000806002600084815260200190815260200160002060009054906101000a900473ffffffffffffffffffffffffffffffffffffffff169050600073ffffffffffffffffffffffffffffffffffffffff168173ffffffffffffffffffffffffffffffffffffffff16036113ee576040517f08c379a00000000000000000000000000000000000000000000000000000000081526004016113e590614247565b60405180910390fd5b80915050919050565b60008073ffffffffffffffffffffffffffffffffffffffff168273ffffffffffffffffffffffffffffffffffffffff1603611467576040517f08c379a000000000000000000000000000000000000000000000000000000000815260040161145e906142d9565b60405180910390fd5b600360008373ffffffffffffffffffffffffffffffffffffffff1673ffffffffffffffffffffffffffffffffffffffff168152602001908152602001600020549050919050565b6000600760008154809291906114c390613de2565b9190505550600060075490506114d9338261279e565b6114e38185612977565b6114ed81846129e4565b8091505092915050565b600a60009054906101000a900473ffffffffffffffffffffffffffffffffffffffff1681565b60606001805461152c90613e59565b80601f016020809104026020016040519081016040528092919081815260200182805461155890613e59565b80156115a55780601f1061157a576101008083540402835291602001916115a5565b820191906000526020600020905b81548152906001019060200180831161158857829003601f168201915b5050505050905090565b6000600d600083815260200190815260200160002090508060030154421061160c576040517f08c379a000000000000000000000000000000000000000000000000000000000815260040161160390614345565b60405180910390fd5b80600201543411611652576040517f08c379a0000000000000000000000000000000000000000000000000000000008152600401611649906143d7565b60405180910390fd5b600073ffffffffffffffffffffffffffffffffffffffff168160010160009054906101000a900473ffffffffffffffffffffffffffffffffffffffff1673ffffffffffffffffffffffffffffffffffffffff161461171a578060010160009054906101000a900473ffffffffffffffffffffffffffffffffffffffff1673ffffffffffffffffffffffffffffffffffffffff166108fc82600201549081150290604051600060405180830381858888f19350505050158015611718573d6000803e3d6000fd5b505b6117596040518060400160405280601881526020017f506c6163696e672062696420666f7220746f6b656e49643a000000000000000081525083612db4565b61179c6040518060400160405280601181526020017f41756374696f6e20656e642074696d653a0000000000000000000000000000008152508260030154612db4565b338160010160006101000a81548173ffffffffffffffffffffffffffffffffffffffff021916908373ffffffffffffffffffffffffffffffffffffffff160217905550348160020181905550817f0e54eff26401bf69b81b26f60bd85ef47f5d85275c1d268d84f68d6897431c47333460405161181a9291906143f7565b60405180910390a25050565b611838611831612399565b8383612e50565b5050565b3373ffffffffffffffffffffffffffffffffffffffff16600a60009054906101000a900473ffffffffffffffffffffffffffffffffffffffff1673ffffffffffffffffffffffffffffffffffffffff16146118cc576040517f08c379a00000000000000000000000000000000000000000000000000000000081526004016118c390614492565b60405180910390fd5b8060098190555050565b6118de613430565b600e60008381526020019081526020016000206040518060a0016040529081600082015481526020016001820160009054906101000a900473ffffffffffffffffffffffffffffffffffffffff1673ffffffffffffffffffffffffffffffffffffffff1673ffffffffffffffffffffffffffffffffffffffff1681526020016002820160009054906101000a900473ffffffffffffffffffffffffffffffffffffffff1673ffffffffffffffffffffffffffffffffffffffff1673ffffffffffffffffffffffffffffffffffffffff168152602001600382015481526020016004820160009054906101000a900460ff1615151515815250509050919050565b6119ef6119e9612399565b8361245a565b611a2e576040517f08c379a0000000000000000000000000000000000000000000000000000000008152600401611a2590614149565b60405180910390fd5b611a3a84848484612fbc565b50505050565b611a7f6040518060400160405280601b81526020017f456e64696e672061756374696f6e20666f7220746f6b656e49643a000000000081525082612db4565b6000600d600083815260200190815260200160002090508060040160009054906101000a900460ff1615611ae8576040517f08c379a0000000000000000000000000000000000000000000000000000000008152600401611adf906144fe565b60405180910390fd5b8060030154421015611b2f576040517f08c379a0000000000000000000000000000000000000000000000000000000008152600401611b269061456a565b60405180910390fd5b60018160040160006101000a81548160ff021916908315150217905550600073ffffffffffffffffffffffffffffffffffffffff168160010160009054906101000a900473ffffffffffffffffffffffffffffffffffffffff1673ffffffffffffffffffffffffffffffffffffffff1614611e3c57611bd3308260010160009054906101000a900473ffffffffffffffffffffffffffffffffffffffff1684612538565b600e600083815260200190815260200160002060010160009054906101000a900473ffffffffffffffffffffffffffffffffffffffff1673ffffffffffffffffffffffffffffffffffffffff166108fc82600201549081150290604051600060405180830381858888f19350505050158015611c53573d6000803e3d6000fd5b506001600e600084815260200190815260200160002060040160006101000a81548160ff0219169083151502179055508060010160009054906101000a900473ffffffffffffffffffffffffffffffffffffffff16600e600084815260200190815260200160002060020160006101000a81548173ffffffffffffffffffffffffffffffffffffffff021916908373ffffffffffffffffffffffffffffffffffffffff1602179055506000600e600084815260200190815260200160002060010160006101000a81548173ffffffffffffffffffffffffffffffffffffffff021916908373ffffffffffffffffffffffffffffffffffffffff16021790555060086000815480929190611d6590613de2565b9190505550600a60009054906101000a900473ffffffffffffffffffffffffffffffffffffffff1673ffffffffffffffffffffffffffffffffffffffff166108fc6009549081150290604051600060405180830381858888f19350505050158015611dd4573d6000803e3d6000fd5b50817fd2aa34a4fdbbc6dff6a3e56f46e0f3ae2a31d7785ff3487aa5c95c642acea5018260010160009054906101000a900473ffffffffffffffffffffffffffffffffffffffff168360020154604051611e2f9291906145e9565b60405180910390a2611e7e565b611e7d30600e600085815260200190815260200160002060010160009054906101000a900473ffffffffffffffffffffffffffffffffffffffff1684612538565b5b611ebd6040518060400160405280601a81526020017f41756374696f6e20656e64656420666f7220746f6b656e49643a00000000000081525083612db4565b5050565b611eca81611a40565b611ed26107de565b50565b60095481565b6060611ee68261232d565b611f25576040517f08c379a0000000000000000000000000000000000000000000000000000000008152600401611f1c90614684565b60405180910390fd5b6000600660008481526020019081526020016000208054611f4590613e59565b80601f0160208091040260200160405190810160405280929190818152602001828054611f7190613e59565b8015611fbe5780601f10611f9357610100808354040283529160200191611fbe565b820191906000526020600020905b815481529060010190602001808311611fa157829003601f168201915b505050505090506000611fcf613018565b90506000815103611fe4578192505050612027565b6000825111156120195780826040516020016120019291906146e0565b60405160208183030381529060405292505050612027565b6120228461302f565b925050505b919050565b3373ffffffffffffffffffffffffffffffffffffffff16600e600084815260200190815260200160002060020160009054906101000a900473ffffffffffffffffffffffffffffffffffffffff1673ffffffffffffffffffffffffffffffffffffffff16146120d0576040517f08c379a00000000000000000000000000000000000000000000000000000000081526004016120c790614776565b60405180910390fd5b6009543414612114576040517f08c379a000000000000000000000000000000000000000000000000000000000815260040161210b90614808565b60405180910390fd5b6000600e600084815260200190815260200160002060040160006101000a81548160ff02191690831515021790555080600e60008481526020019081526020016000206003018190555033600e600084815260200190815260200160002060010160006101000a81548173ffffffffffffffffffffffffffffffffffffffff021916908373ffffffffffffffffffffffffffffffffffffffff16021790555030600e600084815260200190815260200160002060020160006101000a81548173ffffffffffffffffffffffffffffffffffffffff021916908373ffffffffffffffffffffffffffffffffffffffff1602179055506008600081548092919061221b90614828565b919050555061222b333084612538565b5050565b6000600560008473ffffffffffffffffffffffffffffffffffffffff1673ffffffffffffffffffffffffffffffffffffffff16815260200190815260200160002060008373ffffffffffffffffffffffffffffffffffffffff1673ffffffffffffffffffffffffffffffffffffffff16815260200190815260200160002060009054906101000a900460ff16905092915050565b60007f01ffc9a7000000000000000000000000000000000000000000000000000000007bffffffffffffffffffffffffffffffffffffffffffffffffffffffff1916827bffffffffffffffffffffffffffffffffffffffffffffffffffffffff1916149050919050565b60008073ffffffffffffffffffffffffffffffffffffffff166002600084815260200190815260200160002060009054906101000a900473ffffffffffffffffffffffffffffffffffffffff1673ffffffffffffffffffffffffffffffffffffffff1614159050919050565b600033905090565b816004600083815260200190815260200160002060006101000a81548173ffffffffffffffffffffffffffffffffffffffff021916908373ffffffffffffffffffffffffffffffffffffffff160217905550808273ffffffffffffffffffffffffffffffffffffffff1661241483611346565b73ffffffffffffffffffffffffffffffffffffffff167f8c5be1e5ebec7d5bd14f71427d1e84f3dd0314c0f7b2291e5b200ac8c7c3b92560405160405180910390a45050565b60006124658261232d565b6124a4576040517f08c379a000000000000000000000000000000000000000000000000000000000815260040161249b906148c3565b60405180910390fd5b60006124af83611346565b90508073ffffffffffffffffffffffffffffffffffffffff168473ffffffffffffffffffffffffffffffffffffffff16148061251e57508373ffffffffffffffffffffffffffffffffffffffff16612506846108e6565b73ffffffffffffffffffffffffffffffffffffffff16145b8061252f575061252e818561222f565b5b91505092915050565b8273ffffffffffffffffffffffffffffffffffffffff1661255882611346565b73ffffffffffffffffffffffffffffffffffffffff16146125ae576040517f08c379a00000000000000000000000000000000000000000000000000000000081526004016125a590614955565b60405180910390fd5b600073ffffffffffffffffffffffffffffffffffffffff168273ffffffffffffffffffffffffffffffffffffffff160361261d576040517f08c379a0000000000000000000000000000000000000000000000000000000008152600401612614906149e7565b60405180910390fd5b6126288383836130d6565b6126336000826123a1565b6001600360008573ffffffffffffffffffffffffffffffffffffffff1673ffffffffffffffffffffffffffffffffffffffff16815260200190815260200160002060008282546126839190614040565b925050819055506001600360008473ffffffffffffffffffffffffffffffffffffffff1673ffffffffffffffffffffffffffffffffffffffff16815260200190815260200160002060008282546126da91906140a3565b92505081905550816002600083815260200190815260200160002060006101000a81548173ffffffffffffffffffffffffffffffffffffffff021916908373ffffffffffffffffffffffffffffffffffffffff160217905550808273ffffffffffffffffffffffffffffffffffffffff168473ffffffffffffffffffffffffffffffffffffffff167fddf252ad1be2c89b69c2b068fc378daa952ba7f163c4a11628f55a4df523b3ef60405160405180910390a46127998383836130db565b505050565b600073ffffffffffffffffffffffffffffffffffffffff168273ffffffffffffffffffffffffffffffffffffffff160361280d576040517f08c379a000000000000000000000000000000000000000000000000000000000815260040161280490614a53565b60405180910390fd5b6128168161232d565b15612856576040517f08c379a000000000000000000000000000000000000000000000000000000000815260040161284d90614abf565b60405180910390fd5b612862600083836130d6565b6001600360008473ffffffffffffffffffffffffffffffffffffffff1673ffffffffffffffffffffffffffffffffffffffff16815260200190815260200160002060008282546128b291906140a3565b92505081905550816002600083815260200190815260200160002060006101000a81548173ffffffffffffffffffffffffffffffffffffffff021916908373ffffffffffffffffffffffffffffffffffffffff160217905550808273ffffffffffffffffffffffffffffffffffffffff16600073ffffffffffffffffffffffffffffffffffffffff167fddf252ad1be2c89b69c2b068fc378daa952ba7f163c4a11628f55a4df523b3ef60405160405180910390a4612973600083836130db565b5050565b6129808261232d565b6129bf576040517f08c379a00000000000000000000000000000000000000000000000000000000081526004016129b690614b51565b60405180910390fd5b806006600084815260200190815260200160002090816129df9190614d13565b505050565b60008111612a27576040517f08c379a0000000000000000000000000000000000000000000000000000000008152600401612a1e90614e31565b60405180910390fd5b6009543414612a6b576040517f08c379a0000000000000000000000000000000000000000000000000000000008152600401612a6290614808565b60405180910390fd5b6040518060a001604052808381526020013373ffffffffffffffffffffffffffffffffffffffff1681526020013073ffffffffffffffffffffffffffffffffffffffff16815260200182815260200160001515815250600e60008481526020019081526020016000206000820151816000015560208201518160010160006101000a81548173ffffffffffffffffffffffffffffffffffffffff021916908373ffffffffffffffffffffffffffffffffffffffff16021790555060408201518160020160006101000a81548173ffffffffffffffffffffffffffffffffffffffff021916908373ffffffffffffffffffffffffffffffffffffffff1602179055506060820151816003015560808201518160040160006101000a81548160ff0219169083151502179055509050506040518060a00160405280838152602001600073ffffffffffffffffffffffffffffffffffffffff168152602001828152602001600b5442612bdb91906140a3565b815260200160001515815250600d60008481526020019081526020016000206000820151816000015560208201518160010160006101000a81548173ffffffffffffffffffffffffffffffffffffffff021916908373ffffffffffffffffffffffffffffffffffffffff160217905550604082015181600201556060820151816003015560808201518160040160006101000a81548160ff021916908315150217905550905050612cc16040518060400160405280601c81526020017f41756374696f6e206372656174656420666f7220746f6b656e49643a0000000081525083612db4565b612d166040518060400160405280601181526020017f41756374696f6e20656e642074696d653a000000000000000000000000000000815250600d600085815260200190815260200160002060030154612db4565b817f6ff530872708bbb51bad8ea341564e4ea039807ad1331f61ab4c906a66875daf33600d600086815260200190815260200160002060030154604051612d5e9291906143f7565b60405180910390a2612d71333084612538565b817fb640004f1d14576d0c209e240cad0410e0d8c0c33a09375861fbadae2588a98d3330846000604051612da89493929190614e51565b60405180910390a25050565b612e4c8282604051602401612dca929190614e96565b6040516020818303038152906040527fb60e72cc000000000000000000000000000000000000000000000000000000007bffffffffffffffffffffffffffffffffffffffffffffffffffffffff19166020820180517bffffffffffffffffffffffffffffffffffffffffffffffffffffffff83818316178352505050506130e0565b5050565b8173ffffffffffffffffffffffffffffffffffffffff168373ffffffffffffffffffffffffffffffffffffffff1603612ebe576040517f08c379a0000000000000000000000000000000000000000000000000000000008152600401612eb590614f12565b60405180910390fd5b80600560008573ffffffffffffffffffffffffffffffffffffffff1673ffffffffffffffffffffffffffffffffffffffff16815260200190815260200160002060008473ffffffffffffffffffffffffffffffffffffffff1673ffffffffffffffffffffffffffffffffffffffff16815260200190815260200160002060006101000a81548160ff0219169083151502179055508173ffffffffffffffffffffffffffffffffffffffff168373ffffffffffffffffffffffffffffffffffffffff167f17307eab39ab6107e8899845ad3d59bd9653f200f220920489ca2b5937696c3183604051612faf919061354b565b60405180910390a3505050565b612fc7848484612538565b612fd3848484846130fa565b613012576040517f08c379a000000000000000000000000000000000000000000000000000000000815260040161300990614fa4565b60405180910390fd5b50505050565b606060405180602001604052806000815250905090565b606061303a8261232d565b613079576040517f08c379a000000000000000000000000000000000000000000000000000000000815260040161307090615036565b60405180910390fd5b6000613083613018565b905060008151116130a357604051806020016040528060008152506130ce565b806130ad84613281565b6040516020016130be9291906146e0565b6040516020818303038152906040525b915050919050565b505050565b505050565b6130f7816130ef6133e1613402565b63ffffffff16565b50565b600061311b8473ffffffffffffffffffffffffffffffffffffffff1661340d565b15613274578373ffffffffffffffffffffffffffffffffffffffff1663150b7a02613144612399565b8786866040518563ffffffff1660e01b815260040161316694939291906150ab565b6020604051808303816000875af19250505080156131a257506040513d601f19601f8201168201806040525081019061319f919061510c565b60015b613224573d80600081146131d2576040519150601f19603f3d011682016040523d82523d6000602084013e6131d7565b606091505b50600081510361321c576040517f08c379a000000000000000000000000000000000000000000000000000000000815260040161321390614fa4565b60405180910390fd5b805181602001fd5b63150b7a0260e01b7bffffffffffffffffffffffffffffffffffffffffffffffffffffffff1916817bffffffffffffffffffffffffffffffffffffffffffffffffffffffff191614915050613279565b600190505b949350505050565b6060600082036132c8576040518060400160405280600181526020017f300000000000000000000000000000000000000000000000000000000000000081525090506133dc565b600082905060005b600082146132fa5780806132e390613de2565b915050600a826132f39190615168565b91506132d0565b60008167ffffffffffffffff8111156133165761331561396f565b5b6040519080825280601f01601f1916602001820160405280156133485781602001600182028036833780820191505090505b5090505b600085146133d5576001826133619190614040565b9150600a856133709190615199565b603061337c91906140a3565b60f81b81838151811061339257613391614074565b5b60200101907effffffffffffffffffffffffffffffffffffffffffffffffffffffffffffff1916908160001a905350600a856133ce9190615168565b945061334c565b8093505050505b919050565b60006a636f6e736f6c652e6c6f679050600080835160208501845afa505050565b61348d819050919050565b6000808273ffffffffffffffffffffffffffffffffffffffff163b119050919050565b6040518060a0016040528060008152602001600073ffffffffffffffffffffffffffffffffffffffff168152602001600073ffffffffffffffffffffffffffffffffffffffff168152602001600081526020016000151581525090565b6134956151ca565b565b6000604051905090565b600080fd5b600080fd5b60007fffffffff0000000000000000000000000000000000000000000000000000000082169050919050565b6134e0816134ab565b81146134eb57600080fd5b50565b6000813590506134fd816134d7565b92915050565b600060208284031215613519576135186134a1565b5b6000613527848285016134ee565b91505092915050565b60008115159050919050565b61354581613530565b82525050565b6000602082019050613560600083018461353c565b92915050565b600081519050919050565b600082825260208201905092915050565b60005b838110156135a0578082015181840152602081019050613585565b60008484015250505050565b6000601f19601f8301169050919050565b60006135c882613566565b6135d28185613571565b93506135e2818560208601613582565b6135eb816135ac565b840191505092915050565b6000602082019050818103600083015261361081846135bd565b905092915050565b6000819050919050565b61362b81613618565b811461363657600080fd5b50565b60008135905061364881613622565b92915050565b600060208284031215613664576136636134a1565b5b600061367284828501613639565b91505092915050565b600073ffffffffffffffffffffffffffffffffffffffff82169050919050565b60006136a68261367b565b9050919050565b6136b68161369b565b82525050565b60006020820190506136d160008301846136ad565b92915050565b6136e08161369b565b81146136eb57600080fd5b50565b6000813590506136fd816136d7565b92915050565b6000806040838503121561371a576137196134a1565b5b6000613728858286016136ee565b925050602061373985828601613639565b9150509250929050565b61374c81613618565b82525050565b60006020820190506137676000830184613743565b92915050565b600081519050919050565b600082825260208201905092915050565b6000819050602082019050919050565b6137a281613618565b82525050565b60006137b38261367b565b9050919050565b6137c3816137a8565b82525050565b6137d281613530565b82525050565b60a0820160008201516137ee6000850182613799565b50602082015161380160208501826137ba565b50604082015161381460408501826137ba565b5060608201516138276060850182613799565b50608082015161383a60808501826137c9565b50505050565b600061384c83836137d8565b60a08301905092915050565b6000602082019050919050565b60006138708261376d565b61387a8185613778565b935061388583613789565b8060005b838110156138b657815161389d8882613840565b97506138a883613858565b925050600181019050613889565b5085935050505092915050565b600060208201905081810360008301526138dd8184613865565b905092915050565b6000806000606084860312156138fe576138fd6134a1565b5b600061390c868287016136ee565b935050602061391d868287016136ee565b925050604061392e86828701613639565b9150509250925092565b60006020828403121561394e5761394d6134a1565b5b600061395c848285016136ee565b91505092915050565b600080fd5b600080fd5b7f4e487b7100000000000000000000000000000000000000000000000000000000600052604160045260246000fd5b6139a7826135ac565b810181811067ffffffffffffffff821117156139c6576139c561396f565b5b80604052505050565b60006139d9613497565b90506139e5828261399e565b919050565b600067ffffffffffffffff821115613a0557613a0461396f565b5b613a0e826135ac565b9050602081019050919050565b82818337600083830152505050565b6000613a3d613a38846139ea565b6139cf565b905082815260208101848484011115613a5957613a5861396a565b5b613a64848285613a1b565b509392505050565b600082601f830112613a8157613a80613965565b5b8135613a91848260208601613a2a565b91505092915050565b60008060408385031215613ab157613ab06134a1565b5b600083013567ffffffffffffffff811115613acf57613ace6134a6565b5b613adb85828601613a6c565b9250506020613aec85828601613639565b9150509250929050565b613aff816137a8565b82525050565b6000602082019050613b1a6000830184613af6565b92915050565b613b2981613530565b8114613b3457600080fd5b50565b600081359050613b4681613b20565b92915050565b60008060408385031215613b6357613b626134a1565b5b6000613b71858286016136ee565b9250506020613b8285828601613b37565b9150509250929050565b60a082016000820151613ba26000850182613799565b506020820151613bb560208501826137ba565b506040820151613bc860408501826137ba565b506060820151613bdb6060850182613799565b506080820151613bee60808501826137c9565b50505050565b600060a082019050613c096000830184613b8c565b92915050565b600067ffffffffffffffff821115613c2a57613c2961396f565b5b613c33826135ac565b9050602081019050919050565b6000613c53613c4e84613c0f565b6139cf565b905082815260208101848484011115613c6f57613c6e61396a565b5b613c7a848285613a1b565b509392505050565b600082601f830112613c9757613c96613965565b5b8135613ca7848260208601613c40565b91505092915050565b60008060008060808587031215613cca57613cc96134a1565b5b6000613cd8878288016136ee565b9450506020613ce9878288016136ee565b9350506040613cfa87828801613639565b925050606085013567ffffffffffffffff811115613d1b57613d1a6134a6565b5b613d2787828801613c82565b91505092959194509250565b60008060408385031215613d4a57613d496134a1565b5b6000613d5885828601613639565b9250506020613d6985828601613639565b9150509250929050565b60008060408385031215613d8a57613d896134a1565b5b6000613d98858286016136ee565b9250506020613da9858286016136ee565b9150509250929050565b7f4e487b7100000000000000000000000000000000000000000000000000000000600052601160045260246000fd5b6000613ded82613618565b91507fffffffffffffffffffffffffffffffffffffffffffffffffffffffffffffffff8203613e1f57613e1e613db3565b5b600182019050919050565b7f4e487b7100000000000000000000000000000000000000000000000000000000600052602260045260246000fd5b60006002820490506001821680613e7157607f821691505b602082108103613e8457613e83613e2a565b5b50919050565b7f4552433732313a20617070726f76656420717565727920666f72206e6f6e657860008201527f697374656e7420746f6b656e0000000000000000000000000000000000000000602082015250565b6000613ee6602c83613571565b9150613ef182613e8a565b604082019050919050565b60006020820190508181036000830152613f1581613ed9565b9050919050565b7f4552433732313a20617070726f76616c20746f2063757272656e74206f776e6560008201527f7200000000000000000000000000000000000000000000000000000000000000602082015250565b6000613f78602183613571565b9150613f8382613f1c565b604082019050919050565b60006020820190508181036000830152613fa781613f6b565b9050919050565b7f4552433732313a20617070726f76652063616c6c6572206973206e6f74206f7760008201527f6e6572206e6f7220617070726f76656420666f7220616c6c0000000000000000602082015250565b600061400a603883613571565b915061401582613fae565b604082019050919050565b6000602082019050818103600083015261403981613ffd565b9050919050565b600061404b82613618565b915061405683613618565b925082820390508181111561406e5761406d613db3565b5b92915050565b7f4e487b7100000000000000000000000000000000000000000000000000000000600052603260045260246000fd5b60006140ae82613618565b91506140b983613618565b92508282019050808211156140d1576140d0613db3565b5b92915050565b7f4552433732313a207472616e736665722063616c6c6572206973206e6f74206f60008201527f776e6572206e6f7220617070726f766564000000000000000000000000000000602082015250565b6000614133603183613571565b915061413e826140d7565b604082019050919050565b6000602082019050818103600083015261416281614126565b9050919050565b7f546f6f20736f6f6e20746f206175746f6d6174652061756374696f6e73000000600082015250565b600061419f601d83613571565b91506141aa82614169565b602082019050919050565b600060208201905081810360008301526141ce81614192565b9050919050565b7f4552433732313a206f776e657220717565727920666f72206e6f6e657869737460008201527f656e7420746f6b656e0000000000000000000000000000000000000000000000602082015250565b6000614231602983613571565b915061423c826141d5565b604082019050919050565b6000602082019050818103600083015261426081614224565b9050919050565b7f4552433732313a2062616c616e636520717565727920666f7220746865207a6560008201527f726f206164647265737300000000000000000000000000000000000000000000602082015250565b60006142c3602a83613571565b91506142ce82614267565b604082019050919050565b600060208201905081810360008301526142f2816142b6565b9050919050565b7f41756374696f6e2068617320656e646564000000000000000000000000000000600082015250565b600061432f601183613571565b915061433a826142f9565b602082019050919050565b6000602082019050818103600083015261435e81614322565b9050919050565b7f426964206d75737420626520686967686572207468616e20746865206375727260008201527f656e742068696768657374206269640000000000000000000000000000000000602082015250565b60006143c1602f83613571565b91506143cc82614365565b604082019050919050565b600060208201905081810360008301526143f0816143b4565b9050919050565b600060408201905061440c60008301856136ad565b6144196020830184613743565b9392505050565b7f4f6e6c79206d61726b6574706c616365206f776e65722063616e20757064617460008201527f65206c697374696e672070726963652e00000000000000000000000000000000602082015250565b600061447c603083613571565b915061448782614420565b604082019050919050565b600060208201905081810360008301526144ab8161446f565b9050919050565b7f41756374696f6e2068617320616c726561647920656e64656400000000000000600082015250565b60006144e8601983613571565b91506144f3826144b2565b602082019050919050565b60006020820190508181036000830152614517816144db565b9050919050565b7f41756374696f6e20686173206e6f7420656e6465642079657400000000000000600082015250565b6000614554601983613571565b915061455f8261451e565b602082019050919050565b6000602082019050818103600083015261458381614547565b9050919050565b6000819050919050565b60006145af6145aa6145a58461367b565b61458a565b61367b565b9050919050565b60006145c182614594565b9050919050565b60006145d3826145b6565b9050919050565b6145e3816145c8565b82525050565b60006040820190506145fe60008301856145da565b61460b6020830184613743565b9392505050565b7f45524337323155524953746f726167653a2055524920717565727920666f722060008201527f6e6f6e6578697374656e7420746f6b656e000000000000000000000000000000602082015250565b600061466e603183613571565b915061467982614612565b604082019050919050565b6000602082019050818103600083015261469d81614661565b9050919050565b600081905092915050565b60006146ba82613566565b6146c481856146a4565b93506146d4818560208601613582565b80840191505092915050565b60006146ec82856146af565b91506146f882846146af565b91508190509392505050565b7f4f6e6c79206974656d206f776e65722063616e20706572666f726d207468697360008201527f206f7065726174696f6e00000000000000000000000000000000000000000000602082015250565b6000614760602a83613571565b915061476b82614704565b604082019050919050565b6000602082019050818103600083015261478f81614753565b9050919050565b7f5072696365206d75737420626520657175616c20746f206c697374696e67207060008201527f7269636500000000000000000000000000000000000000000000000000000000602082015250565b60006147f2602483613571565b91506147fd82614796565b604082019050919050565b60006020820190508181036000830152614821816147e5565b9050919050565b600061483382613618565b91506000820361484657614845613db3565b5b600182039050919050565b7f4552433732313a206f70657261746f7220717565727920666f72206e6f6e657860008201527f697374656e7420746f6b656e0000000000000000000000000000000000000000602082015250565b60006148ad602c83613571565b91506148b882614851565b604082019050919050565b600060208201905081810360008301526148dc816148a0565b9050919050565b7f4552433732313a207472616e736665722066726f6d20696e636f72726563742060008201527f6f776e6572000000000000000000000000000000000000000000000000000000602082015250565b600061493f602583613571565b915061494a826148e3565b604082019050919050565b6000602082019050818103600083015261496e81614932565b9050919050565b7f4552433732313a207472616e7366657220746f20746865207a65726f2061646460008201527f7265737300000000000000000000000000000000000000000000000000000000602082015250565b60006149d1602483613571565b91506149dc82614975565b604082019050919050565b60006020820190508181036000830152614a00816149c4565b9050919050565b7f4552433732313a206d696e7420746f20746865207a65726f2061646472657373600082015250565b6000614a3d602083613571565b9150614a4882614a07565b602082019050919050565b60006020820190508181036000830152614a6c81614a30565b9050919050565b7f4552433732313a20746f6b656e20616c7265616479206d696e74656400000000600082015250565b6000614aa9601c83613571565b9150614ab482614a73565b602082019050919050565b60006020820190508181036000830152614ad881614a9c565b9050919050565b7f45524337323155524953746f726167653a2055524920736574206f66206e6f6e60008201527f6578697374656e7420746f6b656e000000000000000000000000000000000000602082015250565b6000614b3b602e83613571565b9150614b4682614adf565b604082019050919050565b60006020820190508181036000830152614b6a81614b2e565b9050919050565b60008190508160005260206000209050919050565b60006020601f8301049050919050565b600082821b905092915050565b600060088302614bd37fffffffffffffffffffffffffffffffffffffffffffffffffffffffffffffffff82614b96565b614bdd8683614b96565b95508019841693508086168417925050509392505050565b6000614c10614c0b614c0684613618565b61458a565b613618565b9050919050565b6000819050919050565b614c2a83614bf5565b614c3e614c3682614c17565b848454614ba3565b825550505050565b600090565b614c53614c46565b614c5e818484614c21565b505050565b5b81811015614c8257614c77600082614c4b565b600181019050614c64565b5050565b601f821115614cc757614c9881614b71565b614ca184614b86565b81016020851015614cb0578190505b614cc4614cbc85614b86565b830182614c63565b50505b505050565b600082821c905092915050565b6000614cea60001984600802614ccc565b1980831691505092915050565b6000614d038383614cd9565b9150826002028217905092915050565b614d1c82613566565b67ffffffffffffffff811115614d3557614d3461396f565b5b614d3f8254613e59565b614d4a828285614c86565b600060209050601f831160018114614d7d5760008415614d6b578287015190505b614d758582614cf7565b865550614ddd565b601f198416614d8b86614b71565b60005b82811015614db357848901518255600182019150602085019450602081019050614d8e565b86831015614dd05784890151614dcc601f891682614cd9565b8355505b6001600288020188555050505b505050505050565b7f5072696365206d757374206265206174206c6561737420312077656900000000600082015250565b6000614e1b601c83613571565b9150614e2682614de5565b602082019050919050565b60006020820190508181036000830152614e4a81614e0e565b9050919050565b6000608082019050614e6660008301876136ad565b614e7360208301866136ad565b614e806040830185613743565b614e8d606083018461353c565b95945050505050565b60006040820190508181036000830152614eb081856135bd565b9050614ebf6020830184613743565b9392505050565b7f4552433732313a20617070726f766520746f2063616c6c657200000000000000600082015250565b6000614efc601983613571565b9150614f0782614ec6565b602082019050919050565b60006020820190508181036000830152614f2b81614eef565b9050919050565b7f4552433732313a207472616e7366657220746f206e6f6e20455243373231526560008201527f63656976657220696d706c656d656e7465720000000000000000000000000000602082015250565b6000614f8e603283613571565b9150614f9982614f32565b604082019050919050565b60006020820190508181036000830152614fbd81614f81565b9050919050565b7f4552433732314d657461646174613a2055524920717565727920666f72206e6f60008201527f6e6578697374656e7420746f6b656e0000000000000000000000000000000000602082015250565b6000615020602f83613571565b915061502b82614fc4565b604082019050919050565b6000602082019050818103600083015261504f81615013565b9050919050565b600081519050919050565b600082825260208201905092915050565b600061507d82615056565b6150878185615061565b9350615097818560208601613582565b6150a0816135ac565b840191505092915050565b60006080820190506150c060008301876136ad565b6150cd60208301866136ad565b6150da6040830185613743565b81810360608301526150ec8184615072565b905095945050505050565b600081519050615106816134d7565b92915050565b600060208284031215615122576151216134a1565b5b6000615130848285016150f7565b91505092915050565b7f4e487b7100000000000000000000000000000000000000000000000000000000600052601260045260246000fd5b600061517382613618565b915061517e83613618565b92508261518e5761518d615139565b5b828204905092915050565b60006151a482613618565b91506151af83613618565b9250826151bf576151be615139565b5b828206905092915050565b7f4e487b7100000000000000000000000000000000000000000000000000000000600052605160045260246000fdfea26469706673582212208158653ce19d1a6849b3ddb38db3eb858874de190fa274c4d6a08b137fe179eb64736f6c63430008140033","opcodes":"PUSH1 0x80 PUSH1 0x40 MSTORE PUSH7 0x58D15E17628000 PUSH1 0x9 SSTORE PUSH2 0x4B0 PUSH1 0xB SSTORE CALLVALUE DUP1 ISZERO PUSH3 0x22 JUMPI PUSH1 0x0 DUP1 REVERT JUMPDEST POP PUSH1 0x40 MLOAD DUP1 PUSH1 0x40 ADD PUSH1 0x40 MSTORE DUP1 PUSH1 0x10 DUP2 MSTORE PUSH1 0x20 ADD PUSH32 0x4D657461766572736520546F6B656E7300000000000000000000000000000000 DUP2 MSTORE POP PUSH1 0x40 MLOAD DUP1 PUSH1 0x40 ADD PUSH1 0x40 MSTORE DUP1 PUSH1 0x4 DUP2 MSTORE PUSH1 0x20 ADD PUSH32 0x4D45545400000000000000000000000000000000000000000000000000000000 DUP2 MSTORE POP DUP2 PUSH1 0x0 SWAP1 DUP2 PUSH3 0xA0 SWAP2 SWAP1 PUSH3 0x37D JUMP JUMPDEST POP DUP1 PUSH1 0x1 SWAP1 DUP2 PUSH3 0xB2 SWAP2 SWAP1 PUSH3 0x37D JUMP JUMPDEST POP POP POP CALLER PUSH1 0xA PUSH1 0x0 PUSH2 0x100 EXP DUP2 SLOAD DUP2 PUSH20 0xFFFFFFFFFFFFFFFFFFFFFFFFFFFFFFFFFFFFFFFF MUL NOT AND SWAP1 DUP4 PUSH20 0xFFFFFFFFFFFFFFFFFFFFFFFFFFFFFFFFFFFFFFFF AND MUL OR SWAP1 SSTORE POP TIMESTAMP PUSH1 0xC DUP2 SWAP1 SSTORE POP PUSH3 0x464 JUMP JUMPDEST PUSH1 0x0 DUP2 MLOAD SWAP1 POP SWAP2 SWAP1 POP JUMP JUMPDEST PUSH32 0x4E487B7100000000000000000000000000000000000000000000000000000000 PUSH1 0x0 MSTORE PUSH1 0x41 PUSH1 0x4 MSTORE PUSH1 0x24 PUSH1 0x0 REVERT JUMPDEST PUSH32 0x4E487B7100000000000000000000000000000000000000000000000000000000 PUSH1 0x0 MSTORE PUSH1 0x22 PUSH1 0x4 MSTORE PUSH1 0x24 PUSH1 0x0 REVERT JUMPDEST PUSH1 0x0 PUSH1 0x2 DUP3 DIV SWAP1 POP PUSH1 0x1 DUP3 AND DUP1 PUSH3 0x185 JUMPI PUSH1 0x7F DUP3 AND SWAP2 POP JUMPDEST PUSH1 0x20 DUP3 LT DUP2 SUB PUSH3 0x19B JUMPI PUSH3 0x19A PUSH3 0x13D JUMP JUMPDEST JUMPDEST POP SWAP2 SWAP1 POP JUMP JUMPDEST PUSH1 0x0 DUP2 SWAP1 POP DUP2 PUSH1 0x0 MSTORE PUSH1 0x20 PUSH1 0x0 KECCAK256 SWAP1 POP SWAP2 SWAP1 POP JUMP JUMPDEST PUSH1 0x0 PUSH1 0x20 PUSH1 0x1F DUP4 ADD DIV SWAP1 POP SWAP2 SWAP1 POP JUMP JUMPDEST PUSH1 0x0 DUP3 DUP3 SHL SWAP1 POP SWAP3 SWAP2 POP POP JUMP JUMPDEST PUSH1 0x0 PUSH1 0x8 DUP4 MUL PUSH3 0x205 PUSH32 0xFFFFFFFFFFFFFFFFFFFFFFFFFFFFFFFFFFFFFFFFFFFFFFFFFFFFFFFFFFFFFFFF DUP3 PUSH3 0x1C6 JUMP JUMPDEST PUSH3 0x211 DUP7 DUP4 PUSH3 0x1C6 JUMP JUMPDEST SWAP6 POP DUP1 NOT DUP5 AND SWAP4 POP DUP1 DUP7 AND DUP5 OR SWAP3 POP POP POP SWAP4 SWAP3 POP POP POP JUMP JUMPDEST PUSH1 0x0 DUP2 SWAP1 POP SWAP2 SWAP1 POP JUMP JUMPDEST PUSH1 0x0 DUP2 SWAP1 POP SWAP2 SWAP1 POP JUMP JUMPDEST PUSH1 0x0 PUSH3 0x25E PUSH3 0x258 PUSH3 0x252 DUP5 PUSH3 0x229 JUMP JUMPDEST PUSH3 0x233 JUMP JUMPDEST PUSH3 0x229 JUMP JUMPDEST SWAP1 POP SWAP2 SWAP1 POP JUMP JUMPDEST PUSH1 0x0 DUP2 SWAP1 POP SWAP2 SWAP1 POP JUMP JUMPDEST PUSH3 0x27A DUP4 PUSH3 0x23D JUMP JUMPDEST PUSH3 0x292 PUSH3 0x289 DUP3 PUSH3 0x265 JUMP JUMPDEST DUP5 DUP5 SLOAD PUSH3 0x1D3 JUMP JUMPDEST DUP3 SSTORE POP POP POP POP JUMP JUMPDEST PUSH1 0x0 SWAP1 JUMP JUMPDEST PUSH3 0x2A9 PUSH3 0x29A JUMP JUMPDEST PUSH3 0x2B6 DUP2 DUP5 DUP5 PUSH3 0x26F JUMP JUMPDEST POP POP POP JUMP JUMPDEST JUMPDEST DUP2 DUP2 LT ISZERO PUSH3 0x2DE JUMPI PUSH3 0x2D2 PUSH1 0x0 DUP3 PUSH3 0x29F JUMP JUMPDEST PUSH1 0x1 DUP2 ADD SWAP1 POP PUSH3 0x2BC JUMP JUMPDEST POP POP JUMP JUMPDEST PUSH1 0x1F DUP3 GT ISZERO PUSH3 0x32D JUMPI PUSH3 0x2F7 DUP2 PUSH3 0x1A1 JUMP JUMPDEST PUSH3 0x302 DUP5 PUSH3 0x1B6 JUMP JUMPDEST DUP2 ADD PUSH1 0x20 DUP6 LT ISZERO PUSH3 0x312 JUMPI DUP2 SWAP1 POP JUMPDEST PUSH3 0x32A PUSH3 0x321 DUP6 PUSH3 0x1B6 JUMP JUMPDEST DUP4 ADD DUP3 PUSH3 0x2BB JUMP JUMPDEST POP POP JUMPDEST POP POP POP JUMP JUMPDEST PUSH1 0x0 DUP3 DUP3 SHR SWAP1 POP SWAP3 SWAP2 POP POP JUMP JUMPDEST PUSH1 0x0 PUSH3 0x352 PUSH1 0x0 NOT DUP5 PUSH1 0x8 MUL PUSH3 0x332 JUMP JUMPDEST NOT DUP1 DUP4 AND SWAP2 POP POP SWAP3 SWAP2 POP POP JUMP JUMPDEST PUSH1 0x0 PUSH3 0x36D DUP4 DUP4 PUSH3 0x33F JUMP JUMPDEST SWAP2 POP DUP3 PUSH1 0x2 MUL DUP3 OR SWAP1 POP SWAP3 SWAP2 POP POP JUMP JUMPDEST PUSH3 0x388 DUP3 PUSH3 0x103 JUMP JUMPDEST PUSH8 0xFFFFFFFFFFFFFFFF DUP2 GT ISZERO PUSH3 0x3A4 JUMPI PUSH3 0x3A3 PUSH3 0x10E JUMP JUMPDEST JUMPDEST PUSH3 0x3B0 DUP3 SLOAD PUSH3 0x16C JUMP JUMPDEST PUSH3 0x3BD DUP3 DUP3 DUP6 PUSH3 0x2E2 JUMP JUMPDEST PUSH1 0x0 PUSH1 0x20 SWAP1 POP PUSH1 0x1F DUP4 GT PUSH1 0x1 DUP2 EQ PUSH3 0x3F5 JUMPI PUSH1 0x0 DUP5 ISZERO PUSH3 0x3E0 JUMPI DUP3 DUP8 ADD MLOAD SWAP1 POP JUMPDEST PUSH3 0x3EC DUP6 DUP3 PUSH3 0x35F JUMP JUMPDEST DUP7 SSTORE POP PUSH3 0x45C JUMP JUMPDEST PUSH1 0x1F NOT DUP5 AND PUSH3 0x405 DUP7 PUSH3 0x1A1 JUMP JUMPDEST PUSH1 0x0 JUMPDEST DUP3 DUP2 LT ISZERO PUSH3 0x42F JUMPI DUP5 DUP10 ADD MLOAD DUP3 SSTORE PUSH1 0x1 DUP3 ADD SWAP2 POP PUSH1 0x20 DUP6 ADD SWAP5 POP PUSH1 0x20 DUP2 ADD SWAP1 POP PUSH3 0x408 JUMP JUMPDEST DUP7 DUP4 LT ISZERO PUSH3 0x44F JUMPI DUP5 DUP10 ADD MLOAD PUSH3 0x44B PUSH1 0x1F DUP10 AND DUP3 PUSH3 0x33F JUMP JUMPDEST DUP4 SSTORE POP JUMPDEST PUSH1 0x1 PUSH1 0x2 DUP9 MUL ADD DUP9 SSTORE POP POP POP JUMPDEST POP POP POP POP POP POP JUMP JUMPDEST PUSH2 0x522F DUP1 PUSH3 0x474 PUSH1 0x0 CODECOPY PUSH1 0x0 RETURN INVALID PUSH1 0x80 PUSH1 0x40 MSTORE PUSH1 0x4 CALLDATASIZE LT PUSH2 0x1CD JUMPI PUSH1 0x0 CALLDATALOAD PUSH1 0xE0 SHR DUP1 PUSH4 0x70A08231 GT PUSH2 0xF7 JUMPI DUP1 PUSH4 0xB863A7CD GT PUSH2 0x95 JUMPI DUP1 PUSH4 0xC78F19F9 GT PUSH2 0x64 JUMPI DUP1 PUSH4 0xC78F19F9 EQ PUSH2 0x63B JUMPI DUP1 PUSH4 0xC87B56DD EQ PUSH2 0x666 JUMPI DUP1 PUSH4 0xE219FC75 EQ PUSH2 0x6A3 JUMPI DUP1 PUSH4 0xE985E9C5 EQ PUSH2 0x6BF JUMPI PUSH2 0x1CD JUMP JUMPDEST DUP1 PUSH4 0xB863A7CD EQ PUSH2 0x583 JUMPI DUP1 PUSH4 0xB88D4FDE EQ PUSH2 0x5C0 JUMPI DUP1 PUSH4 0xB9A2DE3A EQ PUSH2 0x5E9 JUMPI DUP1 PUSH4 0xBE9AF536 EQ PUSH2 0x612 JUMPI PUSH2 0x1CD JUMP JUMPDEST DUP1 PUSH4 0x95D89B41 GT PUSH2 0xD1 JUMPI DUP1 PUSH4 0x95D89B41 EQ PUSH2 0x4F7 JUMPI DUP1 PUSH4 0x9979EF45 EQ PUSH2 0x522 JUMPI DUP1 PUSH4 0xA22CB465 EQ PUSH2 0x53E JUMPI DUP1 PUSH4 0xAE677AA3 EQ PUSH2 0x567 JUMPI PUSH2 0x1CD JUMP JUMPDEST DUP1 PUSH4 0x70A08231 EQ PUSH2 0x45F JUMPI DUP1 PUSH4 0x72B3B620 EQ PUSH2 0x49C JUMPI DUP1 PUSH4 0x8DA5CB5B EQ PUSH2 0x4CC JUMPI PUSH2 0x1CD JUMP JUMPDEST DUP1 PUSH4 0x12E85585 GT PUSH2 0x16F JUMPI DUP1 PUSH4 0x45F8FA80 GT PUSH2 0x13E JUMPI DUP1 PUSH4 0x45F8FA80 EQ PUSH2 0x3B5 JUMPI DUP1 PUSH4 0x4700C27E EQ PUSH2 0x3E0 JUMPI DUP1 PUSH4 0x56F28555 EQ PUSH2 0x3F7 JUMPI DUP1 PUSH4 0x6352211E EQ PUSH2 0x422 JUMPI PUSH2 0x1CD JUMP JUMPDEST DUP1 PUSH4 0x12E85585 EQ PUSH2 0x30D JUMPI DUP1 PUSH4 0x202E3740 EQ PUSH2 0x338 JUMPI DUP1 PUSH4 0x23B872DD EQ PUSH2 0x363 JUMPI DUP1 PUSH4 0x42842E0E EQ PUSH2 0x38C JUMPI PUSH2 0x1CD JUMP JUMPDEST DUP1 PUSH4 0x81812FC GT PUSH2 0x1AB JUMPI DUP1 PUSH4 0x81812FC EQ PUSH2 0x251 JUMPI DUP1 PUSH4 0x95EA7B3 EQ PUSH2 0x28E JUMPI DUP1 PUSH4 0xCBF54C8 EQ PUSH2 0x2B7 JUMPI DUP1 PUSH4 0xF08EFE0 EQ PUSH2 0x2E2 JUMPI PUSH2 0x1CD JUMP JUMPDEST DUP1 PUSH4 0x1FFC9A7 EQ PUSH2 0x1D2 JUMPI DUP1 PUSH4 0x3BB502F EQ PUSH2 0x20F JUMPI DUP1 PUSH4 0x6FDDE03 EQ PUSH2 0x226 JUMPI JUMPDEST PUSH1 0x0 DUP1 REVERT JUMPDEST CALLVALUE DUP1 ISZERO PUSH2 0x1DE JUMPI PUSH1 0x0 DUP1 REVERT JUMPDEST POP PUSH2 0x1F9 PUSH1 0x4 DUP1 CALLDATASIZE SUB DUP2 ADD SWAP1 PUSH2 0x1F4 SWAP2 SWAP1 PUSH2 0x3503 JUMP JUMPDEST PUSH2 0x6FC JUMP JUMPDEST PUSH1 0x40 MLOAD PUSH2 0x206 SWAP2 SWAP1 PUSH2 0x354B JUMP JUMPDEST PUSH1 0x40 MLOAD DUP1 SWAP2 SUB SWAP1 RETURN JUMPDEST CALLVALUE DUP1 ISZERO PUSH2 0x21B JUMPI PUSH1 0x0 DUP1 REVERT JUMPDEST POP PUSH2 0x224 PUSH2 0x7DE JUMP JUMPDEST STOP JUMPDEST CALLVALUE DUP1 ISZERO PUSH2 0x232 JUMPI PUSH1 0x0 DUP1 REVERT JUMPDEST POP PUSH2 0x23B PUSH2 0x854 JUMP JUMPDEST PUSH1 0x40 MLOAD PUSH2 0x248 SWAP2 SWAP1 PUSH2 0x35F6 JUMP JUMPDEST PUSH1 0x40 MLOAD DUP1 SWAP2 SUB SWAP1 RETURN JUMPDEST CALLVALUE DUP1 ISZERO PUSH2 0x25D JUMPI PUSH1 0x0 DUP1 REVERT JUMPDEST POP PUSH2 0x278 PUSH1 0x4 DUP1 CALLDATASIZE SUB DUP2 ADD SWAP1 PUSH2 0x273 SWAP2 SWAP1 PUSH2 0x364E JUMP JUMPDEST PUSH2 0x8E6 JUMP JUMPDEST PUSH1 0x40 MLOAD PUSH2 0x285 SWAP2 SWAP1 PUSH2 0x36BC JUMP JUMPDEST PUSH1 0x40 MLOAD DUP1 SWAP2 SUB SWAP1 RETURN JUMPDEST CALLVALUE DUP1 ISZERO PUSH2 0x29A JUMPI PUSH1 0x0 DUP1 REVERT JUMPDEST POP PUSH2 0x2B5 PUSH1 0x4 DUP1 CALLDATASIZE SUB DUP2 ADD SWAP1 PUSH2 0x2B0 SWAP2 SWAP1 PUSH2 0x3703 JUMP JUMPDEST PUSH2 0x96B JUMP JUMPDEST STOP JUMPDEST CALLVALUE DUP1 ISZERO PUSH2 0x2C3 JUMPI PUSH1 0x0 DUP1 REVERT JUMPDEST POP PUSH2 0x2CC PUSH2 0xA82 JUMP JUMPDEST PUSH1 0x40 MLOAD PUSH2 0x2D9 SWAP2 SWAP1 PUSH2 0x3752 JUMP JUMPDEST PUSH1 0x40 MLOAD DUP1 SWAP2 SUB SWAP1 RETURN JUMPDEST CALLVALUE DUP1 ISZERO PUSH2 0x2EE JUMPI PUSH1 0x0 DUP1 REVERT JUMPDEST POP PUSH2 0x2F7 PUSH2 0xA88 JUMP JUMPDEST PUSH1 0x40 MLOAD PUSH2 0x304 SWAP2 SWAP1 PUSH2 0x38C3 JUMP JUMPDEST PUSH1 0x40 MLOAD DUP1 SWAP2 SUB SWAP1 RETURN JUMPDEST CALLVALUE DUP1 ISZERO PUSH2 0x319 JUMPI PUSH1 0x0 DUP1 REVERT JUMPDEST POP PUSH2 0x322 PUSH2 0xCC6 JUMP JUMPDEST PUSH1 0x40 MLOAD PUSH2 0x32F SWAP2 SWAP1 PUSH2 0x3752 JUMP JUMPDEST PUSH1 0x40 MLOAD DUP1 SWAP2 SUB SWAP1 RETURN JUMPDEST CALLVALUE DUP1 ISZERO PUSH2 0x344 JUMPI PUSH1 0x0 DUP1 REVERT JUMPDEST POP PUSH2 0x34D PUSH2 0xCD0 JUMP JUMPDEST PUSH1 0x40 MLOAD PUSH2 0x35A SWAP2 SWAP1 PUSH2 0x38C3 JUMP JUMPDEST PUSH1 0x40 MLOAD DUP1 SWAP2 SUB SWAP1 RETURN JUMPDEST CALLVALUE DUP1 ISZERO PUSH2 0x36F JUMPI PUSH1 0x0 DUP1 REVERT JUMPDEST POP PUSH2 0x38A PUSH1 0x4 DUP1 CALLDATASIZE SUB DUP2 ADD SWAP1 PUSH2 0x385 SWAP2 SWAP1 PUSH2 0x38E5 JUMP JUMPDEST PUSH2 0xF97 JUMP JUMPDEST STOP JUMPDEST CALLVALUE DUP1 ISZERO PUSH2 0x398 JUMPI PUSH1 0x0 DUP1 REVERT JUMPDEST POP PUSH2 0x3B3 PUSH1 0x4 DUP1 CALLDATASIZE SUB DUP2 ADD SWAP1 PUSH2 0x3AE SWAP2 SWAP1 PUSH2 0x38E5 JUMP JUMPDEST PUSH2 0xFF7 JUMP JUMPDEST STOP JUMPDEST CALLVALUE DUP1 ISZERO PUSH2 0x3C1 JUMPI PUSH1 0x0 DUP1 REVERT JUMPDEST POP PUSH2 0x3CA PUSH2 0x1017 JUMP JUMPDEST PUSH1 0x40 MLOAD PUSH2 0x3D7 SWAP2 SWAP1 PUSH2 0x38C3 JUMP JUMPDEST PUSH1 0x40 MLOAD DUP1 SWAP2 SUB SWAP1 RETURN JUMPDEST CALLVALUE DUP1 ISZERO PUSH2 0x3EC JUMPI PUSH1 0x0 DUP1 REVERT JUMPDEST POP PUSH2 0x3F5 PUSH2 0x12DE JUMP JUMPDEST STOP JUMPDEST CALLVALUE DUP1 ISZERO PUSH2 0x403 JUMPI PUSH1 0x0 DUP1 REVERT JUMPDEST POP PUSH2 0x40C PUSH2 0x1340 JUMP JUMPDEST PUSH1 0x40 MLOAD PUSH2 0x419 SWAP2 SWAP1 PUSH2 0x3752 JUMP JUMPDEST PUSH1 0x40 MLOAD DUP1 SWAP2 SUB SWAP1 RETURN JUMPDEST CALLVALUE DUP1 ISZERO PUSH2 0x42E JUMPI PUSH1 0x0 DUP1 REVERT JUMPDEST POP PUSH2 0x449 PUSH1 0x4 DUP1 CALLDATASIZE SUB DUP2 ADD SWAP1 PUSH2 0x444 SWAP2 SWAP1 PUSH2 0x364E JUMP JUMPDEST PUSH2 0x1346 JUMP JUMPDEST PUSH1 0x40 MLOAD PUSH2 0x456 SWAP2 SWAP1 PUSH2 0x36BC JUMP JUMPDEST PUSH1 0x40 MLOAD DUP1 SWAP2 SUB SWAP1 RETURN JUMPDEST CALLVALUE DUP1 ISZERO PUSH2 0x46B JUMPI PUSH1 0x0 DUP1 REVERT JUMPDEST POP PUSH2 0x486 PUSH1 0x4 DUP1 CALLDATASIZE SUB DUP2 ADD SWAP1 PUSH2 0x481 SWAP2 SWAP1 PUSH2 0x3938 JUMP JUMPDEST PUSH2 0x13F7 JUMP JUMPDEST PUSH1 0x40 MLOAD PUSH2 0x493 SWAP2 SWAP1 PUSH2 0x3752 JUMP JUMPDEST PUSH1 0x40 MLOAD DUP1 SWAP2 SUB SWAP1 RETURN JUMPDEST PUSH2 0x4B6 PUSH1 0x4 DUP1 CALLDATASIZE SUB DUP2 ADD SWAP1 PUSH2 0x4B1 SWAP2 SWAP1 PUSH2 0x3A9A JUMP JUMPDEST PUSH2 0x14AE JUMP JUMPDEST PUSH1 0x40 MLOAD PUSH2 0x4C3 SWAP2 SWAP1 PUSH2 0x3752 JUMP JUMPDEST PUSH1 0x40 MLOAD DUP1 SWAP2 SUB SWAP1 RETURN JUMPDEST CALLVALUE DUP1 ISZERO PUSH2 0x4D8 JUMPI PUSH1 0x0 DUP1 REVERT JUMPDEST POP PUSH2 0x4E1 PUSH2 0x14F7 JUMP JUMPDEST PUSH1 0x40 MLOAD PUSH2 0x4EE SWAP2 SWAP1 PUSH2 0x3B05 JUMP JUMPDEST PUSH1 0x40 MLOAD DUP1 SWAP2 SUB SWAP1 RETURN JUMPDEST CALLVALUE DUP1 ISZERO PUSH2 0x503 JUMPI PUSH1 0x0 DUP1 REVERT JUMPDEST POP PUSH2 0x50C PUSH2 0x151D JUMP JUMPDEST PUSH1 0x40 MLOAD PUSH2 0x519 SWAP2 SWAP1 PUSH2 0x35F6 JUMP JUMPDEST PUSH1 0x40 MLOAD DUP1 SWAP2 SUB SWAP1 RETURN JUMPDEST PUSH2 0x53C PUSH1 0x4 DUP1 CALLDATASIZE SUB DUP2 ADD SWAP1 PUSH2 0x537 SWAP2 SWAP1 PUSH2 0x364E JUMP JUMPDEST PUSH2 0x15AF JUMP JUMPDEST STOP JUMPDEST CALLVALUE DUP1 ISZERO PUSH2 0x54A JUMPI PUSH1 0x0 DUP1 REVERT JUMPDEST POP PUSH2 0x565 PUSH1 0x4 DUP1 CALLDATASIZE SUB DUP2 ADD SWAP1 PUSH2 0x560 SWAP2 SWAP1 PUSH2 0x3B4C JUMP JUMPDEST PUSH2 0x1826 JUMP JUMPDEST STOP JUMPDEST PUSH2 0x581 PUSH1 0x4 DUP1 CALLDATASIZE SUB DUP2 ADD SWAP1 PUSH2 0x57C SWAP2 SWAP1 PUSH2 0x364E JUMP JUMPDEST PUSH2 0x183C JUMP JUMPDEST STOP JUMPDEST CALLVALUE DUP1 ISZERO PUSH2 0x58F JUMPI PUSH1 0x0 DUP1 REVERT JUMPDEST POP PUSH2 0x5AA PUSH1 0x4 DUP1 CALLDATASIZE SUB DUP2 ADD SWAP1 PUSH2 0x5A5 SWAP2 SWAP1 PUSH2 0x364E JUMP JUMPDEST PUSH2 0x18D6 JUMP JUMPDEST PUSH1 0x40 MLOAD PUSH2 0x5B7 SWAP2 SWAP1 PUSH2 0x3BF4 JUMP JUMPDEST PUSH1 0x40 MLOAD DUP1 SWAP2 SUB SWAP1 RETURN JUMPDEST CALLVALUE DUP1 ISZERO PUSH2 0x5CC JUMPI PUSH1 0x0 DUP1 REVERT JUMPDEST POP PUSH2 0x5E7 PUSH1 0x4 DUP1 CALLDATASIZE SUB DUP2 ADD SWAP1 PUSH2 0x5E2 SWAP2 SWAP1 PUSH2 0x3CB0 JUMP JUMPDEST PUSH2 0x19DE JUMP JUMPDEST STOP JUMPDEST CALLVALUE DUP1 ISZERO PUSH2 0x5F5 JUMPI PUSH1 0x0 DUP1 REVERT JUMPDEST POP PUSH2 0x610 PUSH1 0x4 DUP1 CALLDATASIZE SUB DUP2 ADD SWAP1 PUSH2 0x60B SWAP2 SWAP1 PUSH2 0x364E JUMP JUMPDEST PUSH2 0x1A40 JUMP JUMPDEST STOP JUMPDEST CALLVALUE DUP1 ISZERO PUSH2 0x61E JUMPI PUSH1 0x0 DUP1 REVERT JUMPDEST POP PUSH2 0x639 PUSH1 0x4 DUP1 CALLDATASIZE SUB DUP2 ADD SWAP1 PUSH2 0x634 SWAP2 SWAP1 PUSH2 0x364E JUMP JUMPDEST PUSH2 0x1EC1 JUMP JUMPDEST STOP JUMPDEST CALLVALUE DUP1 ISZERO PUSH2 0x647 JUMPI PUSH1 0x0 DUP1 REVERT JUMPDEST POP PUSH2 0x650 PUSH2 0x1ED5 JUMP JUMPDEST PUSH1 0x40 MLOAD PUSH2 0x65D SWAP2 SWAP1 PUSH2 0x3752 JUMP JUMPDEST PUSH1 0x40 MLOAD DUP1 SWAP2 SUB SWAP1 RETURN JUMPDEST CALLVALUE DUP1 ISZERO PUSH2 0x672 JUMPI PUSH1 0x0 DUP1 REVERT JUMPDEST POP PUSH2 0x68D PUSH1 0x4 DUP1 CALLDATASIZE SUB DUP2 ADD SWAP1 PUSH2 0x688 SWAP2 SWAP1 PUSH2 0x364E JUMP JUMPDEST PUSH2 0x1EDB JUMP JUMPDEST PUSH1 0x40 MLOAD PUSH2 0x69A SWAP2 SWAP1 PUSH2 0x35F6 JUMP JUMPDEST PUSH1 0x40 MLOAD DUP1 SWAP2 SUB SWAP1 RETURN JUMPDEST PUSH2 0x6BD PUSH1 0x4 DUP1 CALLDATASIZE SUB DUP2 ADD SWAP1 PUSH2 0x6B8 SWAP2 SWAP1 PUSH2 0x3D33 JUMP JUMPDEST PUSH2 0x202C JUMP JUMPDEST STOP JUMPDEST CALLVALUE DUP1 ISZERO PUSH2 0x6CB JUMPI PUSH1 0x0 DUP1 REVERT JUMPDEST POP PUSH2 0x6E6 PUSH1 0x4 DUP1 CALLDATASIZE SUB DUP2 ADD SWAP1 PUSH2 0x6E1 SWAP2 SWAP1 PUSH2 0x3D73 JUMP JUMPDEST PUSH2 0x222F JUMP JUMPDEST PUSH1 0x40 MLOAD PUSH2 0x6F3 SWAP2 SWAP1 PUSH2 0x354B JUMP JUMPDEST PUSH1 0x40 MLOAD DUP1 SWAP2 SUB SWAP1 RETURN JUMPDEST PUSH1 0x0 PUSH32 0x80AC58CD00000000000000000000000000000000000000000000000000000000 PUSH28 0xFFFFFFFFFFFFFFFFFFFFFFFFFFFFFFFFFFFFFFFFFFFFFFFFFFFFFFFF NOT AND DUP3 PUSH28 0xFFFFFFFFFFFFFFFFFFFFFFFFFFFFFFFFFFFFFFFFFFFFFFFFFFFFFFFF NOT AND EQ DUP1 PUSH2 0x7C7 JUMPI POP PUSH32 0x5B5E139F00000000000000000000000000000000000000000000000000000000 PUSH28 0xFFFFFFFFFFFFFFFFFFFFFFFFFFFFFFFFFFFFFFFFFFFFFFFFFFFFFFFF NOT AND DUP3 PUSH28 0xFFFFFFFFFFFFFFFFFFFFFFFFFFFFFFFFFFFFFFFFFFFFFFFFFFFFFFFF NOT AND EQ JUMPDEST DUP1 PUSH2 0x7D7 JUMPI POP PUSH2 0x7D6 DUP3 PUSH2 0x22C3 JUMP JUMPDEST JUMPDEST SWAP1 POP SWAP2 SWAP1 POP JUMP JUMPDEST PUSH1 0x0 PUSH1 0x7 SLOAD SWAP1 POP PUSH1 0x0 PUSH1 0x1 SWAP1 POP JUMPDEST DUP2 DUP2 GT PUSH2 0x850 JUMPI PUSH1 0x0 PUSH1 0xD PUSH1 0x0 DUP4 DUP2 MSTORE PUSH1 0x20 ADD SWAP1 DUP2 MSTORE PUSH1 0x20 ADD PUSH1 0x0 KECCAK256 SWAP1 POP DUP1 PUSH1 0x4 ADD PUSH1 0x0 SWAP1 SLOAD SWAP1 PUSH2 0x100 EXP SWAP1 DIV PUSH1 0xFF AND ISZERO DUP1 ISZERO PUSH2 0x82D JUMPI POP DUP1 PUSH1 0x3 ADD SLOAD TIMESTAMP LT ISZERO JUMPDEST ISZERO PUSH2 0x83C JUMPI PUSH2 0x83B DUP3 PUSH2 0x1A40 JUMP JUMPDEST JUMPDEST POP DUP1 DUP1 PUSH2 0x848 SWAP1 PUSH2 0x3DE2 JUMP JUMPDEST SWAP2 POP POP PUSH2 0x7EC JUMP JUMPDEST POP POP JUMP JUMPDEST PUSH1 0x60 PUSH1 0x0 DUP1 SLOAD PUSH2 0x863 SWAP1 PUSH2 0x3E59 JUMP JUMPDEST DUP1 PUSH1 0x1F ADD PUSH1 0x20 DUP1 SWAP2 DIV MUL PUSH1 0x20 ADD PUSH1 0x40 MLOAD SWAP1 DUP2 ADD PUSH1 0x40 MSTORE DUP1 SWAP3 SWAP2 SWAP1 DUP2 DUP2 MSTORE PUSH1 0x20 ADD DUP3 DUP1 SLOAD PUSH2 0x88F SWAP1 PUSH2 0x3E59 JUMP JUMPDEST DUP1 ISZERO PUSH2 0x8DC JUMPI DUP1 PUSH1 0x1F LT PUSH2 0x8B1 JUMPI PUSH2 0x100 DUP1 DUP4 SLOAD DIV MUL DUP4 MSTORE SWAP2 PUSH1 0x20 ADD SWAP2 PUSH2 0x8DC JUMP JUMPDEST DUP3 ADD SWAP2 SWAP1 PUSH1 0x0 MSTORE PUSH1 0x20 PUSH1 0x0 KECCAK256 SWAP1 JUMPDEST DUP2 SLOAD DUP2 MSTORE SWAP1 PUSH1 0x1 ADD SWAP1 PUSH1 0x20 ADD DUP1 DUP4 GT PUSH2 0x8BF JUMPI DUP3 SWAP1 SUB PUSH1 0x1F AND DUP3 ADD SWAP2 JUMPDEST POP POP POP POP POP SWAP1 POP SWAP1 JUMP JUMPDEST PUSH1 0x0 PUSH2 0x8F1 DUP3 PUSH2 0x232D JUMP JUMPDEST PUSH2 0x930 JUMPI PUSH1 0x40 MLOAD PUSH32 0x8C379A000000000000000000000000000000000000000000000000000000000 DUP2 MSTORE PUSH1 0x4 ADD PUSH2 0x927 SWAP1 PUSH2 0x3EFC JUMP JUMPDEST PUSH1 0x40 MLOAD DUP1 SWAP2 SUB SWAP1 REVERT JUMPDEST PUSH1 0x4 PUSH1 0x0 DUP4 DUP2 MSTORE PUSH1 0x20 ADD SWAP1 DUP2 MSTORE PUSH1 0x20 ADD PUSH1 0x0 KECCAK256 PUSH1 0x0 SWAP1 SLOAD SWAP1 PUSH2 0x100 EXP SWAP1 DIV PUSH20 0xFFFFFFFFFFFFFFFFFFFFFFFFFFFFFFFFFFFFFFFF AND SWAP1 POP SWAP2 SWAP1 POP JUMP JUMPDEST PUSH1 0x0 PUSH2 0x976 DUP3 PUSH2 0x1346 JUMP JUMPDEST SWAP1 POP DUP1 PUSH20 0xFFFFFFFFFFFFFFFFFFFFFFFFFFFFFFFFFFFFFFFF AND DUP4 PUSH20 0xFFFFFFFFFFFFFFFFFFFFFFFFFFFFFFFFFFFFFFFF AND SUB PUSH2 0x9E6 JUMPI PUSH1 0x40 MLOAD PUSH32 0x8C379A000000000000000000000000000000000000000000000000000000000 DUP2 MSTORE PUSH1 0x4 ADD PUSH2 0x9DD SWAP1 PUSH2 0x3F8E JUMP JUMPDEST PUSH1 0x40 MLOAD DUP1 SWAP2 SUB SWAP1 REVERT JUMPDEST DUP1 PUSH20 0xFFFFFFFFFFFFFFFFFFFFFFFFFFFFFFFFFFFFFFFF AND PUSH2 0xA05 PUSH2 0x2399 JUMP JUMPDEST PUSH20 0xFFFFFFFFFFFFFFFFFFFFFFFFFFFFFFFFFFFFFFFF AND EQ DUP1 PUSH2 0xA34 JUMPI POP PUSH2 0xA33 DUP2 PUSH2 0xA2E PUSH2 0x2399 JUMP JUMPDEST PUSH2 0x222F JUMP JUMPDEST JUMPDEST PUSH2 0xA73 JUMPI PUSH1 0x40 MLOAD PUSH32 0x8C379A000000000000000000000000000000000000000000000000000000000 DUP2 MSTORE PUSH1 0x4 ADD PUSH2 0xA6A SWAP1 PUSH2 0x4020 JUMP JUMPDEST PUSH1 0x40 MLOAD DUP1 SWAP2 SUB SWAP1 REVERT JUMPDEST PUSH2 0xA7D DUP4 DUP4 PUSH2 0x23A1 JUMP JUMPDEST POP POP POP JUMP JUMPDEST PUSH1 0xB SLOAD DUP2 JUMP JUMPDEST PUSH1 0x60 PUSH1 0x0 PUSH1 0x7 SLOAD SWAP1 POP PUSH1 0x0 PUSH1 0x8 SLOAD PUSH1 0x7 SLOAD PUSH2 0xAA3 SWAP2 SWAP1 PUSH2 0x4040 JUMP JUMPDEST SWAP1 POP PUSH1 0x0 DUP1 DUP3 PUSH8 0xFFFFFFFFFFFFFFFF DUP2 GT ISZERO PUSH2 0xAC2 JUMPI PUSH2 0xAC1 PUSH2 0x396F JUMP JUMPDEST JUMPDEST PUSH1 0x40 MLOAD SWAP1 DUP1 DUP3 MSTORE DUP1 PUSH1 0x20 MUL PUSH1 0x20 ADD DUP3 ADD PUSH1 0x40 MSTORE DUP1 ISZERO PUSH2 0xAFB JUMPI DUP2 PUSH1 0x20 ADD JUMPDEST PUSH2 0xAE8 PUSH2 0x3430 JUMP JUMPDEST DUP2 MSTORE PUSH1 0x20 ADD SWAP1 PUSH1 0x1 SWAP1 SUB SWAP1 DUP2 PUSH2 0xAE0 JUMPI SWAP1 POP JUMPDEST POP SWAP1 POP PUSH1 0x0 PUSH1 0x1 SWAP1 POP JUMPDEST DUP5 DUP2 GT PUSH2 0xCBB JUMPI ADDRESS PUSH20 0xFFFFFFFFFFFFFFFFFFFFFFFFFFFFFFFFFFFFFFFF AND PUSH1 0xE PUSH1 0x0 DUP4 DUP2 MSTORE PUSH1 0x20 ADD SWAP1 DUP2 MSTORE PUSH1 0x20 ADD PUSH1 0x0 KECCAK256 PUSH1 0x2 ADD PUSH1 0x0 SWAP1 SLOAD SWAP1 PUSH2 0x100 EXP SWAP1 DIV PUSH20 0xFFFFFFFFFFFFFFFFFFFFFFFFFFFFFFFFFFFFFFFF AND PUSH20 0xFFFFFFFFFFFFFFFFFFFFFFFFFFFFFFFFFFFFFFFF AND SUB PUSH2 0xCA8 JUMPI PUSH1 0x0 DUP2 SWAP1 POP PUSH1 0x0 PUSH1 0xE PUSH1 0x0 DUP4 DUP2 MSTORE PUSH1 0x20 ADD SWAP1 DUP2 MSTORE PUSH1 0x20 ADD PUSH1 0x0 KECCAK256 SWAP1 POP DUP1 PUSH1 0x40 MLOAD DUP1 PUSH1 0xA0 ADD PUSH1 0x40 MSTORE SWAP1 DUP2 PUSH1 0x0 DUP3 ADD SLOAD DUP2 MSTORE PUSH1 0x20 ADD PUSH1 0x1 DUP3 ADD PUSH1 0x0 SWAP1 SLOAD SWAP1 PUSH2 0x100 EXP SWAP1 DIV PUSH20 0xFFFFFFFFFFFFFFFFFFFFFFFFFFFFFFFFFFFFFFFF AND PUSH20 0xFFFFFFFFFFFFFFFFFFFFFFFFFFFFFFFFFFFFFFFF AND PUSH20 0xFFFFFFFFFFFFFFFFFFFFFFFFFFFFFFFFFFFFFFFF AND DUP2 MSTORE PUSH1 0x20 ADD PUSH1 0x2 DUP3 ADD PUSH1 0x0 SWAP1 SLOAD SWAP1 PUSH2 0x100 EXP SWAP1 DIV PUSH20 0xFFFFFFFFFFFFFFFFFFFFFFFFFFFFFFFFFFFFFFFF AND PUSH20 0xFFFFFFFFFFFFFFFFFFFFFFFFFFFFFFFFFFFFFFFF AND PUSH20 0xFFFFFFFFFFFFFFFFFFFFFFFFFFFFFFFFFFFFFFFF AND DUP2 MSTORE PUSH1 0x20 ADD PUSH1 0x3 DUP3 ADD SLOAD DUP2 MSTORE PUSH1 0x20 ADD PUSH1 0x4 DUP3 ADD PUSH1 0x0 SWAP1 SLOAD SWAP1 PUSH2 0x100 EXP SWAP1 DIV PUSH1 0xFF AND ISZERO ISZERO ISZERO ISZERO DUP2 MSTORE POP POP DUP5 DUP7 DUP2 MLOAD DUP2 LT PUSH2 0xC8B JUMPI PUSH2 0xC8A PUSH2 0x4074 JUMP JUMPDEST JUMPDEST PUSH1 0x20 MUL PUSH1 0x20 ADD ADD DUP2 SWAP1 MSTORE POP PUSH1 0x1 DUP6 PUSH2 0xCA3 SWAP2 SWAP1 PUSH2 0x40A3 JUMP JUMPDEST SWAP5 POP POP POP JUMPDEST DUP1 DUP1 PUSH2 0xCB3 SWAP1 PUSH2 0x3DE2 JUMP JUMPDEST SWAP2 POP POP PUSH2 0xB05 JUMP JUMPDEST POP DUP1 SWAP5 POP POP POP POP POP SWAP1 JUMP JUMPDEST PUSH1 0x0 PUSH1 0x9 SLOAD SWAP1 POP SWAP1 JUMP JUMPDEST PUSH1 0x60 PUSH1 0x0 PUSH1 0x7 SLOAD SWAP1 POP PUSH1 0x0 DUP1 PUSH1 0x0 PUSH1 0x1 SWAP1 POP JUMPDEST DUP4 DUP2 GT PUSH2 0xD76 JUMPI CALLER PUSH20 0xFFFFFFFFFFFFFFFFFFFFFFFFFFFFFFFFFFFFFFFF AND PUSH1 0xE PUSH1 0x0 DUP4 DUP2 MSTORE PUSH1 0x20 ADD SWAP1 DUP2 MSTORE PUSH1 0x20 ADD PUSH1 0x0 KECCAK256 PUSH1 0x2 ADD PUSH1 0x0 SWAP1 SLOAD SWAP1 PUSH2 0x100 EXP SWAP1 DIV PUSH20 0xFFFFFFFFFFFFFFFFFFFFFFFFFFFFFFFFFFFFFFFF AND PUSH20 0xFFFFFFFFFFFFFFFFFFFFFFFFFFFFFFFFFFFFFFFF AND SUB PUSH2 0xD63 JUMPI PUSH1 0x1 DUP4 PUSH2 0xD60 SWAP2 SWAP1 PUSH2 0x40A3 JUMP JUMPDEST SWAP3 POP JUMPDEST DUP1 DUP1 PUSH2 0xD6E SWAP1 PUSH2 0x3DE2 JUMP JUMPDEST SWAP2 POP POP PUSH2 0xCE3 JUMP JUMPDEST POP PUSH1 0x0 DUP3 PUSH8 0xFFFFFFFFFFFFFFFF DUP2 GT ISZERO PUSH2 0xD93 JUMPI PUSH2 0xD92 PUSH2 0x396F JUMP JUMPDEST JUMPDEST PUSH1 0x40 MLOAD SWAP1 DUP1 DUP3 MSTORE DUP1 PUSH1 0x20 MUL PUSH1 0x20 ADD DUP3 ADD PUSH1 0x40 MSTORE DUP1 ISZERO PUSH2 0xDCC JUMPI DUP2 PUSH1 0x20 ADD JUMPDEST PUSH2 0xDB9 PUSH2 0x3430 JUMP JUMPDEST DUP2 MSTORE PUSH1 0x20 ADD SWAP1 PUSH1 0x1 SWAP1 SUB SWAP1 DUP2 PUSH2 0xDB1 JUMPI SWAP1 POP JUMPDEST POP SWAP1 POP PUSH1 0x0 PUSH1 0x1 SWAP1 POP JUMPDEST DUP5 DUP2 GT PUSH2 0xF8C JUMPI CALLER PUSH20 0xFFFFFFFFFFFFFFFFFFFFFFFFFFFFFFFFFFFFFFFF AND PUSH1 0xE PUSH1 0x0 DUP4 DUP2 MSTORE PUSH1 0x20 ADD SWAP1 DUP2 MSTORE PUSH1 0x20 ADD PUSH1 0x0 KECCAK256 PUSH1 0x2 ADD PUSH1 0x0 SWAP1 SLOAD SWAP1 PUSH2 0x100 EXP SWAP1 DIV PUSH20 0xFFFFFFFFFFFFFFFFFFFFFFFFFFFFFFFFFFFFFFFF AND PUSH20 0xFFFFFFFFFFFFFFFFFFFFFFFFFFFFFFFFFFFFFFFF AND SUB PUSH2 0xF79 JUMPI PUSH1 0x0 DUP2 SWAP1 POP PUSH1 0x0 PUSH1 0xE PUSH1 0x0 DUP4 DUP2 MSTORE PUSH1 0x20 ADD SWAP1 DUP2 MSTORE PUSH1 0x20 ADD PUSH1 0x0 KECCAK256 SWAP1 POP DUP1 PUSH1 0x40 MLOAD DUP1 PUSH1 0xA0 ADD PUSH1 0x40 MSTORE SWAP1 DUP2 PUSH1 0x0 DUP3 ADD SLOAD DUP2 MSTORE PUSH1 0x20 ADD PUSH1 0x1 DUP3 ADD PUSH1 0x0 SWAP1 SLOAD SWAP1 PUSH2 0x100 EXP SWAP1 DIV PUSH20 0xFFFFFFFFFFFFFFFFFFFFFFFFFFFFFFFFFFFFFFFF AND PUSH20 0xFFFFFFFFFFFFFFFFFFFFFFFFFFFFFFFFFFFFFFFF AND PUSH20 0xFFFFFFFFFFFFFFFFFFFFFFFFFFFFFFFFFFFFFFFF AND DUP2 MSTORE PUSH1 0x20 ADD PUSH1 0x2 DUP3 ADD PUSH1 0x0 SWAP1 SLOAD SWAP1 PUSH2 0x100 EXP SWAP1 DIV PUSH20 0xFFFFFFFFFFFFFFFFFFFFFFFFFFFFFFFFFFFFFFFF AND PUSH20 0xFFFFFFFFFFFFFFFFFFFFFFFFFFFFFFFFFFFFFFFF AND PUSH20 0xFFFFFFFFFFFFFFFFFFFFFFFFFFFFFFFFFFFFFFFF AND DUP2 MSTORE PUSH1 0x20 ADD PUSH1 0x3 DUP3 ADD SLOAD DUP2 MSTORE PUSH1 0x20 ADD PUSH1 0x4 DUP3 ADD PUSH1 0x0 SWAP1 SLOAD SWAP1 PUSH2 0x100 EXP SWAP1 DIV PUSH1 0xFF AND ISZERO ISZERO ISZERO ISZERO DUP2 MSTORE POP POP DUP5 DUP7 DUP2 MLOAD DUP2 LT PUSH2 0xF5C JUMPI PUSH2 0xF5B PUSH2 0x4074 JUMP JUMPDEST JUMPDEST PUSH1 0x20 MUL PUSH1 0x20 ADD ADD DUP2 SWAP1 MSTORE POP PUSH1 0x1 DUP6 PUSH2 0xF74 SWAP2 SWAP1 PUSH2 0x40A3 JUMP JUMPDEST SWAP5 POP POP POP JUMPDEST DUP1 DUP1 PUSH2 0xF84 SWAP1 PUSH2 0x3DE2 JUMP JUMPDEST SWAP2 POP POP PUSH2 0xDD6 JUMP JUMPDEST POP DUP1 SWAP5 POP POP POP POP POP SWAP1 JUMP JUMPDEST PUSH2 0xFA8 PUSH2 0xFA2 PUSH2 0x2399 JUMP JUMPDEST DUP3 PUSH2 0x245A JUMP JUMPDEST PUSH2 0xFE7 JUMPI PUSH1 0x40 MLOAD PUSH32 0x8C379A000000000000000000000000000000000000000000000000000000000 DUP2 MSTORE PUSH1 0x4 ADD PUSH2 0xFDE SWAP1 PUSH2 0x4149 JUMP JUMPDEST PUSH1 0x40 MLOAD DUP1 SWAP2 SUB SWAP1 REVERT JUMPDEST PUSH2 0xFF2 DUP4 DUP4 DUP4 PUSH2 0x2538 JUMP JUMPDEST POP POP POP JUMP JUMPDEST PUSH2 0x1012 DUP4 DUP4 DUP4 PUSH1 0x40 MLOAD DUP1 PUSH1 0x20 ADD PUSH1 0x40 MSTORE DUP1 PUSH1 0x0 DUP2 MSTORE POP PUSH2 0x19DE JUMP JUMPDEST POP POP POP JUMP JUMPDEST PUSH1 0x60 PUSH1 0x0 PUSH1 0x7 SLOAD SWAP1 POP PUSH1 0x0 DUP1 PUSH1 0x0 PUSH1 0x1 SWAP1 POP JUMPDEST DUP4 DUP2 GT PUSH2 0x10BD JUMPI CALLER PUSH20 0xFFFFFFFFFFFFFFFFFFFFFFFFFFFFFFFFFFFFFFFF AND PUSH1 0xE PUSH1 0x0 DUP4 DUP2 MSTORE PUSH1 0x20 ADD SWAP1 DUP2 MSTORE PUSH1 0x20 ADD PUSH1 0x0 KECCAK256 PUSH1 0x1 ADD PUSH1 0x0 SWAP1 SLOAD SWAP1 PUSH2 0x100 EXP SWAP1 DIV PUSH20 0xFFFFFFFFFFFFFFFFFFFFFFFFFFFFFFFFFFFFFFFF AND PUSH20 0xFFFFFFFFFFFFFFFFFFFFFFFFFFFFFFFFFFFFFFFF AND SUB PUSH2 0x10AA JUMPI PUSH1 0x1 DUP4 PUSH2 0x10A7 SWAP2 SWAP1 PUSH2 0x40A3 JUMP JUMPDEST SWAP3 POP JUMPDEST DUP1 DUP1 PUSH2 0x10B5 SWAP1 PUSH2 0x3DE2 JUMP JUMPDEST SWAP2 POP POP PUSH2 0x102A JUMP JUMPDEST POP PUSH1 0x0 DUP3 PUSH8 0xFFFFFFFFFFFFFFFF DUP2 GT ISZERO PUSH2 0x10DA JUMPI PUSH2 0x10D9 PUSH2 0x396F JUMP JUMPDEST JUMPDEST PUSH1 0x40 MLOAD SWAP1 DUP1 DUP3 MSTORE DUP1 PUSH1 0x20 MUL PUSH1 0x20 ADD DUP3 ADD PUSH1 0x40 MSTORE DUP1 ISZERO PUSH2 0x1113 JUMPI DUP2 PUSH1 0x20 ADD JUMPDEST PUSH2 0x1100 PUSH2 0x3430 JUMP JUMPDEST DUP2 MSTORE PUSH1 0x20 ADD SWAP1 PUSH1 0x1 SWAP1 SUB SWAP1 DUP2 PUSH2 0x10F8 JUMPI SWAP1 POP JUMPDEST POP SWAP1 POP PUSH1 0x0 PUSH1 0x1 SWAP1 POP JUMPDEST DUP5 DUP2 GT PUSH2 0x12D3 JUMPI CALLER PUSH20 0xFFFFFFFFFFFFFFFFFFFFFFFFFFFFFFFFFFFFFFFF AND PUSH1 0xE PUSH1 0x0 DUP4 DUP2 MSTORE PUSH1 0x20 ADD SWAP1 DUP2 MSTORE PUSH1 0x20 ADD PUSH1 0x0 KECCAK256 PUSH1 0x1 ADD PUSH1 0x0 SWAP1 SLOAD SWAP1 PUSH2 0x100 EXP SWAP1 DIV PUSH20 0xFFFFFFFFFFFFFFFFFFFFFFFFFFFFFFFFFFFFFFFF AND PUSH20 0xFFFFFFFFFFFFFFFFFFFFFFFFFFFFFFFFFFFFFFFF AND SUB PUSH2 0x12C0 JUMPI PUSH1 0x0 DUP2 SWAP1 POP PUSH1 0x0 PUSH1 0xE PUSH1 0x0 DUP4 DUP2 MSTORE PUSH1 0x20 ADD SWAP1 DUP2 MSTORE PUSH1 0x20 ADD PUSH1 0x0 KECCAK256 SWAP1 POP DUP1 PUSH1 0x40 MLOAD DUP1 PUSH1 0xA0 ADD PUSH1 0x40 MSTORE SWAP1 DUP2 PUSH1 0x0 DUP3 ADD SLOAD DUP2 MSTORE PUSH1 0x20 ADD PUSH1 0x1 DUP3 ADD PUSH1 0x0 SWAP1 SLOAD SWAP1 PUSH2 0x100 EXP SWAP1 DIV PUSH20 0xFFFFFFFFFFFFFFFFFFFFFFFFFFFFFFFFFFFFFFFF AND PUSH20 0xFFFFFFFFFFFFFFFFFFFFFFFFFFFFFFFFFFFFFFFF AND PUSH20 0xFFFFFFFFFFFFFFFFFFFFFFFFFFFFFFFFFFFFFFFF AND DUP2 MSTORE PUSH1 0x20 ADD PUSH1 0x2 DUP3 ADD PUSH1 0x0 SWAP1 SLOAD SWAP1 PUSH2 0x100 EXP SWAP1 DIV PUSH20 0xFFFFFFFFFFFFFFFFFFFFFFFFFFFFFFFFFFFFFFFF AND PUSH20 0xFFFFFFFFFFFFFFFFFFFFFFFFFFFFFFFFFFFFFFFF AND PUSH20 0xFFFFFFFFFFFFFFFFFFFFFFFFFFFFFFFFFFFFFFFF AND DUP2 MSTORE PUSH1 0x20 ADD PUSH1 0x3 DUP3 ADD SLOAD DUP2 MSTORE PUSH1 0x20 ADD PUSH1 0x4 DUP3 ADD PUSH1 0x0 SWAP1 SLOAD SWAP1 PUSH2 0x100 EXP SWAP1 DIV PUSH1 0xFF AND ISZERO ISZERO ISZERO ISZERO DUP2 MSTORE POP POP DUP5 DUP7 DUP2 MLOAD DUP2 LT PUSH2 0x12A3 JUMPI PUSH2 0x12A2 PUSH2 0x4074 JUMP JUMPDEST JUMPDEST PUSH1 0x20 MUL PUSH1 0x20 ADD ADD DUP2 SWAP1 MSTORE POP PUSH1 0x1 DUP6 PUSH2 0x12BB SWAP2 SWAP1 PUSH2 0x40A3 JUMP JUMPDEST SWAP5 POP POP POP JUMPDEST DUP1 DUP1 PUSH2 0x12CB SWAP1 PUSH2 0x3DE2 JUMP JUMPDEST SWAP2 POP POP PUSH2 0x111D JUMP JUMPDEST POP DUP1 SWAP5 POP POP POP POP POP SWAP1 JUMP JUMPDEST PUSH1 0x78 PUSH1 0xC SLOAD PUSH2 0x12ED SWAP2 SWAP1 PUSH2 0x40A3 JUMP JUMPDEST TIMESTAMP LT ISZERO PUSH2 0x132F JUMPI PUSH1 0x40 MLOAD PUSH32 0x8C379A000000000000000000000000000000000000000000000000000000000 DUP2 MSTORE PUSH1 0x4 ADD PUSH2 0x1326 SWAP1 PUSH2 0x41B5 JUMP JUMPDEST PUSH1 0x40 MLOAD DUP1 SWAP2 SUB SWAP1 REVERT JUMPDEST TIMESTAMP PUSH1 0xC DUP2 SWAP1 SSTORE POP PUSH2 0x133E PUSH2 0x7DE JUMP JUMPDEST JUMP JUMPDEST PUSH1 0xC SLOAD DUP2 JUMP JUMPDEST PUSH1 0x0 DUP1 PUSH1 0x2 PUSH1 0x0 DUP5 DUP2 MSTORE PUSH1 0x20 ADD SWAP1 DUP2 MSTORE PUSH1 0x20 ADD PUSH1 0x0 KECCAK256 PUSH1 0x0 SWAP1 SLOAD SWAP1 PUSH2 0x100 EXP SWAP1 DIV PUSH20 0xFFFFFFFFFFFFFFFFFFFFFFFFFFFFFFFFFFFFFFFF AND SWAP1 POP PUSH1 0x0 PUSH20 0xFFFFFFFFFFFFFFFFFFFFFFFFFFFFFFFFFFFFFFFF AND DUP2 PUSH20 0xFFFFFFFFFFFFFFFFFFFFFFFFFFFFFFFFFFFFFFFF AND SUB PUSH2 0x13EE JUMPI PUSH1 0x40 MLOAD PUSH32 0x8C379A000000000000000000000000000000000000000000000000000000000 DUP2 MSTORE PUSH1 0x4 ADD PUSH2 0x13E5 SWAP1 PUSH2 0x4247 JUMP JUMPDEST PUSH1 0x40 MLOAD DUP1 SWAP2 SUB SWAP1 REVERT JUMPDEST DUP1 SWAP2 POP POP SWAP2 SWAP1 POP JUMP JUMPDEST PUSH1 0x0 DUP1 PUSH20 0xFFFFFFFFFFFFFFFFFFFFFFFFFFFFFFFFFFFFFFFF AND DUP3 PUSH20 0xFFFFFFFFFFFFFFFFFFFFFFFFFFFFFFFFFFFFFFFF AND SUB PUSH2 0x1467 JUMPI PUSH1 0x40 MLOAD PUSH32 0x8C379A000000000000000000000000000000000000000000000000000000000 DUP2 MSTORE PUSH1 0x4 ADD PUSH2 0x145E SWAP1 PUSH2 0x42D9 JUMP JUMPDEST PUSH1 0x40 MLOAD DUP1 SWAP2 SUB SWAP1 REVERT JUMPDEST PUSH1 0x3 PUSH1 0x0 DUP4 PUSH20 0xFFFFFFFFFFFFFFFFFFFFFFFFFFFFFFFFFFFFFFFF AND PUSH20 0xFFFFFFFFFFFFFFFFFFFFFFFFFFFFFFFFFFFFFFFF AND DUP2 MSTORE PUSH1 0x20 ADD SWAP1 DUP2 MSTORE PUSH1 0x20 ADD PUSH1 0x0 KECCAK256 SLOAD SWAP1 POP SWAP2 SWAP1 POP JUMP JUMPDEST PUSH1 0x0 PUSH1 0x7 PUSH1 0x0 DUP2 SLOAD DUP1 SWAP3 SWAP2 SWAP1 PUSH2 0x14C3 SWAP1 PUSH2 0x3DE2 JUMP JUMPDEST SWAP2 SWAP1 POP SSTORE POP PUSH1 0x0 PUSH1 0x7 SLOAD SWAP1 POP PUSH2 0x14D9 CALLER DUP3 PUSH2 0x279E JUMP JUMPDEST PUSH2 0x14E3 DUP2 DUP6 PUSH2 0x2977 JUMP JUMPDEST PUSH2 0x14ED DUP2 DUP5 PUSH2 0x29E4 JUMP JUMPDEST DUP1 SWAP2 POP POP SWAP3 SWAP2 POP POP JUMP JUMPDEST PUSH1 0xA PUSH1 0x0 SWAP1 SLOAD SWAP1 PUSH2 0x100 EXP SWAP1 DIV PUSH20 0xFFFFFFFFFFFFFFFFFFFFFFFFFFFFFFFFFFFFFFFF AND DUP2 JUMP JUMPDEST PUSH1 0x60 PUSH1 0x1 DUP1 SLOAD PUSH2 0x152C SWAP1 PUSH2 0x3E59 JUMP JUMPDEST DUP1 PUSH1 0x1F ADD PUSH1 0x20 DUP1 SWAP2 DIV MUL PUSH1 0x20 ADD PUSH1 0x40 MLOAD SWAP1 DUP2 ADD PUSH1 0x40 MSTORE DUP1 SWAP3 SWAP2 SWAP1 DUP2 DUP2 MSTORE PUSH1 0x20 ADD DUP3 DUP1 SLOAD PUSH2 0x1558 SWAP1 PUSH2 0x3E59 JUMP JUMPDEST DUP1 ISZERO PUSH2 0x15A5 JUMPI DUP1 PUSH1 0x1F LT PUSH2 0x157A JUMPI PUSH2 0x100 DUP1 DUP4 SLOAD DIV MUL DUP4 MSTORE SWAP2 PUSH1 0x20 ADD SWAP2 PUSH2 0x15A5 JUMP JUMPDEST DUP3 ADD SWAP2 SWAP1 PUSH1 0x0 MSTORE PUSH1 0x20 PUSH1 0x0 KECCAK256 SWAP1 JUMPDEST DUP2 SLOAD DUP2 MSTORE SWAP1 PUSH1 0x1 ADD SWAP1 PUSH1 0x20 ADD DUP1 DUP4 GT PUSH2 0x1588 JUMPI DUP3 SWAP1 SUB PUSH1 0x1F AND DUP3 ADD SWAP2 JUMPDEST POP POP POP POP POP SWAP1 POP SWAP1 JUMP JUMPDEST PUSH1 0x0 PUSH1 0xD PUSH1 0x0 DUP4 DUP2 MSTORE PUSH1 0x20 ADD SWAP1 DUP2 MSTORE PUSH1 0x20 ADD PUSH1 0x0 KECCAK256 SWAP1 POP DUP1 PUSH1 0x3 ADD SLOAD TIMESTAMP LT PUSH2 0x160C JUMPI PUSH1 0x40 MLOAD PUSH32 0x8C379A000000000000000000000000000000000000000000000000000000000 DUP2 MSTORE PUSH1 0x4 ADD PUSH2 0x1603 SWAP1 PUSH2 0x4345 JUMP JUMPDEST PUSH1 0x40 MLOAD DUP1 SWAP2 SUB SWAP1 REVERT JUMPDEST DUP1 PUSH1 0x2 ADD SLOAD CALLVALUE GT PUSH2 0x1652 JUMPI PUSH1 0x40 MLOAD PUSH32 0x8C379A000000000000000000000000000000000000000000000000000000000 DUP2 MSTORE PUSH1 0x4 ADD PUSH2 0x1649 SWAP1 PUSH2 0x43D7 JUMP JUMPDEST PUSH1 0x40 MLOAD DUP1 SWAP2 SUB SWAP1 REVERT JUMPDEST PUSH1 0x0 PUSH20 0xFFFFFFFFFFFFFFFFFFFFFFFFFFFFFFFFFFFFFFFF AND DUP2 PUSH1 0x1 ADD PUSH1 0x0 SWAP1 SLOAD SWAP1 PUSH2 0x100 EXP SWAP1 DIV PUSH20 0xFFFFFFFFFFFFFFFFFFFFFFFFFFFFFFFFFFFFFFFF AND PUSH20 0xFFFFFFFFFFFFFFFFFFFFFFFFFFFFFFFFFFFFFFFF AND EQ PUSH2 0x171A JUMPI DUP1 PUSH1 0x1 ADD PUSH1 0x0 SWAP1 SLOAD SWAP1 PUSH2 0x100 EXP SWAP1 DIV PUSH20 0xFFFFFFFFFFFFFFFFFFFFFFFFFFFFFFFFFFFFFFFF AND PUSH20 0xFFFFFFFFFFFFFFFFFFFFFFFFFFFFFFFFFFFFFFFF AND PUSH2 0x8FC DUP3 PUSH1 0x2 ADD SLOAD SWAP1 DUP2 ISZERO MUL SWAP1 PUSH1 0x40 MLOAD PUSH1 0x0 PUSH1 0x40 MLOAD DUP1 DUP4 SUB DUP2 DUP6 DUP9 DUP9 CALL SWAP4 POP POP POP POP ISZERO DUP1 ISZERO PUSH2 0x1718 JUMPI RETURNDATASIZE PUSH1 0x0 DUP1 RETURNDATACOPY RETURNDATASIZE PUSH1 0x0 REVERT JUMPDEST POP JUMPDEST PUSH2 0x1759 PUSH1 0x40 MLOAD DUP1 PUSH1 0x40 ADD PUSH1 0x40 MSTORE DUP1 PUSH1 0x18 DUP2 MSTORE PUSH1 0x20 ADD PUSH32 0x506C6163696E672062696420666F7220746F6B656E49643A0000000000000000 DUP2 MSTORE POP DUP4 PUSH2 0x2DB4 JUMP JUMPDEST PUSH2 0x179C PUSH1 0x40 MLOAD DUP1 PUSH1 0x40 ADD PUSH1 0x40 MSTORE DUP1 PUSH1 0x11 DUP2 MSTORE PUSH1 0x20 ADD PUSH32 0x41756374696F6E20656E642074696D653A000000000000000000000000000000 DUP2 MSTORE POP DUP3 PUSH1 0x3 ADD SLOAD PUSH2 0x2DB4 JUMP JUMPDEST CALLER DUP2 PUSH1 0x1 ADD PUSH1 0x0 PUSH2 0x100 EXP DUP2 SLOAD DUP2 PUSH20 0xFFFFFFFFFFFFFFFFFFFFFFFFFFFFFFFFFFFFFFFF MUL NOT AND SWAP1 DUP4 PUSH20 0xFFFFFFFFFFFFFFFFFFFFFFFFFFFFFFFFFFFFFFFF AND MUL OR SWAP1 SSTORE POP CALLVALUE DUP2 PUSH1 0x2 ADD DUP2 SWAP1 SSTORE POP DUP2 PUSH32 0xE54EFF26401BF69B81B26F60BD85EF47F5D85275C1D268D84F68D6897431C47 CALLER CALLVALUE PUSH1 0x40 MLOAD PUSH2 0x181A SWAP3 SWAP2 SWAP1 PUSH2 0x43F7 JUMP JUMPDEST PUSH1 0x40 MLOAD DUP1 SWAP2 SUB SWAP1 LOG2 POP POP JUMP JUMPDEST PUSH2 0x1838 PUSH2 0x1831 PUSH2 0x2399 JUMP JUMPDEST DUP4 DUP4 PUSH2 0x2E50 JUMP JUMPDEST POP POP JUMP JUMPDEST CALLER PUSH20 0xFFFFFFFFFFFFFFFFFFFFFFFFFFFFFFFFFFFFFFFF AND PUSH1 0xA PUSH1 0x0 SWAP1 SLOAD SWAP1 PUSH2 0x100 EXP SWAP1 DIV PUSH20 0xFFFFFFFFFFFFFFFFFFFFFFFFFFFFFFFFFFFFFFFF AND PUSH20 0xFFFFFFFFFFFFFFFFFFFFFFFFFFFFFFFFFFFFFFFF AND EQ PUSH2 0x18CC JUMPI PUSH1 0x40 MLOAD PUSH32 0x8C379A000000000000000000000000000000000000000000000000000000000 DUP2 MSTORE PUSH1 0x4 ADD PUSH2 0x18C3 SWAP1 PUSH2 0x4492 JUMP JUMPDEST PUSH1 0x40 MLOAD DUP1 SWAP2 SUB SWAP1 REVERT JUMPDEST DUP1 PUSH1 0x9 DUP2 SWAP1 SSTORE POP POP JUMP JUMPDEST PUSH2 0x18DE PUSH2 0x3430 JUMP JUMPDEST PUSH1 0xE PUSH1 0x0 DUP4 DUP2 MSTORE PUSH1 0x20 ADD SWAP1 DUP2 MSTORE PUSH1 0x20 ADD PUSH1 0x0 KECCAK256 PUSH1 0x40 MLOAD DUP1 PUSH1 0xA0 ADD PUSH1 0x40 MSTORE SWAP1 DUP2 PUSH1 0x0 DUP3 ADD SLOAD DUP2 MSTORE PUSH1 0x20 ADD PUSH1 0x1 DUP3 ADD PUSH1 0x0 SWAP1 SLOAD SWAP1 PUSH2 0x100 EXP SWAP1 DIV PUSH20 0xFFFFFFFFFFFFFFFFFFFFFFFFFFFFFFFFFFFFFFFF AND PUSH20 0xFFFFFFFFFFFFFFFFFFFFFFFFFFFFFFFFFFFFFFFF AND PUSH20 0xFFFFFFFFFFFFFFFFFFFFFFFFFFFFFFFFFFFFFFFF AND DUP2 MSTORE PUSH1 0x20 ADD PUSH1 0x2 DUP3 ADD PUSH1 0x0 SWAP1 SLOAD SWAP1 PUSH2 0x100 EXP SWAP1 DIV PUSH20 0xFFFFFFFFFFFFFFFFFFFFFFFFFFFFFFFFFFFFFFFF AND PUSH20 0xFFFFFFFFFFFFFFFFFFFFFFFFFFFFFFFFFFFFFFFF AND PUSH20 0xFFFFFFFFFFFFFFFFFFFFFFFFFFFFFFFFFFFFFFFF AND DUP2 MSTORE PUSH1 0x20 ADD PUSH1 0x3 DUP3 ADD SLOAD DUP2 MSTORE PUSH1 0x20 ADD PUSH1 0x4 DUP3 ADD PUSH1 0x0 SWAP1 SLOAD SWAP1 PUSH2 0x100 EXP SWAP1 DIV PUSH1 0xFF AND ISZERO ISZERO ISZERO ISZERO DUP2 MSTORE POP POP SWAP1 POP SWAP2 SWAP1 POP JUMP JUMPDEST PUSH2 0x19EF PUSH2 0x19E9 PUSH2 0x2399 JUMP JUMPDEST DUP4 PUSH2 0x245A JUMP JUMPDEST PUSH2 0x1A2E JUMPI PUSH1 0x40 MLOAD PUSH32 0x8C379A000000000000000000000000000000000000000000000000000000000 DUP2 MSTORE PUSH1 0x4 ADD PUSH2 0x1A25 SWAP1 PUSH2 0x4149 JUMP JUMPDEST PUSH1 0x40 MLOAD DUP1 SWAP2 SUB SWAP1 REVERT JUMPDEST PUSH2 0x1A3A DUP5 DUP5 DUP5 DUP5 PUSH2 0x2FBC JUMP JUMPDEST POP POP POP POP JUMP JUMPDEST PUSH2 0x1A7F PUSH1 0x40 MLOAD DUP1 PUSH1 0x40 ADD PUSH1 0x40 MSTORE DUP1 PUSH1 0x1B DUP2 MSTORE PUSH1 0x20 ADD PUSH32 0x456E64696E672061756374696F6E20666F7220746F6B656E49643A0000000000 DUP2 MSTORE POP DUP3 PUSH2 0x2DB4 JUMP JUMPDEST PUSH1 0x0 PUSH1 0xD PUSH1 0x0 DUP4 DUP2 MSTORE PUSH1 0x20 ADD SWAP1 DUP2 MSTORE PUSH1 0x20 ADD PUSH1 0x0 KECCAK256 SWAP1 POP DUP1 PUSH1 0x4 ADD PUSH1 0x0 SWAP1 SLOAD SWAP1 PUSH2 0x100 EXP SWAP1 DIV PUSH1 0xFF AND ISZERO PUSH2 0x1AE8 JUMPI PUSH1 0x40 MLOAD PUSH32 0x8C379A000000000000000000000000000000000000000000000000000000000 DUP2 MSTORE PUSH1 0x4 ADD PUSH2 0x1ADF SWAP1 PUSH2 0x44FE JUMP JUMPDEST PUSH1 0x40 MLOAD DUP1 SWAP2 SUB SWAP1 REVERT JUMPDEST DUP1 PUSH1 0x3 ADD SLOAD TIMESTAMP LT ISZERO PUSH2 0x1B2F JUMPI PUSH1 0x40 MLOAD PUSH32 0x8C379A000000000000000000000000000000000000000000000000000000000 DUP2 MSTORE PUSH1 0x4 ADD PUSH2 0x1B26 SWAP1 PUSH2 0x456A JUMP JUMPDEST PUSH1 0x40 MLOAD DUP1 SWAP2 SUB SWAP1 REVERT JUMPDEST PUSH1 0x1 DUP2 PUSH1 0x4 ADD PUSH1 0x0 PUSH2 0x100 EXP DUP2 SLOAD DUP2 PUSH1 0xFF MUL NOT AND SWAP1 DUP4 ISZERO ISZERO MUL OR SWAP1 SSTORE POP PUSH1 0x0 PUSH20 0xFFFFFFFFFFFFFFFFFFFFFFFFFFFFFFFFFFFFFFFF AND DUP2 PUSH1 0x1 ADD PUSH1 0x0 SWAP1 SLOAD SWAP1 PUSH2 0x100 EXP SWAP1 DIV PUSH20 0xFFFFFFFFFFFFFFFFFFFFFFFFFFFFFFFFFFFFFFFF AND PUSH20 0xFFFFFFFFFFFFFFFFFFFFFFFFFFFFFFFFFFFFFFFF AND EQ PUSH2 0x1E3C JUMPI PUSH2 0x1BD3 ADDRESS DUP3 PUSH1 0x1 ADD PUSH1 0x0 SWAP1 SLOAD SWAP1 PUSH2 0x100 EXP SWAP1 DIV PUSH20 0xFFFFFFFFFFFFFFFFFFFFFFFFFFFFFFFFFFFFFFFF AND DUP5 PUSH2 0x2538 JUMP JUMPDEST PUSH1 0xE PUSH1 0x0 DUP4 DUP2 MSTORE PUSH1 0x20 ADD SWAP1 DUP2 MSTORE PUSH1 0x20 ADD PUSH1 0x0 KECCAK256 PUSH1 0x1 ADD PUSH1 0x0 SWAP1 SLOAD SWAP1 PUSH2 0x100 EXP SWAP1 DIV PUSH20 0xFFFFFFFFFFFFFFFFFFFFFFFFFFFFFFFFFFFFFFFF AND PUSH20 0xFFFFFFFFFFFFFFFFFFFFFFFFFFFFFFFFFFFFFFFF AND PUSH2 0x8FC DUP3 PUSH1 0x2 ADD SLOAD SWAP1 DUP2 ISZERO MUL SWAP1 PUSH1 0x40 MLOAD PUSH1 0x0 PUSH1 0x40 MLOAD DUP1 DUP4 SUB DUP2 DUP6 DUP9 DUP9 CALL SWAP4 POP POP POP POP ISZERO DUP1 ISZERO PUSH2 0x1C53 JUMPI RETURNDATASIZE PUSH1 0x0 DUP1 RETURNDATACOPY RETURNDATASIZE PUSH1 0x0 REVERT JUMPDEST POP PUSH1 0x1 PUSH1 0xE PUSH1 0x0 DUP5 DUP2 MSTORE PUSH1 0x20 ADD SWAP1 DUP2 MSTORE PUSH1 0x20 ADD PUSH1 0x0 KECCAK256 PUSH1 0x4 ADD PUSH1 0x0 PUSH2 0x100 EXP DUP2 SLOAD DUP2 PUSH1 0xFF MUL NOT AND SWAP1 DUP4 ISZERO ISZERO MUL OR SWAP1 SSTORE POP DUP1 PUSH1 0x1 ADD PUSH1 0x0 SWAP1 SLOAD SWAP1 PUSH2 0x100 EXP SWAP1 DIV PUSH20 0xFFFFFFFFFFFFFFFFFFFFFFFFFFFFFFFFFFFFFFFF AND PUSH1 0xE PUSH1 0x0 DUP5 DUP2 MSTORE PUSH1 0x20 ADD SWAP1 DUP2 MSTORE PUSH1 0x20 ADD PUSH1 0x0 KECCAK256 PUSH1 0x2 ADD PUSH1 0x0 PUSH2 0x100 EXP DUP2 SLOAD DUP2 PUSH20 0xFFFFFFFFFFFFFFFFFFFFFFFFFFFFFFFFFFFFFFFF MUL NOT AND SWAP1 DUP4 PUSH20 0xFFFFFFFFFFFFFFFFFFFFFFFFFFFFFFFFFFFFFFFF AND MUL OR SWAP1 SSTORE POP PUSH1 0x0 PUSH1 0xE PUSH1 0x0 DUP5 DUP2 MSTORE PUSH1 0x20 ADD SWAP1 DUP2 MSTORE PUSH1 0x20 ADD PUSH1 0x0 KECCAK256 PUSH1 0x1 ADD PUSH1 0x0 PUSH2 0x100 EXP DUP2 SLOAD DUP2 PUSH20 0xFFFFFFFFFFFFFFFFFFFFFFFFFFFFFFFFFFFFFFFF MUL NOT AND SWAP1 DUP4 PUSH20 0xFFFFFFFFFFFFFFFFFFFFFFFFFFFFFFFFFFFFFFFF AND MUL OR SWAP1 SSTORE POP PUSH1 0x8 PUSH1 0x0 DUP2 SLOAD DUP1 SWAP3 SWAP2 SWAP1 PUSH2 0x1D65 SWAP1 PUSH2 0x3DE2 JUMP JUMPDEST SWAP2 SWAP1 POP SSTORE POP PUSH1 0xA PUSH1 0x0 SWAP1 SLOAD SWAP1 PUSH2 0x100 EXP SWAP1 DIV PUSH20 0xFFFFFFFFFFFFFFFFFFFFFFFFFFFFFFFFFFFFFFFF AND PUSH20 0xFFFFFFFFFFFFFFFFFFFFFFFFFFFFFFFFFFFFFFFF AND PUSH2 0x8FC PUSH1 0x9 SLOAD SWAP1 DUP2 ISZERO MUL SWAP1 PUSH1 0x40 MLOAD PUSH1 0x0 PUSH1 0x40 MLOAD DUP1 DUP4 SUB DUP2 DUP6 DUP9 DUP9 CALL SWAP4 POP POP POP POP ISZERO DUP1 ISZERO PUSH2 0x1DD4 JUMPI RETURNDATASIZE PUSH1 0x0 DUP1 RETURNDATACOPY RETURNDATASIZE PUSH1 0x0 REVERT JUMPDEST POP DUP2 PUSH32 0xD2AA34A4FDBBC6DFF6A3E56F46E0F3AE2A31D7785FF3487AA5C95C642ACEA501 DUP3 PUSH1 0x1 ADD PUSH1 0x0 SWAP1 SLOAD SWAP1 PUSH2 0x100 EXP SWAP1 DIV PUSH20 0xFFFFFFFFFFFFFFFFFFFFFFFFFFFFFFFFFFFFFFFF AND DUP4 PUSH1 0x2 ADD SLOAD PUSH1 0x40 MLOAD PUSH2 0x1E2F SWAP3 SWAP2 SWAP1 PUSH2 0x45E9 JUMP JUMPDEST PUSH1 0x40 MLOAD DUP1 SWAP2 SUB SWAP1 LOG2 PUSH2 0x1E7E JUMP JUMPDEST PUSH2 0x1E7D ADDRESS PUSH1 0xE PUSH1 0x0 DUP6 DUP2 MSTORE PUSH1 0x20 ADD SWAP1 DUP2 MSTORE PUSH1 0x20 ADD PUSH1 0x0 KECCAK256 PUSH1 0x1 ADD PUSH1 0x0 SWAP1 SLOAD SWAP1 PUSH2 0x100 EXP SWAP1 DIV PUSH20 0xFFFFFFFFFFFFFFFFFFFFFFFFFFFFFFFFFFFFFFFF AND DUP5 PUSH2 0x2538 JUMP JUMPDEST JUMPDEST PUSH2 0x1EBD PUSH1 0x40 MLOAD DUP1 PUSH1 0x40 ADD PUSH1 0x40 MSTORE DUP1 PUSH1 0x1A DUP2 MSTORE PUSH1 0x20 ADD PUSH32 0x41756374696F6E20656E64656420666F7220746F6B656E49643A000000000000 DUP2 MSTORE POP DUP4 PUSH2 0x2DB4 JUMP JUMPDEST POP POP JUMP JUMPDEST PUSH2 0x1ECA DUP2 PUSH2 0x1A40 JUMP JUMPDEST PUSH2 0x1ED2 PUSH2 0x7DE JUMP JUMPDEST POP JUMP JUMPDEST PUSH1 0x9 SLOAD DUP2 JUMP JUMPDEST PUSH1 0x60 PUSH2 0x1EE6 DUP3 PUSH2 0x232D JUMP JUMPDEST PUSH2 0x1F25 JUMPI PUSH1 0x40 MLOAD PUSH32 0x8C379A000000000000000000000000000000000000000000000000000000000 DUP2 MSTORE PUSH1 0x4 ADD PUSH2 0x1F1C SWAP1 PUSH2 0x4684 JUMP JUMPDEST PUSH1 0x40 MLOAD DUP1 SWAP2 SUB SWAP1 REVERT JUMPDEST PUSH1 0x0 PUSH1 0x6 PUSH1 0x0 DUP5 DUP2 MSTORE PUSH1 0x20 ADD SWAP1 DUP2 MSTORE PUSH1 0x20 ADD PUSH1 0x0 KECCAK256 DUP1 SLOAD PUSH2 0x1F45 SWAP1 PUSH2 0x3E59 JUMP JUMPDEST DUP1 PUSH1 0x1F ADD PUSH1 0x20 DUP1 SWAP2 DIV MUL PUSH1 0x20 ADD PUSH1 0x40 MLOAD SWAP1 DUP2 ADD PUSH1 0x40 MSTORE DUP1 SWAP3 SWAP2 SWAP1 DUP2 DUP2 MSTORE PUSH1 0x20 ADD DUP3 DUP1 SLOAD PUSH2 0x1F71 SWAP1 PUSH2 0x3E59 JUMP JUMPDEST DUP1 ISZERO PUSH2 0x1FBE JUMPI DUP1 PUSH1 0x1F LT PUSH2 0x1F93 JUMPI PUSH2 0x100 DUP1 DUP4 SLOAD DIV MUL DUP4 MSTORE SWAP2 PUSH1 0x20 ADD SWAP2 PUSH2 0x1FBE JUMP JUMPDEST DUP3 ADD SWAP2 SWAP1 PUSH1 0x0 MSTORE PUSH1 0x20 PUSH1 0x0 KECCAK256 SWAP1 JUMPDEST DUP2 SLOAD DUP2 MSTORE SWAP1 PUSH1 0x1 ADD SWAP1 PUSH1 0x20 ADD DUP1 DUP4 GT PUSH2 0x1FA1 JUMPI DUP3 SWAP1 SUB PUSH1 0x1F AND DUP3 ADD SWAP2 JUMPDEST POP POP POP POP POP SWAP1 POP PUSH1 0x0 PUSH2 0x1FCF PUSH2 0x3018 JUMP JUMPDEST SWAP1 POP PUSH1 0x0 DUP2 MLOAD SUB PUSH2 0x1FE4 JUMPI DUP2 SWAP3 POP POP POP PUSH2 0x2027 JUMP JUMPDEST PUSH1 0x0 DUP3 MLOAD GT ISZERO PUSH2 0x2019 JUMPI DUP1 DUP3 PUSH1 0x40 MLOAD PUSH1 0x20 ADD PUSH2 0x2001 SWAP3 SWAP2 SWAP1 PUSH2 0x46E0 JUMP JUMPDEST PUSH1 0x40 MLOAD PUSH1 0x20 DUP2 DUP4 SUB SUB DUP2 MSTORE SWAP1 PUSH1 0x40 MSTORE SWAP3 POP POP POP PUSH2 0x2027 JUMP JUMPDEST PUSH2 0x2022 DUP5 PUSH2 0x302F JUMP JUMPDEST SWAP3 POP POP POP JUMPDEST SWAP2 SWAP1 POP JUMP JUMPDEST CALLER PUSH20 0xFFFFFFFFFFFFFFFFFFFFFFFFFFFFFFFFFFFFFFFF AND PUSH1 0xE PUSH1 0x0 DUP5 DUP2 MSTORE PUSH1 0x20 ADD SWAP1 DUP2 MSTORE PUSH1 0x20 ADD PUSH1 0x0 KECCAK256 PUSH1 0x2 ADD PUSH1 0x0 SWAP1 SLOAD SWAP1 PUSH2 0x100 EXP SWAP1 DIV PUSH20 0xFFFFFFFFFFFFFFFFFFFFFFFFFFFFFFFFFFFFFFFF AND PUSH20 0xFFFFFFFFFFFFFFFFFFFFFFFFFFFFFFFFFFFFFFFF AND EQ PUSH2 0x20D0 JUMPI PUSH1 0x40 MLOAD PUSH32 0x8C379A000000000000000000000000000000000000000000000000000000000 DUP2 MSTORE PUSH1 0x4 ADD PUSH2 0x20C7 SWAP1 PUSH2 0x4776 JUMP JUMPDEST PUSH1 0x40 MLOAD DUP1 SWAP2 SUB SWAP1 REVERT JUMPDEST PUSH1 0x9 SLOAD CALLVALUE EQ PUSH2 0x2114 JUMPI PUSH1 0x40 MLOAD PUSH32 0x8C379A000000000000000000000000000000000000000000000000000000000 DUP2 MSTORE PUSH1 0x4 ADD PUSH2 0x210B SWAP1 PUSH2 0x4808 JUMP JUMPDEST PUSH1 0x40 MLOAD DUP1 SWAP2 SUB SWAP1 REVERT JUMPDEST PUSH1 0x0 PUSH1 0xE PUSH1 0x0 DUP5 DUP2 MSTORE PUSH1 0x20 ADD SWAP1 DUP2 MSTORE PUSH1 0x20 ADD PUSH1 0x0 KECCAK256 PUSH1 0x4 ADD PUSH1 0x0 PUSH2 0x100 EXP DUP2 SLOAD DUP2 PUSH1 0xFF MUL NOT AND SWAP1 DUP4 ISZERO ISZERO MUL OR SWAP1 SSTORE POP DUP1 PUSH1 0xE PUSH1 0x0 DUP5 DUP2 MSTORE PUSH1 0x20 ADD SWAP1 DUP2 MSTORE PUSH1 0x20 ADD PUSH1 0x0 KECCAK256 PUSH1 0x3 ADD DUP2 SWAP1 SSTORE POP CALLER PUSH1 0xE PUSH1 0x0 DUP5 DUP2 MSTORE PUSH1 0x20 ADD SWAP1 DUP2 MSTORE PUSH1 0x20 ADD PUSH1 0x0 KECCAK256 PUSH1 0x1 ADD PUSH1 0x0 PUSH2 0x100 EXP DUP2 SLOAD DUP2 PUSH20 0xFFFFFFFFFFFFFFFFFFFFFFFFFFFFFFFFFFFFFFFF MUL NOT AND SWAP1 DUP4 PUSH20 0xFFFFFFFFFFFFFFFFFFFFFFFFFFFFFFFFFFFFFFFF AND MUL OR SWAP1 SSTORE POP ADDRESS PUSH1 0xE PUSH1 0x0 DUP5 DUP2 MSTORE PUSH1 0x20 ADD SWAP1 DUP2 MSTORE PUSH1 0x20 ADD PUSH1 0x0 KECCAK256 PUSH1 0x2 ADD PUSH1 0x0 PUSH2 0x100 EXP DUP2 SLOAD DUP2 PUSH20 0xFFFFFFFFFFFFFFFFFFFFFFFFFFFFFFFFFFFFFFFF MUL NOT AND SWAP1 DUP4 PUSH20 0xFFFFFFFFFFFFFFFFFFFFFFFFFFFFFFFFFFFFFFFF AND MUL OR SWAP1 SSTORE POP PUSH1 0x8 PUSH1 0x0 DUP2 SLOAD DUP1 SWAP3 SWAP2 SWAP1 PUSH2 0x221B SWAP1 PUSH2 0x4828 JUMP JUMPDEST SWAP2 SWAP1 POP SSTORE POP PUSH2 0x222B CALLER ADDRESS DUP5 PUSH2 0x2538 JUMP JUMPDEST POP POP JUMP JUMPDEST PUSH1 0x0 PUSH1 0x5 PUSH1 0x0 DUP5 PUSH20 0xFFFFFFFFFFFFFFFFFFFFFFFFFFFFFFFFFFFFFFFF AND PUSH20 0xFFFFFFFFFFFFFFFFFFFFFFFFFFFFFFFFFFFFFFFF AND DUP2 MSTORE PUSH1 0x20 ADD SWAP1 DUP2 MSTORE PUSH1 0x20 ADD PUSH1 0x0 KECCAK256 PUSH1 0x0 DUP4 PUSH20 0xFFFFFFFFFFFFFFFFFFFFFFFFFFFFFFFFFFFFFFFF AND PUSH20 0xFFFFFFFFFFFFFFFFFFFFFFFFFFFFFFFFFFFFFFFF AND DUP2 MSTORE PUSH1 0x20 ADD SWAP1 DUP2 MSTORE PUSH1 0x20 ADD PUSH1 0x0 KECCAK256 PUSH1 0x0 SWAP1 SLOAD SWAP1 PUSH2 0x100 EXP SWAP1 DIV PUSH1 0xFF AND SWAP1 POP SWAP3 SWAP2 POP POP JUMP JUMPDEST PUSH1 0x0 PUSH32 0x1FFC9A700000000000000000000000000000000000000000000000000000000 PUSH28 0xFFFFFFFFFFFFFFFFFFFFFFFFFFFFFFFFFFFFFFFFFFFFFFFFFFFFFFFF NOT AND DUP3 PUSH28 0xFFFFFFFFFFFFFFFFFFFFFFFFFFFFFFFFFFFFFFFFFFFFFFFFFFFFFFFF NOT AND EQ SWAP1 POP SWAP2 SWAP1 POP JUMP JUMPDEST PUSH1 0x0 DUP1 PUSH20 0xFFFFFFFFFFFFFFFFFFFFFFFFFFFFFFFFFFFFFFFF AND PUSH1 0x2 PUSH1 0x0 DUP5 DUP2 MSTORE PUSH1 0x20 ADD SWAP1 DUP2 MSTORE PUSH1 0x20 ADD PUSH1 0x0 KECCAK256 PUSH1 0x0 SWAP1 SLOAD SWAP1 PUSH2 0x100 EXP SWAP1 DIV PUSH20 0xFFFFFFFFFFFFFFFFFFFFFFFFFFFFFFFFFFFFFFFF AND PUSH20 0xFFFFFFFFFFFFFFFFFFFFFFFFFFFFFFFFFFFFFFFF AND EQ ISZERO SWAP1 POP SWAP2 SWAP1 POP JUMP JUMPDEST PUSH1 0x0 CALLER SWAP1 POP SWAP1 JUMP JUMPDEST DUP2 PUSH1 0x4 PUSH1 0x0 DUP4 DUP2 MSTORE PUSH1 0x20 ADD SWAP1 DUP2 MSTORE PUSH1 0x20 ADD PUSH1 0x0 KECCAK256 PUSH1 0x0 PUSH2 0x100 EXP DUP2 SLOAD DUP2 PUSH20 0xFFFFFFFFFFFFFFFFFFFFFFFFFFFFFFFFFFFFFFFF MUL NOT AND SWAP1 DUP4 PUSH20 0xFFFFFFFFFFFFFFFFFFFFFFFFFFFFFFFFFFFFFFFF AND MUL OR SWAP1 SSTORE POP DUP1 DUP3 PUSH20 0xFFFFFFFFFFFFFFFFFFFFFFFFFFFFFFFFFFFFFFFF AND PUSH2 0x2414 DUP4 PUSH2 0x1346 JUMP JUMPDEST PUSH20 0xFFFFFFFFFFFFFFFFFFFFFFFFFFFFFFFFFFFFFFFF AND PUSH32 0x8C5BE1E5EBEC7D5BD14F71427D1E84F3DD0314C0F7B2291E5B200AC8C7C3B925 PUSH1 0x40 MLOAD PUSH1 0x40 MLOAD DUP1 SWAP2 SUB SWAP1 LOG4 POP POP JUMP JUMPDEST PUSH1 0x0 PUSH2 0x2465 DUP3 PUSH2 0x232D JUMP JUMPDEST PUSH2 0x24A4 JUMPI PUSH1 0x40 MLOAD PUSH32 0x8C379A000000000000000000000000000000000000000000000000000000000 DUP2 MSTORE PUSH1 0x4 ADD PUSH2 0x249B SWAP1 PUSH2 0x48C3 JUMP JUMPDEST PUSH1 0x40 MLOAD DUP1 SWAP2 SUB SWAP1 REVERT JUMPDEST PUSH1 0x0 PUSH2 0x24AF DUP4 PUSH2 0x1346 JUMP JUMPDEST SWAP1 POP DUP1 PUSH20 0xFFFFFFFFFFFFFFFFFFFFFFFFFFFFFFFFFFFFFFFF AND DUP5 PUSH20 0xFFFFFFFFFFFFFFFFFFFFFFFFFFFFFFFFFFFFFFFF AND EQ DUP1 PUSH2 0x251E JUMPI POP DUP4 PUSH20 0xFFFFFFFFFFFFFFFFFFFFFFFFFFFFFFFFFFFFFFFF AND PUSH2 0x2506 DUP5 PUSH2 0x8E6 JUMP JUMPDEST PUSH20 0xFFFFFFFFFFFFFFFFFFFFFFFFFFFFFFFFFFFFFFFF AND EQ JUMPDEST DUP1 PUSH2 0x252F JUMPI POP PUSH2 0x252E DUP2 DUP6 PUSH2 0x222F JUMP JUMPDEST JUMPDEST SWAP2 POP POP SWAP3 SWAP2 POP POP JUMP JUMPDEST DUP3 PUSH20 0xFFFFFFFFFFFFFFFFFFFFFFFFFFFFFFFFFFFFFFFF AND PUSH2 0x2558 DUP3 PUSH2 0x1346 JUMP JUMPDEST PUSH20 0xFFFFFFFFFFFFFFFFFFFFFFFFFFFFFFFFFFFFFFFF AND EQ PUSH2 0x25AE JUMPI PUSH1 0x40 MLOAD PUSH32 0x8C379A000000000000000000000000000000000000000000000000000000000 DUP2 MSTORE PUSH1 0x4 ADD PUSH2 0x25A5 SWAP1 PUSH2 0x4955 JUMP JUMPDEST PUSH1 0x40 MLOAD DUP1 SWAP2 SUB SWAP1 REVERT JUMPDEST PUSH1 0x0 PUSH20 0xFFFFFFFFFFFFFFFFFFFFFFFFFFFFFFFFFFFFFFFF AND DUP3 PUSH20 0xFFFFFFFFFFFFFFFFFFFFFFFFFFFFFFFFFFFFFFFF AND SUB PUSH2 0x261D JUMPI PUSH1 0x40 MLOAD PUSH32 0x8C379A000000000000000000000000000000000000000000000000000000000 DUP2 MSTORE PUSH1 0x4 ADD PUSH2 0x2614 SWAP1 PUSH2 0x49E7 JUMP JUMPDEST PUSH1 0x40 MLOAD DUP1 SWAP2 SUB SWAP1 REVERT JUMPDEST PUSH2 0x2628 DUP4 DUP4 DUP4 PUSH2 0x30D6 JUMP JUMPDEST PUSH2 0x2633 PUSH1 0x0 DUP3 PUSH2 0x23A1 JUMP JUMPDEST PUSH1 0x1 PUSH1 0x3 PUSH1 0x0 DUP6 PUSH20 0xFFFFFFFFFFFFFFFFFFFFFFFFFFFFFFFFFFFFFFFF AND PUSH20 0xFFFFFFFFFFFFFFFFFFFFFFFFFFFFFFFFFFFFFFFF AND DUP2 MSTORE PUSH1 0x20 ADD SWAP1 DUP2 MSTORE PUSH1 0x20 ADD PUSH1 0x0 KECCAK256 PUSH1 0x0 DUP3 DUP3 SLOAD PUSH2 0x2683 SWAP2 SWAP1 PUSH2 0x4040 JUMP JUMPDEST SWAP3 POP POP DUP2 SWAP1 SSTORE POP PUSH1 0x1 PUSH1 0x3 PUSH1 0x0 DUP5 PUSH20 0xFFFFFFFFFFFFFFFFFFFFFFFFFFFFFFFFFFFFFFFF AND PUSH20 0xFFFFFFFFFFFFFFFFFFFFFFFFFFFFFFFFFFFFFFFF AND DUP2 MSTORE PUSH1 0x20 ADD SWAP1 DUP2 MSTORE PUSH1 0x20 ADD PUSH1 0x0 KECCAK256 PUSH1 0x0 DUP3 DUP3 SLOAD PUSH2 0x26DA SWAP2 SWAP1 PUSH2 0x40A3 JUMP JUMPDEST SWAP3 POP POP DUP2 SWAP1 SSTORE POP DUP2 PUSH1 0x2 PUSH1 0x0 DUP4 DUP2 MSTORE PUSH1 0x20 ADD SWAP1 DUP2 MSTORE PUSH1 0x20 ADD PUSH1 0x0 KECCAK256 PUSH1 0x0 PUSH2 0x100 EXP DUP2 SLOAD DUP2 PUSH20 0xFFFFFFFFFFFFFFFFFFFFFFFFFFFFFFFFFFFFFFFF MUL NOT AND SWAP1 DUP4 PUSH20 0xFFFFFFFFFFFFFFFFFFFFFFFFFFFFFFFFFFFFFFFF AND MUL OR SWAP1 SSTORE POP DUP1 DUP3 PUSH20 0xFFFFFFFFFFFFFFFFFFFFFFFFFFFFFFFFFFFFFFFF AND DUP5 PUSH20 0xFFFFFFFFFFFFFFFFFFFFFFFFFFFFFFFFFFFFFFFF AND PUSH32 0xDDF252AD1BE2C89B69C2B068FC378DAA952BA7F163C4A11628F55A4DF523B3EF PUSH1 0x40 MLOAD PUSH1 0x40 MLOAD DUP1 SWAP2 SUB SWAP1 LOG4 PUSH2 0x2799 DUP4 DUP4 DUP4 PUSH2 0x30DB JUMP JUMPDEST POP POP POP JUMP JUMPDEST PUSH1 0x0 PUSH20 0xFFFFFFFFFFFFFFFFFFFFFFFFFFFFFFFFFFFFFFFF AND DUP3 PUSH20 0xFFFFFFFFFFFFFFFFFFFFFFFFFFFFFFFFFFFFFFFF AND SUB PUSH2 0x280D JUMPI PUSH1 0x40 MLOAD PUSH32 0x8C379A000000000000000000000000000000000000000000000000000000000 DUP2 MSTORE PUSH1 0x4 ADD PUSH2 0x2804 SWAP1 PUSH2 0x4A53 JUMP JUMPDEST PUSH1 0x40 MLOAD DUP1 SWAP2 SUB SWAP1 REVERT JUMPDEST PUSH2 0x2816 DUP2 PUSH2 0x232D JUMP JUMPDEST ISZERO PUSH2 0x2856 JUMPI PUSH1 0x40 MLOAD PUSH32 0x8C379A000000000000000000000000000000000000000000000000000000000 DUP2 MSTORE PUSH1 0x4 ADD PUSH2 0x284D SWAP1 PUSH2 0x4ABF JUMP JUMPDEST PUSH1 0x40 MLOAD DUP1 SWAP2 SUB SWAP1 REVERT JUMPDEST PUSH2 0x2862 PUSH1 0x0 DUP4 DUP4 PUSH2 0x30D6 JUMP JUMPDEST PUSH1 0x1 PUSH1 0x3 PUSH1 0x0 DUP5 PUSH20 0xFFFFFFFFFFFFFFFFFFFFFFFFFFFFFFFFFFFFFFFF AND PUSH20 0xFFFFFFFFFFFFFFFFFFFFFFFFFFFFFFFFFFFFFFFF AND DUP2 MSTORE PUSH1 0x20 ADD SWAP1 DUP2 MSTORE PUSH1 0x20 ADD PUSH1 0x0 KECCAK256 PUSH1 0x0 DUP3 DUP3 SLOAD PUSH2 0x28B2 SWAP2 SWAP1 PUSH2 0x40A3 JUMP JUMPDEST SWAP3 POP POP DUP2 SWAP1 SSTORE POP DUP2 PUSH1 0x2 PUSH1 0x0 DUP4 DUP2 MSTORE PUSH1 0x20 ADD SWAP1 DUP2 MSTORE PUSH1 0x20 ADD PUSH1 0x0 KECCAK256 PUSH1 0x0 PUSH2 0x100 EXP DUP2 SLOAD DUP2 PUSH20 0xFFFFFFFFFFFFFFFFFFFFFFFFFFFFFFFFFFFFFFFF MUL NOT AND SWAP1 DUP4 PUSH20 0xFFFFFFFFFFFFFFFFFFFFFFFFFFFFFFFFFFFFFFFF AND MUL OR SWAP1 SSTORE POP DUP1 DUP3 PUSH20 0xFFFFFFFFFFFFFFFFFFFFFFFFFFFFFFFFFFFFFFFF AND PUSH1 0x0 PUSH20 0xFFFFFFFFFFFFFFFFFFFFFFFFFFFFFFFFFFFFFFFF AND PUSH32 0xDDF252AD1BE2C89B69C2B068FC378DAA952BA7F163C4A11628F55A4DF523B3EF PUSH1 0x40 MLOAD PUSH1 0x40 MLOAD DUP1 SWAP2 SUB SWAP1 LOG4 PUSH2 0x2973 PUSH1 0x0 DUP4 DUP4 PUSH2 0x30DB JUMP JUMPDEST POP POP JUMP JUMPDEST PUSH2 0x2980 DUP3 PUSH2 0x232D JUMP JUMPDEST PUSH2 0x29BF JUMPI PUSH1 0x40 MLOAD PUSH32 0x8C379A000000000000000000000000000000000000000000000000000000000 DUP2 MSTORE PUSH1 0x4 ADD PUSH2 0x29B6 SWAP1 PUSH2 0x4B51 JUMP JUMPDEST PUSH1 0x40 MLOAD DUP1 SWAP2 SUB SWAP1 REVERT JUMPDEST DUP1 PUSH1 0x6 PUSH1 0x0 DUP5 DUP2 MSTORE PUSH1 0x20 ADD SWAP1 DUP2 MSTORE PUSH1 0x20 ADD PUSH1 0x0 KECCAK256 SWAP1 DUP2 PUSH2 0x29DF SWAP2 SWAP1 PUSH2 0x4D13 JUMP JUMPDEST POP POP POP JUMP JUMPDEST PUSH1 0x0 DUP2 GT PUSH2 0x2A27 JUMPI PUSH1 0x40 MLOAD PUSH32 0x8C379A000000000000000000000000000000000000000000000000000000000 DUP2 MSTORE PUSH1 0x4 ADD PUSH2 0x2A1E SWAP1 PUSH2 0x4E31 JUMP JUMPDEST PUSH1 0x40 MLOAD DUP1 SWAP2 SUB SWAP1 REVERT JUMPDEST PUSH1 0x9 SLOAD CALLVALUE EQ PUSH2 0x2A6B JUMPI PUSH1 0x40 MLOAD PUSH32 0x8C379A000000000000000000000000000000000000000000000000000000000 DUP2 MSTORE PUSH1 0x4 ADD PUSH2 0x2A62 SWAP1 PUSH2 0x4808 JUMP JUMPDEST PUSH1 0x40 MLOAD DUP1 SWAP2 SUB SWAP1 REVERT JUMPDEST PUSH1 0x40 MLOAD DUP1 PUSH1 0xA0 ADD PUSH1 0x40 MSTORE DUP1 DUP4 DUP2 MSTORE PUSH1 0x20 ADD CALLER PUSH20 0xFFFFFFFFFFFFFFFFFFFFFFFFFFFFFFFFFFFFFFFF AND DUP2 MSTORE PUSH1 0x20 ADD ADDRESS PUSH20 0xFFFFFFFFFFFFFFFFFFFFFFFFFFFFFFFFFFFFFFFF AND DUP2 MSTORE PUSH1 0x20 ADD DUP3 DUP2 MSTORE PUSH1 0x20 ADD PUSH1 0x0 ISZERO ISZERO DUP2 MSTORE POP PUSH1 0xE PUSH1 0x0 DUP5 DUP2 MSTORE PUSH1 0x20 ADD SWAP1 DUP2 MSTORE PUSH1 0x20 ADD PUSH1 0x0 KECCAK256 PUSH1 0x0 DUP3 ADD MLOAD DUP2 PUSH1 0x0 ADD SSTORE PUSH1 0x20 DUP3 ADD MLOAD DUP2 PUSH1 0x1 ADD PUSH1 0x0 PUSH2 0x100 EXP DUP2 SLOAD DUP2 PUSH20 0xFFFFFFFFFFFFFFFFFFFFFFFFFFFFFFFFFFFFFFFF MUL NOT AND SWAP1 DUP4 PUSH20 0xFFFFFFFFFFFFFFFFFFFFFFFFFFFFFFFFFFFFFFFF AND MUL OR SWAP1 SSTORE POP PUSH1 0x40 DUP3 ADD MLOAD DUP2 PUSH1 0x2 ADD PUSH1 0x0 PUSH2 0x100 EXP DUP2 SLOAD DUP2 PUSH20 0xFFFFFFFFFFFFFFFFFFFFFFFFFFFFFFFFFFFFFFFF MUL NOT AND SWAP1 DUP4 PUSH20 0xFFFFFFFFFFFFFFFFFFFFFFFFFFFFFFFFFFFFFFFF AND MUL OR SWAP1 SSTORE POP PUSH1 0x60 DUP3 ADD MLOAD DUP2 PUSH1 0x3 ADD SSTORE PUSH1 0x80 DUP3 ADD MLOAD DUP2 PUSH1 0x4 ADD PUSH1 0x0 PUSH2 0x100 EXP DUP2 SLOAD DUP2 PUSH1 0xFF MUL NOT AND SWAP1 DUP4 ISZERO ISZERO MUL OR SWAP1 SSTORE POP SWAP1 POP POP PUSH1 0x40 MLOAD DUP1 PUSH1 0xA0 ADD PUSH1 0x40 MSTORE DUP1 DUP4 DUP2 MSTORE PUSH1 0x20 ADD PUSH1 0x0 PUSH20 0xFFFFFFFFFFFFFFFFFFFFFFFFFFFFFFFFFFFFFFFF AND DUP2 MSTORE PUSH1 0x20 ADD DUP3 DUP2 MSTORE PUSH1 0x20 ADD PUSH1 0xB SLOAD TIMESTAMP PUSH2 0x2BDB SWAP2 SWAP1 PUSH2 0x40A3 JUMP JUMPDEST DUP2 MSTORE PUSH1 0x20 ADD PUSH1 0x0 ISZERO ISZERO DUP2 MSTORE POP PUSH1 0xD PUSH1 0x0 DUP5 DUP2 MSTORE PUSH1 0x20 ADD SWAP1 DUP2 MSTORE PUSH1 0x20 ADD PUSH1 0x0 KECCAK256 PUSH1 0x0 DUP3 ADD MLOAD DUP2 PUSH1 0x0 ADD SSTORE PUSH1 0x20 DUP3 ADD MLOAD DUP2 PUSH1 0x1 ADD PUSH1 0x0 PUSH2 0x100 EXP DUP2 SLOAD DUP2 PUSH20 0xFFFFFFFFFFFFFFFFFFFFFFFFFFFFFFFFFFFFFFFF MUL NOT AND SWAP1 DUP4 PUSH20 0xFFFFFFFFFFFFFFFFFFFFFFFFFFFFFFFFFFFFFFFF AND MUL OR SWAP1 SSTORE POP PUSH1 0x40 DUP3 ADD MLOAD DUP2 PUSH1 0x2 ADD SSTORE PUSH1 0x60 DUP3 ADD MLOAD DUP2 PUSH1 0x3 ADD SSTORE PUSH1 0x80 DUP3 ADD MLOAD DUP2 PUSH1 0x4 ADD PUSH1 0x0 PUSH2 0x100 EXP DUP2 SLOAD DUP2 PUSH1 0xFF MUL NOT AND SWAP1 DUP4 ISZERO ISZERO MUL OR SWAP1 SSTORE POP SWAP1 POP POP PUSH2 0x2CC1 PUSH1 0x40 MLOAD DUP1 PUSH1 0x40 ADD PUSH1 0x40 MSTORE DUP1 PUSH1 0x1C DUP2 MSTORE PUSH1 0x20 ADD PUSH32 0x41756374696F6E206372656174656420666F7220746F6B656E49643A00000000 DUP2 MSTORE POP DUP4 PUSH2 0x2DB4 JUMP JUMPDEST PUSH2 0x2D16 PUSH1 0x40 MLOAD DUP1 PUSH1 0x40 ADD PUSH1 0x40 MSTORE DUP1 PUSH1 0x11 DUP2 MSTORE PUSH1 0x20 ADD PUSH32 0x41756374696F6E20656E642074696D653A000000000000000000000000000000 DUP2 MSTORE POP PUSH1 0xD PUSH1 0x0 DUP6 DUP2 MSTORE PUSH1 0x20 ADD SWAP1 DUP2 MSTORE PUSH1 0x20 ADD PUSH1 0x0 KECCAK256 PUSH1 0x3 ADD SLOAD PUSH2 0x2DB4 JUMP JUMPDEST DUP2 PUSH32 0x6FF530872708BBB51BAD8EA341564E4EA039807AD1331F61AB4C906A66875DAF CALLER PUSH1 0xD PUSH1 0x0 DUP7 DUP2 MSTORE PUSH1 0x20 ADD SWAP1 DUP2 MSTORE PUSH1 0x20 ADD PUSH1 0x0 KECCAK256 PUSH1 0x3 ADD SLOAD PUSH1 0x40 MLOAD PUSH2 0x2D5E SWAP3 SWAP2 SWAP1 PUSH2 0x43F7 JUMP JUMPDEST PUSH1 0x40 MLOAD DUP1 SWAP2 SUB SWAP1 LOG2 PUSH2 0x2D71 CALLER ADDRESS DUP5 PUSH2 0x2538 JUMP JUMPDEST DUP2 PUSH32 0xB640004F1D14576D0C209E240CAD0410E0D8C0C33A09375861FBADAE2588A98D CALLER ADDRESS DUP5 PUSH1 0x0 PUSH1 0x40 MLOAD PUSH2 0x2DA8 SWAP5 SWAP4 SWAP3 SWAP2 SWAP1 PUSH2 0x4E51 JUMP JUMPDEST PUSH1 0x40 MLOAD DUP1 SWAP2 SUB SWAP1 LOG2 POP POP JUMP JUMPDEST PUSH2 0x2E4C DUP3 DUP3 PUSH1 0x40 MLOAD PUSH1 0x24 ADD PUSH2 0x2DCA SWAP3 SWAP2 SWAP1 PUSH2 0x4E96 JUMP JUMPDEST PUSH1 0x40 MLOAD PUSH1 0x20 DUP2 DUP4 SUB SUB DUP2 MSTORE SWAP1 PUSH1 0x40 MSTORE PUSH32 0xB60E72CC00000000000000000000000000000000000000000000000000000000 PUSH28 0xFFFFFFFFFFFFFFFFFFFFFFFFFFFFFFFFFFFFFFFFFFFFFFFFFFFFFFFF NOT AND PUSH1 0x20 DUP3 ADD DUP1 MLOAD PUSH28 0xFFFFFFFFFFFFFFFFFFFFFFFFFFFFFFFFFFFFFFFFFFFFFFFFFFFFFFFF DUP4 DUP2 DUP4 AND OR DUP4 MSTORE POP POP POP POP PUSH2 0x30E0 JUMP JUMPDEST POP POP JUMP JUMPDEST DUP2 PUSH20 0xFFFFFFFFFFFFFFFFFFFFFFFFFFFFFFFFFFFFFFFF AND DUP4 PUSH20 0xFFFFFFFFFFFFFFFFFFFFFFFFFFFFFFFFFFFFFFFF AND SUB PUSH2 0x2EBE JUMPI PUSH1 0x40 MLOAD PUSH32 0x8C379A000000000000000000000000000000000000000000000000000000000 DUP2 MSTORE PUSH1 0x4 ADD PUSH2 0x2EB5 SWAP1 PUSH2 0x4F12 JUMP JUMPDEST PUSH1 0x40 MLOAD DUP1 SWAP2 SUB SWAP1 REVERT JUMPDEST DUP1 PUSH1 0x5 PUSH1 0x0 DUP6 PUSH20 0xFFFFFFFFFFFFFFFFFFFFFFFFFFFFFFFFFFFFFFFF AND PUSH20 0xFFFFFFFFFFFFFFFFFFFFFFFFFFFFFFFFFFFFFFFF AND DUP2 MSTORE PUSH1 0x20 ADD SWAP1 DUP2 MSTORE PUSH1 0x20 ADD PUSH1 0x0 KECCAK256 PUSH1 0x0 DUP5 PUSH20 0xFFFFFFFFFFFFFFFFFFFFFFFFFFFFFFFFFFFFFFFF AND PUSH20 0xFFFFFFFFFFFFFFFFFFFFFFFFFFFFFFFFFFFFFFFF AND DUP2 MSTORE PUSH1 0x20 ADD SWAP1 DUP2 MSTORE PUSH1 0x20 ADD PUSH1 0x0 KECCAK256 PUSH1 0x0 PUSH2 0x100 EXP DUP2 SLOAD DUP2 PUSH1 0xFF MUL NOT AND SWAP1 DUP4 ISZERO ISZERO MUL OR SWAP1 SSTORE POP DUP2 PUSH20 0xFFFFFFFFFFFFFFFFFFFFFFFFFFFFFFFFFFFFFFFF AND DUP4 PUSH20 0xFFFFFFFFFFFFFFFFFFFFFFFFFFFFFFFFFFFFFFFF AND PUSH32 0x17307EAB39AB6107E8899845AD3D59BD9653F200F220920489CA2B5937696C31 DUP4 PUSH1 0x40 MLOAD PUSH2 0x2FAF SWAP2 SWAP1 PUSH2 0x354B JUMP JUMPDEST PUSH1 0x40 MLOAD DUP1 SWAP2 SUB SWAP1 LOG3 POP POP POP JUMP JUMPDEST PUSH2 0x2FC7 DUP5 DUP5 DUP5 PUSH2 0x2538 JUMP JUMPDEST PUSH2 0x2FD3 DUP5 DUP5 DUP5 DUP5 PUSH2 0x30FA JUMP JUMPDEST PUSH2 0x3012 JUMPI PUSH1 0x40 MLOAD PUSH32 0x8C379A000000000000000000000000000000000000000000000000000000000 DUP2 MSTORE PUSH1 0x4 ADD PUSH2 0x3009 SWAP1 PUSH2 0x4FA4 JUMP JUMPDEST PUSH1 0x40 MLOAD DUP1 SWAP2 SUB SWAP1 REVERT JUMPDEST POP POP POP POP JUMP JUMPDEST PUSH1 0x60 PUSH1 0x40 MLOAD DUP1 PUSH1 0x20 ADD PUSH1 0x40 MSTORE DUP1 PUSH1 0x0 DUP2 MSTORE POP SWAP1 POP SWAP1 JUMP JUMPDEST PUSH1 0x60 PUSH2 0x303A DUP3 PUSH2 0x232D JUMP JUMPDEST PUSH2 0x3079 JUMPI PUSH1 0x40 MLOAD PUSH32 0x8C379A000000000000000000000000000000000000000000000000000000000 DUP2 MSTORE PUSH1 0x4 ADD PUSH2 0x3070 SWAP1 PUSH2 0x5036 JUMP JUMPDEST PUSH1 0x40 MLOAD DUP1 SWAP2 SUB SWAP1 REVERT JUMPDEST PUSH1 0x0 PUSH2 0x3083 PUSH2 0x3018 JUMP JUMPDEST SWAP1 POP PUSH1 0x0 DUP2 MLOAD GT PUSH2 0x30A3 JUMPI PUSH1 0x40 MLOAD DUP1 PUSH1 0x20 ADD PUSH1 0x40 MSTORE DUP1 PUSH1 0x0 DUP2 MSTORE POP PUSH2 0x30CE JUMP JUMPDEST DUP1 PUSH2 0x30AD DUP5 PUSH2 0x3281 JUMP JUMPDEST PUSH1 0x40 MLOAD PUSH1 0x20 ADD PUSH2 0x30BE SWAP3 SWAP2 SWAP1 PUSH2 0x46E0 JUMP JUMPDEST PUSH1 0x40 MLOAD PUSH1 0x20 DUP2 DUP4 SUB SUB DUP2 MSTORE SWAP1 PUSH1 0x40 MSTORE JUMPDEST SWAP2 POP POP SWAP2 SWAP1 POP JUMP JUMPDEST POP POP POP JUMP JUMPDEST POP POP POP JUMP JUMPDEST PUSH2 0x30F7 DUP2 PUSH2 0x30EF PUSH2 0x33E1 PUSH2 0x3402 JUMP JUMPDEST PUSH4 0xFFFFFFFF AND JUMP JUMPDEST POP JUMP JUMPDEST PUSH1 0x0 PUSH2 0x311B DUP5 PUSH20 0xFFFFFFFFFFFFFFFFFFFFFFFFFFFFFFFFFFFFFFFF AND PUSH2 0x340D JUMP JUMPDEST ISZERO PUSH2 0x3274 JUMPI DUP4 PUSH20 0xFFFFFFFFFFFFFFFFFFFFFFFFFFFFFFFFFFFFFFFF AND PUSH4 0x150B7A02 PUSH2 0x3144 PUSH2 0x2399 JUMP JUMPDEST DUP8 DUP7 DUP7 PUSH1 0x40 MLOAD DUP6 PUSH4 0xFFFFFFFF AND PUSH1 0xE0 SHL DUP2 MSTORE PUSH1 0x4 ADD PUSH2 0x3166 SWAP5 SWAP4 SWAP3 SWAP2 SWAP1 PUSH2 0x50AB JUMP JUMPDEST PUSH1 0x20 PUSH1 0x40 MLOAD DUP1 DUP4 SUB DUP2 PUSH1 0x0 DUP8 GAS CALL SWAP3 POP POP POP DUP1 ISZERO PUSH2 0x31A2 JUMPI POP PUSH1 0x40 MLOAD RETURNDATASIZE PUSH1 0x1F NOT PUSH1 0x1F DUP3 ADD AND DUP3 ADD DUP1 PUSH1 0x40 MSTORE POP DUP2 ADD SWAP1 PUSH2 0x319F SWAP2 SWAP1 PUSH2 0x510C JUMP JUMPDEST PUSH1 0x1 JUMPDEST PUSH2 0x3224 JUMPI RETURNDATASIZE DUP1 PUSH1 0x0 DUP2 EQ PUSH2 0x31D2 JUMPI PUSH1 0x40 MLOAD SWAP2 POP PUSH1 0x1F NOT PUSH1 0x3F RETURNDATASIZE ADD AND DUP3 ADD PUSH1 0x40 MSTORE RETURNDATASIZE DUP3 MSTORE RETURNDATASIZE PUSH1 0x0 PUSH1 0x20 DUP5 ADD RETURNDATACOPY PUSH2 0x31D7 JUMP JUMPDEST PUSH1 0x60 SWAP2 POP JUMPDEST POP PUSH1 0x0 DUP2 MLOAD SUB PUSH2 0x321C JUMPI PUSH1 0x40 MLOAD PUSH32 0x8C379A000000000000000000000000000000000000000000000000000000000 DUP2 MSTORE PUSH1 0x4 ADD PUSH2 0x3213 SWAP1 PUSH2 0x4FA4 JUMP JUMPDEST PUSH1 0x40 MLOAD DUP1 SWAP2 SUB SWAP1 REVERT JUMPDEST DUP1 MLOAD DUP2 PUSH1 0x20 ADD REVERT JUMPDEST PUSH4 0x150B7A02 PUSH1 0xE0 SHL PUSH28 0xFFFFFFFFFFFFFFFFFFFFFFFFFFFFFFFFFFFFFFFFFFFFFFFFFFFFFFFF NOT AND DUP2 PUSH28 0xFFFFFFFFFFFFFFFFFFFFFFFFFFFFFFFFFFFFFFFFFFFFFFFFFFFFFFFF NOT AND EQ SWAP2 POP POP PUSH2 0x3279 JUMP JUMPDEST PUSH1 0x1 SWAP1 POP JUMPDEST SWAP5 SWAP4 POP POP POP POP JUMP JUMPDEST PUSH1 0x60 PUSH1 0x0 DUP3 SUB PUSH2 0x32C8 JUMPI PUSH1 0x40 MLOAD DUP1 PUSH1 0x40 ADD PUSH1 0x40 MSTORE DUP1 PUSH1 0x1 DUP2 MSTORE PUSH1 0x20 ADD PUSH32 0x3000000000000000000000000000000000000000000000000000000000000000 DUP2 MSTORE POP SWAP1 POP PUSH2 0x33DC JUMP JUMPDEST PUSH1 0x0 DUP3 SWAP1 POP PUSH1 0x0 JUMPDEST PUSH1 0x0 DUP3 EQ PUSH2 0x32FA JUMPI DUP1 DUP1 PUSH2 0x32E3 SWAP1 PUSH2 0x3DE2 JUMP JUMPDEST SWAP2 POP POP PUSH1 0xA DUP3 PUSH2 0x32F3 SWAP2 SWAP1 PUSH2 0x5168 JUMP JUMPDEST SWAP2 POP PUSH2 0x32D0 JUMP JUMPDEST PUSH1 0x0 DUP2 PUSH8 0xFFFFFFFFFFFFFFFF DUP2 GT ISZERO PUSH2 0x3316 JUMPI PUSH2 0x3315 PUSH2 0x396F JUMP JUMPDEST JUMPDEST PUSH1 0x40 MLOAD SWAP1 DUP1 DUP3 MSTORE DUP1 PUSH1 0x1F ADD PUSH1 0x1F NOT AND PUSH1 0x20 ADD DUP3 ADD PUSH1 0x40 MSTORE DUP1 ISZERO PUSH2 0x3348 JUMPI DUP2 PUSH1 0x20 ADD PUSH1 0x1 DUP3 MUL DUP1 CALLDATASIZE DUP4 CALLDATACOPY DUP1 DUP3 ADD SWAP2 POP POP SWAP1 POP JUMPDEST POP SWAP1 POP JUMPDEST PUSH1 0x0 DUP6 EQ PUSH2 0x33D5 JUMPI PUSH1 0x1 DUP3 PUSH2 0x3361 SWAP2 SWAP1 PUSH2 0x4040 JUMP JUMPDEST SWAP2 POP PUSH1 0xA DUP6 PUSH2 0x3370 SWAP2 SWAP1 PUSH2 0x5199 JUMP JUMPDEST PUSH1 0x30 PUSH2 0x337C SWAP2 SWAP1 PUSH2 0x40A3 JUMP JUMPDEST PUSH1 0xF8 SHL DUP2 DUP4 DUP2 MLOAD DUP2 LT PUSH2 0x3392 JUMPI PUSH2 0x3391 PUSH2 0x4074 JUMP JUMPDEST JUMPDEST PUSH1 0x20 ADD ADD SWAP1 PUSH31 0xFFFFFFFFFFFFFFFFFFFFFFFFFFFFFFFFFFFFFFFFFFFFFFFFFFFFFFFFFFFFFF NOT AND SWAP1 DUP2 PUSH1 0x0 BYTE SWAP1 MSTORE8 POP PUSH1 0xA DUP6 PUSH2 0x33CE SWAP2 SWAP1 PUSH2 0x5168 JUMP JUMPDEST SWAP5 POP PUSH2 0x334C JUMP JUMPDEST DUP1 SWAP4 POP POP POP POP JUMPDEST SWAP2 SWAP1 POP JUMP JUMPDEST PUSH1 0x0 PUSH11 0x636F6E736F6C652E6C6F67 SWAP1 POP PUSH1 0x0 DUP1 DUP4 MLOAD PUSH1 0x20 DUP6 ADD DUP5 GAS STATICCALL POP POP POP JUMP JUMPDEST PUSH2 0x348D DUP2 SWAP1 POP SWAP2 SWAP1 POP JUMP JUMPDEST PUSH1 0x0 DUP1 DUP3 PUSH20 0xFFFFFFFFFFFFFFFFFFFFFFFFFFFFFFFFFFFFFFFF AND EXTCODESIZE GT SWAP1 POP SWAP2 SWAP1 POP JUMP JUMPDEST PUSH1 0x40 MLOAD DUP1 PUSH1 0xA0 ADD PUSH1 0x40 MSTORE DUP1 PUSH1 0x0 DUP2 MSTORE PUSH1 0x20 ADD PUSH1 0x0 PUSH20 0xFFFFFFFFFFFFFFFFFFFFFFFFFFFFFFFFFFFFFFFF AND DUP2 MSTORE PUSH1 0x20 ADD PUSH1 0x0 PUSH20 0xFFFFFFFFFFFFFFFFFFFFFFFFFFFFFFFFFFFFFFFF AND DUP2 MSTORE PUSH1 0x20 ADD PUSH1 0x0 DUP2 MSTORE PUSH1 0x20 ADD PUSH1 0x0 ISZERO ISZERO DUP2 MSTORE POP SWAP1 JUMP JUMPDEST PUSH2 0x3495 PUSH2 0x51CA JUMP JUMPDEST JUMP JUMPDEST PUSH1 0x0 PUSH1 0x40 MLOAD SWAP1 POP SWAP1 JUMP JUMPDEST PUSH1 0x0 DUP1 REVERT JUMPDEST PUSH1 0x0 DUP1 REVERT JUMPDEST PUSH1 0x0 PUSH32 0xFFFFFFFF00000000000000000000000000000000000000000000000000000000 DUP3 AND SWAP1 POP SWAP2 SWAP1 POP JUMP JUMPDEST PUSH2 0x34E0 DUP2 PUSH2 0x34AB JUMP JUMPDEST DUP2 EQ PUSH2 0x34EB JUMPI PUSH1 0x0 DUP1 REVERT JUMPDEST POP JUMP JUMPDEST PUSH1 0x0 DUP2 CALLDATALOAD SWAP1 POP PUSH2 0x34FD DUP2 PUSH2 0x34D7 JUMP JUMPDEST SWAP3 SWAP2 POP POP JUMP JUMPDEST PUSH1 0x0 PUSH1 0x20 DUP3 DUP5 SUB SLT ISZERO PUSH2 0x3519 JUMPI PUSH2 0x3518 PUSH2 0x34A1 JUMP JUMPDEST JUMPDEST PUSH1 0x0 PUSH2 0x3527 DUP5 DUP3 DUP6 ADD PUSH2 0x34EE JUMP JUMPDEST SWAP2 POP POP SWAP3 SWAP2 POP POP JUMP JUMPDEST PUSH1 0x0 DUP2 ISZERO ISZERO SWAP1 POP SWAP2 SWAP1 POP JUMP JUMPDEST PUSH2 0x3545 DUP2 PUSH2 0x3530 JUMP JUMPDEST DUP3 MSTORE POP POP JUMP JUMPDEST PUSH1 0x0 PUSH1 0x20 DUP3 ADD SWAP1 POP PUSH2 0x3560 PUSH1 0x0 DUP4 ADD DUP5 PUSH2 0x353C JUMP JUMPDEST SWAP3 SWAP2 POP POP JUMP JUMPDEST PUSH1 0x0 DUP2 MLOAD SWAP1 POP SWAP2 SWAP1 POP JUMP JUMPDEST PUSH1 0x0 DUP3 DUP3 MSTORE PUSH1 0x20 DUP3 ADD SWAP1 POP SWAP3 SWAP2 POP POP JUMP JUMPDEST PUSH1 0x0 JUMPDEST DUP4 DUP2 LT ISZERO PUSH2 0x35A0 JUMPI DUP1 DUP3 ADD MLOAD DUP2 DUP5 ADD MSTORE PUSH1 0x20 DUP2 ADD SWAP1 POP PUSH2 0x3585 JUMP JUMPDEST PUSH1 0x0 DUP5 DUP5 ADD MSTORE POP POP POP POP JUMP JUMPDEST PUSH1 0x0 PUSH1 0x1F NOT PUSH1 0x1F DUP4 ADD AND SWAP1 POP SWAP2 SWAP1 POP JUMP JUMPDEST PUSH1 0x0 PUSH2 0x35C8 DUP3 PUSH2 0x3566 JUMP JUMPDEST PUSH2 0x35D2 DUP2 DUP6 PUSH2 0x3571 JUMP JUMPDEST SWAP4 POP PUSH2 0x35E2 DUP2 DUP6 PUSH1 0x20 DUP7 ADD PUSH2 0x3582 JUMP JUMPDEST PUSH2 0x35EB DUP2 PUSH2 0x35AC JUMP JUMPDEST DUP5 ADD SWAP2 POP POP SWAP3 SWAP2 POP POP JUMP JUMPDEST PUSH1 0x0 PUSH1 0x20 DUP3 ADD SWAP1 POP DUP2 DUP2 SUB PUSH1 0x0 DUP4 ADD MSTORE PUSH2 0x3610 DUP2 DUP5 PUSH2 0x35BD JUMP JUMPDEST SWAP1 POP SWAP3 SWAP2 POP POP JUMP JUMPDEST PUSH1 0x0 DUP2 SWAP1 POP SWAP2 SWAP1 POP JUMP JUMPDEST PUSH2 0x362B DUP2 PUSH2 0x3618 JUMP JUMPDEST DUP2 EQ PUSH2 0x3636 JUMPI PUSH1 0x0 DUP1 REVERT JUMPDEST POP JUMP JUMPDEST PUSH1 0x0 DUP2 CALLDATALOAD SWAP1 POP PUSH2 0x3648 DUP2 PUSH2 0x3622 JUMP JUMPDEST SWAP3 SWAP2 POP POP JUMP JUMPDEST PUSH1 0x0 PUSH1 0x20 DUP3 DUP5 SUB SLT ISZERO PUSH2 0x3664 JUMPI PUSH2 0x3663 PUSH2 0x34A1 JUMP JUMPDEST JUMPDEST PUSH1 0x0 PUSH2 0x3672 DUP5 DUP3 DUP6 ADD PUSH2 0x3639 JUMP JUMPDEST SWAP2 POP POP SWAP3 SWAP2 POP POP JUMP JUMPDEST PUSH1 0x0 PUSH20 0xFFFFFFFFFFFFFFFFFFFFFFFFFFFFFFFFFFFFFFFF DUP3 AND SWAP1 POP SWAP2 SWAP1 POP JUMP JUMPDEST PUSH1 0x0 PUSH2 0x36A6 DUP3 PUSH2 0x367B JUMP JUMPDEST SWAP1 POP SWAP2 SWAP1 POP JUMP JUMPDEST PUSH2 0x36B6 DUP2 PUSH2 0x369B JUMP JUMPDEST DUP3 MSTORE POP POP JUMP JUMPDEST PUSH1 0x0 PUSH1 0x20 DUP3 ADD SWAP1 POP PUSH2 0x36D1 PUSH1 0x0 DUP4 ADD DUP5 PUSH2 0x36AD JUMP JUMPDEST SWAP3 SWAP2 POP POP JUMP JUMPDEST PUSH2 0x36E0 DUP2 PUSH2 0x369B JUMP JUMPDEST DUP2 EQ PUSH2 0x36EB JUMPI PUSH1 0x0 DUP1 REVERT JUMPDEST POP JUMP JUMPDEST PUSH1 0x0 DUP2 CALLDATALOAD SWAP1 POP PUSH2 0x36FD DUP2 PUSH2 0x36D7 JUMP JUMPDEST SWAP3 SWAP2 POP POP JUMP JUMPDEST PUSH1 0x0 DUP1 PUSH1 0x40 DUP4 DUP6 SUB SLT ISZERO PUSH2 0x371A JUMPI PUSH2 0x3719 PUSH2 0x34A1 JUMP JUMPDEST JUMPDEST PUSH1 0x0 PUSH2 0x3728 DUP6 DUP3 DUP7 ADD PUSH2 0x36EE JUMP JUMPDEST SWAP3 POP POP PUSH1 0x20 PUSH2 0x3739 DUP6 DUP3 DUP7 ADD PUSH2 0x3639 JUMP JUMPDEST SWAP2 POP POP SWAP3 POP SWAP3 SWAP1 POP JUMP JUMPDEST PUSH2 0x374C DUP2 PUSH2 0x3618 JUMP JUMPDEST DUP3 MSTORE POP POP JUMP JUMPDEST PUSH1 0x0 PUSH1 0x20 DUP3 ADD SWAP1 POP PUSH2 0x3767 PUSH1 0x0 DUP4 ADD DUP5 PUSH2 0x3743 JUMP JUMPDEST SWAP3 SWAP2 POP POP JUMP JUMPDEST PUSH1 0x0 DUP2 MLOAD SWAP1 POP SWAP2 SWAP1 POP JUMP JUMPDEST PUSH1 0x0 DUP3 DUP3 MSTORE PUSH1 0x20 DUP3 ADD SWAP1 POP SWAP3 SWAP2 POP POP JUMP JUMPDEST PUSH1 0x0 DUP2 SWAP1 POP PUSH1 0x20 DUP3 ADD SWAP1 POP SWAP2 SWAP1 POP JUMP JUMPDEST PUSH2 0x37A2 DUP2 PUSH2 0x3618 JUMP JUMPDEST DUP3 MSTORE POP POP JUMP JUMPDEST PUSH1 0x0 PUSH2 0x37B3 DUP3 PUSH2 0x367B JUMP JUMPDEST SWAP1 POP SWAP2 SWAP1 POP JUMP JUMPDEST PUSH2 0x37C3 DUP2 PUSH2 0x37A8 JUMP JUMPDEST DUP3 MSTORE POP POP JUMP JUMPDEST PUSH2 0x37D2 DUP2 PUSH2 0x3530 JUMP JUMPDEST DUP3 MSTORE POP POP JUMP JUMPDEST PUSH1 0xA0 DUP3 ADD PUSH1 0x0 DUP3 ADD MLOAD PUSH2 0x37EE PUSH1 0x0 DUP6 ADD DUP3 PUSH2 0x3799 JUMP JUMPDEST POP PUSH1 0x20 DUP3 ADD MLOAD PUSH2 0x3801 PUSH1 0x20 DUP6 ADD DUP3 PUSH2 0x37BA JUMP JUMPDEST POP PUSH1 0x40 DUP3 ADD MLOAD PUSH2 0x3814 PUSH1 0x40 DUP6 ADD DUP3 PUSH2 0x37BA JUMP JUMPDEST POP PUSH1 0x60 DUP3 ADD MLOAD PUSH2 0x3827 PUSH1 0x60 DUP6 ADD DUP3 PUSH2 0x3799 JUMP JUMPDEST POP PUSH1 0x80 DUP3 ADD MLOAD PUSH2 0x383A PUSH1 0x80 DUP6 ADD DUP3 PUSH2 0x37C9 JUMP JUMPDEST POP POP POP POP JUMP JUMPDEST PUSH1 0x0 PUSH2 0x384C DUP4 DUP4 PUSH2 0x37D8 JUMP JUMPDEST PUSH1 0xA0 DUP4 ADD SWAP1 POP SWAP3 SWAP2 POP POP JUMP JUMPDEST PUSH1 0x0 PUSH1 0x20 DUP3 ADD SWAP1 POP SWAP2 SWAP1 POP JUMP JUMPDEST PUSH1 0x0 PUSH2 0x3870 DUP3 PUSH2 0x376D JUMP JUMPDEST PUSH2 0x387A DUP2 DUP6 PUSH2 0x3778 JUMP JUMPDEST SWAP4 POP PUSH2 0x3885 DUP4 PUSH2 0x3789 JUMP JUMPDEST DUP1 PUSH1 0x0 JUMPDEST DUP4 DUP2 LT ISZERO PUSH2 0x38B6 JUMPI DUP2 MLOAD PUSH2 0x389D DUP9 DUP3 PUSH2 0x3840 JUMP JUMPDEST SWAP8 POP PUSH2 0x38A8 DUP4 PUSH2 0x3858 JUMP JUMPDEST SWAP3 POP POP PUSH1 0x1 DUP2 ADD SWAP1 POP PUSH2 0x3889 JUMP JUMPDEST POP DUP6 SWAP4 POP POP POP POP SWAP3 SWAP2 POP POP JUMP JUMPDEST PUSH1 0x0 PUSH1 0x20 DUP3 ADD SWAP1 POP DUP2 DUP2 SUB PUSH1 0x0 DUP4 ADD MSTORE PUSH2 0x38DD DUP2 DUP5 PUSH2 0x3865 JUMP JUMPDEST SWAP1 POP SWAP3 SWAP2 POP POP JUMP JUMPDEST PUSH1 0x0 DUP1 PUSH1 0x0 PUSH1 0x60 DUP5 DUP7 SUB SLT ISZERO PUSH2 0x38FE JUMPI PUSH2 0x38FD PUSH2 0x34A1 JUMP JUMPDEST JUMPDEST PUSH1 0x0 PUSH2 0x390C DUP7 DUP3 DUP8 ADD PUSH2 0x36EE JUMP JUMPDEST SWAP4 POP POP PUSH1 0x20 PUSH2 0x391D DUP7 DUP3 DUP8 ADD PUSH2 0x36EE JUMP JUMPDEST SWAP3 POP POP PUSH1 0x40 PUSH2 0x392E DUP7 DUP3 DUP8 ADD PUSH2 0x3639 JUMP JUMPDEST SWAP2 POP POP SWAP3 POP SWAP3 POP SWAP3 JUMP JUMPDEST PUSH1 0x0 PUSH1 0x20 DUP3 DUP5 SUB SLT ISZERO PUSH2 0x394E JUMPI PUSH2 0x394D PUSH2 0x34A1 JUMP JUMPDEST JUMPDEST PUSH1 0x0 PUSH2 0x395C DUP5 DUP3 DUP6 ADD PUSH2 0x36EE JUMP JUMPDEST SWAP2 POP POP SWAP3 SWAP2 POP POP JUMP JUMPDEST PUSH1 0x0 DUP1 REVERT JUMPDEST PUSH1 0x0 DUP1 REVERT JUMPDEST PUSH32 0x4E487B7100000000000000000000000000000000000000000000000000000000 PUSH1 0x0 MSTORE PUSH1 0x41 PUSH1 0x4 MSTORE PUSH1 0x24 PUSH1 0x0 REVERT JUMPDEST PUSH2 0x39A7 DUP3 PUSH2 0x35AC JUMP JUMPDEST DUP2 ADD DUP2 DUP2 LT PUSH8 0xFFFFFFFFFFFFFFFF DUP3 GT OR ISZERO PUSH2 0x39C6 JUMPI PUSH2 0x39C5 PUSH2 0x396F JUMP JUMPDEST JUMPDEST DUP1 PUSH1 0x40 MSTORE POP POP POP JUMP JUMPDEST PUSH1 0x0 PUSH2 0x39D9 PUSH2 0x3497 JUMP JUMPDEST SWAP1 POP PUSH2 0x39E5 DUP3 DUP3 PUSH2 0x399E JUMP JUMPDEST SWAP2 SWAP1 POP JUMP JUMPDEST PUSH1 0x0 PUSH8 0xFFFFFFFFFFFFFFFF DUP3 GT ISZERO PUSH2 0x3A05 JUMPI PUSH2 0x3A04 PUSH2 0x396F JUMP JUMPDEST JUMPDEST PUSH2 0x3A0E DUP3 PUSH2 0x35AC JUMP JUMPDEST SWAP1 POP PUSH1 0x20 DUP2 ADD SWAP1 POP SWAP2 SWAP1 POP JUMP JUMPDEST DUP3 DUP2 DUP4 CALLDATACOPY PUSH1 0x0 DUP4 DUP4 ADD MSTORE POP POP POP JUMP JUMPDEST PUSH1 0x0 PUSH2 0x3A3D PUSH2 0x3A38 DUP5 PUSH2 0x39EA JUMP JUMPDEST PUSH2 0x39CF JUMP JUMPDEST SWAP1 POP DUP3 DUP2 MSTORE PUSH1 0x20 DUP2 ADD DUP5 DUP5 DUP5 ADD GT ISZERO PUSH2 0x3A59 JUMPI PUSH2 0x3A58 PUSH2 0x396A JUMP JUMPDEST JUMPDEST PUSH2 0x3A64 DUP5 DUP3 DUP6 PUSH2 0x3A1B JUMP JUMPDEST POP SWAP4 SWAP3 POP POP POP JUMP JUMPDEST PUSH1 0x0 DUP3 PUSH1 0x1F DUP4 ADD SLT PUSH2 0x3A81 JUMPI PUSH2 0x3A80 PUSH2 0x3965 JUMP JUMPDEST JUMPDEST DUP2 CALLDATALOAD PUSH2 0x3A91 DUP5 DUP3 PUSH1 0x20 DUP7 ADD PUSH2 0x3A2A JUMP JUMPDEST SWAP2 POP POP SWAP3 SWAP2 POP POP JUMP JUMPDEST PUSH1 0x0 DUP1 PUSH1 0x40 DUP4 DUP6 SUB SLT ISZERO PUSH2 0x3AB1 JUMPI PUSH2 0x3AB0 PUSH2 0x34A1 JUMP JUMPDEST JUMPDEST PUSH1 0x0 DUP4 ADD CALLDATALOAD PUSH8 0xFFFFFFFFFFFFFFFF DUP2 GT ISZERO PUSH2 0x3ACF JUMPI PUSH2 0x3ACE PUSH2 0x34A6 JUMP JUMPDEST JUMPDEST PUSH2 0x3ADB DUP6 DUP3 DUP7 ADD PUSH2 0x3A6C JUMP JUMPDEST SWAP3 POP POP PUSH1 0x20 PUSH2 0x3AEC DUP6 DUP3 DUP7 ADD PUSH2 0x3639 JUMP JUMPDEST SWAP2 POP POP SWAP3 POP SWAP3 SWAP1 POP JUMP JUMPDEST PUSH2 0x3AFF DUP2 PUSH2 0x37A8 JUMP JUMPDEST DUP3 MSTORE POP POP JUMP JUMPDEST PUSH1 0x0 PUSH1 0x20 DUP3 ADD SWAP1 POP PUSH2 0x3B1A PUSH1 0x0 DUP4 ADD DUP5 PUSH2 0x3AF6 JUMP JUMPDEST SWAP3 SWAP2 POP POP JUMP JUMPDEST PUSH2 0x3B29 DUP2 PUSH2 0x3530 JUMP JUMPDEST DUP2 EQ PUSH2 0x3B34 JUMPI PUSH1 0x0 DUP1 REVERT JUMPDEST POP JUMP JUMPDEST PUSH1 0x0 DUP2 CALLDATALOAD SWAP1 POP PUSH2 0x3B46 DUP2 PUSH2 0x3B20 JUMP JUMPDEST SWAP3 SWAP2 POP POP JUMP JUMPDEST PUSH1 0x0 DUP1 PUSH1 0x40 DUP4 DUP6 SUB SLT ISZERO PUSH2 0x3B63 JUMPI PUSH2 0x3B62 PUSH2 0x34A1 JUMP JUMPDEST JUMPDEST PUSH1 0x0 PUSH2 0x3B71 DUP6 DUP3 DUP7 ADD PUSH2 0x36EE JUMP JUMPDEST SWAP3 POP POP PUSH1 0x20 PUSH2 0x3B82 DUP6 DUP3 DUP7 ADD PUSH2 0x3B37 JUMP JUMPDEST SWAP2 POP POP SWAP3 POP SWAP3 SWAP1 POP JUMP JUMPDEST PUSH1 0xA0 DUP3 ADD PUSH1 0x0 DUP3 ADD MLOAD PUSH2 0x3BA2 PUSH1 0x0 DUP6 ADD DUP3 PUSH2 0x3799 JUMP JUMPDEST POP PUSH1 0x20 DUP3 ADD MLOAD PUSH2 0x3BB5 PUSH1 0x20 DUP6 ADD DUP3 PUSH2 0x37BA JUMP JUMPDEST POP PUSH1 0x40 DUP3 ADD MLOAD PUSH2 0x3BC8 PUSH1 0x40 DUP6 ADD DUP3 PUSH2 0x37BA JUMP JUMPDEST POP PUSH1 0x60 DUP3 ADD MLOAD PUSH2 0x3BDB PUSH1 0x60 DUP6 ADD DUP3 PUSH2 0x3799 JUMP JUMPDEST POP PUSH1 0x80 DUP3 ADD MLOAD PUSH2 0x3BEE PUSH1 0x80 DUP6 ADD DUP3 PUSH2 0x37C9 JUMP JUMPDEST POP POP POP POP JUMP JUMPDEST PUSH1 0x0 PUSH1 0xA0 DUP3 ADD SWAP1 POP PUSH2 0x3C09 PUSH1 0x0 DUP4 ADD DUP5 PUSH2 0x3B8C JUMP JUMPDEST SWAP3 SWAP2 POP POP JUMP JUMPDEST PUSH1 0x0 PUSH8 0xFFFFFFFFFFFFFFFF DUP3 GT ISZERO PUSH2 0x3C2A JUMPI PUSH2 0x3C29 PUSH2 0x396F JUMP JUMPDEST JUMPDEST PUSH2 0x3C33 DUP3 PUSH2 0x35AC JUMP JUMPDEST SWAP1 POP PUSH1 0x20 DUP2 ADD SWAP1 POP SWAP2 SWAP1 POP JUMP JUMPDEST PUSH1 0x0 PUSH2 0x3C53 PUSH2 0x3C4E DUP5 PUSH2 0x3C0F JUMP JUMPDEST PUSH2 0x39CF JUMP JUMPDEST SWAP1 POP DUP3 DUP2 MSTORE PUSH1 0x20 DUP2 ADD DUP5 DUP5 DUP5 ADD GT ISZERO PUSH2 0x3C6F JUMPI PUSH2 0x3C6E PUSH2 0x396A JUMP JUMPDEST JUMPDEST PUSH2 0x3C7A DUP5 DUP3 DUP6 PUSH2 0x3A1B JUMP JUMPDEST POP SWAP4 SWAP3 POP POP POP JUMP JUMPDEST PUSH1 0x0 DUP3 PUSH1 0x1F DUP4 ADD SLT PUSH2 0x3C97 JUMPI PUSH2 0x3C96 PUSH2 0x3965 JUMP JUMPDEST JUMPDEST DUP2 CALLDATALOAD PUSH2 0x3CA7 DUP5 DUP3 PUSH1 0x20 DUP7 ADD PUSH2 0x3C40 JUMP JUMPDEST SWAP2 POP POP SWAP3 SWAP2 POP POP JUMP JUMPDEST PUSH1 0x0 DUP1 PUSH1 0x0 DUP1 PUSH1 0x80 DUP6 DUP8 SUB SLT ISZERO PUSH2 0x3CCA JUMPI PUSH2 0x3CC9 PUSH2 0x34A1 JUMP JUMPDEST JUMPDEST PUSH1 0x0 PUSH2 0x3CD8 DUP8 DUP3 DUP9 ADD PUSH2 0x36EE JUMP JUMPDEST SWAP5 POP POP PUSH1 0x20 PUSH2 0x3CE9 DUP8 DUP3 DUP9 ADD PUSH2 0x36EE JUMP JUMPDEST SWAP4 POP POP PUSH1 0x40 PUSH2 0x3CFA DUP8 DUP3 DUP9 ADD PUSH2 0x3639 JUMP JUMPDEST SWAP3 POP POP PUSH1 0x60 DUP6 ADD CALLDATALOAD PUSH8 0xFFFFFFFFFFFFFFFF DUP2 GT ISZERO PUSH2 0x3D1B JUMPI PUSH2 0x3D1A PUSH2 0x34A6 JUMP JUMPDEST JUMPDEST PUSH2 0x3D27 DUP8 DUP3 DUP9 ADD PUSH2 0x3C82 JUMP JUMPDEST SWAP2 POP POP SWAP3 SWAP6 SWAP2 SWAP5 POP SWAP3 POP JUMP JUMPDEST PUSH1 0x0 DUP1 PUSH1 0x40 DUP4 DUP6 SUB SLT ISZERO PUSH2 0x3D4A JUMPI PUSH2 0x3D49 PUSH2 0x34A1 JUMP JUMPDEST JUMPDEST PUSH1 0x0 PUSH2 0x3D58 DUP6 DUP3 DUP7 ADD PUSH2 0x3639 JUMP JUMPDEST SWAP3 POP POP PUSH1 0x20 PUSH2 0x3D69 DUP6 DUP3 DUP7 ADD PUSH2 0x3639 JUMP JUMPDEST SWAP2 POP POP SWAP3 POP SWAP3 SWAP1 POP JUMP JUMPDEST PUSH1 0x0 DUP1 PUSH1 0x40 DUP4 DUP6 SUB SLT ISZERO PUSH2 0x3D8A JUMPI PUSH2 0x3D89 PUSH2 0x34A1 JUMP JUMPDEST JUMPDEST PUSH1 0x0 PUSH2 0x3D98 DUP6 DUP3 DUP7 ADD PUSH2 0x36EE JUMP JUMPDEST SWAP3 POP POP PUSH1 0x20 PUSH2 0x3DA9 DUP6 DUP3 DUP7 ADD PUSH2 0x36EE JUMP JUMPDEST SWAP2 POP POP SWAP3 POP SWAP3 SWAP1 POP JUMP JUMPDEST PUSH32 0x4E487B7100000000000000000000000000000000000000000000000000000000 PUSH1 0x0 MSTORE PUSH1 0x11 PUSH1 0x4 MSTORE PUSH1 0x24 PUSH1 0x0 REVERT JUMPDEST PUSH1 0x0 PUSH2 0x3DED DUP3 PUSH2 0x3618 JUMP JUMPDEST SWAP2 POP PUSH32 0xFFFFFFFFFFFFFFFFFFFFFFFFFFFFFFFFFFFFFFFFFFFFFFFFFFFFFFFFFFFFFFFF DUP3 SUB PUSH2 0x3E1F JUMPI PUSH2 0x3E1E PUSH2 0x3DB3 JUMP JUMPDEST JUMPDEST PUSH1 0x1 DUP3 ADD SWAP1 POP SWAP2 SWAP1 POP JUMP JUMPDEST PUSH32 0x4E487B7100000000000000000000000000000000000000000000000000000000 PUSH1 0x0 MSTORE PUSH1 0x22 PUSH1 0x4 MSTORE PUSH1 0x24 PUSH1 0x0 REVERT JUMPDEST PUSH1 0x0 PUSH1 0x2 DUP3 DIV SWAP1 POP PUSH1 0x1 DUP3 AND DUP1 PUSH2 0x3E71 JUMPI PUSH1 0x7F DUP3 AND SWAP2 POP JUMPDEST PUSH1 0x20 DUP3 LT DUP2 SUB PUSH2 0x3E84 JUMPI PUSH2 0x3E83 PUSH2 0x3E2A JUMP JUMPDEST JUMPDEST POP SWAP2 SWAP1 POP JUMP JUMPDEST PUSH32 0x4552433732313A20617070726F76656420717565727920666F72206E6F6E6578 PUSH1 0x0 DUP3 ADD MSTORE PUSH32 0x697374656E7420746F6B656E0000000000000000000000000000000000000000 PUSH1 0x20 DUP3 ADD MSTORE POP JUMP JUMPDEST PUSH1 0x0 PUSH2 0x3EE6 PUSH1 0x2C DUP4 PUSH2 0x3571 JUMP JUMPDEST SWAP2 POP PUSH2 0x3EF1 DUP3 PUSH2 0x3E8A JUMP JUMPDEST PUSH1 0x40 DUP3 ADD SWAP1 POP SWAP2 SWAP1 POP JUMP JUMPDEST PUSH1 0x0 PUSH1 0x20 DUP3 ADD SWAP1 POP DUP2 DUP2 SUB PUSH1 0x0 DUP4 ADD MSTORE PUSH2 0x3F15 DUP2 PUSH2 0x3ED9 JUMP JUMPDEST SWAP1 POP SWAP2 SWAP1 POP JUMP JUMPDEST PUSH32 0x4552433732313A20617070726F76616C20746F2063757272656E74206F776E65 PUSH1 0x0 DUP3 ADD MSTORE PUSH32 0x7200000000000000000000000000000000000000000000000000000000000000 PUSH1 0x20 DUP3 ADD MSTORE POP JUMP JUMPDEST PUSH1 0x0 PUSH2 0x3F78 PUSH1 0x21 DUP4 PUSH2 0x3571 JUMP JUMPDEST SWAP2 POP PUSH2 0x3F83 DUP3 PUSH2 0x3F1C JUMP JUMPDEST PUSH1 0x40 DUP3 ADD SWAP1 POP SWAP2 SWAP1 POP JUMP JUMPDEST PUSH1 0x0 PUSH1 0x20 DUP3 ADD SWAP1 POP DUP2 DUP2 SUB PUSH1 0x0 DUP4 ADD MSTORE PUSH2 0x3FA7 DUP2 PUSH2 0x3F6B JUMP JUMPDEST SWAP1 POP SWAP2 SWAP1 POP JUMP JUMPDEST PUSH32 0x4552433732313A20617070726F76652063616C6C6572206973206E6F74206F77 PUSH1 0x0 DUP3 ADD MSTORE PUSH32 0x6E6572206E6F7220617070726F76656420666F7220616C6C0000000000000000 PUSH1 0x20 DUP3 ADD MSTORE POP JUMP JUMPDEST PUSH1 0x0 PUSH2 0x400A PUSH1 0x38 DUP4 PUSH2 0x3571 JUMP JUMPDEST SWAP2 POP PUSH2 0x4015 DUP3 PUSH2 0x3FAE JUMP JUMPDEST PUSH1 0x40 DUP3 ADD SWAP1 POP SWAP2 SWAP1 POP JUMP JUMPDEST PUSH1 0x0 PUSH1 0x20 DUP3 ADD SWAP1 POP DUP2 DUP2 SUB PUSH1 0x0 DUP4 ADD MSTORE PUSH2 0x4039 DUP2 PUSH2 0x3FFD JUMP JUMPDEST SWAP1 POP SWAP2 SWAP1 POP JUMP JUMPDEST PUSH1 0x0 PUSH2 0x404B DUP3 PUSH2 0x3618 JUMP JUMPDEST SWAP2 POP PUSH2 0x4056 DUP4 PUSH2 0x3618 JUMP JUMPDEST SWAP3 POP DUP3 DUP3 SUB SWAP1 POP DUP2 DUP2 GT ISZERO PUSH2 0x406E JUMPI PUSH2 0x406D PUSH2 0x3DB3 JUMP JUMPDEST JUMPDEST SWAP3 SWAP2 POP POP JUMP JUMPDEST PUSH32 0x4E487B7100000000000000000000000000000000000000000000000000000000 PUSH1 0x0 MSTORE PUSH1 0x32 PUSH1 0x4 MSTORE PUSH1 0x24 PUSH1 0x0 REVERT JUMPDEST PUSH1 0x0 PUSH2 0x40AE DUP3 PUSH2 0x3618 JUMP JUMPDEST SWAP2 POP PUSH2 0x40B9 DUP4 PUSH2 0x3618 JUMP JUMPDEST SWAP3 POP DUP3 DUP3 ADD SWAP1 POP DUP1 DUP3 GT ISZERO PUSH2 0x40D1 JUMPI PUSH2 0x40D0 PUSH2 0x3DB3 JUMP JUMPDEST JUMPDEST SWAP3 SWAP2 POP POP JUMP JUMPDEST PUSH32 0x4552433732313A207472616E736665722063616C6C6572206973206E6F74206F PUSH1 0x0 DUP3 ADD MSTORE PUSH32 0x776E6572206E6F7220617070726F766564000000000000000000000000000000 PUSH1 0x20 DUP3 ADD MSTORE POP JUMP JUMPDEST PUSH1 0x0 PUSH2 0x4133 PUSH1 0x31 DUP4 PUSH2 0x3571 JUMP JUMPDEST SWAP2 POP PUSH2 0x413E DUP3 PUSH2 0x40D7 JUMP JUMPDEST PUSH1 0x40 DUP3 ADD SWAP1 POP SWAP2 SWAP1 POP JUMP JUMPDEST PUSH1 0x0 PUSH1 0x20 DUP3 ADD SWAP1 POP DUP2 DUP2 SUB PUSH1 0x0 DUP4 ADD MSTORE PUSH2 0x4162 DUP2 PUSH2 0x4126 JUMP JUMPDEST SWAP1 POP SWAP2 SWAP1 POP JUMP JUMPDEST PUSH32 0x546F6F20736F6F6E20746F206175746F6D6174652061756374696F6E73000000 PUSH1 0x0 DUP3 ADD MSTORE POP JUMP JUMPDEST PUSH1 0x0 PUSH2 0x419F PUSH1 0x1D DUP4 PUSH2 0x3571 JUMP JUMPDEST SWAP2 POP PUSH2 0x41AA DUP3 PUSH2 0x4169 JUMP JUMPDEST PUSH1 0x20 DUP3 ADD SWAP1 POP SWAP2 SWAP1 POP JUMP JUMPDEST PUSH1 0x0 PUSH1 0x20 DUP3 ADD SWAP1 POP DUP2 DUP2 SUB PUSH1 0x0 DUP4 ADD MSTORE PUSH2 0x41CE DUP2 PUSH2 0x4192 JUMP JUMPDEST SWAP1 POP SWAP2 SWAP1 POP JUMP JUMPDEST PUSH32 0x4552433732313A206F776E657220717565727920666F72206E6F6E6578697374 PUSH1 0x0 DUP3 ADD MSTORE PUSH32 0x656E7420746F6B656E0000000000000000000000000000000000000000000000 PUSH1 0x20 DUP3 ADD MSTORE POP JUMP JUMPDEST PUSH1 0x0 PUSH2 0x4231 PUSH1 0x29 DUP4 PUSH2 0x3571 JUMP JUMPDEST SWAP2 POP PUSH2 0x423C DUP3 PUSH2 0x41D5 JUMP JUMPDEST PUSH1 0x40 DUP3 ADD SWAP1 POP SWAP2 SWAP1 POP JUMP JUMPDEST PUSH1 0x0 PUSH1 0x20 DUP3 ADD SWAP1 POP DUP2 DUP2 SUB PUSH1 0x0 DUP4 ADD MSTORE PUSH2 0x4260 DUP2 PUSH2 0x4224 JUMP JUMPDEST SWAP1 POP SWAP2 SWAP1 POP JUMP JUMPDEST PUSH32 0x4552433732313A2062616C616E636520717565727920666F7220746865207A65 PUSH1 0x0 DUP3 ADD MSTORE PUSH32 0x726F206164647265737300000000000000000000000000000000000000000000 PUSH1 0x20 DUP3 ADD MSTORE POP JUMP JUMPDEST PUSH1 0x0 PUSH2 0x42C3 PUSH1 0x2A DUP4 PUSH2 0x3571 JUMP JUMPDEST SWAP2 POP PUSH2 0x42CE DUP3 PUSH2 0x4267 JUMP JUMPDEST PUSH1 0x40 DUP3 ADD SWAP1 POP SWAP2 SWAP1 POP JUMP JUMPDEST PUSH1 0x0 PUSH1 0x20 DUP3 ADD SWAP1 POP DUP2 DUP2 SUB PUSH1 0x0 DUP4 ADD MSTORE PUSH2 0x42F2 DUP2 PUSH2 0x42B6 JUMP JUMPDEST SWAP1 POP SWAP2 SWAP1 POP JUMP JUMPDEST PUSH32 0x41756374696F6E2068617320656E646564000000000000000000000000000000 PUSH1 0x0 DUP3 ADD MSTORE POP JUMP JUMPDEST PUSH1 0x0 PUSH2 0x432F PUSH1 0x11 DUP4 PUSH2 0x3571 JUMP JUMPDEST SWAP2 POP PUSH2 0x433A DUP3 PUSH2 0x42F9 JUMP JUMPDEST PUSH1 0x20 DUP3 ADD SWAP1 POP SWAP2 SWAP1 POP JUMP JUMPDEST PUSH1 0x0 PUSH1 0x20 DUP3 ADD SWAP1 POP DUP2 DUP2 SUB PUSH1 0x0 DUP4 ADD MSTORE PUSH2 0x435E DUP2 PUSH2 0x4322 JUMP JUMPDEST SWAP1 POP SWAP2 SWAP1 POP JUMP JUMPDEST PUSH32 0x426964206D75737420626520686967686572207468616E207468652063757272 PUSH1 0x0 DUP3 ADD MSTORE PUSH32 0x656E742068696768657374206269640000000000000000000000000000000000 PUSH1 0x20 DUP3 ADD MSTORE POP JUMP JUMPDEST PUSH1 0x0 PUSH2 0x43C1 PUSH1 0x2F DUP4 PUSH2 0x3571 JUMP JUMPDEST SWAP2 POP PUSH2 0x43CC DUP3 PUSH2 0x4365 JUMP JUMPDEST PUSH1 0x40 DUP3 ADD SWAP1 POP SWAP2 SWAP1 POP JUMP JUMPDEST PUSH1 0x0 PUSH1 0x20 DUP3 ADD SWAP1 POP DUP2 DUP2 SUB PUSH1 0x0 DUP4 ADD MSTORE PUSH2 0x43F0 DUP2 PUSH2 0x43B4 JUMP JUMPDEST SWAP1 POP SWAP2 SWAP1 POP JUMP JUMPDEST PUSH1 0x0 PUSH1 0x40 DUP3 ADD SWAP1 POP PUSH2 0x440C PUSH1 0x0 DUP4 ADD DUP6 PUSH2 0x36AD JUMP JUMPDEST PUSH2 0x4419 PUSH1 0x20 DUP4 ADD DUP5 PUSH2 0x3743 JUMP JUMPDEST SWAP4 SWAP3 POP POP POP JUMP JUMPDEST PUSH32 0x4F6E6C79206D61726B6574706C616365206F776E65722063616E207570646174 PUSH1 0x0 DUP3 ADD MSTORE PUSH32 0x65206C697374696E672070726963652E00000000000000000000000000000000 PUSH1 0x20 DUP3 ADD MSTORE POP JUMP JUMPDEST PUSH1 0x0 PUSH2 0x447C PUSH1 0x30 DUP4 PUSH2 0x3571 JUMP JUMPDEST SWAP2 POP PUSH2 0x4487 DUP3 PUSH2 0x4420 JUMP JUMPDEST PUSH1 0x40 DUP3 ADD SWAP1 POP SWAP2 SWAP1 POP JUMP JUMPDEST PUSH1 0x0 PUSH1 0x20 DUP3 ADD SWAP1 POP DUP2 DUP2 SUB PUSH1 0x0 DUP4 ADD MSTORE PUSH2 0x44AB DUP2 PUSH2 0x446F JUMP JUMPDEST SWAP1 POP SWAP2 SWAP1 POP JUMP JUMPDEST PUSH32 0x41756374696F6E2068617320616C726561647920656E64656400000000000000 PUSH1 0x0 DUP3 ADD MSTORE POP JUMP JUMPDEST PUSH1 0x0 PUSH2 0x44E8 PUSH1 0x19 DUP4 PUSH2 0x3571 JUMP JUMPDEST SWAP2 POP PUSH2 0x44F3 DUP3 PUSH2 0x44B2 JUMP JUMPDEST PUSH1 0x20 DUP3 ADD SWAP1 POP SWAP2 SWAP1 POP JUMP JUMPDEST PUSH1 0x0 PUSH1 0x20 DUP3 ADD SWAP1 POP DUP2 DUP2 SUB PUSH1 0x0 DUP4 ADD MSTORE PUSH2 0x4517 DUP2 PUSH2 0x44DB JUMP JUMPDEST SWAP1 POP SWAP2 SWAP1 POP JUMP JUMPDEST PUSH32 0x41756374696F6E20686173206E6F7420656E6465642079657400000000000000 PUSH1 0x0 DUP3 ADD MSTORE POP JUMP JUMPDEST PUSH1 0x0 PUSH2 0x4554 PUSH1 0x19 DUP4 PUSH2 0x3571 JUMP JUMPDEST SWAP2 POP PUSH2 0x455F DUP3 PUSH2 0x451E JUMP JUMPDEST PUSH1 0x20 DUP3 ADD SWAP1 POP SWAP2 SWAP1 POP JUMP JUMPDEST PUSH1 0x0 PUSH1 0x20 DUP3 ADD SWAP1 POP DUP2 DUP2 SUB PUSH1 0x0 DUP4 ADD MSTORE PUSH2 0x4583 DUP2 PUSH2 0x4547 JUMP JUMPDEST SWAP1 POP SWAP2 SWAP1 POP JUMP JUMPDEST PUSH1 0x0 DUP2 SWAP1 POP SWAP2 SWAP1 POP JUMP JUMPDEST PUSH1 0x0 PUSH2 0x45AF PUSH2 0x45AA PUSH2 0x45A5 DUP5 PUSH2 0x367B JUMP JUMPDEST PUSH2 0x458A JUMP JUMPDEST PUSH2 0x367B JUMP JUMPDEST SWAP1 POP SWAP2 SWAP1 POP JUMP JUMPDEST PUSH1 0x0 PUSH2 0x45C1 DUP3 PUSH2 0x4594 JUMP JUMPDEST SWAP1 POP SWAP2 SWAP1 POP JUMP JUMPDEST PUSH1 0x0 PUSH2 0x45D3 DUP3 PUSH2 0x45B6 JUMP JUMPDEST SWAP1 POP SWAP2 SWAP1 POP JUMP JUMPDEST PUSH2 0x45E3 DUP2 PUSH2 0x45C8 JUMP JUMPDEST DUP3 MSTORE POP POP JUMP JUMPDEST PUSH1 0x0 PUSH1 0x40 DUP3 ADD SWAP1 POP PUSH2 0x45FE PUSH1 0x0 DUP4 ADD DUP6 PUSH2 0x45DA JUMP JUMPDEST PUSH2 0x460B PUSH1 0x20 DUP4 ADD DUP5 PUSH2 0x3743 JUMP JUMPDEST SWAP4 SWAP3 POP POP POP JUMP JUMPDEST PUSH32 0x45524337323155524953746F726167653A2055524920717565727920666F7220 PUSH1 0x0 DUP3 ADD MSTORE PUSH32 0x6E6F6E6578697374656E7420746F6B656E000000000000000000000000000000 PUSH1 0x20 DUP3 ADD MSTORE POP JUMP JUMPDEST PUSH1 0x0 PUSH2 0x466E PUSH1 0x31 DUP4 PUSH2 0x3571 JUMP JUMPDEST SWAP2 POP PUSH2 0x4679 DUP3 PUSH2 0x4612 JUMP JUMPDEST PUSH1 0x40 DUP3 ADD SWAP1 POP SWAP2 SWAP1 POP JUMP JUMPDEST PUSH1 0x0 PUSH1 0x20 DUP3 ADD SWAP1 POP DUP2 DUP2 SUB PUSH1 0x0 DUP4 ADD MSTORE PUSH2 0x469D DUP2 PUSH2 0x4661 JUMP JUMPDEST SWAP1 POP SWAP2 SWAP1 POP JUMP JUMPDEST PUSH1 0x0 DUP2 SWAP1 POP SWAP3 SWAP2 POP POP JUMP JUMPDEST PUSH1 0x0 PUSH2 0x46BA DUP3 PUSH2 0x3566 JUMP JUMPDEST PUSH2 0x46C4 DUP2 DUP6 PUSH2 0x46A4 JUMP JUMPDEST SWAP4 POP PUSH2 0x46D4 DUP2 DUP6 PUSH1 0x20 DUP7 ADD PUSH2 0x3582 JUMP JUMPDEST DUP1 DUP5 ADD SWAP2 POP POP SWAP3 SWAP2 POP POP JUMP JUMPDEST PUSH1 0x0 PUSH2 0x46EC DUP3 DUP6 PUSH2 0x46AF JUMP JUMPDEST SWAP2 POP PUSH2 0x46F8 DUP3 DUP5 PUSH2 0x46AF JUMP JUMPDEST SWAP2 POP DUP2 SWAP1 POP SWAP4 SWAP3 POP POP POP JUMP JUMPDEST PUSH32 0x4F6E6C79206974656D206F776E65722063616E20706572666F726D2074686973 PUSH1 0x0 DUP3 ADD MSTORE PUSH32 0x206F7065726174696F6E00000000000000000000000000000000000000000000 PUSH1 0x20 DUP3 ADD MSTORE POP JUMP JUMPDEST PUSH1 0x0 PUSH2 0x4760 PUSH1 0x2A DUP4 PUSH2 0x3571 JUMP JUMPDEST SWAP2 POP PUSH2 0x476B DUP3 PUSH2 0x4704 JUMP JUMPDEST PUSH1 0x40 DUP3 ADD SWAP1 POP SWAP2 SWAP1 POP JUMP JUMPDEST PUSH1 0x0 PUSH1 0x20 DUP3 ADD SWAP1 POP DUP2 DUP2 SUB PUSH1 0x0 DUP4 ADD MSTORE PUSH2 0x478F DUP2 PUSH2 0x4753 JUMP JUMPDEST SWAP1 POP SWAP2 SWAP1 POP JUMP JUMPDEST PUSH32 0x5072696365206D75737420626520657175616C20746F206C697374696E672070 PUSH1 0x0 DUP3 ADD MSTORE PUSH32 0x7269636500000000000000000000000000000000000000000000000000000000 PUSH1 0x20 DUP3 ADD MSTORE POP JUMP JUMPDEST PUSH1 0x0 PUSH2 0x47F2 PUSH1 0x24 DUP4 PUSH2 0x3571 JUMP JUMPDEST SWAP2 POP PUSH2 0x47FD DUP3 PUSH2 0x4796 JUMP JUMPDEST PUSH1 0x40 DUP3 ADD SWAP1 POP SWAP2 SWAP1 POP JUMP JUMPDEST PUSH1 0x0 PUSH1 0x20 DUP3 ADD SWAP1 POP DUP2 DUP2 SUB PUSH1 0x0 DUP4 ADD MSTORE PUSH2 0x4821 DUP2 PUSH2 0x47E5 JUMP JUMPDEST SWAP1 POP SWAP2 SWAP1 POP JUMP JUMPDEST PUSH1 0x0 PUSH2 0x4833 DUP3 PUSH2 0x3618 JUMP JUMPDEST SWAP2 POP PUSH1 0x0 DUP3 SUB PUSH2 0x4846 JUMPI PUSH2 0x4845 PUSH2 0x3DB3 JUMP JUMPDEST JUMPDEST PUSH1 0x1 DUP3 SUB SWAP1 POP SWAP2 SWAP1 POP JUMP JUMPDEST PUSH32 0x4552433732313A206F70657261746F7220717565727920666F72206E6F6E6578 PUSH1 0x0 DUP3 ADD MSTORE PUSH32 0x697374656E7420746F6B656E0000000000000000000000000000000000000000 PUSH1 0x20 DUP3 ADD MSTORE POP JUMP JUMPDEST PUSH1 0x0 PUSH2 0x48AD PUSH1 0x2C DUP4 PUSH2 0x3571 JUMP JUMPDEST SWAP2 POP PUSH2 0x48B8 DUP3 PUSH2 0x4851 JUMP JUMPDEST PUSH1 0x40 DUP3 ADD SWAP1 POP SWAP2 SWAP1 POP JUMP JUMPDEST PUSH1 0x0 PUSH1 0x20 DUP3 ADD SWAP1 POP DUP2 DUP2 SUB PUSH1 0x0 DUP4 ADD MSTORE PUSH2 0x48DC DUP2 PUSH2 0x48A0 JUMP JUMPDEST SWAP1 POP SWAP2 SWAP1 POP JUMP JUMPDEST PUSH32 0x4552433732313A207472616E736665722066726F6D20696E636F727265637420 PUSH1 0x0 DUP3 ADD MSTORE PUSH32 0x6F776E6572000000000000000000000000000000000000000000000000000000 PUSH1 0x20 DUP3 ADD MSTORE POP JUMP JUMPDEST PUSH1 0x0 PUSH2 0x493F PUSH1 0x25 DUP4 PUSH2 0x3571 JUMP JUMPDEST SWAP2 POP PUSH2 0x494A DUP3 PUSH2 0x48E3 JUMP JUMPDEST PUSH1 0x40 DUP3 ADD SWAP1 POP SWAP2 SWAP1 POP JUMP JUMPDEST PUSH1 0x0 PUSH1 0x20 DUP3 ADD SWAP1 POP DUP2 DUP2 SUB PUSH1 0x0 DUP4 ADD MSTORE PUSH2 0x496E DUP2 PUSH2 0x4932 JUMP JUMPDEST SWAP1 POP SWAP2 SWAP1 POP JUMP JUMPDEST PUSH32 0x4552433732313A207472616E7366657220746F20746865207A65726F20616464 PUSH1 0x0 DUP3 ADD MSTORE PUSH32 0x7265737300000000000000000000000000000000000000000000000000000000 PUSH1 0x20 DUP3 ADD MSTORE POP JUMP JUMPDEST PUSH1 0x0 PUSH2 0x49D1 PUSH1 0x24 DUP4 PUSH2 0x3571 JUMP JUMPDEST SWAP2 POP PUSH2 0x49DC DUP3 PUSH2 0x4975 JUMP JUMPDEST PUSH1 0x40 DUP3 ADD SWAP1 POP SWAP2 SWAP1 POP JUMP JUMPDEST PUSH1 0x0 PUSH1 0x20 DUP3 ADD SWAP1 POP DUP2 DUP2 SUB PUSH1 0x0 DUP4 ADD MSTORE PUSH2 0x4A00 DUP2 PUSH2 0x49C4 JUMP JUMPDEST SWAP1 POP SWAP2 SWAP1 POP JUMP JUMPDEST PUSH32 0x4552433732313A206D696E7420746F20746865207A65726F2061646472657373 PUSH1 0x0 DUP3 ADD MSTORE POP JUMP JUMPDEST PUSH1 0x0 PUSH2 0x4A3D PUSH1 0x20 DUP4 PUSH2 0x3571 JUMP JUMPDEST SWAP2 POP PUSH2 0x4A48 DUP3 PUSH2 0x4A07 JUMP JUMPDEST PUSH1 0x20 DUP3 ADD SWAP1 POP SWAP2 SWAP1 POP JUMP JUMPDEST PUSH1 0x0 PUSH1 0x20 DUP3 ADD SWAP1 POP DUP2 DUP2 SUB PUSH1 0x0 DUP4 ADD MSTORE PUSH2 0x4A6C DUP2 PUSH2 0x4A30 JUMP JUMPDEST SWAP1 POP SWAP2 SWAP1 POP JUMP JUMPDEST PUSH32 0x4552433732313A20746F6B656E20616C7265616479206D696E74656400000000 PUSH1 0x0 DUP3 ADD MSTORE POP JUMP JUMPDEST PUSH1 0x0 PUSH2 0x4AA9 PUSH1 0x1C DUP4 PUSH2 0x3571 JUMP JUMPDEST SWAP2 POP PUSH2 0x4AB4 DUP3 PUSH2 0x4A73 JUMP JUMPDEST PUSH1 0x20 DUP3 ADD SWAP1 POP SWAP2 SWAP1 POP JUMP JUMPDEST PUSH1 0x0 PUSH1 0x20 DUP3 ADD SWAP1 POP DUP2 DUP2 SUB PUSH1 0x0 DUP4 ADD MSTORE PUSH2 0x4AD8 DUP2 PUSH2 0x4A9C JUMP JUMPDEST SWAP1 POP SWAP2 SWAP1 POP JUMP JUMPDEST PUSH32 0x45524337323155524953746F726167653A2055524920736574206F66206E6F6E PUSH1 0x0 DUP3 ADD MSTORE PUSH32 0x6578697374656E7420746F6B656E000000000000000000000000000000000000 PUSH1 0x20 DUP3 ADD MSTORE POP JUMP JUMPDEST PUSH1 0x0 PUSH2 0x4B3B PUSH1 0x2E DUP4 PUSH2 0x3571 JUMP JUMPDEST SWAP2 POP PUSH2 0x4B46 DUP3 PUSH2 0x4ADF JUMP JUMPDEST PUSH1 0x40 DUP3 ADD SWAP1 POP SWAP2 SWAP1 POP JUMP JUMPDEST PUSH1 0x0 PUSH1 0x20 DUP3 ADD SWAP1 POP DUP2 DUP2 SUB PUSH1 0x0 DUP4 ADD MSTORE PUSH2 0x4B6A DUP2 PUSH2 0x4B2E JUMP JUMPDEST SWAP1 POP SWAP2 SWAP1 POP JUMP JUMPDEST PUSH1 0x0 DUP2 SWAP1 POP DUP2 PUSH1 0x0 MSTORE PUSH1 0x20 PUSH1 0x0 KECCAK256 SWAP1 POP SWAP2 SWAP1 POP JUMP JUMPDEST PUSH1 0x0 PUSH1 0x20 PUSH1 0x1F DUP4 ADD DIV SWAP1 POP SWAP2 SWAP1 POP JUMP JUMPDEST PUSH1 0x0 DUP3 DUP3 SHL SWAP1 POP SWAP3 SWAP2 POP POP JUMP JUMPDEST PUSH1 0x0 PUSH1 0x8 DUP4 MUL PUSH2 0x4BD3 PUSH32 0xFFFFFFFFFFFFFFFFFFFFFFFFFFFFFFFFFFFFFFFFFFFFFFFFFFFFFFFFFFFFFFFF DUP3 PUSH2 0x4B96 JUMP JUMPDEST PUSH2 0x4BDD DUP7 DUP4 PUSH2 0x4B96 JUMP JUMPDEST SWAP6 POP DUP1 NOT DUP5 AND SWAP4 POP DUP1 DUP7 AND DUP5 OR SWAP3 POP POP POP SWAP4 SWAP3 POP POP POP JUMP JUMPDEST PUSH1 0x0 PUSH2 0x4C10 PUSH2 0x4C0B PUSH2 0x4C06 DUP5 PUSH2 0x3618 JUMP JUMPDEST PUSH2 0x458A JUMP JUMPDEST PUSH2 0x3618 JUMP JUMPDEST SWAP1 POP SWAP2 SWAP1 POP JUMP JUMPDEST PUSH1 0x0 DUP2 SWAP1 POP SWAP2 SWAP1 POP JUMP JUMPDEST PUSH2 0x4C2A DUP4 PUSH2 0x4BF5 JUMP JUMPDEST PUSH2 0x4C3E PUSH2 0x4C36 DUP3 PUSH2 0x4C17 JUMP JUMPDEST DUP5 DUP5 SLOAD PUSH2 0x4BA3 JUMP JUMPDEST DUP3 SSTORE POP POP POP POP JUMP JUMPDEST PUSH1 0x0 SWAP1 JUMP JUMPDEST PUSH2 0x4C53 PUSH2 0x4C46 JUMP JUMPDEST PUSH2 0x4C5E DUP2 DUP5 DUP5 PUSH2 0x4C21 JUMP JUMPDEST POP POP POP JUMP JUMPDEST JUMPDEST DUP2 DUP2 LT ISZERO PUSH2 0x4C82 JUMPI PUSH2 0x4C77 PUSH1 0x0 DUP3 PUSH2 0x4C4B JUMP JUMPDEST PUSH1 0x1 DUP2 ADD SWAP1 POP PUSH2 0x4C64 JUMP JUMPDEST POP POP JUMP JUMPDEST PUSH1 0x1F DUP3 GT ISZERO PUSH2 0x4CC7 JUMPI PUSH2 0x4C98 DUP2 PUSH2 0x4B71 JUMP JUMPDEST PUSH2 0x4CA1 DUP5 PUSH2 0x4B86 JUMP JUMPDEST DUP2 ADD PUSH1 0x20 DUP6 LT ISZERO PUSH2 0x4CB0 JUMPI DUP2 SWAP1 POP JUMPDEST PUSH2 0x4CC4 PUSH2 0x4CBC DUP6 PUSH2 0x4B86 JUMP JUMPDEST DUP4 ADD DUP3 PUSH2 0x4C63 JUMP JUMPDEST POP POP JUMPDEST POP POP POP JUMP JUMPDEST PUSH1 0x0 DUP3 DUP3 SHR SWAP1 POP SWAP3 SWAP2 POP POP JUMP JUMPDEST PUSH1 0x0 PUSH2 0x4CEA PUSH1 0x0 NOT DUP5 PUSH1 0x8 MUL PUSH2 0x4CCC JUMP JUMPDEST NOT DUP1 DUP4 AND SWAP2 POP POP SWAP3 SWAP2 POP POP JUMP JUMPDEST PUSH1 0x0 PUSH2 0x4D03 DUP4 DUP4 PUSH2 0x4CD9 JUMP JUMPDEST SWAP2 POP DUP3 PUSH1 0x2 MUL DUP3 OR SWAP1 POP SWAP3 SWAP2 POP POP JUMP JUMPDEST PUSH2 0x4D1C DUP3 PUSH2 0x3566 JUMP JUMPDEST PUSH8 0xFFFFFFFFFFFFFFFF DUP2 GT ISZERO PUSH2 0x4D35 JUMPI PUSH2 0x4D34 PUSH2 0x396F JUMP JUMPDEST JUMPDEST PUSH2 0x4D3F DUP3 SLOAD PUSH2 0x3E59 JUMP JUMPDEST PUSH2 0x4D4A DUP3 DUP3 DUP6 PUSH2 0x4C86 JUMP JUMPDEST PUSH1 0x0 PUSH1 0x20 SWAP1 POP PUSH1 0x1F DUP4 GT PUSH1 0x1 DUP2 EQ PUSH2 0x4D7D JUMPI PUSH1 0x0 DUP5 ISZERO PUSH2 0x4D6B JUMPI DUP3 DUP8 ADD MLOAD SWAP1 POP JUMPDEST PUSH2 0x4D75 DUP6 DUP3 PUSH2 0x4CF7 JUMP JUMPDEST DUP7 SSTORE POP PUSH2 0x4DDD JUMP JUMPDEST PUSH1 0x1F NOT DUP5 AND PUSH2 0x4D8B DUP7 PUSH2 0x4B71 JUMP JUMPDEST PUSH1 0x0 JUMPDEST DUP3 DUP2 LT ISZERO PUSH2 0x4DB3 JUMPI DUP5 DUP10 ADD MLOAD DUP3 SSTORE PUSH1 0x1 DUP3 ADD SWAP2 POP PUSH1 0x20 DUP6 ADD SWAP5 POP PUSH1 0x20 DUP2 ADD SWAP1 POP PUSH2 0x4D8E JUMP JUMPDEST DUP7 DUP4 LT ISZERO PUSH2 0x4DD0 JUMPI DUP5 DUP10 ADD MLOAD PUSH2 0x4DCC PUSH1 0x1F DUP10 AND DUP3 PUSH2 0x4CD9 JUMP JUMPDEST DUP4 SSTORE POP JUMPDEST PUSH1 0x1 PUSH1 0x2 DUP9 MUL ADD DUP9 SSTORE POP POP POP JUMPDEST POP POP POP POP POP POP JUMP JUMPDEST PUSH32 0x5072696365206D757374206265206174206C6561737420312077656900000000 PUSH1 0x0 DUP3 ADD MSTORE POP JUMP JUMPDEST PUSH1 0x0 PUSH2 0x4E1B PUSH1 0x1C DUP4 PUSH2 0x3571 JUMP JUMPDEST SWAP2 POP PUSH2 0x4E26 DUP3 PUSH2 0x4DE5 JUMP JUMPDEST PUSH1 0x20 DUP3 ADD SWAP1 POP SWAP2 SWAP1 POP JUMP JUMPDEST PUSH1 0x0 PUSH1 0x20 DUP3 ADD SWAP1 POP DUP2 DUP2 SUB PUSH1 0x0 DUP4 ADD MSTORE PUSH2 0x4E4A DUP2 PUSH2 0x4E0E JUMP JUMPDEST SWAP1 POP SWAP2 SWAP1 POP JUMP JUMPDEST PUSH1 0x0 PUSH1 0x80 DUP3 ADD SWAP1 POP PUSH2 0x4E66 PUSH1 0x0 DUP4 ADD DUP8 PUSH2 0x36AD JUMP JUMPDEST PUSH2 0x4E73 PUSH1 0x20 DUP4 ADD DUP7 PUSH2 0x36AD JUMP JUMPDEST PUSH2 0x4E80 PUSH1 0x40 DUP4 ADD DUP6 PUSH2 0x3743 JUMP JUMPDEST PUSH2 0x4E8D PUSH1 0x60 DUP4 ADD DUP5 PUSH2 0x353C JUMP JUMPDEST SWAP6 SWAP5 POP POP POP POP POP JUMP JUMPDEST PUSH1 0x0 PUSH1 0x40 DUP3 ADD SWAP1 POP DUP2 DUP2 SUB PUSH1 0x0 DUP4 ADD MSTORE PUSH2 0x4EB0 DUP2 DUP6 PUSH2 0x35BD JUMP JUMPDEST SWAP1 POP PUSH2 0x4EBF PUSH1 0x20 DUP4 ADD DUP5 PUSH2 0x3743 JUMP JUMPDEST SWAP4 SWAP3 POP POP POP JUMP JUMPDEST PUSH32 0x4552433732313A20617070726F766520746F2063616C6C657200000000000000 PUSH1 0x0 DUP3 ADD MSTORE POP JUMP JUMPDEST PUSH1 0x0 PUSH2 0x4EFC PUSH1 0x19 DUP4 PUSH2 0x3571 JUMP JUMPDEST SWAP2 POP PUSH2 0x4F07 DUP3 PUSH2 0x4EC6 JUMP JUMPDEST PUSH1 0x20 DUP3 ADD SWAP1 POP SWAP2 SWAP1 POP JUMP JUMPDEST PUSH1 0x0 PUSH1 0x20 DUP3 ADD SWAP1 POP DUP2 DUP2 SUB PUSH1 0x0 DUP4 ADD MSTORE PUSH2 0x4F2B DUP2 PUSH2 0x4EEF JUMP JUMPDEST SWAP1 POP SWAP2 SWAP1 POP JUMP JUMPDEST PUSH32 0x4552433732313A207472616E7366657220746F206E6F6E204552433732315265 PUSH1 0x0 DUP3 ADD MSTORE PUSH32 0x63656976657220696D706C656D656E7465720000000000000000000000000000 PUSH1 0x20 DUP3 ADD MSTORE POP JUMP JUMPDEST PUSH1 0x0 PUSH2 0x4F8E PUSH1 0x32 DUP4 PUSH2 0x3571 JUMP JUMPDEST SWAP2 POP PUSH2 0x4F99 DUP3 PUSH2 0x4F32 JUMP JUMPDEST PUSH1 0x40 DUP3 ADD SWAP1 POP SWAP2 SWAP1 POP JUMP JUMPDEST PUSH1 0x0 PUSH1 0x20 DUP3 ADD SWAP1 POP DUP2 DUP2 SUB PUSH1 0x0 DUP4 ADD MSTORE PUSH2 0x4FBD DUP2 PUSH2 0x4F81 JUMP JUMPDEST SWAP1 POP SWAP2 SWAP1 POP JUMP JUMPDEST PUSH32 0x4552433732314D657461646174613A2055524920717565727920666F72206E6F PUSH1 0x0 DUP3 ADD MSTORE PUSH32 0x6E6578697374656E7420746F6B656E0000000000000000000000000000000000 PUSH1 0x20 DUP3 ADD MSTORE POP JUMP JUMPDEST PUSH1 0x0 PUSH2 0x5020 PUSH1 0x2F DUP4 PUSH2 0x3571 JUMP JUMPDEST SWAP2 POP PUSH2 0x502B DUP3 PUSH2 0x4FC4 JUMP JUMPDEST PUSH1 0x40 DUP3 ADD SWAP1 POP SWAP2 SWAP1 POP JUMP JUMPDEST PUSH1 0x0 PUSH1 0x20 DUP3 ADD SWAP1 POP DUP2 DUP2 SUB PUSH1 0x0 DUP4 ADD MSTORE PUSH2 0x504F DUP2 PUSH2 0x5013 JUMP JUMPDEST SWAP1 POP SWAP2 SWAP1 POP JUMP JUMPDEST PUSH1 0x0 DUP2 MLOAD SWAP1 POP SWAP2 SWAP1 POP JUMP JUMPDEST PUSH1 0x0 DUP3 DUP3 MSTORE PUSH1 0x20 DUP3 ADD SWAP1 POP SWAP3 SWAP2 POP POP JUMP JUMPDEST PUSH1 0x0 PUSH2 0x507D DUP3 PUSH2 0x5056 JUMP JUMPDEST PUSH2 0x5087 DUP2 DUP6 PUSH2 0x5061 JUMP JUMPDEST SWAP4 POP PUSH2 0x5097 DUP2 DUP6 PUSH1 0x20 DUP7 ADD PUSH2 0x3582 JUMP JUMPDEST PUSH2 0x50A0 DUP2 PUSH2 0x35AC JUMP JUMPDEST DUP5 ADD SWAP2 POP POP SWAP3 SWAP2 POP POP JUMP JUMPDEST PUSH1 0x0 PUSH1 0x80 DUP3 ADD SWAP1 POP PUSH2 0x50C0 PUSH1 0x0 DUP4 ADD DUP8 PUSH2 0x36AD JUMP JUMPDEST PUSH2 0x50CD PUSH1 0x20 DUP4 ADD DUP7 PUSH2 0x36AD JUMP JUMPDEST PUSH2 0x50DA PUSH1 0x40 DUP4 ADD DUP6 PUSH2 0x3743 JUMP JUMPDEST DUP2 DUP2 SUB PUSH1 0x60 DUP4 ADD MSTORE PUSH2 0x50EC DUP2 DUP5 PUSH2 0x5072 JUMP JUMPDEST SWAP1 POP SWAP6 SWAP5 POP POP POP POP POP JUMP JUMPDEST PUSH1 0x0 DUP2 MLOAD SWAP1 POP PUSH2 0x5106 DUP2 PUSH2 0x34D7 JUMP JUMPDEST SWAP3 SWAP2 POP POP JUMP JUMPDEST PUSH1 0x0 PUSH1 0x20 DUP3 DUP5 SUB SLT ISZERO PUSH2 0x5122 JUMPI PUSH2 0x5121 PUSH2 0x34A1 JUMP JUMPDEST JUMPDEST PUSH1 0x0 PUSH2 0x5130 DUP5 DUP3 DUP6 ADD PUSH2 0x50F7 JUMP JUMPDEST SWAP2 POP POP SWAP3 SWAP2 POP POP JUMP JUMPDEST PUSH32 0x4E487B7100000000000000000000000000000000000000000000000000000000 PUSH1 0x0 MSTORE PUSH1 0x12 PUSH1 0x4 MSTORE PUSH1 0x24 PUSH1 0x0 REVERT JUMPDEST PUSH1 0x0 PUSH2 0x5173 DUP3 PUSH2 0x3618 JUMP JUMPDEST SWAP2 POP PUSH2 0x517E DUP4 PUSH2 0x3618 JUMP JUMPDEST SWAP3 POP DUP3 PUSH2 0x518E JUMPI PUSH2 0x518D PUSH2 0x5139 JUMP JUMPDEST JUMPDEST DUP3 DUP3 DIV SWAP1 POP SWAP3 SWAP2 POP POP JUMP JUMPDEST PUSH1 0x0 PUSH2 0x51A4 DUP3 PUSH2 0x3618 JUMP JUMPDEST SWAP2 POP PUSH2 0x51AF DUP4 PUSH2 0x3618 JUMP JUMPDEST SWAP3 POP DUP3 PUSH2 0x51BF JUMPI PUSH2 0x51BE PUSH2 0x5139 JUMP JUMPDEST JUMPDEST DUP3 DUP3 MOD SWAP1 POP SWAP3 SWAP2 POP POP JUMP JUMPDEST PUSH32 0x4E487B7100000000000000000000000000000000000000000000000000000000 PUSH1 0x0 MSTORE PUSH1 0x51 PUSH1 0x4 MSTORE PUSH1 0x24 PUSH1 0x0 REVERT INVALID LOG2 PUSH5 0x6970667358 0x22 SLT KECCAK256 DUP2 PC PUSH6 0x3CE19D1A6849 0xB3 0xDD 0xB3 DUP14 0xB3 0xEB DUP6 DUP9 PUSH21 0xDE190FA274C4D6A08B137FE179EB64736F6C634300 ADDMOD EQ STOP CALLER "},"methodIdentifiers":{"approve(address,uint256)":"095ea7b3","auctionDuration()":"0cbf54c8","automateAuctions()":"4700c27e","balanceOf(address)":"70a08231","checkAndEndAuctions()":"03bb502f","createMarketSale(uint256)":"be9af536","createToken(string,uint256)":"72b3b620","endAuction(uint256)":"b9a2de3a","fetchItemsListed()":"45f8fa80","fetchMarketItems()":"0f08efe0","fetchMyNFTs()":"202e3740","fetchTokenDetails(uint256)":"b863a7cd","getApproved(uint256)":"081812fc","getListingPrice()":"12e85585","isApprovedForAll(address,address)":"e985e9c5","lastAutomatedTime()":"56f28555","listingPrice()":"c78f19f9","name()":"06fdde03","owner()":"8da5cb5b","ownerOf(uint256)":"6352211e","placeBid(uint256)":"9979ef45","resellToken(uint256,uint256)":"e219fc75","safeTransferFrom(address,address,uint256)":"42842e0e","safeTransferFrom(address,address,uint256,bytes)":"b88d4fde","setApprovalForAll(address,bool)":"a22cb465","supportsInterface(bytes4)":"01ffc9a7","symbol()":"95d89b41","tokenURI(uint256)":"c87b56dd","transferFrom(address,address,uint256)":"23b872dd","updateListingPrice(uint256)":"ae677aa3"}}}}}