{"contracts/NFTMarketplace.sol":{"NFTMarketplace":{"abi":[{"inputs":[],"stateMutability":"nonpayable","type":"constructor"},{"anonymous":false,"inputs":[{"indexed":true,"internalType":"address","name":"owner","type":"address"},{"indexed":true,"internalType":"address","name":"approved","type":"address"},{"indexed":true,"internalType":"uint256","name":"tokenId","type":"uint256"}],"name":"Approval","type":"event"},{"anonymous":false,"inputs":[{"indexed":true,"internalType":"address","name":"owner","type":"address"},{"indexed":true,"internalType":"address","name":"operator","type":"address"},{"indexed":false,"internalType":"bool","name":"approved","type":"bool"}],"name":"ApprovalForAll","type":"event"},{"anonymous":false,"inputs":[{"indexed":true,"internalType":"uint256","name":"tokenId","type":"uint256"},{"indexed":false,"internalType":"address","name":"seller","type":"address"},{"indexed":false,"internalType":"address","name":"owner","type":"address"},{"indexed":false,"internalType":"uint256","name":"price","type":"uint256"},{"indexed":false,"internalType":"bool","name":"sold","type":"bool"},{"indexed":false,"internalType":"string","name":"audioURI","type":"string"}],"name":"MarketItemCreated","type":"event"},{"anonymous":false,"inputs":[{"indexed":true,"internalType":"address","name":"from","type":"address"},{"indexed":true,"internalType":"address","name":"to","type":"address"},{"indexed":true,"internalType":"uint256","name":"tokenId","type":"uint256"}],"name":"Transfer","type":"event"},{"inputs":[{"internalType":"address","name":"to","type":"address"},{"internalType":"uint256","name":"tokenId","type":"uint256"}],"name":"approve","outputs":[],"stateMutability":"nonpayable","type":"function"},{"inputs":[{"internalType":"address","name":"owner","type":"address"}],"name":"balanceOf","outputs":[{"internalType":"uint256","name":"","type":"uint256"}],"stateMutability":"view","type":"function"},{"inputs":[{"internalType":"uint256","name":"tokenId","type":"uint256"}],"name":"createMarketSale","outputs":[],"stateMutability":"payable","type":"function"},{"inputs":[{"internalType":"string","name":"tokenURI","type":"string"},{"internalType":"uint256","name":"price","type":"uint256"},{"internalType":"string","name":"audioURI","type":"string"}],"name":"createToken","outputs":[{"internalType":"uint256","name":"","type":"uint256"}],"stateMutability":"payable","type":"function"},{"inputs":[],"name":"fetchItemsListed","outputs":[{"components":[{"internalType":"uint256","name":"tokenId","type":"uint256"},{"internalType":"address payable","name":"seller","type":"address"},{"internalType":"address payable","name":"owner","type":"address"},{"internalType":"uint256","name":"price","type":"uint256"},{"internalType":"bool","name":"sold","type":"bool"},{"internalType":"string","name":"audioURI","type":"string"}],"internalType":"struct NFTMarketplace.MarketItem[]","name":"","type":"tuple[]"}],"stateMutability":"view","type":"function"},{"inputs":[],"name":"fetchMarketItems","outputs":[{"components":[{"internalType":"uint256","name":"tokenId","type":"uint256"},{"internalType":"address payable","name":"seller","type":"address"},{"internalType":"address payable","name":"owner","type":"address"},{"internalType":"uint256","name":"price","type":"uint256"},{"internalType":"bool","name":"sold","type":"bool"},{"internalType":"string","name":"audioURI","type":"string"}],"internalType":"struct NFTMarketplace.MarketItem[]","name":"","type":"tuple[]"}],"stateMutability":"view","type":"function"},{"inputs":[],"name":"fetchMyNFTs","outputs":[{"components":[{"internalType":"uint256","name":"tokenId","type":"uint256"},{"internalType":"address payable","name":"seller","type":"address"},{"internalType":"address payable","name":"owner","type":"address"},{"internalType":"uint256","name":"price","type":"uint256"},{"internalType":"bool","name":"sold","type":"bool"},{"internalType":"string","name":"audioURI","type":"string"}],"internalType":"struct NFTMarketplace.MarketItem[]","name":"","type":"tuple[]"}],"stateMutability":"view","type":"function"},{"inputs":[{"internalType":"uint256","name":"tokenId","type":"uint256"}],"name":"fetchTokenDetails","outputs":[{"components":[{"internalType":"uint256","name":"tokenId","type":"uint256"},{"internalType":"address payable","name":"seller","type":"address"},{"internalType":"address payable","name":"owner","type":"address"},{"internalType":"uint256","name":"price","type":"uint256"},{"internalType":"bool","name":"sold","type":"bool"},{"internalType":"string","name":"audioURI","type":"string"}],"internalType":"struct NFTMarketplace.MarketItem","name":"","type":"tuple"}],"stateMutability":"view","type":"function"},{"inputs":[{"internalType":"uint256","name":"tokenId","type":"uint256"}],"name":"getApproved","outputs":[{"internalType":"address","name":"","type":"address"}],"stateMutability":"view","type":"function"},{"inputs":[],"name":"getListingPrice","outputs":[{"internalType":"uint256","name":"","type":"uint256"}],"stateMutability":"view","type":"function"},{"inputs":[{"internalType":"address","name":"owner","type":"address"},{"internalType":"address","name":"operator","type":"address"}],"name":"isApprovedForAll","outputs":[{"internalType":"bool","name":"","type":"bool"}],"stateMutability":"view","type":"function"},{"inputs":[],"name":"listingPrice","outputs":[{"internalType":"uint256","name":"","type":"uint256"}],"stateMutability":"view","type":"function"},{"inputs":[],"name":"name","outputs":[{"internalType":"string","name":"","type":"string"}],"stateMutability":"view","type":"function"},{"inputs":[],"name":"owner","outputs":[{"internalType":"address payable","name":"","type":"address"}],"stateMutability":"view","type":"function"},{"inputs":[{"internalType":"uint256","name":"tokenId","type":"uint256"}],"name":"ownerOf","outputs":[{"internalType":"address","name":"","type":"address"}],"stateMutability":"view","type":"function"},{"inputs":[{"internalType":"uint256","name":"tokenId","type":"uint256"},{"internalType":"uint256","name":"price","type":"uint256"},{"internalType":"string","name":"audioURI","type":"string"}],"name":"resellToken","outputs":[],"stateMutability":"payable","type":"function"},{"inputs":[{"internalType":"address","name":"from","type":"address"},{"internalType":"address","name":"to","type":"address"},{"internalType":"uint256","name":"tokenId","type":"uint256"}],"name":"safeTransferFrom","outputs":[],"stateMutability":"nonpayable","type":"function"},{"inputs":[{"internalType":"address","name":"from","type":"address"},{"internalType":"address","name":"to","type":"address"},{"internalType":"uint256","name":"tokenId","type":"uint256"},{"internalType":"bytes","name":"_data","type":"bytes"}],"name":"safeTransferFrom","outputs":[],"stateMutability":"nonpayable","type":"function"},{"inputs":[{"internalType":"address","name":"operator","type":"address"},{"internalType":"bool","name":"approved","type":"bool"}],"name":"setApprovalForAll","outputs":[],"stateMutability":"nonpayable","type":"function"},{"inputs":[{"internalType":"bytes4","name":"interfaceId","type":"bytes4"}],"name":"supportsInterface","outputs":[{"internalType":"bool","name":"","type":"bool"}],"stateMutability":"view","type":"function"},{"inputs":[],"name":"symbol","outputs":[{"internalType":"string","name":"","type":"string"}],"stateMutability":"view","type":"function"},{"inputs":[{"internalType":"uint256","name":"tokenId","type":"uint256"}],"name":"tokenURI","outputs":[{"internalType":"string","name":"","type":"string"}],"stateMutability":"view","type":"function"},{"inputs":[{"internalType":"address","name":"from","type":"address"},{"internalType":"address","name":"to","type":"address"},{"internalType":"uint256","name":"tokenId","type":"uint256"}],"name":"transferFrom","outputs":[],"stateMutability":"nonpayable","type":"function"},{"inputs":[{"internalType":"uint256","name":"_listingPrice","type":"uint256"}],"name":"updateListingPrice","outputs":[],"stateMutability":"payable","type":"function"}],"evm":{"bytecode":{"linkReferences":{},"object":"60806040526658d15e176280006009553480156200001c57600080fd5b506040518060400160405280601081526020017f4d657461766572736520546f6b656e73000000000000000000000000000000008152506040518060400160405280600481526020017f4d4554540000000000000000000000000000000000000000000000000000000081525081600090816200009a919062000370565b508060019081620000ac919062000370565b50505033600a60006101000a81548173ffffffffffffffffffffffffffffffffffffffff021916908373ffffffffffffffffffffffffffffffffffffffff16021790555062000457565b600081519050919050565b7f4e487b7100000000000000000000000000000000000000000000000000000000600052604160045260246000fd5b7f4e487b7100000000000000000000000000000000000000000000000000000000600052602260045260246000fd5b600060028204905060018216806200017857607f821691505b6020821081036200018e576200018d62000130565b5b50919050565b60008190508160005260206000209050919050565b60006020601f8301049050919050565b600082821b905092915050565b600060088302620001f87fffffffffffffffffffffffffffffffffffffffffffffffffffffffffffffffff82620001b9565b620002048683620001b9565b95508019841693508086168417925050509392505050565b6000819050919050565b6000819050919050565b6000620002516200024b62000245846200021c565b62000226565b6200021c565b9050919050565b6000819050919050565b6200026d8362000230565b620002856200027c8262000258565b848454620001c6565b825550505050565b600090565b6200029c6200028d565b620002a981848462000262565b505050565b5b81811015620002d157620002c560008262000292565b600181019050620002af565b5050565b601f8211156200032057620002ea8162000194565b620002f584620001a9565b8101602085101562000305578190505b6200031d6200031485620001a9565b830182620002ae565b50505b505050565b600082821c905092915050565b6000620003456000198460080262000325565b1980831691505092915050565b600062000360838362000332565b9150826002028217905092915050565b6200037b82620000f6565b67ffffffffffffffff81111562000397576200039662000101565b5b620003a382546200015f565b620003b0828285620002d5565b600060209050601f831160018114620003e85760008415620003d3578287015190505b620003df858262000352565b8655506200044f565b601f198416620003f88662000194565b60005b828110156200042257848901518255600182019150602085019450602081019050620003fb565b868310156200044257848901516200043e601f89168262000332565b8355505b6001600288020188555050505b505050505050565b61496c80620004676000396000f3fe60806040526004361061014b5760003560e01c8063824df416116100b6578063b88d4fde1161006f578063b88d4fde1461048a578063be9af536146104b3578063c6c9b5b1146104cf578063c78f19f9146104ff578063c87b56dd1461052a578063e985e9c5146105675761014b565b8063824df416146103965780638da5cb5b146103b257806395d89b41146103dd578063a22cb46514610408578063ae677aa314610431578063b863a7cd1461044d5761014b565b8063202e374011610108578063202e37401461027457806323b872dd1461029f57806342842e0e146102c857806345f8fa80146102f15780636352211e1461031c57806370a08231146103595761014b565b806301ffc9a71461015057806306fdde031461018d578063081812fc146101b8578063095ea7b3146101f55780630f08efe01461021e57806312e8558514610249575b600080fd5b34801561015c57600080fd5b5061017760048036038101906101729190612ddd565b6105a4565b6040516101849190612e25565b60405180910390f35b34801561019957600080fd5b506101a2610686565b6040516101af9190612ed0565b60405180910390f35b3480156101c457600080fd5b506101df60048036038101906101da9190612f28565b610718565b6040516101ec9190612f96565b60405180910390f35b34801561020157600080fd5b5061021c60048036038101906102179190612fdd565b61079d565b005b34801561022a57600080fd5b506102336108b4565b60405161024091906131f1565b60405180910390f35b34801561025557600080fd5b5061025e610b84565b60405161026b9190613222565b60405180910390f35b34801561028057600080fd5b50610289610b8e565b60405161029691906131f1565b60405180910390f35b3480156102ab57600080fd5b506102c660048036038101906102c1919061323d565b610ee7565b005b3480156102d457600080fd5b506102ef60048036038101906102ea919061323d565b610f47565b005b3480156102fd57600080fd5b50610306610f67565b60405161031391906131f1565b60405180910390f35b34801561032857600080fd5b50610343600480360381019061033e9190612f28565b6112c0565b6040516103509190612f96565b60405180910390f35b34801561036557600080fd5b50610380600480360381019061037b9190613290565b611371565b60405161038d9190613222565b60405180910390f35b6103b060048036038101906103ab91906133f2565b611428565b005b3480156103be57600080fd5b506103c7611650565b6040516103d49190613470565b60405180910390f35b3480156103e957600080fd5b506103f2611676565b6040516103ff9190612ed0565b60405180910390f35b34801561041457600080fd5b5061042f600480360381019061042a91906134b7565b611708565b005b61044b60048036038101906104469190612f28565b61171e565b005b34801561045957600080fd5b50610474600480360381019061046f9190612f28565b6117b8565b6040516104819190613580565b60405180910390f35b34801561049657600080fd5b506104b160048036038101906104ac9190613643565b611952565b005b6104cd60048036038101906104c89190612f28565b6119b4565b005b6104e960048036038101906104e491906136c6565b611bfa565b6040516104f69190613222565b60405180910390f35b34801561050b57600080fd5b50610514611c45565b6040516105219190613222565b60405180910390f35b34801561053657600080fd5b50610551600480360381019061054c9190612f28565b611c4b565b60405161055e9190612ed0565b60405180910390f35b34801561057357600080fd5b5061058e60048036038101906105899190613751565b611d9c565b60405161059b9190612e25565b60405180910390f35b60007f80ac58cd000000000000000000000000000000000000000000000000000000007bffffffffffffffffffffffffffffffffffffffffffffffffffffffff1916827bffffffffffffffffffffffffffffffffffffffffffffffffffffffff1916148061066f57507f5b5e139f000000000000000000000000000000000000000000000000000000007bffffffffffffffffffffffffffffffffffffffffffffffffffffffff1916827bffffffffffffffffffffffffffffffffffffffffffffffffffffffff1916145b8061067f575061067e82611e30565b5b9050919050565b606060008054610695906137c0565b80601f01602080910402602001604051908101604052809291908181526020018280546106c1906137c0565b801561070e5780601f106106e35761010080835404028352916020019161070e565b820191906000526020600020905b8154815290600101906020018083116106f157829003601f168201915b5050505050905090565b600061072382611e9a565b610762576040517f08c379a000000000000000000000000000000000000000000000000000000000815260040161075990613863565b60405180910390fd5b6004600083815260200190815260200160002060009054906101000a900473ffffffffffffffffffffffffffffffffffffffff169050919050565b60006107a8826112c0565b90508073ffffffffffffffffffffffffffffffffffffffff168373ffffffffffffffffffffffffffffffffffffffff1603610818576040517f08c379a000000000000000000000000000000000000000000000000000000000815260040161080f906138f5565b60405180910390fd5b8073ffffffffffffffffffffffffffffffffffffffff16610837611f06565b73ffffffffffffffffffffffffffffffffffffffff161480610866575061086581610860611f06565b611d9c565b5b6108a5576040517f08c379a000000000000000000000000000000000000000000000000000000000815260040161089c90613987565b60405180910390fd5b6108af8383611f0e565b505050565b60606000600754905060006008546007546108cf91906139d6565b90506000808267ffffffffffffffff8111156108ee576108ed6132c7565b5b60405190808252806020026020018201604052801561092757816020015b610914612d0d565b81526020019060019003908161090c5790505b5090506000600190505b848111610b79573073ffffffffffffffffffffffffffffffffffffffff16600b600083815260200190815260200160002060020160009054906101000a900473ffffffffffffffffffffffffffffffffffffffff1673ffffffffffffffffffffffffffffffffffffffff1603610b665760008190506000600b60008381526020019081526020016000209050806040518060c0016040529081600082015481526020016001820160009054906101000a900473ffffffffffffffffffffffffffffffffffffffff1673ffffffffffffffffffffffffffffffffffffffff1673ffffffffffffffffffffffffffffffffffffffff1681526020016002820160009054906101000a900473ffffffffffffffffffffffffffffffffffffffff1673ffffffffffffffffffffffffffffffffffffffff1673ffffffffffffffffffffffffffffffffffffffff168152602001600382015481526020016004820160009054906101000a900460ff16151515158152602001600582018054610ab4906137c0565b80601f0160208091040260200160405190810160405280929190818152602001828054610ae0906137c0565b8015610b2d5780601f10610b0257610100808354040283529160200191610b2d565b820191906000526020600020905b815481529060010190602001808311610b1057829003601f168201915b505050505081525050848681518110610b4957610b48613a0a565b5b6020026020010181905250600185610b619190613a39565b945050505b8080610b7190613a6d565b915050610931565b508094505050505090565b6000600954905090565b6060600060075490506000806000600190505b838111610c34573373ffffffffffffffffffffffffffffffffffffffff16600b600083815260200190815260200160002060020160009054906101000a900473ffffffffffffffffffffffffffffffffffffffff1673ffffffffffffffffffffffffffffffffffffffff1603610c2157600183610c1e9190613a39565b92505b8080610c2c90613a6d565b915050610ba1565b5060008267ffffffffffffffff811115610c5157610c506132c7565b5b604051908082528060200260200182016040528015610c8a57816020015b610c77612d0d565b815260200190600190039081610c6f5790505b5090506000600190505b848111610edc573373ffffffffffffffffffffffffffffffffffffffff16600b600083815260200190815260200160002060020160009054906101000a900473ffffffffffffffffffffffffffffffffffffffff1673ffffffffffffffffffffffffffffffffffffffff1603610ec95760008190506000600b60008381526020019081526020016000209050806040518060c0016040529081600082015481526020016001820160009054906101000a900473ffffffffffffffffffffffffffffffffffffffff1673ffffffffffffffffffffffffffffffffffffffff1673ffffffffffffffffffffffffffffffffffffffff1681526020016002820160009054906101000a900473ffffffffffffffffffffffffffffffffffffffff1673ffffffffffffffffffffffffffffffffffffffff1673ffffffffffffffffffffffffffffffffffffffff168152602001600382015481526020016004820160009054906101000a900460ff16151515158152602001600582018054610e17906137c0565b80601f0160208091040260200160405190810160405280929190818152602001828054610e43906137c0565b8015610e905780601f10610e6557610100808354040283529160200191610e90565b820191906000526020600020905b815481529060010190602001808311610e7357829003601f168201915b505050505081525050848681518110610eac57610eab613a0a565b5b6020026020010181905250600185610ec49190613a39565b945050505b8080610ed490613a6d565b915050610c94565b508094505050505090565b610ef8610ef2611f06565b82611fc7565b610f37576040517f08c379a0000000000000000000000000000000000000000000000000000000008152600401610f2e90613b27565b60405180910390fd5b610f428383836120a5565b505050565b610f6283838360405180602001604052806000815250611952565b505050565b6060600060075490506000806000600190505b83811161100d573373ffffffffffffffffffffffffffffffffffffffff16600b600083815260200190815260200160002060010160009054906101000a900473ffffffffffffffffffffffffffffffffffffffff1673ffffffffffffffffffffffffffffffffffffffff1603610ffa57600183610ff79190613a39565b92505b808061100590613a6d565b915050610f7a565b5060008267ffffffffffffffff81111561102a576110296132c7565b5b60405190808252806020026020018201604052801561106357816020015b611050612d0d565b8152602001906001900390816110485790505b5090506000600190505b8481116112b5573373ffffffffffffffffffffffffffffffffffffffff16600b600083815260200190815260200160002060010160009054906101000a900473ffffffffffffffffffffffffffffffffffffffff1673ffffffffffffffffffffffffffffffffffffffff16036112a25760008190506000600b60008381526020019081526020016000209050806040518060c0016040529081600082015481526020016001820160009054906101000a900473ffffffffffffffffffffffffffffffffffffffff1673ffffffffffffffffffffffffffffffffffffffff1673ffffffffffffffffffffffffffffffffffffffff1681526020016002820160009054906101000a900473ffffffffffffffffffffffffffffffffffffffff1673ffffffffffffffffffffffffffffffffffffffff1673ffffffffffffffffffffffffffffffffffffffff168152602001600382015481526020016004820160009054906101000a900460ff161515151581526020016005820180546111f0906137c0565b80601f016020809104026020016040519081016040528092919081815260200182805461121c906137c0565b80156112695780601f1061123e57610100808354040283529160200191611269565b820191906000526020600020905b81548152906001019060200180831161124c57829003601f168201915b50505050508152505084868151811061128557611284613a0a565b5b602002602001018190525060018561129d9190613a39565b945050505b80806112ad90613a6d565b91505061106d565b508094505050505090565b6000806002600084815260200190815260200160002060009054906101000a900473ffffffffffffffffffffffffffffffffffffffff169050600073ffffffffffffffffffffffffffffffffffffffff168173ffffffffffffffffffffffffffffffffffffffff1603611368576040517f08c379a000000000000000000000000000000000000000000000000000000000815260040161135f90613bb9565b60405180910390fd5b80915050919050565b60008073ffffffffffffffffffffffffffffffffffffffff168273ffffffffffffffffffffffffffffffffffffffff16036113e1576040517f08c379a00000000000000000000000000000000000000000000000000000000081526004016113d890613c4b565b60405180910390fd5b600360008373ffffffffffffffffffffffffffffffffffffffff1673ffffffffffffffffffffffffffffffffffffffff168152602001908152602001600020549050919050565b3373ffffffffffffffffffffffffffffffffffffffff16600b600085815260200190815260200160002060020160009054906101000a900473ffffffffffffffffffffffffffffffffffffffff1673ffffffffffffffffffffffffffffffffffffffff16146114cc576040517f08c379a00000000000000000000000000000000000000000000000000000000081526004016114c390613cdd565b60405180910390fd5b6009543414611510576040517f08c379a000000000000000000000000000000000000000000000000000000000815260040161150790613d6f565b60405180910390fd5b6000600b600085815260200190815260200160002060040160006101000a81548160ff02191690831515021790555081600b60008581526020019081526020016000206003018190555033600b600085815260200190815260200160002060010160006101000a81548173ffffffffffffffffffffffffffffffffffffffff021916908373ffffffffffffffffffffffffffffffffffffffff16021790555030600b600085815260200190815260200160002060020160006101000a81548173ffffffffffffffffffffffffffffffffffffffff021916908373ffffffffffffffffffffffffffffffffffffffff16021790555080600b600085815260200190815260200160002060050190816116279190613f3b565b506008600081548092919061163b9061400d565b919050555061164b3330856120a5565b505050565b600a60009054906101000a900473ffffffffffffffffffffffffffffffffffffffff1681565b606060018054611685906137c0565b80601f01602080910402602001604051908101604052809291908181526020018280546116b1906137c0565b80156116fe5780601f106116d3576101008083540402835291602001916116fe565b820191906000526020600020905b8154815290600101906020018083116116e157829003601f168201915b5050505050905090565b61171a611713611f06565b838361230b565b5050565b3373ffffffffffffffffffffffffffffffffffffffff16600a60009054906101000a900473ffffffffffffffffffffffffffffffffffffffff1673ffffffffffffffffffffffffffffffffffffffff16146117ae576040517f08c379a00000000000000000000000000000000000000000000000000000000081526004016117a5906140a8565b60405180910390fd5b8060098190555050565b6117c0612d0d565b600b60008381526020019081526020016000206040518060c0016040529081600082015481526020016001820160009054906101000a900473ffffffffffffffffffffffffffffffffffffffff1673ffffffffffffffffffffffffffffffffffffffff1673ffffffffffffffffffffffffffffffffffffffff1681526020016002820160009054906101000a900473ffffffffffffffffffffffffffffffffffffffff1673ffffffffffffffffffffffffffffffffffffffff1673ffffffffffffffffffffffffffffffffffffffff168152602001600382015481526020016004820160009054906101000a900460ff161515151581526020016005820180546118c9906137c0565b80601f01602080910402602001604051908101604052809291908181526020018280546118f5906137c0565b80156119425780601f1061191757610100808354040283529160200191611942565b820191906000526020600020905b81548152906001019060200180831161192557829003601f168201915b5050505050815250509050919050565b61196361195d611f06565b83611fc7565b6119a2576040517f08c379a000000000000000000000000000000000000000000000000000000000815260040161199990613b27565b60405180910390fd5b6119ae84848484612477565b50505050565b6000600b6000838152602001908152602001600020600301549050803414611a11576040517f08c379a0000000000000000000000000000000000000000000000000000000008152600401611a089061413a565b60405180910390fd5b33600b600084815260200190815260200160002060020160006101000a81548173ffffffffffffffffffffffffffffffffffffffff021916908373ffffffffffffffffffffffffffffffffffffffff1602179055506001600b600084815260200190815260200160002060040160006101000a81548160ff0219169083151502179055506000600b600084815260200190815260200160002060010160006101000a81548173ffffffffffffffffffffffffffffffffffffffff021916908373ffffffffffffffffffffffffffffffffffffffff16021790555060086000815480929190611afe90613a6d565b9190505550611b0e3033846120a5565b600a60009054906101000a900473ffffffffffffffffffffffffffffffffffffffff1673ffffffffffffffffffffffffffffffffffffffff166108fc6009549081150290604051600060405180830381858888f19350505050158015611b78573d6000803e3d6000fd5b50600b600083815260200190815260200160002060010160009054906101000a900473ffffffffffffffffffffffffffffffffffffffff1673ffffffffffffffffffffffffffffffffffffffff166108fc349081150290604051600060405180830381858888f19350505050158015611bf5573d6000803e3d6000fd5b505050565b600060076000815480929190611c0f90613a6d565b919050555060006007549050611c2533826124d3565b611c2f81866126ac565b611c3a818585612719565b809150509392505050565b60095481565b6060611c5682611e9a565b611c95576040517f08c379a0000000000000000000000000000000000000000000000000000000008152600401611c8c906141cc565b60405180910390fd5b6000600660008481526020019081526020016000208054611cb5906137c0565b80601f0160208091040260200160405190810160405280929190818152602001828054611ce1906137c0565b8015611d2e5780601f10611d0357610100808354040283529160200191611d2e565b820191906000526020600020905b815481529060010190602001808311611d1157829003601f168201915b505050505090506000611d3f61293b565b90506000815103611d54578192505050611d97565b600082511115611d89578082604051602001611d71929190614228565b60405160208183030381529060405292505050611d97565b611d9284612952565b925050505b919050565b6000600560008473ffffffffffffffffffffffffffffffffffffffff1673ffffffffffffffffffffffffffffffffffffffff16815260200190815260200160002060008373ffffffffffffffffffffffffffffffffffffffff1673ffffffffffffffffffffffffffffffffffffffff16815260200190815260200160002060009054906101000a900460ff16905092915050565b60007f01ffc9a7000000000000000000000000000000000000000000000000000000007bffffffffffffffffffffffffffffffffffffffffffffffffffffffff1916827bffffffffffffffffffffffffffffffffffffffffffffffffffffffff1916149050919050565b60008073ffffffffffffffffffffffffffffffffffffffff166002600084815260200190815260200160002060009054906101000a900473ffffffffffffffffffffffffffffffffffffffff1673ffffffffffffffffffffffffffffffffffffffff1614159050919050565b600033905090565b816004600083815260200190815260200160002060006101000a81548173ffffffffffffffffffffffffffffffffffffffff021916908373ffffffffffffffffffffffffffffffffffffffff160217905550808273ffffffffffffffffffffffffffffffffffffffff16611f81836112c0565b73ffffffffffffffffffffffffffffffffffffffff167f8c5be1e5ebec7d5bd14f71427d1e84f3dd0314c0f7b2291e5b200ac8c7c3b92560405160405180910390a45050565b6000611fd282611e9a565b612011576040517f08c379a0000000000000000000000000000000000000000000000000000000008152600401612008906142be565b60405180910390fd5b600061201c836112c0565b90508073ffffffffffffffffffffffffffffffffffffffff168473ffffffffffffffffffffffffffffffffffffffff16148061208b57508373ffffffffffffffffffffffffffffffffffffffff1661207384610718565b73ffffffffffffffffffffffffffffffffffffffff16145b8061209c575061209b8185611d9c565b5b91505092915050565b8273ffffffffffffffffffffffffffffffffffffffff166120c5826112c0565b73ffffffffffffffffffffffffffffffffffffffff161461211b576040517f08c379a000000000000000000000000000000000000000000000000000000000815260040161211290614350565b60405180910390fd5b600073ffffffffffffffffffffffffffffffffffffffff168273ffffffffffffffffffffffffffffffffffffffff160361218a576040517f08c379a0000000000000000000000000000000000000000000000000000000008152600401612181906143e2565b60405180910390fd5b6121958383836129f9565b6121a0600082611f0e565b6001600360008573ffffffffffffffffffffffffffffffffffffffff1673ffffffffffffffffffffffffffffffffffffffff16815260200190815260200160002060008282546121f091906139d6565b925050819055506001600360008473ffffffffffffffffffffffffffffffffffffffff1673ffffffffffffffffffffffffffffffffffffffff16815260200190815260200160002060008282546122479190613a39565b92505081905550816002600083815260200190815260200160002060006101000a81548173ffffffffffffffffffffffffffffffffffffffff021916908373ffffffffffffffffffffffffffffffffffffffff160217905550808273ffffffffffffffffffffffffffffffffffffffff168473ffffffffffffffffffffffffffffffffffffffff167fddf252ad1be2c89b69c2b068fc378daa952ba7f163c4a11628f55a4df523b3ef60405160405180910390a46123068383836129fe565b505050565b8173ffffffffffffffffffffffffffffffffffffffff168373ffffffffffffffffffffffffffffffffffffffff1603612379576040517f08c379a00000000000000000000000000000000000000000000000000000000081526004016123709061444e565b60405180910390fd5b80600560008573ffffffffffffffffffffffffffffffffffffffff1673ffffffffffffffffffffffffffffffffffffffff16815260200190815260200160002060008473ffffffffffffffffffffffffffffffffffffffff1673ffffffffffffffffffffffffffffffffffffffff16815260200190815260200160002060006101000a81548160ff0219169083151502179055508173ffffffffffffffffffffffffffffffffffffffff168373ffffffffffffffffffffffffffffffffffffffff167f17307eab39ab6107e8899845ad3d59bd9653f200f220920489ca2b5937696c318360405161246a9190612e25565b60405180910390a3505050565b6124828484846120a5565b61248e84848484612a03565b6124cd576040517f08c379a00000000000000000000000000000000000000000000000000000000081526004016124c4906144e0565b60405180910390fd5b50505050565b600073ffffffffffffffffffffffffffffffffffffffff168273ffffffffffffffffffffffffffffffffffffffff1603612542576040517f08c379a00000000000000000000000000000000000000000000000000000000081526004016125399061454c565b60405180910390fd5b61254b81611e9a565b1561258b576040517f08c379a0000000000000000000000000000000000000000000000000000000008152600401612582906145b8565b60405180910390fd5b612597600083836129f9565b6001600360008473ffffffffffffffffffffffffffffffffffffffff1673ffffffffffffffffffffffffffffffffffffffff16815260200190815260200160002060008282546125e79190613a39565b92505081905550816002600083815260200190815260200160002060006101000a81548173ffffffffffffffffffffffffffffffffffffffff021916908373ffffffffffffffffffffffffffffffffffffffff160217905550808273ffffffffffffffffffffffffffffffffffffffff16600073ffffffffffffffffffffffffffffffffffffffff167fddf252ad1be2c89b69c2b068fc378daa952ba7f163c4a11628f55a4df523b3ef60405160405180910390a46126a8600083836129fe565b5050565b6126b582611e9a565b6126f4576040517f08c379a00000000000000000000000000000000000000000000000000000000081526004016126eb9061464a565b60405180910390fd5b806006600084815260200190815260200160002090816127149190613f3b565b505050565b6000821161275c576040517f08c379a0000000000000000000000000000000000000000000000000000000008152600401612753906146b6565b60405180910390fd5b60095434146127a0576040517f08c379a000000000000000000000000000000000000000000000000000000000815260040161279790613d6f565b60405180910390fd5b6040518060c001604052808481526020013373ffffffffffffffffffffffffffffffffffffffff1681526020013073ffffffffffffffffffffffffffffffffffffffff16815260200183815260200160001515815260200182815250600b60008581526020019081526020016000206000820151816000015560208201518160010160006101000a81548173ffffffffffffffffffffffffffffffffffffffff021916908373ffffffffffffffffffffffffffffffffffffffff16021790555060408201518160020160006101000a81548173ffffffffffffffffffffffffffffffffffffffff021916908373ffffffffffffffffffffffffffffffffffffffff1602179055506060820151816003015560808201518160040160006101000a81548160ff02191690831515021790555060a08201518160050190816128e69190613f3b565b509050506128f53330856120a5565b827fddaeb01fb1ddce9789e64660541353c5a90fdd3e87ad074757173128396df02133308560008660405161292e9594939291906146d6565b60405180910390a2505050565b606060405180602001604052806000815250905090565b606061295d82611e9a565b61299c576040517f08c379a0000000000000000000000000000000000000000000000000000000008152600401612993906147a2565b60405180910390fd5b60006129a661293b565b905060008151116129c657604051806020016040528060008152506129f1565b806129d084612b8a565b6040516020016129e1929190614228565b6040516020818303038152906040525b915050919050565b505050565b505050565b6000612a248473ffffffffffffffffffffffffffffffffffffffff16612cea565b15612b7d578373ffffffffffffffffffffffffffffffffffffffff1663150b7a02612a4d611f06565b8786866040518563ffffffff1660e01b8152600401612a6f9493929190614817565b6020604051808303816000875af1925050508015612aab57506040513d601f19601f82011682018060405250810190612aa89190614878565b60015b612b2d573d8060008114612adb576040519150601f19603f3d011682016040523d82523d6000602084013e612ae0565b606091505b506000815103612b25576040517f08c379a0000000000000000000000000000000000000000000000000000000008152600401612b1c906144e0565b60405180910390fd5b805181602001fd5b63150b7a0260e01b7bffffffffffffffffffffffffffffffffffffffffffffffffffffffff1916817bffffffffffffffffffffffffffffffffffffffffffffffffffffffff191614915050612b82565b600190505b949350505050565b606060008203612bd1576040518060400160405280600181526020017f30000000000000000000000000000000000000000000000000000000000000008152509050612ce5565b600082905060005b60008214612c03578080612bec90613a6d565b915050600a82612bfc91906148d4565b9150612bd9565b60008167ffffffffffffffff811115612c1f57612c1e6132c7565b5b6040519080825280601f01601f191660200182016040528015612c515781602001600182028036833780820191505090505b5090505b60008514612cde57600182612c6a91906139d6565b9150600a85612c799190614905565b6030612c859190613a39565b60f81b818381518110612c9b57612c9a613a0a565b5b60200101907effffffffffffffffffffffffffffffffffffffffffffffffffffffffffffff1916908160001a905350600a85612cd791906148d4565b9450612c55565b8093505050505b919050565b6000808273ffffffffffffffffffffffffffffffffffffffff163b119050919050565b6040518060c0016040528060008152602001600073ffffffffffffffffffffffffffffffffffffffff168152602001600073ffffffffffffffffffffffffffffffffffffffff16815260200160008152602001600015158152602001606081525090565b6000604051905090565b600080fd5b600080fd5b60007fffffffff0000000000000000000000000000000000000000000000000000000082169050919050565b612dba81612d85565b8114612dc557600080fd5b50565b600081359050612dd781612db1565b92915050565b600060208284031215612df357612df2612d7b565b5b6000612e0184828501612dc8565b91505092915050565b60008115159050919050565b612e1f81612e0a565b82525050565b6000602082019050612e3a6000830184612e16565b92915050565b600081519050919050565b600082825260208201905092915050565b60005b83811015612e7a578082015181840152602081019050612e5f565b60008484015250505050565b6000601f19601f8301169050919050565b6000612ea282612e40565b612eac8185612e4b565b9350612ebc818560208601612e5c565b612ec581612e86565b840191505092915050565b60006020820190508181036000830152612eea8184612e97565b905092915050565b6000819050919050565b612f0581612ef2565b8114612f1057600080fd5b50565b600081359050612f2281612efc565b92915050565b600060208284031215612f3e57612f3d612d7b565b5b6000612f4c84828501612f13565b91505092915050565b600073ffffffffffffffffffffffffffffffffffffffff82169050919050565b6000612f8082612f55565b9050919050565b612f9081612f75565b82525050565b6000602082019050612fab6000830184612f87565b92915050565b612fba81612f75565b8114612fc557600080fd5b50565b600081359050612fd781612fb1565b92915050565b60008060408385031215612ff457612ff3612d7b565b5b600061300285828601612fc8565b925050602061301385828601612f13565b9150509250929050565b600081519050919050565b600082825260208201905092915050565b6000819050602082019050919050565b61305281612ef2565b82525050565b600061306382612f55565b9050919050565b61307381613058565b82525050565b61308281612e0a565b82525050565b600082825260208201905092915050565b60006130a482612e40565b6130ae8185613088565b93506130be818560208601612e5c565b6130c781612e86565b840191505092915050565b600060c0830160008301516130ea6000860182613049565b5060208301516130fd602086018261306a565b506040830151613110604086018261306a565b5060608301516131236060860182613049565b5060808301516131366080860182613079565b5060a083015184820360a086015261314e8282613099565b9150508091505092915050565b600061316783836130d2565b905092915050565b6000602082019050919050565b60006131878261301d565b6131918185613028565b9350836020820285016131a385613039565b8060005b858110156131df57848403895281516131c0858261315b565b94506131cb8361316f565b925060208a019950506001810190506131a7565b50829750879550505050505092915050565b6000602082019050818103600083015261320b818461317c565b905092915050565b61321c81612ef2565b82525050565b60006020820190506132376000830184613213565b92915050565b60008060006060848603121561325657613255612d7b565b5b600061326486828701612fc8565b935050602061327586828701612fc8565b925050604061328686828701612f13565b9150509250925092565b6000602082840312156132a6576132a5612d7b565b5b60006132b484828501612fc8565b91505092915050565b600080fd5b600080fd5b7f4e487b7100000000000000000000000000000000000000000000000000000000600052604160045260246000fd5b6132ff82612e86565b810181811067ffffffffffffffff8211171561331e5761331d6132c7565b5b80604052505050565b6000613331612d71565b905061333d82826132f6565b919050565b600067ffffffffffffffff82111561335d5761335c6132c7565b5b61336682612e86565b9050602081019050919050565b82818337600083830152505050565b600061339561339084613342565b613327565b9050828152602081018484840111156133b1576133b06132c2565b5b6133bc848285613373565b509392505050565b600082601f8301126133d9576133d86132bd565b5b81356133e9848260208601613382565b91505092915050565b60008060006060848603121561340b5761340a612d7b565b5b600061341986828701612f13565b935050602061342a86828701612f13565b925050604084013567ffffffffffffffff81111561344b5761344a612d80565b5b613457868287016133c4565b9150509250925092565b61346a81613058565b82525050565b60006020820190506134856000830184613461565b92915050565b61349481612e0a565b811461349f57600080fd5b50565b6000813590506134b18161348b565b92915050565b600080604083850312156134ce576134cd612d7b565b5b60006134dc85828601612fc8565b92505060206134ed858286016134a2565b9150509250929050565b600060c08301600083015161350f6000860182613049565b506020830151613522602086018261306a565b506040830151613535604086018261306a565b5060608301516135486060860182613049565b50608083015161355b6080860182613079565b5060a083015184820360a08601526135738282613099565b9150508091505092915050565b6000602082019050818103600083015261359a81846134f7565b905092915050565b600067ffffffffffffffff8211156135bd576135bc6132c7565b5b6135c682612e86565b9050602081019050919050565b60006135e66135e1846135a2565b613327565b905082815260208101848484011115613602576136016132c2565b5b61360d848285613373565b509392505050565b600082601f83011261362a576136296132bd565b5b813561363a8482602086016135d3565b91505092915050565b6000806000806080858703121561365d5761365c612d7b565b5b600061366b87828801612fc8565b945050602061367c87828801612fc8565b935050604061368d87828801612f13565b925050606085013567ffffffffffffffff8111156136ae576136ad612d80565b5b6136ba87828801613615565b91505092959194509250565b6000806000606084860312156136df576136de612d7b565b5b600084013567ffffffffffffffff8111156136fd576136fc612d80565b5b613709868287016133c4565b935050602061371a86828701612f13565b925050604084013567ffffffffffffffff81111561373b5761373a612d80565b5b613747868287016133c4565b9150509250925092565b6000806040838503121561376857613767612d7b565b5b600061377685828601612fc8565b925050602061378785828601612fc8565b9150509250929050565b7f4e487b7100000000000000000000000000000000000000000000000000000000600052602260045260246000fd5b600060028204905060018216806137d857607f821691505b6020821081036137eb576137ea613791565b5b50919050565b7f4552433732313a20617070726f76656420717565727920666f72206e6f6e657860008201527f697374656e7420746f6b656e0000000000000000000000000000000000000000602082015250565b600061384d602c83612e4b565b9150613858826137f1565b604082019050919050565b6000602082019050818103600083015261387c81613840565b9050919050565b7f4552433732313a20617070726f76616c20746f2063757272656e74206f776e6560008201527f7200000000000000000000000000000000000000000000000000000000000000602082015250565b60006138df602183612e4b565b91506138ea82613883565b604082019050919050565b6000602082019050818103600083015261390e816138d2565b9050919050565b7f4552433732313a20617070726f76652063616c6c6572206973206e6f74206f7760008201527f6e6572206e6f7220617070726f76656420666f7220616c6c0000000000000000602082015250565b6000613971603883612e4b565b915061397c82613915565b604082019050919050565b600060208201905081810360008301526139a081613964565b9050919050565b7f4e487b7100000000000000000000000000000000000000000000000000000000600052601160045260246000fd5b60006139e182612ef2565b91506139ec83612ef2565b9250828203905081811115613a0457613a036139a7565b5b92915050565b7f4e487b7100000000000000000000000000000000000000000000000000000000600052603260045260246000fd5b6000613a4482612ef2565b9150613a4f83612ef2565b9250828201905080821115613a6757613a666139a7565b5b92915050565b6000613a7882612ef2565b91507fffffffffffffffffffffffffffffffffffffffffffffffffffffffffffffffff8203613aaa57613aa96139a7565b5b600182019050919050565b7f4552433732313a207472616e736665722063616c6c6572206973206e6f74206f60008201527f776e6572206e6f7220617070726f766564000000000000000000000000000000602082015250565b6000613b11603183612e4b565b9150613b1c82613ab5565b604082019050919050565b60006020820190508181036000830152613b4081613b04565b9050919050565b7f4552433732313a206f776e657220717565727920666f72206e6f6e657869737460008201527f656e7420746f6b656e0000000000000000000000000000000000000000000000602082015250565b6000613ba3602983612e4b565b9150613bae82613b47565b604082019050919050565b60006020820190508181036000830152613bd281613b96565b9050919050565b7f4552433732313a2062616c616e636520717565727920666f7220746865207a6560008201527f726f206164647265737300000000000000000000000000000000000000000000602082015250565b6000613c35602a83612e4b565b9150613c4082613bd9565b604082019050919050565b60006020820190508181036000830152613c6481613c28565b9050919050565b7f4f6e6c79206974656d206f776e65722063616e20706572666f726d207468697360008201527f206f7065726174696f6e00000000000000000000000000000000000000000000602082015250565b6000613cc7602a83612e4b565b9150613cd282613c6b565b604082019050919050565b60006020820190508181036000830152613cf681613cba565b9050919050565b7f5072696365206d75737420626520657175616c20746f206c697374696e67207060008201527f7269636500000000000000000000000000000000000000000000000000000000602082015250565b6000613d59602483612e4b565b9150613d6482613cfd565b604082019050919050565b60006020820190508181036000830152613d8881613d4c565b9050919050565b60008190508160005260206000209050919050565b60006020601f8301049050919050565b600082821b905092915050565b600060088302613df17fffffffffffffffffffffffffffffffffffffffffffffffffffffffffffffffff82613db4565b613dfb8683613db4565b95508019841693508086168417925050509392505050565b6000819050919050565b6000613e38613e33613e2e84612ef2565b613e13565b612ef2565b9050919050565b6000819050919050565b613e5283613e1d565b613e66613e5e82613e3f565b848454613dc1565b825550505050565b600090565b613e7b613e6e565b613e86818484613e49565b505050565b5b81811015613eaa57613e9f600082613e73565b600181019050613e8c565b5050565b601f821115613eef57613ec081613d8f565b613ec984613da4565b81016020851015613ed8578190505b613eec613ee485613da4565b830182613e8b565b50505b505050565b600082821c905092915050565b6000613f1260001984600802613ef4565b1980831691505092915050565b6000613f2b8383613f01565b9150826002028217905092915050565b613f4482612e40565b67ffffffffffffffff811115613f5d57613f5c6132c7565b5b613f6782546137c0565b613f72828285613eae565b600060209050601f831160018114613fa55760008415613f93578287015190505b613f9d8582613f1f565b865550614005565b601f198416613fb386613d8f565b60005b82811015613fdb57848901518255600182019150602085019450602081019050613fb6565b86831015613ff85784890151613ff4601f891682613f01565b8355505b6001600288020188555050505b505050505050565b600061401882612ef2565b91506000820361402b5761402a6139a7565b5b600182039050919050565b7f4f6e6c79206d61726b6574706c616365206f776e65722063616e20757064617460008201527f65206c697374696e672070726963652e00000000000000000000000000000000602082015250565b6000614092603083612e4b565b915061409d82614036565b604082019050919050565b600060208201905081810360008301526140c181614085565b9050919050565b7f506c65617365207375626d6974207468652061736b696e67207072696365206960008201527f6e206f7264657220746f20636f6d706c65746520746865207075726368617365602082015250565b6000614124604083612e4b565b915061412f826140c8565b604082019050919050565b6000602082019050818103600083015261415381614117565b9050919050565b7f45524337323155524953746f726167653a2055524920717565727920666f722060008201527f6e6f6e6578697374656e7420746f6b656e000000000000000000000000000000602082015250565b60006141b6603183612e4b565b91506141c18261415a565b604082019050919050565b600060208201905081810360008301526141e5816141a9565b9050919050565b600081905092915050565b600061420282612e40565b61420c81856141ec565b935061421c818560208601612e5c565b80840191505092915050565b600061423482856141f7565b915061424082846141f7565b91508190509392505050565b7f4552433732313a206f70657261746f7220717565727920666f72206e6f6e657860008201527f697374656e7420746f6b656e0000000000000000000000000000000000000000602082015250565b60006142a8602c83612e4b565b91506142b38261424c565b604082019050919050565b600060208201905081810360008301526142d78161429b565b9050919050565b7f4552433732313a207472616e736665722066726f6d20696e636f72726563742060008201527f6f776e6572000000000000000000000000000000000000000000000000000000602082015250565b600061433a602583612e4b565b9150614345826142de565b604082019050919050565b600060208201905081810360008301526143698161432d565b9050919050565b7f4552433732313a207472616e7366657220746f20746865207a65726f2061646460008201527f7265737300000000000000000000000000000000000000000000000000000000602082015250565b60006143cc602483612e4b565b91506143d782614370565b604082019050919050565b600060208201905081810360008301526143fb816143bf565b9050919050565b7f4552433732313a20617070726f766520746f2063616c6c657200000000000000600082015250565b6000614438601983612e4b565b915061444382614402565b602082019050919050565b600060208201905081810360008301526144678161442b565b9050919050565b7f4552433732313a207472616e7366657220746f206e6f6e20455243373231526560008201527f63656976657220696d706c656d656e7465720000000000000000000000000000602082015250565b60006144ca603283612e4b565b91506144d58261446e565b604082019050919050565b600060208201905081810360008301526144f9816144bd565b9050919050565b7f4552433732313a206d696e7420746f20746865207a65726f2061646472657373600082015250565b6000614536602083612e4b565b915061454182614500565b602082019050919050565b6000602082019050818103600083015261456581614529565b9050919050565b7f4552433732313a20746f6b656e20616c7265616479206d696e74656400000000600082015250565b60006145a2601c83612e4b565b91506145ad8261456c565b602082019050919050565b600060208201905081810360008301526145d181614595565b9050919050565b7f45524337323155524953746f726167653a2055524920736574206f66206e6f6e60008201527f6578697374656e7420746f6b656e000000000000000000000000000000000000602082015250565b6000614634602e83612e4b565b915061463f826145d8565b604082019050919050565b6000602082019050818103600083015261466381614627565b9050919050565b7f5072696365206d757374206265206174206c6561737420312077656900000000600082015250565b60006146a0601c83612e4b565b91506146ab8261466a565b602082019050919050565b600060208201905081810360008301526146cf81614693565b9050919050565b600060a0820190506146eb6000830188612f87565b6146f86020830187612f87565b6147056040830186613213565b6147126060830185612e16565b81810360808301526147248184612e97565b90509695505050505050565b7f4552433732314d657461646174613a2055524920717565727920666f72206e6f60008201527f6e6578697374656e7420746f6b656e0000000000000000000000000000000000602082015250565b600061478c602f83612e4b565b915061479782614730565b604082019050919050565b600060208201905081810360008301526147bb8161477f565b9050919050565b600081519050919050565b600082825260208201905092915050565b60006147e9826147c2565b6147f381856147cd565b9350614803818560208601612e5c565b61480c81612e86565b840191505092915050565b600060808201905061482c6000830187612f87565b6148396020830186612f87565b6148466040830185613213565b818103606083015261485881846147de565b905095945050505050565b60008151905061487281612db1565b92915050565b60006020828403121561488e5761488d612d7b565b5b600061489c84828501614863565b91505092915050565b7f4e487b7100000000000000000000000000000000000000000000000000000000600052601260045260246000fd5b60006148df82612ef2565b91506148ea83612ef2565b9250826148fa576148f96148a5565b5b828204905092915050565b600061491082612ef2565b915061491b83612ef2565b92508261492b5761492a6148a5565b5b82820690509291505056fea26469706673582212205366da08a1023842d8c2168fc63a52415d0e879af653e2ebdcc26228fc60eb1764736f6c63430008140033","opcodes":"PUSH1 0x80 PUSH1 0x40 MSTORE PUSH7 0x58D15E17628000 PUSH1 0x9 SSTORE CALLVALUE DUP1 ISZERO PUSH3 0x1C JUMPI PUSH1 0x0 DUP1 REVERT JUMPDEST POP PUSH1 0x40 MLOAD DUP1 PUSH1 0x40 ADD PUSH1 0x40 MSTORE DUP1 PUSH1 0x10 DUP2 MSTORE PUSH1 0x20 ADD PUSH32 0x4D657461766572736520546F6B656E7300000000000000000000000000000000 DUP2 MSTORE POP PUSH1 0x40 MLOAD DUP1 PUSH1 0x40 ADD PUSH1 0x40 MSTORE DUP1 PUSH1 0x4 DUP2 MSTORE PUSH1 0x20 ADD PUSH32 0x4D45545400000000000000000000000000000000000000000000000000000000 DUP2 MSTORE POP DUP2 PUSH1 0x0 SWAP1 DUP2 PUSH3 0x9A SWAP2 SWAP1 PUSH3 0x370 JUMP JUMPDEST POP DUP1 PUSH1 0x1 SWAP1 DUP2 PUSH3 0xAC SWAP2 SWAP1 PUSH3 0x370 JUMP JUMPDEST POP POP POP CALLER PUSH1 0xA PUSH1 0x0 PUSH2 0x100 EXP DUP2 SLOAD DUP2 PUSH20 0xFFFFFFFFFFFFFFFFFFFFFFFFFFFFFFFFFFFFFFFF MUL NOT AND SWAP1 DUP4 PUSH20 0xFFFFFFFFFFFFFFFFFFFFFFFFFFFFFFFFFFFFFFFF AND MUL OR SWAP1 SSTORE POP PUSH3 0x457 JUMP JUMPDEST PUSH1 0x0 DUP2 MLOAD SWAP1 POP SWAP2 SWAP1 POP JUMP JUMPDEST PUSH32 0x4E487B7100000000000000000000000000000000000000000000000000000000 PUSH1 0x0 MSTORE PUSH1 0x41 PUSH1 0x4 MSTORE PUSH1 0x24 PUSH1 0x0 REVERT JUMPDEST PUSH32 0x4E487B7100000000000000000000000000000000000000000000000000000000 PUSH1 0x0 MSTORE PUSH1 0x22 PUSH1 0x4 MSTORE PUSH1 0x24 PUSH1 0x0 REVERT JUMPDEST PUSH1 0x0 PUSH1 0x2 DUP3 DIV SWAP1 POP PUSH1 0x1 DUP3 AND DUP1 PUSH3 0x178 JUMPI PUSH1 0x7F DUP3 AND SWAP2 POP JUMPDEST PUSH1 0x20 DUP3 LT DUP2 SUB PUSH3 0x18E JUMPI PUSH3 0x18D PUSH3 0x130 JUMP JUMPDEST JUMPDEST POP SWAP2 SWAP1 POP JUMP JUMPDEST PUSH1 0x0 DUP2 SWAP1 POP DUP2 PUSH1 0x0 MSTORE PUSH1 0x20 PUSH1 0x0 KECCAK256 SWAP1 POP SWAP2 SWAP1 POP JUMP JUMPDEST PUSH1 0x0 PUSH1 0x20 PUSH1 0x1F DUP4 ADD DIV SWAP1 POP SWAP2 SWAP1 POP JUMP JUMPDEST PUSH1 0x0 DUP3 DUP3 SHL SWAP1 POP SWAP3 SWAP2 POP POP JUMP JUMPDEST PUSH1 0x0 PUSH1 0x8 DUP4 MUL PUSH3 0x1F8 PUSH32 0xFFFFFFFFFFFFFFFFFFFFFFFFFFFFFFFFFFFFFFFFFFFFFFFFFFFFFFFFFFFFFFFF DUP3 PUSH3 0x1B9 JUMP JUMPDEST PUSH3 0x204 DUP7 DUP4 PUSH3 0x1B9 JUMP JUMPDEST SWAP6 POP DUP1 NOT DUP5 AND SWAP4 POP DUP1 DUP7 AND DUP5 OR SWAP3 POP POP POP SWAP4 SWAP3 POP POP POP JUMP JUMPDEST PUSH1 0x0 DUP2 SWAP1 POP SWAP2 SWAP1 POP JUMP JUMPDEST PUSH1 0x0 DUP2 SWAP1 POP SWAP2 SWAP1 POP JUMP JUMPDEST PUSH1 0x0 PUSH3 0x251 PUSH3 0x24B PUSH3 0x245 DUP5 PUSH3 0x21C JUMP JUMPDEST PUSH3 0x226 JUMP JUMPDEST PUSH3 0x21C JUMP JUMPDEST SWAP1 POP SWAP2 SWAP1 POP JUMP JUMPDEST PUSH1 0x0 DUP2 SWAP1 POP SWAP2 SWAP1 POP JUMP JUMPDEST PUSH3 0x26D DUP4 PUSH3 0x230 JUMP JUMPDEST PUSH3 0x285 PUSH3 0x27C DUP3 PUSH3 0x258 JUMP JUMPDEST DUP5 DUP5 SLOAD PUSH3 0x1C6 JUMP JUMPDEST DUP3 SSTORE POP POP POP POP JUMP JUMPDEST PUSH1 0x0 SWAP1 JUMP JUMPDEST PUSH3 0x29C PUSH3 0x28D JUMP JUMPDEST PUSH3 0x2A9 DUP2 DUP5 DUP5 PUSH3 0x262 JUMP JUMPDEST POP POP POP JUMP JUMPDEST JUMPDEST DUP2 DUP2 LT ISZERO PUSH3 0x2D1 JUMPI PUSH3 0x2C5 PUSH1 0x0 DUP3 PUSH3 0x292 JUMP JUMPDEST PUSH1 0x1 DUP2 ADD SWAP1 POP PUSH3 0x2AF JUMP JUMPDEST POP POP JUMP JUMPDEST PUSH1 0x1F DUP3 GT ISZERO PUSH3 0x320 JUMPI PUSH3 0x2EA DUP2 PUSH3 0x194 JUMP JUMPDEST PUSH3 0x2F5 DUP5 PUSH3 0x1A9 JUMP JUMPDEST DUP2 ADD PUSH1 0x20 DUP6 LT ISZERO PUSH3 0x305 JUMPI DUP2 SWAP1 POP JUMPDEST PUSH3 0x31D PUSH3 0x314 DUP6 PUSH3 0x1A9 JUMP JUMPDEST DUP4 ADD DUP3 PUSH3 0x2AE JUMP JUMPDEST POP POP JUMPDEST POP POP POP JUMP JUMPDEST PUSH1 0x0 DUP3 DUP3 SHR SWAP1 POP SWAP3 SWAP2 POP POP JUMP JUMPDEST PUSH1 0x0 PUSH3 0x345 PUSH1 0x0 NOT DUP5 PUSH1 0x8 MUL PUSH3 0x325 JUMP JUMPDEST NOT DUP1 DUP4 AND SWAP2 POP POP SWAP3 SWAP2 POP POP JUMP JUMPDEST PUSH1 0x0 PUSH3 0x360 DUP4 DUP4 PUSH3 0x332 JUMP JUMPDEST SWAP2 POP DUP3 PUSH1 0x2 MUL DUP3 OR SWAP1 POP SWAP3 SWAP2 POP POP JUMP JUMPDEST PUSH3 0x37B DUP3 PUSH3 0xF6 JUMP JUMPDEST PUSH8 0xFFFFFFFFFFFFFFFF DUP2 GT ISZERO PUSH3 0x397 JUMPI PUSH3 0x396 PUSH3 0x101 JUMP JUMPDEST JUMPDEST PUSH3 0x3A3 DUP3 SLOAD PUSH3 0x15F JUMP JUMPDEST PUSH3 0x3B0 DUP3 DUP3 DUP6 PUSH3 0x2D5 JUMP JUMPDEST PUSH1 0x0 PUSH1 0x20 SWAP1 POP PUSH1 0x1F DUP4 GT PUSH1 0x1 DUP2 EQ PUSH3 0x3E8 JUMPI PUSH1 0x0 DUP5 ISZERO PUSH3 0x3D3 JUMPI DUP3 DUP8 ADD MLOAD SWAP1 POP JUMPDEST PUSH3 0x3DF DUP6 DUP3 PUSH3 0x352 JUMP JUMPDEST DUP7 SSTORE POP PUSH3 0x44F JUMP JUMPDEST PUSH1 0x1F NOT DUP5 AND PUSH3 0x3F8 DUP7 PUSH3 0x194 JUMP JUMPDEST PUSH1 0x0 JUMPDEST DUP3 DUP2 LT ISZERO PUSH3 0x422 JUMPI DUP5 DUP10 ADD MLOAD DUP3 SSTORE PUSH1 0x1 DUP3 ADD SWAP2 POP PUSH1 0x20 DUP6 ADD SWAP5 POP PUSH1 0x20 DUP2 ADD SWAP1 POP PUSH3 0x3FB JUMP JUMPDEST DUP7 DUP4 LT ISZERO PUSH3 0x442 JUMPI DUP5 DUP10 ADD MLOAD PUSH3 0x43E PUSH1 0x1F DUP10 AND DUP3 PUSH3 0x332 JUMP JUMPDEST DUP4 SSTORE POP JUMPDEST PUSH1 0x1 PUSH1 0x2 DUP9 MUL ADD DUP9 SSTORE POP POP POP JUMPDEST POP POP POP POP POP POP JUMP JUMPDEST PUSH2 0x496C DUP1 PUSH3 0x467 PUSH1 0x0 CODECOPY PUSH1 0x0 RETURN INVALID PUSH1 0x80 PUSH1 0x40 MSTORE PUSH1 0x4 CALLDATASIZE LT PUSH2 0x14B JUMPI PUSH1 0x0 CALLDATALOAD PUSH1 0xE0 SHR DUP1 PUSH4 0x824DF416 GT PUSH2 0xB6 JUMPI DUP1 PUSH4 0xB88D4FDE GT PUSH2 0x6F JUMPI DUP1 PUSH4 0xB88D4FDE EQ PUSH2 0x48A JUMPI DUP1 PUSH4 0xBE9AF536 EQ PUSH2 0x4B3 JUMPI DUP1 PUSH4 0xC6C9B5B1 EQ PUSH2 0x4CF JUMPI DUP1 PUSH4 0xC78F19F9 EQ PUSH2 0x4FF JUMPI DUP1 PUSH4 0xC87B56DD EQ PUSH2 0x52A JUMPI DUP1 PUSH4 0xE985E9C5 EQ PUSH2 0x567 JUMPI PUSH2 0x14B JUMP JUMPDEST DUP1 PUSH4 0x824DF416 EQ PUSH2 0x396 JUMPI DUP1 PUSH4 0x8DA5CB5B EQ PUSH2 0x3B2 JUMPI DUP1 PUSH4 0x95D89B41 EQ PUSH2 0x3DD JUMPI DUP1 PUSH4 0xA22CB465 EQ PUSH2 0x408 JUMPI DUP1 PUSH4 0xAE677AA3 EQ PUSH2 0x431 JUMPI DUP1 PUSH4 0xB863A7CD EQ PUSH2 0x44D JUMPI PUSH2 0x14B JUMP JUMPDEST DUP1 PUSH4 0x202E3740 GT PUSH2 0x108 JUMPI DUP1 PUSH4 0x202E3740 EQ PUSH2 0x274 JUMPI DUP1 PUSH4 0x23B872DD EQ PUSH2 0x29F JUMPI DUP1 PUSH4 0x42842E0E EQ PUSH2 0x2C8 JUMPI DUP1 PUSH4 0x45F8FA80 EQ PUSH2 0x2F1 JUMPI DUP1 PUSH4 0x6352211E EQ PUSH2 0x31C JUMPI DUP1 PUSH4 0x70A08231 EQ PUSH2 0x359 JUMPI PUSH2 0x14B JUMP JUMPDEST DUP1 PUSH4 0x1FFC9A7 EQ PUSH2 0x150 JUMPI DUP1 PUSH4 0x6FDDE03 EQ PUSH2 0x18D JUMPI DUP1 PUSH4 0x81812FC EQ PUSH2 0x1B8 JUMPI DUP1 PUSH4 0x95EA7B3 EQ PUSH2 0x1F5 JUMPI DUP1 PUSH4 0xF08EFE0 EQ PUSH2 0x21E JUMPI DUP1 PUSH4 0x12E85585 EQ PUSH2 0x249 JUMPI JUMPDEST PUSH1 0x0 DUP1 REVERT JUMPDEST CALLVALUE DUP1 ISZERO PUSH2 0x15C JUMPI PUSH1 0x0 DUP1 REVERT JUMPDEST POP PUSH2 0x177 PUSH1 0x4 DUP1 CALLDATASIZE SUB DUP2 ADD SWAP1 PUSH2 0x172 SWAP2 SWAP1 PUSH2 0x2DDD JUMP JUMPDEST PUSH2 0x5A4 JUMP JUMPDEST PUSH1 0x40 MLOAD PUSH2 0x184 SWAP2 SWAP1 PUSH2 0x2E25 JUMP JUMPDEST PUSH1 0x40 MLOAD DUP1 SWAP2 SUB SWAP1 RETURN JUMPDEST CALLVALUE DUP1 ISZERO PUSH2 0x199 JUMPI PUSH1 0x0 DUP1 REVERT JUMPDEST POP PUSH2 0x1A2 PUSH2 0x686 JUMP JUMPDEST PUSH1 0x40 MLOAD PUSH2 0x1AF SWAP2 SWAP1 PUSH2 0x2ED0 JUMP JUMPDEST PUSH1 0x40 MLOAD DUP1 SWAP2 SUB SWAP1 RETURN JUMPDEST CALLVALUE DUP1 ISZERO PUSH2 0x1C4 JUMPI PUSH1 0x0 DUP1 REVERT JUMPDEST POP PUSH2 0x1DF PUSH1 0x4 DUP1 CALLDATASIZE SUB DUP2 ADD SWAP1 PUSH2 0x1DA SWAP2 SWAP1 PUSH2 0x2F28 JUMP JUMPDEST PUSH2 0x718 JUMP JUMPDEST PUSH1 0x40 MLOAD PUSH2 0x1EC SWAP2 SWAP1 PUSH2 0x2F96 JUMP JUMPDEST PUSH1 0x40 MLOAD DUP1 SWAP2 SUB SWAP1 RETURN JUMPDEST CALLVALUE DUP1 ISZERO PUSH2 0x201 JUMPI PUSH1 0x0 DUP1 REVERT JUMPDEST POP PUSH2 0x21C PUSH1 0x4 DUP1 CALLDATASIZE SUB DUP2 ADD SWAP1 PUSH2 0x217 SWAP2 SWAP1 PUSH2 0x2FDD JUMP JUMPDEST PUSH2 0x79D JUMP JUMPDEST STOP JUMPDEST CALLVALUE DUP1 ISZERO PUSH2 0x22A JUMPI PUSH1 0x0 DUP1 REVERT JUMPDEST POP PUSH2 0x233 PUSH2 0x8B4 JUMP JUMPDEST PUSH1 0x40 MLOAD PUSH2 0x240 SWAP2 SWAP1 PUSH2 0x31F1 JUMP JUMPDEST PUSH1 0x40 MLOAD DUP1 SWAP2 SUB SWAP1 RETURN JUMPDEST CALLVALUE DUP1 ISZERO PUSH2 0x255 JUMPI PUSH1 0x0 DUP1 REVERT JUMPDEST POP PUSH2 0x25E PUSH2 0xB84 JUMP JUMPDEST PUSH1 0x40 MLOAD PUSH2 0x26B SWAP2 SWAP1 PUSH2 0x3222 JUMP JUMPDEST PUSH1 0x40 MLOAD DUP1 SWAP2 SUB SWAP1 RETURN JUMPDEST CALLVALUE DUP1 ISZERO PUSH2 0x280 JUMPI PUSH1 0x0 DUP1 REVERT JUMPDEST POP PUSH2 0x289 PUSH2 0xB8E JUMP JUMPDEST PUSH1 0x40 MLOAD PUSH2 0x296 SWAP2 SWAP1 PUSH2 0x31F1 JUMP JUMPDEST PUSH1 0x40 MLOAD DUP1 SWAP2 SUB SWAP1 RETURN JUMPDEST CALLVALUE DUP1 ISZERO PUSH2 0x2AB JUMPI PUSH1 0x0 DUP1 REVERT JUMPDEST POP PUSH2 0x2C6 PUSH1 0x4 DUP1 CALLDATASIZE SUB DUP2 ADD SWAP1 PUSH2 0x2C1 SWAP2 SWAP1 PUSH2 0x323D JUMP JUMPDEST PUSH2 0xEE7 JUMP JUMPDEST STOP JUMPDEST CALLVALUE DUP1 ISZERO PUSH2 0x2D4 JUMPI PUSH1 0x0 DUP1 REVERT JUMPDEST POP PUSH2 0x2EF PUSH1 0x4 DUP1 CALLDATASIZE SUB DUP2 ADD SWAP1 PUSH2 0x2EA SWAP2 SWAP1 PUSH2 0x323D JUMP JUMPDEST PUSH2 0xF47 JUMP JUMPDEST STOP JUMPDEST CALLVALUE DUP1 ISZERO PUSH2 0x2FD JUMPI PUSH1 0x0 DUP1 REVERT JUMPDEST POP PUSH2 0x306 PUSH2 0xF67 JUMP JUMPDEST PUSH1 0x40 MLOAD PUSH2 0x313 SWAP2 SWAP1 PUSH2 0x31F1 JUMP JUMPDEST PUSH1 0x40 MLOAD DUP1 SWAP2 SUB SWAP1 RETURN JUMPDEST CALLVALUE DUP1 ISZERO PUSH2 0x328 JUMPI PUSH1 0x0 DUP1 REVERT JUMPDEST POP PUSH2 0x343 PUSH1 0x4 DUP1 CALLDATASIZE SUB DUP2 ADD SWAP1 PUSH2 0x33E SWAP2 SWAP1 PUSH2 0x2F28 JUMP JUMPDEST PUSH2 0x12C0 JUMP JUMPDEST PUSH1 0x40 MLOAD PUSH2 0x350 SWAP2 SWAP1 PUSH2 0x2F96 JUMP JUMPDEST PUSH1 0x40 MLOAD DUP1 SWAP2 SUB SWAP1 RETURN JUMPDEST CALLVALUE DUP1 ISZERO PUSH2 0x365 JUMPI PUSH1 0x0 DUP1 REVERT JUMPDEST POP PUSH2 0x380 PUSH1 0x4 DUP1 CALLDATASIZE SUB DUP2 ADD SWAP1 PUSH2 0x37B SWAP2 SWAP1 PUSH2 0x3290 JUMP JUMPDEST PUSH2 0x1371 JUMP JUMPDEST PUSH1 0x40 MLOAD PUSH2 0x38D SWAP2 SWAP1 PUSH2 0x3222 JUMP JUMPDEST PUSH1 0x40 MLOAD DUP1 SWAP2 SUB SWAP1 RETURN JUMPDEST PUSH2 0x3B0 PUSH1 0x4 DUP1 CALLDATASIZE SUB DUP2 ADD SWAP1 PUSH2 0x3AB SWAP2 SWAP1 PUSH2 0x33F2 JUMP JUMPDEST PUSH2 0x1428 JUMP JUMPDEST STOP JUMPDEST CALLVALUE DUP1 ISZERO PUSH2 0x3BE JUMPI PUSH1 0x0 DUP1 REVERT JUMPDEST POP PUSH2 0x3C7 PUSH2 0x1650 JUMP JUMPDEST PUSH1 0x40 MLOAD PUSH2 0x3D4 SWAP2 SWAP1 PUSH2 0x3470 JUMP JUMPDEST PUSH1 0x40 MLOAD DUP1 SWAP2 SUB SWAP1 RETURN JUMPDEST CALLVALUE DUP1 ISZERO PUSH2 0x3E9 JUMPI PUSH1 0x0 DUP1 REVERT JUMPDEST POP PUSH2 0x3F2 PUSH2 0x1676 JUMP JUMPDEST PUSH1 0x40 MLOAD PUSH2 0x3FF SWAP2 SWAP1 PUSH2 0x2ED0 JUMP JUMPDEST PUSH1 0x40 MLOAD DUP1 SWAP2 SUB SWAP1 RETURN JUMPDEST CALLVALUE DUP1 ISZERO PUSH2 0x414 JUMPI PUSH1 0x0 DUP1 REVERT JUMPDEST POP PUSH2 0x42F PUSH1 0x4 DUP1 CALLDATASIZE SUB DUP2 ADD SWAP1 PUSH2 0x42A SWAP2 SWAP1 PUSH2 0x34B7 JUMP JUMPDEST PUSH2 0x1708 JUMP JUMPDEST STOP JUMPDEST PUSH2 0x44B PUSH1 0x4 DUP1 CALLDATASIZE SUB DUP2 ADD SWAP1 PUSH2 0x446 SWAP2 SWAP1 PUSH2 0x2F28 JUMP JUMPDEST PUSH2 0x171E JUMP JUMPDEST STOP JUMPDEST CALLVALUE DUP1 ISZERO PUSH2 0x459 JUMPI PUSH1 0x0 DUP1 REVERT JUMPDEST POP PUSH2 0x474 PUSH1 0x4 DUP1 CALLDATASIZE SUB DUP2 ADD SWAP1 PUSH2 0x46F SWAP2 SWAP1 PUSH2 0x2F28 JUMP JUMPDEST PUSH2 0x17B8 JUMP JUMPDEST PUSH1 0x40 MLOAD PUSH2 0x481 SWAP2 SWAP1 PUSH2 0x3580 JUMP JUMPDEST PUSH1 0x40 MLOAD DUP1 SWAP2 SUB SWAP1 RETURN JUMPDEST CALLVALUE DUP1 ISZERO PUSH2 0x496 JUMPI PUSH1 0x0 DUP1 REVERT JUMPDEST POP PUSH2 0x4B1 PUSH1 0x4 DUP1 CALLDATASIZE SUB DUP2 ADD SWAP1 PUSH2 0x4AC SWAP2 SWAP1 PUSH2 0x3643 JUMP JUMPDEST PUSH2 0x1952 JUMP JUMPDEST STOP JUMPDEST PUSH2 0x4CD PUSH1 0x4 DUP1 CALLDATASIZE SUB DUP2 ADD SWAP1 PUSH2 0x4C8 SWAP2 SWAP1 PUSH2 0x2F28 JUMP JUMPDEST PUSH2 0x19B4 JUMP JUMPDEST STOP JUMPDEST PUSH2 0x4E9 PUSH1 0x4 DUP1 CALLDATASIZE SUB DUP2 ADD SWAP1 PUSH2 0x4E4 SWAP2 SWAP1 PUSH2 0x36C6 JUMP JUMPDEST PUSH2 0x1BFA JUMP JUMPDEST PUSH1 0x40 MLOAD PUSH2 0x4F6 SWAP2 SWAP1 PUSH2 0x3222 JUMP JUMPDEST PUSH1 0x40 MLOAD DUP1 SWAP2 SUB SWAP1 RETURN JUMPDEST CALLVALUE DUP1 ISZERO PUSH2 0x50B JUMPI PUSH1 0x0 DUP1 REVERT JUMPDEST POP PUSH2 0x514 PUSH2 0x1C45 JUMP JUMPDEST PUSH1 0x40 MLOAD PUSH2 0x521 SWAP2 SWAP1 PUSH2 0x3222 JUMP JUMPDEST PUSH1 0x40 MLOAD DUP1 SWAP2 SUB SWAP1 RETURN JUMPDEST CALLVALUE DUP1 ISZERO PUSH2 0x536 JUMPI PUSH1 0x0 DUP1 REVERT JUMPDEST POP PUSH2 0x551 PUSH1 0x4 DUP1 CALLDATASIZE SUB DUP2 ADD SWAP1 PUSH2 0x54C SWAP2 SWAP1 PUSH2 0x2F28 JUMP JUMPDEST PUSH2 0x1C4B JUMP JUMPDEST PUSH1 0x40 MLOAD PUSH2 0x55E SWAP2 SWAP1 PUSH2 0x2ED0 JUMP JUMPDEST PUSH1 0x40 MLOAD DUP1 SWAP2 SUB SWAP1 RETURN JUMPDEST CALLVALUE DUP1 ISZERO PUSH2 0x573 JUMPI PUSH1 0x0 DUP1 REVERT JUMPDEST POP PUSH2 0x58E PUSH1 0x4 DUP1 CALLDATASIZE SUB DUP2 ADD SWAP1 PUSH2 0x589 SWAP2 SWAP1 PUSH2 0x3751 JUMP JUMPDEST PUSH2 0x1D9C JUMP JUMPDEST PUSH1 0x40 MLOAD PUSH2 0x59B SWAP2 SWAP1 PUSH2 0x2E25 JUMP JUMPDEST PUSH1 0x40 MLOAD DUP1 SWAP2 SUB SWAP1 RETURN JUMPDEST PUSH1 0x0 PUSH32 0x80AC58CD00000000000000000000000000000000000000000000000000000000 PUSH28 0xFFFFFFFFFFFFFFFFFFFFFFFFFFFFFFFFFFFFFFFFFFFFFFFFFFFFFFFF NOT AND DUP3 PUSH28 0xFFFFFFFFFFFFFFFFFFFFFFFFFFFFFFFFFFFFFFFFFFFFFFFFFFFFFFFF NOT AND EQ DUP1 PUSH2 0x66F JUMPI POP PUSH32 0x5B5E139F00000000000000000000000000000000000000000000000000000000 PUSH28 0xFFFFFFFFFFFFFFFFFFFFFFFFFFFFFFFFFFFFFFFFFFFFFFFFFFFFFFFF NOT AND DUP3 PUSH28 0xFFFFFFFFFFFFFFFFFFFFFFFFFFFFFFFFFFFFFFFFFFFFFFFFFFFFFFFF NOT AND EQ JUMPDEST DUP1 PUSH2 0x67F JUMPI POP PUSH2 0x67E DUP3 PUSH2 0x1E30 JUMP JUMPDEST JUMPDEST SWAP1 POP SWAP2 SWAP1 POP JUMP JUMPDEST PUSH1 0x60 PUSH1 0x0 DUP1 SLOAD PUSH2 0x695 SWAP1 PUSH2 0x37C0 JUMP JUMPDEST DUP1 PUSH1 0x1F ADD PUSH1 0x20 DUP1 SWAP2 DIV MUL PUSH1 0x20 ADD PUSH1 0x40 MLOAD SWAP1 DUP2 ADD PUSH1 0x40 MSTORE DUP1 SWAP3 SWAP2 SWAP1 DUP2 DUP2 MSTORE PUSH1 0x20 ADD DUP3 DUP1 SLOAD PUSH2 0x6C1 SWAP1 PUSH2 0x37C0 JUMP JUMPDEST DUP1 ISZERO PUSH2 0x70E JUMPI DUP1 PUSH1 0x1F LT PUSH2 0x6E3 JUMPI PUSH2 0x100 DUP1 DUP4 SLOAD DIV MUL DUP4 MSTORE SWAP2 PUSH1 0x20 ADD SWAP2 PUSH2 0x70E JUMP JUMPDEST DUP3 ADD SWAP2 SWAP1 PUSH1 0x0 MSTORE PUSH1 0x20 PUSH1 0x0 KECCAK256 SWAP1 JUMPDEST DUP2 SLOAD DUP2 MSTORE SWAP1 PUSH1 0x1 ADD SWAP1 PUSH1 0x20 ADD DUP1 DUP4 GT PUSH2 0x6F1 JUMPI DUP3 SWAP1 SUB PUSH1 0x1F AND DUP3 ADD SWAP2 JUMPDEST POP POP POP POP POP SWAP1 POP SWAP1 JUMP JUMPDEST PUSH1 0x0 PUSH2 0x723 DUP3 PUSH2 0x1E9A JUMP JUMPDEST PUSH2 0x762 JUMPI PUSH1 0x40 MLOAD PUSH32 0x8C379A000000000000000000000000000000000000000000000000000000000 DUP2 MSTORE PUSH1 0x4 ADD PUSH2 0x759 SWAP1 PUSH2 0x3863 JUMP JUMPDEST PUSH1 0x40 MLOAD DUP1 SWAP2 SUB SWAP1 REVERT JUMPDEST PUSH1 0x4 PUSH1 0x0 DUP4 DUP2 MSTORE PUSH1 0x20 ADD SWAP1 DUP2 MSTORE PUSH1 0x20 ADD PUSH1 0x0 KECCAK256 PUSH1 0x0 SWAP1 SLOAD SWAP1 PUSH2 0x100 EXP SWAP1 DIV PUSH20 0xFFFFFFFFFFFFFFFFFFFFFFFFFFFFFFFFFFFFFFFF AND SWAP1 POP SWAP2 SWAP1 POP JUMP JUMPDEST PUSH1 0x0 PUSH2 0x7A8 DUP3 PUSH2 0x12C0 JUMP JUMPDEST SWAP1 POP DUP1 PUSH20 0xFFFFFFFFFFFFFFFFFFFFFFFFFFFFFFFFFFFFFFFF AND DUP4 PUSH20 0xFFFFFFFFFFFFFFFFFFFFFFFFFFFFFFFFFFFFFFFF AND SUB PUSH2 0x818 JUMPI PUSH1 0x40 MLOAD PUSH32 0x8C379A000000000000000000000000000000000000000000000000000000000 DUP2 MSTORE PUSH1 0x4 ADD PUSH2 0x80F SWAP1 PUSH2 0x38F5 JUMP JUMPDEST PUSH1 0x40 MLOAD DUP1 SWAP2 SUB SWAP1 REVERT JUMPDEST DUP1 PUSH20 0xFFFFFFFFFFFFFFFFFFFFFFFFFFFFFFFFFFFFFFFF AND PUSH2 0x837 PUSH2 0x1F06 JUMP JUMPDEST PUSH20 0xFFFFFFFFFFFFFFFFFFFFFFFFFFFFFFFFFFFFFFFF AND EQ DUP1 PUSH2 0x866 JUMPI POP PUSH2 0x865 DUP2 PUSH2 0x860 PUSH2 0x1F06 JUMP JUMPDEST PUSH2 0x1D9C JUMP JUMPDEST JUMPDEST PUSH2 0x8A5 JUMPI PUSH1 0x40 MLOAD PUSH32 0x8C379A000000000000000000000000000000000000000000000000000000000 DUP2 MSTORE PUSH1 0x4 ADD PUSH2 0x89C SWAP1 PUSH2 0x3987 JUMP JUMPDEST PUSH1 0x40 MLOAD DUP1 SWAP2 SUB SWAP1 REVERT JUMPDEST PUSH2 0x8AF DUP4 DUP4 PUSH2 0x1F0E JUMP JUMPDEST POP POP POP JUMP JUMPDEST PUSH1 0x60 PUSH1 0x0 PUSH1 0x7 SLOAD SWAP1 POP PUSH1 0x0 PUSH1 0x8 SLOAD PUSH1 0x7 SLOAD PUSH2 0x8CF SWAP2 SWAP1 PUSH2 0x39D6 JUMP JUMPDEST SWAP1 POP PUSH1 0x0 DUP1 DUP3 PUSH8 0xFFFFFFFFFFFFFFFF DUP2 GT ISZERO PUSH2 0x8EE JUMPI PUSH2 0x8ED PUSH2 0x32C7 JUMP JUMPDEST JUMPDEST PUSH1 0x40 MLOAD SWAP1 DUP1 DUP3 MSTORE DUP1 PUSH1 0x20 MUL PUSH1 0x20 ADD DUP3 ADD PUSH1 0x40 MSTORE DUP1 ISZERO PUSH2 0x927 JUMPI DUP2 PUSH1 0x20 ADD JUMPDEST PUSH2 0x914 PUSH2 0x2D0D JUMP JUMPDEST DUP2 MSTORE PUSH1 0x20 ADD SWAP1 PUSH1 0x1 SWAP1 SUB SWAP1 DUP2 PUSH2 0x90C JUMPI SWAP1 POP JUMPDEST POP SWAP1 POP PUSH1 0x0 PUSH1 0x1 SWAP1 POP JUMPDEST DUP5 DUP2 GT PUSH2 0xB79 JUMPI ADDRESS PUSH20 0xFFFFFFFFFFFFFFFFFFFFFFFFFFFFFFFFFFFFFFFF AND PUSH1 0xB PUSH1 0x0 DUP4 DUP2 MSTORE PUSH1 0x20 ADD SWAP1 DUP2 MSTORE PUSH1 0x20 ADD PUSH1 0x0 KECCAK256 PUSH1 0x2 ADD PUSH1 0x0 SWAP1 SLOAD SWAP1 PUSH2 0x100 EXP SWAP1 DIV PUSH20 0xFFFFFFFFFFFFFFFFFFFFFFFFFFFFFFFFFFFFFFFF AND PUSH20 0xFFFFFFFFFFFFFFFFFFFFFFFFFFFFFFFFFFFFFFFF AND SUB PUSH2 0xB66 JUMPI PUSH1 0x0 DUP2 SWAP1 POP PUSH1 0x0 PUSH1 0xB PUSH1 0x0 DUP4 DUP2 MSTORE PUSH1 0x20 ADD SWAP1 DUP2 MSTORE PUSH1 0x20 ADD PUSH1 0x0 KECCAK256 SWAP1 POP DUP1 PUSH1 0x40 MLOAD DUP1 PUSH1 0xC0 ADD PUSH1 0x40 MSTORE SWAP1 DUP2 PUSH1 0x0 DUP3 ADD SLOAD DUP2 MSTORE PUSH1 0x20 ADD PUSH1 0x1 DUP3 ADD PUSH1 0x0 SWAP1 SLOAD SWAP1 PUSH2 0x100 EXP SWAP1 DIV PUSH20 0xFFFFFFFFFFFFFFFFFFFFFFFFFFFFFFFFFFFFFFFF AND PUSH20 0xFFFFFFFFFFFFFFFFFFFFFFFFFFFFFFFFFFFFFFFF AND PUSH20 0xFFFFFFFFFFFFFFFFFFFFFFFFFFFFFFFFFFFFFFFF AND DUP2 MSTORE PUSH1 0x20 ADD PUSH1 0x2 DUP3 ADD PUSH1 0x0 SWAP1 SLOAD SWAP1 PUSH2 0x100 EXP SWAP1 DIV PUSH20 0xFFFFFFFFFFFFFFFFFFFFFFFFFFFFFFFFFFFFFFFF AND PUSH20 0xFFFFFFFFFFFFFFFFFFFFFFFFFFFFFFFFFFFFFFFF AND PUSH20 0xFFFFFFFFFFFFFFFFFFFFFFFFFFFFFFFFFFFFFFFF AND DUP2 MSTORE PUSH1 0x20 ADD PUSH1 0x3 DUP3 ADD SLOAD DUP2 MSTORE PUSH1 0x20 ADD PUSH1 0x4 DUP3 ADD PUSH1 0x0 SWAP1 SLOAD SWAP1 PUSH2 0x100 EXP SWAP1 DIV PUSH1 0xFF AND ISZERO ISZERO ISZERO ISZERO DUP2 MSTORE PUSH1 0x20 ADD PUSH1 0x5 DUP3 ADD DUP1 SLOAD PUSH2 0xAB4 SWAP1 PUSH2 0x37C0 JUMP JUMPDEST DUP1 PUSH1 0x1F ADD PUSH1 0x20 DUP1 SWAP2 DIV MUL PUSH1 0x20 ADD PUSH1 0x40 MLOAD SWAP1 DUP2 ADD PUSH1 0x40 MSTORE DUP1 SWAP3 SWAP2 SWAP1 DUP2 DUP2 MSTORE PUSH1 0x20 ADD DUP3 DUP1 SLOAD PUSH2 0xAE0 SWAP1 PUSH2 0x37C0 JUMP JUMPDEST DUP1 ISZERO PUSH2 0xB2D JUMPI DUP1 PUSH1 0x1F LT PUSH2 0xB02 JUMPI PUSH2 0x100 DUP1 DUP4 SLOAD DIV MUL DUP4 MSTORE SWAP2 PUSH1 0x20 ADD SWAP2 PUSH2 0xB2D JUMP JUMPDEST DUP3 ADD SWAP2 SWAP1 PUSH1 0x0 MSTORE PUSH1 0x20 PUSH1 0x0 KECCAK256 SWAP1 JUMPDEST DUP2 SLOAD DUP2 MSTORE SWAP1 PUSH1 0x1 ADD SWAP1 PUSH1 0x20 ADD DUP1 DUP4 GT PUSH2 0xB10 JUMPI DUP3 SWAP1 SUB PUSH1 0x1F AND DUP3 ADD SWAP2 JUMPDEST POP POP POP POP POP DUP2 MSTORE POP POP DUP5 DUP7 DUP2 MLOAD DUP2 LT PUSH2 0xB49 JUMPI PUSH2 0xB48 PUSH2 0x3A0A JUMP JUMPDEST JUMPDEST PUSH1 0x20 MUL PUSH1 0x20 ADD ADD DUP2 SWAP1 MSTORE POP PUSH1 0x1 DUP6 PUSH2 0xB61 SWAP2 SWAP1 PUSH2 0x3A39 JUMP JUMPDEST SWAP5 POP POP POP JUMPDEST DUP1 DUP1 PUSH2 0xB71 SWAP1 PUSH2 0x3A6D JUMP JUMPDEST SWAP2 POP POP PUSH2 0x931 JUMP JUMPDEST POP DUP1 SWAP5 POP POP POP POP POP SWAP1 JUMP JUMPDEST PUSH1 0x0 PUSH1 0x9 SLOAD SWAP1 POP SWAP1 JUMP JUMPDEST PUSH1 0x60 PUSH1 0x0 PUSH1 0x7 SLOAD SWAP1 POP PUSH1 0x0 DUP1 PUSH1 0x0 PUSH1 0x1 SWAP1 POP JUMPDEST DUP4 DUP2 GT PUSH2 0xC34 JUMPI CALLER PUSH20 0xFFFFFFFFFFFFFFFFFFFFFFFFFFFFFFFFFFFFFFFF AND PUSH1 0xB PUSH1 0x0 DUP4 DUP2 MSTORE PUSH1 0x20 ADD SWAP1 DUP2 MSTORE PUSH1 0x20 ADD PUSH1 0x0 KECCAK256 PUSH1 0x2 ADD PUSH1 0x0 SWAP1 SLOAD SWAP1 PUSH2 0x100 EXP SWAP1 DIV PUSH20 0xFFFFFFFFFFFFFFFFFFFFFFFFFFFFFFFFFFFFFFFF AND PUSH20 0xFFFFFFFFFFFFFFFFFFFFFFFFFFFFFFFFFFFFFFFF AND SUB PUSH2 0xC21 JUMPI PUSH1 0x1 DUP4 PUSH2 0xC1E SWAP2 SWAP1 PUSH2 0x3A39 JUMP JUMPDEST SWAP3 POP JUMPDEST DUP1 DUP1 PUSH2 0xC2C SWAP1 PUSH2 0x3A6D JUMP JUMPDEST SWAP2 POP POP PUSH2 0xBA1 JUMP JUMPDEST POP PUSH1 0x0 DUP3 PUSH8 0xFFFFFFFFFFFFFFFF DUP2 GT ISZERO PUSH2 0xC51 JUMPI PUSH2 0xC50 PUSH2 0x32C7 JUMP JUMPDEST JUMPDEST PUSH1 0x40 MLOAD SWAP1 DUP1 DUP3 MSTORE DUP1 PUSH1 0x20 MUL PUSH1 0x20 ADD DUP3 ADD PUSH1 0x40 MSTORE DUP1 ISZERO PUSH2 0xC8A JUMPI DUP2 PUSH1 0x20 ADD JUMPDEST PUSH2 0xC77 PUSH2 0x2D0D JUMP JUMPDEST DUP2 MSTORE PUSH1 0x20 ADD SWAP1 PUSH1 0x1 SWAP1 SUB SWAP1 DUP2 PUSH2 0xC6F JUMPI SWAP1 POP JUMPDEST POP SWAP1 POP PUSH1 0x0 PUSH1 0x1 SWAP1 POP JUMPDEST DUP5 DUP2 GT PUSH2 0xEDC JUMPI CALLER PUSH20 0xFFFFFFFFFFFFFFFFFFFFFFFFFFFFFFFFFFFFFFFF AND PUSH1 0xB PUSH1 0x0 DUP4 DUP2 MSTORE PUSH1 0x20 ADD SWAP1 DUP2 MSTORE PUSH1 0x20 ADD PUSH1 0x0 KECCAK256 PUSH1 0x2 ADD PUSH1 0x0 SWAP1 SLOAD SWAP1 PUSH2 0x100 EXP SWAP1 DIV PUSH20 0xFFFFFFFFFFFFFFFFFFFFFFFFFFFFFFFFFFFFFFFF AND PUSH20 0xFFFFFFFFFFFFFFFFFFFFFFFFFFFFFFFFFFFFFFFF AND SUB PUSH2 0xEC9 JUMPI PUSH1 0x0 DUP2 SWAP1 POP PUSH1 0x0 PUSH1 0xB PUSH1 0x0 DUP4 DUP2 MSTORE PUSH1 0x20 ADD SWAP1 DUP2 MSTORE PUSH1 0x20 ADD PUSH1 0x0 KECCAK256 SWAP1 POP DUP1 PUSH1 0x40 MLOAD DUP1 PUSH1 0xC0 ADD PUSH1 0x40 MSTORE SWAP1 DUP2 PUSH1 0x0 DUP3 ADD SLOAD DUP2 MSTORE PUSH1 0x20 ADD PUSH1 0x1 DUP3 ADD PUSH1 0x0 SWAP1 SLOAD SWAP1 PUSH2 0x100 EXP SWAP1 DIV PUSH20 0xFFFFFFFFFFFFFFFFFFFFFFFFFFFFFFFFFFFFFFFF AND PUSH20 0xFFFFFFFFFFFFFFFFFFFFFFFFFFFFFFFFFFFFFFFF AND PUSH20 0xFFFFFFFFFFFFFFFFFFFFFFFFFFFFFFFFFFFFFFFF AND DUP2 MSTORE PUSH1 0x20 ADD PUSH1 0x2 DUP3 ADD PUSH1 0x0 SWAP1 SLOAD SWAP1 PUSH2 0x100 EXP SWAP1 DIV PUSH20 0xFFFFFFFFFFFFFFFFFFFFFFFFFFFFFFFFFFFFFFFF AND PUSH20 0xFFFFFFFFFFFFFFFFFFFFFFFFFFFFFFFFFFFFFFFF AND PUSH20 0xFFFFFFFFFFFFFFFFFFFFFFFFFFFFFFFFFFFFFFFF AND DUP2 MSTORE PUSH1 0x20 ADD PUSH1 0x3 DUP3 ADD SLOAD DUP2 MSTORE PUSH1 0x20 ADD PUSH1 0x4 DUP3 ADD PUSH1 0x0 SWAP1 SLOAD SWAP1 PUSH2 0x100 EXP SWAP1 DIV PUSH1 0xFF AND ISZERO ISZERO ISZERO ISZERO DUP2 MSTORE PUSH1 0x20 ADD PUSH1 0x5 DUP3 ADD DUP1 SLOAD PUSH2 0xE17 SWAP1 PUSH2 0x37C0 JUMP JUMPDEST DUP1 PUSH1 0x1F ADD PUSH1 0x20 DUP1 SWAP2 DIV MUL PUSH1 0x20 ADD PUSH1 0x40 MLOAD SWAP1 DUP2 ADD PUSH1 0x40 MSTORE DUP1 SWAP3 SWAP2 SWAP1 DUP2 DUP2 MSTORE PUSH1 0x20 ADD DUP3 DUP1 SLOAD PUSH2 0xE43 SWAP1 PUSH2 0x37C0 JUMP JUMPDEST DUP1 ISZERO PUSH2 0xE90 JUMPI DUP1 PUSH1 0x1F LT PUSH2 0xE65 JUMPI PUSH2 0x100 DUP1 DUP4 SLOAD DIV MUL DUP4 MSTORE SWAP2 PUSH1 0x20 ADD SWAP2 PUSH2 0xE90 JUMP JUMPDEST DUP3 ADD SWAP2 SWAP1 PUSH1 0x0 MSTORE PUSH1 0x20 PUSH1 0x0 KECCAK256 SWAP1 JUMPDEST DUP2 SLOAD DUP2 MSTORE SWAP1 PUSH1 0x1 ADD SWAP1 PUSH1 0x20 ADD DUP1 DUP4 GT PUSH2 0xE73 JUMPI DUP3 SWAP1 SUB PUSH1 0x1F AND DUP3 ADD SWAP2 JUMPDEST POP POP POP POP POP DUP2 MSTORE POP POP DUP5 DUP7 DUP2 MLOAD DUP2 LT PUSH2 0xEAC JUMPI PUSH2 0xEAB PUSH2 0x3A0A JUMP JUMPDEST JUMPDEST PUSH1 0x20 MUL PUSH1 0x20 ADD ADD DUP2 SWAP1 MSTORE POP PUSH1 0x1 DUP6 PUSH2 0xEC4 SWAP2 SWAP1 PUSH2 0x3A39 JUMP JUMPDEST SWAP5 POP POP POP JUMPDEST DUP1 DUP1 PUSH2 0xED4 SWAP1 PUSH2 0x3A6D JUMP JUMPDEST SWAP2 POP POP PUSH2 0xC94 JUMP JUMPDEST POP DUP1 SWAP5 POP POP POP POP POP SWAP1 JUMP JUMPDEST PUSH2 0xEF8 PUSH2 0xEF2 PUSH2 0x1F06 JUMP JUMPDEST DUP3 PUSH2 0x1FC7 JUMP JUMPDEST PUSH2 0xF37 JUMPI PUSH1 0x40 MLOAD PUSH32 0x8C379A000000000000000000000000000000000000000000000000000000000 DUP2 MSTORE PUSH1 0x4 ADD PUSH2 0xF2E SWAP1 PUSH2 0x3B27 JUMP JUMPDEST PUSH1 0x40 MLOAD DUP1 SWAP2 SUB SWAP1 REVERT JUMPDEST PUSH2 0xF42 DUP4 DUP4 DUP4 PUSH2 0x20A5 JUMP JUMPDEST POP POP POP JUMP JUMPDEST PUSH2 0xF62 DUP4 DUP4 DUP4 PUSH1 0x40 MLOAD DUP1 PUSH1 0x20 ADD PUSH1 0x40 MSTORE DUP1 PUSH1 0x0 DUP2 MSTORE POP PUSH2 0x1952 JUMP JUMPDEST POP POP POP JUMP JUMPDEST PUSH1 0x60 PUSH1 0x0 PUSH1 0x7 SLOAD SWAP1 POP PUSH1 0x0 DUP1 PUSH1 0x0 PUSH1 0x1 SWAP1 POP JUMPDEST DUP4 DUP2 GT PUSH2 0x100D JUMPI CALLER PUSH20 0xFFFFFFFFFFFFFFFFFFFFFFFFFFFFFFFFFFFFFFFF AND PUSH1 0xB PUSH1 0x0 DUP4 DUP2 MSTORE PUSH1 0x20 ADD SWAP1 DUP2 MSTORE PUSH1 0x20 ADD PUSH1 0x0 KECCAK256 PUSH1 0x1 ADD PUSH1 0x0 SWAP1 SLOAD SWAP1 PUSH2 0x100 EXP SWAP1 DIV PUSH20 0xFFFFFFFFFFFFFFFFFFFFFFFFFFFFFFFFFFFFFFFF AND PUSH20 0xFFFFFFFFFFFFFFFFFFFFFFFFFFFFFFFFFFFFFFFF AND SUB PUSH2 0xFFA JUMPI PUSH1 0x1 DUP4 PUSH2 0xFF7 SWAP2 SWAP1 PUSH2 0x3A39 JUMP JUMPDEST SWAP3 POP JUMPDEST DUP1 DUP1 PUSH2 0x1005 SWAP1 PUSH2 0x3A6D JUMP JUMPDEST SWAP2 POP POP PUSH2 0xF7A JUMP JUMPDEST POP PUSH1 0x0 DUP3 PUSH8 0xFFFFFFFFFFFFFFFF DUP2 GT ISZERO PUSH2 0x102A JUMPI PUSH2 0x1029 PUSH2 0x32C7 JUMP JUMPDEST JUMPDEST PUSH1 0x40 MLOAD SWAP1 DUP1 DUP3 MSTORE DUP1 PUSH1 0x20 MUL PUSH1 0x20 ADD DUP3 ADD PUSH1 0x40 MSTORE DUP1 ISZERO PUSH2 0x1063 JUMPI DUP2 PUSH1 0x20 ADD JUMPDEST PUSH2 0x1050 PUSH2 0x2D0D JUMP JUMPDEST DUP2 MSTORE PUSH1 0x20 ADD SWAP1 PUSH1 0x1 SWAP1 SUB SWAP1 DUP2 PUSH2 0x1048 JUMPI SWAP1 POP JUMPDEST POP SWAP1 POP PUSH1 0x0 PUSH1 0x1 SWAP1 POP JUMPDEST DUP5 DUP2 GT PUSH2 0x12B5 JUMPI CALLER PUSH20 0xFFFFFFFFFFFFFFFFFFFFFFFFFFFFFFFFFFFFFFFF AND PUSH1 0xB PUSH1 0x0 DUP4 DUP2 MSTORE PUSH1 0x20 ADD SWAP1 DUP2 MSTORE PUSH1 0x20 ADD PUSH1 0x0 KECCAK256 PUSH1 0x1 ADD PUSH1 0x0 SWAP1 SLOAD SWAP1 PUSH2 0x100 EXP SWAP1 DIV PUSH20 0xFFFFFFFFFFFFFFFFFFFFFFFFFFFFFFFFFFFFFFFF AND PUSH20 0xFFFFFFFFFFFFFFFFFFFFFFFFFFFFFFFFFFFFFFFF AND SUB PUSH2 0x12A2 JUMPI PUSH1 0x0 DUP2 SWAP1 POP PUSH1 0x0 PUSH1 0xB PUSH1 0x0 DUP4 DUP2 MSTORE PUSH1 0x20 ADD SWAP1 DUP2 MSTORE PUSH1 0x20 ADD PUSH1 0x0 KECCAK256 SWAP1 POP DUP1 PUSH1 0x40 MLOAD DUP1 PUSH1 0xC0 ADD PUSH1 0x40 MSTORE SWAP1 DUP2 PUSH1 0x0 DUP3 ADD SLOAD DUP2 MSTORE PUSH1 0x20 ADD PUSH1 0x1 DUP3 ADD PUSH1 0x0 SWAP1 SLOAD SWAP1 PUSH2 0x100 EXP SWAP1 DIV PUSH20 0xFFFFFFFFFFFFFFFFFFFFFFFFFFFFFFFFFFFFFFFF AND PUSH20 0xFFFFFFFFFFFFFFFFFFFFFFFFFFFFFFFFFFFFFFFF AND PUSH20 0xFFFFFFFFFFFFFFFFFFFFFFFFFFFFFFFFFFFFFFFF AND DUP2 MSTORE PUSH1 0x20 ADD PUSH1 0x2 DUP3 ADD PUSH1 0x0 SWAP1 SLOAD SWAP1 PUSH2 0x100 EXP SWAP1 DIV PUSH20 0xFFFFFFFFFFFFFFFFFFFFFFFFFFFFFFFFFFFFFFFF AND PUSH20 0xFFFFFFFFFFFFFFFFFFFFFFFFFFFFFFFFFFFFFFFF AND PUSH20 0xFFFFFFFFFFFFFFFFFFFFFFFFFFFFFFFFFFFFFFFF AND DUP2 MSTORE PUSH1 0x20 ADD PUSH1 0x3 DUP3 ADD SLOAD DUP2 MSTORE PUSH1 0x20 ADD PUSH1 0x4 DUP3 ADD PUSH1 0x0 SWAP1 SLOAD SWAP1 PUSH2 0x100 EXP SWAP1 DIV PUSH1 0xFF AND ISZERO ISZERO ISZERO ISZERO DUP2 MSTORE PUSH1 0x20 ADD PUSH1 0x5 DUP3 ADD DUP1 SLOAD PUSH2 0x11F0 SWAP1 PUSH2 0x37C0 JUMP JUMPDEST DUP1 PUSH1 0x1F ADD PUSH1 0x20 DUP1 SWAP2 DIV MUL PUSH1 0x20 ADD PUSH1 0x40 MLOAD SWAP1 DUP2 ADD PUSH1 0x40 MSTORE DUP1 SWAP3 SWAP2 SWAP1 DUP2 DUP2 MSTORE PUSH1 0x20 ADD DUP3 DUP1 SLOAD PUSH2 0x121C SWAP1 PUSH2 0x37C0 JUMP JUMPDEST DUP1 ISZERO PUSH2 0x1269 JUMPI DUP1 PUSH1 0x1F LT PUSH2 0x123E JUMPI PUSH2 0x100 DUP1 DUP4 SLOAD DIV MUL DUP4 MSTORE SWAP2 PUSH1 0x20 ADD SWAP2 PUSH2 0x1269 JUMP JUMPDEST DUP3 ADD SWAP2 SWAP1 PUSH1 0x0 MSTORE PUSH1 0x20 PUSH1 0x0 KECCAK256 SWAP1 JUMPDEST DUP2 SLOAD DUP2 MSTORE SWAP1 PUSH1 0x1 ADD SWAP1 PUSH1 0x20 ADD DUP1 DUP4 GT PUSH2 0x124C JUMPI DUP3 SWAP1 SUB PUSH1 0x1F AND DUP3 ADD SWAP2 JUMPDEST POP POP POP POP POP DUP2 MSTORE POP POP DUP5 DUP7 DUP2 MLOAD DUP2 LT PUSH2 0x1285 JUMPI PUSH2 0x1284 PUSH2 0x3A0A JUMP JUMPDEST JUMPDEST PUSH1 0x20 MUL PUSH1 0x20 ADD ADD DUP2 SWAP1 MSTORE POP PUSH1 0x1 DUP6 PUSH2 0x129D SWAP2 SWAP1 PUSH2 0x3A39 JUMP JUMPDEST SWAP5 POP POP POP JUMPDEST DUP1 DUP1 PUSH2 0x12AD SWAP1 PUSH2 0x3A6D JUMP JUMPDEST SWAP2 POP POP PUSH2 0x106D JUMP JUMPDEST POP DUP1 SWAP5 POP POP POP POP POP SWAP1 JUMP JUMPDEST PUSH1 0x0 DUP1 PUSH1 0x2 PUSH1 0x0 DUP5 DUP2 MSTORE PUSH1 0x20 ADD SWAP1 DUP2 MSTORE PUSH1 0x20 ADD PUSH1 0x0 KECCAK256 PUSH1 0x0 SWAP1 SLOAD SWAP1 PUSH2 0x100 EXP SWAP1 DIV PUSH20 0xFFFFFFFFFFFFFFFFFFFFFFFFFFFFFFFFFFFFFFFF AND SWAP1 POP PUSH1 0x0 PUSH20 0xFFFFFFFFFFFFFFFFFFFFFFFFFFFFFFFFFFFFFFFF AND DUP2 PUSH20 0xFFFFFFFFFFFFFFFFFFFFFFFFFFFFFFFFFFFFFFFF AND SUB PUSH2 0x1368 JUMPI PUSH1 0x40 MLOAD PUSH32 0x8C379A000000000000000000000000000000000000000000000000000000000 DUP2 MSTORE PUSH1 0x4 ADD PUSH2 0x135F SWAP1 PUSH2 0x3BB9 JUMP JUMPDEST PUSH1 0x40 MLOAD DUP1 SWAP2 SUB SWAP1 REVERT JUMPDEST DUP1 SWAP2 POP POP SWAP2 SWAP1 POP JUMP JUMPDEST PUSH1 0x0 DUP1 PUSH20 0xFFFFFFFFFFFFFFFFFFFFFFFFFFFFFFFFFFFFFFFF AND DUP3 PUSH20 0xFFFFFFFFFFFFFFFFFFFFFFFFFFFFFFFFFFFFFFFF AND SUB PUSH2 0x13E1 JUMPI PUSH1 0x40 MLOAD PUSH32 0x8C379A000000000000000000000000000000000000000000000000000000000 DUP2 MSTORE PUSH1 0x4 ADD PUSH2 0x13D8 SWAP1 PUSH2 0x3C4B JUMP JUMPDEST PUSH1 0x40 MLOAD DUP1 SWAP2 SUB SWAP1 REVERT JUMPDEST PUSH1 0x3 PUSH1 0x0 DUP4 PUSH20 0xFFFFFFFFFFFFFFFFFFFFFFFFFFFFFFFFFFFFFFFF AND PUSH20 0xFFFFFFFFFFFFFFFFFFFFFFFFFFFFFFFFFFFFFFFF AND DUP2 MSTORE PUSH1 0x20 ADD SWAP1 DUP2 MSTORE PUSH1 0x20 ADD PUSH1 0x0 KECCAK256 SLOAD SWAP1 POP SWAP2 SWAP1 POP JUMP JUMPDEST CALLER PUSH20 0xFFFFFFFFFFFFFFFFFFFFFFFFFFFFFFFFFFFFFFFF AND PUSH1 0xB PUSH1 0x0 DUP6 DUP2 MSTORE PUSH1 0x20 ADD SWAP1 DUP2 MSTORE PUSH1 0x20 ADD PUSH1 0x0 KECCAK256 PUSH1 0x2 ADD PUSH1 0x0 SWAP1 SLOAD SWAP1 PUSH2 0x100 EXP SWAP1 DIV PUSH20 0xFFFFFFFFFFFFFFFFFFFFFFFFFFFFFFFFFFFFFFFF AND PUSH20 0xFFFFFFFFFFFFFFFFFFFFFFFFFFFFFFFFFFFFFFFF AND EQ PUSH2 0x14CC JUMPI PUSH1 0x40 MLOAD PUSH32 0x8C379A000000000000000000000000000000000000000000000000000000000 DUP2 MSTORE PUSH1 0x4 ADD PUSH2 0x14C3 SWAP1 PUSH2 0x3CDD JUMP JUMPDEST PUSH1 0x40 MLOAD DUP1 SWAP2 SUB SWAP1 REVERT JUMPDEST PUSH1 0x9 SLOAD CALLVALUE EQ PUSH2 0x1510 JUMPI PUSH1 0x40 MLOAD PUSH32 0x8C379A000000000000000000000000000000000000000000000000000000000 DUP2 MSTORE PUSH1 0x4 ADD PUSH2 0x1507 SWAP1 PUSH2 0x3D6F JUMP JUMPDEST PUSH1 0x40 MLOAD DUP1 SWAP2 SUB SWAP1 REVERT JUMPDEST PUSH1 0x0 PUSH1 0xB PUSH1 0x0 DUP6 DUP2 MSTORE PUSH1 0x20 ADD SWAP1 DUP2 MSTORE PUSH1 0x20 ADD PUSH1 0x0 KECCAK256 PUSH1 0x4 ADD PUSH1 0x0 PUSH2 0x100 EXP DUP2 SLOAD DUP2 PUSH1 0xFF MUL NOT AND SWAP1 DUP4 ISZERO ISZERO MUL OR SWAP1 SSTORE POP DUP2 PUSH1 0xB PUSH1 0x0 DUP6 DUP2 MSTORE PUSH1 0x20 ADD SWAP1 DUP2 MSTORE PUSH1 0x20 ADD PUSH1 0x0 KECCAK256 PUSH1 0x3 ADD DUP2 SWAP1 SSTORE POP CALLER PUSH1 0xB PUSH1 0x0 DUP6 DUP2 MSTORE PUSH1 0x20 ADD SWAP1 DUP2 MSTORE PUSH1 0x20 ADD PUSH1 0x0 KECCAK256 PUSH1 0x1 ADD PUSH1 0x0 PUSH2 0x100 EXP DUP2 SLOAD DUP2 PUSH20 0xFFFFFFFFFFFFFFFFFFFFFFFFFFFFFFFFFFFFFFFF MUL NOT AND SWAP1 DUP4 PUSH20 0xFFFFFFFFFFFFFFFFFFFFFFFFFFFFFFFFFFFFFFFF AND MUL OR SWAP1 SSTORE POP ADDRESS PUSH1 0xB PUSH1 0x0 DUP6 DUP2 MSTORE PUSH1 0x20 ADD SWAP1 DUP2 MSTORE PUSH1 0x20 ADD PUSH1 0x0 KECCAK256 PUSH1 0x2 ADD PUSH1 0x0 PUSH2 0x100 EXP DUP2 SLOAD DUP2 PUSH20 0xFFFFFFFFFFFFFFFFFFFFFFFFFFFFFFFFFFFFFFFF MUL NOT AND SWAP1 DUP4 PUSH20 0xFFFFFFFFFFFFFFFFFFFFFFFFFFFFFFFFFFFFFFFF AND MUL OR SWAP1 SSTORE POP DUP1 PUSH1 0xB PUSH1 0x0 DUP6 DUP2 MSTORE PUSH1 0x20 ADD SWAP1 DUP2 MSTORE PUSH1 0x20 ADD PUSH1 0x0 KECCAK256 PUSH1 0x5 ADD SWAP1 DUP2 PUSH2 0x1627 SWAP2 SWAP1 PUSH2 0x3F3B JUMP JUMPDEST POP PUSH1 0x8 PUSH1 0x0 DUP2 SLOAD DUP1 SWAP3 SWAP2 SWAP1 PUSH2 0x163B SWAP1 PUSH2 0x400D JUMP JUMPDEST SWAP2 SWAP1 POP SSTORE POP PUSH2 0x164B CALLER ADDRESS DUP6 PUSH2 0x20A5 JUMP JUMPDEST POP POP POP JUMP JUMPDEST PUSH1 0xA PUSH1 0x0 SWAP1 SLOAD SWAP1 PUSH2 0x100 EXP SWAP1 DIV PUSH20 0xFFFFFFFFFFFFFFFFFFFFFFFFFFFFFFFFFFFFFFFF AND DUP2 JUMP JUMPDEST PUSH1 0x60 PUSH1 0x1 DUP1 SLOAD PUSH2 0x1685 SWAP1 PUSH2 0x37C0 JUMP JUMPDEST DUP1 PUSH1 0x1F ADD PUSH1 0x20 DUP1 SWAP2 DIV MUL PUSH1 0x20 ADD PUSH1 0x40 MLOAD SWAP1 DUP2 ADD PUSH1 0x40 MSTORE DUP1 SWAP3 SWAP2 SWAP1 DUP2 DUP2 MSTORE PUSH1 0x20 ADD DUP3 DUP1 SLOAD PUSH2 0x16B1 SWAP1 PUSH2 0x37C0 JUMP JUMPDEST DUP1 ISZERO PUSH2 0x16FE JUMPI DUP1 PUSH1 0x1F LT PUSH2 0x16D3 JUMPI PUSH2 0x100 DUP1 DUP4 SLOAD DIV MUL DUP4 MSTORE SWAP2 PUSH1 0x20 ADD SWAP2 PUSH2 0x16FE JUMP JUMPDEST DUP3 ADD SWAP2 SWAP1 PUSH1 0x0 MSTORE PUSH1 0x20 PUSH1 0x0 KECCAK256 SWAP1 JUMPDEST DUP2 SLOAD DUP2 MSTORE SWAP1 PUSH1 0x1 ADD SWAP1 PUSH1 0x20 ADD DUP1 DUP4 GT PUSH2 0x16E1 JUMPI DUP3 SWAP1 SUB PUSH1 0x1F AND DUP3 ADD SWAP2 JUMPDEST POP POP POP POP POP SWAP1 POP SWAP1 JUMP JUMPDEST PUSH2 0x171A PUSH2 0x1713 PUSH2 0x1F06 JUMP JUMPDEST DUP4 DUP4 PUSH2 0x230B JUMP JUMPDEST POP POP JUMP JUMPDEST CALLER PUSH20 0xFFFFFFFFFFFFFFFFFFFFFFFFFFFFFFFFFFFFFFFF AND PUSH1 0xA PUSH1 0x0 SWAP1 SLOAD SWAP1 PUSH2 0x100 EXP SWAP1 DIV PUSH20 0xFFFFFFFFFFFFFFFFFFFFFFFFFFFFFFFFFFFFFFFF AND PUSH20 0xFFFFFFFFFFFFFFFFFFFFFFFFFFFFFFFFFFFFFFFF AND EQ PUSH2 0x17AE JUMPI PUSH1 0x40 MLOAD PUSH32 0x8C379A000000000000000000000000000000000000000000000000000000000 DUP2 MSTORE PUSH1 0x4 ADD PUSH2 0x17A5 SWAP1 PUSH2 0x40A8 JUMP JUMPDEST PUSH1 0x40 MLOAD DUP1 SWAP2 SUB SWAP1 REVERT JUMPDEST DUP1 PUSH1 0x9 DUP2 SWAP1 SSTORE POP POP JUMP JUMPDEST PUSH2 0x17C0 PUSH2 0x2D0D JUMP JUMPDEST PUSH1 0xB PUSH1 0x0 DUP4 DUP2 MSTORE PUSH1 0x20 ADD SWAP1 DUP2 MSTORE PUSH1 0x20 ADD PUSH1 0x0 KECCAK256 PUSH1 0x40 MLOAD DUP1 PUSH1 0xC0 ADD PUSH1 0x40 MSTORE SWAP1 DUP2 PUSH1 0x0 DUP3 ADD SLOAD DUP2 MSTORE PUSH1 0x20 ADD PUSH1 0x1 DUP3 ADD PUSH1 0x0 SWAP1 SLOAD SWAP1 PUSH2 0x100 EXP SWAP1 DIV PUSH20 0xFFFFFFFFFFFFFFFFFFFFFFFFFFFFFFFFFFFFFFFF AND PUSH20 0xFFFFFFFFFFFFFFFFFFFFFFFFFFFFFFFFFFFFFFFF AND PUSH20 0xFFFFFFFFFFFFFFFFFFFFFFFFFFFFFFFFFFFFFFFF AND DUP2 MSTORE PUSH1 0x20 ADD PUSH1 0x2 DUP3 ADD PUSH1 0x0 SWAP1 SLOAD SWAP1 PUSH2 0x100 EXP SWAP1 DIV PUSH20 0xFFFFFFFFFFFFFFFFFFFFFFFFFFFFFFFFFFFFFFFF AND PUSH20 0xFFFFFFFFFFFFFFFFFFFFFFFFFFFFFFFFFFFFFFFF AND PUSH20 0xFFFFFFFFFFFFFFFFFFFFFFFFFFFFFFFFFFFFFFFF AND DUP2 MSTORE PUSH1 0x20 ADD PUSH1 0x3 DUP3 ADD SLOAD DUP2 MSTORE PUSH1 0x20 ADD PUSH1 0x4 DUP3 ADD PUSH1 0x0 SWAP1 SLOAD SWAP1 PUSH2 0x100 EXP SWAP1 DIV PUSH1 0xFF AND ISZERO ISZERO ISZERO ISZERO DUP2 MSTORE PUSH1 0x20 ADD PUSH1 0x5 DUP3 ADD DUP1 SLOAD PUSH2 0x18C9 SWAP1 PUSH2 0x37C0 JUMP JUMPDEST DUP1 PUSH1 0x1F ADD PUSH1 0x20 DUP1 SWAP2 DIV MUL PUSH1 0x20 ADD PUSH1 0x40 MLOAD SWAP1 DUP2 ADD PUSH1 0x40 MSTORE DUP1 SWAP3 SWAP2 SWAP1 DUP2 DUP2 MSTORE PUSH1 0x20 ADD DUP3 DUP1 SLOAD PUSH2 0x18F5 SWAP1 PUSH2 0x37C0 JUMP JUMPDEST DUP1 ISZERO PUSH2 0x1942 JUMPI DUP1 PUSH1 0x1F LT PUSH2 0x1917 JUMPI PUSH2 0x100 DUP1 DUP4 SLOAD DIV MUL DUP4 MSTORE SWAP2 PUSH1 0x20 ADD SWAP2 PUSH2 0x1942 JUMP JUMPDEST DUP3 ADD SWAP2 SWAP1 PUSH1 0x0 MSTORE PUSH1 0x20 PUSH1 0x0 KECCAK256 SWAP1 JUMPDEST DUP2 SLOAD DUP2 MSTORE SWAP1 PUSH1 0x1 ADD SWAP1 PUSH1 0x20 ADD DUP1 DUP4 GT PUSH2 0x1925 JUMPI DUP3 SWAP1 SUB PUSH1 0x1F AND DUP3 ADD SWAP2 JUMPDEST POP POP POP POP POP DUP2 MSTORE POP POP SWAP1 POP SWAP2 SWAP1 POP JUMP JUMPDEST PUSH2 0x1963 PUSH2 0x195D PUSH2 0x1F06 JUMP JUMPDEST DUP4 PUSH2 0x1FC7 JUMP JUMPDEST PUSH2 0x19A2 JUMPI PUSH1 0x40 MLOAD PUSH32 0x8C379A000000000000000000000000000000000000000000000000000000000 DUP2 MSTORE PUSH1 0x4 ADD PUSH2 0x1999 SWAP1 PUSH2 0x3B27 JUMP JUMPDEST PUSH1 0x40 MLOAD DUP1 SWAP2 SUB SWAP1 REVERT JUMPDEST PUSH2 0x19AE DUP5 DUP5 DUP5 DUP5 PUSH2 0x2477 JUMP JUMPDEST POP POP POP POP JUMP JUMPDEST PUSH1 0x0 PUSH1 0xB PUSH1 0x0 DUP4 DUP2 MSTORE PUSH1 0x20 ADD SWAP1 DUP2 MSTORE PUSH1 0x20 ADD PUSH1 0x0 KECCAK256 PUSH1 0x3 ADD SLOAD SWAP1 POP DUP1 CALLVALUE EQ PUSH2 0x1A11 JUMPI PUSH1 0x40 MLOAD PUSH32 0x8C379A000000000000000000000000000000000000000000000000000000000 DUP2 MSTORE PUSH1 0x4 ADD PUSH2 0x1A08 SWAP1 PUSH2 0x413A JUMP JUMPDEST PUSH1 0x40 MLOAD DUP1 SWAP2 SUB SWAP1 REVERT JUMPDEST CALLER PUSH1 0xB PUSH1 0x0 DUP5 DUP2 MSTORE PUSH1 0x20 ADD SWAP1 DUP2 MSTORE PUSH1 0x20 ADD PUSH1 0x0 KECCAK256 PUSH1 0x2 ADD PUSH1 0x0 PUSH2 0x100 EXP DUP2 SLOAD DUP2 PUSH20 0xFFFFFFFFFFFFFFFFFFFFFFFFFFFFFFFFFFFFFFFF MUL NOT AND SWAP1 DUP4 PUSH20 0xFFFFFFFFFFFFFFFFFFFFFFFFFFFFFFFFFFFFFFFF AND MUL OR SWAP1 SSTORE POP PUSH1 0x1 PUSH1 0xB PUSH1 0x0 DUP5 DUP2 MSTORE PUSH1 0x20 ADD SWAP1 DUP2 MSTORE PUSH1 0x20 ADD PUSH1 0x0 KECCAK256 PUSH1 0x4 ADD PUSH1 0x0 PUSH2 0x100 EXP DUP2 SLOAD DUP2 PUSH1 0xFF MUL NOT AND SWAP1 DUP4 ISZERO ISZERO MUL OR SWAP1 SSTORE POP PUSH1 0x0 PUSH1 0xB PUSH1 0x0 DUP5 DUP2 MSTORE PUSH1 0x20 ADD SWAP1 DUP2 MSTORE PUSH1 0x20 ADD PUSH1 0x0 KECCAK256 PUSH1 0x1 ADD PUSH1 0x0 PUSH2 0x100 EXP DUP2 SLOAD DUP2 PUSH20 0xFFFFFFFFFFFFFFFFFFFFFFFFFFFFFFFFFFFFFFFF MUL NOT AND SWAP1 DUP4 PUSH20 0xFFFFFFFFFFFFFFFFFFFFFFFFFFFFFFFFFFFFFFFF AND MUL OR SWAP1 SSTORE POP PUSH1 0x8 PUSH1 0x0 DUP2 SLOAD DUP1 SWAP3 SWAP2 SWAP1 PUSH2 0x1AFE SWAP1 PUSH2 0x3A6D JUMP JUMPDEST SWAP2 SWAP1 POP SSTORE POP PUSH2 0x1B0E ADDRESS CALLER DUP5 PUSH2 0x20A5 JUMP JUMPDEST PUSH1 0xA PUSH1 0x0 SWAP1 SLOAD SWAP1 PUSH2 0x100 EXP SWAP1 DIV PUSH20 0xFFFFFFFFFFFFFFFFFFFFFFFFFFFFFFFFFFFFFFFF AND PUSH20 0xFFFFFFFFFFFFFFFFFFFFFFFFFFFFFFFFFFFFFFFF AND PUSH2 0x8FC PUSH1 0x9 SLOAD SWAP1 DUP2 ISZERO MUL SWAP1 PUSH1 0x40 MLOAD PUSH1 0x0 PUSH1 0x40 MLOAD DUP1 DUP4 SUB DUP2 DUP6 DUP9 DUP9 CALL SWAP4 POP POP POP POP ISZERO DUP1 ISZERO PUSH2 0x1B78 JUMPI RETURNDATASIZE PUSH1 0x0 DUP1 RETURNDATACOPY RETURNDATASIZE PUSH1 0x0 REVERT JUMPDEST POP PUSH1 0xB PUSH1 0x0 DUP4 DUP2 MSTORE PUSH1 0x20 ADD SWAP1 DUP2 MSTORE PUSH1 0x20 ADD PUSH1 0x0 KECCAK256 PUSH1 0x1 ADD PUSH1 0x0 SWAP1 SLOAD SWAP1 PUSH2 0x100 EXP SWAP1 DIV PUSH20 0xFFFFFFFFFFFFFFFFFFFFFFFFFFFFFFFFFFFFFFFF AND PUSH20 0xFFFFFFFFFFFFFFFFFFFFFFFFFFFFFFFFFFFFFFFF AND PUSH2 0x8FC CALLVALUE SWAP1 DUP2 ISZERO MUL SWAP1 PUSH1 0x40 MLOAD PUSH1 0x0 PUSH1 0x40 MLOAD DUP1 DUP4 SUB DUP2 DUP6 DUP9 DUP9 CALL SWAP4 POP POP POP POP ISZERO DUP1 ISZERO PUSH2 0x1BF5 JUMPI RETURNDATASIZE PUSH1 0x0 DUP1 RETURNDATACOPY RETURNDATASIZE PUSH1 0x0 REVERT JUMPDEST POP POP POP JUMP JUMPDEST PUSH1 0x0 PUSH1 0x7 PUSH1 0x0 DUP2 SLOAD DUP1 SWAP3 SWAP2 SWAP1 PUSH2 0x1C0F SWAP1 PUSH2 0x3A6D JUMP JUMPDEST SWAP2 SWAP1 POP SSTORE POP PUSH1 0x0 PUSH1 0x7 SLOAD SWAP1 POP PUSH2 0x1C25 CALLER DUP3 PUSH2 0x24D3 JUMP JUMPDEST PUSH2 0x1C2F DUP2 DUP7 PUSH2 0x26AC JUMP JUMPDEST PUSH2 0x1C3A DUP2 DUP6 DUP6 PUSH2 0x2719 JUMP JUMPDEST DUP1 SWAP2 POP POP SWAP4 SWAP3 POP POP POP JUMP JUMPDEST PUSH1 0x9 SLOAD DUP2 JUMP JUMPDEST PUSH1 0x60 PUSH2 0x1C56 DUP3 PUSH2 0x1E9A JUMP JUMPDEST PUSH2 0x1C95 JUMPI PUSH1 0x40 MLOAD PUSH32 0x8C379A000000000000000000000000000000000000000000000000000000000 DUP2 MSTORE PUSH1 0x4 ADD PUSH2 0x1C8C SWAP1 PUSH2 0x41CC JUMP JUMPDEST PUSH1 0x40 MLOAD DUP1 SWAP2 SUB SWAP1 REVERT JUMPDEST PUSH1 0x0 PUSH1 0x6 PUSH1 0x0 DUP5 DUP2 MSTORE PUSH1 0x20 ADD SWAP1 DUP2 MSTORE PUSH1 0x20 ADD PUSH1 0x0 KECCAK256 DUP1 SLOAD PUSH2 0x1CB5 SWAP1 PUSH2 0x37C0 JUMP JUMPDEST DUP1 PUSH1 0x1F ADD PUSH1 0x20 DUP1 SWAP2 DIV MUL PUSH1 0x20 ADD PUSH1 0x40 MLOAD SWAP1 DUP2 ADD PUSH1 0x40 MSTORE DUP1 SWAP3 SWAP2 SWAP1 DUP2 DUP2 MSTORE PUSH1 0x20 ADD DUP3 DUP1 SLOAD PUSH2 0x1CE1 SWAP1 PUSH2 0x37C0 JUMP JUMPDEST DUP1 ISZERO PUSH2 0x1D2E JUMPI DUP1 PUSH1 0x1F LT PUSH2 0x1D03 JUMPI PUSH2 0x100 DUP1 DUP4 SLOAD DIV MUL DUP4 MSTORE SWAP2 PUSH1 0x20 ADD SWAP2 PUSH2 0x1D2E JUMP JUMPDEST DUP3 ADD SWAP2 SWAP1 PUSH1 0x0 MSTORE PUSH1 0x20 PUSH1 0x0 KECCAK256 SWAP1 JUMPDEST DUP2 SLOAD DUP2 MSTORE SWAP1 PUSH1 0x1 ADD SWAP1 PUSH1 0x20 ADD DUP1 DUP4 GT PUSH2 0x1D11 JUMPI DUP3 SWAP1 SUB PUSH1 0x1F AND DUP3 ADD SWAP2 JUMPDEST POP POP POP POP POP SWAP1 POP PUSH1 0x0 PUSH2 0x1D3F PUSH2 0x293B JUMP JUMPDEST SWAP1 POP PUSH1 0x0 DUP2 MLOAD SUB PUSH2 0x1D54 JUMPI DUP2 SWAP3 POP POP POP PUSH2 0x1D97 JUMP JUMPDEST PUSH1 0x0 DUP3 MLOAD GT ISZERO PUSH2 0x1D89 JUMPI DUP1 DUP3 PUSH1 0x40 MLOAD PUSH1 0x20 ADD PUSH2 0x1D71 SWAP3 SWAP2 SWAP1 PUSH2 0x4228 JUMP JUMPDEST PUSH1 0x40 MLOAD PUSH1 0x20 DUP2 DUP4 SUB SUB DUP2 MSTORE SWAP1 PUSH1 0x40 MSTORE SWAP3 POP POP POP PUSH2 0x1D97 JUMP JUMPDEST PUSH2 0x1D92 DUP5 PUSH2 0x2952 JUMP JUMPDEST SWAP3 POP POP POP JUMPDEST SWAP2 SWAP1 POP JUMP JUMPDEST PUSH1 0x0 PUSH1 0x5 PUSH1 0x0 DUP5 PUSH20 0xFFFFFFFFFFFFFFFFFFFFFFFFFFFFFFFFFFFFFFFF AND PUSH20 0xFFFFFFFFFFFFFFFFFFFFFFFFFFFFFFFFFFFFFFFF AND DUP2 MSTORE PUSH1 0x20 ADD SWAP1 DUP2 MSTORE PUSH1 0x20 ADD PUSH1 0x0 KECCAK256 PUSH1 0x0 DUP4 PUSH20 0xFFFFFFFFFFFFFFFFFFFFFFFFFFFFFFFFFFFFFFFF AND PUSH20 0xFFFFFFFFFFFFFFFFFFFFFFFFFFFFFFFFFFFFFFFF AND DUP2 MSTORE PUSH1 0x20 ADD SWAP1 DUP2 MSTORE PUSH1 0x20 ADD PUSH1 0x0 KECCAK256 PUSH1 0x0 SWAP1 SLOAD SWAP1 PUSH2 0x100 EXP SWAP1 DIV PUSH1 0xFF AND SWAP1 POP SWAP3 SWAP2 POP POP JUMP JUMPDEST PUSH1 0x0 PUSH32 0x1FFC9A700000000000000000000000000000000000000000000000000000000 PUSH28 0xFFFFFFFFFFFFFFFFFFFFFFFFFFFFFFFFFFFFFFFFFFFFFFFFFFFFFFFF NOT AND DUP3 PUSH28 0xFFFFFFFFFFFFFFFFFFFFFFFFFFFFFFFFFFFFFFFFFFFFFFFFFFFFFFFF NOT AND EQ SWAP1 POP SWAP2 SWAP1 POP JUMP JUMPDEST PUSH1 0x0 DUP1 PUSH20 0xFFFFFFFFFFFFFFFFFFFFFFFFFFFFFFFFFFFFFFFF AND PUSH1 0x2 PUSH1 0x0 DUP5 DUP2 MSTORE PUSH1 0x20 ADD SWAP1 DUP2 MSTORE PUSH1 0x20 ADD PUSH1 0x0 KECCAK256 PUSH1 0x0 SWAP1 SLOAD SWAP1 PUSH2 0x100 EXP SWAP1 DIV PUSH20 0xFFFFFFFFFFFFFFFFFFFFFFFFFFFFFFFFFFFFFFFF AND PUSH20 0xFFFFFFFFFFFFFFFFFFFFFFFFFFFFFFFFFFFFFFFF AND EQ ISZERO SWAP1 POP SWAP2 SWAP1 POP JUMP JUMPDEST PUSH1 0x0 CALLER SWAP1 POP SWAP1 JUMP JUMPDEST DUP2 PUSH1 0x4 PUSH1 0x0 DUP4 DUP2 MSTORE PUSH1 0x20 ADD SWAP1 DUP2 MSTORE PUSH1 0x20 ADD PUSH1 0x0 KECCAK256 PUSH1 0x0 PUSH2 0x100 EXP DUP2 SLOAD DUP2 PUSH20 0xFFFFFFFFFFFFFFFFFFFFFFFFFFFFFFFFFFFFFFFF MUL NOT AND SWAP1 DUP4 PUSH20 0xFFFFFFFFFFFFFFFFFFFFFFFFFFFFFFFFFFFFFFFF AND MUL OR SWAP1 SSTORE POP DUP1 DUP3 PUSH20 0xFFFFFFFFFFFFFFFFFFFFFFFFFFFFFFFFFFFFFFFF AND PUSH2 0x1F81 DUP4 PUSH2 0x12C0 JUMP JUMPDEST PUSH20 0xFFFFFFFFFFFFFFFFFFFFFFFFFFFFFFFFFFFFFFFF AND PUSH32 0x8C5BE1E5EBEC7D5BD14F71427D1E84F3DD0314C0F7B2291E5B200AC8C7C3B925 PUSH1 0x40 MLOAD PUSH1 0x40 MLOAD DUP1 SWAP2 SUB SWAP1 LOG4 POP POP JUMP JUMPDEST PUSH1 0x0 PUSH2 0x1FD2 DUP3 PUSH2 0x1E9A JUMP JUMPDEST PUSH2 0x2011 JUMPI PUSH1 0x40 MLOAD PUSH32 0x8C379A000000000000000000000000000000000000000000000000000000000 DUP2 MSTORE PUSH1 0x4 ADD PUSH2 0x2008 SWAP1 PUSH2 0x42BE JUMP JUMPDEST PUSH1 0x40 MLOAD DUP1 SWAP2 SUB SWAP1 REVERT JUMPDEST PUSH1 0x0 PUSH2 0x201C DUP4 PUSH2 0x12C0 JUMP JUMPDEST SWAP1 POP DUP1 PUSH20 0xFFFFFFFFFFFFFFFFFFFFFFFFFFFFFFFFFFFFFFFF AND DUP5 PUSH20 0xFFFFFFFFFFFFFFFFFFFFFFFFFFFFFFFFFFFFFFFF AND EQ DUP1 PUSH2 0x208B JUMPI POP DUP4 PUSH20 0xFFFFFFFFFFFFFFFFFFFFFFFFFFFFFFFFFFFFFFFF AND PUSH2 0x2073 DUP5 PUSH2 0x718 JUMP JUMPDEST PUSH20 0xFFFFFFFFFFFFFFFFFFFFFFFFFFFFFFFFFFFFFFFF AND EQ JUMPDEST DUP1 PUSH2 0x209C JUMPI POP PUSH2 0x209B DUP2 DUP6 PUSH2 0x1D9C JUMP JUMPDEST JUMPDEST SWAP2 POP POP SWAP3 SWAP2 POP POP JUMP JUMPDEST DUP3 PUSH20 0xFFFFFFFFFFFFFFFFFFFFFFFFFFFFFFFFFFFFFFFF AND PUSH2 0x20C5 DUP3 PUSH2 0x12C0 JUMP JUMPDEST PUSH20 0xFFFFFFFFFFFFFFFFFFFFFFFFFFFFFFFFFFFFFFFF AND EQ PUSH2 0x211B JUMPI PUSH1 0x40 MLOAD PUSH32 0x8C379A000000000000000000000000000000000000000000000000000000000 DUP2 MSTORE PUSH1 0x4 ADD PUSH2 0x2112 SWAP1 PUSH2 0x4350 JUMP JUMPDEST PUSH1 0x40 MLOAD DUP1 SWAP2 SUB SWAP1 REVERT JUMPDEST PUSH1 0x0 PUSH20 0xFFFFFFFFFFFFFFFFFFFFFFFFFFFFFFFFFFFFFFFF AND DUP3 PUSH20 0xFFFFFFFFFFFFFFFFFFFFFFFFFFFFFFFFFFFFFFFF AND SUB PUSH2 0x218A JUMPI PUSH1 0x40 MLOAD PUSH32 0x8C379A000000000000000000000000000000000000000000000000000000000 DUP2 MSTORE PUSH1 0x4 ADD PUSH2 0x2181 SWAP1 PUSH2 0x43E2 JUMP JUMPDEST PUSH1 0x40 MLOAD DUP1 SWAP2 SUB SWAP1 REVERT JUMPDEST PUSH2 0x2195 DUP4 DUP4 DUP4 PUSH2 0x29F9 JUMP JUMPDEST PUSH2 0x21A0 PUSH1 0x0 DUP3 PUSH2 0x1F0E JUMP JUMPDEST PUSH1 0x1 PUSH1 0x3 PUSH1 0x0 DUP6 PUSH20 0xFFFFFFFFFFFFFFFFFFFFFFFFFFFFFFFFFFFFFFFF AND PUSH20 0xFFFFFFFFFFFFFFFFFFFFFFFFFFFFFFFFFFFFFFFF AND DUP2 MSTORE PUSH1 0x20 ADD SWAP1 DUP2 MSTORE PUSH1 0x20 ADD PUSH1 0x0 KECCAK256 PUSH1 0x0 DUP3 DUP3 SLOAD PUSH2 0x21F0 SWAP2 SWAP1 PUSH2 0x39D6 JUMP JUMPDEST SWAP3 POP POP DUP2 SWAP1 SSTORE POP PUSH1 0x1 PUSH1 0x3 PUSH1 0x0 DUP5 PUSH20 0xFFFFFFFFFFFFFFFFFFFFFFFFFFFFFFFFFFFFFFFF AND PUSH20 0xFFFFFFFFFFFFFFFFFFFFFFFFFFFFFFFFFFFFFFFF AND DUP2 MSTORE PUSH1 0x20 ADD SWAP1 DUP2 MSTORE PUSH1 0x20 ADD PUSH1 0x0 KECCAK256 PUSH1 0x0 DUP3 DUP3 SLOAD PUSH2 0x2247 SWAP2 SWAP1 PUSH2 0x3A39 JUMP JUMPDEST SWAP3 POP POP DUP2 SWAP1 SSTORE POP DUP2 PUSH1 0x2 PUSH1 0x0 DUP4 DUP2 MSTORE PUSH1 0x20 ADD SWAP1 DUP2 MSTORE PUSH1 0x20 ADD PUSH1 0x0 KECCAK256 PUSH1 0x0 PUSH2 0x100 EXP DUP2 SLOAD DUP2 PUSH20 0xFFFFFFFFFFFFFFFFFFFFFFFFFFFFFFFFFFFFFFFF MUL NOT AND SWAP1 DUP4 PUSH20 0xFFFFFFFFFFFFFFFFFFFFFFFFFFFFFFFFFFFFFFFF AND MUL OR SWAP1 SSTORE POP DUP1 DUP3 PUSH20 0xFFFFFFFFFFFFFFFFFFFFFFFFFFFFFFFFFFFFFFFF AND DUP5 PUSH20 0xFFFFFFFFFFFFFFFFFFFFFFFFFFFFFFFFFFFFFFFF AND PUSH32 0xDDF252AD1BE2C89B69C2B068FC378DAA952BA7F163C4A11628F55A4DF523B3EF PUSH1 0x40 MLOAD PUSH1 0x40 MLOAD DUP1 SWAP2 SUB SWAP1 LOG4 PUSH2 0x2306 DUP4 DUP4 DUP4 PUSH2 0x29FE JUMP JUMPDEST POP POP POP JUMP JUMPDEST DUP2 PUSH20 0xFFFFFFFFFFFFFFFFFFFFFFFFFFFFFFFFFFFFFFFF AND DUP4 PUSH20 0xFFFFFFFFFFFFFFFFFFFFFFFFFFFFFFFFFFFFFFFF AND SUB PUSH2 0x2379 JUMPI PUSH1 0x40 MLOAD PUSH32 0x8C379A000000000000000000000000000000000000000000000000000000000 DUP2 MSTORE PUSH1 0x4 ADD PUSH2 0x2370 SWAP1 PUSH2 0x444E JUMP JUMPDEST PUSH1 0x40 MLOAD DUP1 SWAP2 SUB SWAP1 REVERT JUMPDEST DUP1 PUSH1 0x5 PUSH1 0x0 DUP6 PUSH20 0xFFFFFFFFFFFFFFFFFFFFFFFFFFFFFFFFFFFFFFFF AND PUSH20 0xFFFFFFFFFFFFFFFFFFFFFFFFFFFFFFFFFFFFFFFF AND DUP2 MSTORE PUSH1 0x20 ADD SWAP1 DUP2 MSTORE PUSH1 0x20 ADD PUSH1 0x0 KECCAK256 PUSH1 0x0 DUP5 PUSH20 0xFFFFFFFFFFFFFFFFFFFFFFFFFFFFFFFFFFFFFFFF AND PUSH20 0xFFFFFFFFFFFFFFFFFFFFFFFFFFFFFFFFFFFFFFFF AND DUP2 MSTORE PUSH1 0x20 ADD SWAP1 DUP2 MSTORE PUSH1 0x20 ADD PUSH1 0x0 KECCAK256 PUSH1 0x0 PUSH2 0x100 EXP DUP2 SLOAD DUP2 PUSH1 0xFF MUL NOT AND SWAP1 DUP4 ISZERO ISZERO MUL OR SWAP1 SSTORE POP DUP2 PUSH20 0xFFFFFFFFFFFFFFFFFFFFFFFFFFFFFFFFFFFFFFFF AND DUP4 PUSH20 0xFFFFFFFFFFFFFFFFFFFFFFFFFFFFFFFFFFFFFFFF AND PUSH32 0x17307EAB39AB6107E8899845AD3D59BD9653F200F220920489CA2B5937696C31 DUP4 PUSH1 0x40 MLOAD PUSH2 0x246A SWAP2 SWAP1 PUSH2 0x2E25 JUMP JUMPDEST PUSH1 0x40 MLOAD DUP1 SWAP2 SUB SWAP1 LOG3 POP POP POP JUMP JUMPDEST PUSH2 0x2482 DUP5 DUP5 DUP5 PUSH2 0x20A5 JUMP JUMPDEST PUSH2 0x248E DUP5 DUP5 DUP5 DUP5 PUSH2 0x2A03 JUMP JUMPDEST PUSH2 0x24CD JUMPI PUSH1 0x40 MLOAD PUSH32 0x8C379A000000000000000000000000000000000000000000000000000000000 DUP2 MSTORE PUSH1 0x4 ADD PUSH2 0x24C4 SWAP1 PUSH2 0x44E0 JUMP JUMPDEST PUSH1 0x40 MLOAD DUP1 SWAP2 SUB SWAP1 REVERT JUMPDEST POP POP POP POP JUMP JUMPDEST PUSH1 0x0 PUSH20 0xFFFFFFFFFFFFFFFFFFFFFFFFFFFFFFFFFFFFFFFF AND DUP3 PUSH20 0xFFFFFFFFFFFFFFFFFFFFFFFFFFFFFFFFFFFFFFFF AND SUB PUSH2 0x2542 JUMPI PUSH1 0x40 MLOAD PUSH32 0x8C379A000000000000000000000000000000000000000000000000000000000 DUP2 MSTORE PUSH1 0x4 ADD PUSH2 0x2539 SWAP1 PUSH2 0x454C JUMP JUMPDEST PUSH1 0x40 MLOAD DUP1 SWAP2 SUB SWAP1 REVERT JUMPDEST PUSH2 0x254B DUP2 PUSH2 0x1E9A JUMP JUMPDEST ISZERO PUSH2 0x258B JUMPI PUSH1 0x40 MLOAD PUSH32 0x8C379A000000000000000000000000000000000000000000000000000000000 DUP2 MSTORE PUSH1 0x4 ADD PUSH2 0x2582 SWAP1 PUSH2 0x45B8 JUMP JUMPDEST PUSH1 0x40 MLOAD DUP1 SWAP2 SUB SWAP1 REVERT JUMPDEST PUSH2 0x2597 PUSH1 0x0 DUP4 DUP4 PUSH2 0x29F9 JUMP JUMPDEST PUSH1 0x1 PUSH1 0x3 PUSH1 0x0 DUP5 PUSH20 0xFFFFFFFFFFFFFFFFFFFFFFFFFFFFFFFFFFFFFFFF AND PUSH20 0xFFFFFFFFFFFFFFFFFFFFFFFFFFFFFFFFFFFFFFFF AND DUP2 MSTORE PUSH1 0x20 ADD SWAP1 DUP2 MSTORE PUSH1 0x20 ADD PUSH1 0x0 KECCAK256 PUSH1 0x0 DUP3 DUP3 SLOAD PUSH2 0x25E7 SWAP2 SWAP1 PUSH2 0x3A39 JUMP JUMPDEST SWAP3 POP POP DUP2 SWAP1 SSTORE POP DUP2 PUSH1 0x2 PUSH1 0x0 DUP4 DUP2 MSTORE PUSH1 0x20 ADD SWAP1 DUP2 MSTORE PUSH1 0x20 ADD PUSH1 0x0 KECCAK256 PUSH1 0x0 PUSH2 0x100 EXP DUP2 SLOAD DUP2 PUSH20 0xFFFFFFFFFFFFFFFFFFFFFFFFFFFFFFFFFFFFFFFF MUL NOT AND SWAP1 DUP4 PUSH20 0xFFFFFFFFFFFFFFFFFFFFFFFFFFFFFFFFFFFFFFFF AND MUL OR SWAP1 SSTORE POP DUP1 DUP3 PUSH20 0xFFFFFFFFFFFFFFFFFFFFFFFFFFFFFFFFFFFFFFFF AND PUSH1 0x0 PUSH20 0xFFFFFFFFFFFFFFFFFFFFFFFFFFFFFFFFFFFFFFFF AND PUSH32 0xDDF252AD1BE2C89B69C2B068FC378DAA952BA7F163C4A11628F55A4DF523B3EF PUSH1 0x40 MLOAD PUSH1 0x40 MLOAD DUP1 SWAP2 SUB SWAP1 LOG4 PUSH2 0x26A8 PUSH1 0x0 DUP4 DUP4 PUSH2 0x29FE JUMP JUMPDEST POP POP JUMP JUMPDEST PUSH2 0x26B5 DUP3 PUSH2 0x1E9A JUMP JUMPDEST PUSH2 0x26F4 JUMPI PUSH1 0x40 MLOAD PUSH32 0x8C379A000000000000000000000000000000000000000000000000000000000 DUP2 MSTORE PUSH1 0x4 ADD PUSH2 0x26EB SWAP1 PUSH2 0x464A JUMP JUMPDEST PUSH1 0x40 MLOAD DUP1 SWAP2 SUB SWAP1 REVERT JUMPDEST DUP1 PUSH1 0x6 PUSH1 0x0 DUP5 DUP2 MSTORE PUSH1 0x20 ADD SWAP1 DUP2 MSTORE PUSH1 0x20 ADD PUSH1 0x0 KECCAK256 SWAP1 DUP2 PUSH2 0x2714 SWAP2 SWAP1 PUSH2 0x3F3B JUMP JUMPDEST POP POP POP JUMP JUMPDEST PUSH1 0x0 DUP3 GT PUSH2 0x275C JUMPI PUSH1 0x40 MLOAD PUSH32 0x8C379A000000000000000000000000000000000000000000000000000000000 DUP2 MSTORE PUSH1 0x4 ADD PUSH2 0x2753 SWAP1 PUSH2 0x46B6 JUMP JUMPDEST PUSH1 0x40 MLOAD DUP1 SWAP2 SUB SWAP1 REVERT JUMPDEST PUSH1 0x9 SLOAD CALLVALUE EQ PUSH2 0x27A0 JUMPI PUSH1 0x40 MLOAD PUSH32 0x8C379A000000000000000000000000000000000000000000000000000000000 DUP2 MSTORE PUSH1 0x4 ADD PUSH2 0x2797 SWAP1 PUSH2 0x3D6F JUMP JUMPDEST PUSH1 0x40 MLOAD DUP1 SWAP2 SUB SWAP1 REVERT JUMPDEST PUSH1 0x40 MLOAD DUP1 PUSH1 0xC0 ADD PUSH1 0x40 MSTORE DUP1 DUP5 DUP2 MSTORE PUSH1 0x20 ADD CALLER PUSH20 0xFFFFFFFFFFFFFFFFFFFFFFFFFFFFFFFFFFFFFFFF AND DUP2 MSTORE PUSH1 0x20 ADD ADDRESS PUSH20 0xFFFFFFFFFFFFFFFFFFFFFFFFFFFFFFFFFFFFFFFF AND DUP2 MSTORE PUSH1 0x20 ADD DUP4 DUP2 MSTORE PUSH1 0x20 ADD PUSH1 0x0 ISZERO ISZERO DUP2 MSTORE PUSH1 0x20 ADD DUP3 DUP2 MSTORE POP PUSH1 0xB PUSH1 0x0 DUP6 DUP2 MSTORE PUSH1 0x20 ADD SWAP1 DUP2 MSTORE PUSH1 0x20 ADD PUSH1 0x0 KECCAK256 PUSH1 0x0 DUP3 ADD MLOAD DUP2 PUSH1 0x0 ADD SSTORE PUSH1 0x20 DUP3 ADD MLOAD DUP2 PUSH1 0x1 ADD PUSH1 0x0 PUSH2 0x100 EXP DUP2 SLOAD DUP2 PUSH20 0xFFFFFFFFFFFFFFFFFFFFFFFFFFFFFFFFFFFFFFFF MUL NOT AND SWAP1 DUP4 PUSH20 0xFFFFFFFFFFFFFFFFFFFFFFFFFFFFFFFFFFFFFFFF AND MUL OR SWAP1 SSTORE POP PUSH1 0x40 DUP3 ADD MLOAD DUP2 PUSH1 0x2 ADD PUSH1 0x0 PUSH2 0x100 EXP DUP2 SLOAD DUP2 PUSH20 0xFFFFFFFFFFFFFFFFFFFFFFFFFFFFFFFFFFFFFFFF MUL NOT AND SWAP1 DUP4 PUSH20 0xFFFFFFFFFFFFFFFFFFFFFFFFFFFFFFFFFFFFFFFF AND MUL OR SWAP1 SSTORE POP PUSH1 0x60 DUP3 ADD MLOAD DUP2 PUSH1 0x3 ADD SSTORE PUSH1 0x80 DUP3 ADD MLOAD DUP2 PUSH1 0x4 ADD PUSH1 0x0 PUSH2 0x100 EXP DUP2 SLOAD DUP2 PUSH1 0xFF MUL NOT AND SWAP1 DUP4 ISZERO ISZERO MUL OR SWAP1 SSTORE POP PUSH1 0xA0 DUP3 ADD MLOAD DUP2 PUSH1 0x5 ADD SWAP1 DUP2 PUSH2 0x28E6 SWAP2 SWAP1 PUSH2 0x3F3B JUMP JUMPDEST POP SWAP1 POP POP PUSH2 0x28F5 CALLER ADDRESS DUP6 PUSH2 0x20A5 JUMP JUMPDEST DUP3 PUSH32 0xDDAEB01FB1DDCE9789E64660541353C5A90FDD3E87AD074757173128396DF021 CALLER ADDRESS DUP6 PUSH1 0x0 DUP7 PUSH1 0x40 MLOAD PUSH2 0x292E SWAP6 SWAP5 SWAP4 SWAP3 SWAP2 SWAP1 PUSH2 0x46D6 JUMP JUMPDEST PUSH1 0x40 MLOAD DUP1 SWAP2 SUB SWAP1 LOG2 POP POP POP JUMP JUMPDEST PUSH1 0x60 PUSH1 0x40 MLOAD DUP1 PUSH1 0x20 ADD PUSH1 0x40 MSTORE DUP1 PUSH1 0x0 DUP2 MSTORE POP SWAP1 POP SWAP1 JUMP JUMPDEST PUSH1 0x60 PUSH2 0x295D DUP3 PUSH2 0x1E9A JUMP JUMPDEST PUSH2 0x299C JUMPI PUSH1 0x40 MLOAD PUSH32 0x8C379A000000000000000000000000000000000000000000000000000000000 DUP2 MSTORE PUSH1 0x4 ADD PUSH2 0x2993 SWAP1 PUSH2 0x47A2 JUMP JUMPDEST PUSH1 0x40 MLOAD DUP1 SWAP2 SUB SWAP1 REVERT JUMPDEST PUSH1 0x0 PUSH2 0x29A6 PUSH2 0x293B JUMP JUMPDEST SWAP1 POP PUSH1 0x0 DUP2 MLOAD GT PUSH2 0x29C6 JUMPI PUSH1 0x40 MLOAD DUP1 PUSH1 0x20 ADD PUSH1 0x40 MSTORE DUP1 PUSH1 0x0 DUP2 MSTORE POP PUSH2 0x29F1 JUMP JUMPDEST DUP1 PUSH2 0x29D0 DUP5 PUSH2 0x2B8A JUMP JUMPDEST PUSH1 0x40 MLOAD PUSH1 0x20 ADD PUSH2 0x29E1 SWAP3 SWAP2 SWAP1 PUSH2 0x4228 JUMP JUMPDEST PUSH1 0x40 MLOAD PUSH1 0x20 DUP2 DUP4 SUB SUB DUP2 MSTORE SWAP1 PUSH1 0x40 MSTORE JUMPDEST SWAP2 POP POP SWAP2 SWAP1 POP JUMP JUMPDEST POP POP POP JUMP JUMPDEST POP POP POP JUMP JUMPDEST PUSH1 0x0 PUSH2 0x2A24 DUP5 PUSH20 0xFFFFFFFFFFFFFFFFFFFFFFFFFFFFFFFFFFFFFFFF AND PUSH2 0x2CEA JUMP JUMPDEST ISZERO PUSH2 0x2B7D JUMPI DUP4 PUSH20 0xFFFFFFFFFFFFFFFFFFFFFFFFFFFFFFFFFFFFFFFF AND PUSH4 0x150B7A02 PUSH2 0x2A4D PUSH2 0x1F06 JUMP JUMPDEST DUP8 DUP7 DUP7 PUSH1 0x40 MLOAD DUP6 PUSH4 0xFFFFFFFF AND PUSH1 0xE0 SHL DUP2 MSTORE PUSH1 0x4 ADD PUSH2 0x2A6F SWAP5 SWAP4 SWAP3 SWAP2 SWAP1 PUSH2 0x4817 JUMP JUMPDEST PUSH1 0x20 PUSH1 0x40 MLOAD DUP1 DUP4 SUB DUP2 PUSH1 0x0 DUP8 GAS CALL SWAP3 POP POP POP DUP1 ISZERO PUSH2 0x2AAB JUMPI POP PUSH1 0x40 MLOAD RETURNDATASIZE PUSH1 0x1F NOT PUSH1 0x1F DUP3 ADD AND DUP3 ADD DUP1 PUSH1 0x40 MSTORE POP DUP2 ADD SWAP1 PUSH2 0x2AA8 SWAP2 SWAP1 PUSH2 0x4878 JUMP JUMPDEST PUSH1 0x1 JUMPDEST PUSH2 0x2B2D JUMPI RETURNDATASIZE DUP1 PUSH1 0x0 DUP2 EQ PUSH2 0x2ADB JUMPI PUSH1 0x40 MLOAD SWAP2 POP PUSH1 0x1F NOT PUSH1 0x3F RETURNDATASIZE ADD AND DUP3 ADD PUSH1 0x40 MSTORE RETURNDATASIZE DUP3 MSTORE RETURNDATASIZE PUSH1 0x0 PUSH1 0x20 DUP5 ADD RETURNDATACOPY PUSH2 0x2AE0 JUMP JUMPDEST PUSH1 0x60 SWAP2 POP JUMPDEST POP PUSH1 0x0 DUP2 MLOAD SUB PUSH2 0x2B25 JUMPI PUSH1 0x40 MLOAD PUSH32 0x8C379A000000000000000000000000000000000000000000000000000000000 DUP2 MSTORE PUSH1 0x4 ADD PUSH2 0x2B1C SWAP1 PUSH2 0x44E0 JUMP JUMPDEST PUSH1 0x40 MLOAD DUP1 SWAP2 SUB SWAP1 REVERT JUMPDEST DUP1 MLOAD DUP2 PUSH1 0x20 ADD REVERT JUMPDEST PUSH4 0x150B7A02 PUSH1 0xE0 SHL PUSH28 0xFFFFFFFFFFFFFFFFFFFFFFFFFFFFFFFFFFFFFFFFFFFFFFFFFFFFFFFF NOT AND DUP2 PUSH28 0xFFFFFFFFFFFFFFFFFFFFFFFFFFFFFFFFFFFFFFFFFFFFFFFFFFFFFFFF NOT AND EQ SWAP2 POP POP PUSH2 0x2B82 JUMP JUMPDEST PUSH1 0x1 SWAP1 POP JUMPDEST SWAP5 SWAP4 POP POP POP POP JUMP JUMPDEST PUSH1 0x60 PUSH1 0x0 DUP3 SUB PUSH2 0x2BD1 JUMPI PUSH1 0x40 MLOAD DUP1 PUSH1 0x40 ADD PUSH1 0x40 MSTORE DUP1 PUSH1 0x1 DUP2 MSTORE PUSH1 0x20 ADD PUSH32 0x3000000000000000000000000000000000000000000000000000000000000000 DUP2 MSTORE POP SWAP1 POP PUSH2 0x2CE5 JUMP JUMPDEST PUSH1 0x0 DUP3 SWAP1 POP PUSH1 0x0 JUMPDEST PUSH1 0x0 DUP3 EQ PUSH2 0x2C03 JUMPI DUP1 DUP1 PUSH2 0x2BEC SWAP1 PUSH2 0x3A6D JUMP JUMPDEST SWAP2 POP POP PUSH1 0xA DUP3 PUSH2 0x2BFC SWAP2 SWAP1 PUSH2 0x48D4 JUMP JUMPDEST SWAP2 POP PUSH2 0x2BD9 JUMP JUMPDEST PUSH1 0x0 DUP2 PUSH8 0xFFFFFFFFFFFFFFFF DUP2 GT ISZERO PUSH2 0x2C1F JUMPI PUSH2 0x2C1E PUSH2 0x32C7 JUMP JUMPDEST JUMPDEST PUSH1 0x40 MLOAD SWAP1 DUP1 DUP3 MSTORE DUP1 PUSH1 0x1F ADD PUSH1 0x1F NOT AND PUSH1 0x20 ADD DUP3 ADD PUSH1 0x40 MSTORE DUP1 ISZERO PUSH2 0x2C51 JUMPI DUP2 PUSH1 0x20 ADD PUSH1 0x1 DUP3 MUL DUP1 CALLDATASIZE DUP4 CALLDATACOPY DUP1 DUP3 ADD SWAP2 POP POP SWAP1 POP JUMPDEST POP SWAP1 POP JUMPDEST PUSH1 0x0 DUP6 EQ PUSH2 0x2CDE JUMPI PUSH1 0x1 DUP3 PUSH2 0x2C6A SWAP2 SWAP1 PUSH2 0x39D6 JUMP JUMPDEST SWAP2 POP PUSH1 0xA DUP6 PUSH2 0x2C79 SWAP2 SWAP1 PUSH2 0x4905 JUMP JUMPDEST PUSH1 0x30 PUSH2 0x2C85 SWAP2 SWAP1 PUSH2 0x3A39 JUMP JUMPDEST PUSH1 0xF8 SHL DUP2 DUP4 DUP2 MLOAD DUP2 LT PUSH2 0x2C9B JUMPI PUSH2 0x2C9A PUSH2 0x3A0A JUMP JUMPDEST JUMPDEST PUSH1 0x20 ADD ADD SWAP1 PUSH31 0xFFFFFFFFFFFFFFFFFFFFFFFFFFFFFFFFFFFFFFFFFFFFFFFFFFFFFFFFFFFFFF NOT AND SWAP1 DUP2 PUSH1 0x0 BYTE SWAP1 MSTORE8 POP PUSH1 0xA DUP6 PUSH2 0x2CD7 SWAP2 SWAP1 PUSH2 0x48D4 JUMP JUMPDEST SWAP5 POP PUSH2 0x2C55 JUMP JUMPDEST DUP1 SWAP4 POP POP POP POP JUMPDEST SWAP2 SWAP1 POP JUMP JUMPDEST PUSH1 0x0 DUP1 DUP3 PUSH20 0xFFFFFFFFFFFFFFFFFFFFFFFFFFFFFFFFFFFFFFFF AND EXTCODESIZE GT SWAP1 POP SWAP2 SWAP1 POP JUMP JUMPDEST PUSH1 0x40 MLOAD DUP1 PUSH1 0xC0 ADD PUSH1 0x40 MSTORE DUP1 PUSH1 0x0 DUP2 MSTORE PUSH1 0x20 ADD PUSH1 0x0 PUSH20 0xFFFFFFFFFFFFFFFFFFFFFFFFFFFFFFFFFFFFFFFF AND DUP2 MSTORE PUSH1 0x20 ADD PUSH1 0x0 PUSH20 0xFFFFFFFFFFFFFFFFFFFFFFFFFFFFFFFFFFFFFFFF AND DUP2 MSTORE PUSH1 0x20 ADD PUSH1 0x0 DUP2 MSTORE PUSH1 0x20 ADD PUSH1 0x0 ISZERO ISZERO DUP2 MSTORE PUSH1 0x20 ADD PUSH1 0x60 DUP2 MSTORE POP SWAP1 JUMP JUMPDEST PUSH1 0x0 PUSH1 0x40 MLOAD SWAP1 POP SWAP1 JUMP JUMPDEST PUSH1 0x0 DUP1 REVERT JUMPDEST PUSH1 0x0 DUP1 REVERT JUMPDEST PUSH1 0x0 PUSH32 0xFFFFFFFF00000000000000000000000000000000000000000000000000000000 DUP3 AND SWAP1 POP SWAP2 SWAP1 POP JUMP JUMPDEST PUSH2 0x2DBA DUP2 PUSH2 0x2D85 JUMP JUMPDEST DUP2 EQ PUSH2 0x2DC5 JUMPI PUSH1 0x0 DUP1 REVERT JUMPDEST POP JUMP JUMPDEST PUSH1 0x0 DUP2 CALLDATALOAD SWAP1 POP PUSH2 0x2DD7 DUP2 PUSH2 0x2DB1 JUMP JUMPDEST SWAP3 SWAP2 POP POP JUMP JUMPDEST PUSH1 0x0 PUSH1 0x20 DUP3 DUP5 SUB SLT ISZERO PUSH2 0x2DF3 JUMPI PUSH2 0x2DF2 PUSH2 0x2D7B JUMP JUMPDEST JUMPDEST PUSH1 0x0 PUSH2 0x2E01 DUP5 DUP3 DUP6 ADD PUSH2 0x2DC8 JUMP JUMPDEST SWAP2 POP POP SWAP3 SWAP2 POP POP JUMP JUMPDEST PUSH1 0x0 DUP2 ISZERO ISZERO SWAP1 POP SWAP2 SWAP1 POP JUMP JUMPDEST PUSH2 0x2E1F DUP2 PUSH2 0x2E0A JUMP JUMPDEST DUP3 MSTORE POP POP JUMP JUMPDEST PUSH1 0x0 PUSH1 0x20 DUP3 ADD SWAP1 POP PUSH2 0x2E3A PUSH1 0x0 DUP4 ADD DUP5 PUSH2 0x2E16 JUMP JUMPDEST SWAP3 SWAP2 POP POP JUMP JUMPDEST PUSH1 0x0 DUP2 MLOAD SWAP1 POP SWAP2 SWAP1 POP JUMP JUMPDEST PUSH1 0x0 DUP3 DUP3 MSTORE PUSH1 0x20 DUP3 ADD SWAP1 POP SWAP3 SWAP2 POP POP JUMP JUMPDEST PUSH1 0x0 JUMPDEST DUP4 DUP2 LT ISZERO PUSH2 0x2E7A JUMPI DUP1 DUP3 ADD MLOAD DUP2 DUP5 ADD MSTORE PUSH1 0x20 DUP2 ADD SWAP1 POP PUSH2 0x2E5F JUMP JUMPDEST PUSH1 0x0 DUP5 DUP5 ADD MSTORE POP POP POP POP JUMP JUMPDEST PUSH1 0x0 PUSH1 0x1F NOT PUSH1 0x1F DUP4 ADD AND SWAP1 POP SWAP2 SWAP1 POP JUMP JUMPDEST PUSH1 0x0 PUSH2 0x2EA2 DUP3 PUSH2 0x2E40 JUMP JUMPDEST PUSH2 0x2EAC DUP2 DUP6 PUSH2 0x2E4B JUMP JUMPDEST SWAP4 POP PUSH2 0x2EBC DUP2 DUP6 PUSH1 0x20 DUP7 ADD PUSH2 0x2E5C JUMP JUMPDEST PUSH2 0x2EC5 DUP2 PUSH2 0x2E86 JUMP JUMPDEST DUP5 ADD SWAP2 POP POP SWAP3 SWAP2 POP POP JUMP JUMPDEST PUSH1 0x0 PUSH1 0x20 DUP3 ADD SWAP1 POP DUP2 DUP2 SUB PUSH1 0x0 DUP4 ADD MSTORE PUSH2 0x2EEA DUP2 DUP5 PUSH2 0x2E97 JUMP JUMPDEST SWAP1 POP SWAP3 SWAP2 POP POP JUMP JUMPDEST PUSH1 0x0 DUP2 SWAP1 POP SWAP2 SWAP1 POP JUMP JUMPDEST PUSH2 0x2F05 DUP2 PUSH2 0x2EF2 JUMP JUMPDEST DUP2 EQ PUSH2 0x2F10 JUMPI PUSH1 0x0 DUP1 REVERT JUMPDEST POP JUMP JUMPDEST PUSH1 0x0 DUP2 CALLDATALOAD SWAP1 POP PUSH2 0x2F22 DUP2 PUSH2 0x2EFC JUMP JUMPDEST SWAP3 SWAP2 POP POP JUMP JUMPDEST PUSH1 0x0 PUSH1 0x20 DUP3 DUP5 SUB SLT ISZERO PUSH2 0x2F3E JUMPI PUSH2 0x2F3D PUSH2 0x2D7B JUMP JUMPDEST JUMPDEST PUSH1 0x0 PUSH2 0x2F4C DUP5 DUP3 DUP6 ADD PUSH2 0x2F13 JUMP JUMPDEST SWAP2 POP POP SWAP3 SWAP2 POP POP JUMP JUMPDEST PUSH1 0x0 PUSH20 0xFFFFFFFFFFFFFFFFFFFFFFFFFFFFFFFFFFFFFFFF DUP3 AND SWAP1 POP SWAP2 SWAP1 POP JUMP JUMPDEST PUSH1 0x0 PUSH2 0x2F80 DUP3 PUSH2 0x2F55 JUMP JUMPDEST SWAP1 POP SWAP2 SWAP1 POP JUMP JUMPDEST PUSH2 0x2F90 DUP2 PUSH2 0x2F75 JUMP JUMPDEST DUP3 MSTORE POP POP JUMP JUMPDEST PUSH1 0x0 PUSH1 0x20 DUP3 ADD SWAP1 POP PUSH2 0x2FAB PUSH1 0x0 DUP4 ADD DUP5 PUSH2 0x2F87 JUMP JUMPDEST SWAP3 SWAP2 POP POP JUMP JUMPDEST PUSH2 0x2FBA DUP2 PUSH2 0x2F75 JUMP JUMPDEST DUP2 EQ PUSH2 0x2FC5 JUMPI PUSH1 0x0 DUP1 REVERT JUMPDEST POP JUMP JUMPDEST PUSH1 0x0 DUP2 CALLDATALOAD SWAP1 POP PUSH2 0x2FD7 DUP2 PUSH2 0x2FB1 JUMP JUMPDEST SWAP3 SWAP2 POP POP JUMP JUMPDEST PUSH1 0x0 DUP1 PUSH1 0x40 DUP4 DUP6 SUB SLT ISZERO PUSH2 0x2FF4 JUMPI PUSH2 0x2FF3 PUSH2 0x2D7B JUMP JUMPDEST JUMPDEST PUSH1 0x0 PUSH2 0x3002 DUP6 DUP3 DUP7 ADD PUSH2 0x2FC8 JUMP JUMPDEST SWAP3 POP POP PUSH1 0x20 PUSH2 0x3013 DUP6 DUP3 DUP7 ADD PUSH2 0x2F13 JUMP JUMPDEST SWAP2 POP POP SWAP3 POP SWAP3 SWAP1 POP JUMP JUMPDEST PUSH1 0x0 DUP2 MLOAD SWAP1 POP SWAP2 SWAP1 POP JUMP JUMPDEST PUSH1 0x0 DUP3 DUP3 MSTORE PUSH1 0x20 DUP3 ADD SWAP1 POP SWAP3 SWAP2 POP POP JUMP JUMPDEST PUSH1 0x0 DUP2 SWAP1 POP PUSH1 0x20 DUP3 ADD SWAP1 POP SWAP2 SWAP1 POP JUMP JUMPDEST PUSH2 0x3052 DUP2 PUSH2 0x2EF2 JUMP JUMPDEST DUP3 MSTORE POP POP JUMP JUMPDEST PUSH1 0x0 PUSH2 0x3063 DUP3 PUSH2 0x2F55 JUMP JUMPDEST SWAP1 POP SWAP2 SWAP1 POP JUMP JUMPDEST PUSH2 0x3073 DUP2 PUSH2 0x3058 JUMP JUMPDEST DUP3 MSTORE POP POP JUMP JUMPDEST PUSH2 0x3082 DUP2 PUSH2 0x2E0A JUMP JUMPDEST DUP3 MSTORE POP POP JUMP JUMPDEST PUSH1 0x0 DUP3 DUP3 MSTORE PUSH1 0x20 DUP3 ADD SWAP1 POP SWAP3 SWAP2 POP POP JUMP JUMPDEST PUSH1 0x0 PUSH2 0x30A4 DUP3 PUSH2 0x2E40 JUMP JUMPDEST PUSH2 0x30AE DUP2 DUP6 PUSH2 0x3088 JUMP JUMPDEST SWAP4 POP PUSH2 0x30BE DUP2 DUP6 PUSH1 0x20 DUP7 ADD PUSH2 0x2E5C JUMP JUMPDEST PUSH2 0x30C7 DUP2 PUSH2 0x2E86 JUMP JUMPDEST DUP5 ADD SWAP2 POP POP SWAP3 SWAP2 POP POP JUMP JUMPDEST PUSH1 0x0 PUSH1 0xC0 DUP4 ADD PUSH1 0x0 DUP4 ADD MLOAD PUSH2 0x30EA PUSH1 0x0 DUP7 ADD DUP3 PUSH2 0x3049 JUMP JUMPDEST POP PUSH1 0x20 DUP4 ADD MLOAD PUSH2 0x30FD PUSH1 0x20 DUP7 ADD DUP3 PUSH2 0x306A JUMP JUMPDEST POP PUSH1 0x40 DUP4 ADD MLOAD PUSH2 0x3110 PUSH1 0x40 DUP7 ADD DUP3 PUSH2 0x306A JUMP JUMPDEST POP PUSH1 0x60 DUP4 ADD MLOAD PUSH2 0x3123 PUSH1 0x60 DUP7 ADD DUP3 PUSH2 0x3049 JUMP JUMPDEST POP PUSH1 0x80 DUP4 ADD MLOAD PUSH2 0x3136 PUSH1 0x80 DUP7 ADD DUP3 PUSH2 0x3079 JUMP JUMPDEST POP PUSH1 0xA0 DUP4 ADD MLOAD DUP5 DUP3 SUB PUSH1 0xA0 DUP7 ADD MSTORE PUSH2 0x314E DUP3 DUP3 PUSH2 0x3099 JUMP JUMPDEST SWAP2 POP POP DUP1 SWAP2 POP POP SWAP3 SWAP2 POP POP JUMP JUMPDEST PUSH1 0x0 PUSH2 0x3167 DUP4 DUP4 PUSH2 0x30D2 JUMP JUMPDEST SWAP1 POP SWAP3 SWAP2 POP POP JUMP JUMPDEST PUSH1 0x0 PUSH1 0x20 DUP3 ADD SWAP1 POP SWAP2 SWAP1 POP JUMP JUMPDEST PUSH1 0x0 PUSH2 0x3187 DUP3 PUSH2 0x301D JUMP JUMPDEST PUSH2 0x3191 DUP2 DUP6 PUSH2 0x3028 JUMP JUMPDEST SWAP4 POP DUP4 PUSH1 0x20 DUP3 MUL DUP6 ADD PUSH2 0x31A3 DUP6 PUSH2 0x3039 JUMP JUMPDEST DUP1 PUSH1 0x0 JUMPDEST DUP6 DUP2 LT ISZERO PUSH2 0x31DF JUMPI DUP5 DUP5 SUB DUP10 MSTORE DUP2 MLOAD PUSH2 0x31C0 DUP6 DUP3 PUSH2 0x315B JUMP JUMPDEST SWAP5 POP PUSH2 0x31CB DUP4 PUSH2 0x316F JUMP JUMPDEST SWAP3 POP PUSH1 0x20 DUP11 ADD SWAP10 POP POP PUSH1 0x1 DUP2 ADD SWAP1 POP PUSH2 0x31A7 JUMP JUMPDEST POP DUP3 SWAP8 POP DUP8 SWAP6 POP POP POP POP POP POP SWAP3 SWAP2 POP POP JUMP JUMPDEST PUSH1 0x0 PUSH1 0x20 DUP3 ADD SWAP1 POP DUP2 DUP2 SUB PUSH1 0x0 DUP4 ADD MSTORE PUSH2 0x320B DUP2 DUP5 PUSH2 0x317C JUMP JUMPDEST SWAP1 POP SWAP3 SWAP2 POP POP JUMP JUMPDEST PUSH2 0x321C DUP2 PUSH2 0x2EF2 JUMP JUMPDEST DUP3 MSTORE POP POP JUMP JUMPDEST PUSH1 0x0 PUSH1 0x20 DUP3 ADD SWAP1 POP PUSH2 0x3237 PUSH1 0x0 DUP4 ADD DUP5 PUSH2 0x3213 JUMP JUMPDEST SWAP3 SWAP2 POP POP JUMP JUMPDEST PUSH1 0x0 DUP1 PUSH1 0x0 PUSH1 0x60 DUP5 DUP7 SUB SLT ISZERO PUSH2 0x3256 JUMPI PUSH2 0x3255 PUSH2 0x2D7B JUMP JUMPDEST JUMPDEST PUSH1 0x0 PUSH2 0x3264 DUP7 DUP3 DUP8 ADD PUSH2 0x2FC8 JUMP JUMPDEST SWAP4 POP POP PUSH1 0x20 PUSH2 0x3275 DUP7 DUP3 DUP8 ADD PUSH2 0x2FC8 JUMP JUMPDEST SWAP3 POP POP PUSH1 0x40 PUSH2 0x3286 DUP7 DUP3 DUP8 ADD PUSH2 0x2F13 JUMP JUMPDEST SWAP2 POP POP SWAP3 POP SWAP3 POP SWAP3 JUMP JUMPDEST PUSH1 0x0 PUSH1 0x20 DUP3 DUP5 SUB SLT ISZERO PUSH2 0x32A6 JUMPI PUSH2 0x32A5 PUSH2 0x2D7B JUMP JUMPDEST JUMPDEST PUSH1 0x0 PUSH2 0x32B4 DUP5 DUP3 DUP6 ADD PUSH2 0x2FC8 JUMP JUMPDEST SWAP2 POP POP SWAP3 SWAP2 POP POP JUMP JUMPDEST PUSH1 0x0 DUP1 REVERT JUMPDEST PUSH1 0x0 DUP1 REVERT JUMPDEST PUSH32 0x4E487B7100000000000000000000000000000000000000000000000000000000 PUSH1 0x0 MSTORE PUSH1 0x41 PUSH1 0x4 MSTORE PUSH1 0x24 PUSH1 0x0 REVERT JUMPDEST PUSH2 0x32FF DUP3 PUSH2 0x2E86 JUMP JUMPDEST DUP2 ADD DUP2 DUP2 LT PUSH8 0xFFFFFFFFFFFFFFFF DUP3 GT OR ISZERO PUSH2 0x331E JUMPI PUSH2 0x331D PUSH2 0x32C7 JUMP JUMPDEST JUMPDEST DUP1 PUSH1 0x40 MSTORE POP POP POP JUMP JUMPDEST PUSH1 0x0 PUSH2 0x3331 PUSH2 0x2D71 JUMP JUMPDEST SWAP1 POP PUSH2 0x333D DUP3 DUP3 PUSH2 0x32F6 JUMP JUMPDEST SWAP2 SWAP1 POP JUMP JUMPDEST PUSH1 0x0 PUSH8 0xFFFFFFFFFFFFFFFF DUP3 GT ISZERO PUSH2 0x335D JUMPI PUSH2 0x335C PUSH2 0x32C7 JUMP JUMPDEST JUMPDEST PUSH2 0x3366 DUP3 PUSH2 0x2E86 JUMP JUMPDEST SWAP1 POP PUSH1 0x20 DUP2 ADD SWAP1 POP SWAP2 SWAP1 POP JUMP JUMPDEST DUP3 DUP2 DUP4 CALLDATACOPY PUSH1 0x0 DUP4 DUP4 ADD MSTORE POP POP POP JUMP JUMPDEST PUSH1 0x0 PUSH2 0x3395 PUSH2 0x3390 DUP5 PUSH2 0x3342 JUMP JUMPDEST PUSH2 0x3327 JUMP JUMPDEST SWAP1 POP DUP3 DUP2 MSTORE PUSH1 0x20 DUP2 ADD DUP5 DUP5 DUP5 ADD GT ISZERO PUSH2 0x33B1 JUMPI PUSH2 0x33B0 PUSH2 0x32C2 JUMP JUMPDEST JUMPDEST PUSH2 0x33BC DUP5 DUP3 DUP6 PUSH2 0x3373 JUMP JUMPDEST POP SWAP4 SWAP3 POP POP POP JUMP JUMPDEST PUSH1 0x0 DUP3 PUSH1 0x1F DUP4 ADD SLT PUSH2 0x33D9 JUMPI PUSH2 0x33D8 PUSH2 0x32BD JUMP JUMPDEST JUMPDEST DUP2 CALLDATALOAD PUSH2 0x33E9 DUP5 DUP3 PUSH1 0x20 DUP7 ADD PUSH2 0x3382 JUMP JUMPDEST SWAP2 POP POP SWAP3 SWAP2 POP POP JUMP JUMPDEST PUSH1 0x0 DUP1 PUSH1 0x0 PUSH1 0x60 DUP5 DUP7 SUB SLT ISZERO PUSH2 0x340B JUMPI PUSH2 0x340A PUSH2 0x2D7B JUMP JUMPDEST JUMPDEST PUSH1 0x0 PUSH2 0x3419 DUP7 DUP3 DUP8 ADD PUSH2 0x2F13 JUMP JUMPDEST SWAP4 POP POP PUSH1 0x20 PUSH2 0x342A DUP7 DUP3 DUP8 ADD PUSH2 0x2F13 JUMP JUMPDEST SWAP3 POP POP PUSH1 0x40 DUP5 ADD CALLDATALOAD PUSH8 0xFFFFFFFFFFFFFFFF DUP2 GT ISZERO PUSH2 0x344B JUMPI PUSH2 0x344A PUSH2 0x2D80 JUMP JUMPDEST JUMPDEST PUSH2 0x3457 DUP7 DUP3 DUP8 ADD PUSH2 0x33C4 JUMP JUMPDEST SWAP2 POP POP SWAP3 POP SWAP3 POP SWAP3 JUMP JUMPDEST PUSH2 0x346A DUP2 PUSH2 0x3058 JUMP JUMPDEST DUP3 MSTORE POP POP JUMP JUMPDEST PUSH1 0x0 PUSH1 0x20 DUP3 ADD SWAP1 POP PUSH2 0x3485 PUSH1 0x0 DUP4 ADD DUP5 PUSH2 0x3461 JUMP JUMPDEST SWAP3 SWAP2 POP POP JUMP JUMPDEST PUSH2 0x3494 DUP2 PUSH2 0x2E0A JUMP JUMPDEST DUP2 EQ PUSH2 0x349F JUMPI PUSH1 0x0 DUP1 REVERT JUMPDEST POP JUMP JUMPDEST PUSH1 0x0 DUP2 CALLDATALOAD SWAP1 POP PUSH2 0x34B1 DUP2 PUSH2 0x348B JUMP JUMPDEST SWAP3 SWAP2 POP POP JUMP JUMPDEST PUSH1 0x0 DUP1 PUSH1 0x40 DUP4 DUP6 SUB SLT ISZERO PUSH2 0x34CE JUMPI PUSH2 0x34CD PUSH2 0x2D7B JUMP JUMPDEST JUMPDEST PUSH1 0x0 PUSH2 0x34DC DUP6 DUP3 DUP7 ADD PUSH2 0x2FC8 JUMP JUMPDEST SWAP3 POP POP PUSH1 0x20 PUSH2 0x34ED DUP6 DUP3 DUP7 ADD PUSH2 0x34A2 JUMP JUMPDEST SWAP2 POP POP SWAP3 POP SWAP3 SWAP1 POP JUMP JUMPDEST PUSH1 0x0 PUSH1 0xC0 DUP4 ADD PUSH1 0x0 DUP4 ADD MLOAD PUSH2 0x350F PUSH1 0x0 DUP7 ADD DUP3 PUSH2 0x3049 JUMP JUMPDEST POP PUSH1 0x20 DUP4 ADD MLOAD PUSH2 0x3522 PUSH1 0x20 DUP7 ADD DUP3 PUSH2 0x306A JUMP JUMPDEST POP PUSH1 0x40 DUP4 ADD MLOAD PUSH2 0x3535 PUSH1 0x40 DUP7 ADD DUP3 PUSH2 0x306A JUMP JUMPDEST POP PUSH1 0x60 DUP4 ADD MLOAD PUSH2 0x3548 PUSH1 0x60 DUP7 ADD DUP3 PUSH2 0x3049 JUMP JUMPDEST POP PUSH1 0x80 DUP4 ADD MLOAD PUSH2 0x355B PUSH1 0x80 DUP7 ADD DUP3 PUSH2 0x3079 JUMP JUMPDEST POP PUSH1 0xA0 DUP4 ADD MLOAD DUP5 DUP3 SUB PUSH1 0xA0 DUP7 ADD MSTORE PUSH2 0x3573 DUP3 DUP3 PUSH2 0x3099 JUMP JUMPDEST SWAP2 POP POP DUP1 SWAP2 POP POP SWAP3 SWAP2 POP POP JUMP JUMPDEST PUSH1 0x0 PUSH1 0x20 DUP3 ADD SWAP1 POP DUP2 DUP2 SUB PUSH1 0x0 DUP4 ADD MSTORE PUSH2 0x359A DUP2 DUP5 PUSH2 0x34F7 JUMP JUMPDEST SWAP1 POP SWAP3 SWAP2 POP POP JUMP JUMPDEST PUSH1 0x0 PUSH8 0xFFFFFFFFFFFFFFFF DUP3 GT ISZERO PUSH2 0x35BD JUMPI PUSH2 0x35BC PUSH2 0x32C7 JUMP JUMPDEST JUMPDEST PUSH2 0x35C6 DUP3 PUSH2 0x2E86 JUMP JUMPDEST SWAP1 POP PUSH1 0x20 DUP2 ADD SWAP1 POP SWAP2 SWAP1 POP JUMP JUMPDEST PUSH1 0x0 PUSH2 0x35E6 PUSH2 0x35E1 DUP5 PUSH2 0x35A2 JUMP JUMPDEST PUSH2 0x3327 JUMP JUMPDEST SWAP1 POP DUP3 DUP2 MSTORE PUSH1 0x20 DUP2 ADD DUP5 DUP5 DUP5 ADD GT ISZERO PUSH2 0x3602 JUMPI PUSH2 0x3601 PUSH2 0x32C2 JUMP JUMPDEST JUMPDEST PUSH2 0x360D DUP5 DUP3 DUP6 PUSH2 0x3373 JUMP JUMPDEST POP SWAP4 SWAP3 POP POP POP JUMP JUMPDEST PUSH1 0x0 DUP3 PUSH1 0x1F DUP4 ADD SLT PUSH2 0x362A JUMPI PUSH2 0x3629 PUSH2 0x32BD JUMP JUMPDEST JUMPDEST DUP2 CALLDATALOAD PUSH2 0x363A DUP5 DUP3 PUSH1 0x20 DUP7 ADD PUSH2 0x35D3 JUMP JUMPDEST SWAP2 POP POP SWAP3 SWAP2 POP POP JUMP JUMPDEST PUSH1 0x0 DUP1 PUSH1 0x0 DUP1 PUSH1 0x80 DUP6 DUP8 SUB SLT ISZERO PUSH2 0x365D JUMPI PUSH2 0x365C PUSH2 0x2D7B JUMP JUMPDEST JUMPDEST PUSH1 0x0 PUSH2 0x366B DUP8 DUP3 DUP9 ADD PUSH2 0x2FC8 JUMP JUMPDEST SWAP5 POP POP PUSH1 0x20 PUSH2 0x367C DUP8 DUP3 DUP9 ADD PUSH2 0x2FC8 JUMP JUMPDEST SWAP4 POP POP PUSH1 0x40 PUSH2 0x368D DUP8 DUP3 DUP9 ADD PUSH2 0x2F13 JUMP JUMPDEST SWAP3 POP POP PUSH1 0x60 DUP6 ADD CALLDATALOAD PUSH8 0xFFFFFFFFFFFFFFFF DUP2 GT ISZERO PUSH2 0x36AE JUMPI PUSH2 0x36AD PUSH2 0x2D80 JUMP JUMPDEST JUMPDEST PUSH2 0x36BA DUP8 DUP3 DUP9 ADD PUSH2 0x3615 JUMP JUMPDEST SWAP2 POP POP SWAP3 SWAP6 SWAP2 SWAP5 POP SWAP3 POP JUMP JUMPDEST PUSH1 0x0 DUP1 PUSH1 0x0 PUSH1 0x60 DUP5 DUP7 SUB SLT ISZERO PUSH2 0x36DF JUMPI PUSH2 0x36DE PUSH2 0x2D7B JUMP JUMPDEST JUMPDEST PUSH1 0x0 DUP5 ADD CALLDATALOAD PUSH8 0xFFFFFFFFFFFFFFFF DUP2 GT ISZERO PUSH2 0x36FD JUMPI PUSH2 0x36FC PUSH2 0x2D80 JUMP JUMPDEST JUMPDEST PUSH2 0x3709 DUP7 DUP3 DUP8 ADD PUSH2 0x33C4 JUMP JUMPDEST SWAP4 POP POP PUSH1 0x20 PUSH2 0x371A DUP7 DUP3 DUP8 ADD PUSH2 0x2F13 JUMP JUMPDEST SWAP3 POP POP PUSH1 0x40 DUP5 ADD CALLDATALOAD PUSH8 0xFFFFFFFFFFFFFFFF DUP2 GT ISZERO PUSH2 0x373B JUMPI PUSH2 0x373A PUSH2 0x2D80 JUMP JUMPDEST JUMPDEST PUSH2 0x3747 DUP7 DUP3 DUP8 ADD PUSH2 0x33C4 JUMP JUMPDEST SWAP2 POP POP SWAP3 POP SWAP3 POP SWAP3 JUMP JUMPDEST PUSH1 0x0 DUP1 PUSH1 0x40 DUP4 DUP6 SUB SLT ISZERO PUSH2 0x3768 JUMPI PUSH2 0x3767 PUSH2 0x2D7B JUMP JUMPDEST JUMPDEST PUSH1 0x0 PUSH2 0x3776 DUP6 DUP3 DUP7 ADD PUSH2 0x2FC8 JUMP JUMPDEST SWAP3 POP POP PUSH1 0x20 PUSH2 0x3787 DUP6 DUP3 DUP7 ADD PUSH2 0x2FC8 JUMP JUMPDEST SWAP2 POP POP SWAP3 POP SWAP3 SWAP1 POP JUMP JUMPDEST PUSH32 0x4E487B7100000000000000000000000000000000000000000000000000000000 PUSH1 0x0 MSTORE PUSH1 0x22 PUSH1 0x4 MSTORE PUSH1 0x24 PUSH1 0x0 REVERT JUMPDEST PUSH1 0x0 PUSH1 0x2 DUP3 DIV SWAP1 POP PUSH1 0x1 DUP3 AND DUP1 PUSH2 0x37D8 JUMPI PUSH1 0x7F DUP3 AND SWAP2 POP JUMPDEST PUSH1 0x20 DUP3 LT DUP2 SUB PUSH2 0x37EB JUMPI PUSH2 0x37EA PUSH2 0x3791 JUMP JUMPDEST JUMPDEST POP SWAP2 SWAP1 POP JUMP JUMPDEST PUSH32 0x4552433732313A20617070726F76656420717565727920666F72206E6F6E6578 PUSH1 0x0 DUP3 ADD MSTORE PUSH32 0x697374656E7420746F6B656E0000000000000000000000000000000000000000 PUSH1 0x20 DUP3 ADD MSTORE POP JUMP JUMPDEST PUSH1 0x0 PUSH2 0x384D PUSH1 0x2C DUP4 PUSH2 0x2E4B JUMP JUMPDEST SWAP2 POP PUSH2 0x3858 DUP3 PUSH2 0x37F1 JUMP JUMPDEST PUSH1 0x40 DUP3 ADD SWAP1 POP SWAP2 SWAP1 POP JUMP JUMPDEST PUSH1 0x0 PUSH1 0x20 DUP3 ADD SWAP1 POP DUP2 DUP2 SUB PUSH1 0x0 DUP4 ADD MSTORE PUSH2 0x387C DUP2 PUSH2 0x3840 JUMP JUMPDEST SWAP1 POP SWAP2 SWAP1 POP JUMP JUMPDEST PUSH32 0x4552433732313A20617070726F76616C20746F2063757272656E74206F776E65 PUSH1 0x0 DUP3 ADD MSTORE PUSH32 0x7200000000000000000000000000000000000000000000000000000000000000 PUSH1 0x20 DUP3 ADD MSTORE POP JUMP JUMPDEST PUSH1 0x0 PUSH2 0x38DF PUSH1 0x21 DUP4 PUSH2 0x2E4B JUMP JUMPDEST SWAP2 POP PUSH2 0x38EA DUP3 PUSH2 0x3883 JUMP JUMPDEST PUSH1 0x40 DUP3 ADD SWAP1 POP SWAP2 SWAP1 POP JUMP JUMPDEST PUSH1 0x0 PUSH1 0x20 DUP3 ADD SWAP1 POP DUP2 DUP2 SUB PUSH1 0x0 DUP4 ADD MSTORE PUSH2 0x390E DUP2 PUSH2 0x38D2 JUMP JUMPDEST SWAP1 POP SWAP2 SWAP1 POP JUMP JUMPDEST PUSH32 0x4552433732313A20617070726F76652063616C6C6572206973206E6F74206F77 PUSH1 0x0 DUP3 ADD MSTORE PUSH32 0x6E6572206E6F7220617070726F76656420666F7220616C6C0000000000000000 PUSH1 0x20 DUP3 ADD MSTORE POP JUMP JUMPDEST PUSH1 0x0 PUSH2 0x3971 PUSH1 0x38 DUP4 PUSH2 0x2E4B JUMP JUMPDEST SWAP2 POP PUSH2 0x397C DUP3 PUSH2 0x3915 JUMP JUMPDEST PUSH1 0x40 DUP3 ADD SWAP1 POP SWAP2 SWAP1 POP JUMP JUMPDEST PUSH1 0x0 PUSH1 0x20 DUP3 ADD SWAP1 POP DUP2 DUP2 SUB PUSH1 0x0 DUP4 ADD MSTORE PUSH2 0x39A0 DUP2 PUSH2 0x3964 JUMP JUMPDEST SWAP1 POP SWAP2 SWAP1 POP JUMP JUMPDEST PUSH32 0x4E487B7100000000000000000000000000000000000000000000000000000000 PUSH1 0x0 MSTORE PUSH1 0x11 PUSH1 0x4 MSTORE PUSH1 0x24 PUSH1 0x0 REVERT JUMPDEST PUSH1 0x0 PUSH2 0x39E1 DUP3 PUSH2 0x2EF2 JUMP JUMPDEST SWAP2 POP PUSH2 0x39EC DUP4 PUSH2 0x2EF2 JUMP JUMPDEST SWAP3 POP DUP3 DUP3 SUB SWAP1 POP DUP2 DUP2 GT ISZERO PUSH2 0x3A04 JUMPI PUSH2 0x3A03 PUSH2 0x39A7 JUMP JUMPDEST JUMPDEST SWAP3 SWAP2 POP POP JUMP JUMPDEST PUSH32 0x4E487B7100000000000000000000000000000000000000000000000000000000 PUSH1 0x0 MSTORE PUSH1 0x32 PUSH1 0x4 MSTORE PUSH1 0x24 PUSH1 0x0 REVERT JUMPDEST PUSH1 0x0 PUSH2 0x3A44 DUP3 PUSH2 0x2EF2 JUMP JUMPDEST SWAP2 POP PUSH2 0x3A4F DUP4 PUSH2 0x2EF2 JUMP JUMPDEST SWAP3 POP DUP3 DUP3 ADD SWAP1 POP DUP1 DUP3 GT ISZERO PUSH2 0x3A67 JUMPI PUSH2 0x3A66 PUSH2 0x39A7 JUMP JUMPDEST JUMPDEST SWAP3 SWAP2 POP POP JUMP JUMPDEST PUSH1 0x0 PUSH2 0x3A78 DUP3 PUSH2 0x2EF2 JUMP JUMPDEST SWAP2 POP PUSH32 0xFFFFFFFFFFFFFFFFFFFFFFFFFFFFFFFFFFFFFFFFFFFFFFFFFFFFFFFFFFFFFFFF DUP3 SUB PUSH2 0x3AAA JUMPI PUSH2 0x3AA9 PUSH2 0x39A7 JUMP JUMPDEST JUMPDEST PUSH1 0x1 DUP3 ADD SWAP1 POP SWAP2 SWAP1 POP JUMP JUMPDEST PUSH32 0x4552433732313A207472616E736665722063616C6C6572206973206E6F74206F PUSH1 0x0 DUP3 ADD MSTORE PUSH32 0x776E6572206E6F7220617070726F766564000000000000000000000000000000 PUSH1 0x20 DUP3 ADD MSTORE POP JUMP JUMPDEST PUSH1 0x0 PUSH2 0x3B11 PUSH1 0x31 DUP4 PUSH2 0x2E4B JUMP JUMPDEST SWAP2 POP PUSH2 0x3B1C DUP3 PUSH2 0x3AB5 JUMP JUMPDEST PUSH1 0x40 DUP3 ADD SWAP1 POP SWAP2 SWAP1 POP JUMP JUMPDEST PUSH1 0x0 PUSH1 0x20 DUP3 ADD SWAP1 POP DUP2 DUP2 SUB PUSH1 0x0 DUP4 ADD MSTORE PUSH2 0x3B40 DUP2 PUSH2 0x3B04 JUMP JUMPDEST SWAP1 POP SWAP2 SWAP1 POP JUMP JUMPDEST PUSH32 0x4552433732313A206F776E657220717565727920666F72206E6F6E6578697374 PUSH1 0x0 DUP3 ADD MSTORE PUSH32 0x656E7420746F6B656E0000000000000000000000000000000000000000000000 PUSH1 0x20 DUP3 ADD MSTORE POP JUMP JUMPDEST PUSH1 0x0 PUSH2 0x3BA3 PUSH1 0x29 DUP4 PUSH2 0x2E4B JUMP JUMPDEST SWAP2 POP PUSH2 0x3BAE DUP3 PUSH2 0x3B47 JUMP JUMPDEST PUSH1 0x40 DUP3 ADD SWAP1 POP SWAP2 SWAP1 POP JUMP JUMPDEST PUSH1 0x0 PUSH1 0x20 DUP3 ADD SWAP1 POP DUP2 DUP2 SUB PUSH1 0x0 DUP4 ADD MSTORE PUSH2 0x3BD2 DUP2 PUSH2 0x3B96 JUMP JUMPDEST SWAP1 POP SWAP2 SWAP1 POP JUMP JUMPDEST PUSH32 0x4552433732313A2062616C616E636520717565727920666F7220746865207A65 PUSH1 0x0 DUP3 ADD MSTORE PUSH32 0x726F206164647265737300000000000000000000000000000000000000000000 PUSH1 0x20 DUP3 ADD MSTORE POP JUMP JUMPDEST PUSH1 0x0 PUSH2 0x3C35 PUSH1 0x2A DUP4 PUSH2 0x2E4B JUMP JUMPDEST SWAP2 POP PUSH2 0x3C40 DUP3 PUSH2 0x3BD9 JUMP JUMPDEST PUSH1 0x40 DUP3 ADD SWAP1 POP SWAP2 SWAP1 POP JUMP JUMPDEST PUSH1 0x0 PUSH1 0x20 DUP3 ADD SWAP1 POP DUP2 DUP2 SUB PUSH1 0x0 DUP4 ADD MSTORE PUSH2 0x3C64 DUP2 PUSH2 0x3C28 JUMP JUMPDEST SWAP1 POP SWAP2 SWAP1 POP JUMP JUMPDEST PUSH32 0x4F6E6C79206974656D206F776E65722063616E20706572666F726D2074686973 PUSH1 0x0 DUP3 ADD MSTORE PUSH32 0x206F7065726174696F6E00000000000000000000000000000000000000000000 PUSH1 0x20 DUP3 ADD MSTORE POP JUMP JUMPDEST PUSH1 0x0 PUSH2 0x3CC7 PUSH1 0x2A DUP4 PUSH2 0x2E4B JUMP JUMPDEST SWAP2 POP PUSH2 0x3CD2 DUP3 PUSH2 0x3C6B JUMP JUMPDEST PUSH1 0x40 DUP3 ADD SWAP1 POP SWAP2 SWAP1 POP JUMP JUMPDEST PUSH1 0x0 PUSH1 0x20 DUP3 ADD SWAP1 POP DUP2 DUP2 SUB PUSH1 0x0 DUP4 ADD MSTORE PUSH2 0x3CF6 DUP2 PUSH2 0x3CBA JUMP JUMPDEST SWAP1 POP SWAP2 SWAP1 POP JUMP JUMPDEST PUSH32 0x5072696365206D75737420626520657175616C20746F206C697374696E672070 PUSH1 0x0 DUP3 ADD MSTORE PUSH32 0x7269636500000000000000000000000000000000000000000000000000000000 PUSH1 0x20 DUP3 ADD MSTORE POP JUMP JUMPDEST PUSH1 0x0 PUSH2 0x3D59 PUSH1 0x24 DUP4 PUSH2 0x2E4B JUMP JUMPDEST SWAP2 POP PUSH2 0x3D64 DUP3 PUSH2 0x3CFD JUMP JUMPDEST PUSH1 0x40 DUP3 ADD SWAP1 POP SWAP2 SWAP1 POP JUMP JUMPDEST PUSH1 0x0 PUSH1 0x20 DUP3 ADD SWAP1 POP DUP2 DUP2 SUB PUSH1 0x0 DUP4 ADD MSTORE PUSH2 0x3D88 DUP2 PUSH2 0x3D4C JUMP JUMPDEST SWAP1 POP SWAP2 SWAP1 POP JUMP JUMPDEST PUSH1 0x0 DUP2 SWAP1 POP DUP2 PUSH1 0x0 MSTORE PUSH1 0x20 PUSH1 0x0 KECCAK256 SWAP1 POP SWAP2 SWAP1 POP JUMP JUMPDEST PUSH1 0x0 PUSH1 0x20 PUSH1 0x1F DUP4 ADD DIV SWAP1 POP SWAP2 SWAP1 POP JUMP JUMPDEST PUSH1 0x0 DUP3 DUP3 SHL SWAP1 POP SWAP3 SWAP2 POP POP JUMP JUMPDEST PUSH1 0x0 PUSH1 0x8 DUP4 MUL PUSH2 0x3DF1 PUSH32 0xFFFFFFFFFFFFFFFFFFFFFFFFFFFFFFFFFFFFFFFFFFFFFFFFFFFFFFFFFFFFFFFF DUP3 PUSH2 0x3DB4 JUMP JUMPDEST PUSH2 0x3DFB DUP7 DUP4 PUSH2 0x3DB4 JUMP JUMPDEST SWAP6 POP DUP1 NOT DUP5 AND SWAP4 POP DUP1 DUP7 AND DUP5 OR SWAP3 POP POP POP SWAP4 SWAP3 POP POP POP JUMP JUMPDEST PUSH1 0x0 DUP2 SWAP1 POP SWAP2 SWAP1 POP JUMP JUMPDEST PUSH1 0x0 PUSH2 0x3E38 PUSH2 0x3E33 PUSH2 0x3E2E DUP5 PUSH2 0x2EF2 JUMP JUMPDEST PUSH2 0x3E13 JUMP JUMPDEST PUSH2 0x2EF2 JUMP JUMPDEST SWAP1 POP SWAP2 SWAP1 POP JUMP JUMPDEST PUSH1 0x0 DUP2 SWAP1 POP SWAP2 SWAP1 POP JUMP JUMPDEST PUSH2 0x3E52 DUP4 PUSH2 0x3E1D JUMP JUMPDEST PUSH2 0x3E66 PUSH2 0x3E5E DUP3 PUSH2 0x3E3F JUMP JUMPDEST DUP5 DUP5 SLOAD PUSH2 0x3DC1 JUMP JUMPDEST DUP3 SSTORE POP POP POP POP JUMP JUMPDEST PUSH1 0x0 SWAP1 JUMP JUMPDEST PUSH2 0x3E7B PUSH2 0x3E6E JUMP JUMPDEST PUSH2 0x3E86 DUP2 DUP5 DUP5 PUSH2 0x3E49 JUMP JUMPDEST POP POP POP JUMP JUMPDEST JUMPDEST DUP2 DUP2 LT ISZERO PUSH2 0x3EAA JUMPI PUSH2 0x3E9F PUSH1 0x0 DUP3 PUSH2 0x3E73 JUMP JUMPDEST PUSH1 0x1 DUP2 ADD SWAP1 POP PUSH2 0x3E8C JUMP JUMPDEST POP POP JUMP JUMPDEST PUSH1 0x1F DUP3 GT ISZERO PUSH2 0x3EEF JUMPI PUSH2 0x3EC0 DUP2 PUSH2 0x3D8F JUMP JUMPDEST PUSH2 0x3EC9 DUP5 PUSH2 0x3DA4 JUMP JUMPDEST DUP2 ADD PUSH1 0x20 DUP6 LT ISZERO PUSH2 0x3ED8 JUMPI DUP2 SWAP1 POP JUMPDEST PUSH2 0x3EEC PUSH2 0x3EE4 DUP6 PUSH2 0x3DA4 JUMP JUMPDEST DUP4 ADD DUP3 PUSH2 0x3E8B JUMP JUMPDEST POP POP JUMPDEST POP POP POP JUMP JUMPDEST PUSH1 0x0 DUP3 DUP3 SHR SWAP1 POP SWAP3 SWAP2 POP POP JUMP JUMPDEST PUSH1 0x0 PUSH2 0x3F12 PUSH1 0x0 NOT DUP5 PUSH1 0x8 MUL PUSH2 0x3EF4 JUMP JUMPDEST NOT DUP1 DUP4 AND SWAP2 POP POP SWAP3 SWAP2 POP POP JUMP JUMPDEST PUSH1 0x0 PUSH2 0x3F2B DUP4 DUP4 PUSH2 0x3F01 JUMP JUMPDEST SWAP2 POP DUP3 PUSH1 0x2 MUL DUP3 OR SWAP1 POP SWAP3 SWAP2 POP POP JUMP JUMPDEST PUSH2 0x3F44 DUP3 PUSH2 0x2E40 JUMP JUMPDEST PUSH8 0xFFFFFFFFFFFFFFFF DUP2 GT ISZERO PUSH2 0x3F5D JUMPI PUSH2 0x3F5C PUSH2 0x32C7 JUMP JUMPDEST JUMPDEST PUSH2 0x3F67 DUP3 SLOAD PUSH2 0x37C0 JUMP JUMPDEST PUSH2 0x3F72 DUP3 DUP3 DUP6 PUSH2 0x3EAE JUMP JUMPDEST PUSH1 0x0 PUSH1 0x20 SWAP1 POP PUSH1 0x1F DUP4 GT PUSH1 0x1 DUP2 EQ PUSH2 0x3FA5 JUMPI PUSH1 0x0 DUP5 ISZERO PUSH2 0x3F93 JUMPI DUP3 DUP8 ADD MLOAD SWAP1 POP JUMPDEST PUSH2 0x3F9D DUP6 DUP3 PUSH2 0x3F1F JUMP JUMPDEST DUP7 SSTORE POP PUSH2 0x4005 JUMP JUMPDEST PUSH1 0x1F NOT DUP5 AND PUSH2 0x3FB3 DUP7 PUSH2 0x3D8F JUMP JUMPDEST PUSH1 0x0 JUMPDEST DUP3 DUP2 LT ISZERO PUSH2 0x3FDB JUMPI DUP5 DUP10 ADD MLOAD DUP3 SSTORE PUSH1 0x1 DUP3 ADD SWAP2 POP PUSH1 0x20 DUP6 ADD SWAP5 POP PUSH1 0x20 DUP2 ADD SWAP1 POP PUSH2 0x3FB6 JUMP JUMPDEST DUP7 DUP4 LT ISZERO PUSH2 0x3FF8 JUMPI DUP5 DUP10 ADD MLOAD PUSH2 0x3FF4 PUSH1 0x1F DUP10 AND DUP3 PUSH2 0x3F01 JUMP JUMPDEST DUP4 SSTORE POP JUMPDEST PUSH1 0x1 PUSH1 0x2 DUP9 MUL ADD DUP9 SSTORE POP POP POP JUMPDEST POP POP POP POP POP POP JUMP JUMPDEST PUSH1 0x0 PUSH2 0x4018 DUP3 PUSH2 0x2EF2 JUMP JUMPDEST SWAP2 POP PUSH1 0x0 DUP3 SUB PUSH2 0x402B JUMPI PUSH2 0x402A PUSH2 0x39A7 JUMP JUMPDEST JUMPDEST PUSH1 0x1 DUP3 SUB SWAP1 POP SWAP2 SWAP1 POP JUMP JUMPDEST PUSH32 0x4F6E6C79206D61726B6574706C616365206F776E65722063616E207570646174 PUSH1 0x0 DUP3 ADD MSTORE PUSH32 0x65206C697374696E672070726963652E00000000000000000000000000000000 PUSH1 0x20 DUP3 ADD MSTORE POP JUMP JUMPDEST PUSH1 0x0 PUSH2 0x4092 PUSH1 0x30 DUP4 PUSH2 0x2E4B JUMP JUMPDEST SWAP2 POP PUSH2 0x409D DUP3 PUSH2 0x4036 JUMP JUMPDEST PUSH1 0x40 DUP3 ADD SWAP1 POP SWAP2 SWAP1 POP JUMP JUMPDEST PUSH1 0x0 PUSH1 0x20 DUP3 ADD SWAP1 POP DUP2 DUP2 SUB PUSH1 0x0 DUP4 ADD MSTORE PUSH2 0x40C1 DUP2 PUSH2 0x4085 JUMP JUMPDEST SWAP1 POP SWAP2 SWAP1 POP JUMP JUMPDEST PUSH32 0x506C65617365207375626D6974207468652061736B696E672070726963652069 PUSH1 0x0 DUP3 ADD MSTORE PUSH32 0x6E206F7264657220746F20636F6D706C65746520746865207075726368617365 PUSH1 0x20 DUP3 ADD MSTORE POP JUMP JUMPDEST PUSH1 0x0 PUSH2 0x4124 PUSH1 0x40 DUP4 PUSH2 0x2E4B JUMP JUMPDEST SWAP2 POP PUSH2 0x412F DUP3 PUSH2 0x40C8 JUMP JUMPDEST PUSH1 0x40 DUP3 ADD SWAP1 POP SWAP2 SWAP1 POP JUMP JUMPDEST PUSH1 0x0 PUSH1 0x20 DUP3 ADD SWAP1 POP DUP2 DUP2 SUB PUSH1 0x0 DUP4 ADD MSTORE PUSH2 0x4153 DUP2 PUSH2 0x4117 JUMP JUMPDEST SWAP1 POP SWAP2 SWAP1 POP JUMP JUMPDEST PUSH32 0x45524337323155524953746F726167653A2055524920717565727920666F7220 PUSH1 0x0 DUP3 ADD MSTORE PUSH32 0x6E6F6E6578697374656E7420746F6B656E000000000000000000000000000000 PUSH1 0x20 DUP3 ADD MSTORE POP JUMP JUMPDEST PUSH1 0x0 PUSH2 0x41B6 PUSH1 0x31 DUP4 PUSH2 0x2E4B JUMP JUMPDEST SWAP2 POP PUSH2 0x41C1 DUP3 PUSH2 0x415A JUMP JUMPDEST PUSH1 0x40 DUP3 ADD SWAP1 POP SWAP2 SWAP1 POP JUMP JUMPDEST PUSH1 0x0 PUSH1 0x20 DUP3 ADD SWAP1 POP DUP2 DUP2 SUB PUSH1 0x0 DUP4 ADD MSTORE PUSH2 0x41E5 DUP2 PUSH2 0x41A9 JUMP JUMPDEST SWAP1 POP SWAP2 SWAP1 POP JUMP JUMPDEST PUSH1 0x0 DUP2 SWAP1 POP SWAP3 SWAP2 POP POP JUMP JUMPDEST PUSH1 0x0 PUSH2 0x4202 DUP3 PUSH2 0x2E40 JUMP JUMPDEST PUSH2 0x420C DUP2 DUP6 PUSH2 0x41EC JUMP JUMPDEST SWAP4 POP PUSH2 0x421C DUP2 DUP6 PUSH1 0x20 DUP7 ADD PUSH2 0x2E5C JUMP JUMPDEST DUP1 DUP5 ADD SWAP2 POP POP SWAP3 SWAP2 POP POP JUMP JUMPDEST PUSH1 0x0 PUSH2 0x4234 DUP3 DUP6 PUSH2 0x41F7 JUMP JUMPDEST SWAP2 POP PUSH2 0x4240 DUP3 DUP5 PUSH2 0x41F7 JUMP JUMPDEST SWAP2 POP DUP2 SWAP1 POP SWAP4 SWAP3 POP POP POP JUMP JUMPDEST PUSH32 0x4552433732313A206F70657261746F7220717565727920666F72206E6F6E6578 PUSH1 0x0 DUP3 ADD MSTORE PUSH32 0x697374656E7420746F6B656E0000000000000000000000000000000000000000 PUSH1 0x20 DUP3 ADD MSTORE POP JUMP JUMPDEST PUSH1 0x0 PUSH2 0x42A8 PUSH1 0x2C DUP4 PUSH2 0x2E4B JUMP JUMPDEST SWAP2 POP PUSH2 0x42B3 DUP3 PUSH2 0x424C JUMP JUMPDEST PUSH1 0x40 DUP3 ADD SWAP1 POP SWAP2 SWAP1 POP JUMP JUMPDEST PUSH1 0x0 PUSH1 0x20 DUP3 ADD SWAP1 POP DUP2 DUP2 SUB PUSH1 0x0 DUP4 ADD MSTORE PUSH2 0x42D7 DUP2 PUSH2 0x429B JUMP JUMPDEST SWAP1 POP SWAP2 SWAP1 POP JUMP JUMPDEST PUSH32 0x4552433732313A207472616E736665722066726F6D20696E636F727265637420 PUSH1 0x0 DUP3 ADD MSTORE PUSH32 0x6F776E6572000000000000000000000000000000000000000000000000000000 PUSH1 0x20 DUP3 ADD MSTORE POP JUMP JUMPDEST PUSH1 0x0 PUSH2 0x433A PUSH1 0x25 DUP4 PUSH2 0x2E4B JUMP JUMPDEST SWAP2 POP PUSH2 0x4345 DUP3 PUSH2 0x42DE JUMP JUMPDEST PUSH1 0x40 DUP3 ADD SWAP1 POP SWAP2 SWAP1 POP JUMP JUMPDEST PUSH1 0x0 PUSH1 0x20 DUP3 ADD SWAP1 POP DUP2 DUP2 SUB PUSH1 0x0 DUP4 ADD MSTORE PUSH2 0x4369 DUP2 PUSH2 0x432D JUMP JUMPDEST SWAP1 POP SWAP2 SWAP1 POP JUMP JUMPDEST PUSH32 0x4552433732313A207472616E7366657220746F20746865207A65726F20616464 PUSH1 0x0 DUP3 ADD MSTORE PUSH32 0x7265737300000000000000000000000000000000000000000000000000000000 PUSH1 0x20 DUP3 ADD MSTORE POP JUMP JUMPDEST PUSH1 0x0 PUSH2 0x43CC PUSH1 0x24 DUP4 PUSH2 0x2E4B JUMP JUMPDEST SWAP2 POP PUSH2 0x43D7 DUP3 PUSH2 0x4370 JUMP JUMPDEST PUSH1 0x40 DUP3 ADD SWAP1 POP SWAP2 SWAP1 POP JUMP JUMPDEST PUSH1 0x0 PUSH1 0x20 DUP3 ADD SWAP1 POP DUP2 DUP2 SUB PUSH1 0x0 DUP4 ADD MSTORE PUSH2 0x43FB DUP2 PUSH2 0x43BF JUMP JUMPDEST SWAP1 POP SWAP2 SWAP1 POP JUMP JUMPDEST PUSH32 0x4552433732313A20617070726F766520746F2063616C6C657200000000000000 PUSH1 0x0 DUP3 ADD MSTORE POP JUMP JUMPDEST PUSH1 0x0 PUSH2 0x4438 PUSH1 0x19 DUP4 PUSH2 0x2E4B JUMP JUMPDEST SWAP2 POP PUSH2 0x4443 DUP3 PUSH2 0x4402 JUMP JUMPDEST PUSH1 0x20 DUP3 ADD SWAP1 POP SWAP2 SWAP1 POP JUMP JUMPDEST PUSH1 0x0 PUSH1 0x20 DUP3 ADD SWAP1 POP DUP2 DUP2 SUB PUSH1 0x0 DUP4 ADD MSTORE PUSH2 0x4467 DUP2 PUSH2 0x442B JUMP JUMPDEST SWAP1 POP SWAP2 SWAP1 POP JUMP JUMPDEST PUSH32 0x4552433732313A207472616E7366657220746F206E6F6E204552433732315265 PUSH1 0x0 DUP3 ADD MSTORE PUSH32 0x63656976657220696D706C656D656E7465720000000000000000000000000000 PUSH1 0x20 DUP3 ADD MSTORE POP JUMP JUMPDEST PUSH1 0x0 PUSH2 0x44CA PUSH1 0x32 DUP4 PUSH2 0x2E4B JUMP JUMPDEST SWAP2 POP PUSH2 0x44D5 DUP3 PUSH2 0x446E JUMP JUMPDEST PUSH1 0x40 DUP3 ADD SWAP1 POP SWAP2 SWAP1 POP JUMP JUMPDEST PUSH1 0x0 PUSH1 0x20 DUP3 ADD SWAP1 POP DUP2 DUP2 SUB PUSH1 0x0 DUP4 ADD MSTORE PUSH2 0x44F9 DUP2 PUSH2 0x44BD JUMP JUMPDEST SWAP1 POP SWAP2 SWAP1 POP JUMP JUMPDEST PUSH32 0x4552433732313A206D696E7420746F20746865207A65726F2061646472657373 PUSH1 0x0 DUP3 ADD MSTORE POP JUMP JUMPDEST PUSH1 0x0 PUSH2 0x4536 PUSH1 0x20 DUP4 PUSH2 0x2E4B JUMP JUMPDEST SWAP2 POP PUSH2 0x4541 DUP3 PUSH2 0x4500 JUMP JUMPDEST PUSH1 0x20 DUP3 ADD SWAP1 POP SWAP2 SWAP1 POP JUMP JUMPDEST PUSH1 0x0 PUSH1 0x20 DUP3 ADD SWAP1 POP DUP2 DUP2 SUB PUSH1 0x0 DUP4 ADD MSTORE PUSH2 0x4565 DUP2 PUSH2 0x4529 JUMP JUMPDEST SWAP1 POP SWAP2 SWAP1 POP JUMP JUMPDEST PUSH32 0x4552433732313A20746F6B656E20616C7265616479206D696E74656400000000 PUSH1 0x0 DUP3 ADD MSTORE POP JUMP JUMPDEST PUSH1 0x0 PUSH2 0x45A2 PUSH1 0x1C DUP4 PUSH2 0x2E4B JUMP JUMPDEST SWAP2 POP PUSH2 0x45AD DUP3 PUSH2 0x456C JUMP JUMPDEST PUSH1 0x20 DUP3 ADD SWAP1 POP SWAP2 SWAP1 POP JUMP JUMPDEST PUSH1 0x0 PUSH1 0x20 DUP3 ADD SWAP1 POP DUP2 DUP2 SUB PUSH1 0x0 DUP4 ADD MSTORE PUSH2 0x45D1 DUP2 PUSH2 0x4595 JUMP JUMPDEST SWAP1 POP SWAP2 SWAP1 POP JUMP JUMPDEST PUSH32 0x45524337323155524953746F726167653A2055524920736574206F66206E6F6E PUSH1 0x0 DUP3 ADD MSTORE PUSH32 0x6578697374656E7420746F6B656E000000000000000000000000000000000000 PUSH1 0x20 DUP3 ADD MSTORE POP JUMP JUMPDEST PUSH1 0x0 PUSH2 0x4634 PUSH1 0x2E DUP4 PUSH2 0x2E4B JUMP JUMPDEST SWAP2 POP PUSH2 0x463F DUP3 PUSH2 0x45D8 JUMP JUMPDEST PUSH1 0x40 DUP3 ADD SWAP1 POP SWAP2 SWAP1 POP JUMP JUMPDEST PUSH1 0x0 PUSH1 0x20 DUP3 ADD SWAP1 POP DUP2 DUP2 SUB PUSH1 0x0 DUP4 ADD MSTORE PUSH2 0x4663 DUP2 PUSH2 0x4627 JUMP JUMPDEST SWAP1 POP SWAP2 SWAP1 POP JUMP JUMPDEST PUSH32 0x5072696365206D757374206265206174206C6561737420312077656900000000 PUSH1 0x0 DUP3 ADD MSTORE POP JUMP JUMPDEST PUSH1 0x0 PUSH2 0x46A0 PUSH1 0x1C DUP4 PUSH2 0x2E4B JUMP JUMPDEST SWAP2 POP PUSH2 0x46AB DUP3 PUSH2 0x466A JUMP JUMPDEST PUSH1 0x20 DUP3 ADD SWAP1 POP SWAP2 SWAP1 POP JUMP JUMPDEST PUSH1 0x0 PUSH1 0x20 DUP3 ADD SWAP1 POP DUP2 DUP2 SUB PUSH1 0x0 DUP4 ADD MSTORE PUSH2 0x46CF DUP2 PUSH2 0x4693 JUMP JUMPDEST SWAP1 POP SWAP2 SWAP1 POP JUMP JUMPDEST PUSH1 0x0 PUSH1 0xA0 DUP3 ADD SWAP1 POP PUSH2 0x46EB PUSH1 0x0 DUP4 ADD DUP9 PUSH2 0x2F87 JUMP JUMPDEST PUSH2 0x46F8 PUSH1 0x20 DUP4 ADD DUP8 PUSH2 0x2F87 JUMP JUMPDEST PUSH2 0x4705 PUSH1 0x40 DUP4 ADD DUP7 PUSH2 0x3213 JUMP JUMPDEST PUSH2 0x4712 PUSH1 0x60 DUP4 ADD DUP6 PUSH2 0x2E16 JUMP JUMPDEST DUP2 DUP2 SUB PUSH1 0x80 DUP4 ADD MSTORE PUSH2 0x4724 DUP2 DUP5 PUSH2 0x2E97 JUMP JUMPDEST SWAP1 POP SWAP7 SWAP6 POP POP POP POP POP POP JUMP JUMPDEST PUSH32 0x4552433732314D657461646174613A2055524920717565727920666F72206E6F PUSH1 0x0 DUP3 ADD MSTORE PUSH32 0x6E6578697374656E7420746F6B656E0000000000000000000000000000000000 PUSH1 0x20 DUP3 ADD MSTORE POP JUMP JUMPDEST PUSH1 0x0 PUSH2 0x478C PUSH1 0x2F DUP4 PUSH2 0x2E4B JUMP JUMPDEST SWAP2 POP PUSH2 0x4797 DUP3 PUSH2 0x4730 JUMP JUMPDEST PUSH1 0x40 DUP3 ADD SWAP1 POP SWAP2 SWAP1 POP JUMP JUMPDEST PUSH1 0x0 PUSH1 0x20 DUP3 ADD SWAP1 POP DUP2 DUP2 SUB PUSH1 0x0 DUP4 ADD MSTORE PUSH2 0x47BB DUP2 PUSH2 0x477F JUMP JUMPDEST SWAP1 POP SWAP2 SWAP1 POP JUMP JUMPDEST PUSH1 0x0 DUP2 MLOAD SWAP1 POP SWAP2 SWAP1 POP JUMP JUMPDEST PUSH1 0x0 DUP3 DUP3 MSTORE PUSH1 0x20 DUP3 ADD SWAP1 POP SWAP3 SWAP2 POP POP JUMP JUMPDEST PUSH1 0x0 PUSH2 0x47E9 DUP3 PUSH2 0x47C2 JUMP JUMPDEST PUSH2 0x47F3 DUP2 DUP6 PUSH2 0x47CD JUMP JUMPDEST SWAP4 POP PUSH2 0x4803 DUP2 DUP6 PUSH1 0x20 DUP7 ADD PUSH2 0x2E5C JUMP JUMPDEST PUSH2 0x480C DUP2 PUSH2 0x2E86 JUMP JUMPDEST DUP5 ADD SWAP2 POP POP SWAP3 SWAP2 POP POP JUMP JUMPDEST PUSH1 0x0 PUSH1 0x80 DUP3 ADD SWAP1 POP PUSH2 0x482C PUSH1 0x0 DUP4 ADD DUP8 PUSH2 0x2F87 JUMP JUMPDEST PUSH2 0x4839 PUSH1 0x20 DUP4 ADD DUP7 PUSH2 0x2F87 JUMP JUMPDEST PUSH2 0x4846 PUSH1 0x40 DUP4 ADD DUP6 PUSH2 0x3213 JUMP JUMPDEST DUP2 DUP2 SUB PUSH1 0x60 DUP4 ADD MSTORE PUSH2 0x4858 DUP2 DUP5 PUSH2 0x47DE JUMP JUMPDEST SWAP1 POP SWAP6 SWAP5 POP POP POP POP POP JUMP JUMPDEST PUSH1 0x0 DUP2 MLOAD SWAP1 POP PUSH2 0x4872 DUP2 PUSH2 0x2DB1 JUMP JUMPDEST SWAP3 SWAP2 POP POP JUMP JUMPDEST PUSH1 0x0 PUSH1 0x20 DUP3 DUP5 SUB SLT ISZERO PUSH2 0x488E JUMPI PUSH2 0x488D PUSH2 0x2D7B JUMP JUMPDEST JUMPDEST PUSH1 0x0 PUSH2 0x489C DUP5 DUP3 DUP6 ADD PUSH2 0x4863 JUMP JUMPDEST SWAP2 POP POP SWAP3 SWAP2 POP POP JUMP JUMPDEST PUSH32 0x4E487B7100000000000000000000000000000000000000000000000000000000 PUSH1 0x0 MSTORE PUSH1 0x12 PUSH1 0x4 MSTORE PUSH1 0x24 PUSH1 0x0 REVERT JUMPDEST PUSH1 0x0 PUSH2 0x48DF DUP3 PUSH2 0x2EF2 JUMP JUMPDEST SWAP2 POP PUSH2 0x48EA DUP4 PUSH2 0x2EF2 JUMP JUMPDEST SWAP3 POP DUP3 PUSH2 0x48FA JUMPI PUSH2 0x48F9 PUSH2 0x48A5 JUMP JUMPDEST JUMPDEST DUP3 DUP3 DIV SWAP1 POP SWAP3 SWAP2 POP POP JUMP JUMPDEST PUSH1 0x0 PUSH2 0x4910 DUP3 PUSH2 0x2EF2 JUMP JUMPDEST SWAP2 POP PUSH2 0x491B DUP4 PUSH2 0x2EF2 JUMP JUMPDEST SWAP3 POP DUP3 PUSH2 0x492B JUMPI PUSH2 0x492A PUSH2 0x48A5 JUMP JUMPDEST JUMPDEST DUP3 DUP3 MOD SWAP1 POP SWAP3 SWAP2 POP POP JUMP INVALID LOG2 PUSH5 0x6970667358 0x22 SLT KECCAK256 MSTORE8 PUSH7 0xDA08A1023842D8 0xC2 AND DUP16 0xC6 GASPRICE MSTORE COINBASE 0x5D 0xE DUP8 SWAP11 0xF6 MSTORE8 0xE2 0xEB 0xDC 0xC2 PUSH3 0x28FC60 0xEB OR PUSH5 0x736F6C6343 STOP ADDMOD EQ STOP CALLER "},"methodIdentifiers":{"approve(address,uint256)":"095ea7b3","balanceOf(address)":"70a08231","createMarketSale(uint256)":"be9af536","createToken(string,uint256,string)":"c6c9b5b1","fetchItemsListed()":"45f8fa80","fetchMarketItems()":"0f08efe0","fetchMyNFTs()":"202e3740","fetchTokenDetails(uint256)":"b863a7cd","getApproved(uint256)":"081812fc","getListingPrice()":"12e85585","isApprovedForAll(address,address)":"e985e9c5","listingPrice()":"c78f19f9","name()":"06fdde03","owner()":"8da5cb5b","ownerOf(uint256)":"6352211e","resellToken(uint256,uint256,string)":"824df416","safeTransferFrom(address,address,uint256)":"42842e0e","safeTransferFrom(address,address,uint256,bytes)":"b88d4fde","setApprovalForAll(address,bool)":"a22cb465","supportsInterface(bytes4)":"01ffc9a7","symbol()":"95d89b41","tokenURI(uint256)":"c87b56dd","transferFrom(address,address,uint256)":"23b872dd","updateListingPrice(uint256)":"ae677aa3"}}}}}