{
  "_format": "hh-sol-artifact-1",
  "contractName": "NFTMarketplace",
  "sourceName": "contracts/NFTMarketplace.sol",
  "abi": [
    {
      "inputs": [],
      "stateMutability": "nonpayable",
      "type": "constructor"
    },
    {
      "anonymous": false,
      "inputs": [
        {
          "indexed": true,
          "internalType": "address",
          "name": "owner",
          "type": "address"
        },
        {
          "indexed": true,
          "internalType": "address",
          "name": "approved",
          "type": "address"
        },
        {
          "indexed": true,
          "internalType": "uint256",
          "name": "tokenId",
          "type": "uint256"
        }
      ],
      "name": "Approval",
      "type": "event"
    },
    {
      "anonymous": false,
      "inputs": [
        {
          "indexed": true,
          "internalType": "address",
          "name": "owner",
          "type": "address"
        },
        {
          "indexed": true,
          "internalType": "address",
          "name": "operator",
          "type": "address"
        },
        {
          "indexed": false,
          "internalType": "bool",
          "name": "approved",
          "type": "bool"
        }
      ],
      "name": "ApprovalForAll",
      "type": "event"
    },
    {
      "anonymous": false,
      "inputs": [
        {
          "indexed": true,
          "internalType": "uint256",
          "name": "tokenId",
          "type": "uint256"
        },
        {
          "indexed": false,
          "internalType": "address",
          "name": "creator",
          "type": "address"
        },
        {
          "indexed": false,
          "internalType": "uint256",
          "name": "endTime",
          "type": "uint256"
        }
      ],
      "name": "AuctionCreated",
      "type": "event"
    },
    {
      "anonymous": false,
      "inputs": [
        {
          "indexed": true,
          "internalType": "uint256",
          "name": "tokenId",
          "type": "uint256"
        },
        {
          "indexed": false,
          "internalType": "address",
          "name": "winner",
          "type": "address"
        },
        {
          "indexed": false,
          "internalType": "uint256",
          "name": "winningBid",
          "type": "uint256"
        }
      ],
      "name": "AuctionEnded",
      "type": "event"
    },
    {
      "anonymous": false,
      "inputs": [
        {
          "indexed": true,
          "internalType": "uint256",
          "name": "tokenId",
          "type": "uint256"
        },
        {
          "indexed": false,
          "internalType": "address",
          "name": "bidder",
          "type": "address"
        },
        {
          "indexed": false,
          "internalType": "uint256",
          "name": "bidAmount",
          "type": "uint256"
        }
      ],
      "name": "BidPlaced",
      "type": "event"
    },
    {
      "anonymous": false,
      "inputs": [
        {
          "indexed": true,
          "internalType": "uint256",
          "name": "tokenId",
          "type": "uint256"
        },
        {
          "indexed": false,
          "internalType": "address",
          "name": "seller",
          "type": "address"
        },
        {
          "indexed": false,
          "internalType": "address",
          "name": "owner",
          "type": "address"
        },
        {
          "indexed": false,
          "internalType": "uint256",
          "name": "price",
          "type": "uint256"
        },
        {
          "indexed": false,
          "internalType": "bool",
          "name": "sold",
          "type": "bool"
        }
      ],
      "name": "MarketItemCreated",
      "type": "event"
    },
    {
      "anonymous": false,
      "inputs": [
        {
          "indexed": true,
          "internalType": "address",
          "name": "from",
          "type": "address"
        },
        {
          "indexed": true,
          "internalType": "address",
          "name": "to",
          "type": "address"
        },
        {
          "indexed": true,
          "internalType": "uint256",
          "name": "tokenId",
          "type": "uint256"
        }
      ],
      "name": "Transfer",
      "type": "event"
    },
    {
      "inputs": [
        {
          "internalType": "address",
          "name": "to",
          "type": "address"
        },
        {
          "internalType": "uint256",
          "name": "tokenId",
          "type": "uint256"
        }
      ],
      "name": "approve",
      "outputs": [],
      "stateMutability": "nonpayable",
      "type": "function"
    },
    {
      "inputs": [],
      "name": "auctionDuration",
      "outputs": [
        {
          "internalType": "uint256",
          "name": "",
          "type": "uint256"
        }
      ],
      "stateMutability": "view",
      "type": "function"
    },
    {
      "inputs": [],
      "name": "automateAuctions",
      "outputs": [],
      "stateMutability": "nonpayable",
      "type": "function"
    },
    {
      "inputs": [
        {
          "internalType": "address",
          "name": "owner",
          "type": "address"
        }
      ],
      "name": "balanceOf",
      "outputs": [
        {
          "internalType": "uint256",
          "name": "",
          "type": "uint256"
        }
      ],
      "stateMutability": "view",
      "type": "function"
    },
    {
      "inputs": [],
      "name": "checkAndEndAuctions",
      "outputs": [],
      "stateMutability": "nonpayable",
      "type": "function"
    },
    {
      "inputs": [
        {
          "internalType": "uint256",
          "name": "tokenId",
          "type": "uint256"
        }
      ],
      "name": "createMarketSale",
      "outputs": [],
      "stateMutability": "nonpayable",
      "type": "function"
    },
    {
      "inputs": [
        {
          "internalType": "string",
          "name": "tokenURI",
          "type": "string"
        },
        {
          "internalType": "uint256",
          "name": "price",
          "type": "uint256"
        }
      ],
      "name": "createToken",
      "outputs": [
        {
          "internalType": "uint256",
          "name": "",
          "type": "uint256"
        }
      ],
      "stateMutability": "payable",
      "type": "function"
    },
    {
      "inputs": [
        {
          "internalType": "uint256",
          "name": "tokenId",
          "type": "uint256"
        }
      ],
      "name": "endAuction",
      "outputs": [],
      "stateMutability": "nonpayable",
      "type": "function"
    },
    {
      "inputs": [],
      "name": "fetchItemsListed",
      "outputs": [
        {
          "components": [
            {
              "internalType": "uint256",
              "name": "tokenId",
              "type": "uint256"
            },
            {
              "internalType": "address payable",
              "name": "seller",
              "type": "address"
            },
            {
              "internalType": "address payable",
              "name": "owner",
              "type": "address"
            },
            {
              "internalType": "uint256",
              "name": "price",
              "type": "uint256"
            },
            {
              "internalType": "bool",
              "name": "sold",
              "type": "bool"
            }
          ],
          "internalType": "struct NFTMarketplace.MarketItem[]",
          "name": "",
          "type": "tuple[]"
        }
      ],
      "stateMutability": "view",
      "type": "function"
    },
    {
      "inputs": [],
      "name": "fetchMarketItems",
      "outputs": [
        {
          "components": [
            {
              "internalType": "uint256",
              "name": "tokenId",
              "type": "uint256"
            },
            {
              "internalType": "address payable",
              "name": "seller",
              "type": "address"
            },
            {
              "internalType": "address payable",
              "name": "owner",
              "type": "address"
            },
            {
              "internalType": "uint256",
              "name": "price",
              "type": "uint256"
            },
            {
              "internalType": "bool",
              "name": "sold",
              "type": "bool"
            }
          ],
          "internalType": "struct NFTMarketplace.MarketItem[]",
          "name": "",
          "type": "tuple[]"
        }
      ],
      "stateMutability": "view",
      "type": "function"
    },
    {
      "inputs": [],
      "name": "fetchMyNFTs",
      "outputs": [
        {
          "components": [
            {
              "internalType": "uint256",
              "name": "tokenId",
              "type": "uint256"
            },
            {
              "internalType": "address payable",
              "name": "seller",
              "type": "address"
            },
            {
              "internalType": "address payable",
              "name": "owner",
              "type": "address"
            },
            {
              "internalType": "uint256",
              "name": "price",
              "type": "uint256"
            },
            {
              "internalType": "bool",
              "name": "sold",
              "type": "bool"
            }
          ],
          "internalType": "struct NFTMarketplace.MarketItem[]",
          "name": "",
          "type": "tuple[]"
        }
      ],
      "stateMutability": "view",
      "type": "function"
    },
    {
      "inputs": [
        {
          "internalType": "uint256",
          "name": "tokenId",
          "type": "uint256"
        }
      ],
      "name": "fetchTokenDetails",
      "outputs": [
        {
          "components": [
            {
              "internalType": "uint256",
              "name": "tokenId",
              "type": "uint256"
            },
            {
              "internalType": "address payable",
              "name": "seller",
              "type": "address"
            },
            {
              "internalType": "address payable",
              "name": "owner",
              "type": "address"
            },
            {
              "internalType": "uint256",
              "name": "price",
              "type": "uint256"
            },
            {
              "internalType": "bool",
              "name": "sold",
              "type": "bool"
            }
          ],
          "internalType": "struct NFTMarketplace.MarketItem",
          "name": "",
          "type": "tuple"
        }
      ],
      "stateMutability": "view",
      "type": "function"
    },
    {
      "inputs": [
        {
          "internalType": "uint256",
          "name": "tokenId",
          "type": "uint256"
        }
      ],
      "name": "getApproved",
      "outputs": [
        {
          "internalType": "address",
          "name": "",
          "type": "address"
        }
      ],
      "stateMutability": "view",
      "type": "function"
    },
    {
      "inputs": [],
      "name": "getListingPrice",
      "outputs": [
        {
          "internalType": "uint256",
          "name": "",
          "type": "uint256"
        }
      ],
      "stateMutability": "view",
      "type": "function"
    },
    {
      "inputs": [
        {
          "internalType": "address",
          "name": "owner",
          "type": "address"
        },
        {
          "internalType": "address",
          "name": "operator",
          "type": "address"
        }
      ],
      "name": "isApprovedForAll",
      "outputs": [
        {
          "internalType": "bool",
          "name": "",
          "type": "bool"
        }
      ],
      "stateMutability": "view",
      "type": "function"
    },
    {
      "inputs": [],
      "name": "lastAutomatedTime",
      "outputs": [
        {
          "internalType": "uint256",
          "name": "",
          "type": "uint256"
        }
      ],
      "stateMutability": "view",
      "type": "function"
    },
    {
      "inputs": [],
      "name": "listingPrice",
      "outputs": [
        {
          "internalType": "uint256",
          "name": "",
          "type": "uint256"
        }
      ],
      "stateMutability": "view",
      "type": "function"
    },
    {
      "inputs": [],
      "name": "name",
      "outputs": [
        {
          "internalType": "string",
          "name": "",
          "type": "string"
        }
      ],
      "stateMutability": "view",
      "type": "function"
    },
    {
      "inputs": [],
      "name": "owner",
      "outputs": [
        {
          "internalType": "address payable",
          "name": "",
          "type": "address"
        }
      ],
      "stateMutability": "view",
      "type": "function"
    },
    {
      "inputs": [
        {
          "internalType": "uint256",
          "name": "tokenId",
          "type": "uint256"
        }
      ],
      "name": "ownerOf",
      "outputs": [
        {
          "internalType": "address",
          "name": "",
          "type": "address"
        }
      ],
      "stateMutability": "view",
      "type": "function"
    },
    {
      "inputs": [
        {
          "internalType": "uint256",
          "name": "tokenId",
          "type": "uint256"
        }
      ],
      "name": "placeBid",
      "outputs": [],
      "stateMutability": "payable",
      "type": "function"
    },
    {
      "inputs": [
        {
          "internalType": "uint256",
          "name": "tokenId",
          "type": "uint256"
        },
        {
          "internalType": "uint256",
          "name": "price",
          "type": "uint256"
        }
      ],
      "name": "resellToken",
      "outputs": [],
      "stateMutability": "payable",
      "type": "function"
    },
    {
      "inputs": [
        {
          "internalType": "address",
          "name": "from",
          "type": "address"
        },
        {
          "internalType": "address",
          "name": "to",
          "type": "address"
        },
        {
          "internalType": "uint256",
          "name": "tokenId",
          "type": "uint256"
        }
      ],
      "name": "safeTransferFrom",
      "outputs": [],
      "stateMutability": "nonpayable",
      "type": "function"
    },
    {
      "inputs": [
        {
          "internalType": "address",
          "name": "from",
          "type": "address"
        },
        {
          "internalType": "address",
          "name": "to",
          "type": "address"
        },
        {
          "internalType": "uint256",
          "name": "tokenId",
          "type": "uint256"
        },
        {
          "internalType": "bytes",
          "name": "_data",
          "type": "bytes"
        }
      ],
      "name": "safeTransferFrom",
      "outputs": [],
      "stateMutability": "nonpayable",
      "type": "function"
    },
    {
      "inputs": [
        {
          "internalType": "address",
          "name": "operator",
          "type": "address"
        },
        {
          "internalType": "bool",
          "name": "approved",
          "type": "bool"
        }
      ],
      "name": "setApprovalForAll",
      "outputs": [],
      "stateMutability": "nonpayable",
      "type": "function"
    },
    {
      "inputs": [
        {
          "internalType": "bytes4",
          "name": "interfaceId",
          "type": "bytes4"
        }
      ],
      "name": "supportsInterface",
      "outputs": [
        {
          "internalType": "bool",
          "name": "",
          "type": "bool"
        }
      ],
      "stateMutability": "view",
      "type": "function"
    },
    {
      "inputs": [],
      "name": "symbol",
      "outputs": [
        {
          "internalType": "string",
          "name": "",
          "type": "string"
        }
      ],
      "stateMutability": "view",
      "type": "function"
    },
    {
      "inputs": [
        {
          "internalType": "uint256",
          "name": "tokenId",
          "type": "uint256"
        }
      ],
      "name": "tokenURI",
      "outputs": [
        {
          "internalType": "string",
          "name": "",
          "type": "string"
        }
      ],
      "stateMutability": "view",
      "type": "function"
    },
    {
      "inputs": [
        {
          "internalType": "address",
          "name": "from",
          "type": "address"
        },
        {
          "internalType": "address",
          "name": "to",
          "type": "address"
        },
        {
          "internalType": "uint256",
          "name": "tokenId",
          "type": "uint256"
        }
      ],
      "name": "transferFrom",
      "outputs": [],
      "stateMutability": "nonpayable",
      "type": "function"
    },
    {
      "inputs": [
        {
          "internalType": "uint256",
          "name": "_listingPrice",
          "type": "uint256"
        }
      ],
      "name": "updateListingPrice",
      "outputs": [],
      "stateMutability": "payable",
      "type": "function"
    }
  ],
  "bytecode": "0x60806040526658d15e1762800060095561012c600b553480156200002257600080fd5b506040518060400160405280601081526020017f4d657461766572736520546f6b656e73000000000000000000000000000000008152506040518060400160405280600481526020017f4d455454000000000000000000000000000000000000000000000000000000008152508160009081620000a091906200037d565b508060019081620000b291906200037d565b50505033600a60006101000a81548173ffffffffffffffffffffffffffffffffffffffff021916908373ffffffffffffffffffffffffffffffffffffffff16021790555042600c8190555062000464565b600081519050919050565b7f4e487b7100000000000000000000000000000000000000000000000000000000600052604160045260246000fd5b7f4e487b7100000000000000000000000000000000000000000000000000000000600052602260045260246000fd5b600060028204905060018216806200018557607f821691505b6020821081036200019b576200019a6200013d565b5b50919050565b60008190508160005260206000209050919050565b60006020601f8301049050919050565b600082821b905092915050565b600060088302620002057fffffffffffffffffffffffffffffffffffffffffffffffffffffffffffffffff82620001c6565b620002118683620001c6565b95508019841693508086168417925050509392505050565b6000819050919050565b6000819050919050565b60006200025e62000258620002528462000229565b62000233565b62000229565b9050919050565b6000819050919050565b6200027a836200023d565b62000292620002898262000265565b848454620001d3565b825550505050565b600090565b620002a96200029a565b620002b68184846200026f565b505050565b5b81811015620002de57620002d26000826200029f565b600181019050620002bc565b5050565b601f8211156200032d57620002f781620001a1565b6200030284620001b6565b8101602085101562000312578190505b6200032a6200032185620001b6565b830182620002bb565b50505b505050565b600082821c905092915050565b6000620003526000198460080262000332565b1980831691505092915050565b60006200036d83836200033f565b9150826002028217905092915050565b620003888262000103565b67ffffffffffffffff811115620003a457620003a36200010e565b5b620003b082546200016c565b620003bd828285620002e2565b600060209050601f831160018114620003f55760008415620003e0578287015190505b620003ec85826200035f565b8655506200045c565b601f1984166200040586620001a1565b60005b828110156200042f5784890151825560018201915060208501945060208101905062000408565b868310156200044f57848901516200044b601f8916826200033f565b8355505b6001600288020188555050505b505050505050565b61503080620004746000396000f3fe6080604052600436106101cd5760003560e01c806370a08231116100f7578063b863a7cd11610095578063c78f19f911610064578063c78f19f91461063b578063c87b56dd14610666578063e219fc75146106a3578063e985e9c5146106bf576101cd565b8063b863a7cd14610583578063b88d4fde146105c0578063b9a2de3a146105e9578063be9af53614610612576101cd565b806395d89b41116100d157806395d89b41146104f75780639979ef4514610522578063a22cb4651461053e578063ae677aa314610567576101cd565b806370a082311461045f57806372b3b6201461049c5780638da5cb5b146104cc576101cd565b806312e855851161016f57806345f8fa801161013e57806345f8fa80146103b55780634700c27e146103e057806356f28555146103f75780636352211e14610422576101cd565b806312e855851461030d578063202e37401461033857806323b872dd1461036357806342842e0e1461038c576101cd565b8063081812fc116101ab578063081812fc14610251578063095ea7b31461028e5780630cbf54c8146102b75780630f08efe0146102e2576101cd565b806301ffc9a7146101d257806303bb502f1461020f57806306fdde0314610226575b600080fd5b3480156101de57600080fd5b506101f960048036038101906101f49190613304565b6106fc565b604051610206919061334c565b60405180910390f35b34801561021b57600080fd5b506102246107de565b005b34801561023257600080fd5b5061023b610854565b60405161024891906133f7565b60405180910390f35b34801561025d57600080fd5b506102786004803603810190610273919061344f565b6108e6565b60405161028591906134bd565b60405180910390f35b34801561029a57600080fd5b506102b560048036038101906102b09190613504565b61096b565b005b3480156102c357600080fd5b506102cc610a82565b6040516102d99190613553565b60405180910390f35b3480156102ee57600080fd5b506102f7610a88565b60405161030491906136c4565b60405180910390f35b34801561031957600080fd5b50610322610cc6565b60405161032f9190613553565b60405180910390f35b34801561034457600080fd5b5061034d610cd0565b60405161035a91906136c4565b60405180910390f35b34801561036f57600080fd5b5061038a600480360381019061038591906136e6565b610f97565b005b34801561039857600080fd5b506103b360048036038101906103ae91906136e6565b610ff7565b005b3480156103c157600080fd5b506103ca611017565b6040516103d791906136c4565b60405180910390f35b3480156103ec57600080fd5b506103f56112de565b005b34801561040357600080fd5b5061040c611340565b6040516104199190613553565b60405180910390f35b34801561042e57600080fd5b506104496004803603810190610444919061344f565b611346565b60405161045691906134bd565b60405180910390f35b34801561046b57600080fd5b5061048660048036038101906104819190613739565b6113f7565b6040516104939190613553565b60405180910390f35b6104b660048036038101906104b1919061389b565b6114ae565b6040516104c39190613553565b60405180910390f35b3480156104d857600080fd5b506104e16114f7565b6040516104ee9190613906565b60405180910390f35b34801561050357600080fd5b5061050c61151d565b60405161051991906133f7565b60405180910390f35b61053c6004803603810190610537919061344f565b6115af565b005b34801561054a57600080fd5b506105656004803603810190610560919061394d565b611826565b005b610581600480360381019061057c919061344f565b61183c565b005b34801561058f57600080fd5b506105aa60048036038101906105a5919061344f565b6118d6565b6040516105b791906139f5565b60405180910390f35b3480156105cc57600080fd5b506105e760048036038101906105e29190613ab1565b6119de565b005b3480156105f557600080fd5b50610610600480360381019061060b919061344f565b611a40565b005b34801561061e57600080fd5b506106396004803603810190610634919061344f565b611cc2565b005b34801561064757600080fd5b50610650611cd6565b60405161065d9190613553565b60405180910390f35b34801561067257600080fd5b5061068d6004803603810190610688919061344f565b611cdc565b60405161069a91906133f7565b60405180910390f35b6106bd60048036038101906106b89190613b34565b611e2d565b005b3480156106cb57600080fd5b506106e660048036038101906106e19190613b74565b612030565b6040516106f3919061334c565b60405180910390f35b60007f80ac58cd000000000000000000000000000000000000000000000000000000007bffffffffffffffffffffffffffffffffffffffffffffffffffffffff1916827bffffffffffffffffffffffffffffffffffffffffffffffffffffffff191614806107c757507f5b5e139f000000000000000000000000000000000000000000000000000000007bffffffffffffffffffffffffffffffffffffffffffffffffffffffff1916827bffffffffffffffffffffffffffffffffffffffffffffffffffffffff1916145b806107d757506107d6826120c4565b5b9050919050565b600060075490506000600190505b818111610850576000600d600083815260200190815260200160002090508060040160009054906101000a900460ff1615801561082d575080600301544210155b1561083c5761083b82611a40565b5b50808061084890613be3565b9150506107ec565b5050565b60606000805461086390613c5a565b80601f016020809104026020016040519081016040528092919081815260200182805461088f90613c5a565b80156108dc5780601f106108b1576101008083540402835291602001916108dc565b820191906000526020600020905b8154815290600101906020018083116108bf57829003601f168201915b5050505050905090565b60006108f18261212e565b610930576040517f08c379a000000000000000000000000000000000000000000000000000000000815260040161092790613cfd565b60405180910390fd5b6004600083815260200190815260200160002060009054906101000a900473ffffffffffffffffffffffffffffffffffffffff169050919050565b600061097682611346565b90508073ffffffffffffffffffffffffffffffffffffffff168373ffffffffffffffffffffffffffffffffffffffff16036109e6576040517f08c379a00000000000000000000000000000000000000000000000000000000081526004016109dd90613d8f565b60405180910390fd5b8073ffffffffffffffffffffffffffffffffffffffff16610a0561219a565b73ffffffffffffffffffffffffffffffffffffffff161480610a345750610a3381610a2e61219a565b612030565b5b610a73576040517f08c379a0000000000000000000000000000000000000000000000000000000008152600401610a6a90613e21565b60405180910390fd5b610a7d83836121a2565b505050565b600b5481565b6060600060075490506000600854600754610aa39190613e41565b90506000808267ffffffffffffffff811115610ac257610ac1613770565b5b604051908082528060200260200182016040528015610afb57816020015b610ae8613231565b815260200190600190039081610ae05790505b5090506000600190505b848111610cbb573073ffffffffffffffffffffffffffffffffffffffff16600e600083815260200190815260200160002060020160009054906101000a900473ffffffffffffffffffffffffffffffffffffffff1673ffffffffffffffffffffffffffffffffffffffff1603610ca85760008190506000600e60008381526020019081526020016000209050806040518060a0016040529081600082015481526020016001820160009054906101000a900473ffffffffffffffffffffffffffffffffffffffff1673ffffffffffffffffffffffffffffffffffffffff1673ffffffffffffffffffffffffffffffffffffffff1681526020016002820160009054906101000a900473ffffffffffffffffffffffffffffffffffffffff1673ffffffffffffffffffffffffffffffffffffffff1673ffffffffffffffffffffffffffffffffffffffff168152602001600382015481526020016004820160009054906101000a900460ff161515151581525050848681518110610c8b57610c8a613e75565b5b6020026020010181905250600185610ca39190613ea4565b945050505b8080610cb390613be3565b915050610b05565b508094505050505090565b6000600954905090565b6060600060075490506000806000600190505b838111610d76573373ffffffffffffffffffffffffffffffffffffffff16600e600083815260200190815260200160002060020160009054906101000a900473ffffffffffffffffffffffffffffffffffffffff1673ffffffffffffffffffffffffffffffffffffffff1603610d6357600183610d609190613ea4565b92505b8080610d6e90613be3565b915050610ce3565b5060008267ffffffffffffffff811115610d9357610d92613770565b5b604051908082528060200260200182016040528015610dcc57816020015b610db9613231565b815260200190600190039081610db15790505b5090506000600190505b848111610f8c573373ffffffffffffffffffffffffffffffffffffffff16600e600083815260200190815260200160002060020160009054906101000a900473ffffffffffffffffffffffffffffffffffffffff1673ffffffffffffffffffffffffffffffffffffffff1603610f795760008190506000600e60008381526020019081526020016000209050806040518060a0016040529081600082015481526020016001820160009054906101000a900473ffffffffffffffffffffffffffffffffffffffff1673ffffffffffffffffffffffffffffffffffffffff1673ffffffffffffffffffffffffffffffffffffffff1681526020016002820160009054906101000a900473ffffffffffffffffffffffffffffffffffffffff1673ffffffffffffffffffffffffffffffffffffffff1673ffffffffffffffffffffffffffffffffffffffff168152602001600382015481526020016004820160009054906101000a900460ff161515151581525050848681518110610f5c57610f5b613e75565b5b6020026020010181905250600185610f749190613ea4565b945050505b8080610f8490613be3565b915050610dd6565b508094505050505090565b610fa8610fa261219a565b8261225b565b610fe7576040517f08c379a0000000000000000000000000000000000000000000000000000000008152600401610fde90613f4a565b60405180910390fd5b610ff2838383612339565b505050565b611012838383604051806020016040528060008152506119de565b505050565b6060600060075490506000806000600190505b8381116110bd573373ffffffffffffffffffffffffffffffffffffffff16600e600083815260200190815260200160002060010160009054906101000a900473ffffffffffffffffffffffffffffffffffffffff1673ffffffffffffffffffffffffffffffffffffffff16036110aa576001836110a79190613ea4565b92505b80806110b590613be3565b91505061102a565b5060008267ffffffffffffffff8111156110da576110d9613770565b5b60405190808252806020026020018201604052801561111357816020015b611100613231565b8152602001906001900390816110f85790505b5090506000600190505b8481116112d3573373ffffffffffffffffffffffffffffffffffffffff16600e600083815260200190815260200160002060010160009054906101000a900473ffffffffffffffffffffffffffffffffffffffff1673ffffffffffffffffffffffffffffffffffffffff16036112c05760008190506000600e60008381526020019081526020016000209050806040518060a0016040529081600082015481526020016001820160009054906101000a900473ffffffffffffffffffffffffffffffffffffffff1673ffffffffffffffffffffffffffffffffffffffff1673ffffffffffffffffffffffffffffffffffffffff1681526020016002820160009054906101000a900473ffffffffffffffffffffffffffffffffffffffff1673ffffffffffffffffffffffffffffffffffffffff1673ffffffffffffffffffffffffffffffffffffffff168152602001600382015481526020016004820160009054906101000a900460ff1615151515815250508486815181106112a3576112a2613e75565b5b60200260200101819052506001856112bb9190613ea4565b945050505b80806112cb90613be3565b91505061111d565b508094505050505090565b6078600c546112ed9190613ea4565b42101561132f576040517f08c379a000000000000000000000000000000000000000000000000000000000815260040161132690613fb6565b60405180910390fd5b42600c8190555061133e6107de565b565b600c5481565b6000806002600084815260200190815260200160002060009054906101000a900473ffffffffffffffffffffffffffffffffffffffff169050600073ffffffffffffffffffffffffffffffffffffffff168173ffffffffffffffffffffffffffffffffffffffff16036113ee576040517f08c379a00000000000000000000000000000000000000000000000000000000081526004016113e590614048565b60405180910390fd5b80915050919050565b60008073ffffffffffffffffffffffffffffffffffffffff168273ffffffffffffffffffffffffffffffffffffffff1603611467576040517f08c379a000000000000000000000000000000000000000000000000000000000815260040161145e906140da565b60405180910390fd5b600360008373ffffffffffffffffffffffffffffffffffffffff1673ffffffffffffffffffffffffffffffffffffffff168152602001908152602001600020549050919050565b6000600760008154809291906114c390613be3565b9190505550600060075490506114d9338261259f565b6114e38185612778565b6114ed81846127e5565b8091505092915050565b600a60009054906101000a900473ffffffffffffffffffffffffffffffffffffffff1681565b60606001805461152c90613c5a565b80601f016020809104026020016040519081016040528092919081815260200182805461155890613c5a565b80156115a55780601f1061157a576101008083540402835291602001916115a5565b820191906000526020600020905b81548152906001019060200180831161158857829003601f168201915b5050505050905090565b6000600d600083815260200190815260200160002090508060030154421061160c576040517f08c379a000000000000000000000000000000000000000000000000000000000815260040161160390614146565b60405180910390fd5b80600201543411611652576040517f08c379a0000000000000000000000000000000000000000000000000000000008152600401611649906141d8565b60405180910390fd5b600073ffffffffffffffffffffffffffffffffffffffff168160010160009054906101000a900473ffffffffffffffffffffffffffffffffffffffff1673ffffffffffffffffffffffffffffffffffffffff161461171a578060010160009054906101000a900473ffffffffffffffffffffffffffffffffffffffff1673ffffffffffffffffffffffffffffffffffffffff166108fc82600201549081150290604051600060405180830381858888f19350505050158015611718573d6000803e3d6000fd5b505b6117596040518060400160405280601881526020017f506c6163696e672062696420666f7220746f6b656e49643a000000000000000081525083612bb5565b61179c6040518060400160405280601181526020017f41756374696f6e20656e642074696d653a0000000000000000000000000000008152508260030154612bb5565b338160010160006101000a81548173ffffffffffffffffffffffffffffffffffffffff021916908373ffffffffffffffffffffffffffffffffffffffff160217905550348160020181905550817f0e54eff26401bf69b81b26f60bd85ef47f5d85275c1d268d84f68d6897431c47333460405161181a9291906141f8565b60405180910390a25050565b61183861183161219a565b8383612c51565b5050565b3373ffffffffffffffffffffffffffffffffffffffff16600a60009054906101000a900473ffffffffffffffffffffffffffffffffffffffff1673ffffffffffffffffffffffffffffffffffffffff16146118cc576040517f08c379a00000000000000000000000000000000000000000000000000000000081526004016118c390614293565b60405180910390fd5b8060098190555050565b6118de613231565b600e60008381526020019081526020016000206040518060a0016040529081600082015481526020016001820160009054906101000a900473ffffffffffffffffffffffffffffffffffffffff1673ffffffffffffffffffffffffffffffffffffffff1673ffffffffffffffffffffffffffffffffffffffff1681526020016002820160009054906101000a900473ffffffffffffffffffffffffffffffffffffffff1673ffffffffffffffffffffffffffffffffffffffff1673ffffffffffffffffffffffffffffffffffffffff168152602001600382015481526020016004820160009054906101000a900460ff1615151515815250509050919050565b6119ef6119e961219a565b8361225b565b611a2e576040517f08c379a0000000000000000000000000000000000000000000000000000000008152600401611a2590613f4a565b60405180910390fd5b611a3a84848484612dbd565b50505050565b6000600d600083815260200190815260200160002090508060040160009054906101000a900460ff1615611aa9576040517f08c379a0000000000000000000000000000000000000000000000000000000008152600401611aa0906142ff565b60405180910390fd5b8060030154421015611af0576040517f08c379a0000000000000000000000000000000000000000000000000000000008152600401611ae79061436b565b60405180910390fd5b60018160040160006101000a81548160ff021916908315150217905550600073ffffffffffffffffffffffffffffffffffffffff168160010160009054906101000a900473ffffffffffffffffffffffffffffffffffffffff1673ffffffffffffffffffffffffffffffffffffffff1614611c7c57611b94308260010160009054906101000a900473ffffffffffffffffffffffffffffffffffffffff1684612339565b600e600083815260200190815260200160002060010160009054906101000a900473ffffffffffffffffffffffffffffffffffffffff1673ffffffffffffffffffffffffffffffffffffffff166108fc82600201549081150290604051600060405180830381858888f19350505050158015611c14573d6000803e3d6000fd5b50817fd2aa34a4fdbbc6dff6a3e56f46e0f3ae2a31d7785ff3487aa5c95c642acea5018260010160009054906101000a900473ffffffffffffffffffffffffffffffffffffffff168360020154604051611c6f9291906143ea565b60405180910390a2611cbe565b611cbd30600e600085815260200190815260200160002060010160009054906101000a900473ffffffffffffffffffffffffffffffffffffffff1684612339565b5b5050565b611ccb81611a40565b611cd36107de565b50565b60095481565b6060611ce78261212e565b611d26576040517f08c379a0000000000000000000000000000000000000000000000000000000008152600401611d1d90614485565b60405180910390fd5b6000600660008481526020019081526020016000208054611d4690613c5a565b80601f0160208091040260200160405190810160405280929190818152602001828054611d7290613c5a565b8015611dbf5780601f10611d9457610100808354040283529160200191611dbf565b820191906000526020600020905b815481529060010190602001808311611da257829003601f168201915b505050505090506000611dd0612e19565b90506000815103611de5578192505050611e28565b600082511115611e1a578082604051602001611e029291906144e1565b60405160208183030381529060405292505050611e28565b611e2384612e30565b925050505b919050565b3373ffffffffffffffffffffffffffffffffffffffff16600e600084815260200190815260200160002060020160009054906101000a900473ffffffffffffffffffffffffffffffffffffffff1673ffffffffffffffffffffffffffffffffffffffff1614611ed1576040517f08c379a0000000000000000000000000000000000000000000000000000000008152600401611ec890614577565b60405180910390fd5b6009543414611f15576040517f08c379a0000000000000000000000000000000000000000000000000000000008152600401611f0c90614609565b60405180910390fd5b6000600e600084815260200190815260200160002060040160006101000a81548160ff02191690831515021790555080600e60008481526020019081526020016000206003018190555033600e600084815260200190815260200160002060010160006101000a81548173ffffffffffffffffffffffffffffffffffffffff021916908373ffffffffffffffffffffffffffffffffffffffff16021790555030600e600084815260200190815260200160002060020160006101000a81548173ffffffffffffffffffffffffffffffffffffffff021916908373ffffffffffffffffffffffffffffffffffffffff1602179055506008600081548092919061201c90614629565b919050555061202c333084612339565b5050565b6000600560008473ffffffffffffffffffffffffffffffffffffffff1673ffffffffffffffffffffffffffffffffffffffff16815260200190815260200160002060008373ffffffffffffffffffffffffffffffffffffffff1673ffffffffffffffffffffffffffffffffffffffff16815260200190815260200160002060009054906101000a900460ff16905092915050565b60007f01ffc9a7000000000000000000000000000000000000000000000000000000007bffffffffffffffffffffffffffffffffffffffffffffffffffffffff1916827bffffffffffffffffffffffffffffffffffffffffffffffffffffffff1916149050919050565b60008073ffffffffffffffffffffffffffffffffffffffff166002600084815260200190815260200160002060009054906101000a900473ffffffffffffffffffffffffffffffffffffffff1673ffffffffffffffffffffffffffffffffffffffff1614159050919050565b600033905090565b816004600083815260200190815260200160002060006101000a81548173ffffffffffffffffffffffffffffffffffffffff021916908373ffffffffffffffffffffffffffffffffffffffff160217905550808273ffffffffffffffffffffffffffffffffffffffff1661221583611346565b73ffffffffffffffffffffffffffffffffffffffff167f8c5be1e5ebec7d5bd14f71427d1e84f3dd0314c0f7b2291e5b200ac8c7c3b92560405160405180910390a45050565b60006122668261212e565b6122a5576040517f08c379a000000000000000000000000000000000000000000000000000000000815260040161229c906146c4565b60405180910390fd5b60006122b083611346565b90508073ffffffffffffffffffffffffffffffffffffffff168473ffffffffffffffffffffffffffffffffffffffff16148061231f57508373ffffffffffffffffffffffffffffffffffffffff16612307846108e6565b73ffffffffffffffffffffffffffffffffffffffff16145b80612330575061232f8185612030565b5b91505092915050565b8273ffffffffffffffffffffffffffffffffffffffff1661235982611346565b73ffffffffffffffffffffffffffffffffffffffff16146123af576040517f08c379a00000000000000000000000000000000000000000000000000000000081526004016123a690614756565b60405180910390fd5b600073ffffffffffffffffffffffffffffffffffffffff168273ffffffffffffffffffffffffffffffffffffffff160361241e576040517f08c379a0000000000000000000000000000000000000000000000000000000008152600401612415906147e8565b60405180910390fd5b612429838383612ed7565b6124346000826121a2565b6001600360008573ffffffffffffffffffffffffffffffffffffffff1673ffffffffffffffffffffffffffffffffffffffff16815260200190815260200160002060008282546124849190613e41565b925050819055506001600360008473ffffffffffffffffffffffffffffffffffffffff1673ffffffffffffffffffffffffffffffffffffffff16815260200190815260200160002060008282546124db9190613ea4565b92505081905550816002600083815260200190815260200160002060006101000a81548173ffffffffffffffffffffffffffffffffffffffff021916908373ffffffffffffffffffffffffffffffffffffffff160217905550808273ffffffffffffffffffffffffffffffffffffffff168473ffffffffffffffffffffffffffffffffffffffff167fddf252ad1be2c89b69c2b068fc378daa952ba7f163c4a11628f55a4df523b3ef60405160405180910390a461259a838383612edc565b505050565b600073ffffffffffffffffffffffffffffffffffffffff168273ffffffffffffffffffffffffffffffffffffffff160361260e576040517f08c379a000000000000000000000000000000000000000000000000000000000815260040161260590614854565b60405180910390fd5b6126178161212e565b15612657576040517f08c379a000000000000000000000000000000000000000000000000000000000815260040161264e906148c0565b60405180910390fd5b61266360008383612ed7565b6001600360008473ffffffffffffffffffffffffffffffffffffffff1673ffffffffffffffffffffffffffffffffffffffff16815260200190815260200160002060008282546126b39190613ea4565b92505081905550816002600083815260200190815260200160002060006101000a81548173ffffffffffffffffffffffffffffffffffffffff021916908373ffffffffffffffffffffffffffffffffffffffff160217905550808273ffffffffffffffffffffffffffffffffffffffff16600073ffffffffffffffffffffffffffffffffffffffff167fddf252ad1be2c89b69c2b068fc378daa952ba7f163c4a11628f55a4df523b3ef60405160405180910390a461277460008383612edc565b5050565b6127818261212e565b6127c0576040517f08c379a00000000000000000000000000000000000000000000000000000000081526004016127b790614952565b60405180910390fd5b806006600084815260200190815260200160002090816127e09190614b14565b505050565b60008111612828576040517f08c379a000000000000000000000000000000000000000000000000000000000815260040161281f90614c32565b60405180910390fd5b600954341461286c576040517f08c379a000000000000000000000000000000000000000000000000000000000815260040161286390614609565b60405180910390fd5b6040518060a001604052808381526020013373ffffffffffffffffffffffffffffffffffffffff1681526020013073ffffffffffffffffffffffffffffffffffffffff16815260200182815260200160001515815250600e60008481526020019081526020016000206000820151816000015560208201518160010160006101000a81548173ffffffffffffffffffffffffffffffffffffffff021916908373ffffffffffffffffffffffffffffffffffffffff16021790555060408201518160020160006101000a81548173ffffffffffffffffffffffffffffffffffffffff021916908373ffffffffffffffffffffffffffffffffffffffff1602179055506060820151816003015560808201518160040160006101000a81548160ff0219169083151502179055509050506040518060a00160405280838152602001600073ffffffffffffffffffffffffffffffffffffffff168152602001828152602001600b54426129dc9190613ea4565b815260200160001515815250600d60008481526020019081526020016000206000820151816000015560208201518160010160006101000a81548173ffffffffffffffffffffffffffffffffffffffff021916908373ffffffffffffffffffffffffffffffffffffffff160217905550604082015181600201556060820151816003015560808201518160040160006101000a81548160ff021916908315150217905550905050612ac26040518060400160405280601c81526020017f41756374696f6e206372656174656420666f7220746f6b656e49643a0000000081525083612bb5565b612b176040518060400160405280601181526020017f41756374696f6e20656e642074696d653a000000000000000000000000000000815250600d600085815260200190815260200160002060030154612bb5565b817f6ff530872708bbb51bad8ea341564e4ea039807ad1331f61ab4c906a66875daf33600d600086815260200190815260200160002060030154604051612b5f9291906141f8565b60405180910390a2612b72333084612339565b817fb640004f1d14576d0c209e240cad0410e0d8c0c33a09375861fbadae2588a98d3330846000604051612ba99493929190614c52565b60405180910390a25050565b612c4d8282604051602401612bcb929190614c97565b6040516020818303038152906040527fb60e72cc000000000000000000000000000000000000000000000000000000007bffffffffffffffffffffffffffffffffffffffffffffffffffffffff19166020820180517bffffffffffffffffffffffffffffffffffffffffffffffffffffffff8381831617835250505050612ee1565b5050565b8173ffffffffffffffffffffffffffffffffffffffff168373ffffffffffffffffffffffffffffffffffffffff1603612cbf576040517f08c379a0000000000000000000000000000000000000000000000000000000008152600401612cb690614d13565b60405180910390fd5b80600560008573ffffffffffffffffffffffffffffffffffffffff1673ffffffffffffffffffffffffffffffffffffffff16815260200190815260200160002060008473ffffffffffffffffffffffffffffffffffffffff1673ffffffffffffffffffffffffffffffffffffffff16815260200190815260200160002060006101000a81548160ff0219169083151502179055508173ffffffffffffffffffffffffffffffffffffffff168373ffffffffffffffffffffffffffffffffffffffff167f17307eab39ab6107e8899845ad3d59bd9653f200f220920489ca2b5937696c3183604051612db0919061334c565b60405180910390a3505050565b612dc8848484612339565b612dd484848484612efb565b612e13576040517f08c379a0000000000000000000000000000000000000000000000000000000008152600401612e0a90614da5565b60405180910390fd5b50505050565b606060405180602001604052806000815250905090565b6060612e3b8261212e565b612e7a576040517f08c379a0000000000000000000000000000000000000000000000000000000008152600401612e7190614e37565b60405180910390fd5b6000612e84612e19565b90506000815111612ea45760405180602001604052806000815250612ecf565b80612eae84613082565b604051602001612ebf9291906144e1565b6040516020818303038152906040525b915050919050565b505050565b505050565b612ef881612ef06131e2613203565b63ffffffff16565b50565b6000612f1c8473ffffffffffffffffffffffffffffffffffffffff1661320e565b15613075578373ffffffffffffffffffffffffffffffffffffffff1663150b7a02612f4561219a565b8786866040518563ffffffff1660e01b8152600401612f679493929190614eac565b6020604051808303816000875af1925050508015612fa357506040513d601f19601f82011682018060405250810190612fa09190614f0d565b60015b613025573d8060008114612fd3576040519150601f19603f3d011682016040523d82523d6000602084013e612fd8565b606091505b50600081510361301d576040517f08c379a000000000000000000000000000000000000000000000000000000000815260040161301490614da5565b60405180910390fd5b805181602001fd5b63150b7a0260e01b7bffffffffffffffffffffffffffffffffffffffffffffffffffffffff1916817bffffffffffffffffffffffffffffffffffffffffffffffffffffffff19161491505061307a565b600190505b949350505050565b6060600082036130c9576040518060400160405280600181526020017f300000000000000000000000000000000000000000000000000000000000000081525090506131dd565b600082905060005b600082146130fb5780806130e490613be3565b915050600a826130f49190614f69565b91506130d1565b60008167ffffffffffffffff81111561311757613116613770565b5b6040519080825280601f01601f1916602001820160405280156131495781602001600182028036833780820191505090505b5090505b600085146131d6576001826131629190613e41565b9150600a856131719190614f9a565b603061317d9190613ea4565b60f81b81838151811061319357613192613e75565b5b60200101907effffffffffffffffffffffffffffffffffffffffffffffffffffffffffffff1916908160001a905350600a856131cf9190614f69565b945061314d565b8093505050505b919050565b60006a636f6e736f6c652e6c6f679050600080835160208501845afa505050565b61328e819050919050565b6000808273ffffffffffffffffffffffffffffffffffffffff163b119050919050565b6040518060a0016040528060008152602001600073ffffffffffffffffffffffffffffffffffffffff168152602001600073ffffffffffffffffffffffffffffffffffffffff168152602001600081526020016000151581525090565b613296614fcb565b565b6000604051905090565b600080fd5b600080fd5b60007fffffffff0000000000000000000000000000000000000000000000000000000082169050919050565b6132e1816132ac565b81146132ec57600080fd5b50565b6000813590506132fe816132d8565b92915050565b60006020828403121561331a576133196132a2565b5b6000613328848285016132ef565b91505092915050565b60008115159050919050565b61334681613331565b82525050565b6000602082019050613361600083018461333d565b92915050565b600081519050919050565b600082825260208201905092915050565b60005b838110156133a1578082015181840152602081019050613386565b60008484015250505050565b6000601f19601f8301169050919050565b60006133c982613367565b6133d38185613372565b93506133e3818560208601613383565b6133ec816133ad565b840191505092915050565b6000602082019050818103600083015261341181846133be565b905092915050565b6000819050919050565b61342c81613419565b811461343757600080fd5b50565b60008135905061344981613423565b92915050565b600060208284031215613465576134646132a2565b5b60006134738482850161343a565b91505092915050565b600073ffffffffffffffffffffffffffffffffffffffff82169050919050565b60006134a78261347c565b9050919050565b6134b78161349c565b82525050565b60006020820190506134d260008301846134ae565b92915050565b6134e18161349c565b81146134ec57600080fd5b50565b6000813590506134fe816134d8565b92915050565b6000806040838503121561351b5761351a6132a2565b5b6000613529858286016134ef565b925050602061353a8582860161343a565b9150509250929050565b61354d81613419565b82525050565b60006020820190506135686000830184613544565b92915050565b600081519050919050565b600082825260208201905092915050565b6000819050602082019050919050565b6135a381613419565b82525050565b60006135b48261347c565b9050919050565b6135c4816135a9565b82525050565b6135d381613331565b82525050565b60a0820160008201516135ef600085018261359a565b50602082015161360260208501826135bb565b50604082015161361560408501826135bb565b506060820151613628606085018261359a565b50608082015161363b60808501826135ca565b50505050565b600061364d83836135d9565b60a08301905092915050565b6000602082019050919050565b60006136718261356e565b61367b8185613579565b93506136868361358a565b8060005b838110156136b757815161369e8882613641565b97506136a983613659565b92505060018101905061368a565b5085935050505092915050565b600060208201905081810360008301526136de8184613666565b905092915050565b6000806000606084860312156136ff576136fe6132a2565b5b600061370d868287016134ef565b935050602061371e868287016134ef565b925050604061372f8682870161343a565b9150509250925092565b60006020828403121561374f5761374e6132a2565b5b600061375d848285016134ef565b91505092915050565b600080fd5b600080fd5b7f4e487b7100000000000000000000000000000000000000000000000000000000600052604160045260246000fd5b6137a8826133ad565b810181811067ffffffffffffffff821117156137c7576137c6613770565b5b80604052505050565b60006137da613298565b90506137e6828261379f565b919050565b600067ffffffffffffffff82111561380657613805613770565b5b61380f826133ad565b9050602081019050919050565b82818337600083830152505050565b600061383e613839846137eb565b6137d0565b90508281526020810184848401111561385a5761385961376b565b5b61386584828561381c565b509392505050565b600082601f83011261388257613881613766565b5b813561389284826020860161382b565b91505092915050565b600080604083850312156138b2576138b16132a2565b5b600083013567ffffffffffffffff8111156138d0576138cf6132a7565b5b6138dc8582860161386d565b92505060206138ed8582860161343a565b9150509250929050565b613900816135a9565b82525050565b600060208201905061391b60008301846138f7565b92915050565b61392a81613331565b811461393557600080fd5b50565b60008135905061394781613921565b92915050565b60008060408385031215613964576139636132a2565b5b6000613972858286016134ef565b925050602061398385828601613938565b9150509250929050565b60a0820160008201516139a3600085018261359a565b5060208201516139b660208501826135bb565b5060408201516139c960408501826135bb565b5060608201516139dc606085018261359a565b5060808201516139ef60808501826135ca565b50505050565b600060a082019050613a0a600083018461398d565b92915050565b600067ffffffffffffffff821115613a2b57613a2a613770565b5b613a34826133ad565b9050602081019050919050565b6000613a54613a4f84613a10565b6137d0565b905082815260208101848484011115613a7057613a6f61376b565b5b613a7b84828561381c565b509392505050565b600082601f830112613a9857613a97613766565b5b8135613aa8848260208601613a41565b91505092915050565b60008060008060808587031215613acb57613aca6132a2565b5b6000613ad9878288016134ef565b9450506020613aea878288016134ef565b9350506040613afb8782880161343a565b925050606085013567ffffffffffffffff811115613b1c57613b1b6132a7565b5b613b2887828801613a83565b91505092959194509250565b60008060408385031215613b4b57613b4a6132a2565b5b6000613b598582860161343a565b9250506020613b6a8582860161343a565b9150509250929050565b60008060408385031215613b8b57613b8a6132a2565b5b6000613b99858286016134ef565b9250506020613baa858286016134ef565b9150509250929050565b7f4e487b7100000000000000000000000000000000000000000000000000000000600052601160045260246000fd5b6000613bee82613419565b91507fffffffffffffffffffffffffffffffffffffffffffffffffffffffffffffffff8203613c2057613c1f613bb4565b5b600182019050919050565b7f4e487b7100000000000000000000000000000000000000000000000000000000600052602260045260246000fd5b60006002820490506001821680613c7257607f821691505b602082108103613c8557613c84613c2b565b5b50919050565b7f4552433732313a20617070726f76656420717565727920666f72206e6f6e657860008201527f697374656e7420746f6b656e0000000000000000000000000000000000000000602082015250565b6000613ce7602c83613372565b9150613cf282613c8b565b604082019050919050565b60006020820190508181036000830152613d1681613cda565b9050919050565b7f4552433732313a20617070726f76616c20746f2063757272656e74206f776e6560008201527f7200000000000000000000000000000000000000000000000000000000000000602082015250565b6000613d79602183613372565b9150613d8482613d1d565b604082019050919050565b60006020820190508181036000830152613da881613d6c565b9050919050565b7f4552433732313a20617070726f76652063616c6c6572206973206e6f74206f7760008201527f6e6572206e6f7220617070726f76656420666f7220616c6c0000000000000000602082015250565b6000613e0b603883613372565b9150613e1682613daf565b604082019050919050565b60006020820190508181036000830152613e3a81613dfe565b9050919050565b6000613e4c82613419565b9150613e5783613419565b9250828203905081811115613e6f57613e6e613bb4565b5b92915050565b7f4e487b7100000000000000000000000000000000000000000000000000000000600052603260045260246000fd5b6000613eaf82613419565b9150613eba83613419565b9250828201905080821115613ed257613ed1613bb4565b5b92915050565b7f4552433732313a207472616e736665722063616c6c6572206973206e6f74206f60008201527f776e6572206e6f7220617070726f766564000000000000000000000000000000602082015250565b6000613f34603183613372565b9150613f3f82613ed8565b604082019050919050565b60006020820190508181036000830152613f6381613f27565b9050919050565b7f546f6f20736f6f6e20746f206175746f6d6174652061756374696f6e73000000600082015250565b6000613fa0601d83613372565b9150613fab82613f6a565b602082019050919050565b60006020820190508181036000830152613fcf81613f93565b9050919050565b7f4552433732313a206f776e657220717565727920666f72206e6f6e657869737460008201527f656e7420746f6b656e0000000000000000000000000000000000000000000000602082015250565b6000614032602983613372565b915061403d82613fd6565b604082019050919050565b6000602082019050818103600083015261406181614025565b9050919050565b7f4552433732313a2062616c616e636520717565727920666f7220746865207a6560008201527f726f206164647265737300000000000000000000000000000000000000000000602082015250565b60006140c4602a83613372565b91506140cf82614068565b604082019050919050565b600060208201905081810360008301526140f3816140b7565b9050919050565b7f41756374696f6e2068617320656e646564000000000000000000000000000000600082015250565b6000614130601183613372565b915061413b826140fa565b602082019050919050565b6000602082019050818103600083015261415f81614123565b9050919050565b7f426964206d75737420626520686967686572207468616e20746865206375727260008201527f656e742068696768657374206269640000000000000000000000000000000000602082015250565b60006141c2602f83613372565b91506141cd82614166565b604082019050919050565b600060208201905081810360008301526141f1816141b5565b9050919050565b600060408201905061420d60008301856134ae565b61421a6020830184613544565b9392505050565b7f4f6e6c79206d61726b6574706c616365206f776e65722063616e20757064617460008201527f65206c697374696e672070726963652e00000000000000000000000000000000602082015250565b600061427d603083613372565b915061428882614221565b604082019050919050565b600060208201905081810360008301526142ac81614270565b9050919050565b7f41756374696f6e2068617320616c726561647920656e64656400000000000000600082015250565b60006142e9601983613372565b91506142f4826142b3565b602082019050919050565b60006020820190508181036000830152614318816142dc565b9050919050565b7f41756374696f6e20686173206e6f7420656e6465642079657400000000000000600082015250565b6000614355601983613372565b91506143608261431f565b602082019050919050565b6000602082019050818103600083015261438481614348565b9050919050565b6000819050919050565b60006143b06143ab6143a68461347c565b61438b565b61347c565b9050919050565b60006143c282614395565b9050919050565b60006143d4826143b7565b9050919050565b6143e4816143c9565b82525050565b60006040820190506143ff60008301856143db565b61440c6020830184613544565b9392505050565b7f45524337323155524953746f726167653a2055524920717565727920666f722060008201527f6e6f6e6578697374656e7420746f6b656e000000000000000000000000000000602082015250565b600061446f603183613372565b915061447a82614413565b604082019050919050565b6000602082019050818103600083015261449e81614462565b9050919050565b600081905092915050565b60006144bb82613367565b6144c581856144a5565b93506144d5818560208601613383565b80840191505092915050565b60006144ed82856144b0565b91506144f982846144b0565b91508190509392505050565b7f4f6e6c79206974656d206f776e65722063616e20706572666f726d207468697360008201527f206f7065726174696f6e00000000000000000000000000000000000000000000602082015250565b6000614561602a83613372565b915061456c82614505565b604082019050919050565b6000602082019050818103600083015261459081614554565b9050919050565b7f5072696365206d75737420626520657175616c20746f206c697374696e67207060008201527f7269636500000000000000000000000000000000000000000000000000000000602082015250565b60006145f3602483613372565b91506145fe82614597565b604082019050919050565b60006020820190508181036000830152614622816145e6565b9050919050565b600061463482613419565b91506000820361464757614646613bb4565b5b600182039050919050565b7f4552433732313a206f70657261746f7220717565727920666f72206e6f6e657860008201527f697374656e7420746f6b656e0000000000000000000000000000000000000000602082015250565b60006146ae602c83613372565b91506146b982614652565b604082019050919050565b600060208201905081810360008301526146dd816146a1565b9050919050565b7f4552433732313a207472616e736665722066726f6d20696e636f72726563742060008201527f6f776e6572000000000000000000000000000000000000000000000000000000602082015250565b6000614740602583613372565b915061474b826146e4565b604082019050919050565b6000602082019050818103600083015261476f81614733565b9050919050565b7f4552433732313a207472616e7366657220746f20746865207a65726f2061646460008201527f7265737300000000000000000000000000000000000000000000000000000000602082015250565b60006147d2602483613372565b91506147dd82614776565b604082019050919050565b60006020820190508181036000830152614801816147c5565b9050919050565b7f4552433732313a206d696e7420746f20746865207a65726f2061646472657373600082015250565b600061483e602083613372565b915061484982614808565b602082019050919050565b6000602082019050818103600083015261486d81614831565b9050919050565b7f4552433732313a20746f6b656e20616c7265616479206d696e74656400000000600082015250565b60006148aa601c83613372565b91506148b582614874565b602082019050919050565b600060208201905081810360008301526148d98161489d565b9050919050565b7f45524337323155524953746f726167653a2055524920736574206f66206e6f6e60008201527f6578697374656e7420746f6b656e000000000000000000000000000000000000602082015250565b600061493c602e83613372565b9150614947826148e0565b604082019050919050565b6000602082019050818103600083015261496b8161492f565b9050919050565b60008190508160005260206000209050919050565b60006020601f8301049050919050565b600082821b905092915050565b6000600883026149d47fffffffffffffffffffffffffffffffffffffffffffffffffffffffffffffffff82614997565b6149de8683614997565b95508019841693508086168417925050509392505050565b6000614a11614a0c614a0784613419565b61438b565b613419565b9050919050565b6000819050919050565b614a2b836149f6565b614a3f614a3782614a18565b8484546149a4565b825550505050565b600090565b614a54614a47565b614a5f818484614a22565b505050565b5b81811015614a8357614a78600082614a4c565b600181019050614a65565b5050565b601f821115614ac857614a9981614972565b614aa284614987565b81016020851015614ab1578190505b614ac5614abd85614987565b830182614a64565b50505b505050565b600082821c905092915050565b6000614aeb60001984600802614acd565b1980831691505092915050565b6000614b048383614ada565b9150826002028217905092915050565b614b1d82613367565b67ffffffffffffffff811115614b3657614b35613770565b5b614b408254613c5a565b614b4b828285614a87565b600060209050601f831160018114614b7e5760008415614b6c578287015190505b614b768582614af8565b865550614bde565b601f198416614b8c86614972565b60005b82811015614bb457848901518255600182019150602085019450602081019050614b8f565b86831015614bd15784890151614bcd601f891682614ada565b8355505b6001600288020188555050505b505050505050565b7f5072696365206d757374206265206174206c6561737420312077656900000000600082015250565b6000614c1c601c83613372565b9150614c2782614be6565b602082019050919050565b60006020820190508181036000830152614c4b81614c0f565b9050919050565b6000608082019050614c6760008301876134ae565b614c7460208301866134ae565b614c816040830185613544565b614c8e606083018461333d565b95945050505050565b60006040820190508181036000830152614cb181856133be565b9050614cc06020830184613544565b9392505050565b7f4552433732313a20617070726f766520746f2063616c6c657200000000000000600082015250565b6000614cfd601983613372565b9150614d0882614cc7565b602082019050919050565b60006020820190508181036000830152614d2c81614cf0565b9050919050565b7f4552433732313a207472616e7366657220746f206e6f6e20455243373231526560008201527f63656976657220696d706c656d656e7465720000000000000000000000000000602082015250565b6000614d8f603283613372565b9150614d9a82614d33565b604082019050919050565b60006020820190508181036000830152614dbe81614d82565b9050919050565b7f4552433732314d657461646174613a2055524920717565727920666f72206e6f60008201527f6e6578697374656e7420746f6b656e0000000000000000000000000000000000602082015250565b6000614e21602f83613372565b9150614e2c82614dc5565b604082019050919050565b60006020820190508181036000830152614e5081614e14565b9050919050565b600081519050919050565b600082825260208201905092915050565b6000614e7e82614e57565b614e888185614e62565b9350614e98818560208601613383565b614ea1816133ad565b840191505092915050565b6000608082019050614ec160008301876134ae565b614ece60208301866134ae565b614edb6040830185613544565b8181036060830152614eed8184614e73565b905095945050505050565b600081519050614f07816132d8565b92915050565b600060208284031215614f2357614f226132a2565b5b6000614f3184828501614ef8565b91505092915050565b7f4e487b7100000000000000000000000000000000000000000000000000000000600052601260045260246000fd5b6000614f7482613419565b9150614f7f83613419565b925082614f8f57614f8e614f3a565b5b828204905092915050565b6000614fa582613419565b9150614fb083613419565b925082614fc057614fbf614f3a565b5b828206905092915050565b7f4e487b7100000000000000000000000000000000000000000000000000000000600052605160045260246000fdfea264697066735822122008bc87be3b4856188c88da4b22b8c71a131783f78d97158ae2126d431f9113cb64736f6c63430008140033",
  "linkReferences": {},
  "deployedLinkReferences": {}
}