{
  "_format": "hh-sol-artifact-1",
  "contractName": "NFTMarketplace",
  "sourceName": "contracts/NFTMarketplace.sol",
  "abi": [
    {
      "inputs": [],
      "stateMutability": "nonpayable",
      "type": "constructor"
    },
    {
      "anonymous": false,
      "inputs": [
        {
          "indexed": true,
          "internalType": "address",
          "name": "owner",
          "type": "address"
        },
        {
          "indexed": true,
          "internalType": "address",
          "name": "approved",
          "type": "address"
        },
        {
          "indexed": true,
          "internalType": "uint256",
          "name": "tokenId",
          "type": "uint256"
        }
      ],
      "name": "Approval",
      "type": "event"
    },
    {
      "anonymous": false,
      "inputs": [
        {
          "indexed": true,
          "internalType": "address",
          "name": "owner",
          "type": "address"
        },
        {
          "indexed": true,
          "internalType": "address",
          "name": "operator",
          "type": "address"
        },
        {
          "indexed": false,
          "internalType": "bool",
          "name": "approved",
          "type": "bool"
        }
      ],
      "name": "ApprovalForAll",
      "type": "event"
    },
    {
      "anonymous": false,
      "inputs": [
        {
          "indexed": true,
          "internalType": "uint256",
          "name": "tokenId",
          "type": "uint256"
        },
        {
          "indexed": false,
          "internalType": "address",
          "name": "creator",
          "type": "address"
        },
        {
          "indexed": false,
          "internalType": "uint256",
          "name": "endTime",
          "type": "uint256"
        }
      ],
      "name": "AuctionCreated",
      "type": "event"
    },
    {
      "anonymous": false,
      "inputs": [
        {
          "indexed": true,
          "internalType": "uint256",
          "name": "tokenId",
          "type": "uint256"
        },
        {
          "indexed": false,
          "internalType": "address",
          "name": "winner",
          "type": "address"
        },
        {
          "indexed": false,
          "internalType": "uint256",
          "name": "winningBid",
          "type": "uint256"
        }
      ],
      "name": "AuctionEnded",
      "type": "event"
    },
    {
      "anonymous": false,
      "inputs": [
        {
          "indexed": true,
          "internalType": "uint256",
          "name": "tokenId",
          "type": "uint256"
        },
        {
          "indexed": false,
          "internalType": "address",
          "name": "bidder",
          "type": "address"
        },
        {
          "indexed": false,
          "internalType": "uint256",
          "name": "bidAmount",
          "type": "uint256"
        }
      ],
      "name": "BidPlaced",
      "type": "event"
    },
    {
      "anonymous": false,
      "inputs": [
        {
          "indexed": true,
          "internalType": "uint256",
          "name": "tokenId",
          "type": "uint256"
        },
        {
          "indexed": false,
          "internalType": "address",
          "name": "seller",
          "type": "address"
        },
        {
          "indexed": false,
          "internalType": "address",
          "name": "owner",
          "type": "address"
        },
        {
          "indexed": false,
          "internalType": "uint256",
          "name": "price",
          "type": "uint256"
        },
        {
          "indexed": false,
          "internalType": "bool",
          "name": "sold",
          "type": "bool"
        }
      ],
      "name": "MarketItemCreated",
      "type": "event"
    },
    {
      "anonymous": false,
      "inputs": [
        {
          "indexed": true,
          "internalType": "address",
          "name": "from",
          "type": "address"
        },
        {
          "indexed": true,
          "internalType": "address",
          "name": "to",
          "type": "address"
        },
        {
          "indexed": true,
          "internalType": "uint256",
          "name": "tokenId",
          "type": "uint256"
        }
      ],
      "name": "Transfer",
      "type": "event"
    },
    {
      "inputs": [
        {
          "internalType": "address",
          "name": "to",
          "type": "address"
        },
        {
          "internalType": "uint256",
          "name": "tokenId",
          "type": "uint256"
        }
      ],
      "name": "approve",
      "outputs": [],
      "stateMutability": "nonpayable",
      "type": "function"
    },
    {
      "inputs": [],
      "name": "auctionDuration",
      "outputs": [
        {
          "internalType": "uint256",
          "name": "",
          "type": "uint256"
        }
      ],
      "stateMutability": "view",
      "type": "function"
    },
    {
      "inputs": [],
      "name": "automateAuctions",
      "outputs": [],
      "stateMutability": "nonpayable",
      "type": "function"
    },
    {
      "inputs": [
        {
          "internalType": "address",
          "name": "owner",
          "type": "address"
        }
      ],
      "name": "balanceOf",
      "outputs": [
        {
          "internalType": "uint256",
          "name": "",
          "type": "uint256"
        }
      ],
      "stateMutability": "view",
      "type": "function"
    },
    {
      "inputs": [
        {
          "internalType": "uint256",
          "name": "tokenId",
          "type": "uint256"
        }
      ],
      "name": "buyNFT",
      "outputs": [],
      "stateMutability": "payable",
      "type": "function"
    },
    {
      "inputs": [],
      "name": "checkAndEndAuctions",
      "outputs": [],
      "stateMutability": "nonpayable",
      "type": "function"
    },
    {
      "inputs": [
        {
          "internalType": "uint256",
          "name": "tokenId",
          "type": "uint256"
        }
      ],
      "name": "createMarketSale",
      "outputs": [],
      "stateMutability": "nonpayable",
      "type": "function"
    },
    {
      "inputs": [
        {
          "internalType": "string",
          "name": "tokenURI",
          "type": "string"
        },
        {
          "internalType": "uint256",
          "name": "price",
          "type": "uint256"
        }
      ],
      "name": "createToken",
      "outputs": [
        {
          "internalType": "uint256",
          "name": "",
          "type": "uint256"
        }
      ],
      "stateMutability": "payable",
      "type": "function"
    },
    {
      "inputs": [
        {
          "internalType": "uint256",
          "name": "tokenId",
          "type": "uint256"
        }
      ],
      "name": "endAuction",
      "outputs": [],
      "stateMutability": "nonpayable",
      "type": "function"
    },
    {
      "inputs": [],
      "name": "fetchItemsListed",
      "outputs": [
        {
          "components": [
            {
              "internalType": "uint256",
              "name": "tokenId",
              "type": "uint256"
            },
            {
              "internalType": "address payable",
              "name": "seller",
              "type": "address"
            },
            {
              "internalType": "address payable",
              "name": "owner",
              "type": "address"
            },
            {
              "internalType": "uint256",
              "name": "price",
              "type": "uint256"
            },
            {
              "internalType": "bool",
              "name": "sold",
              "type": "bool"
            },
            {
              "internalType": "bool",
              "name": "isAuction",
              "type": "bool"
            },
            {
              "internalType": "uint256",
              "name": "endTime",
              "type": "uint256"
            }
          ],
          "internalType": "struct NFTMarketplace.MarketItem[]",
          "name": "",
          "type": "tuple[]"
        }
      ],
      "stateMutability": "view",
      "type": "function"
    },
    {
      "inputs": [],
      "name": "fetchMarketItems",
      "outputs": [
        {
          "components": [
            {
              "internalType": "uint256",
              "name": "tokenId",
              "type": "uint256"
            },
            {
              "internalType": "address payable",
              "name": "seller",
              "type": "address"
            },
            {
              "internalType": "address payable",
              "name": "owner",
              "type": "address"
            },
            {
              "internalType": "uint256",
              "name": "price",
              "type": "uint256"
            },
            {
              "internalType": "bool",
              "name": "sold",
              "type": "bool"
            },
            {
              "internalType": "bool",
              "name": "isAuction",
              "type": "bool"
            },
            {
              "internalType": "uint256",
              "name": "endTime",
              "type": "uint256"
            }
          ],
          "internalType": "struct NFTMarketplace.MarketItem[]",
          "name": "",
          "type": "tuple[]"
        }
      ],
      "stateMutability": "view",
      "type": "function"
    },
    {
      "inputs": [],
      "name": "fetchMyNFTs",
      "outputs": [
        {
          "components": [
            {
              "internalType": "uint256",
              "name": "tokenId",
              "type": "uint256"
            },
            {
              "internalType": "address payable",
              "name": "seller",
              "type": "address"
            },
            {
              "internalType": "address payable",
              "name": "owner",
              "type": "address"
            },
            {
              "internalType": "uint256",
              "name": "price",
              "type": "uint256"
            },
            {
              "internalType": "bool",
              "name": "sold",
              "type": "bool"
            },
            {
              "internalType": "bool",
              "name": "isAuction",
              "type": "bool"
            },
            {
              "internalType": "uint256",
              "name": "endTime",
              "type": "uint256"
            }
          ],
          "internalType": "struct NFTMarketplace.MarketItem[]",
          "name": "",
          "type": "tuple[]"
        }
      ],
      "stateMutability": "view",
      "type": "function"
    },
    {
      "inputs": [
        {
          "internalType": "uint256",
          "name": "tokenId",
          "type": "uint256"
        }
      ],
      "name": "fetchTokenDetails",
      "outputs": [
        {
          "components": [
            {
              "internalType": "uint256",
              "name": "tokenId",
              "type": "uint256"
            },
            {
              "internalType": "address payable",
              "name": "seller",
              "type": "address"
            },
            {
              "internalType": "address payable",
              "name": "owner",
              "type": "address"
            },
            {
              "internalType": "uint256",
              "name": "price",
              "type": "uint256"
            },
            {
              "internalType": "bool",
              "name": "sold",
              "type": "bool"
            },
            {
              "internalType": "bool",
              "name": "isAuction",
              "type": "bool"
            },
            {
              "internalType": "uint256",
              "name": "endTime",
              "type": "uint256"
            }
          ],
          "internalType": "struct NFTMarketplace.MarketItem",
          "name": "",
          "type": "tuple"
        }
      ],
      "stateMutability": "view",
      "type": "function"
    },
    {
      "inputs": [
        {
          "internalType": "uint256",
          "name": "tokenId",
          "type": "uint256"
        }
      ],
      "name": "getApproved",
      "outputs": [
        {
          "internalType": "address",
          "name": "",
          "type": "address"
        }
      ],
      "stateMutability": "view",
      "type": "function"
    },
    {
      "inputs": [],
      "name": "getListingPrice",
      "outputs": [
        {
          "internalType": "uint256",
          "name": "",
          "type": "uint256"
        }
      ],
      "stateMutability": "view",
      "type": "function"
    },
    {
      "inputs": [
        {
          "internalType": "address",
          "name": "owner",
          "type": "address"
        },
        {
          "internalType": "address",
          "name": "operator",
          "type": "address"
        }
      ],
      "name": "isApprovedForAll",
      "outputs": [
        {
          "internalType": "bool",
          "name": "",
          "type": "bool"
        }
      ],
      "stateMutability": "view",
      "type": "function"
    },
    {
      "inputs": [],
      "name": "lastAutomatedTime",
      "outputs": [
        {
          "internalType": "uint256",
          "name": "",
          "type": "uint256"
        }
      ],
      "stateMutability": "view",
      "type": "function"
    },
    {
      "inputs": [],
      "name": "listingPrice",
      "outputs": [
        {
          "internalType": "uint256",
          "name": "",
          "type": "uint256"
        }
      ],
      "stateMutability": "view",
      "type": "function"
    },
    {
      "inputs": [],
      "name": "name",
      "outputs": [
        {
          "internalType": "string",
          "name": "",
          "type": "string"
        }
      ],
      "stateMutability": "view",
      "type": "function"
    },
    {
      "inputs": [],
      "name": "owner",
      "outputs": [
        {
          "internalType": "address payable",
          "name": "",
          "type": "address"
        }
      ],
      "stateMutability": "view",
      "type": "function"
    },
    {
      "inputs": [
        {
          "internalType": "uint256",
          "name": "tokenId",
          "type": "uint256"
        }
      ],
      "name": "ownerOf",
      "outputs": [
        {
          "internalType": "address",
          "name": "",
          "type": "address"
        }
      ],
      "stateMutability": "view",
      "type": "function"
    },
    {
      "inputs": [
        {
          "internalType": "uint256",
          "name": "tokenId",
          "type": "uint256"
        }
      ],
      "name": "placeBid",
      "outputs": [],
      "stateMutability": "payable",
      "type": "function"
    },
    {
      "inputs": [
        {
          "internalType": "uint256",
          "name": "tokenId",
          "type": "uint256"
        },
        {
          "internalType": "uint256",
          "name": "price",
          "type": "uint256"
        }
      ],
      "name": "resellToken",
      "outputs": [],
      "stateMutability": "payable",
      "type": "function"
    },
    {
      "inputs": [
        {
          "internalType": "address",
          "name": "from",
          "type": "address"
        },
        {
          "internalType": "address",
          "name": "to",
          "type": "address"
        },
        {
          "internalType": "uint256",
          "name": "tokenId",
          "type": "uint256"
        }
      ],
      "name": "safeTransferFrom",
      "outputs": [],
      "stateMutability": "nonpayable",
      "type": "function"
    },
    {
      "inputs": [
        {
          "internalType": "address",
          "name": "from",
          "type": "address"
        },
        {
          "internalType": "address",
          "name": "to",
          "type": "address"
        },
        {
          "internalType": "uint256",
          "name": "tokenId",
          "type": "uint256"
        },
        {
          "internalType": "bytes",
          "name": "_data",
          "type": "bytes"
        }
      ],
      "name": "safeTransferFrom",
      "outputs": [],
      "stateMutability": "nonpayable",
      "type": "function"
    },
    {
      "inputs": [
        {
          "internalType": "address",
          "name": "operator",
          "type": "address"
        },
        {
          "internalType": "bool",
          "name": "approved",
          "type": "bool"
        }
      ],
      "name": "setApprovalForAll",
      "outputs": [],
      "stateMutability": "nonpayable",
      "type": "function"
    },
    {
      "inputs": [
        {
          "internalType": "bytes4",
          "name": "interfaceId",
          "type": "bytes4"
        }
      ],
      "name": "supportsInterface",
      "outputs": [
        {
          "internalType": "bool",
          "name": "",
          "type": "bool"
        }
      ],
      "stateMutability": "view",
      "type": "function"
    },
    {
      "inputs": [],
      "name": "symbol",
      "outputs": [
        {
          "internalType": "string",
          "name": "",
          "type": "string"
        }
      ],
      "stateMutability": "view",
      "type": "function"
    },
    {
      "inputs": [
        {
          "internalType": "uint256",
          "name": "tokenId",
          "type": "uint256"
        }
      ],
      "name": "tokenURI",
      "outputs": [
        {
          "internalType": "string",
          "name": "",
          "type": "string"
        }
      ],
      "stateMutability": "view",
      "type": "function"
    },
    {
      "inputs": [
        {
          "internalType": "address",
          "name": "from",
          "type": "address"
        },
        {
          "internalType": "address",
          "name": "to",
          "type": "address"
        },
        {
          "internalType": "uint256",
          "name": "tokenId",
          "type": "uint256"
        }
      ],
      "name": "transferFrom",
      "outputs": [],
      "stateMutability": "nonpayable",
      "type": "function"
    },
    {
      "inputs": [
        {
          "internalType": "uint256",
          "name": "_listingPrice",
          "type": "uint256"
        }
      ],
      "name": "updateListingPrice",
      "outputs": [],
      "stateMutability": "payable",
      "type": "function"
    }
  ],
  "bytecode": "0x60806040526658d15e1762800060095561012c600b553480156200002257600080fd5b506040518060400160405280601081526020017f4d657461766572736520546f6b656e73000000000000000000000000000000008152506040518060400160405280600481526020017f4d455454000000000000000000000000000000000000000000000000000000008152508160009081620000a091906200037d565b508060019081620000b291906200037d565b50505033600a60006101000a81548173ffffffffffffffffffffffffffffffffffffffff021916908373ffffffffffffffffffffffffffffffffffffffff16021790555042600c8190555062000464565b600081519050919050565b7f4e487b7100000000000000000000000000000000000000000000000000000000600052604160045260246000fd5b7f4e487b7100000000000000000000000000000000000000000000000000000000600052602260045260246000fd5b600060028204905060018216806200018557607f821691505b6020821081036200019b576200019a6200013d565b5b50919050565b60008190508160005260206000209050919050565b60006020601f8301049050919050565b600082821b905092915050565b600060088302620002057fffffffffffffffffffffffffffffffffffffffffffffffffffffffffffffffff82620001c6565b620002118683620001c6565b95508019841693508086168417925050509392505050565b6000819050919050565b6000819050919050565b60006200025e62000258620002528462000229565b62000233565b62000229565b9050919050565b6000819050919050565b6200027a836200023d565b62000292620002898262000265565b848454620001d3565b825550505050565b600090565b620002a96200029a565b620002b68184846200026f565b505050565b5b81811015620002de57620002d26000826200029f565b600181019050620002bc565b5050565b601f8211156200032d57620002f781620001a1565b6200030284620001b6565b8101602085101562000312578190505b6200032a6200032185620001b6565b830182620002bb565b50505b505050565b600082821c905092915050565b6000620003526000198460080262000332565b1980831691505092915050565b60006200036d83836200033f565b9150826002028217905092915050565b620003888262000103565b67ffffffffffffffff811115620003a457620003a36200010e565b5b620003b082546200016c565b620003bd828285620002e2565b600060209050601f831160018114620003f55760008415620003e0578287015190505b620003ec85826200035f565b8655506200045c565b601f1984166200040586620001a1565b60005b828110156200042f5784890151825560018201915060208501945060208101905062000408565b868310156200044f57848901516200044b601f8916826200033f565b8355505b6001600288020188555050505b505050505050565b6156cb80620004746000396000f3fe6080604052600436106101d85760003560e01c80636352211e11610102578063b863a7cd11610095578063c78f19f911610064578063c78f19f914610662578063c87b56dd1461068d578063e219fc75146106ca578063e985e9c5146106e6576101d8565b8063b863a7cd146105aa578063b88d4fde146105e7578063b9a2de3a14610610578063be9af53614610639576101d8565b806395d89b41116100d157806395d89b411461051e5780639979ef4514610549578063a22cb46514610565578063ae677aa31461058e576101d8565b80636352211e1461044957806370a082311461048657806372b3b620146104c35780638da5cb5b146104f3576101d8565b806312e855851161017a57806345f8fa801161014957806345f8fa80146103c05780634700c27e146103eb57806351ed82881461040257806356f285551461041e576101d8565b806312e8558514610318578063202e37401461034357806323b872dd1461036e57806342842e0e14610397576101d8565b8063081812fc116101b6578063081812fc1461025c578063095ea7b3146102995780630cbf54c8146102c25780630f08efe0146102ed576101d8565b806301ffc9a7146101dd57806303bb502f1461021a57806306fdde0314610231575b600080fd5b3480156101e957600080fd5b5061020460048036038101906101ff91906138c1565b610723565b6040516102119190613909565b60405180910390f35b34801561022657600080fd5b5061022f610805565b005b34801561023d57600080fd5b5061024661087b565b60405161025391906139b4565b60405180910390f35b34801561026857600080fd5b50610283600480360381019061027e9190613a0c565b61090d565b6040516102909190613a7a565b60405180910390f35b3480156102a557600080fd5b506102c060048036038101906102bb9190613ac1565b610992565b005b3480156102ce57600080fd5b506102d7610aa9565b6040516102e49190613b10565b60405180910390f35b3480156102f957600080fd5b50610302610aaf565b60405161030f9190613ca7565b60405180910390f35b34801561032457600080fd5b5061032d610d12565b60405161033a9190613b10565b60405180910390f35b34801561034f57600080fd5b50610358610d1c565b6040516103659190613ca7565b60405180910390f35b34801561037a57600080fd5b5061039560048036038101906103909190613cc9565b611008565b005b3480156103a357600080fd5b506103be60048036038101906103b99190613cc9565b611068565b005b3480156103cc57600080fd5b506103d5611088565b6040516103e29190613ca7565b60405180910390f35b3480156103f757600080fd5b50610400611374565b005b61041c60048036038101906104179190613a0c565b6113d6565b005b34801561042a57600080fd5b5061043361161c565b6040516104409190613b10565b60405180910390f35b34801561045557600080fd5b50610470600480360381019061046b9190613a0c565b611622565b60405161047d9190613a7a565b60405180910390f35b34801561049257600080fd5b506104ad60048036038101906104a89190613d1c565b6116d3565b6040516104ba9190613b10565b60405180910390f35b6104dd60048036038101906104d89190613e7e565b61178a565b6040516104ea9190613b10565b60405180910390f35b3480156104ff57600080fd5b506105086117d5565b6040516105159190613ee9565b60405180910390f35b34801561052a57600080fd5b506105336117fb565b60405161054091906139b4565b60405180910390f35b610563600480360381019061055e9190613a0c565b61188d565b005b34801561057157600080fd5b5061058c60048036038101906105879190613f30565b611b12565b005b6105a860048036038101906105a39190613a0c565b611b28565b005b3480156105b657600080fd5b506105d160048036038101906105cc9190613a0c565b611bc2565b6040516105de9190613ffe565b60405180910390f35b3480156105f357600080fd5b5061060e600480360381019061060991906140ba565b611cef565b005b34801561061c57600080fd5b5061063760048036038101906106329190613a0c565b611d51565b005b34801561064557600080fd5b50610660600480360381019061065b9190613a0c565b6121f1565b005b34801561066e57600080fd5b50610677612205565b6040516106849190613b10565b60405180910390f35b34801561069957600080fd5b506106b460048036038101906106af9190613a0c565b61220b565b6040516106c191906139b4565b60405180910390f35b6106e460048036038101906106df919061413d565b61235c565b005b3480156106f257600080fd5b5061070d6004803603810190610708919061417d565b61258e565b60405161071a9190613909565b60405180910390f35b60007f80ac58cd000000000000000000000000000000000000000000000000000000007bffffffffffffffffffffffffffffffffffffffffffffffffffffffff1916827bffffffffffffffffffffffffffffffffffffffffffffffffffffffff191614806107ee57507f5b5e139f000000000000000000000000000000000000000000000000000000007bffffffffffffffffffffffffffffffffffffffffffffffffffffffff1916827bffffffffffffffffffffffffffffffffffffffffffffffffffffffff1916145b806107fe57506107fd82612622565b5b9050919050565b600060075490506000600190505b818111610877576000600d600083815260200190815260200160002090508060040160009054906101000a900460ff16158015610854575080600301544210155b156108635761086282611d51565b5b50808061086f906141ec565b915050610813565b5050565b60606000805461088a90614263565b80601f01602080910402602001604051908101604052809291908181526020018280546108b690614263565b80156109035780601f106108d857610100808354040283529160200191610903565b820191906000526020600020905b8154815290600101906020018083116108e657829003601f168201915b5050505050905090565b60006109188261268c565b610957576040517f08c379a000000000000000000000000000000000000000000000000000000000815260040161094e90614306565b60405180910390fd5b6004600083815260200190815260200160002060009054906101000a900473ffffffffffffffffffffffffffffffffffffffff169050919050565b600061099d82611622565b90508073ffffffffffffffffffffffffffffffffffffffff168373ffffffffffffffffffffffffffffffffffffffff1603610a0d576040517f08c379a0000000000000000000000000000000000000000000000000000000008152600401610a0490614398565b60405180910390fd5b8073ffffffffffffffffffffffffffffffffffffffff16610a2c6126f8565b73ffffffffffffffffffffffffffffffffffffffff161480610a5b5750610a5a81610a556126f8565b61258e565b5b610a9a576040517f08c379a0000000000000000000000000000000000000000000000000000000008152600401610a919061442a565b60405180910390fd5b610aa48383612700565b505050565b600b5481565b6060600060075490506000600854600754610aca919061444a565b90506000808267ffffffffffffffff811115610ae957610ae8613d53565b5b604051908082528060200260200182016040528015610b2257816020015b610b0f6137de565b815260200190600190039081610b075790505b5090506000600190505b848111610d07573073ffffffffffffffffffffffffffffffffffffffff16600e600083815260200190815260200160002060020160009054906101000a900473ffffffffffffffffffffffffffffffffffffffff1673ffffffffffffffffffffffffffffffffffffffff1603610cf45760008190506000600e60008381526020019081526020016000209050806040518060e0016040529081600082015481526020016001820160009054906101000a900473ffffffffffffffffffffffffffffffffffffffff1673ffffffffffffffffffffffffffffffffffffffff1673ffffffffffffffffffffffffffffffffffffffff1681526020016002820160009054906101000a900473ffffffffffffffffffffffffffffffffffffffff1673ffffffffffffffffffffffffffffffffffffffff1673ffffffffffffffffffffffffffffffffffffffff168152602001600382015481526020016004820160009054906101000a900460ff161515151581526020016004820160019054906101000a900460ff16151515158152602001600582015481525050848681518110610cd757610cd661447e565b5b6020026020010181905250600185610cef91906144ad565b945050505b8080610cff906141ec565b915050610b2c565b508094505050505090565b6000600954905090565b6060600060075490506000806000600190505b838111610dc2573373ffffffffffffffffffffffffffffffffffffffff16600e600083815260200190815260200160002060020160009054906101000a900473ffffffffffffffffffffffffffffffffffffffff1673ffffffffffffffffffffffffffffffffffffffff1603610daf57600183610dac91906144ad565b92505b8080610dba906141ec565b915050610d2f565b5060008267ffffffffffffffff811115610ddf57610dde613d53565b5b604051908082528060200260200182016040528015610e1857816020015b610e056137de565b815260200190600190039081610dfd5790505b5090506000600190505b848111610ffd573373ffffffffffffffffffffffffffffffffffffffff16600e600083815260200190815260200160002060020160009054906101000a900473ffffffffffffffffffffffffffffffffffffffff1673ffffffffffffffffffffffffffffffffffffffff1603610fea5760008190506000600e60008381526020019081526020016000209050806040518060e0016040529081600082015481526020016001820160009054906101000a900473ffffffffffffffffffffffffffffffffffffffff1673ffffffffffffffffffffffffffffffffffffffff1673ffffffffffffffffffffffffffffffffffffffff1681526020016002820160009054906101000a900473ffffffffffffffffffffffffffffffffffffffff1673ffffffffffffffffffffffffffffffffffffffff1673ffffffffffffffffffffffffffffffffffffffff168152602001600382015481526020016004820160009054906101000a900460ff161515151581526020016004820160019054906101000a900460ff16151515158152602001600582015481525050848681518110610fcd57610fcc61447e565b5b6020026020010181905250600185610fe591906144ad565b945050505b8080610ff5906141ec565b915050610e22565b508094505050505090565b6110196110136126f8565b826127b9565b611058576040517f08c379a000000000000000000000000000000000000000000000000000000000815260040161104f90614553565b60405180910390fd5b611063838383612897565b505050565b61108383838360405180602001604052806000815250611cef565b505050565b6060600060075490506000806000600190505b83811161112e573373ffffffffffffffffffffffffffffffffffffffff16600e600083815260200190815260200160002060010160009054906101000a900473ffffffffffffffffffffffffffffffffffffffff1673ffffffffffffffffffffffffffffffffffffffff160361111b5760018361111891906144ad565b92505b8080611126906141ec565b91505061109b565b5060008267ffffffffffffffff81111561114b5761114a613d53565b5b60405190808252806020026020018201604052801561118457816020015b6111716137de565b8152602001906001900390816111695790505b5090506000600190505b848111611369573373ffffffffffffffffffffffffffffffffffffffff16600e600083815260200190815260200160002060010160009054906101000a900473ffffffffffffffffffffffffffffffffffffffff1673ffffffffffffffffffffffffffffffffffffffff16036113565760008190506000600e60008381526020019081526020016000209050806040518060e0016040529081600082015481526020016001820160009054906101000a900473ffffffffffffffffffffffffffffffffffffffff1673ffffffffffffffffffffffffffffffffffffffff1673ffffffffffffffffffffffffffffffffffffffff1681526020016002820160009054906101000a900473ffffffffffffffffffffffffffffffffffffffff1673ffffffffffffffffffffffffffffffffffffffff1673ffffffffffffffffffffffffffffffffffffffff168152602001600382015481526020016004820160009054906101000a900460ff161515151581526020016004820160019054906101000a900460ff161515151581526020016005820154815250508486815181106113395761133861447e565b5b602002602001018190525060018561135191906144ad565b945050505b8080611361906141ec565b91505061118e565b508094505050505090565b6078600c5461138391906144ad565b4210156113c5576040517f08c379a00000000000000000000000000000000000000000000000000000000081526004016113bc906145bf565b60405180910390fd5b42600c819055506113d4610805565b565b6000600e6000838152602001908152602001600020600301549050803414611433576040517f08c379a000000000000000000000000000000000000000000000000000000000815260040161142a90614651565b60405180910390fd5b33600e600084815260200190815260200160002060020160006101000a81548173ffffffffffffffffffffffffffffffffffffffff021916908373ffffffffffffffffffffffffffffffffffffffff1602179055506001600e600084815260200190815260200160002060040160006101000a81548160ff0219169083151502179055506000600e600084815260200190815260200160002060010160006101000a81548173ffffffffffffffffffffffffffffffffffffffff021916908373ffffffffffffffffffffffffffffffffffffffff16021790555060086000815480929190611520906141ec565b9190505550611530303384612897565b600a60009054906101000a900473ffffffffffffffffffffffffffffffffffffffff1673ffffffffffffffffffffffffffffffffffffffff166108fc6009549081150290604051600060405180830381858888f1935050505015801561159a573d6000803e3d6000fd5b50600e600083815260200190815260200160002060010160009054906101000a900473ffffffffffffffffffffffffffffffffffffffff1673ffffffffffffffffffffffffffffffffffffffff166108fc349081150290604051600060405180830381858888f19350505050158015611617573d6000803e3d6000fd5b505050565b600c5481565b6000806002600084815260200190815260200160002060009054906101000a900473ffffffffffffffffffffffffffffffffffffffff169050600073ffffffffffffffffffffffffffffffffffffffff168173ffffffffffffffffffffffffffffffffffffffff16036116ca576040517f08c379a00000000000000000000000000000000000000000000000000000000081526004016116c1906146e3565b60405180910390fd5b80915050919050565b60008073ffffffffffffffffffffffffffffffffffffffff168273ffffffffffffffffffffffffffffffffffffffff1603611743576040517f08c379a000000000000000000000000000000000000000000000000000000000815260040161173a90614775565b60405180910390fd5b600360008373ffffffffffffffffffffffffffffffffffffffff1673ffffffffffffffffffffffffffffffffffffffff168152602001908152602001600020549050919050565b60006007600081548092919061179f906141ec565b9190505550600060075490506117b53382612afd565b6117bf8185612cd6565b6117cb81846001612d43565b8091505092915050565b600a60009054906101000a900473ffffffffffffffffffffffffffffffffffffffff1681565b60606001805461180a90614263565b80601f016020809104026020016040519081016040528092919081815260200182805461183690614263565b80156118835780601f1061185857610100808354040283529160200191611883565b820191906000526020600020905b81548152906001019060200180831161186657829003601f168201915b5050505050905090565b6000600d60008381526020019081526020016000209050806003015442106118ea576040517f08c379a00000000000000000000000000000000000000000000000000000000081526004016118e1906147e1565b60405180910390fd5b8060050154341015611931576040517f08c379a000000000000000000000000000000000000000000000000000000000815260040161192890614873565b60405180910390fd5b8060020154341115611b0e57600073ffffffffffffffffffffffffffffffffffffffff168160010160009054906101000a900473ffffffffffffffffffffffffffffffffffffffff1673ffffffffffffffffffffffffffffffffffffffff1614611a05578060010160009054906101000a900473ffffffffffffffffffffffffffffffffffffffff1673ffffffffffffffffffffffffffffffffffffffff166108fc82600201549081150290604051600060405180830381858888f19350505050158015611a03573d6000803e3d6000fd5b505b611a446040518060400160405280601881526020017f506c6163696e672062696420666f7220746f6b656e49643a000000000000000081525083613162565b611a876040518060400160405280601181526020017f41756374696f6e20656e642074696d653a0000000000000000000000000000008152508260030154613162565b338160010160006101000a81548173ffffffffffffffffffffffffffffffffffffffff021916908373ffffffffffffffffffffffffffffffffffffffff160217905550348160020181905550817f0e54eff26401bf69b81b26f60bd85ef47f5d85275c1d268d84f68d6897431c473334604051611b05929190614893565b60405180910390a25b5050565b611b24611b1d6126f8565b83836131fe565b5050565b3373ffffffffffffffffffffffffffffffffffffffff16600a60009054906101000a900473ffffffffffffffffffffffffffffffffffffffff1673ffffffffffffffffffffffffffffffffffffffff1614611bb8576040517f08c379a0000000000000000000000000000000000000000000000000000000008152600401611baf9061492e565b60405180910390fd5b8060098190555050565b611bca6137de565b600e60008381526020019081526020016000206040518060e0016040529081600082015481526020016001820160009054906101000a900473ffffffffffffffffffffffffffffffffffffffff1673ffffffffffffffffffffffffffffffffffffffff1673ffffffffffffffffffffffffffffffffffffffff1681526020016002820160009054906101000a900473ffffffffffffffffffffffffffffffffffffffff1673ffffffffffffffffffffffffffffffffffffffff1673ffffffffffffffffffffffffffffffffffffffff168152602001600382015481526020016004820160009054906101000a900460ff161515151581526020016004820160019054906101000a900460ff161515151581526020016005820154815250509050919050565b611d00611cfa6126f8565b836127b9565b611d3f576040517f08c379a0000000000000000000000000000000000000000000000000000000008152600401611d3690614553565b60405180910390fd5b611d4b8484848461336a565b50505050565b611d906040518060400160405280601b81526020017f456e64696e672061756374696f6e20666f7220746f6b656e49643a000000000081525082613162565b6000600d600083815260200190815260200160002090508060040160009054906101000a900460ff1615611df9576040517f08c379a0000000000000000000000000000000000000000000000000000000008152600401611df09061499a565b60405180910390fd5b8060030154421015611e40576040517f08c379a0000000000000000000000000000000000000000000000000000000008152600401611e3790614a06565b60405180910390fd5b60018160040160006101000a81548160ff021916908315150217905550600073ffffffffffffffffffffffffffffffffffffffff168160010160009054906101000a900473ffffffffffffffffffffffffffffffffffffffff1673ffffffffffffffffffffffffffffffffffffffff161461216c57611ee4308260010160009054906101000a900473ffffffffffffffffffffffffffffffffffffffff1684612897565b8060020154600e600084815260200190815260200160002060030181905550600e600083815260200190815260200160002060010160009054906101000a900473ffffffffffffffffffffffffffffffffffffffff1673ffffffffffffffffffffffffffffffffffffffff166108fc82600201549081150290604051600060405180830381858888f19350505050158015611f83573d6000803e3d6000fd5b506001600e600084815260200190815260200160002060040160006101000a81548160ff0219169083151502179055508060010160009054906101000a900473ffffffffffffffffffffffffffffffffffffffff16600e600084815260200190815260200160002060020160006101000a81548173ffffffffffffffffffffffffffffffffffffffff021916908373ffffffffffffffffffffffffffffffffffffffff1602179055506000600e600084815260200190815260200160002060010160006101000a81548173ffffffffffffffffffffffffffffffffffffffff021916908373ffffffffffffffffffffffffffffffffffffffff16021790555060086000815480929190612095906141ec565b9190505550600a60009054906101000a900473ffffffffffffffffffffffffffffffffffffffff1673ffffffffffffffffffffffffffffffffffffffff166108fc6009549081150290604051600060405180830381858888f19350505050158015612104573d6000803e3d6000fd5b50817fd2aa34a4fdbbc6dff6a3e56f46e0f3ae2a31d7785ff3487aa5c95c642acea5018260010160009054906101000a900473ffffffffffffffffffffffffffffffffffffffff16836002015460405161215f929190614a85565b60405180910390a26121ae565b6121ad30600e600085815260200190815260200160002060010160009054906101000a900473ffffffffffffffffffffffffffffffffffffffff1684612897565b5b6121ed6040518060400160405280601a81526020017f41756374696f6e20656e64656420666f7220746f6b656e49643a00000000000081525083613162565b5050565b6121fa81611d51565b612202610805565b50565b60095481565b60606122168261268c565b612255576040517f08c379a000000000000000000000000000000000000000000000000000000000815260040161224c90614b20565b60405180910390fd5b600060066000848152602001908152602001600020805461227590614263565b80601f01602080910402602001604051908101604052809291908181526020018280546122a190614263565b80156122ee5780601f106122c3576101008083540402835291602001916122ee565b820191906000526020600020905b8154815290600101906020018083116122d157829003601f168201915b5050505050905060006122ff6133c6565b90506000815103612314578192505050612357565b600082511115612349578082604051602001612331929190614b7c565b60405160208183030381529060405292505050612357565b612352846133dd565b925050505b919050565b3373ffffffffffffffffffffffffffffffffffffffff16600e600084815260200190815260200160002060020160009054906101000a900473ffffffffffffffffffffffffffffffffffffffff1673ffffffffffffffffffffffffffffffffffffffff1614612400576040517f08c379a00000000000000000000000000000000000000000000000000000000081526004016123f790614c12565b60405180910390fd5b6009543414612444576040517f08c379a000000000000000000000000000000000000000000000000000000000815260040161243b90614ca4565b60405180910390fd5b6000600e600084815260200190815260200160002060040160006101000a81548160ff02191690831515021790555080600e6000848152602001908152602001600020600301819055506000600e600084815260200190815260200160002060040160016101000a81548160ff02191690831515021790555033600e600084815260200190815260200160002060010160006101000a81548173ffffffffffffffffffffffffffffffffffffffff021916908373ffffffffffffffffffffffffffffffffffffffff16021790555030600e600084815260200190815260200160002060020160006101000a81548173ffffffffffffffffffffffffffffffffffffffff021916908373ffffffffffffffffffffffffffffffffffffffff1602179055506008600081548092919061257a90614cc4565b919050555061258a333084612897565b5050565b6000600560008473ffffffffffffffffffffffffffffffffffffffff1673ffffffffffffffffffffffffffffffffffffffff16815260200190815260200160002060008373ffffffffffffffffffffffffffffffffffffffff1673ffffffffffffffffffffffffffffffffffffffff16815260200190815260200160002060009054906101000a900460ff16905092915050565b60007f01ffc9a7000000000000000000000000000000000000000000000000000000007bffffffffffffffffffffffffffffffffffffffffffffffffffffffff1916827bffffffffffffffffffffffffffffffffffffffffffffffffffffffff1916149050919050565b60008073ffffffffffffffffffffffffffffffffffffffff166002600084815260200190815260200160002060009054906101000a900473ffffffffffffffffffffffffffffffffffffffff1673ffffffffffffffffffffffffffffffffffffffff1614159050919050565b600033905090565b816004600083815260200190815260200160002060006101000a81548173ffffffffffffffffffffffffffffffffffffffff021916908373ffffffffffffffffffffffffffffffffffffffff160217905550808273ffffffffffffffffffffffffffffffffffffffff1661277383611622565b73ffffffffffffffffffffffffffffffffffffffff167f8c5be1e5ebec7d5bd14f71427d1e84f3dd0314c0f7b2291e5b200ac8c7c3b92560405160405180910390a45050565b60006127c48261268c565b612803576040517f08c379a00000000000000000000000000000000000000000000000000000000081526004016127fa90614d5f565b60405180910390fd5b600061280e83611622565b90508073ffffffffffffffffffffffffffffffffffffffff168473ffffffffffffffffffffffffffffffffffffffff16148061287d57508373ffffffffffffffffffffffffffffffffffffffff166128658461090d565b73ffffffffffffffffffffffffffffffffffffffff16145b8061288e575061288d818561258e565b5b91505092915050565b8273ffffffffffffffffffffffffffffffffffffffff166128b782611622565b73ffffffffffffffffffffffffffffffffffffffff161461290d576040517f08c379a000000000000000000000000000000000000000000000000000000000815260040161290490614df1565b60405180910390fd5b600073ffffffffffffffffffffffffffffffffffffffff168273ffffffffffffffffffffffffffffffffffffffff160361297c576040517f08c379a000000000000000000000000000000000000000000000000000000000815260040161297390614e83565b60405180910390fd5b612987838383613484565b612992600082612700565b6001600360008573ffffffffffffffffffffffffffffffffffffffff1673ffffffffffffffffffffffffffffffffffffffff16815260200190815260200160002060008282546129e2919061444a565b925050819055506001600360008473ffffffffffffffffffffffffffffffffffffffff1673ffffffffffffffffffffffffffffffffffffffff1681526020019081526020016000206000828254612a3991906144ad565b92505081905550816002600083815260200190815260200160002060006101000a81548173ffffffffffffffffffffffffffffffffffffffff021916908373ffffffffffffffffffffffffffffffffffffffff160217905550808273ffffffffffffffffffffffffffffffffffffffff168473ffffffffffffffffffffffffffffffffffffffff167fddf252ad1be2c89b69c2b068fc378daa952ba7f163c4a11628f55a4df523b3ef60405160405180910390a4612af8838383613489565b505050565b600073ffffffffffffffffffffffffffffffffffffffff168273ffffffffffffffffffffffffffffffffffffffff1603612b6c576040517f08c379a0000000000000000000000000000000000000000000000000000000008152600401612b6390614eef565b60405180910390fd5b612b758161268c565b15612bb5576040517f08c379a0000000000000000000000000000000000000000000000000000000008152600401612bac90614f5b565b60405180910390fd5b612bc160008383613484565b6001600360008473ffffffffffffffffffffffffffffffffffffffff1673ffffffffffffffffffffffffffffffffffffffff1681526020019081526020016000206000828254612c1191906144ad565b92505081905550816002600083815260200190815260200160002060006101000a81548173ffffffffffffffffffffffffffffffffffffffff021916908373ffffffffffffffffffffffffffffffffffffffff160217905550808273ffffffffffffffffffffffffffffffffffffffff16600073ffffffffffffffffffffffffffffffffffffffff167fddf252ad1be2c89b69c2b068fc378daa952ba7f163c4a11628f55a4df523b3ef60405160405180910390a4612cd260008383613489565b5050565b612cdf8261268c565b612d1e576040517f08c379a0000000000000000000000000000000000000000000000000000000008152600401612d1590614fed565b60405180910390fd5b80600660008481526020019081526020016000209081612d3e91906151af565b505050565b60008211612d86576040517f08c379a0000000000000000000000000000000000000000000000000000000008152600401612d7d906152cd565b60405180910390fd5b6009543414612dca576040517f08c379a0000000000000000000000000000000000000000000000000000000008152600401612dc190614ca4565b60405180910390fd5b6000600b5442612dda91906144ad565b90506040518060e001604052808581526020013373ffffffffffffffffffffffffffffffffffffffff1681526020013073ffffffffffffffffffffffffffffffffffffffff168152602001848152602001600015158152602001831515815260200182815250600e60008681526020019081526020016000206000820151816000015560208201518160010160006101000a81548173ffffffffffffffffffffffffffffffffffffffff021916908373ffffffffffffffffffffffffffffffffffffffff16021790555060408201518160020160006101000a81548173ffffffffffffffffffffffffffffffffffffffff021916908373ffffffffffffffffffffffffffffffffffffffff1602179055506060820151816003015560808201518160040160006101000a81548160ff02191690831515021790555060a08201518160040160016101000a81548160ff02191690831515021790555060c082015181600501559050506040518060c00160405280858152602001600073ffffffffffffffffffffffffffffffffffffffff16815260200184815260200182815260200160001515815260200184815250600d60008681526020019081526020016000206000820151816000015560208201518160010160006101000a81548173ffffffffffffffffffffffffffffffffffffffff021916908373ffffffffffffffffffffffffffffffffffffffff160217905550604082015181600201556060820151816003015560808201518160040160006101000a81548160ff02191690831515021790555060a0820151816005015590505061306d6040518060400160405280601c81526020017f41756374696f6e206372656174656420666f7220746f6b656e49643a0000000081525085613162565b6130c26040518060400160405280601181526020017f41756374696f6e20656e642074696d653a000000000000000000000000000000815250600d600087815260200190815260200160002060030154613162565b837f6ff530872708bbb51bad8ea341564e4ea039807ad1331f61ab4c906a66875daf33600d60008881526020019081526020016000206003015460405161310a929190614893565b60405180910390a261311d333086612897565b837fb640004f1d14576d0c209e240cad0410e0d8c0c33a09375861fbadae2588a98d333086600060405161315494939291906152ed565b60405180910390a250505050565b6131fa8282604051602401613178929190615332565b6040516020818303038152906040527fb60e72cc000000000000000000000000000000000000000000000000000000007bffffffffffffffffffffffffffffffffffffffffffffffffffffffff19166020820180517bffffffffffffffffffffffffffffffffffffffffffffffffffffffff838183161783525050505061348e565b5050565b8173ffffffffffffffffffffffffffffffffffffffff168373ffffffffffffffffffffffffffffffffffffffff160361326c576040517f08c379a0000000000000000000000000000000000000000000000000000000008152600401613263906153ae565b60405180910390fd5b80600560008573ffffffffffffffffffffffffffffffffffffffff1673ffffffffffffffffffffffffffffffffffffffff16815260200190815260200160002060008473ffffffffffffffffffffffffffffffffffffffff1673ffffffffffffffffffffffffffffffffffffffff16815260200190815260200160002060006101000a81548160ff0219169083151502179055508173ffffffffffffffffffffffffffffffffffffffff168373ffffffffffffffffffffffffffffffffffffffff167f17307eab39ab6107e8899845ad3d59bd9653f200f220920489ca2b5937696c318360405161335d9190613909565b60405180910390a3505050565b613375848484612897565b613381848484846134a8565b6133c0576040517f08c379a00000000000000000000000000000000000000000000000000000000081526004016133b790615440565b60405180910390fd5b50505050565b606060405180602001604052806000815250905090565b60606133e88261268c565b613427576040517f08c379a000000000000000000000000000000000000000000000000000000000815260040161341e906154d2565b60405180910390fd5b60006134316133c6565b90506000815111613451576040518060200160405280600081525061347c565b8061345b8461362f565b60405160200161346c929190614b7c565b6040516020818303038152906040525b915050919050565b505050565b505050565b6134a58161349d61378f6137b0565b63ffffffff16565b50565b60006134c98473ffffffffffffffffffffffffffffffffffffffff166137bb565b15613622578373ffffffffffffffffffffffffffffffffffffffff1663150b7a026134f26126f8565b8786866040518563ffffffff1660e01b81526004016135149493929190615547565b6020604051808303816000875af192505050801561355057506040513d601f19601f8201168201806040525081019061354d91906155a8565b60015b6135d2573d8060008114613580576040519150601f19603f3d011682016040523d82523d6000602084013e613585565b606091505b5060008151036135ca576040517f08c379a00000000000000000000000000000000000000000000000000000000081526004016135c190615440565b60405180910390fd5b805181602001fd5b63150b7a0260e01b7bffffffffffffffffffffffffffffffffffffffffffffffffffffffff1916817bffffffffffffffffffffffffffffffffffffffffffffffffffffffff191614915050613627565b600190505b949350505050565b606060008203613676576040518060400160405280600181526020017f3000000000000000000000000000000000000000000000000000000000000000815250905061378a565b600082905060005b600082146136a8578080613691906141ec565b915050600a826136a19190615604565b915061367e565b60008167ffffffffffffffff8111156136c4576136c3613d53565b5b6040519080825280601f01601f1916602001820160405280156136f65781602001600182028036833780820191505090505b5090505b600085146137835760018261370f919061444a565b9150600a8561371e9190615635565b603061372a91906144ad565b60f81b8183815181106137405761373f61447e565b5b60200101907effffffffffffffffffffffffffffffffffffffffffffffffffffffffffffff1916908160001a905350600a8561377c9190615604565b94506136fa565b8093505050505b919050565b60006a636f6e736f6c652e6c6f679050600080835160208501845afa505050565b61384b819050919050565b6000808273ffffffffffffffffffffffffffffffffffffffff163b119050919050565b6040518060e0016040528060008152602001600073ffffffffffffffffffffffffffffffffffffffff168152602001600073ffffffffffffffffffffffffffffffffffffffff16815260200160008152602001600015158152602001600015158152602001600081525090565b613853615666565b565b6000604051905090565b600080fd5b600080fd5b60007fffffffff0000000000000000000000000000000000000000000000000000000082169050919050565b61389e81613869565b81146138a957600080fd5b50565b6000813590506138bb81613895565b92915050565b6000602082840312156138d7576138d661385f565b5b60006138e5848285016138ac565b91505092915050565b60008115159050919050565b613903816138ee565b82525050565b600060208201905061391e60008301846138fa565b92915050565b600081519050919050565b600082825260208201905092915050565b60005b8381101561395e578082015181840152602081019050613943565b60008484015250505050565b6000601f19601f8301169050919050565b600061398682613924565b613990818561392f565b93506139a0818560208601613940565b6139a98161396a565b840191505092915050565b600060208201905081810360008301526139ce818461397b565b905092915050565b6000819050919050565b6139e9816139d6565b81146139f457600080fd5b50565b600081359050613a06816139e0565b92915050565b600060208284031215613a2257613a2161385f565b5b6000613a30848285016139f7565b91505092915050565b600073ffffffffffffffffffffffffffffffffffffffff82169050919050565b6000613a6482613a39565b9050919050565b613a7481613a59565b82525050565b6000602082019050613a8f6000830184613a6b565b92915050565b613a9e81613a59565b8114613aa957600080fd5b50565b600081359050613abb81613a95565b92915050565b60008060408385031215613ad857613ad761385f565b5b6000613ae685828601613aac565b9250506020613af7858286016139f7565b9150509250929050565b613b0a816139d6565b82525050565b6000602082019050613b256000830184613b01565b92915050565b600081519050919050565b600082825260208201905092915050565b6000819050602082019050919050565b613b60816139d6565b82525050565b6000613b7182613a39565b9050919050565b613b8181613b66565b82525050565b613b90816138ee565b82525050565b60e082016000820151613bac6000850182613b57565b506020820151613bbf6020850182613b78565b506040820151613bd26040850182613b78565b506060820151613be56060850182613b57565b506080820151613bf86080850182613b87565b5060a0820151613c0b60a0850182613b87565b5060c0820151613c1e60c0850182613b57565b50505050565b6000613c308383613b96565b60e08301905092915050565b6000602082019050919050565b6000613c5482613b2b565b613c5e8185613b36565b9350613c6983613b47565b8060005b83811015613c9a578151613c818882613c24565b9750613c8c83613c3c565b925050600181019050613c6d565b5085935050505092915050565b60006020820190508181036000830152613cc18184613c49565b905092915050565b600080600060608486031215613ce257613ce161385f565b5b6000613cf086828701613aac565b9350506020613d0186828701613aac565b9250506040613d12868287016139f7565b9150509250925092565b600060208284031215613d3257613d3161385f565b5b6000613d4084828501613aac565b91505092915050565b600080fd5b600080fd5b7f4e487b7100000000000000000000000000000000000000000000000000000000600052604160045260246000fd5b613d8b8261396a565b810181811067ffffffffffffffff82111715613daa57613da9613d53565b5b80604052505050565b6000613dbd613855565b9050613dc98282613d82565b919050565b600067ffffffffffffffff821115613de957613de8613d53565b5b613df28261396a565b9050602081019050919050565b82818337600083830152505050565b6000613e21613e1c84613dce565b613db3565b905082815260208101848484011115613e3d57613e3c613d4e565b5b613e48848285613dff565b509392505050565b600082601f830112613e6557613e64613d49565b5b8135613e75848260208601613e0e565b91505092915050565b60008060408385031215613e9557613e9461385f565b5b600083013567ffffffffffffffff811115613eb357613eb2613864565b5b613ebf85828601613e50565b9250506020613ed0858286016139f7565b9150509250929050565b613ee381613b66565b82525050565b6000602082019050613efe6000830184613eda565b92915050565b613f0d816138ee565b8114613f1857600080fd5b50565b600081359050613f2a81613f04565b92915050565b60008060408385031215613f4757613f4661385f565b5b6000613f5585828601613aac565b9250506020613f6685828601613f1b565b9150509250929050565b60e082016000820151613f866000850182613b57565b506020820151613f996020850182613b78565b506040820151613fac6040850182613b78565b506060820151613fbf6060850182613b57565b506080820151613fd26080850182613b87565b5060a0820151613fe560a0850182613b87565b5060c0820151613ff860c0850182613b57565b50505050565b600060e0820190506140136000830184613f70565b92915050565b600067ffffffffffffffff82111561403457614033613d53565b5b61403d8261396a565b9050602081019050919050565b600061405d61405884614019565b613db3565b90508281526020810184848401111561407957614078613d4e565b5b614084848285613dff565b509392505050565b600082601f8301126140a1576140a0613d49565b5b81356140b184826020860161404a565b91505092915050565b600080600080608085870312156140d4576140d361385f565b5b60006140e287828801613aac565b94505060206140f387828801613aac565b9350506040614104878288016139f7565b925050606085013567ffffffffffffffff81111561412557614124613864565b5b6141318782880161408c565b91505092959194509250565b600080604083850312156141545761415361385f565b5b6000614162858286016139f7565b9250506020614173858286016139f7565b9150509250929050565b600080604083850312156141945761419361385f565b5b60006141a285828601613aac565b92505060206141b385828601613aac565b9150509250929050565b7f4e487b7100000000000000000000000000000000000000000000000000000000600052601160045260246000fd5b60006141f7826139d6565b91507fffffffffffffffffffffffffffffffffffffffffffffffffffffffffffffffff8203614229576142286141bd565b5b600182019050919050565b7f4e487b7100000000000000000000000000000000000000000000000000000000600052602260045260246000fd5b6000600282049050600182168061427b57607f821691505b60208210810361428e5761428d614234565b5b50919050565b7f4552433732313a20617070726f76656420717565727920666f72206e6f6e657860008201527f697374656e7420746f6b656e0000000000000000000000000000000000000000602082015250565b60006142f0602c8361392f565b91506142fb82614294565b604082019050919050565b6000602082019050818103600083015261431f816142e3565b9050919050565b7f4552433732313a20617070726f76616c20746f2063757272656e74206f776e6560008201527f7200000000000000000000000000000000000000000000000000000000000000602082015250565b600061438260218361392f565b915061438d82614326565b604082019050919050565b600060208201905081810360008301526143b181614375565b9050919050565b7f4552433732313a20617070726f76652063616c6c6572206973206e6f74206f7760008201527f6e6572206e6f7220617070726f76656420666f7220616c6c0000000000000000602082015250565b600061441460388361392f565b915061441f826143b8565b604082019050919050565b6000602082019050818103600083015261444381614407565b9050919050565b6000614455826139d6565b9150614460836139d6565b9250828203905081811115614478576144776141bd565b5b92915050565b7f4e487b7100000000000000000000000000000000000000000000000000000000600052603260045260246000fd5b60006144b8826139d6565b91506144c3836139d6565b92508282019050808211156144db576144da6141bd565b5b92915050565b7f4552433732313a207472616e736665722063616c6c6572206973206e6f74206f60008201527f776e6572206e6f7220617070726f766564000000000000000000000000000000602082015250565b600061453d60318361392f565b9150614548826144e1565b604082019050919050565b6000602082019050818103600083015261456c81614530565b9050919050565b7f546f6f20736f6f6e20746f206175746f6d6174652061756374696f6e73000000600082015250565b60006145a9601d8361392f565b91506145b482614573565b602082019050919050565b600060208201905081810360008301526145d88161459c565b9050919050565b7f506c65617365207375626d6974207468652061736b696e67207072696365206960008201527f6e6f7264657220746f20636f6d706c6574652074686520707572636861736500602082015250565b600061463b603f8361392f565b9150614646826145df565b604082019050919050565b6000602082019050818103600083015261466a8161462e565b9050919050565b7f4552433732313a206f776e657220717565727920666f72206e6f6e657869737460008201527f656e7420746f6b656e0000000000000000000000000000000000000000000000602082015250565b60006146cd60298361392f565b91506146d882614671565b604082019050919050565b600060208201905081810360008301526146fc816146c0565b9050919050565b7f4552433732313a2062616c616e636520717565727920666f7220746865207a6560008201527f726f206164647265737300000000000000000000000000000000000000000000602082015250565b600061475f602a8361392f565b915061476a82614703565b604082019050919050565b6000602082019050818103600083015261478e81614752565b9050919050565b7f41756374696f6e2068617320656e646564000000000000000000000000000000600082015250565b60006147cb60118361392f565b91506147d682614795565b602082019050919050565b600060208201905081810360008301526147fa816147be565b9050919050565b7f426964206d75737420626520686967686572207468616e206f7220657175616c60008201527f20746f20746865206d696e696d756d2062696420707269636500000000000000602082015250565b600061485d60398361392f565b915061486882614801565b604082019050919050565b6000602082019050818103600083015261488c81614850565b9050919050565b60006040820190506148a86000830185613a6b565b6148b56020830184613b01565b9392505050565b7f4f6e6c79206d61726b6574706c616365206f776e65722063616e20757064617460008201527f65206c697374696e672070726963652e00000000000000000000000000000000602082015250565b600061491860308361392f565b9150614923826148bc565b604082019050919050565b600060208201905081810360008301526149478161490b565b9050919050565b7f41756374696f6e2068617320616c726561647920656e64656400000000000000600082015250565b600061498460198361392f565b915061498f8261494e565b602082019050919050565b600060208201905081810360008301526149b381614977565b9050919050565b7f41756374696f6e20686173206e6f7420656e6465642079657400000000000000600082015250565b60006149f060198361392f565b91506149fb826149ba565b602082019050919050565b60006020820190508181036000830152614a1f816149e3565b9050919050565b6000819050919050565b6000614a4b614a46614a4184613a39565b614a26565b613a39565b9050919050565b6000614a5d82614a30565b9050919050565b6000614a6f82614a52565b9050919050565b614a7f81614a64565b82525050565b6000604082019050614a9a6000830185614a76565b614aa76020830184613b01565b9392505050565b7f45524337323155524953746f726167653a2055524920717565727920666f722060008201527f6e6f6e6578697374656e7420746f6b656e000000000000000000000000000000602082015250565b6000614b0a60318361392f565b9150614b1582614aae565b604082019050919050565b60006020820190508181036000830152614b3981614afd565b9050919050565b600081905092915050565b6000614b5682613924565b614b608185614b40565b9350614b70818560208601613940565b80840191505092915050565b6000614b888285614b4b565b9150614b948284614b4b565b91508190509392505050565b7f4f6e6c79206974656d206f776e65722063616e20706572666f726d207468697360008201527f206f7065726174696f6e00000000000000000000000000000000000000000000602082015250565b6000614bfc602a8361392f565b9150614c0782614ba0565b604082019050919050565b60006020820190508181036000830152614c2b81614bef565b9050919050565b7f5072696365206d75737420626520657175616c20746f206c697374696e67207060008201527f7269636500000000000000000000000000000000000000000000000000000000602082015250565b6000614c8e60248361392f565b9150614c9982614c32565b604082019050919050565b60006020820190508181036000830152614cbd81614c81565b9050919050565b6000614ccf826139d6565b915060008203614ce257614ce16141bd565b5b600182039050919050565b7f4552433732313a206f70657261746f7220717565727920666f72206e6f6e657860008201527f697374656e7420746f6b656e0000000000000000000000000000000000000000602082015250565b6000614d49602c8361392f565b9150614d5482614ced565b604082019050919050565b60006020820190508181036000830152614d7881614d3c565b9050919050565b7f4552433732313a207472616e736665722066726f6d20696e636f72726563742060008201527f6f776e6572000000000000000000000000000000000000000000000000000000602082015250565b6000614ddb60258361392f565b9150614de682614d7f565b604082019050919050565b60006020820190508181036000830152614e0a81614dce565b9050919050565b7f4552433732313a207472616e7366657220746f20746865207a65726f2061646460008201527f7265737300000000000000000000000000000000000000000000000000000000602082015250565b6000614e6d60248361392f565b9150614e7882614e11565b604082019050919050565b60006020820190508181036000830152614e9c81614e60565b9050919050565b7f4552433732313a206d696e7420746f20746865207a65726f2061646472657373600082015250565b6000614ed960208361392f565b9150614ee482614ea3565b602082019050919050565b60006020820190508181036000830152614f0881614ecc565b9050919050565b7f4552433732313a20746f6b656e20616c7265616479206d696e74656400000000600082015250565b6000614f45601c8361392f565b9150614f5082614f0f565b602082019050919050565b60006020820190508181036000830152614f7481614f38565b9050919050565b7f45524337323155524953746f726167653a2055524920736574206f66206e6f6e60008201527f6578697374656e7420746f6b656e000000000000000000000000000000000000602082015250565b6000614fd7602e8361392f565b9150614fe282614f7b565b604082019050919050565b6000602082019050818103600083015261500681614fca565b9050919050565b60008190508160005260206000209050919050565b60006020601f8301049050919050565b600082821b905092915050565b60006008830261506f7fffffffffffffffffffffffffffffffffffffffffffffffffffffffffffffffff82615032565b6150798683615032565b95508019841693508086168417925050509392505050565b60006150ac6150a76150a2846139d6565b614a26565b6139d6565b9050919050565b6000819050919050565b6150c683615091565b6150da6150d2826150b3565b84845461503f565b825550505050565b600090565b6150ef6150e2565b6150fa8184846150bd565b505050565b5b8181101561511e576151136000826150e7565b600181019050615100565b5050565b601f821115615163576151348161500d565b61513d84615022565b8101602085101561514c578190505b61516061515885615022565b8301826150ff565b50505b505050565b600082821c905092915050565b600061518660001984600802615168565b1980831691505092915050565b600061519f8383615175565b9150826002028217905092915050565b6151b882613924565b67ffffffffffffffff8111156151d1576151d0613d53565b5b6151db8254614263565b6151e6828285615122565b600060209050601f8311600181146152195760008415615207578287015190505b6152118582615193565b865550615279565b601f1984166152278661500d565b60005b8281101561524f5784890151825560018201915060208501945060208101905061522a565b8683101561526c5784890151615268601f891682615175565b8355505b6001600288020188555050505b505050505050565b7f5072696365206d757374206265206174206c6561737420312077656900000000600082015250565b60006152b7601c8361392f565b91506152c282615281565b602082019050919050565b600060208201905081810360008301526152e6816152aa565b9050919050565b60006080820190506153026000830187613a6b565b61530f6020830186613a6b565b61531c6040830185613b01565b61532960608301846138fa565b95945050505050565b6000604082019050818103600083015261534c818561397b565b905061535b6020830184613b01565b9392505050565b7f4552433732313a20617070726f766520746f2063616c6c657200000000000000600082015250565b600061539860198361392f565b91506153a382615362565b602082019050919050565b600060208201905081810360008301526153c78161538b565b9050919050565b7f4552433732313a207472616e7366657220746f206e6f6e20455243373231526560008201527f63656976657220696d706c656d656e7465720000000000000000000000000000602082015250565b600061542a60328361392f565b9150615435826153ce565b604082019050919050565b600060208201905081810360008301526154598161541d565b9050919050565b7f4552433732314d657461646174613a2055524920717565727920666f72206e6f60008201527f6e6578697374656e7420746f6b656e0000000000000000000000000000000000602082015250565b60006154bc602f8361392f565b91506154c782615460565b604082019050919050565b600060208201905081810360008301526154eb816154af565b9050919050565b600081519050919050565b600082825260208201905092915050565b6000615519826154f2565b61552381856154fd565b9350615533818560208601613940565b61553c8161396a565b840191505092915050565b600060808201905061555c6000830187613a6b565b6155696020830186613a6b565b6155766040830185613b01565b8181036060830152615588818461550e565b905095945050505050565b6000815190506155a281613895565b92915050565b6000602082840312156155be576155bd61385f565b5b60006155cc84828501615593565b91505092915050565b7f4e487b7100000000000000000000000000000000000000000000000000000000600052601260045260246000fd5b600061560f826139d6565b915061561a836139d6565b92508261562a576156296155d5565b5b828204905092915050565b6000615640826139d6565b915061564b836139d6565b92508261565b5761565a6155d5565b5b828206905092915050565b7f4e487b7100000000000000000000000000000000000000000000000000000000600052605160045260246000fdfea264697066735822122090c2cf1f385c55003c6e404661f219238031aded4e94f0701d154f476123d28a64736f6c63430008140033",
  "linkReferences": {},
  "deployedLinkReferences": {}
}