{
  "_format": "hh-sol-artifact-1",
  "contractName": "NFTMarketplace",
  "sourceName": "contracts/NFTMarketplace.sol",
  "abi": [
    {
      "inputs": [],
      "stateMutability": "nonpayable",
      "type": "constructor"
    },
    {
      "anonymous": false,
      "inputs": [
        {
          "indexed": true,
          "internalType": "address",
          "name": "owner",
          "type": "address"
        },
        {
          "indexed": true,
          "internalType": "address",
          "name": "approved",
          "type": "address"
        },
        {
          "indexed": true,
          "internalType": "uint256",
          "name": "tokenId",
          "type": "uint256"
        }
      ],
      "name": "Approval",
      "type": "event"
    },
    {
      "anonymous": false,
      "inputs": [
        {
          "indexed": true,
          "internalType": "address",
          "name": "owner",
          "type": "address"
        },
        {
          "indexed": true,
          "internalType": "address",
          "name": "operator",
          "type": "address"
        },
        {
          "indexed": false,
          "internalType": "bool",
          "name": "approved",
          "type": "bool"
        }
      ],
      "name": "ApprovalForAll",
      "type": "event"
    },
    {
      "anonymous": false,
      "inputs": [
        {
          "indexed": true,
          "internalType": "uint256",
          "name": "tokenId",
          "type": "uint256"
        },
        {
          "indexed": false,
          "internalType": "address",
          "name": "seller",
          "type": "address"
        },
        {
          "indexed": false,
          "internalType": "address",
          "name": "owner",
          "type": "address"
        },
        {
          "indexed": false,
          "internalType": "uint256",
          "name": "price",
          "type": "uint256"
        },
        {
          "indexed": false,
          "internalType": "bool",
          "name": "sold",
          "type": "bool"
        }
      ],
      "name": "MarketItemCreated",
      "type": "event"
    },
    {
      "anonymous": false,
      "inputs": [
        {
          "indexed": true,
          "internalType": "address",
          "name": "from",
          "type": "address"
        },
        {
          "indexed": true,
          "internalType": "address",
          "name": "to",
          "type": "address"
        },
        {
          "indexed": true,
          "internalType": "uint256",
          "name": "tokenId",
          "type": "uint256"
        }
      ],
      "name": "Transfer",
      "type": "event"
    },
    {
      "inputs": [
        {
          "internalType": "address",
          "name": "to",
          "type": "address"
        },
        {
          "internalType": "uint256",
          "name": "tokenId",
          "type": "uint256"
        }
      ],
      "name": "approve",
      "outputs": [],
      "stateMutability": "nonpayable",
      "type": "function"
    },
    {
      "inputs": [
        {
          "internalType": "address",
          "name": "owner",
          "type": "address"
        }
      ],
      "name": "balanceOf",
      "outputs": [
        {
          "internalType": "uint256",
          "name": "",
          "type": "uint256"
        }
      ],
      "stateMutability": "view",
      "type": "function"
    },
    {
      "inputs": [
        {
          "internalType": "uint256",
          "name": "tokenId",
          "type": "uint256"
        }
      ],
      "name": "createMarketSale",
      "outputs": [],
      "stateMutability": "payable",
      "type": "function"
    },
    {
      "inputs": [
        {
          "internalType": "string",
          "name": "tokenURI",
          "type": "string"
        },
        {
          "internalType": "uint256",
          "name": "price",
          "type": "uint256"
        }
      ],
      "name": "createToken",
      "outputs": [
        {
          "internalType": "uint256",
          "name": "",
          "type": "uint256"
        }
      ],
      "stateMutability": "payable",
      "type": "function"
    },
    {
      "inputs": [],
      "name": "fetchItemsListed",
      "outputs": [
        {
          "components": [
            {
              "internalType": "uint256",
              "name": "tokenId",
              "type": "uint256"
            },
            {
              "internalType": "address payable",
              "name": "seller",
              "type": "address"
            },
            {
              "internalType": "address payable",
              "name": "owner",
              "type": "address"
            },
            {
              "internalType": "uint256",
              "name": "price",
              "type": "uint256"
            },
            {
              "internalType": "bool",
              "name": "sold",
              "type": "bool"
            }
          ],
          "internalType": "struct NFTMarketplace.MarketItem[]",
          "name": "",
          "type": "tuple[]"
        }
      ],
      "stateMutability": "view",
      "type": "function"
    },
    {
      "inputs": [],
      "name": "fetchMarketItems",
      "outputs": [
        {
          "components": [
            {
              "internalType": "uint256",
              "name": "tokenId",
              "type": "uint256"
            },
            {
              "internalType": "address payable",
              "name": "seller",
              "type": "address"
            },
            {
              "internalType": "address payable",
              "name": "owner",
              "type": "address"
            },
            {
              "internalType": "uint256",
              "name": "price",
              "type": "uint256"
            },
            {
              "internalType": "bool",
              "name": "sold",
              "type": "bool"
            }
          ],
          "internalType": "struct NFTMarketplace.MarketItem[]",
          "name": "",
          "type": "tuple[]"
        }
      ],
      "stateMutability": "view",
      "type": "function"
    },
    {
      "inputs": [],
      "name": "fetchMyNFTs",
      "outputs": [
        {
          "components": [
            {
              "internalType": "uint256",
              "name": "tokenId",
              "type": "uint256"
            },
            {
              "internalType": "address payable",
              "name": "seller",
              "type": "address"
            },
            {
              "internalType": "address payable",
              "name": "owner",
              "type": "address"
            },
            {
              "internalType": "uint256",
              "name": "price",
              "type": "uint256"
            },
            {
              "internalType": "bool",
              "name": "sold",
              "type": "bool"
            }
          ],
          "internalType": "struct NFTMarketplace.MarketItem[]",
          "name": "",
          "type": "tuple[]"
        }
      ],
      "stateMutability": "view",
      "type": "function"
    },
    {
      "inputs": [
        {
          "internalType": "uint256",
          "name": "tokenId",
          "type": "uint256"
        }
      ],
      "name": "getApproved",
      "outputs": [
        {
          "internalType": "address",
          "name": "",
          "type": "address"
        }
      ],
      "stateMutability": "view",
      "type": "function"
    },
    {
      "inputs": [],
      "name": "getListingPrice",
      "outputs": [
        {
          "internalType": "uint256",
          "name": "",
          "type": "uint256"
        }
      ],
      "stateMutability": "view",
      "type": "function"
    },
    {
      "inputs": [
        {
          "internalType": "address",
          "name": "owner",
          "type": "address"
        },
        {
          "internalType": "address",
          "name": "operator",
          "type": "address"
        }
      ],
      "name": "isApprovedForAll",
      "outputs": [
        {
          "internalType": "bool",
          "name": "",
          "type": "bool"
        }
      ],
      "stateMutability": "view",
      "type": "function"
    },
    {
      "inputs": [],
      "name": "listingPrice",
      "outputs": [
        {
          "internalType": "uint256",
          "name": "",
          "type": "uint256"
        }
      ],
      "stateMutability": "view",
      "type": "function"
    },
    {
      "inputs": [],
      "name": "name",
      "outputs": [
        {
          "internalType": "string",
          "name": "",
          "type": "string"
        }
      ],
      "stateMutability": "view",
      "type": "function"
    },
    {
      "inputs": [],
      "name": "owner",
      "outputs": [
        {
          "internalType": "address payable",
          "name": "",
          "type": "address"
        }
      ],
      "stateMutability": "view",
      "type": "function"
    },
    {
      "inputs": [
        {
          "internalType": "uint256",
          "name": "tokenId",
          "type": "uint256"
        }
      ],
      "name": "ownerOf",
      "outputs": [
        {
          "internalType": "address",
          "name": "",
          "type": "address"
        }
      ],
      "stateMutability": "view",
      "type": "function"
    },
    {
      "inputs": [
        {
          "internalType": "uint256",
          "name": "tokenId",
          "type": "uint256"
        },
        {
          "internalType": "uint256",
          "name": "price",
          "type": "uint256"
        }
      ],
      "name": "resellToken",
      "outputs": [],
      "stateMutability": "payable",
      "type": "function"
    },
    {
      "inputs": [
        {
          "internalType": "address",
          "name": "from",
          "type": "address"
        },
        {
          "internalType": "address",
          "name": "to",
          "type": "address"
        },
        {
          "internalType": "uint256",
          "name": "tokenId",
          "type": "uint256"
        }
      ],
      "name": "safeTransferFrom",
      "outputs": [],
      "stateMutability": "nonpayable",
      "type": "function"
    },
    {
      "inputs": [
        {
          "internalType": "address",
          "name": "from",
          "type": "address"
        },
        {
          "internalType": "address",
          "name": "to",
          "type": "address"
        },
        {
          "internalType": "uint256",
          "name": "tokenId",
          "type": "uint256"
        },
        {
          "internalType": "bytes",
          "name": "_data",
          "type": "bytes"
        }
      ],
      "name": "safeTransferFrom",
      "outputs": [],
      "stateMutability": "nonpayable",
      "type": "function"
    },
    {
      "inputs": [
        {
          "internalType": "address",
          "name": "operator",
          "type": "address"
        },
        {
          "internalType": "bool",
          "name": "approved",
          "type": "bool"
        }
      ],
      "name": "setApprovalForAll",
      "outputs": [],
      "stateMutability": "nonpayable",
      "type": "function"
    },
    {
      "inputs": [
        {
          "internalType": "bytes4",
          "name": "interfaceId",
          "type": "bytes4"
        }
      ],
      "name": "supportsInterface",
      "outputs": [
        {
          "internalType": "bool",
          "name": "",
          "type": "bool"
        }
      ],
      "stateMutability": "view",
      "type": "function"
    },
    {
      "inputs": [],
      "name": "symbol",
      "outputs": [
        {
          "internalType": "string",
          "name": "",
          "type": "string"
        }
      ],
      "stateMutability": "view",
      "type": "function"
    },
    {
      "inputs": [
        {
          "internalType": "uint256",
          "name": "tokenId",
          "type": "uint256"
        }
      ],
      "name": "tokenURI",
      "outputs": [
        {
          "internalType": "string",
          "name": "",
          "type": "string"
        }
      ],
      "stateMutability": "view",
      "type": "function"
    },
    {
      "inputs": [
        {
          "internalType": "address",
          "name": "from",
          "type": "address"
        },
        {
          "internalType": "address",
          "name": "to",
          "type": "address"
        },
        {
          "internalType": "uint256",
          "name": "tokenId",
          "type": "uint256"
        }
      ],
      "name": "transferFrom",
      "outputs": [],
      "stateMutability": "nonpayable",
      "type": "function"
    },
    {
      "inputs": [
        {
          "internalType": "uint256",
          "name": "_listingPrice",
          "type": "uint256"
        }
      ],
      "name": "updateListingPrice",
      "outputs": [],
      "stateMutability": "payable",
      "type": "function"
    }
  ],
  "bytecode": "0x60806040526658d15e176280006009553480156200001c57600080fd5b506040518060400160405280601081526020017f4d657461766572736520546f6b656e73000000000000000000000000000000008152506040518060400160405280600481526020017f4d4554540000000000000000000000000000000000000000000000000000000081525081600090816200009a919062000370565b508060019081620000ac919062000370565b50505033600a60006101000a81548173ffffffffffffffffffffffffffffffffffffffff021916908373ffffffffffffffffffffffffffffffffffffffff16021790555062000457565b600081519050919050565b7f4e487b7100000000000000000000000000000000000000000000000000000000600052604160045260246000fd5b7f4e487b7100000000000000000000000000000000000000000000000000000000600052602260045260246000fd5b600060028204905060018216806200017857607f821691505b6020821081036200018e576200018d62000130565b5b50919050565b60008190508160005260206000209050919050565b60006020601f8301049050919050565b600082821b905092915050565b600060088302620001f87fffffffffffffffffffffffffffffffffffffffffffffffffffffffffffffffff82620001b9565b620002048683620001b9565b95508019841693508086168417925050509392505050565b6000819050919050565b6000819050919050565b6000620002516200024b62000245846200021c565b62000226565b6200021c565b9050919050565b6000819050919050565b6200026d8362000230565b620002856200027c8262000258565b848454620001c6565b825550505050565b600090565b6200029c6200028d565b620002a981848462000262565b505050565b5b81811015620002d157620002c560008262000292565b600181019050620002af565b5050565b601f8211156200032057620002ea8162000194565b620002f584620001a9565b8101602085101562000305578190505b6200031d6200031485620001a9565b830182620002ae565b50505b505050565b600082821c905092915050565b6000620003456000198460080262000325565b1980831691505092915050565b600062000360838362000332565b9150826002028217905092915050565b6200037b82620000f6565b67ffffffffffffffff81111562000397576200039662000101565b5b620003a382546200015f565b620003b0828285620002d5565b600060209050601f831160018114620003e85760008415620003d3578287015190505b620003df858262000352565b8655506200044f565b601f198416620003f88662000194565b60005b828110156200042257848901518255600182019150602085019450602081019050620003fb565b868310156200044257848901516200043e601f89168262000332565b8355505b6001600288020188555050505b505050505050565b6143eb80620004676000396000f3fe6080604052600436106101405760003560e01c806370a08231116100b6578063b88d4fde1161006f578063b88d4fde14610456578063be9af5361461047f578063c78f19f91461049b578063c87b56dd146104c6578063e219fc7514610503578063e985e9c51461051f57610140565b806370a082311461034e57806372b3b6201461038b5780638da5cb5b146103bb57806395d89b41146103e6578063a22cb46514610411578063ae677aa31461043a57610140565b806312e855851161010857806312e855851461023e578063202e37401461026957806323b872dd1461029457806342842e0e146102bd57806345f8fa80146102e65780636352211e1461031157610140565b806301ffc9a71461014557806306fdde0314610182578063081812fc146101ad578063095ea7b3146101ea5780630f08efe014610213575b600080fd5b34801561015157600080fd5b5061016c600480360381019061016791906129f8565b61055c565b6040516101799190612a40565b60405180910390f35b34801561018e57600080fd5b5061019761063e565b6040516101a49190612aeb565b60405180910390f35b3480156101b957600080fd5b506101d460048036038101906101cf9190612b43565b6106d0565b6040516101e19190612bb1565b60405180910390f35b3480156101f657600080fd5b50610211600480360381019061020c9190612bf8565b610755565b005b34801561021f57600080fd5b5061022861086c565b6040516102359190612d8e565b60405180910390f35b34801561024a57600080fd5b50610253610aaa565b6040516102609190612dbf565b60405180910390f35b34801561027557600080fd5b5061027e610ab4565b60405161028b9190612d8e565b60405180910390f35b3480156102a057600080fd5b506102bb60048036038101906102b69190612dda565b610d7b565b005b3480156102c957600080fd5b506102e460048036038101906102df9190612dda565b610ddb565b005b3480156102f257600080fd5b506102fb610dfb565b6040516103089190612d8e565b60405180910390f35b34801561031d57600080fd5b5061033860048036038101906103339190612b43565b6110c2565b6040516103459190612bb1565b60405180910390f35b34801561035a57600080fd5b5061037560048036038101906103709190612e2d565b611173565b6040516103829190612dbf565b60405180910390f35b6103a560048036038101906103a09190612f8f565b61122a565b6040516103b29190612dbf565b60405180910390f35b3480156103c757600080fd5b506103d0611273565b6040516103dd9190612ffa565b60405180910390f35b3480156103f257600080fd5b506103fb611299565b6040516104089190612aeb565b60405180910390f35b34801561041d57600080fd5b5061043860048036038101906104339190613041565b61132b565b005b610454600480360381019061044f9190612b43565b611341565b005b34801561046257600080fd5b5061047d60048036038101906104789190613122565b6113db565b005b61049960048036038101906104949190612b43565b61143d565b005b3480156104a757600080fd5b506104b0611683565b6040516104bd9190612dbf565b60405180910390f35b3480156104d257600080fd5b506104ed60048036038101906104e89190612b43565b611689565b6040516104fa9190612aeb565b60405180910390f35b61051d600480360381019061051891906131a5565b6117da565b005b34801561052b57600080fd5b50610546600480360381019061054191906131e5565b6119dd565b6040516105539190612a40565b60405180910390f35b60007f80ac58cd000000000000000000000000000000000000000000000000000000007bffffffffffffffffffffffffffffffffffffffffffffffffffffffff1916827bffffffffffffffffffffffffffffffffffffffffffffffffffffffff1916148061062757507f5b5e139f000000000000000000000000000000000000000000000000000000007bffffffffffffffffffffffffffffffffffffffffffffffffffffffff1916827bffffffffffffffffffffffffffffffffffffffffffffffffffffffff1916145b80610637575061063682611a71565b5b9050919050565b60606000805461064d90613254565b80601f016020809104026020016040519081016040528092919081815260200182805461067990613254565b80156106c65780601f1061069b576101008083540402835291602001916106c6565b820191906000526020600020905b8154815290600101906020018083116106a957829003601f168201915b5050505050905090565b60006106db82611adb565b61071a576040517f08c379a0000000000000000000000000000000000000000000000000000000008152600401610711906132f7565b60405180910390fd5b6004600083815260200190815260200160002060009054906101000a900473ffffffffffffffffffffffffffffffffffffffff169050919050565b6000610760826110c2565b90508073ffffffffffffffffffffffffffffffffffffffff168373ffffffffffffffffffffffffffffffffffffffff16036107d0576040517f08c379a00000000000000000000000000000000000000000000000000000000081526004016107c790613389565b60405180910390fd5b8073ffffffffffffffffffffffffffffffffffffffff166107ef611b47565b73ffffffffffffffffffffffffffffffffffffffff16148061081e575061081d81610818611b47565b6119dd565b5b61085d576040517f08c379a00000000000000000000000000000000000000000000000000000000081526004016108549061341b565b60405180910390fd5b6108678383611b4f565b505050565b6060600060075490506000600854600754610887919061346a565b90506000808267ffffffffffffffff8111156108a6576108a5612e64565b5b6040519080825280602002602001820160405280156108df57816020015b6108cc61292f565b8152602001906001900390816108c45790505b5090506000600190505b848111610a9f573073ffffffffffffffffffffffffffffffffffffffff16600b600083815260200190815260200160002060020160009054906101000a900473ffffffffffffffffffffffffffffffffffffffff1673ffffffffffffffffffffffffffffffffffffffff1603610a8c5760008190506000600b60008381526020019081526020016000209050806040518060a0016040529081600082015481526020016001820160009054906101000a900473ffffffffffffffffffffffffffffffffffffffff1673ffffffffffffffffffffffffffffffffffffffff1673ffffffffffffffffffffffffffffffffffffffff1681526020016002820160009054906101000a900473ffffffffffffffffffffffffffffffffffffffff1673ffffffffffffffffffffffffffffffffffffffff1673ffffffffffffffffffffffffffffffffffffffff168152602001600382015481526020016004820160009054906101000a900460ff161515151581525050848681518110610a6f57610a6e61349e565b5b6020026020010181905250600185610a8791906134cd565b945050505b8080610a9790613501565b9150506108e9565b508094505050505090565b6000600954905090565b6060600060075490506000806000600190505b838111610b5a573373ffffffffffffffffffffffffffffffffffffffff16600b600083815260200190815260200160002060020160009054906101000a900473ffffffffffffffffffffffffffffffffffffffff1673ffffffffffffffffffffffffffffffffffffffff1603610b4757600183610b4491906134cd565b92505b8080610b5290613501565b915050610ac7565b5060008267ffffffffffffffff811115610b7757610b76612e64565b5b604051908082528060200260200182016040528015610bb057816020015b610b9d61292f565b815260200190600190039081610b955790505b5090506000600190505b848111610d70573373ffffffffffffffffffffffffffffffffffffffff16600b600083815260200190815260200160002060020160009054906101000a900473ffffffffffffffffffffffffffffffffffffffff1673ffffffffffffffffffffffffffffffffffffffff1603610d5d5760008190506000600b60008381526020019081526020016000209050806040518060a0016040529081600082015481526020016001820160009054906101000a900473ffffffffffffffffffffffffffffffffffffffff1673ffffffffffffffffffffffffffffffffffffffff1673ffffffffffffffffffffffffffffffffffffffff1681526020016002820160009054906101000a900473ffffffffffffffffffffffffffffffffffffffff1673ffffffffffffffffffffffffffffffffffffffff1673ffffffffffffffffffffffffffffffffffffffff168152602001600382015481526020016004820160009054906101000a900460ff161515151581525050848681518110610d4057610d3f61349e565b5b6020026020010181905250600185610d5891906134cd565b945050505b8080610d6890613501565b915050610bba565b508094505050505090565b610d8c610d86611b47565b82611c08565b610dcb576040517f08c379a0000000000000000000000000000000000000000000000000000000008152600401610dc2906135bb565b60405180910390fd5b610dd6838383611ce6565b505050565b610df6838383604051806020016040528060008152506113db565b505050565b6060600060075490506000806000600190505b838111610ea1573373ffffffffffffffffffffffffffffffffffffffff16600b600083815260200190815260200160002060010160009054906101000a900473ffffffffffffffffffffffffffffffffffffffff1673ffffffffffffffffffffffffffffffffffffffff1603610e8e57600183610e8b91906134cd565b92505b8080610e9990613501565b915050610e0e565b5060008267ffffffffffffffff811115610ebe57610ebd612e64565b5b604051908082528060200260200182016040528015610ef757816020015b610ee461292f565b815260200190600190039081610edc5790505b5090506000600190505b8481116110b7573373ffffffffffffffffffffffffffffffffffffffff16600b600083815260200190815260200160002060010160009054906101000a900473ffffffffffffffffffffffffffffffffffffffff1673ffffffffffffffffffffffffffffffffffffffff16036110a45760008190506000600b60008381526020019081526020016000209050806040518060a0016040529081600082015481526020016001820160009054906101000a900473ffffffffffffffffffffffffffffffffffffffff1673ffffffffffffffffffffffffffffffffffffffff1673ffffffffffffffffffffffffffffffffffffffff1681526020016002820160009054906101000a900473ffffffffffffffffffffffffffffffffffffffff1673ffffffffffffffffffffffffffffffffffffffff1673ffffffffffffffffffffffffffffffffffffffff168152602001600382015481526020016004820160009054906101000a900460ff1615151515815250508486815181106110875761108661349e565b5b602002602001018190525060018561109f91906134cd565b945050505b80806110af90613501565b915050610f01565b508094505050505090565b6000806002600084815260200190815260200160002060009054906101000a900473ffffffffffffffffffffffffffffffffffffffff169050600073ffffffffffffffffffffffffffffffffffffffff168173ffffffffffffffffffffffffffffffffffffffff160361116a576040517f08c379a00000000000000000000000000000000000000000000000000000000081526004016111619061364d565b60405180910390fd5b80915050919050565b60008073ffffffffffffffffffffffffffffffffffffffff168273ffffffffffffffffffffffffffffffffffffffff16036111e3576040517f08c379a00000000000000000000000000000000000000000000000000000000081526004016111da906136df565b60405180910390fd5b600360008373ffffffffffffffffffffffffffffffffffffffff1673ffffffffffffffffffffffffffffffffffffffff168152602001908152602001600020549050919050565b60006007600081548092919061123f90613501565b9190505550600060075490506112553382611f4c565b61125f8185612125565b6112698184612192565b8091505092915050565b600a60009054906101000a900473ffffffffffffffffffffffffffffffffffffffff1681565b6060600180546112a890613254565b80601f01602080910402602001604051908101604052809291908181526020018280546112d490613254565b80156113215780601f106112f657610100808354040283529160200191611321565b820191906000526020600020905b81548152906001019060200180831161130457829003601f168201915b5050505050905090565b61133d611336611b47565b8383612395565b5050565b3373ffffffffffffffffffffffffffffffffffffffff16600a60009054906101000a900473ffffffffffffffffffffffffffffffffffffffff1673ffffffffffffffffffffffffffffffffffffffff16146113d1576040517f08c379a00000000000000000000000000000000000000000000000000000000081526004016113c890613771565b60405180910390fd5b8060098190555050565b6113ec6113e6611b47565b83611c08565b61142b576040517f08c379a0000000000000000000000000000000000000000000000000000000008152600401611422906135bb565b60405180910390fd5b61143784848484612501565b50505050565b6000600b600083815260200190815260200160002060030154905080341461149a576040517f08c379a000000000000000000000000000000000000000000000000000000000815260040161149190613803565b60405180910390fd5b33600b600084815260200190815260200160002060020160006101000a81548173ffffffffffffffffffffffffffffffffffffffff021916908373ffffffffffffffffffffffffffffffffffffffff1602179055506001600b600084815260200190815260200160002060040160006101000a81548160ff0219169083151502179055506000600b600084815260200190815260200160002060010160006101000a81548173ffffffffffffffffffffffffffffffffffffffff021916908373ffffffffffffffffffffffffffffffffffffffff1602179055506008600081548092919061158790613501565b9190505550611597303384611ce6565b600a60009054906101000a900473ffffffffffffffffffffffffffffffffffffffff1673ffffffffffffffffffffffffffffffffffffffff166108fc6009549081150290604051600060405180830381858888f19350505050158015611601573d6000803e3d6000fd5b50600b600083815260200190815260200160002060010160009054906101000a900473ffffffffffffffffffffffffffffffffffffffff1673ffffffffffffffffffffffffffffffffffffffff166108fc349081150290604051600060405180830381858888f1935050505015801561167e573d6000803e3d6000fd5b505050565b60095481565b606061169482611adb565b6116d3576040517f08c379a00000000000000000000000000000000000000000000000000000000081526004016116ca90613895565b60405180910390fd5b60006006600084815260200190815260200160002080546116f390613254565b80601f016020809104026020016040519081016040528092919081815260200182805461171f90613254565b801561176c5780601f106117415761010080835404028352916020019161176c565b820191906000526020600020905b81548152906001019060200180831161174f57829003601f168201915b50505050509050600061177d61255d565b905060008151036117925781925050506117d5565b6000825111156117c75780826040516020016117af9291906138f1565b604051602081830303815290604052925050506117d5565b6117d084612574565b925050505b919050565b3373ffffffffffffffffffffffffffffffffffffffff16600b600084815260200190815260200160002060020160009054906101000a900473ffffffffffffffffffffffffffffffffffffffff1673ffffffffffffffffffffffffffffffffffffffff161461187e576040517f08c379a000000000000000000000000000000000000000000000000000000000815260040161187590613987565b60405180910390fd5b60095434146118c2576040517f08c379a00000000000000000000000000000000000000000000000000000000081526004016118b990613a19565b60405180910390fd5b6000600b600084815260200190815260200160002060040160006101000a81548160ff02191690831515021790555080600b60008481526020019081526020016000206003018190555033600b600084815260200190815260200160002060010160006101000a81548173ffffffffffffffffffffffffffffffffffffffff021916908373ffffffffffffffffffffffffffffffffffffffff16021790555030600b600084815260200190815260200160002060020160006101000a81548173ffffffffffffffffffffffffffffffffffffffff021916908373ffffffffffffffffffffffffffffffffffffffff160217905550600860008154809291906119c990613a39565b91905055506119d9333084611ce6565b5050565b6000600560008473ffffffffffffffffffffffffffffffffffffffff1673ffffffffffffffffffffffffffffffffffffffff16815260200190815260200160002060008373ffffffffffffffffffffffffffffffffffffffff1673ffffffffffffffffffffffffffffffffffffffff16815260200190815260200160002060009054906101000a900460ff16905092915050565b60007f01ffc9a7000000000000000000000000000000000000000000000000000000007bffffffffffffffffffffffffffffffffffffffffffffffffffffffff1916827bffffffffffffffffffffffffffffffffffffffffffffffffffffffff1916149050919050565b60008073ffffffffffffffffffffffffffffffffffffffff166002600084815260200190815260200160002060009054906101000a900473ffffffffffffffffffffffffffffffffffffffff1673ffffffffffffffffffffffffffffffffffffffff1614159050919050565b600033905090565b816004600083815260200190815260200160002060006101000a81548173ffffffffffffffffffffffffffffffffffffffff021916908373ffffffffffffffffffffffffffffffffffffffff160217905550808273ffffffffffffffffffffffffffffffffffffffff16611bc2836110c2565b73ffffffffffffffffffffffffffffffffffffffff167f8c5be1e5ebec7d5bd14f71427d1e84f3dd0314c0f7b2291e5b200ac8c7c3b92560405160405180910390a45050565b6000611c1382611adb565b611c52576040517f08c379a0000000000000000000000000000000000000000000000000000000008152600401611c4990613ad4565b60405180910390fd5b6000611c5d836110c2565b90508073ffffffffffffffffffffffffffffffffffffffff168473ffffffffffffffffffffffffffffffffffffffff161480611ccc57508373ffffffffffffffffffffffffffffffffffffffff16611cb4846106d0565b73ffffffffffffffffffffffffffffffffffffffff16145b80611cdd5750611cdc81856119dd565b5b91505092915050565b8273ffffffffffffffffffffffffffffffffffffffff16611d06826110c2565b73ffffffffffffffffffffffffffffffffffffffff1614611d5c576040517f08c379a0000000000000000000000000000000000000000000000000000000008152600401611d5390613b66565b60405180910390fd5b600073ffffffffffffffffffffffffffffffffffffffff168273ffffffffffffffffffffffffffffffffffffffff1603611dcb576040517f08c379a0000000000000000000000000000000000000000000000000000000008152600401611dc290613bf8565b60405180910390fd5b611dd683838361261b565b611de1600082611b4f565b6001600360008573ffffffffffffffffffffffffffffffffffffffff1673ffffffffffffffffffffffffffffffffffffffff1681526020019081526020016000206000828254611e31919061346a565b925050819055506001600360008473ffffffffffffffffffffffffffffffffffffffff1673ffffffffffffffffffffffffffffffffffffffff1681526020019081526020016000206000828254611e8891906134cd565b92505081905550816002600083815260200190815260200160002060006101000a81548173ffffffffffffffffffffffffffffffffffffffff021916908373ffffffffffffffffffffffffffffffffffffffff160217905550808273ffffffffffffffffffffffffffffffffffffffff168473ffffffffffffffffffffffffffffffffffffffff167fddf252ad1be2c89b69c2b068fc378daa952ba7f163c4a11628f55a4df523b3ef60405160405180910390a4611f47838383612620565b505050565b600073ffffffffffffffffffffffffffffffffffffffff168273ffffffffffffffffffffffffffffffffffffffff1603611fbb576040517f08c379a0000000000000000000000000000000000000000000000000000000008152600401611fb290613c64565b60405180910390fd5b611fc481611adb565b15612004576040517f08c379a0000000000000000000000000000000000000000000000000000000008152600401611ffb90613cd0565b60405180910390fd5b6120106000838361261b565b6001600360008473ffffffffffffffffffffffffffffffffffffffff1673ffffffffffffffffffffffffffffffffffffffff168152602001908152602001600020600082825461206091906134cd565b92505081905550816002600083815260200190815260200160002060006101000a81548173ffffffffffffffffffffffffffffffffffffffff021916908373ffffffffffffffffffffffffffffffffffffffff160217905550808273ffffffffffffffffffffffffffffffffffffffff16600073ffffffffffffffffffffffffffffffffffffffff167fddf252ad1be2c89b69c2b068fc378daa952ba7f163c4a11628f55a4df523b3ef60405160405180910390a461212160008383612620565b5050565b61212e82611adb565b61216d576040517f08c379a000000000000000000000000000000000000000000000000000000000815260040161216490613d62565b60405180910390fd5b8060066000848152602001908152602001600020908161218d9190613f2e565b505050565b600081116121d5576040517f08c379a00000000000000000000000000000000000000000000000000000000081526004016121cc9061404c565b60405180910390fd5b6009543414612219576040517f08c379a000000000000000000000000000000000000000000000000000000000815260040161221090613a19565b60405180910390fd5b6040518060a001604052808381526020013373ffffffffffffffffffffffffffffffffffffffff1681526020013073ffffffffffffffffffffffffffffffffffffffff16815260200182815260200160001515815250600b60008481526020019081526020016000206000820151816000015560208201518160010160006101000a81548173ffffffffffffffffffffffffffffffffffffffff021916908373ffffffffffffffffffffffffffffffffffffffff16021790555060408201518160020160006101000a81548173ffffffffffffffffffffffffffffffffffffffff021916908373ffffffffffffffffffffffffffffffffffffffff1602179055506060820151816003015560808201518160040160006101000a81548160ff021916908315150217905550905050612352333084611ce6565b817fb640004f1d14576d0c209e240cad0410e0d8c0c33a09375861fbadae2588a98d3330846000604051612389949392919061406c565b60405180910390a25050565b8173ffffffffffffffffffffffffffffffffffffffff168373ffffffffffffffffffffffffffffffffffffffff1603612403576040517f08c379a00000000000000000000000000000000000000000000000000000000081526004016123fa906140fd565b60405180910390fd5b80600560008573ffffffffffffffffffffffffffffffffffffffff1673ffffffffffffffffffffffffffffffffffffffff16815260200190815260200160002060008473ffffffffffffffffffffffffffffffffffffffff1673ffffffffffffffffffffffffffffffffffffffff16815260200190815260200160002060006101000a81548160ff0219169083151502179055508173ffffffffffffffffffffffffffffffffffffffff168373ffffffffffffffffffffffffffffffffffffffff167f17307eab39ab6107e8899845ad3d59bd9653f200f220920489ca2b5937696c31836040516124f49190612a40565b60405180910390a3505050565b61250c848484611ce6565b61251884848484612625565b612557576040517f08c379a000000000000000000000000000000000000000000000000000000000815260040161254e9061418f565b60405180910390fd5b50505050565b606060405180602001604052806000815250905090565b606061257f82611adb565b6125be576040517f08c379a00000000000000000000000000000000000000000000000000000000081526004016125b590614221565b60405180910390fd5b60006125c861255d565b905060008151116125e85760405180602001604052806000815250612613565b806125f2846127ac565b6040516020016126039291906138f1565b6040516020818303038152906040525b915050919050565b505050565b505050565b60006126468473ffffffffffffffffffffffffffffffffffffffff1661290c565b1561279f578373ffffffffffffffffffffffffffffffffffffffff1663150b7a0261266f611b47565b8786866040518563ffffffff1660e01b81526004016126919493929190614296565b6020604051808303816000875af19250505080156126cd57506040513d601f19601f820116820180604052508101906126ca91906142f7565b60015b61274f573d80600081146126fd576040519150601f19603f3d011682016040523d82523d6000602084013e612702565b606091505b506000815103612747576040517f08c379a000000000000000000000000000000000000000000000000000000000815260040161273e9061418f565b60405180910390fd5b805181602001fd5b63150b7a0260e01b7bffffffffffffffffffffffffffffffffffffffffffffffffffffffff1916817bffffffffffffffffffffffffffffffffffffffffffffffffffffffff1916149150506127a4565b600190505b949350505050565b6060600082036127f3576040518060400160405280600181526020017f30000000000000000000000000000000000000000000000000000000000000008152509050612907565b600082905060005b6000821461282557808061280e90613501565b915050600a8261281e9190614353565b91506127fb565b60008167ffffffffffffffff81111561284157612840612e64565b5b6040519080825280601f01601f1916602001820160405280156128735781602001600182028036833780820191505090505b5090505b600085146129005760018261288c919061346a565b9150600a8561289b9190614384565b60306128a791906134cd565b60f81b8183815181106128bd576128bc61349e565b5b60200101907effffffffffffffffffffffffffffffffffffffffffffffffffffffffffffff1916908160001a905350600a856128f99190614353565b9450612877565b8093505050505b919050565b6000808273ffffffffffffffffffffffffffffffffffffffff163b119050919050565b6040518060a0016040528060008152602001600073ffffffffffffffffffffffffffffffffffffffff168152602001600073ffffffffffffffffffffffffffffffffffffffff168152602001600081526020016000151581525090565b6000604051905090565b600080fd5b600080fd5b60007fffffffff0000000000000000000000000000000000000000000000000000000082169050919050565b6129d5816129a0565b81146129e057600080fd5b50565b6000813590506129f2816129cc565b92915050565b600060208284031215612a0e57612a0d612996565b5b6000612a1c848285016129e3565b91505092915050565b60008115159050919050565b612a3a81612a25565b82525050565b6000602082019050612a556000830184612a31565b92915050565b600081519050919050565b600082825260208201905092915050565b60005b83811015612a95578082015181840152602081019050612a7a565b60008484015250505050565b6000601f19601f8301169050919050565b6000612abd82612a5b565b612ac78185612a66565b9350612ad7818560208601612a77565b612ae081612aa1565b840191505092915050565b60006020820190508181036000830152612b058184612ab2565b905092915050565b6000819050919050565b612b2081612b0d565b8114612b2b57600080fd5b50565b600081359050612b3d81612b17565b92915050565b600060208284031215612b5957612b58612996565b5b6000612b6784828501612b2e565b91505092915050565b600073ffffffffffffffffffffffffffffffffffffffff82169050919050565b6000612b9b82612b70565b9050919050565b612bab81612b90565b82525050565b6000602082019050612bc66000830184612ba2565b92915050565b612bd581612b90565b8114612be057600080fd5b50565b600081359050612bf281612bcc565b92915050565b60008060408385031215612c0f57612c0e612996565b5b6000612c1d85828601612be3565b9250506020612c2e85828601612b2e565b9150509250929050565b600081519050919050565b600082825260208201905092915050565b6000819050602082019050919050565b612c6d81612b0d565b82525050565b6000612c7e82612b70565b9050919050565b612c8e81612c73565b82525050565b612c9d81612a25565b82525050565b60a082016000820151612cb96000850182612c64565b506020820151612ccc6020850182612c85565b506040820151612cdf6040850182612c85565b506060820151612cf26060850182612c64565b506080820151612d056080850182612c94565b50505050565b6000612d178383612ca3565b60a08301905092915050565b6000602082019050919050565b6000612d3b82612c38565b612d458185612c43565b9350612d5083612c54565b8060005b83811015612d81578151612d688882612d0b565b9750612d7383612d23565b925050600181019050612d54565b5085935050505092915050565b60006020820190508181036000830152612da88184612d30565b905092915050565b612db981612b0d565b82525050565b6000602082019050612dd46000830184612db0565b92915050565b600080600060608486031215612df357612df2612996565b5b6000612e0186828701612be3565b9350506020612e1286828701612be3565b9250506040612e2386828701612b2e565b9150509250925092565b600060208284031215612e4357612e42612996565b5b6000612e5184828501612be3565b91505092915050565b600080fd5b600080fd5b7f4e487b7100000000000000000000000000000000000000000000000000000000600052604160045260246000fd5b612e9c82612aa1565b810181811067ffffffffffffffff82111715612ebb57612eba612e64565b5b80604052505050565b6000612ece61298c565b9050612eda8282612e93565b919050565b600067ffffffffffffffff821115612efa57612ef9612e64565b5b612f0382612aa1565b9050602081019050919050565b82818337600083830152505050565b6000612f32612f2d84612edf565b612ec4565b905082815260208101848484011115612f4e57612f4d612e5f565b5b612f59848285612f10565b509392505050565b600082601f830112612f7657612f75612e5a565b5b8135612f86848260208601612f1f565b91505092915050565b60008060408385031215612fa657612fa5612996565b5b600083013567ffffffffffffffff811115612fc457612fc361299b565b5b612fd085828601612f61565b9250506020612fe185828601612b2e565b9150509250929050565b612ff481612c73565b82525050565b600060208201905061300f6000830184612feb565b92915050565b61301e81612a25565b811461302957600080fd5b50565b60008135905061303b81613015565b92915050565b6000806040838503121561305857613057612996565b5b600061306685828601612be3565b92505060206130778582860161302c565b9150509250929050565b600067ffffffffffffffff82111561309c5761309b612e64565b5b6130a582612aa1565b9050602081019050919050565b60006130c56130c084613081565b612ec4565b9050828152602081018484840111156130e1576130e0612e5f565b5b6130ec848285612f10565b509392505050565b600082601f83011261310957613108612e5a565b5b81356131198482602086016130b2565b91505092915050565b6000806000806080858703121561313c5761313b612996565b5b600061314a87828801612be3565b945050602061315b87828801612be3565b935050604061316c87828801612b2e565b925050606085013567ffffffffffffffff81111561318d5761318c61299b565b5b613199878288016130f4565b91505092959194509250565b600080604083850312156131bc576131bb612996565b5b60006131ca85828601612b2e565b92505060206131db85828601612b2e565b9150509250929050565b600080604083850312156131fc576131fb612996565b5b600061320a85828601612be3565b925050602061321b85828601612be3565b9150509250929050565b7f4e487b7100000000000000000000000000000000000000000000000000000000600052602260045260246000fd5b6000600282049050600182168061326c57607f821691505b60208210810361327f5761327e613225565b5b50919050565b7f4552433732313a20617070726f76656420717565727920666f72206e6f6e657860008201527f697374656e7420746f6b656e0000000000000000000000000000000000000000602082015250565b60006132e1602c83612a66565b91506132ec82613285565b604082019050919050565b60006020820190508181036000830152613310816132d4565b9050919050565b7f4552433732313a20617070726f76616c20746f2063757272656e74206f776e6560008201527f7200000000000000000000000000000000000000000000000000000000000000602082015250565b6000613373602183612a66565b915061337e82613317565b604082019050919050565b600060208201905081810360008301526133a281613366565b9050919050565b7f4552433732313a20617070726f76652063616c6c6572206973206e6f74206f7760008201527f6e6572206e6f7220617070726f76656420666f7220616c6c0000000000000000602082015250565b6000613405603883612a66565b9150613410826133a9565b604082019050919050565b60006020820190508181036000830152613434816133f8565b9050919050565b7f4e487b7100000000000000000000000000000000000000000000000000000000600052601160045260246000fd5b600061347582612b0d565b915061348083612b0d565b92508282039050818111156134985761349761343b565b5b92915050565b7f4e487b7100000000000000000000000000000000000000000000000000000000600052603260045260246000fd5b60006134d882612b0d565b91506134e383612b0d565b92508282019050808211156134fb576134fa61343b565b5b92915050565b600061350c82612b0d565b91507fffffffffffffffffffffffffffffffffffffffffffffffffffffffffffffffff820361353e5761353d61343b565b5b600182019050919050565b7f4552433732313a207472616e736665722063616c6c6572206973206e6f74206f60008201527f776e6572206e6f7220617070726f766564000000000000000000000000000000602082015250565b60006135a5603183612a66565b91506135b082613549565b604082019050919050565b600060208201905081810360008301526135d481613598565b9050919050565b7f4552433732313a206f776e657220717565727920666f72206e6f6e657869737460008201527f656e7420746f6b656e0000000000000000000000000000000000000000000000602082015250565b6000613637602983612a66565b9150613642826135db565b604082019050919050565b600060208201905081810360008301526136668161362a565b9050919050565b7f4552433732313a2062616c616e636520717565727920666f7220746865207a6560008201527f726f206164647265737300000000000000000000000000000000000000000000602082015250565b60006136c9602a83612a66565b91506136d48261366d565b604082019050919050565b600060208201905081810360008301526136f8816136bc565b9050919050565b7f4f6e6c79206d61726b6574706c616365206f776e65722063616e20757064617460008201527f65206c697374696e672070726963652e00000000000000000000000000000000602082015250565b600061375b603083612a66565b9150613766826136ff565b604082019050919050565b6000602082019050818103600083015261378a8161374e565b9050919050565b7f506c65617365207375626d6974207468652061736b696e67207072696365206960008201527f6e206f7264657220746f20636f6d706c65746520746865207075726368617365602082015250565b60006137ed604083612a66565b91506137f882613791565b604082019050919050565b6000602082019050818103600083015261381c816137e0565b9050919050565b7f45524337323155524953746f726167653a2055524920717565727920666f722060008201527f6e6f6e6578697374656e7420746f6b656e000000000000000000000000000000602082015250565b600061387f603183612a66565b915061388a82613823565b604082019050919050565b600060208201905081810360008301526138ae81613872565b9050919050565b600081905092915050565b60006138cb82612a5b565b6138d581856138b5565b93506138e5818560208601612a77565b80840191505092915050565b60006138fd82856138c0565b915061390982846138c0565b91508190509392505050565b7f4f6e6c79206974656d206f776e65722063616e20706572666f726d207468697360008201527f206f7065726174696f6e00000000000000000000000000000000000000000000602082015250565b6000613971602a83612a66565b915061397c82613915565b604082019050919050565b600060208201905081810360008301526139a081613964565b9050919050565b7f5072696365206d75737420626520657175616c20746f206c697374696e67207060008201527f7269636500000000000000000000000000000000000000000000000000000000602082015250565b6000613a03602483612a66565b9150613a0e826139a7565b604082019050919050565b60006020820190508181036000830152613a32816139f6565b9050919050565b6000613a4482612b0d565b915060008203613a5757613a5661343b565b5b600182039050919050565b7f4552433732313a206f70657261746f7220717565727920666f72206e6f6e657860008201527f697374656e7420746f6b656e0000000000000000000000000000000000000000602082015250565b6000613abe602c83612a66565b9150613ac982613a62565b604082019050919050565b60006020820190508181036000830152613aed81613ab1565b9050919050565b7f4552433732313a207472616e736665722066726f6d20696e636f72726563742060008201527f6f776e6572000000000000000000000000000000000000000000000000000000602082015250565b6000613b50602583612a66565b9150613b5b82613af4565b604082019050919050565b60006020820190508181036000830152613b7f81613b43565b9050919050565b7f4552433732313a207472616e7366657220746f20746865207a65726f2061646460008201527f7265737300000000000000000000000000000000000000000000000000000000602082015250565b6000613be2602483612a66565b9150613bed82613b86565b604082019050919050565b60006020820190508181036000830152613c1181613bd5565b9050919050565b7f4552433732313a206d696e7420746f20746865207a65726f2061646472657373600082015250565b6000613c4e602083612a66565b9150613c5982613c18565b602082019050919050565b60006020820190508181036000830152613c7d81613c41565b9050919050565b7f4552433732313a20746f6b656e20616c7265616479206d696e74656400000000600082015250565b6000613cba601c83612a66565b9150613cc582613c84565b602082019050919050565b60006020820190508181036000830152613ce981613cad565b9050919050565b7f45524337323155524953746f726167653a2055524920736574206f66206e6f6e60008201527f6578697374656e7420746f6b656e000000000000000000000000000000000000602082015250565b6000613d4c602e83612a66565b9150613d5782613cf0565b604082019050919050565b60006020820190508181036000830152613d7b81613d3f565b9050919050565b60008190508160005260206000209050919050565b60006020601f8301049050919050565b600082821b905092915050565b600060088302613de47fffffffffffffffffffffffffffffffffffffffffffffffffffffffffffffffff82613da7565b613dee8683613da7565b95508019841693508086168417925050509392505050565b6000819050919050565b6000613e2b613e26613e2184612b0d565b613e06565b612b0d565b9050919050565b6000819050919050565b613e4583613e10565b613e59613e5182613e32565b848454613db4565b825550505050565b600090565b613e6e613e61565b613e79818484613e3c565b505050565b5b81811015613e9d57613e92600082613e66565b600181019050613e7f565b5050565b601f821115613ee257613eb381613d82565b613ebc84613d97565b81016020851015613ecb578190505b613edf613ed785613d97565b830182613e7e565b50505b505050565b600082821c905092915050565b6000613f0560001984600802613ee7565b1980831691505092915050565b6000613f1e8383613ef4565b9150826002028217905092915050565b613f3782612a5b565b67ffffffffffffffff811115613f5057613f4f612e64565b5b613f5a8254613254565b613f65828285613ea1565b600060209050601f831160018114613f985760008415613f86578287015190505b613f908582613f12565b865550613ff8565b601f198416613fa686613d82565b60005b82811015613fce57848901518255600182019150602085019450602081019050613fa9565b86831015613feb5784890151613fe7601f891682613ef4565b8355505b6001600288020188555050505b505050505050565b7f5072696365206d757374206265206174206c6561737420312077656900000000600082015250565b6000614036601c83612a66565b915061404182614000565b602082019050919050565b6000602082019050818103600083015261406581614029565b9050919050565b60006080820190506140816000830187612ba2565b61408e6020830186612ba2565b61409b6040830185612db0565b6140a86060830184612a31565b95945050505050565b7f4552433732313a20617070726f766520746f2063616c6c657200000000000000600082015250565b60006140e7601983612a66565b91506140f2826140b1565b602082019050919050565b60006020820190508181036000830152614116816140da565b9050919050565b7f4552433732313a207472616e7366657220746f206e6f6e20455243373231526560008201527f63656976657220696d706c656d656e7465720000000000000000000000000000602082015250565b6000614179603283612a66565b91506141848261411d565b604082019050919050565b600060208201905081810360008301526141a88161416c565b9050919050565b7f4552433732314d657461646174613a2055524920717565727920666f72206e6f60008201527f6e6578697374656e7420746f6b656e0000000000000000000000000000000000602082015250565b600061420b602f83612a66565b9150614216826141af565b604082019050919050565b6000602082019050818103600083015261423a816141fe565b9050919050565b600081519050919050565b600082825260208201905092915050565b600061426882614241565b614272818561424c565b9350614282818560208601612a77565b61428b81612aa1565b840191505092915050565b60006080820190506142ab6000830187612ba2565b6142b86020830186612ba2565b6142c56040830185612db0565b81810360608301526142d7818461425d565b905095945050505050565b6000815190506142f1816129cc565b92915050565b60006020828403121561430d5761430c612996565b5b600061431b848285016142e2565b91505092915050565b7f4e487b7100000000000000000000000000000000000000000000000000000000600052601260045260246000fd5b600061435e82612b0d565b915061436983612b0d565b92508261437957614378614324565b5b828204905092915050565b600061438f82612b0d565b915061439a83612b0d565b9250826143aa576143a9614324565b5b82820690509291505056fea2646970667358221220e640b727ab18a101c3f508acb0a0ba6729b9a94df87fe800e88775fbcc7ed49064736f6c63430008140033",
  "linkReferences": {},
  "deployedLinkReferences": {}
}