{
  "_format": "hh-sol-artifact-1",
  "contractName": "NFTMarketplace",
  "sourceName": "contracts/NFTMarketplace.sol",
  "abi": [
    {
      "inputs": [],
      "stateMutability": "nonpayable",
      "type": "constructor"
    },
    {
      "anonymous": false,
      "inputs": [
        {
          "indexed": true,
          "internalType": "address",
          "name": "owner",
          "type": "address"
        },
        {
          "indexed": true,
          "internalType": "address",
          "name": "approved",
          "type": "address"
        },
        {
          "indexed": true,
          "internalType": "uint256",
          "name": "tokenId",
          "type": "uint256"
        }
      ],
      "name": "Approval",
      "type": "event"
    },
    {
      "anonymous": false,
      "inputs": [
        {
          "indexed": true,
          "internalType": "address",
          "name": "owner",
          "type": "address"
        },
        {
          "indexed": true,
          "internalType": "address",
          "name": "operator",
          "type": "address"
        },
        {
          "indexed": false,
          "internalType": "bool",
          "name": "approved",
          "type": "bool"
        }
      ],
      "name": "ApprovalForAll",
      "type": "event"
    },
    {
      "anonymous": false,
      "inputs": [
        {
          "indexed": true,
          "internalType": "uint256",
          "name": "tokenId",
          "type": "uint256"
        },
        {
          "indexed": false,
          "internalType": "address",
          "name": "creator",
          "type": "address"
        },
        {
          "indexed": false,
          "internalType": "uint256",
          "name": "endTime",
          "type": "uint256"
        }
      ],
      "name": "AuctionCreated",
      "type": "event"
    },
    {
      "anonymous": false,
      "inputs": [
        {
          "indexed": true,
          "internalType": "uint256",
          "name": "tokenId",
          "type": "uint256"
        },
        {
          "indexed": false,
          "internalType": "address",
          "name": "winner",
          "type": "address"
        },
        {
          "indexed": false,
          "internalType": "uint256",
          "name": "winningBid",
          "type": "uint256"
        }
      ],
      "name": "AuctionEnded",
      "type": "event"
    },
    {
      "anonymous": false,
      "inputs": [
        {
          "indexed": true,
          "internalType": "uint256",
          "name": "tokenId",
          "type": "uint256"
        },
        {
          "indexed": false,
          "internalType": "address",
          "name": "bidder",
          "type": "address"
        },
        {
          "indexed": false,
          "internalType": "uint256",
          "name": "bidAmount",
          "type": "uint256"
        }
      ],
      "name": "BidPlaced",
      "type": "event"
    },
    {
      "anonymous": false,
      "inputs": [
        {
          "indexed": true,
          "internalType": "uint256",
          "name": "tokenId",
          "type": "uint256"
        },
        {
          "indexed": false,
          "internalType": "address",
          "name": "seller",
          "type": "address"
        },
        {
          "indexed": false,
          "internalType": "address",
          "name": "owner",
          "type": "address"
        },
        {
          "indexed": false,
          "internalType": "uint256",
          "name": "price",
          "type": "uint256"
        },
        {
          "indexed": false,
          "internalType": "bool",
          "name": "sold",
          "type": "bool"
        }
      ],
      "name": "MarketItemCreated",
      "type": "event"
    },
    {
      "anonymous": false,
      "inputs": [
        {
          "indexed": true,
          "internalType": "address",
          "name": "from",
          "type": "address"
        },
        {
          "indexed": true,
          "internalType": "address",
          "name": "to",
          "type": "address"
        },
        {
          "indexed": true,
          "internalType": "uint256",
          "name": "tokenId",
          "type": "uint256"
        }
      ],
      "name": "Transfer",
      "type": "event"
    },
    {
      "inputs": [
        {
          "internalType": "address",
          "name": "to",
          "type": "address"
        },
        {
          "internalType": "uint256",
          "name": "tokenId",
          "type": "uint256"
        }
      ],
      "name": "approve",
      "outputs": [],
      "stateMutability": "nonpayable",
      "type": "function"
    },
    {
      "inputs": [],
      "name": "auctionDuration",
      "outputs": [
        {
          "internalType": "uint256",
          "name": "",
          "type": "uint256"
        }
      ],
      "stateMutability": "view",
      "type": "function"
    },
    {
      "inputs": [],
      "name": "automateAuctions",
      "outputs": [],
      "stateMutability": "nonpayable",
      "type": "function"
    },
    {
      "inputs": [
        {
          "internalType": "address",
          "name": "owner",
          "type": "address"
        }
      ],
      "name": "balanceOf",
      "outputs": [
        {
          "internalType": "uint256",
          "name": "",
          "type": "uint256"
        }
      ],
      "stateMutability": "view",
      "type": "function"
    },
    {
      "inputs": [],
      "name": "checkAndEndAuctions",
      "outputs": [],
      "stateMutability": "nonpayable",
      "type": "function"
    },
    {
      "inputs": [
        {
          "internalType": "uint256",
          "name": "tokenId",
          "type": "uint256"
        }
      ],
      "name": "createMarketSale",
      "outputs": [],
      "stateMutability": "nonpayable",
      "type": "function"
    },
    {
      "inputs": [
        {
          "internalType": "string",
          "name": "tokenURI",
          "type": "string"
        },
        {
          "internalType": "uint256",
          "name": "price",
          "type": "uint256"
        }
      ],
      "name": "createToken",
      "outputs": [
        {
          "internalType": "uint256",
          "name": "",
          "type": "uint256"
        }
      ],
      "stateMutability": "payable",
      "type": "function"
    },
    {
      "inputs": [
        {
          "internalType": "uint256",
          "name": "tokenId",
          "type": "uint256"
        }
      ],
      "name": "endAuction",
      "outputs": [],
      "stateMutability": "nonpayable",
      "type": "function"
    },
    {
      "inputs": [],
      "name": "fetchItemsListed",
      "outputs": [
        {
          "components": [
            {
              "internalType": "uint256",
              "name": "tokenId",
              "type": "uint256"
            },
            {
              "internalType": "address payable",
              "name": "seller",
              "type": "address"
            },
            {
              "internalType": "address payable",
              "name": "owner",
              "type": "address"
            },
            {
              "internalType": "uint256",
              "name": "price",
              "type": "uint256"
            },
            {
              "internalType": "bool",
              "name": "sold",
              "type": "bool"
            }
          ],
          "internalType": "struct NFTMarketplace.MarketItem[]",
          "name": "",
          "type": "tuple[]"
        }
      ],
      "stateMutability": "view",
      "type": "function"
    },
    {
      "inputs": [],
      "name": "fetchMarketItems",
      "outputs": [
        {
          "components": [
            {
              "internalType": "uint256",
              "name": "tokenId",
              "type": "uint256"
            },
            {
              "internalType": "address payable",
              "name": "seller",
              "type": "address"
            },
            {
              "internalType": "address payable",
              "name": "owner",
              "type": "address"
            },
            {
              "internalType": "uint256",
              "name": "price",
              "type": "uint256"
            },
            {
              "internalType": "bool",
              "name": "sold",
              "type": "bool"
            }
          ],
          "internalType": "struct NFTMarketplace.MarketItem[]",
          "name": "",
          "type": "tuple[]"
        }
      ],
      "stateMutability": "view",
      "type": "function"
    },
    {
      "inputs": [],
      "name": "fetchMyNFTs",
      "outputs": [
        {
          "components": [
            {
              "internalType": "uint256",
              "name": "tokenId",
              "type": "uint256"
            },
            {
              "internalType": "address payable",
              "name": "seller",
              "type": "address"
            },
            {
              "internalType": "address payable",
              "name": "owner",
              "type": "address"
            },
            {
              "internalType": "uint256",
              "name": "price",
              "type": "uint256"
            },
            {
              "internalType": "bool",
              "name": "sold",
              "type": "bool"
            }
          ],
          "internalType": "struct NFTMarketplace.MarketItem[]",
          "name": "",
          "type": "tuple[]"
        }
      ],
      "stateMutability": "view",
      "type": "function"
    },
    {
      "inputs": [
        {
          "internalType": "uint256",
          "name": "tokenId",
          "type": "uint256"
        }
      ],
      "name": "fetchTokenDetails",
      "outputs": [
        {
          "components": [
            {
              "internalType": "uint256",
              "name": "tokenId",
              "type": "uint256"
            },
            {
              "internalType": "address payable",
              "name": "seller",
              "type": "address"
            },
            {
              "internalType": "address payable",
              "name": "owner",
              "type": "address"
            },
            {
              "internalType": "uint256",
              "name": "price",
              "type": "uint256"
            },
            {
              "internalType": "bool",
              "name": "sold",
              "type": "bool"
            }
          ],
          "internalType": "struct NFTMarketplace.MarketItem",
          "name": "",
          "type": "tuple"
        }
      ],
      "stateMutability": "view",
      "type": "function"
    },
    {
      "inputs": [
        {
          "internalType": "uint256",
          "name": "tokenId",
          "type": "uint256"
        }
      ],
      "name": "getApproved",
      "outputs": [
        {
          "internalType": "address",
          "name": "",
          "type": "address"
        }
      ],
      "stateMutability": "view",
      "type": "function"
    },
    {
      "inputs": [],
      "name": "getListingPrice",
      "outputs": [
        {
          "internalType": "uint256",
          "name": "",
          "type": "uint256"
        }
      ],
      "stateMutability": "view",
      "type": "function"
    },
    {
      "inputs": [
        {
          "internalType": "address",
          "name": "owner",
          "type": "address"
        },
        {
          "internalType": "address",
          "name": "operator",
          "type": "address"
        }
      ],
      "name": "isApprovedForAll",
      "outputs": [
        {
          "internalType": "bool",
          "name": "",
          "type": "bool"
        }
      ],
      "stateMutability": "view",
      "type": "function"
    },
    {
      "inputs": [],
      "name": "lastAutomatedTime",
      "outputs": [
        {
          "internalType": "uint256",
          "name": "",
          "type": "uint256"
        }
      ],
      "stateMutability": "view",
      "type": "function"
    },
    {
      "inputs": [],
      "name": "listingPrice",
      "outputs": [
        {
          "internalType": "uint256",
          "name": "",
          "type": "uint256"
        }
      ],
      "stateMutability": "view",
      "type": "function"
    },
    {
      "inputs": [],
      "name": "name",
      "outputs": [
        {
          "internalType": "string",
          "name": "",
          "type": "string"
        }
      ],
      "stateMutability": "view",
      "type": "function"
    },
    {
      "inputs": [],
      "name": "owner",
      "outputs": [
        {
          "internalType": "address payable",
          "name": "",
          "type": "address"
        }
      ],
      "stateMutability": "view",
      "type": "function"
    },
    {
      "inputs": [
        {
          "internalType": "uint256",
          "name": "tokenId",
          "type": "uint256"
        }
      ],
      "name": "ownerOf",
      "outputs": [
        {
          "internalType": "address",
          "name": "",
          "type": "address"
        }
      ],
      "stateMutability": "view",
      "type": "function"
    },
    {
      "inputs": [
        {
          "internalType": "uint256",
          "name": "tokenId",
          "type": "uint256"
        }
      ],
      "name": "placeBid",
      "outputs": [],
      "stateMutability": "payable",
      "type": "function"
    },
    {
      "inputs": [
        {
          "internalType": "uint256",
          "name": "tokenId",
          "type": "uint256"
        },
        {
          "internalType": "uint256",
          "name": "price",
          "type": "uint256"
        }
      ],
      "name": "resellToken",
      "outputs": [],
      "stateMutability": "payable",
      "type": "function"
    },
    {
      "inputs": [
        {
          "internalType": "address",
          "name": "from",
          "type": "address"
        },
        {
          "internalType": "address",
          "name": "to",
          "type": "address"
        },
        {
          "internalType": "uint256",
          "name": "tokenId",
          "type": "uint256"
        }
      ],
      "name": "safeTransferFrom",
      "outputs": [],
      "stateMutability": "nonpayable",
      "type": "function"
    },
    {
      "inputs": [
        {
          "internalType": "address",
          "name": "from",
          "type": "address"
        },
        {
          "internalType": "address",
          "name": "to",
          "type": "address"
        },
        {
          "internalType": "uint256",
          "name": "tokenId",
          "type": "uint256"
        },
        {
          "internalType": "bytes",
          "name": "_data",
          "type": "bytes"
        }
      ],
      "name": "safeTransferFrom",
      "outputs": [],
      "stateMutability": "nonpayable",
      "type": "function"
    },
    {
      "inputs": [
        {
          "internalType": "address",
          "name": "operator",
          "type": "address"
        },
        {
          "internalType": "bool",
          "name": "approved",
          "type": "bool"
        }
      ],
      "name": "setApprovalForAll",
      "outputs": [],
      "stateMutability": "nonpayable",
      "type": "function"
    },
    {
      "inputs": [
        {
          "internalType": "bytes4",
          "name": "interfaceId",
          "type": "bytes4"
        }
      ],
      "name": "supportsInterface",
      "outputs": [
        {
          "internalType": "bool",
          "name": "",
          "type": "bool"
        }
      ],
      "stateMutability": "view",
      "type": "function"
    },
    {
      "inputs": [],
      "name": "symbol",
      "outputs": [
        {
          "internalType": "string",
          "name": "",
          "type": "string"
        }
      ],
      "stateMutability": "view",
      "type": "function"
    },
    {
      "inputs": [
        {
          "internalType": "uint256",
          "name": "tokenId",
          "type": "uint256"
        }
      ],
      "name": "tokenURI",
      "outputs": [
        {
          "internalType": "string",
          "name": "",
          "type": "string"
        }
      ],
      "stateMutability": "view",
      "type": "function"
    },
    {
      "inputs": [
        {
          "internalType": "address",
          "name": "from",
          "type": "address"
        },
        {
          "internalType": "address",
          "name": "to",
          "type": "address"
        },
        {
          "internalType": "uint256",
          "name": "tokenId",
          "type": "uint256"
        }
      ],
      "name": "transferFrom",
      "outputs": [],
      "stateMutability": "nonpayable",
      "type": "function"
    },
    {
      "inputs": [
        {
          "internalType": "uint256",
          "name": "_listingPrice",
          "type": "uint256"
        }
      ],
      "name": "updateListingPrice",
      "outputs": [],
      "stateMutability": "payable",
      "type": "function"
    }
  ],
  "bytecode": "0x60806040526658d15e176280006009556104b0600b553480156200002257600080fd5b506040518060400160405280601081526020017f4d657461766572736520546f6b656e73000000000000000000000000000000008152506040518060400160405280600481526020017f4d455454000000000000000000000000000000000000000000000000000000008152508160009081620000a091906200037d565b508060019081620000b291906200037d565b50505033600a60006101000a81548173ffffffffffffffffffffffffffffffffffffffff021916908373ffffffffffffffffffffffffffffffffffffffff16021790555042600c8190555062000464565b600081519050919050565b7f4e487b7100000000000000000000000000000000000000000000000000000000600052604160045260246000fd5b7f4e487b7100000000000000000000000000000000000000000000000000000000600052602260045260246000fd5b600060028204905060018216806200018557607f821691505b6020821081036200019b576200019a6200013d565b5b50919050565b60008190508160005260206000209050919050565b60006020601f8301049050919050565b600082821b905092915050565b600060088302620002057fffffffffffffffffffffffffffffffffffffffffffffffffffffffffffffffff82620001c6565b620002118683620001c6565b95508019841693508086168417925050509392505050565b6000819050919050565b6000819050919050565b60006200025e62000258620002528462000229565b62000233565b62000229565b9050919050565b6000819050919050565b6200027a836200023d565b62000292620002898262000265565b848454620001d3565b825550505050565b600090565b620002a96200029a565b620002b68184846200026f565b505050565b5b81811015620002de57620002d26000826200029f565b600181019050620002bc565b5050565b601f8211156200032d57620002f781620001a1565b6200030284620001b6565b8101602085101562000312578190505b6200032a6200032185620001b6565b830182620002bb565b50505b505050565b600082821c905092915050565b6000620003526000198460080262000332565b1980831691505092915050565b60006200036d83836200033f565b9150826002028217905092915050565b620003888262000103565b67ffffffffffffffff811115620003a457620003a36200010e565b5b620003b082546200016c565b620003bd828285620002e2565b600060209050601f831160018114620003f55760008415620003e0578287015190505b620003ec85826200035f565b8655506200045c565b601f1984166200040586620001a1565b60005b828110156200042f5784890151825560018201915060208501945060208101905062000408565b868310156200044f57848901516200044b601f8916826200033f565b8355505b6001600288020188555050505b505050505050565b61522f80620004746000396000f3fe6080604052600436106101cd5760003560e01c806370a08231116100f7578063b863a7cd11610095578063c78f19f911610064578063c78f19f91461063b578063c87b56dd14610666578063e219fc75146106a3578063e985e9c5146106bf576101cd565b8063b863a7cd14610583578063b88d4fde146105c0578063b9a2de3a146105e9578063be9af53614610612576101cd565b806395d89b41116100d157806395d89b41146104f75780639979ef4514610522578063a22cb4651461053e578063ae677aa314610567576101cd565b806370a082311461045f57806372b3b6201461049c5780638da5cb5b146104cc576101cd565b806312e855851161016f57806345f8fa801161013e57806345f8fa80146103b55780634700c27e146103e057806356f28555146103f75780636352211e14610422576101cd565b806312e855851461030d578063202e37401461033857806323b872dd1461036357806342842e0e1461038c576101cd565b8063081812fc116101ab578063081812fc14610251578063095ea7b31461028e5780630cbf54c8146102b75780630f08efe0146102e2576101cd565b806301ffc9a7146101d257806303bb502f1461020f57806306fdde0314610226575b600080fd5b3480156101de57600080fd5b506101f960048036038101906101f49190613503565b6106fc565b604051610206919061354b565b60405180910390f35b34801561021b57600080fd5b506102246107de565b005b34801561023257600080fd5b5061023b610854565b60405161024891906135f6565b60405180910390f35b34801561025d57600080fd5b506102786004803603810190610273919061364e565b6108e6565b60405161028591906136bc565b60405180910390f35b34801561029a57600080fd5b506102b560048036038101906102b09190613703565b61096b565b005b3480156102c357600080fd5b506102cc610a82565b6040516102d99190613752565b60405180910390f35b3480156102ee57600080fd5b506102f7610a88565b60405161030491906138c3565b60405180910390f35b34801561031957600080fd5b50610322610cc6565b60405161032f9190613752565b60405180910390f35b34801561034457600080fd5b5061034d610cd0565b60405161035a91906138c3565b60405180910390f35b34801561036f57600080fd5b5061038a600480360381019061038591906138e5565b610f97565b005b34801561039857600080fd5b506103b360048036038101906103ae91906138e5565b610ff7565b005b3480156103c157600080fd5b506103ca611017565b6040516103d791906138c3565b60405180910390f35b3480156103ec57600080fd5b506103f56112de565b005b34801561040357600080fd5b5061040c611340565b6040516104199190613752565b60405180910390f35b34801561042e57600080fd5b506104496004803603810190610444919061364e565b611346565b60405161045691906136bc565b60405180910390f35b34801561046b57600080fd5b5061048660048036038101906104819190613938565b6113f7565b6040516104939190613752565b60405180910390f35b6104b660048036038101906104b19190613a9a565b6114ae565b6040516104c39190613752565b60405180910390f35b3480156104d857600080fd5b506104e16114f7565b6040516104ee9190613b05565b60405180910390f35b34801561050357600080fd5b5061050c61151d565b60405161051991906135f6565b60405180910390f35b61053c6004803603810190610537919061364e565b6115af565b005b34801561054a57600080fd5b5061056560048036038101906105609190613b4c565b611826565b005b610581600480360381019061057c919061364e565b61183c565b005b34801561058f57600080fd5b506105aa60048036038101906105a5919061364e565b6118d6565b6040516105b79190613bf4565b60405180910390f35b3480156105cc57600080fd5b506105e760048036038101906105e29190613cb0565b6119de565b005b3480156105f557600080fd5b50610610600480360381019061060b919061364e565b611a40565b005b34801561061e57600080fd5b506106396004803603810190610634919061364e565b611ec1565b005b34801561064757600080fd5b50610650611ed5565b60405161065d9190613752565b60405180910390f35b34801561067257600080fd5b5061068d6004803603810190610688919061364e565b611edb565b60405161069a91906135f6565b60405180910390f35b6106bd60048036038101906106b89190613d33565b61202c565b005b3480156106cb57600080fd5b506106e660048036038101906106e19190613d73565b61222f565b6040516106f3919061354b565b60405180910390f35b60007f80ac58cd000000000000000000000000000000000000000000000000000000007bffffffffffffffffffffffffffffffffffffffffffffffffffffffff1916827bffffffffffffffffffffffffffffffffffffffffffffffffffffffff191614806107c757507f5b5e139f000000000000000000000000000000000000000000000000000000007bffffffffffffffffffffffffffffffffffffffffffffffffffffffff1916827bffffffffffffffffffffffffffffffffffffffffffffffffffffffff1916145b806107d757506107d6826122c3565b5b9050919050565b600060075490506000600190505b818111610850576000600d600083815260200190815260200160002090508060040160009054906101000a900460ff1615801561082d575080600301544210155b1561083c5761083b82611a40565b5b50808061084890613de2565b9150506107ec565b5050565b60606000805461086390613e59565b80601f016020809104026020016040519081016040528092919081815260200182805461088f90613e59565b80156108dc5780601f106108b1576101008083540402835291602001916108dc565b820191906000526020600020905b8154815290600101906020018083116108bf57829003601f168201915b5050505050905090565b60006108f18261232d565b610930576040517f08c379a000000000000000000000000000000000000000000000000000000000815260040161092790613efc565b60405180910390fd5b6004600083815260200190815260200160002060009054906101000a900473ffffffffffffffffffffffffffffffffffffffff169050919050565b600061097682611346565b90508073ffffffffffffffffffffffffffffffffffffffff168373ffffffffffffffffffffffffffffffffffffffff16036109e6576040517f08c379a00000000000000000000000000000000000000000000000000000000081526004016109dd90613f8e565b60405180910390fd5b8073ffffffffffffffffffffffffffffffffffffffff16610a05612399565b73ffffffffffffffffffffffffffffffffffffffff161480610a345750610a3381610a2e612399565b61222f565b5b610a73576040517f08c379a0000000000000000000000000000000000000000000000000000000008152600401610a6a90614020565b60405180910390fd5b610a7d83836123a1565b505050565b600b5481565b6060600060075490506000600854600754610aa39190614040565b90506000808267ffffffffffffffff811115610ac257610ac161396f565b5b604051908082528060200260200182016040528015610afb57816020015b610ae8613430565b815260200190600190039081610ae05790505b5090506000600190505b848111610cbb573073ffffffffffffffffffffffffffffffffffffffff16600e600083815260200190815260200160002060020160009054906101000a900473ffffffffffffffffffffffffffffffffffffffff1673ffffffffffffffffffffffffffffffffffffffff1603610ca85760008190506000600e60008381526020019081526020016000209050806040518060a0016040529081600082015481526020016001820160009054906101000a900473ffffffffffffffffffffffffffffffffffffffff1673ffffffffffffffffffffffffffffffffffffffff1673ffffffffffffffffffffffffffffffffffffffff1681526020016002820160009054906101000a900473ffffffffffffffffffffffffffffffffffffffff1673ffffffffffffffffffffffffffffffffffffffff1673ffffffffffffffffffffffffffffffffffffffff168152602001600382015481526020016004820160009054906101000a900460ff161515151581525050848681518110610c8b57610c8a614074565b5b6020026020010181905250600185610ca391906140a3565b945050505b8080610cb390613de2565b915050610b05565b508094505050505090565b6000600954905090565b6060600060075490506000806000600190505b838111610d76573373ffffffffffffffffffffffffffffffffffffffff16600e600083815260200190815260200160002060020160009054906101000a900473ffffffffffffffffffffffffffffffffffffffff1673ffffffffffffffffffffffffffffffffffffffff1603610d6357600183610d6091906140a3565b92505b8080610d6e90613de2565b915050610ce3565b5060008267ffffffffffffffff811115610d9357610d9261396f565b5b604051908082528060200260200182016040528015610dcc57816020015b610db9613430565b815260200190600190039081610db15790505b5090506000600190505b848111610f8c573373ffffffffffffffffffffffffffffffffffffffff16600e600083815260200190815260200160002060020160009054906101000a900473ffffffffffffffffffffffffffffffffffffffff1673ffffffffffffffffffffffffffffffffffffffff1603610f795760008190506000600e60008381526020019081526020016000209050806040518060a0016040529081600082015481526020016001820160009054906101000a900473ffffffffffffffffffffffffffffffffffffffff1673ffffffffffffffffffffffffffffffffffffffff1673ffffffffffffffffffffffffffffffffffffffff1681526020016002820160009054906101000a900473ffffffffffffffffffffffffffffffffffffffff1673ffffffffffffffffffffffffffffffffffffffff1673ffffffffffffffffffffffffffffffffffffffff168152602001600382015481526020016004820160009054906101000a900460ff161515151581525050848681518110610f5c57610f5b614074565b5b6020026020010181905250600185610f7491906140a3565b945050505b8080610f8490613de2565b915050610dd6565b508094505050505090565b610fa8610fa2612399565b8261245a565b610fe7576040517f08c379a0000000000000000000000000000000000000000000000000000000008152600401610fde90614149565b60405180910390fd5b610ff2838383612538565b505050565b611012838383604051806020016040528060008152506119de565b505050565b6060600060075490506000806000600190505b8381116110bd573373ffffffffffffffffffffffffffffffffffffffff16600e600083815260200190815260200160002060010160009054906101000a900473ffffffffffffffffffffffffffffffffffffffff1673ffffffffffffffffffffffffffffffffffffffff16036110aa576001836110a791906140a3565b92505b80806110b590613de2565b91505061102a565b5060008267ffffffffffffffff8111156110da576110d961396f565b5b60405190808252806020026020018201604052801561111357816020015b611100613430565b8152602001906001900390816110f85790505b5090506000600190505b8481116112d3573373ffffffffffffffffffffffffffffffffffffffff16600e600083815260200190815260200160002060010160009054906101000a900473ffffffffffffffffffffffffffffffffffffffff1673ffffffffffffffffffffffffffffffffffffffff16036112c05760008190506000600e60008381526020019081526020016000209050806040518060a0016040529081600082015481526020016001820160009054906101000a900473ffffffffffffffffffffffffffffffffffffffff1673ffffffffffffffffffffffffffffffffffffffff1673ffffffffffffffffffffffffffffffffffffffff1681526020016002820160009054906101000a900473ffffffffffffffffffffffffffffffffffffffff1673ffffffffffffffffffffffffffffffffffffffff1673ffffffffffffffffffffffffffffffffffffffff168152602001600382015481526020016004820160009054906101000a900460ff1615151515815250508486815181106112a3576112a2614074565b5b60200260200101819052506001856112bb91906140a3565b945050505b80806112cb90613de2565b91505061111d565b508094505050505090565b6078600c546112ed91906140a3565b42101561132f576040517f08c379a0000000000000000000000000000000000000000000000000000000008152600401611326906141b5565b60405180910390fd5b42600c8190555061133e6107de565b565b600c5481565b6000806002600084815260200190815260200160002060009054906101000a900473ffffffffffffffffffffffffffffffffffffffff169050600073ffffffffffffffffffffffffffffffffffffffff168173ffffffffffffffffffffffffffffffffffffffff16036113ee576040517f08c379a00000000000000000000000000000000000000000000000000000000081526004016113e590614247565b60405180910390fd5b80915050919050565b60008073ffffffffffffffffffffffffffffffffffffffff168273ffffffffffffffffffffffffffffffffffffffff1603611467576040517f08c379a000000000000000000000000000000000000000000000000000000000815260040161145e906142d9565b60405180910390fd5b600360008373ffffffffffffffffffffffffffffffffffffffff1673ffffffffffffffffffffffffffffffffffffffff168152602001908152602001600020549050919050565b6000600760008154809291906114c390613de2565b9190505550600060075490506114d9338261279e565b6114e38185612977565b6114ed81846129e4565b8091505092915050565b600a60009054906101000a900473ffffffffffffffffffffffffffffffffffffffff1681565b60606001805461152c90613e59565b80601f016020809104026020016040519081016040528092919081815260200182805461155890613e59565b80156115a55780601f1061157a576101008083540402835291602001916115a5565b820191906000526020600020905b81548152906001019060200180831161158857829003601f168201915b5050505050905090565b6000600d600083815260200190815260200160002090508060030154421061160c576040517f08c379a000000000000000000000000000000000000000000000000000000000815260040161160390614345565b60405180910390fd5b80600201543411611652576040517f08c379a0000000000000000000000000000000000000000000000000000000008152600401611649906143d7565b60405180910390fd5b600073ffffffffffffffffffffffffffffffffffffffff168160010160009054906101000a900473ffffffffffffffffffffffffffffffffffffffff1673ffffffffffffffffffffffffffffffffffffffff161461171a578060010160009054906101000a900473ffffffffffffffffffffffffffffffffffffffff1673ffffffffffffffffffffffffffffffffffffffff166108fc82600201549081150290604051600060405180830381858888f19350505050158015611718573d6000803e3d6000fd5b505b6117596040518060400160405280601881526020017f506c6163696e672062696420666f7220746f6b656e49643a000000000000000081525083612db4565b61179c6040518060400160405280601181526020017f41756374696f6e20656e642074696d653a0000000000000000000000000000008152508260030154612db4565b338160010160006101000a81548173ffffffffffffffffffffffffffffffffffffffff021916908373ffffffffffffffffffffffffffffffffffffffff160217905550348160020181905550817f0e54eff26401bf69b81b26f60bd85ef47f5d85275c1d268d84f68d6897431c47333460405161181a9291906143f7565b60405180910390a25050565b611838611831612399565b8383612e50565b5050565b3373ffffffffffffffffffffffffffffffffffffffff16600a60009054906101000a900473ffffffffffffffffffffffffffffffffffffffff1673ffffffffffffffffffffffffffffffffffffffff16146118cc576040517f08c379a00000000000000000000000000000000000000000000000000000000081526004016118c390614492565b60405180910390fd5b8060098190555050565b6118de613430565b600e60008381526020019081526020016000206040518060a0016040529081600082015481526020016001820160009054906101000a900473ffffffffffffffffffffffffffffffffffffffff1673ffffffffffffffffffffffffffffffffffffffff1673ffffffffffffffffffffffffffffffffffffffff1681526020016002820160009054906101000a900473ffffffffffffffffffffffffffffffffffffffff1673ffffffffffffffffffffffffffffffffffffffff1673ffffffffffffffffffffffffffffffffffffffff168152602001600382015481526020016004820160009054906101000a900460ff1615151515815250509050919050565b6119ef6119e9612399565b8361245a565b611a2e576040517f08c379a0000000000000000000000000000000000000000000000000000000008152600401611a2590614149565b60405180910390fd5b611a3a84848484612fbc565b50505050565b611a7f6040518060400160405280601b81526020017f456e64696e672061756374696f6e20666f7220746f6b656e49643a000000000081525082612db4565b6000600d600083815260200190815260200160002090508060040160009054906101000a900460ff1615611ae8576040517f08c379a0000000000000000000000000000000000000000000000000000000008152600401611adf906144fe565b60405180910390fd5b8060030154421015611b2f576040517f08c379a0000000000000000000000000000000000000000000000000000000008152600401611b269061456a565b60405180910390fd5b60018160040160006101000a81548160ff021916908315150217905550600073ffffffffffffffffffffffffffffffffffffffff168160010160009054906101000a900473ffffffffffffffffffffffffffffffffffffffff1673ffffffffffffffffffffffffffffffffffffffff1614611e3c57611bd3308260010160009054906101000a900473ffffffffffffffffffffffffffffffffffffffff1684612538565b600e600083815260200190815260200160002060010160009054906101000a900473ffffffffffffffffffffffffffffffffffffffff1673ffffffffffffffffffffffffffffffffffffffff166108fc82600201549081150290604051600060405180830381858888f19350505050158015611c53573d6000803e3d6000fd5b506001600e600084815260200190815260200160002060040160006101000a81548160ff0219169083151502179055508060010160009054906101000a900473ffffffffffffffffffffffffffffffffffffffff16600e600084815260200190815260200160002060020160006101000a81548173ffffffffffffffffffffffffffffffffffffffff021916908373ffffffffffffffffffffffffffffffffffffffff1602179055506000600e600084815260200190815260200160002060010160006101000a81548173ffffffffffffffffffffffffffffffffffffffff021916908373ffffffffffffffffffffffffffffffffffffffff16021790555060086000815480929190611d6590613de2565b9190505550600a60009054906101000a900473ffffffffffffffffffffffffffffffffffffffff1673ffffffffffffffffffffffffffffffffffffffff166108fc6009549081150290604051600060405180830381858888f19350505050158015611dd4573d6000803e3d6000fd5b50817fd2aa34a4fdbbc6dff6a3e56f46e0f3ae2a31d7785ff3487aa5c95c642acea5018260010160009054906101000a900473ffffffffffffffffffffffffffffffffffffffff168360020154604051611e2f9291906145e9565b60405180910390a2611e7e565b611e7d30600e600085815260200190815260200160002060010160009054906101000a900473ffffffffffffffffffffffffffffffffffffffff1684612538565b5b611ebd6040518060400160405280601a81526020017f41756374696f6e20656e64656420666f7220746f6b656e49643a00000000000081525083612db4565b5050565b611eca81611a40565b611ed26107de565b50565b60095481565b6060611ee68261232d565b611f25576040517f08c379a0000000000000000000000000000000000000000000000000000000008152600401611f1c90614684565b60405180910390fd5b6000600660008481526020019081526020016000208054611f4590613e59565b80601f0160208091040260200160405190810160405280929190818152602001828054611f7190613e59565b8015611fbe5780601f10611f9357610100808354040283529160200191611fbe565b820191906000526020600020905b815481529060010190602001808311611fa157829003601f168201915b505050505090506000611fcf613018565b90506000815103611fe4578192505050612027565b6000825111156120195780826040516020016120019291906146e0565b60405160208183030381529060405292505050612027565b6120228461302f565b925050505b919050565b3373ffffffffffffffffffffffffffffffffffffffff16600e600084815260200190815260200160002060020160009054906101000a900473ffffffffffffffffffffffffffffffffffffffff1673ffffffffffffffffffffffffffffffffffffffff16146120d0576040517f08c379a00000000000000000000000000000000000000000000000000000000081526004016120c790614776565b60405180910390fd5b6009543414612114576040517f08c379a000000000000000000000000000000000000000000000000000000000815260040161210b90614808565b60405180910390fd5b6000600e600084815260200190815260200160002060040160006101000a81548160ff02191690831515021790555080600e60008481526020019081526020016000206003018190555033600e600084815260200190815260200160002060010160006101000a81548173ffffffffffffffffffffffffffffffffffffffff021916908373ffffffffffffffffffffffffffffffffffffffff16021790555030600e600084815260200190815260200160002060020160006101000a81548173ffffffffffffffffffffffffffffffffffffffff021916908373ffffffffffffffffffffffffffffffffffffffff1602179055506008600081548092919061221b90614828565b919050555061222b333084612538565b5050565b6000600560008473ffffffffffffffffffffffffffffffffffffffff1673ffffffffffffffffffffffffffffffffffffffff16815260200190815260200160002060008373ffffffffffffffffffffffffffffffffffffffff1673ffffffffffffffffffffffffffffffffffffffff16815260200190815260200160002060009054906101000a900460ff16905092915050565b60007f01ffc9a7000000000000000000000000000000000000000000000000000000007bffffffffffffffffffffffffffffffffffffffffffffffffffffffff1916827bffffffffffffffffffffffffffffffffffffffffffffffffffffffff1916149050919050565b60008073ffffffffffffffffffffffffffffffffffffffff166002600084815260200190815260200160002060009054906101000a900473ffffffffffffffffffffffffffffffffffffffff1673ffffffffffffffffffffffffffffffffffffffff1614159050919050565b600033905090565b816004600083815260200190815260200160002060006101000a81548173ffffffffffffffffffffffffffffffffffffffff021916908373ffffffffffffffffffffffffffffffffffffffff160217905550808273ffffffffffffffffffffffffffffffffffffffff1661241483611346565b73ffffffffffffffffffffffffffffffffffffffff167f8c5be1e5ebec7d5bd14f71427d1e84f3dd0314c0f7b2291e5b200ac8c7c3b92560405160405180910390a45050565b60006124658261232d565b6124a4576040517f08c379a000000000000000000000000000000000000000000000000000000000815260040161249b906148c3565b60405180910390fd5b60006124af83611346565b90508073ffffffffffffffffffffffffffffffffffffffff168473ffffffffffffffffffffffffffffffffffffffff16148061251e57508373ffffffffffffffffffffffffffffffffffffffff16612506846108e6565b73ffffffffffffffffffffffffffffffffffffffff16145b8061252f575061252e818561222f565b5b91505092915050565b8273ffffffffffffffffffffffffffffffffffffffff1661255882611346565b73ffffffffffffffffffffffffffffffffffffffff16146125ae576040517f08c379a00000000000000000000000000000000000000000000000000000000081526004016125a590614955565b60405180910390fd5b600073ffffffffffffffffffffffffffffffffffffffff168273ffffffffffffffffffffffffffffffffffffffff160361261d576040517f08c379a0000000000000000000000000000000000000000000000000000000008152600401612614906149e7565b60405180910390fd5b6126288383836130d6565b6126336000826123a1565b6001600360008573ffffffffffffffffffffffffffffffffffffffff1673ffffffffffffffffffffffffffffffffffffffff16815260200190815260200160002060008282546126839190614040565b925050819055506001600360008473ffffffffffffffffffffffffffffffffffffffff1673ffffffffffffffffffffffffffffffffffffffff16815260200190815260200160002060008282546126da91906140a3565b92505081905550816002600083815260200190815260200160002060006101000a81548173ffffffffffffffffffffffffffffffffffffffff021916908373ffffffffffffffffffffffffffffffffffffffff160217905550808273ffffffffffffffffffffffffffffffffffffffff168473ffffffffffffffffffffffffffffffffffffffff167fddf252ad1be2c89b69c2b068fc378daa952ba7f163c4a11628f55a4df523b3ef60405160405180910390a46127998383836130db565b505050565b600073ffffffffffffffffffffffffffffffffffffffff168273ffffffffffffffffffffffffffffffffffffffff160361280d576040517f08c379a000000000000000000000000000000000000000000000000000000000815260040161280490614a53565b60405180910390fd5b6128168161232d565b15612856576040517f08c379a000000000000000000000000000000000000000000000000000000000815260040161284d90614abf565b60405180910390fd5b612862600083836130d6565b6001600360008473ffffffffffffffffffffffffffffffffffffffff1673ffffffffffffffffffffffffffffffffffffffff16815260200190815260200160002060008282546128b291906140a3565b92505081905550816002600083815260200190815260200160002060006101000a81548173ffffffffffffffffffffffffffffffffffffffff021916908373ffffffffffffffffffffffffffffffffffffffff160217905550808273ffffffffffffffffffffffffffffffffffffffff16600073ffffffffffffffffffffffffffffffffffffffff167fddf252ad1be2c89b69c2b068fc378daa952ba7f163c4a11628f55a4df523b3ef60405160405180910390a4612973600083836130db565b5050565b6129808261232d565b6129bf576040517f08c379a00000000000000000000000000000000000000000000000000000000081526004016129b690614b51565b60405180910390fd5b806006600084815260200190815260200160002090816129df9190614d13565b505050565b60008111612a27576040517f08c379a0000000000000000000000000000000000000000000000000000000008152600401612a1e90614e31565b60405180910390fd5b6009543414612a6b576040517f08c379a0000000000000000000000000000000000000000000000000000000008152600401612a6290614808565b60405180910390fd5b6040518060a001604052808381526020013373ffffffffffffffffffffffffffffffffffffffff1681526020013073ffffffffffffffffffffffffffffffffffffffff16815260200182815260200160001515815250600e60008481526020019081526020016000206000820151816000015560208201518160010160006101000a81548173ffffffffffffffffffffffffffffffffffffffff021916908373ffffffffffffffffffffffffffffffffffffffff16021790555060408201518160020160006101000a81548173ffffffffffffffffffffffffffffffffffffffff021916908373ffffffffffffffffffffffffffffffffffffffff1602179055506060820151816003015560808201518160040160006101000a81548160ff0219169083151502179055509050506040518060a00160405280838152602001600073ffffffffffffffffffffffffffffffffffffffff168152602001828152602001600b5442612bdb91906140a3565b815260200160001515815250600d60008481526020019081526020016000206000820151816000015560208201518160010160006101000a81548173ffffffffffffffffffffffffffffffffffffffff021916908373ffffffffffffffffffffffffffffffffffffffff160217905550604082015181600201556060820151816003015560808201518160040160006101000a81548160ff021916908315150217905550905050612cc16040518060400160405280601c81526020017f41756374696f6e206372656174656420666f7220746f6b656e49643a0000000081525083612db4565b612d166040518060400160405280601181526020017f41756374696f6e20656e642074696d653a000000000000000000000000000000815250600d600085815260200190815260200160002060030154612db4565b817f6ff530872708bbb51bad8ea341564e4ea039807ad1331f61ab4c906a66875daf33600d600086815260200190815260200160002060030154604051612d5e9291906143f7565b60405180910390a2612d71333084612538565b817fb640004f1d14576d0c209e240cad0410e0d8c0c33a09375861fbadae2588a98d3330846000604051612da89493929190614e51565b60405180910390a25050565b612e4c8282604051602401612dca929190614e96565b6040516020818303038152906040527fb60e72cc000000000000000000000000000000000000000000000000000000007bffffffffffffffffffffffffffffffffffffffffffffffffffffffff19166020820180517bffffffffffffffffffffffffffffffffffffffffffffffffffffffff83818316178352505050506130e0565b5050565b8173ffffffffffffffffffffffffffffffffffffffff168373ffffffffffffffffffffffffffffffffffffffff1603612ebe576040517f08c379a0000000000000000000000000000000000000000000000000000000008152600401612eb590614f12565b60405180910390fd5b80600560008573ffffffffffffffffffffffffffffffffffffffff1673ffffffffffffffffffffffffffffffffffffffff16815260200190815260200160002060008473ffffffffffffffffffffffffffffffffffffffff1673ffffffffffffffffffffffffffffffffffffffff16815260200190815260200160002060006101000a81548160ff0219169083151502179055508173ffffffffffffffffffffffffffffffffffffffff168373ffffffffffffffffffffffffffffffffffffffff167f17307eab39ab6107e8899845ad3d59bd9653f200f220920489ca2b5937696c3183604051612faf919061354b565b60405180910390a3505050565b612fc7848484612538565b612fd3848484846130fa565b613012576040517f08c379a000000000000000000000000000000000000000000000000000000000815260040161300990614fa4565b60405180910390fd5b50505050565b606060405180602001604052806000815250905090565b606061303a8261232d565b613079576040517f08c379a000000000000000000000000000000000000000000000000000000000815260040161307090615036565b60405180910390fd5b6000613083613018565b905060008151116130a357604051806020016040528060008152506130ce565b806130ad84613281565b6040516020016130be9291906146e0565b6040516020818303038152906040525b915050919050565b505050565b505050565b6130f7816130ef6133e1613402565b63ffffffff16565b50565b600061311b8473ffffffffffffffffffffffffffffffffffffffff1661340d565b15613274578373ffffffffffffffffffffffffffffffffffffffff1663150b7a02613144612399565b8786866040518563ffffffff1660e01b815260040161316694939291906150ab565b6020604051808303816000875af19250505080156131a257506040513d601f19601f8201168201806040525081019061319f919061510c565b60015b613224573d80600081146131d2576040519150601f19603f3d011682016040523d82523d6000602084013e6131d7565b606091505b50600081510361321c576040517f08c379a000000000000000000000000000000000000000000000000000000000815260040161321390614fa4565b60405180910390fd5b805181602001fd5b63150b7a0260e01b7bffffffffffffffffffffffffffffffffffffffffffffffffffffffff1916817bffffffffffffffffffffffffffffffffffffffffffffffffffffffff191614915050613279565b600190505b949350505050565b6060600082036132c8576040518060400160405280600181526020017f300000000000000000000000000000000000000000000000000000000000000081525090506133dc565b600082905060005b600082146132fa5780806132e390613de2565b915050600a826132f39190615168565b91506132d0565b60008167ffffffffffffffff8111156133165761331561396f565b5b6040519080825280601f01601f1916602001820160405280156133485781602001600182028036833780820191505090505b5090505b600085146133d5576001826133619190614040565b9150600a856133709190615199565b603061337c91906140a3565b60f81b81838151811061339257613391614074565b5b60200101907effffffffffffffffffffffffffffffffffffffffffffffffffffffffffffff1916908160001a905350600a856133ce9190615168565b945061334c565b8093505050505b919050565b60006a636f6e736f6c652e6c6f679050600080835160208501845afa505050565b61348d819050919050565b6000808273ffffffffffffffffffffffffffffffffffffffff163b119050919050565b6040518060a0016040528060008152602001600073ffffffffffffffffffffffffffffffffffffffff168152602001600073ffffffffffffffffffffffffffffffffffffffff168152602001600081526020016000151581525090565b6134956151ca565b565b6000604051905090565b600080fd5b600080fd5b60007fffffffff0000000000000000000000000000000000000000000000000000000082169050919050565b6134e0816134ab565b81146134eb57600080fd5b50565b6000813590506134fd816134d7565b92915050565b600060208284031215613519576135186134a1565b5b6000613527848285016134ee565b91505092915050565b60008115159050919050565b61354581613530565b82525050565b6000602082019050613560600083018461353c565b92915050565b600081519050919050565b600082825260208201905092915050565b60005b838110156135a0578082015181840152602081019050613585565b60008484015250505050565b6000601f19601f8301169050919050565b60006135c882613566565b6135d28185613571565b93506135e2818560208601613582565b6135eb816135ac565b840191505092915050565b6000602082019050818103600083015261361081846135bd565b905092915050565b6000819050919050565b61362b81613618565b811461363657600080fd5b50565b60008135905061364881613622565b92915050565b600060208284031215613664576136636134a1565b5b600061367284828501613639565b91505092915050565b600073ffffffffffffffffffffffffffffffffffffffff82169050919050565b60006136a68261367b565b9050919050565b6136b68161369b565b82525050565b60006020820190506136d160008301846136ad565b92915050565b6136e08161369b565b81146136eb57600080fd5b50565b6000813590506136fd816136d7565b92915050565b6000806040838503121561371a576137196134a1565b5b6000613728858286016136ee565b925050602061373985828601613639565b9150509250929050565b61374c81613618565b82525050565b60006020820190506137676000830184613743565b92915050565b600081519050919050565b600082825260208201905092915050565b6000819050602082019050919050565b6137a281613618565b82525050565b60006137b38261367b565b9050919050565b6137c3816137a8565b82525050565b6137d281613530565b82525050565b60a0820160008201516137ee6000850182613799565b50602082015161380160208501826137ba565b50604082015161381460408501826137ba565b5060608201516138276060850182613799565b50608082015161383a60808501826137c9565b50505050565b600061384c83836137d8565b60a08301905092915050565b6000602082019050919050565b60006138708261376d565b61387a8185613778565b935061388583613789565b8060005b838110156138b657815161389d8882613840565b97506138a883613858565b925050600181019050613889565b5085935050505092915050565b600060208201905081810360008301526138dd8184613865565b905092915050565b6000806000606084860312156138fe576138fd6134a1565b5b600061390c868287016136ee565b935050602061391d868287016136ee565b925050604061392e86828701613639565b9150509250925092565b60006020828403121561394e5761394d6134a1565b5b600061395c848285016136ee565b91505092915050565b600080fd5b600080fd5b7f4e487b7100000000000000000000000000000000000000000000000000000000600052604160045260246000fd5b6139a7826135ac565b810181811067ffffffffffffffff821117156139c6576139c561396f565b5b80604052505050565b60006139d9613497565b90506139e5828261399e565b919050565b600067ffffffffffffffff821115613a0557613a0461396f565b5b613a0e826135ac565b9050602081019050919050565b82818337600083830152505050565b6000613a3d613a38846139ea565b6139cf565b905082815260208101848484011115613a5957613a5861396a565b5b613a64848285613a1b565b509392505050565b600082601f830112613a8157613a80613965565b5b8135613a91848260208601613a2a565b91505092915050565b60008060408385031215613ab157613ab06134a1565b5b600083013567ffffffffffffffff811115613acf57613ace6134a6565b5b613adb85828601613a6c565b9250506020613aec85828601613639565b9150509250929050565b613aff816137a8565b82525050565b6000602082019050613b1a6000830184613af6565b92915050565b613b2981613530565b8114613b3457600080fd5b50565b600081359050613b4681613b20565b92915050565b60008060408385031215613b6357613b626134a1565b5b6000613b71858286016136ee565b9250506020613b8285828601613b37565b9150509250929050565b60a082016000820151613ba26000850182613799565b506020820151613bb560208501826137ba565b506040820151613bc860408501826137ba565b506060820151613bdb6060850182613799565b506080820151613bee60808501826137c9565b50505050565b600060a082019050613c096000830184613b8c565b92915050565b600067ffffffffffffffff821115613c2a57613c2961396f565b5b613c33826135ac565b9050602081019050919050565b6000613c53613c4e84613c0f565b6139cf565b905082815260208101848484011115613c6f57613c6e61396a565b5b613c7a848285613a1b565b509392505050565b600082601f830112613c9757613c96613965565b5b8135613ca7848260208601613c40565b91505092915050565b60008060008060808587031215613cca57613cc96134a1565b5b6000613cd8878288016136ee565b9450506020613ce9878288016136ee565b9350506040613cfa87828801613639565b925050606085013567ffffffffffffffff811115613d1b57613d1a6134a6565b5b613d2787828801613c82565b91505092959194509250565b60008060408385031215613d4a57613d496134a1565b5b6000613d5885828601613639565b9250506020613d6985828601613639565b9150509250929050565b60008060408385031215613d8a57613d896134a1565b5b6000613d98858286016136ee565b9250506020613da9858286016136ee565b9150509250929050565b7f4e487b7100000000000000000000000000000000000000000000000000000000600052601160045260246000fd5b6000613ded82613618565b91507fffffffffffffffffffffffffffffffffffffffffffffffffffffffffffffffff8203613e1f57613e1e613db3565b5b600182019050919050565b7f4e487b7100000000000000000000000000000000000000000000000000000000600052602260045260246000fd5b60006002820490506001821680613e7157607f821691505b602082108103613e8457613e83613e2a565b5b50919050565b7f4552433732313a20617070726f76656420717565727920666f72206e6f6e657860008201527f697374656e7420746f6b656e0000000000000000000000000000000000000000602082015250565b6000613ee6602c83613571565b9150613ef182613e8a565b604082019050919050565b60006020820190508181036000830152613f1581613ed9565b9050919050565b7f4552433732313a20617070726f76616c20746f2063757272656e74206f776e6560008201527f7200000000000000000000000000000000000000000000000000000000000000602082015250565b6000613f78602183613571565b9150613f8382613f1c565b604082019050919050565b60006020820190508181036000830152613fa781613f6b565b9050919050565b7f4552433732313a20617070726f76652063616c6c6572206973206e6f74206f7760008201527f6e6572206e6f7220617070726f76656420666f7220616c6c0000000000000000602082015250565b600061400a603883613571565b915061401582613fae565b604082019050919050565b6000602082019050818103600083015261403981613ffd565b9050919050565b600061404b82613618565b915061405683613618565b925082820390508181111561406e5761406d613db3565b5b92915050565b7f4e487b7100000000000000000000000000000000000000000000000000000000600052603260045260246000fd5b60006140ae82613618565b91506140b983613618565b92508282019050808211156140d1576140d0613db3565b5b92915050565b7f4552433732313a207472616e736665722063616c6c6572206973206e6f74206f60008201527f776e6572206e6f7220617070726f766564000000000000000000000000000000602082015250565b6000614133603183613571565b915061413e826140d7565b604082019050919050565b6000602082019050818103600083015261416281614126565b9050919050565b7f546f6f20736f6f6e20746f206175746f6d6174652061756374696f6e73000000600082015250565b600061419f601d83613571565b91506141aa82614169565b602082019050919050565b600060208201905081810360008301526141ce81614192565b9050919050565b7f4552433732313a206f776e657220717565727920666f72206e6f6e657869737460008201527f656e7420746f6b656e0000000000000000000000000000000000000000000000602082015250565b6000614231602983613571565b915061423c826141d5565b604082019050919050565b6000602082019050818103600083015261426081614224565b9050919050565b7f4552433732313a2062616c616e636520717565727920666f7220746865207a6560008201527f726f206164647265737300000000000000000000000000000000000000000000602082015250565b60006142c3602a83613571565b91506142ce82614267565b604082019050919050565b600060208201905081810360008301526142f2816142b6565b9050919050565b7f41756374696f6e2068617320656e646564000000000000000000000000000000600082015250565b600061432f601183613571565b915061433a826142f9565b602082019050919050565b6000602082019050818103600083015261435e81614322565b9050919050565b7f426964206d75737420626520686967686572207468616e20746865206375727260008201527f656e742068696768657374206269640000000000000000000000000000000000602082015250565b60006143c1602f83613571565b91506143cc82614365565b604082019050919050565b600060208201905081810360008301526143f0816143b4565b9050919050565b600060408201905061440c60008301856136ad565b6144196020830184613743565b9392505050565b7f4f6e6c79206d61726b6574706c616365206f776e65722063616e20757064617460008201527f65206c697374696e672070726963652e00000000000000000000000000000000602082015250565b600061447c603083613571565b915061448782614420565b604082019050919050565b600060208201905081810360008301526144ab8161446f565b9050919050565b7f41756374696f6e2068617320616c726561647920656e64656400000000000000600082015250565b60006144e8601983613571565b91506144f3826144b2565b602082019050919050565b60006020820190508181036000830152614517816144db565b9050919050565b7f41756374696f6e20686173206e6f7420656e6465642079657400000000000000600082015250565b6000614554601983613571565b915061455f8261451e565b602082019050919050565b6000602082019050818103600083015261458381614547565b9050919050565b6000819050919050565b60006145af6145aa6145a58461367b565b61458a565b61367b565b9050919050565b60006145c182614594565b9050919050565b60006145d3826145b6565b9050919050565b6145e3816145c8565b82525050565b60006040820190506145fe60008301856145da565b61460b6020830184613743565b9392505050565b7f45524337323155524953746f726167653a2055524920717565727920666f722060008201527f6e6f6e6578697374656e7420746f6b656e000000000000000000000000000000602082015250565b600061466e603183613571565b915061467982614612565b604082019050919050565b6000602082019050818103600083015261469d81614661565b9050919050565b600081905092915050565b60006146ba82613566565b6146c481856146a4565b93506146d4818560208601613582565b80840191505092915050565b60006146ec82856146af565b91506146f882846146af565b91508190509392505050565b7f4f6e6c79206974656d206f776e65722063616e20706572666f726d207468697360008201527f206f7065726174696f6e00000000000000000000000000000000000000000000602082015250565b6000614760602a83613571565b915061476b82614704565b604082019050919050565b6000602082019050818103600083015261478f81614753565b9050919050565b7f5072696365206d75737420626520657175616c20746f206c697374696e67207060008201527f7269636500000000000000000000000000000000000000000000000000000000602082015250565b60006147f2602483613571565b91506147fd82614796565b604082019050919050565b60006020820190508181036000830152614821816147e5565b9050919050565b600061483382613618565b91506000820361484657614845613db3565b5b600182039050919050565b7f4552433732313a206f70657261746f7220717565727920666f72206e6f6e657860008201527f697374656e7420746f6b656e0000000000000000000000000000000000000000602082015250565b60006148ad602c83613571565b91506148b882614851565b604082019050919050565b600060208201905081810360008301526148dc816148a0565b9050919050565b7f4552433732313a207472616e736665722066726f6d20696e636f72726563742060008201527f6f776e6572000000000000000000000000000000000000000000000000000000602082015250565b600061493f602583613571565b915061494a826148e3565b604082019050919050565b6000602082019050818103600083015261496e81614932565b9050919050565b7f4552433732313a207472616e7366657220746f20746865207a65726f2061646460008201527f7265737300000000000000000000000000000000000000000000000000000000602082015250565b60006149d1602483613571565b91506149dc82614975565b604082019050919050565b60006020820190508181036000830152614a00816149c4565b9050919050565b7f4552433732313a206d696e7420746f20746865207a65726f2061646472657373600082015250565b6000614a3d602083613571565b9150614a4882614a07565b602082019050919050565b60006020820190508181036000830152614a6c81614a30565b9050919050565b7f4552433732313a20746f6b656e20616c7265616479206d696e74656400000000600082015250565b6000614aa9601c83613571565b9150614ab482614a73565b602082019050919050565b60006020820190508181036000830152614ad881614a9c565b9050919050565b7f45524337323155524953746f726167653a2055524920736574206f66206e6f6e60008201527f6578697374656e7420746f6b656e000000000000000000000000000000000000602082015250565b6000614b3b602e83613571565b9150614b4682614adf565b604082019050919050565b60006020820190508181036000830152614b6a81614b2e565b9050919050565b60008190508160005260206000209050919050565b60006020601f8301049050919050565b600082821b905092915050565b600060088302614bd37fffffffffffffffffffffffffffffffffffffffffffffffffffffffffffffffff82614b96565b614bdd8683614b96565b95508019841693508086168417925050509392505050565b6000614c10614c0b614c0684613618565b61458a565b613618565b9050919050565b6000819050919050565b614c2a83614bf5565b614c3e614c3682614c17565b848454614ba3565b825550505050565b600090565b614c53614c46565b614c5e818484614c21565b505050565b5b81811015614c8257614c77600082614c4b565b600181019050614c64565b5050565b601f821115614cc757614c9881614b71565b614ca184614b86565b81016020851015614cb0578190505b614cc4614cbc85614b86565b830182614c63565b50505b505050565b600082821c905092915050565b6000614cea60001984600802614ccc565b1980831691505092915050565b6000614d038383614cd9565b9150826002028217905092915050565b614d1c82613566565b67ffffffffffffffff811115614d3557614d3461396f565b5b614d3f8254613e59565b614d4a828285614c86565b600060209050601f831160018114614d7d5760008415614d6b578287015190505b614d758582614cf7565b865550614ddd565b601f198416614d8b86614b71565b60005b82811015614db357848901518255600182019150602085019450602081019050614d8e565b86831015614dd05784890151614dcc601f891682614cd9565b8355505b6001600288020188555050505b505050505050565b7f5072696365206d757374206265206174206c6561737420312077656900000000600082015250565b6000614e1b601c83613571565b9150614e2682614de5565b602082019050919050565b60006020820190508181036000830152614e4a81614e0e565b9050919050565b6000608082019050614e6660008301876136ad565b614e7360208301866136ad565b614e806040830185613743565b614e8d606083018461353c565b95945050505050565b60006040820190508181036000830152614eb081856135bd565b9050614ebf6020830184613743565b9392505050565b7f4552433732313a20617070726f766520746f2063616c6c657200000000000000600082015250565b6000614efc601983613571565b9150614f0782614ec6565b602082019050919050565b60006020820190508181036000830152614f2b81614eef565b9050919050565b7f4552433732313a207472616e7366657220746f206e6f6e20455243373231526560008201527f63656976657220696d706c656d656e7465720000000000000000000000000000602082015250565b6000614f8e603283613571565b9150614f9982614f32565b604082019050919050565b60006020820190508181036000830152614fbd81614f81565b9050919050565b7f4552433732314d657461646174613a2055524920717565727920666f72206e6f60008201527f6e6578697374656e7420746f6b656e0000000000000000000000000000000000602082015250565b6000615020602f83613571565b915061502b82614fc4565b604082019050919050565b6000602082019050818103600083015261504f81615013565b9050919050565b600081519050919050565b600082825260208201905092915050565b600061507d82615056565b6150878185615061565b9350615097818560208601613582565b6150a0816135ac565b840191505092915050565b60006080820190506150c060008301876136ad565b6150cd60208301866136ad565b6150da6040830185613743565b81810360608301526150ec8184615072565b905095945050505050565b600081519050615106816134d7565b92915050565b600060208284031215615122576151216134a1565b5b6000615130848285016150f7565b91505092915050565b7f4e487b7100000000000000000000000000000000000000000000000000000000600052601260045260246000fd5b600061517382613618565b915061517e83613618565b92508261518e5761518d615139565b5b828204905092915050565b60006151a482613618565b91506151af83613618565b9250826151bf576151be615139565b5b828206905092915050565b7f4e487b7100000000000000000000000000000000000000000000000000000000600052605160045260246000fdfea26469706673582212208158653ce19d1a6849b3ddb38db3eb858874de190fa274c4d6a08b137fe179eb64736f6c63430008140033",
  "linkReferences": {},
  "deployedLinkReferences": {}
}