{
  "_format": "hh-sol-artifact-1",
  "contractName": "NFTMarketplace",
  "sourceName": "contracts/NFTMarketplace.sol",
  "abi": [
    {
      "inputs": [],
      "stateMutability": "nonpayable",
      "type": "constructor"
    },
    {
      "anonymous": false,
      "inputs": [
        {
          "indexed": true,
          "internalType": "address",
          "name": "owner",
          "type": "address"
        },
        {
          "indexed": true,
          "internalType": "address",
          "name": "approved",
          "type": "address"
        },
        {
          "indexed": true,
          "internalType": "uint256",
          "name": "tokenId",
          "type": "uint256"
        }
      ],
      "name": "Approval",
      "type": "event"
    },
    {
      "anonymous": false,
      "inputs": [
        {
          "indexed": true,
          "internalType": "address",
          "name": "owner",
          "type": "address"
        },
        {
          "indexed": true,
          "internalType": "address",
          "name": "operator",
          "type": "address"
        },
        {
          "indexed": false,
          "internalType": "bool",
          "name": "approved",
          "type": "bool"
        }
      ],
      "name": "ApprovalForAll",
      "type": "event"
    },
    {
      "anonymous": false,
      "inputs": [
        {
          "indexed": true,
          "internalType": "uint256",
          "name": "tokenId",
          "type": "uint256"
        },
        {
          "indexed": false,
          "internalType": "address",
          "name": "creator",
          "type": "address"
        },
        {
          "indexed": false,
          "internalType": "uint256",
          "name": "endTime",
          "type": "uint256"
        }
      ],
      "name": "AuctionCreated",
      "type": "event"
    },
    {
      "anonymous": false,
      "inputs": [
        {
          "indexed": true,
          "internalType": "uint256",
          "name": "tokenId",
          "type": "uint256"
        },
        {
          "indexed": false,
          "internalType": "address",
          "name": "winner",
          "type": "address"
        },
        {
          "indexed": false,
          "internalType": "uint256",
          "name": "winningBid",
          "type": "uint256"
        }
      ],
      "name": "AuctionEnded",
      "type": "event"
    },
    {
      "anonymous": false,
      "inputs": [
        {
          "indexed": true,
          "internalType": "uint256",
          "name": "tokenId",
          "type": "uint256"
        },
        {
          "indexed": false,
          "internalType": "address",
          "name": "bidder",
          "type": "address"
        },
        {
          "indexed": false,
          "internalType": "uint256",
          "name": "bidAmount",
          "type": "uint256"
        }
      ],
      "name": "BidPlaced",
      "type": "event"
    },
    {
      "anonymous": false,
      "inputs": [
        {
          "indexed": true,
          "internalType": "uint256",
          "name": "tokenId",
          "type": "uint256"
        },
        {
          "indexed": false,
          "internalType": "address",
          "name": "seller",
          "type": "address"
        },
        {
          "indexed": false,
          "internalType": "address",
          "name": "owner",
          "type": "address"
        },
        {
          "indexed": false,
          "internalType": "uint256",
          "name": "price",
          "type": "uint256"
        },
        {
          "indexed": false,
          "internalType": "bool",
          "name": "sold",
          "type": "bool"
        }
      ],
      "name": "MarketItemCreated",
      "type": "event"
    },
    {
      "anonymous": false,
      "inputs": [
        {
          "indexed": true,
          "internalType": "address",
          "name": "from",
          "type": "address"
        },
        {
          "indexed": true,
          "internalType": "address",
          "name": "to",
          "type": "address"
        },
        {
          "indexed": true,
          "internalType": "uint256",
          "name": "tokenId",
          "type": "uint256"
        }
      ],
      "name": "Transfer",
      "type": "event"
    },
    {
      "inputs": [
        {
          "internalType": "address",
          "name": "to",
          "type": "address"
        },
        {
          "internalType": "uint256",
          "name": "tokenId",
          "type": "uint256"
        }
      ],
      "name": "approve",
      "outputs": [],
      "stateMutability": "nonpayable",
      "type": "function"
    },
    {
      "inputs": [],
      "name": "auctionDuration",
      "outputs": [
        {
          "internalType": "uint256",
          "name": "",
          "type": "uint256"
        }
      ],
      "stateMutability": "view",
      "type": "function"
    },
    {
      "inputs": [],
      "name": "automateAuctions",
      "outputs": [],
      "stateMutability": "nonpayable",
      "type": "function"
    },
    {
      "inputs": [
        {
          "internalType": "address",
          "name": "owner",
          "type": "address"
        }
      ],
      "name": "balanceOf",
      "outputs": [
        {
          "internalType": "uint256",
          "name": "",
          "type": "uint256"
        }
      ],
      "stateMutability": "view",
      "type": "function"
    },
    {
      "inputs": [
        {
          "internalType": "uint256",
          "name": "tokenId",
          "type": "uint256"
        }
      ],
      "name": "buyNFT",
      "outputs": [],
      "stateMutability": "payable",
      "type": "function"
    },
    {
      "inputs": [],
      "name": "checkAndEndAuctions",
      "outputs": [],
      "stateMutability": "nonpayable",
      "type": "function"
    },
    {
      "inputs": [
        {
          "internalType": "uint256",
          "name": "tokenId",
          "type": "uint256"
        }
      ],
      "name": "createMarketSale",
      "outputs": [],
      "stateMutability": "nonpayable",
      "type": "function"
    },
    {
      "inputs": [
        {
          "internalType": "string",
          "name": "tokenURI",
          "type": "string"
        },
        {
          "internalType": "uint256",
          "name": "price",
          "type": "uint256"
        }
      ],
      "name": "createToken",
      "outputs": [
        {
          "internalType": "uint256",
          "name": "",
          "type": "uint256"
        }
      ],
      "stateMutability": "payable",
      "type": "function"
    },
    {
      "inputs": [
        {
          "internalType": "uint256",
          "name": "tokenId",
          "type": "uint256"
        }
      ],
      "name": "endAuction",
      "outputs": [],
      "stateMutability": "nonpayable",
      "type": "function"
    },
    {
      "inputs": [],
      "name": "fetchItemsListed",
      "outputs": [
        {
          "components": [
            {
              "internalType": "uint256",
              "name": "tokenId",
              "type": "uint256"
            },
            {
              "internalType": "address payable",
              "name": "seller",
              "type": "address"
            },
            {
              "internalType": "address payable",
              "name": "owner",
              "type": "address"
            },
            {
              "internalType": "uint256",
              "name": "price",
              "type": "uint256"
            },
            {
              "internalType": "bool",
              "name": "sold",
              "type": "bool"
            },
            {
              "internalType": "bool",
              "name": "isAuction",
              "type": "bool"
            },
            {
              "internalType": "uint256",
              "name": "endTime",
              "type": "uint256"
            }
          ],
          "internalType": "struct NFTMarketplace.MarketItem[]",
          "name": "",
          "type": "tuple[]"
        }
      ],
      "stateMutability": "view",
      "type": "function"
    },
    {
      "inputs": [],
      "name": "fetchMarketItems",
      "outputs": [
        {
          "components": [
            {
              "internalType": "uint256",
              "name": "tokenId",
              "type": "uint256"
            },
            {
              "internalType": "address payable",
              "name": "seller",
              "type": "address"
            },
            {
              "internalType": "address payable",
              "name": "owner",
              "type": "address"
            },
            {
              "internalType": "uint256",
              "name": "price",
              "type": "uint256"
            },
            {
              "internalType": "bool",
              "name": "sold",
              "type": "bool"
            },
            {
              "internalType": "bool",
              "name": "isAuction",
              "type": "bool"
            },
            {
              "internalType": "uint256",
              "name": "endTime",
              "type": "uint256"
            }
          ],
          "internalType": "struct NFTMarketplace.MarketItem[]",
          "name": "",
          "type": "tuple[]"
        }
      ],
      "stateMutability": "view",
      "type": "function"
    },
    {
      "inputs": [],
      "name": "fetchMyNFTs",
      "outputs": [
        {
          "components": [
            {
              "internalType": "uint256",
              "name": "tokenId",
              "type": "uint256"
            },
            {
              "internalType": "address payable",
              "name": "seller",
              "type": "address"
            },
            {
              "internalType": "address payable",
              "name": "owner",
              "type": "address"
            },
            {
              "internalType": "uint256",
              "name": "price",
              "type": "uint256"
            },
            {
              "internalType": "bool",
              "name": "sold",
              "type": "bool"
            },
            {
              "internalType": "bool",
              "name": "isAuction",
              "type": "bool"
            },
            {
              "internalType": "uint256",
              "name": "endTime",
              "type": "uint256"
            }
          ],
          "internalType": "struct NFTMarketplace.MarketItem[]",
          "name": "",
          "type": "tuple[]"
        }
      ],
      "stateMutability": "view",
      "type": "function"
    },
    {
      "inputs": [
        {
          "internalType": "uint256",
          "name": "tokenId",
          "type": "uint256"
        }
      ],
      "name": "fetchTokenDetails",
      "outputs": [
        {
          "components": [
            {
              "internalType": "uint256",
              "name": "tokenId",
              "type": "uint256"
            },
            {
              "internalType": "address payable",
              "name": "seller",
              "type": "address"
            },
            {
              "internalType": "address payable",
              "name": "owner",
              "type": "address"
            },
            {
              "internalType": "uint256",
              "name": "price",
              "type": "uint256"
            },
            {
              "internalType": "bool",
              "name": "sold",
              "type": "bool"
            },
            {
              "internalType": "bool",
              "name": "isAuction",
              "type": "bool"
            },
            {
              "internalType": "uint256",
              "name": "endTime",
              "type": "uint256"
            }
          ],
          "internalType": "struct NFTMarketplace.MarketItem",
          "name": "",
          "type": "tuple"
        }
      ],
      "stateMutability": "view",
      "type": "function"
    },
    {
      "inputs": [
        {
          "internalType": "uint256",
          "name": "tokenId",
          "type": "uint256"
        }
      ],
      "name": "getApproved",
      "outputs": [
        {
          "internalType": "address",
          "name": "",
          "type": "address"
        }
      ],
      "stateMutability": "view",
      "type": "function"
    },
    {
      "inputs": [],
      "name": "getListingPrice",
      "outputs": [
        {
          "internalType": "uint256",
          "name": "",
          "type": "uint256"
        }
      ],
      "stateMutability": "view",
      "type": "function"
    },
    {
      "inputs": [
        {
          "internalType": "address",
          "name": "owner",
          "type": "address"
        },
        {
          "internalType": "address",
          "name": "operator",
          "type": "address"
        }
      ],
      "name": "isApprovedForAll",
      "outputs": [
        {
          "internalType": "bool",
          "name": "",
          "type": "bool"
        }
      ],
      "stateMutability": "view",
      "type": "function"
    },
    {
      "inputs": [],
      "name": "lastAutomatedTime",
      "outputs": [
        {
          "internalType": "uint256",
          "name": "",
          "type": "uint256"
        }
      ],
      "stateMutability": "view",
      "type": "function"
    },
    {
      "inputs": [],
      "name": "listingPrice",
      "outputs": [
        {
          "internalType": "uint256",
          "name": "",
          "type": "uint256"
        }
      ],
      "stateMutability": "view",
      "type": "function"
    },
    {
      "inputs": [],
      "name": "name",
      "outputs": [
        {
          "internalType": "string",
          "name": "",
          "type": "string"
        }
      ],
      "stateMutability": "view",
      "type": "function"
    },
    {
      "inputs": [],
      "name": "owner",
      "outputs": [
        {
          "internalType": "address payable",
          "name": "",
          "type": "address"
        }
      ],
      "stateMutability": "view",
      "type": "function"
    },
    {
      "inputs": [
        {
          "internalType": "uint256",
          "name": "tokenId",
          "type": "uint256"
        }
      ],
      "name": "ownerOf",
      "outputs": [
        {
          "internalType": "address",
          "name": "",
          "type": "address"
        }
      ],
      "stateMutability": "view",
      "type": "function"
    },
    {
      "inputs": [
        {
          "internalType": "uint256",
          "name": "tokenId",
          "type": "uint256"
        }
      ],
      "name": "placeBid",
      "outputs": [],
      "stateMutability": "payable",
      "type": "function"
    },
    {
      "inputs": [
        {
          "internalType": "uint256",
          "name": "tokenId",
          "type": "uint256"
        },
        {
          "internalType": "uint256",
          "name": "price",
          "type": "uint256"
        }
      ],
      "name": "resellToken",
      "outputs": [],
      "stateMutability": "payable",
      "type": "function"
    },
    {
      "inputs": [
        {
          "internalType": "uint256",
          "name": "tokenId",
          "type": "uint256"
        },
        {
          "internalType": "uint256",
          "name": "startingPrice",
          "type": "uint256"
        }
      ],
      "name": "restartAuction",
      "outputs": [],
      "stateMutability": "nonpayable",
      "type": "function"
    },
    {
      "inputs": [
        {
          "internalType": "address",
          "name": "from",
          "type": "address"
        },
        {
          "internalType": "address",
          "name": "to",
          "type": "address"
        },
        {
          "internalType": "uint256",
          "name": "tokenId",
          "type": "uint256"
        }
      ],
      "name": "safeTransferFrom",
      "outputs": [],
      "stateMutability": "nonpayable",
      "type": "function"
    },
    {
      "inputs": [
        {
          "internalType": "address",
          "name": "from",
          "type": "address"
        },
        {
          "internalType": "address",
          "name": "to",
          "type": "address"
        },
        {
          "internalType": "uint256",
          "name": "tokenId",
          "type": "uint256"
        },
        {
          "internalType": "bytes",
          "name": "_data",
          "type": "bytes"
        }
      ],
      "name": "safeTransferFrom",
      "outputs": [],
      "stateMutability": "nonpayable",
      "type": "function"
    },
    {
      "inputs": [
        {
          "internalType": "address",
          "name": "operator",
          "type": "address"
        },
        {
          "internalType": "bool",
          "name": "approved",
          "type": "bool"
        }
      ],
      "name": "setApprovalForAll",
      "outputs": [],
      "stateMutability": "nonpayable",
      "type": "function"
    },
    {
      "inputs": [
        {
          "internalType": "bytes4",
          "name": "interfaceId",
          "type": "bytes4"
        }
      ],
      "name": "supportsInterface",
      "outputs": [
        {
          "internalType": "bool",
          "name": "",
          "type": "bool"
        }
      ],
      "stateMutability": "view",
      "type": "function"
    },
    {
      "inputs": [],
      "name": "symbol",
      "outputs": [
        {
          "internalType": "string",
          "name": "",
          "type": "string"
        }
      ],
      "stateMutability": "view",
      "type": "function"
    },
    {
      "inputs": [
        {
          "internalType": "uint256",
          "name": "tokenId",
          "type": "uint256"
        }
      ],
      "name": "tokenURI",
      "outputs": [
        {
          "internalType": "string",
          "name": "",
          "type": "string"
        }
      ],
      "stateMutability": "view",
      "type": "function"
    },
    {
      "inputs": [
        {
          "internalType": "address",
          "name": "from",
          "type": "address"
        },
        {
          "internalType": "address",
          "name": "to",
          "type": "address"
        },
        {
          "internalType": "uint256",
          "name": "tokenId",
          "type": "uint256"
        }
      ],
      "name": "transferFrom",
      "outputs": [],
      "stateMutability": "nonpayable",
      "type": "function"
    },
    {
      "inputs": [
        {
          "internalType": "uint256",
          "name": "_listingPrice",
          "type": "uint256"
        }
      ],
      "name": "updateListingPrice",
      "outputs": [],
      "stateMutability": "payable",
      "type": "function"
    }
  ],
  "bytecode": "0x60806040526658d15e17628000600955611c20600b553480156200002257600080fd5b506040518060400160405280601081526020017f4d657461766572736520546f6b656e73000000000000000000000000000000008152506040518060400160405280600481526020017f4d455454000000000000000000000000000000000000000000000000000000008152508160009081620000a091906200037d565b508060019081620000b291906200037d565b50505033600a60006101000a81548173ffffffffffffffffffffffffffffffffffffffff021916908373ffffffffffffffffffffffffffffffffffffffff16021790555042600c8190555062000464565b600081519050919050565b7f4e487b7100000000000000000000000000000000000000000000000000000000600052604160045260246000fd5b7f4e487b7100000000000000000000000000000000000000000000000000000000600052602260045260246000fd5b600060028204905060018216806200018557607f821691505b6020821081036200019b576200019a6200013d565b5b50919050565b60008190508160005260206000209050919050565b60006020601f8301049050919050565b600082821b905092915050565b600060088302620002057fffffffffffffffffffffffffffffffffffffffffffffffffffffffffffffffff82620001c6565b620002118683620001c6565b95508019841693508086168417925050509392505050565b6000819050919050565b6000819050919050565b60006200025e62000258620002528462000229565b62000233565b62000229565b9050919050565b6000819050919050565b6200027a836200023d565b62000292620002898262000265565b848454620001d3565b825550505050565b600090565b620002a96200029a565b620002b68184846200026f565b505050565b5b81811015620002de57620002d26000826200029f565b600181019050620002bc565b5050565b601f8211156200032d57620002f781620001a1565b6200030284620001b6565b8101602085101562000312578190505b6200032a6200032185620001b6565b830182620002bb565b50505b505050565b600082821c905092915050565b6000620003526000198460080262000332565b1980831691505092915050565b60006200036d83836200033f565b9150826002028217905092915050565b620003888262000103565b67ffffffffffffffff811115620003a457620003a36200010e565b5b620003b082546200016c565b620003bd828285620002e2565b600060209050601f831160018114620003f55760008415620003e0578287015190505b620003ec85826200035f565b8655506200045c565b601f1984166200040586620001a1565b60005b828110156200042f5784890151825560018201915060208501945060208101905062000408565b868310156200044f57848901516200044b601f8916826200033f565b8355505b6001600288020188555050505b505050505050565b615ba180620004746000396000f3fe6080604052600436106101e35760003560e01c80636352211e11610102578063b863a7cd11610095578063c78f19f911610064578063c78f19f914610696578063c87b56dd146106c1578063e219fc75146106fe578063e985e9c51461071a576101e3565b8063b863a7cd146105de578063b88d4fde1461061b578063b9a2de3a14610644578063be9af5361461066d576101e3565b806395d89b41116100d157806395d89b41146105525780639979ef451461057d578063a22cb46514610599578063ae677aa3146105c2576101e3565b80636352211e1461047d57806370a08231146104ba57806372b3b620146104f75780638da5cb5b14610527576101e3565b8063202e37401161017a5780634700c27e116101495780634700c27e146103f657806351ed82881461040d5780635333f18c1461042957806356f2855514610452576101e3565b8063202e37401461034e57806323b872dd1461037957806342842e0e146103a257806345f8fa80146103cb576101e3565b8063095ea7b3116101b6578063095ea7b3146102a45780630cbf54c8146102cd5780630f08efe0146102f857806312e8558514610323576101e3565b806301ffc9a7146101e857806303bb502f1461022557806306fdde031461023c578063081812fc14610267575b600080fd5b3480156101f457600080fd5b5061020f600480360381019061020a9190613be1565b610757565b60405161021c9190613c29565b60405180910390f35b34801561023157600080fd5b5061023a610839565b005b34801561024857600080fd5b506102516108af565b60405161025e9190613cd4565b60405180910390f35b34801561027357600080fd5b5061028e60048036038101906102899190613d2c565b610941565b60405161029b9190613d9a565b60405180910390f35b3480156102b057600080fd5b506102cb60048036038101906102c69190613de1565b6109c6565b005b3480156102d957600080fd5b506102e2610add565b6040516102ef9190613e30565b60405180910390f35b34801561030457600080fd5b5061030d610ae3565b60405161031a9190613fc7565b60405180910390f35b34801561032f57600080fd5b50610338610d46565b6040516103459190613e30565b60405180910390f35b34801561035a57600080fd5b50610363610d50565b6040516103709190613fc7565b60405180910390f35b34801561038557600080fd5b506103a0600480360381019061039b9190613fe9565b61103c565b005b3480156103ae57600080fd5b506103c960048036038101906103c49190613fe9565b61109c565b005b3480156103d757600080fd5b506103e06110bc565b6040516103ed9190613fc7565b60405180910390f35b34801561040257600080fd5b5061040b6113a8565b005b61042760048036038101906104229190613d2c565b61140a565b005b34801561043557600080fd5b50610450600480360381019061044b919061403c565b611650565b005b34801561045e57600080fd5b5061046761193c565b6040516104749190613e30565b60405180910390f35b34801561048957600080fd5b506104a4600480360381019061049f9190613d2c565b611942565b6040516104b19190613d9a565b60405180910390f35b3480156104c657600080fd5b506104e160048036038101906104dc919061407c565b6119f3565b6040516104ee9190613e30565b60405180910390f35b610511600480360381019061050c91906141de565b611aaa565b60405161051e9190613e30565b60405180910390f35b34801561053357600080fd5b5061053c611af5565b6040516105499190614249565b60405180910390f35b34801561055e57600080fd5b50610567611b1b565b6040516105749190613cd4565b60405180910390f35b61059760048036038101906105929190613d2c565b611bad565b005b3480156105a557600080fd5b506105c060048036038101906105bb9190614290565b611e32565b005b6105dc60048036038101906105d79190613d2c565b611e48565b005b3480156105ea57600080fd5b5061060560048036038101906106009190613d2c565b611ee2565b604051610612919061435e565b60405180910390f35b34801561062757600080fd5b50610642600480360381019061063d919061441a565b61200f565b005b34801561065057600080fd5b5061066b60048036038101906106669190613d2c565b612071565b005b34801561067957600080fd5b50610694600480360381019061068f9190613d2c565b612511565b005b3480156106a257600080fd5b506106ab612525565b6040516106b89190613e30565b60405180910390f35b3480156106cd57600080fd5b506106e860048036038101906106e39190613d2c565b61252b565b6040516106f59190613cd4565b60405180910390f35b6107186004803603810190610713919061403c565b61267c565b005b34801561072657600080fd5b50610741600480360381019061073c919061449d565b6128ae565b60405161074e9190613c29565b60405180910390f35b60007f80ac58cd000000000000000000000000000000000000000000000000000000007bffffffffffffffffffffffffffffffffffffffffffffffffffffffff1916827bffffffffffffffffffffffffffffffffffffffffffffffffffffffff1916148061082257507f5b5e139f000000000000000000000000000000000000000000000000000000007bffffffffffffffffffffffffffffffffffffffffffffffffffffffff1916827bffffffffffffffffffffffffffffffffffffffffffffffffffffffff1916145b80610832575061083182612942565b5b9050919050565b600060075490506000600190505b8181116108ab576000600d600083815260200190815260200160002090508060040160009054906101000a900460ff16158015610888575080600301544210155b156108975761089682612071565b5b5080806108a39061450c565b915050610847565b5050565b6060600080546108be90614583565b80601f01602080910402602001604051908101604052809291908181526020018280546108ea90614583565b80156109375780601f1061090c57610100808354040283529160200191610937565b820191906000526020600020905b81548152906001019060200180831161091a57829003601f168201915b5050505050905090565b600061094c826129ac565b61098b576040517f08c379a000000000000000000000000000000000000000000000000000000000815260040161098290614626565b60405180910390fd5b6004600083815260200190815260200160002060009054906101000a900473ffffffffffffffffffffffffffffffffffffffff169050919050565b60006109d182611942565b90508073ffffffffffffffffffffffffffffffffffffffff168373ffffffffffffffffffffffffffffffffffffffff1603610a41576040517f08c379a0000000000000000000000000000000000000000000000000000000008152600401610a38906146b8565b60405180910390fd5b8073ffffffffffffffffffffffffffffffffffffffff16610a60612a18565b73ffffffffffffffffffffffffffffffffffffffff161480610a8f5750610a8e81610a89612a18565b6128ae565b5b610ace576040517f08c379a0000000000000000000000000000000000000000000000000000000008152600401610ac59061474a565b60405180910390fd5b610ad88383612a20565b505050565b600b5481565b6060600060075490506000600854600754610afe919061476a565b90506000808267ffffffffffffffff811115610b1d57610b1c6140b3565b5b604051908082528060200260200182016040528015610b5657816020015b610b43613afe565b815260200190600190039081610b3b5790505b5090506000600190505b848111610d3b573073ffffffffffffffffffffffffffffffffffffffff16600e600083815260200190815260200160002060020160009054906101000a900473ffffffffffffffffffffffffffffffffffffffff1673ffffffffffffffffffffffffffffffffffffffff1603610d285760008190506000600e60008381526020019081526020016000209050806040518060e0016040529081600082015481526020016001820160009054906101000a900473ffffffffffffffffffffffffffffffffffffffff1673ffffffffffffffffffffffffffffffffffffffff1673ffffffffffffffffffffffffffffffffffffffff1681526020016002820160009054906101000a900473ffffffffffffffffffffffffffffffffffffffff1673ffffffffffffffffffffffffffffffffffffffff1673ffffffffffffffffffffffffffffffffffffffff168152602001600382015481526020016004820160009054906101000a900460ff161515151581526020016004820160019054906101000a900460ff16151515158152602001600582015481525050848681518110610d0b57610d0a61479e565b5b6020026020010181905250600185610d2391906147cd565b945050505b8080610d339061450c565b915050610b60565b508094505050505090565b6000600954905090565b6060600060075490506000806000600190505b838111610df6573373ffffffffffffffffffffffffffffffffffffffff16600e600083815260200190815260200160002060020160009054906101000a900473ffffffffffffffffffffffffffffffffffffffff1673ffffffffffffffffffffffffffffffffffffffff1603610de357600183610de091906147cd565b92505b8080610dee9061450c565b915050610d63565b5060008267ffffffffffffffff811115610e1357610e126140b3565b5b604051908082528060200260200182016040528015610e4c57816020015b610e39613afe565b815260200190600190039081610e315790505b5090506000600190505b848111611031573373ffffffffffffffffffffffffffffffffffffffff16600e600083815260200190815260200160002060020160009054906101000a900473ffffffffffffffffffffffffffffffffffffffff1673ffffffffffffffffffffffffffffffffffffffff160361101e5760008190506000600e60008381526020019081526020016000209050806040518060e0016040529081600082015481526020016001820160009054906101000a900473ffffffffffffffffffffffffffffffffffffffff1673ffffffffffffffffffffffffffffffffffffffff1673ffffffffffffffffffffffffffffffffffffffff1681526020016002820160009054906101000a900473ffffffffffffffffffffffffffffffffffffffff1673ffffffffffffffffffffffffffffffffffffffff1673ffffffffffffffffffffffffffffffffffffffff168152602001600382015481526020016004820160009054906101000a900460ff161515151581526020016004820160019054906101000a900460ff161515151581526020016005820154815250508486815181106110015761100061479e565b5b602002602001018190525060018561101991906147cd565b945050505b80806110299061450c565b915050610e56565b508094505050505090565b61104d611047612a18565b82612ad9565b61108c576040517f08c379a000000000000000000000000000000000000000000000000000000000815260040161108390614873565b60405180910390fd5b611097838383612bb7565b505050565b6110b78383836040518060200160405280600081525061200f565b505050565b6060600060075490506000806000600190505b838111611162573373ffffffffffffffffffffffffffffffffffffffff16600e600083815260200190815260200160002060010160009054906101000a900473ffffffffffffffffffffffffffffffffffffffff1673ffffffffffffffffffffffffffffffffffffffff160361114f5760018361114c91906147cd565b92505b808061115a9061450c565b9150506110cf565b5060008267ffffffffffffffff81111561117f5761117e6140b3565b5b6040519080825280602002602001820160405280156111b857816020015b6111a5613afe565b81526020019060019003908161119d5790505b5090506000600190505b84811161139d573373ffffffffffffffffffffffffffffffffffffffff16600e600083815260200190815260200160002060010160009054906101000a900473ffffffffffffffffffffffffffffffffffffffff1673ffffffffffffffffffffffffffffffffffffffff160361138a5760008190506000600e60008381526020019081526020016000209050806040518060e0016040529081600082015481526020016001820160009054906101000a900473ffffffffffffffffffffffffffffffffffffffff1673ffffffffffffffffffffffffffffffffffffffff1673ffffffffffffffffffffffffffffffffffffffff1681526020016002820160009054906101000a900473ffffffffffffffffffffffffffffffffffffffff1673ffffffffffffffffffffffffffffffffffffffff1673ffffffffffffffffffffffffffffffffffffffff168152602001600382015481526020016004820160009054906101000a900460ff161515151581526020016004820160019054906101000a900460ff1615151515815260200160058201548152505084868151811061136d5761136c61479e565b5b602002602001018190525060018561138591906147cd565b945050505b80806113959061450c565b9150506111c2565b508094505050505090565b6078600c546113b791906147cd565b4210156113f9576040517f08c379a00000000000000000000000000000000000000000000000000000000081526004016113f0906148df565b60405180910390fd5b42600c81905550611408610839565b565b6000600e6000838152602001908152602001600020600301549050803414611467576040517f08c379a000000000000000000000000000000000000000000000000000000000815260040161145e90614971565b60405180910390fd5b33600e600084815260200190815260200160002060020160006101000a81548173ffffffffffffffffffffffffffffffffffffffff021916908373ffffffffffffffffffffffffffffffffffffffff1602179055506001600e600084815260200190815260200160002060040160006101000a81548160ff0219169083151502179055506000600e600084815260200190815260200160002060010160006101000a81548173ffffffffffffffffffffffffffffffffffffffff021916908373ffffffffffffffffffffffffffffffffffffffff160217905550600860008154809291906115549061450c565b9190505550611564303384612bb7565b600a60009054906101000a900473ffffffffffffffffffffffffffffffffffffffff1673ffffffffffffffffffffffffffffffffffffffff166108fc6009549081150290604051600060405180830381858888f193505050501580156115ce573d6000803e3d6000fd5b50600e600083815260200190815260200160002060010160009054906101000a900473ffffffffffffffffffffffffffffffffffffffff1673ffffffffffffffffffffffffffffffffffffffff166108fc349081150290604051600060405180830381858888f1935050505015801561164b573d6000803e3d6000fd5b505050565b61165982611942565b73ffffffffffffffffffffffffffffffffffffffff163373ffffffffffffffffffffffffffffffffffffffff1614806116f357503373ffffffffffffffffffffffffffffffffffffffff16600e600084815260200190815260200160002060010160009054906101000a900473ffffffffffffffffffffffffffffffffffffffff1673ffffffffffffffffffffffffffffffffffffffff16145b611732576040517f08c379a000000000000000000000000000000000000000000000000000000000815260040161172990614a29565b60405180910390fd5b600e600083815260200190815260200160002060040160019054906101000a900460ff16611795576040517f08c379a000000000000000000000000000000000000000000000000000000000815260040161178c90614abb565b60405180910390fd5b600e600083815260200190815260200160002060040160009054906101000a900460ff16156117f9576040517f08c379a00000000000000000000000000000000000000000000000000000000081526004016117f090614b27565b60405180910390fd5b6000600b544261180991906147cd565b90506000600d600085815260200190815260200160002060010160006101000a81548173ffffffffffffffffffffffffffffffffffffffff021916908373ffffffffffffffffffffffffffffffffffffffff1602179055506000600d60008581526020019081526020016000206002018190555080600d6000858152602001908152602001600020600301819055506000600d600085815260200190815260200160002060040160006101000a81548160ff02191690831515021790555081600e60008581526020019081526020016000206003018190555080600e600085815260200190815260200160002060050181905550827f6ff530872708bbb51bad8ea341564e4ea039807ad1331f61ab4c906a66875daf338360405161192f929190614b47565b60405180910390a2505050565b600c5481565b6000806002600084815260200190815260200160002060009054906101000a900473ffffffffffffffffffffffffffffffffffffffff169050600073ffffffffffffffffffffffffffffffffffffffff168173ffffffffffffffffffffffffffffffffffffffff16036119ea576040517f08c379a00000000000000000000000000000000000000000000000000000000081526004016119e190614be2565b60405180910390fd5b80915050919050565b60008073ffffffffffffffffffffffffffffffffffffffff168273ffffffffffffffffffffffffffffffffffffffff1603611a63576040517f08c379a0000000000000000000000000000000000000000000000000000000008152600401611a5a90614c74565b60405180910390fd5b600360008373ffffffffffffffffffffffffffffffffffffffff1673ffffffffffffffffffffffffffffffffffffffff168152602001908152602001600020549050919050565b600060076000815480929190611abf9061450c565b919050555060006007549050611ad53382612e1d565b611adf8185612ff6565b611aeb81846001613063565b8091505092915050565b600a60009054906101000a900473ffffffffffffffffffffffffffffffffffffffff1681565b606060018054611b2a90614583565b80601f0160208091040260200160405190810160405280929190818152602001828054611b5690614583565b8015611ba35780601f10611b7857610100808354040283529160200191611ba3565b820191906000526020600020905b815481529060010190602001808311611b8657829003601f168201915b5050505050905090565b6000600d6000838152602001908152602001600020905080600301544210611c0a576040517f08c379a0000000000000000000000000000000000000000000000000000000008152600401611c0190614ce0565b60405180910390fd5b8060050154341015611c51576040517f08c379a0000000000000000000000000000000000000000000000000000000008152600401611c4890614d72565b60405180910390fd5b8060020154341115611e2e57600073ffffffffffffffffffffffffffffffffffffffff168160010160009054906101000a900473ffffffffffffffffffffffffffffffffffffffff1673ffffffffffffffffffffffffffffffffffffffff1614611d25578060010160009054906101000a900473ffffffffffffffffffffffffffffffffffffffff1673ffffffffffffffffffffffffffffffffffffffff166108fc82600201549081150290604051600060405180830381858888f19350505050158015611d23573d6000803e3d6000fd5b505b611d646040518060400160405280601881526020017f506c6163696e672062696420666f7220746f6b656e49643a000000000000000081525083613482565b611da76040518060400160405280601181526020017f41756374696f6e20656e642074696d653a0000000000000000000000000000008152508260030154613482565b338160010160006101000a81548173ffffffffffffffffffffffffffffffffffffffff021916908373ffffffffffffffffffffffffffffffffffffffff160217905550348160020181905550817f0e54eff26401bf69b81b26f60bd85ef47f5d85275c1d268d84f68d6897431c473334604051611e25929190614b47565b60405180910390a25b5050565b611e44611e3d612a18565b838361351e565b5050565b3373ffffffffffffffffffffffffffffffffffffffff16600a60009054906101000a900473ffffffffffffffffffffffffffffffffffffffff1673ffffffffffffffffffffffffffffffffffffffff1614611ed8576040517f08c379a0000000000000000000000000000000000000000000000000000000008152600401611ecf90614e04565b60405180910390fd5b8060098190555050565b611eea613afe565b600e60008381526020019081526020016000206040518060e0016040529081600082015481526020016001820160009054906101000a900473ffffffffffffffffffffffffffffffffffffffff1673ffffffffffffffffffffffffffffffffffffffff1673ffffffffffffffffffffffffffffffffffffffff1681526020016002820160009054906101000a900473ffffffffffffffffffffffffffffffffffffffff1673ffffffffffffffffffffffffffffffffffffffff1673ffffffffffffffffffffffffffffffffffffffff168152602001600382015481526020016004820160009054906101000a900460ff161515151581526020016004820160019054906101000a900460ff161515151581526020016005820154815250509050919050565b61202061201a612a18565b83612ad9565b61205f576040517f08c379a000000000000000000000000000000000000000000000000000000000815260040161205690614873565b60405180910390fd5b61206b8484848461368a565b50505050565b6120b06040518060400160405280601b81526020017f456e64696e672061756374696f6e20666f7220746f6b656e49643a000000000081525082613482565b6000600d600083815260200190815260200160002090508060040160009054906101000a900460ff1615612119576040517f08c379a000000000000000000000000000000000000000000000000000000000815260040161211090614e70565b60405180910390fd5b8060030154421015612160576040517f08c379a000000000000000000000000000000000000000000000000000000000815260040161215790614edc565b60405180910390fd5b60018160040160006101000a81548160ff021916908315150217905550600073ffffffffffffffffffffffffffffffffffffffff168160010160009054906101000a900473ffffffffffffffffffffffffffffffffffffffff1673ffffffffffffffffffffffffffffffffffffffff161461248c57612204308260010160009054906101000a900473ffffffffffffffffffffffffffffffffffffffff1684612bb7565b8060020154600e600084815260200190815260200160002060030181905550600e600083815260200190815260200160002060010160009054906101000a900473ffffffffffffffffffffffffffffffffffffffff1673ffffffffffffffffffffffffffffffffffffffff166108fc82600201549081150290604051600060405180830381858888f193505050501580156122a3573d6000803e3d6000fd5b506001600e600084815260200190815260200160002060040160006101000a81548160ff0219169083151502179055508060010160009054906101000a900473ffffffffffffffffffffffffffffffffffffffff16600e600084815260200190815260200160002060020160006101000a81548173ffffffffffffffffffffffffffffffffffffffff021916908373ffffffffffffffffffffffffffffffffffffffff1602179055506000600e600084815260200190815260200160002060010160006101000a81548173ffffffffffffffffffffffffffffffffffffffff021916908373ffffffffffffffffffffffffffffffffffffffff160217905550600860008154809291906123b59061450c565b9190505550600a60009054906101000a900473ffffffffffffffffffffffffffffffffffffffff1673ffffffffffffffffffffffffffffffffffffffff166108fc6009549081150290604051600060405180830381858888f19350505050158015612424573d6000803e3d6000fd5b50817fd2aa34a4fdbbc6dff6a3e56f46e0f3ae2a31d7785ff3487aa5c95c642acea5018260010160009054906101000a900473ffffffffffffffffffffffffffffffffffffffff16836002015460405161247f929190614f5b565b60405180910390a26124ce565b6124cd30600e600085815260200190815260200160002060010160009054906101000a900473ffffffffffffffffffffffffffffffffffffffff1684612bb7565b5b61250d6040518060400160405280601a81526020017f41756374696f6e20656e64656420666f7220746f6b656e49643a00000000000081525083613482565b5050565b61251a81612071565b612522610839565b50565b60095481565b6060612536826129ac565b612575576040517f08c379a000000000000000000000000000000000000000000000000000000000815260040161256c90614ff6565b60405180910390fd5b600060066000848152602001908152602001600020805461259590614583565b80601f01602080910402602001604051908101604052809291908181526020018280546125c190614583565b801561260e5780601f106125e35761010080835404028352916020019161260e565b820191906000526020600020905b8154815290600101906020018083116125f157829003601f168201915b50505050509050600061261f6136e6565b90506000815103612634578192505050612677565b600082511115612669578082604051602001612651929190615052565b60405160208183030381529060405292505050612677565b612672846136fd565b925050505b919050565b3373ffffffffffffffffffffffffffffffffffffffff16600e600084815260200190815260200160002060020160009054906101000a900473ffffffffffffffffffffffffffffffffffffffff1673ffffffffffffffffffffffffffffffffffffffff1614612720576040517f08c379a0000000000000000000000000000000000000000000000000000000008152600401612717906150e8565b60405180910390fd5b6009543414612764576040517f08c379a000000000000000000000000000000000000000000000000000000000815260040161275b9061517a565b60405180910390fd5b6000600e600084815260200190815260200160002060040160006101000a81548160ff02191690831515021790555080600e6000848152602001908152602001600020600301819055506000600e600084815260200190815260200160002060040160016101000a81548160ff02191690831515021790555033600e600084815260200190815260200160002060010160006101000a81548173ffffffffffffffffffffffffffffffffffffffff021916908373ffffffffffffffffffffffffffffffffffffffff16021790555030600e600084815260200190815260200160002060020160006101000a81548173ffffffffffffffffffffffffffffffffffffffff021916908373ffffffffffffffffffffffffffffffffffffffff1602179055506008600081548092919061289a9061519a565b91905055506128aa333084612bb7565b5050565b6000600560008473ffffffffffffffffffffffffffffffffffffffff1673ffffffffffffffffffffffffffffffffffffffff16815260200190815260200160002060008373ffffffffffffffffffffffffffffffffffffffff1673ffffffffffffffffffffffffffffffffffffffff16815260200190815260200160002060009054906101000a900460ff16905092915050565b60007f01ffc9a7000000000000000000000000000000000000000000000000000000007bffffffffffffffffffffffffffffffffffffffffffffffffffffffff1916827bffffffffffffffffffffffffffffffffffffffffffffffffffffffff1916149050919050565b60008073ffffffffffffffffffffffffffffffffffffffff166002600084815260200190815260200160002060009054906101000a900473ffffffffffffffffffffffffffffffffffffffff1673ffffffffffffffffffffffffffffffffffffffff1614159050919050565b600033905090565b816004600083815260200190815260200160002060006101000a81548173ffffffffffffffffffffffffffffffffffffffff021916908373ffffffffffffffffffffffffffffffffffffffff160217905550808273ffffffffffffffffffffffffffffffffffffffff16612a9383611942565b73ffffffffffffffffffffffffffffffffffffffff167f8c5be1e5ebec7d5bd14f71427d1e84f3dd0314c0f7b2291e5b200ac8c7c3b92560405160405180910390a45050565b6000612ae4826129ac565b612b23576040517f08c379a0000000000000000000000000000000000000000000000000000000008152600401612b1a90615235565b60405180910390fd5b6000612b2e83611942565b90508073ffffffffffffffffffffffffffffffffffffffff168473ffffffffffffffffffffffffffffffffffffffff161480612b9d57508373ffffffffffffffffffffffffffffffffffffffff16612b8584610941565b73ffffffffffffffffffffffffffffffffffffffff16145b80612bae5750612bad81856128ae565b5b91505092915050565b8273ffffffffffffffffffffffffffffffffffffffff16612bd782611942565b73ffffffffffffffffffffffffffffffffffffffff1614612c2d576040517f08c379a0000000000000000000000000000000000000000000000000000000008152600401612c24906152c7565b60405180910390fd5b600073ffffffffffffffffffffffffffffffffffffffff168273ffffffffffffffffffffffffffffffffffffffff1603612c9c576040517f08c379a0000000000000000000000000000000000000000000000000000000008152600401612c9390615359565b60405180910390fd5b612ca78383836137a4565b612cb2600082612a20565b6001600360008573ffffffffffffffffffffffffffffffffffffffff1673ffffffffffffffffffffffffffffffffffffffff1681526020019081526020016000206000828254612d02919061476a565b925050819055506001600360008473ffffffffffffffffffffffffffffffffffffffff1673ffffffffffffffffffffffffffffffffffffffff1681526020019081526020016000206000828254612d5991906147cd565b92505081905550816002600083815260200190815260200160002060006101000a81548173ffffffffffffffffffffffffffffffffffffffff021916908373ffffffffffffffffffffffffffffffffffffffff160217905550808273ffffffffffffffffffffffffffffffffffffffff168473ffffffffffffffffffffffffffffffffffffffff167fddf252ad1be2c89b69c2b068fc378daa952ba7f163c4a11628f55a4df523b3ef60405160405180910390a4612e188383836137a9565b505050565b600073ffffffffffffffffffffffffffffffffffffffff168273ffffffffffffffffffffffffffffffffffffffff1603612e8c576040517f08c379a0000000000000000000000000000000000000000000000000000000008152600401612e83906153c5565b60405180910390fd5b612e95816129ac565b15612ed5576040517f08c379a0000000000000000000000000000000000000000000000000000000008152600401612ecc90615431565b60405180910390fd5b612ee1600083836137a4565b6001600360008473ffffffffffffffffffffffffffffffffffffffff1673ffffffffffffffffffffffffffffffffffffffff1681526020019081526020016000206000828254612f3191906147cd565b92505081905550816002600083815260200190815260200160002060006101000a81548173ffffffffffffffffffffffffffffffffffffffff021916908373ffffffffffffffffffffffffffffffffffffffff160217905550808273ffffffffffffffffffffffffffffffffffffffff16600073ffffffffffffffffffffffffffffffffffffffff167fddf252ad1be2c89b69c2b068fc378daa952ba7f163c4a11628f55a4df523b3ef60405160405180910390a4612ff2600083836137a9565b5050565b612fff826129ac565b61303e576040517f08c379a0000000000000000000000000000000000000000000000000000000008152600401613035906154c3565b60405180910390fd5b8060066000848152602001908152602001600020908161305e9190615685565b505050565b600082116130a6576040517f08c379a000000000000000000000000000000000000000000000000000000000815260040161309d906157a3565b60405180910390fd5b60095434146130ea576040517f08c379a00000000000000000000000000000000000000000000000000000000081526004016130e19061517a565b60405180910390fd5b6000600b54426130fa91906147cd565b90506040518060e001604052808581526020013373ffffffffffffffffffffffffffffffffffffffff1681526020013073ffffffffffffffffffffffffffffffffffffffff168152602001848152602001600015158152602001831515815260200182815250600e60008681526020019081526020016000206000820151816000015560208201518160010160006101000a81548173ffffffffffffffffffffffffffffffffffffffff021916908373ffffffffffffffffffffffffffffffffffffffff16021790555060408201518160020160006101000a81548173ffffffffffffffffffffffffffffffffffffffff021916908373ffffffffffffffffffffffffffffffffffffffff1602179055506060820151816003015560808201518160040160006101000a81548160ff02191690831515021790555060a08201518160040160016101000a81548160ff02191690831515021790555060c082015181600501559050506040518060c00160405280858152602001600073ffffffffffffffffffffffffffffffffffffffff16815260200184815260200182815260200160001515815260200184815250600d60008681526020019081526020016000206000820151816000015560208201518160010160006101000a81548173ffffffffffffffffffffffffffffffffffffffff021916908373ffffffffffffffffffffffffffffffffffffffff160217905550604082015181600201556060820151816003015560808201518160040160006101000a81548160ff02191690831515021790555060a0820151816005015590505061338d6040518060400160405280601c81526020017f41756374696f6e206372656174656420666f7220746f6b656e49643a0000000081525085613482565b6133e26040518060400160405280601181526020017f41756374696f6e20656e642074696d653a000000000000000000000000000000815250600d600087815260200190815260200160002060030154613482565b837f6ff530872708bbb51bad8ea341564e4ea039807ad1331f61ab4c906a66875daf33600d60008881526020019081526020016000206003015460405161342a929190614b47565b60405180910390a261343d333086612bb7565b837fb640004f1d14576d0c209e240cad0410e0d8c0c33a09375861fbadae2588a98d333086600060405161347494939291906157c3565b60405180910390a250505050565b61351a8282604051602401613498929190615808565b6040516020818303038152906040527fb60e72cc000000000000000000000000000000000000000000000000000000007bffffffffffffffffffffffffffffffffffffffffffffffffffffffff19166020820180517bffffffffffffffffffffffffffffffffffffffffffffffffffffffff83818316178352505050506137ae565b5050565b8173ffffffffffffffffffffffffffffffffffffffff168373ffffffffffffffffffffffffffffffffffffffff160361358c576040517f08c379a000000000000000000000000000000000000000000000000000000000815260040161358390615884565b60405180910390fd5b80600560008573ffffffffffffffffffffffffffffffffffffffff1673ffffffffffffffffffffffffffffffffffffffff16815260200190815260200160002060008473ffffffffffffffffffffffffffffffffffffffff1673ffffffffffffffffffffffffffffffffffffffff16815260200190815260200160002060006101000a81548160ff0219169083151502179055508173ffffffffffffffffffffffffffffffffffffffff168373ffffffffffffffffffffffffffffffffffffffff167f17307eab39ab6107e8899845ad3d59bd9653f200f220920489ca2b5937696c318360405161367d9190613c29565b60405180910390a3505050565b613695848484612bb7565b6136a1848484846137c8565b6136e0576040517f08c379a00000000000000000000000000000000000000000000000000000000081526004016136d790615916565b60405180910390fd5b50505050565b606060405180602001604052806000815250905090565b6060613708826129ac565b613747576040517f08c379a000000000000000000000000000000000000000000000000000000000815260040161373e906159a8565b60405180910390fd5b60006137516136e6565b90506000815111613771576040518060200160405280600081525061379c565b8061377b8461394f565b60405160200161378c929190615052565b6040516020818303038152906040525b915050919050565b505050565b505050565b6137c5816137bd613aaf613ad0565b63ffffffff16565b50565b60006137e98473ffffffffffffffffffffffffffffffffffffffff16613adb565b15613942578373ffffffffffffffffffffffffffffffffffffffff1663150b7a02613812612a18565b8786866040518563ffffffff1660e01b81526004016138349493929190615a1d565b6020604051808303816000875af192505050801561387057506040513d601f19601f8201168201806040525081019061386d9190615a7e565b60015b6138f2573d80600081146138a0576040519150601f19603f3d011682016040523d82523d6000602084013e6138a5565b606091505b5060008151036138ea576040517f08c379a00000000000000000000000000000000000000000000000000000000081526004016138e190615916565b60405180910390fd5b805181602001fd5b63150b7a0260e01b7bffffffffffffffffffffffffffffffffffffffffffffffffffffffff1916817bffffffffffffffffffffffffffffffffffffffffffffffffffffffff191614915050613947565b600190505b949350505050565b606060008203613996576040518060400160405280600181526020017f30000000000000000000000000000000000000000000000000000000000000008152509050613aaa565b600082905060005b600082146139c85780806139b19061450c565b915050600a826139c19190615ada565b915061399e565b60008167ffffffffffffffff8111156139e4576139e36140b3565b5b6040519080825280601f01601f191660200182016040528015613a165781602001600182028036833780820191505090505b5090505b60008514613aa357600182613a2f919061476a565b9150600a85613a3e9190615b0b565b6030613a4a91906147cd565b60f81b818381518110613a6057613a5f61479e565b5b60200101907effffffffffffffffffffffffffffffffffffffffffffffffffffffffffffff1916908160001a905350600a85613a9c9190615ada565b9450613a1a565b8093505050505b919050565b60006a636f6e736f6c652e6c6f679050600080835160208501845afa505050565b613b6b819050919050565b6000808273ffffffffffffffffffffffffffffffffffffffff163b119050919050565b6040518060e0016040528060008152602001600073ffffffffffffffffffffffffffffffffffffffff168152602001600073ffffffffffffffffffffffffffffffffffffffff16815260200160008152602001600015158152602001600015158152602001600081525090565b613b73615b3c565b565b6000604051905090565b600080fd5b600080fd5b60007fffffffff0000000000000000000000000000000000000000000000000000000082169050919050565b613bbe81613b89565b8114613bc957600080fd5b50565b600081359050613bdb81613bb5565b92915050565b600060208284031215613bf757613bf6613b7f565b5b6000613c0584828501613bcc565b91505092915050565b60008115159050919050565b613c2381613c0e565b82525050565b6000602082019050613c3e6000830184613c1a565b92915050565b600081519050919050565b600082825260208201905092915050565b60005b83811015613c7e578082015181840152602081019050613c63565b60008484015250505050565b6000601f19601f8301169050919050565b6000613ca682613c44565b613cb08185613c4f565b9350613cc0818560208601613c60565b613cc981613c8a565b840191505092915050565b60006020820190508181036000830152613cee8184613c9b565b905092915050565b6000819050919050565b613d0981613cf6565b8114613d1457600080fd5b50565b600081359050613d2681613d00565b92915050565b600060208284031215613d4257613d41613b7f565b5b6000613d5084828501613d17565b91505092915050565b600073ffffffffffffffffffffffffffffffffffffffff82169050919050565b6000613d8482613d59565b9050919050565b613d9481613d79565b82525050565b6000602082019050613daf6000830184613d8b565b92915050565b613dbe81613d79565b8114613dc957600080fd5b50565b600081359050613ddb81613db5565b92915050565b60008060408385031215613df857613df7613b7f565b5b6000613e0685828601613dcc565b9250506020613e1785828601613d17565b9150509250929050565b613e2a81613cf6565b82525050565b6000602082019050613e456000830184613e21565b92915050565b600081519050919050565b600082825260208201905092915050565b6000819050602082019050919050565b613e8081613cf6565b82525050565b6000613e9182613d59565b9050919050565b613ea181613e86565b82525050565b613eb081613c0e565b82525050565b60e082016000820151613ecc6000850182613e77565b506020820151613edf6020850182613e98565b506040820151613ef26040850182613e98565b506060820151613f056060850182613e77565b506080820151613f186080850182613ea7565b5060a0820151613f2b60a0850182613ea7565b5060c0820151613f3e60c0850182613e77565b50505050565b6000613f508383613eb6565b60e08301905092915050565b6000602082019050919050565b6000613f7482613e4b565b613f7e8185613e56565b9350613f8983613e67565b8060005b83811015613fba578151613fa18882613f44565b9750613fac83613f5c565b925050600181019050613f8d565b5085935050505092915050565b60006020820190508181036000830152613fe18184613f69565b905092915050565b60008060006060848603121561400257614001613b7f565b5b600061401086828701613dcc565b935050602061402186828701613dcc565b925050604061403286828701613d17565b9150509250925092565b6000806040838503121561405357614052613b7f565b5b600061406185828601613d17565b925050602061407285828601613d17565b9150509250929050565b60006020828403121561409257614091613b7f565b5b60006140a084828501613dcc565b91505092915050565b600080fd5b600080fd5b7f4e487b7100000000000000000000000000000000000000000000000000000000600052604160045260246000fd5b6140eb82613c8a565b810181811067ffffffffffffffff8211171561410a576141096140b3565b5b80604052505050565b600061411d613b75565b905061412982826140e2565b919050565b600067ffffffffffffffff821115614149576141486140b3565b5b61415282613c8a565b9050602081019050919050565b82818337600083830152505050565b600061418161417c8461412e565b614113565b90508281526020810184848401111561419d5761419c6140ae565b5b6141a884828561415f565b509392505050565b600082601f8301126141c5576141c46140a9565b5b81356141d584826020860161416e565b91505092915050565b600080604083850312156141f5576141f4613b7f565b5b600083013567ffffffffffffffff81111561421357614212613b84565b5b61421f858286016141b0565b925050602061423085828601613d17565b9150509250929050565b61424381613e86565b82525050565b600060208201905061425e600083018461423a565b92915050565b61426d81613c0e565b811461427857600080fd5b50565b60008135905061428a81614264565b92915050565b600080604083850312156142a7576142a6613b7f565b5b60006142b585828601613dcc565b92505060206142c68582860161427b565b9150509250929050565b60e0820160008201516142e66000850182613e77565b5060208201516142f96020850182613e98565b50604082015161430c6040850182613e98565b50606082015161431f6060850182613e77565b5060808201516143326080850182613ea7565b5060a082015161434560a0850182613ea7565b5060c082015161435860c0850182613e77565b50505050565b600060e08201905061437360008301846142d0565b92915050565b600067ffffffffffffffff821115614394576143936140b3565b5b61439d82613c8a565b9050602081019050919050565b60006143bd6143b884614379565b614113565b9050828152602081018484840111156143d9576143d86140ae565b5b6143e484828561415f565b509392505050565b600082601f830112614401576144006140a9565b5b81356144118482602086016143aa565b91505092915050565b6000806000806080858703121561443457614433613b7f565b5b600061444287828801613dcc565b945050602061445387828801613dcc565b935050604061446487828801613d17565b925050606085013567ffffffffffffffff81111561448557614484613b84565b5b614491878288016143ec565b91505092959194509250565b600080604083850312156144b4576144b3613b7f565b5b60006144c285828601613dcc565b92505060206144d385828601613dcc565b9150509250929050565b7f4e487b7100000000000000000000000000000000000000000000000000000000600052601160045260246000fd5b600061451782613cf6565b91507fffffffffffffffffffffffffffffffffffffffffffffffffffffffffffffffff8203614549576145486144dd565b5b600182019050919050565b7f4e487b7100000000000000000000000000000000000000000000000000000000600052602260045260246000fd5b6000600282049050600182168061459b57607f821691505b6020821081036145ae576145ad614554565b5b50919050565b7f4552433732313a20617070726f76656420717565727920666f72206e6f6e657860008201527f697374656e7420746f6b656e0000000000000000000000000000000000000000602082015250565b6000614610602c83613c4f565b915061461b826145b4565b604082019050919050565b6000602082019050818103600083015261463f81614603565b9050919050565b7f4552433732313a20617070726f76616c20746f2063757272656e74206f776e6560008201527f7200000000000000000000000000000000000000000000000000000000000000602082015250565b60006146a2602183613c4f565b91506146ad82614646565b604082019050919050565b600060208201905081810360008301526146d181614695565b9050919050565b7f4552433732313a20617070726f76652063616c6c6572206973206e6f74206f7760008201527f6e6572206e6f7220617070726f76656420666f7220616c6c0000000000000000602082015250565b6000614734603883613c4f565b915061473f826146d8565b604082019050919050565b6000602082019050818103600083015261476381614727565b9050919050565b600061477582613cf6565b915061478083613cf6565b9250828203905081811115614798576147976144dd565b5b92915050565b7f4e487b7100000000000000000000000000000000000000000000000000000000600052603260045260246000fd5b60006147d882613cf6565b91506147e383613cf6565b92508282019050808211156147fb576147fa6144dd565b5b92915050565b7f4552433732313a207472616e736665722063616c6c6572206973206e6f74206f60008201527f776e6572206e6f7220617070726f766564000000000000000000000000000000602082015250565b600061485d603183613c4f565b915061486882614801565b604082019050919050565b6000602082019050818103600083015261488c81614850565b9050919050565b7f546f6f20736f6f6e20746f206175746f6d6174652061756374696f6e73000000600082015250565b60006148c9601d83613c4f565b91506148d482614893565b602082019050919050565b600060208201905081810360008301526148f8816148bc565b9050919050565b7f506c65617365207375626d6974207468652061736b696e67207072696365206960008201527f6e6f7264657220746f20636f6d706c6574652074686520707572636861736500602082015250565b600061495b603f83613c4f565b9150614966826148ff565b604082019050919050565b6000602082019050818103600083015261498a8161494e565b9050919050565b7f596f75206d75737420626520746865206f776e6572206f72207468652073656c60008201527f6c6572206f662074686520746f6b656e20746f2072657374617274207468652060208201527f61756374696f6e00000000000000000000000000000000000000000000000000604082015250565b6000614a13604783613c4f565b9150614a1e82614991565b606082019050919050565b60006020820190508181036000830152614a4281614a06565b9050919050565b7f5468697320746f6b656e206973206e6f742063757272656e746c79206c69737460008201527f656420666f722061756374696f6e000000000000000000000000000000000000602082015250565b6000614aa5602e83613c4f565b9150614ab082614a49565b604082019050919050565b60006020820190508181036000830152614ad481614a98565b9050919050565b7f5468697320746f6b656e2068617320616c7265616479206265656e20736f6c64600082015250565b6000614b11602083613c4f565b9150614b1c82614adb565b602082019050919050565b60006020820190508181036000830152614b4081614b04565b9050919050565b6000604082019050614b5c6000830185613d8b565b614b696020830184613e21565b9392505050565b7f4552433732313a206f776e657220717565727920666f72206e6f6e657869737460008201527f656e7420746f6b656e0000000000000000000000000000000000000000000000602082015250565b6000614bcc602983613c4f565b9150614bd782614b70565b604082019050919050565b60006020820190508181036000830152614bfb81614bbf565b9050919050565b7f4552433732313a2062616c616e636520717565727920666f7220746865207a6560008201527f726f206164647265737300000000000000000000000000000000000000000000602082015250565b6000614c5e602a83613c4f565b9150614c6982614c02565b604082019050919050565b60006020820190508181036000830152614c8d81614c51565b9050919050565b7f41756374696f6e2068617320656e646564000000000000000000000000000000600082015250565b6000614cca601183613c4f565b9150614cd582614c94565b602082019050919050565b60006020820190508181036000830152614cf981614cbd565b9050919050565b7f426964206d75737420626520686967686572207468616e206f7220657175616c60008201527f20746f20746865206d696e696d756d2062696420707269636500000000000000602082015250565b6000614d5c603983613c4f565b9150614d6782614d00565b604082019050919050565b60006020820190508181036000830152614d8b81614d4f565b9050919050565b7f4f6e6c79206d61726b6574706c616365206f776e65722063616e20757064617460008201527f65206c697374696e672070726963652e00000000000000000000000000000000602082015250565b6000614dee603083613c4f565b9150614df982614d92565b604082019050919050565b60006020820190508181036000830152614e1d81614de1565b9050919050565b7f41756374696f6e2068617320616c726561647920656e64656400000000000000600082015250565b6000614e5a601983613c4f565b9150614e6582614e24565b602082019050919050565b60006020820190508181036000830152614e8981614e4d565b9050919050565b7f41756374696f6e20686173206e6f7420656e6465642079657400000000000000600082015250565b6000614ec6601983613c4f565b9150614ed182614e90565b602082019050919050565b60006020820190508181036000830152614ef581614eb9565b9050919050565b6000819050919050565b6000614f21614f1c614f1784613d59565b614efc565b613d59565b9050919050565b6000614f3382614f06565b9050919050565b6000614f4582614f28565b9050919050565b614f5581614f3a565b82525050565b6000604082019050614f706000830185614f4c565b614f7d6020830184613e21565b9392505050565b7f45524337323155524953746f726167653a2055524920717565727920666f722060008201527f6e6f6e6578697374656e7420746f6b656e000000000000000000000000000000602082015250565b6000614fe0603183613c4f565b9150614feb82614f84565b604082019050919050565b6000602082019050818103600083015261500f81614fd3565b9050919050565b600081905092915050565b600061502c82613c44565b6150368185615016565b9350615046818560208601613c60565b80840191505092915050565b600061505e8285615021565b915061506a8284615021565b91508190509392505050565b7f4f6e6c79206974656d206f776e65722063616e20706572666f726d207468697360008201527f206f7065726174696f6e00000000000000000000000000000000000000000000602082015250565b60006150d2602a83613c4f565b91506150dd82615076565b604082019050919050565b60006020820190508181036000830152615101816150c5565b9050919050565b7f5072696365206d75737420626520657175616c20746f206c697374696e67207060008201527f7269636500000000000000000000000000000000000000000000000000000000602082015250565b6000615164602483613c4f565b915061516f82615108565b604082019050919050565b6000602082019050818103600083015261519381615157565b9050919050565b60006151a582613cf6565b9150600082036151b8576151b76144dd565b5b600182039050919050565b7f4552433732313a206f70657261746f7220717565727920666f72206e6f6e657860008201527f697374656e7420746f6b656e0000000000000000000000000000000000000000602082015250565b600061521f602c83613c4f565b915061522a826151c3565b604082019050919050565b6000602082019050818103600083015261524e81615212565b9050919050565b7f4552433732313a207472616e736665722066726f6d20696e636f72726563742060008201527f6f776e6572000000000000000000000000000000000000000000000000000000602082015250565b60006152b1602583613c4f565b91506152bc82615255565b604082019050919050565b600060208201905081810360008301526152e0816152a4565b9050919050565b7f4552433732313a207472616e7366657220746f20746865207a65726f2061646460008201527f7265737300000000000000000000000000000000000000000000000000000000602082015250565b6000615343602483613c4f565b915061534e826152e7565b604082019050919050565b6000602082019050818103600083015261537281615336565b9050919050565b7f4552433732313a206d696e7420746f20746865207a65726f2061646472657373600082015250565b60006153af602083613c4f565b91506153ba82615379565b602082019050919050565b600060208201905081810360008301526153de816153a2565b9050919050565b7f4552433732313a20746f6b656e20616c7265616479206d696e74656400000000600082015250565b600061541b601c83613c4f565b9150615426826153e5565b602082019050919050565b6000602082019050818103600083015261544a8161540e565b9050919050565b7f45524337323155524953746f726167653a2055524920736574206f66206e6f6e60008201527f6578697374656e7420746f6b656e000000000000000000000000000000000000602082015250565b60006154ad602e83613c4f565b91506154b882615451565b604082019050919050565b600060208201905081810360008301526154dc816154a0565b9050919050565b60008190508160005260206000209050919050565b60006020601f8301049050919050565b600082821b905092915050565b6000600883026155457fffffffffffffffffffffffffffffffffffffffffffffffffffffffffffffffff82615508565b61554f8683615508565b95508019841693508086168417925050509392505050565b600061558261557d61557884613cf6565b614efc565b613cf6565b9050919050565b6000819050919050565b61559c83615567565b6155b06155a882615589565b848454615515565b825550505050565b600090565b6155c56155b8565b6155d0818484615593565b505050565b5b818110156155f4576155e96000826155bd565b6001810190506155d6565b5050565b601f8211156156395761560a816154e3565b615613846154f8565b81016020851015615622578190505b61563661562e856154f8565b8301826155d5565b50505b505050565b600082821c905092915050565b600061565c6000198460080261563e565b1980831691505092915050565b6000615675838361564b565b9150826002028217905092915050565b61568e82613c44565b67ffffffffffffffff8111156156a7576156a66140b3565b5b6156b18254614583565b6156bc8282856155f8565b600060209050601f8311600181146156ef57600084156156dd578287015190505b6156e78582615669565b86555061574f565b601f1984166156fd866154e3565b60005b8281101561572557848901518255600182019150602085019450602081019050615700565b86831015615742578489015161573e601f89168261564b565b8355505b6001600288020188555050505b505050505050565b7f5072696365206d757374206265206174206c6561737420312077656900000000600082015250565b600061578d601c83613c4f565b915061579882615757565b602082019050919050565b600060208201905081810360008301526157bc81615780565b9050919050565b60006080820190506157d86000830187613d8b565b6157e56020830186613d8b565b6157f26040830185613e21565b6157ff6060830184613c1a565b95945050505050565b600060408201905081810360008301526158228185613c9b565b90506158316020830184613e21565b9392505050565b7f4552433732313a20617070726f766520746f2063616c6c657200000000000000600082015250565b600061586e601983613c4f565b915061587982615838565b602082019050919050565b6000602082019050818103600083015261589d81615861565b9050919050565b7f4552433732313a207472616e7366657220746f206e6f6e20455243373231526560008201527f63656976657220696d706c656d656e7465720000000000000000000000000000602082015250565b6000615900603283613c4f565b915061590b826158a4565b604082019050919050565b6000602082019050818103600083015261592f816158f3565b9050919050565b7f4552433732314d657461646174613a2055524920717565727920666f72206e6f60008201527f6e6578697374656e7420746f6b656e0000000000000000000000000000000000602082015250565b6000615992602f83613c4f565b915061599d82615936565b604082019050919050565b600060208201905081810360008301526159c181615985565b9050919050565b600081519050919050565b600082825260208201905092915050565b60006159ef826159c8565b6159f981856159d3565b9350615a09818560208601613c60565b615a1281613c8a565b840191505092915050565b6000608082019050615a326000830187613d8b565b615a3f6020830186613d8b565b615a4c6040830185613e21565b8181036060830152615a5e81846159e4565b905095945050505050565b600081519050615a7881613bb5565b92915050565b600060208284031215615a9457615a93613b7f565b5b6000615aa284828501615a69565b91505092915050565b7f4e487b7100000000000000000000000000000000000000000000000000000000600052601260045260246000fd5b6000615ae582613cf6565b9150615af083613cf6565b925082615b0057615aff615aab565b5b828204905092915050565b6000615b1682613cf6565b9150615b2183613cf6565b925082615b3157615b30615aab565b5b828206905092915050565b7f4e487b7100000000000000000000000000000000000000000000000000000000600052605160045260246000fdfea26469706673582212209f240cd401ba557c5334903361c7d18c7cde6deac89ad9f74f8ac6c4ed5bc74964736f6c63430008140033",
  "linkReferences": {},
  "deployedLinkReferences": {}
}