{
  "_format": "hh-sol-artifact-1",
  "contractName": "NFTMarketplace",
  "sourceName": "contracts/NFTMarketplace.sol",
  "abi": [
    {
      "inputs": [],
      "stateMutability": "nonpayable",
      "type": "constructor"
    },
    {
      "anonymous": false,
      "inputs": [
        {
          "indexed": true,
          "internalType": "address",
          "name": "owner",
          "type": "address"
        },
        {
          "indexed": true,
          "internalType": "address",
          "name": "approved",
          "type": "address"
        },
        {
          "indexed": true,
          "internalType": "uint256",
          "name": "tokenId",
          "type": "uint256"
        }
      ],
      "name": "Approval",
      "type": "event"
    },
    {
      "anonymous": false,
      "inputs": [
        {
          "indexed": true,
          "internalType": "address",
          "name": "owner",
          "type": "address"
        },
        {
          "indexed": true,
          "internalType": "address",
          "name": "operator",
          "type": "address"
        },
        {
          "indexed": false,
          "internalType": "bool",
          "name": "approved",
          "type": "bool"
        }
      ],
      "name": "ApprovalForAll",
      "type": "event"
    },
    {
      "anonymous": false,
      "inputs": [
        {
          "indexed": true,
          "internalType": "uint256",
          "name": "tokenId",
          "type": "uint256"
        },
        {
          "indexed": false,
          "internalType": "address",
          "name": "seller",
          "type": "address"
        },
        {
          "indexed": false,
          "internalType": "address",
          "name": "owner",
          "type": "address"
        },
        {
          "indexed": false,
          "internalType": "uint256",
          "name": "price",
          "type": "uint256"
        },
        {
          "indexed": false,
          "internalType": "bool",
          "name": "sold",
          "type": "bool"
        },
        {
          "indexed": false,
          "internalType": "string",
          "name": "audioURI",
          "type": "string"
        }
      ],
      "name": "MarketItemCreated",
      "type": "event"
    },
    {
      "anonymous": false,
      "inputs": [
        {
          "indexed": true,
          "internalType": "address",
          "name": "from",
          "type": "address"
        },
        {
          "indexed": true,
          "internalType": "address",
          "name": "to",
          "type": "address"
        },
        {
          "indexed": true,
          "internalType": "uint256",
          "name": "tokenId",
          "type": "uint256"
        }
      ],
      "name": "Transfer",
      "type": "event"
    },
    {
      "inputs": [
        {
          "internalType": "address",
          "name": "to",
          "type": "address"
        },
        {
          "internalType": "uint256",
          "name": "tokenId",
          "type": "uint256"
        }
      ],
      "name": "approve",
      "outputs": [],
      "stateMutability": "nonpayable",
      "type": "function"
    },
    {
      "inputs": [
        {
          "internalType": "address",
          "name": "owner",
          "type": "address"
        }
      ],
      "name": "balanceOf",
      "outputs": [
        {
          "internalType": "uint256",
          "name": "",
          "type": "uint256"
        }
      ],
      "stateMutability": "view",
      "type": "function"
    },
    {
      "inputs": [
        {
          "internalType": "uint256",
          "name": "tokenId",
          "type": "uint256"
        }
      ],
      "name": "createMarketSale",
      "outputs": [],
      "stateMutability": "payable",
      "type": "function"
    },
    {
      "inputs": [
        {
          "internalType": "string",
          "name": "tokenURI",
          "type": "string"
        },
        {
          "internalType": "uint256",
          "name": "price",
          "type": "uint256"
        },
        {
          "internalType": "string",
          "name": "audioURI",
          "type": "string"
        }
      ],
      "name": "createToken",
      "outputs": [
        {
          "internalType": "uint256",
          "name": "",
          "type": "uint256"
        }
      ],
      "stateMutability": "payable",
      "type": "function"
    },
    {
      "inputs": [],
      "name": "fetchItemsListed",
      "outputs": [
        {
          "components": [
            {
              "internalType": "uint256",
              "name": "tokenId",
              "type": "uint256"
            },
            {
              "internalType": "address payable",
              "name": "seller",
              "type": "address"
            },
            {
              "internalType": "address payable",
              "name": "owner",
              "type": "address"
            },
            {
              "internalType": "uint256",
              "name": "price",
              "type": "uint256"
            },
            {
              "internalType": "bool",
              "name": "sold",
              "type": "bool"
            },
            {
              "internalType": "string",
              "name": "audioURI",
              "type": "string"
            }
          ],
          "internalType": "struct NFTMarketplace.MarketItem[]",
          "name": "",
          "type": "tuple[]"
        }
      ],
      "stateMutability": "view",
      "type": "function"
    },
    {
      "inputs": [],
      "name": "fetchMarketItems",
      "outputs": [
        {
          "components": [
            {
              "internalType": "uint256",
              "name": "tokenId",
              "type": "uint256"
            },
            {
              "internalType": "address payable",
              "name": "seller",
              "type": "address"
            },
            {
              "internalType": "address payable",
              "name": "owner",
              "type": "address"
            },
            {
              "internalType": "uint256",
              "name": "price",
              "type": "uint256"
            },
            {
              "internalType": "bool",
              "name": "sold",
              "type": "bool"
            },
            {
              "internalType": "string",
              "name": "audioURI",
              "type": "string"
            }
          ],
          "internalType": "struct NFTMarketplace.MarketItem[]",
          "name": "",
          "type": "tuple[]"
        }
      ],
      "stateMutability": "view",
      "type": "function"
    },
    {
      "inputs": [],
      "name": "fetchMyNFTs",
      "outputs": [
        {
          "components": [
            {
              "internalType": "uint256",
              "name": "tokenId",
              "type": "uint256"
            },
            {
              "internalType": "address payable",
              "name": "seller",
              "type": "address"
            },
            {
              "internalType": "address payable",
              "name": "owner",
              "type": "address"
            },
            {
              "internalType": "uint256",
              "name": "price",
              "type": "uint256"
            },
            {
              "internalType": "bool",
              "name": "sold",
              "type": "bool"
            },
            {
              "internalType": "string",
              "name": "audioURI",
              "type": "string"
            }
          ],
          "internalType": "struct NFTMarketplace.MarketItem[]",
          "name": "",
          "type": "tuple[]"
        }
      ],
      "stateMutability": "view",
      "type": "function"
    },
    {
      "inputs": [
        {
          "internalType": "uint256",
          "name": "tokenId",
          "type": "uint256"
        }
      ],
      "name": "fetchTokenDetails",
      "outputs": [
        {
          "components": [
            {
              "internalType": "uint256",
              "name": "tokenId",
              "type": "uint256"
            },
            {
              "internalType": "address payable",
              "name": "seller",
              "type": "address"
            },
            {
              "internalType": "address payable",
              "name": "owner",
              "type": "address"
            },
            {
              "internalType": "uint256",
              "name": "price",
              "type": "uint256"
            },
            {
              "internalType": "bool",
              "name": "sold",
              "type": "bool"
            },
            {
              "internalType": "string",
              "name": "audioURI",
              "type": "string"
            }
          ],
          "internalType": "struct NFTMarketplace.MarketItem",
          "name": "",
          "type": "tuple"
        }
      ],
      "stateMutability": "view",
      "type": "function"
    },
    {
      "inputs": [
        {
          "internalType": "uint256",
          "name": "tokenId",
          "type": "uint256"
        }
      ],
      "name": "getApproved",
      "outputs": [
        {
          "internalType": "address",
          "name": "",
          "type": "address"
        }
      ],
      "stateMutability": "view",
      "type": "function"
    },
    {
      "inputs": [],
      "name": "getListingPrice",
      "outputs": [
        {
          "internalType": "uint256",
          "name": "",
          "type": "uint256"
        }
      ],
      "stateMutability": "view",
      "type": "function"
    },
    {
      "inputs": [
        {
          "internalType": "address",
          "name": "owner",
          "type": "address"
        },
        {
          "internalType": "address",
          "name": "operator",
          "type": "address"
        }
      ],
      "name": "isApprovedForAll",
      "outputs": [
        {
          "internalType": "bool",
          "name": "",
          "type": "bool"
        }
      ],
      "stateMutability": "view",
      "type": "function"
    },
    {
      "inputs": [],
      "name": "listingPrice",
      "outputs": [
        {
          "internalType": "uint256",
          "name": "",
          "type": "uint256"
        }
      ],
      "stateMutability": "view",
      "type": "function"
    },
    {
      "inputs": [],
      "name": "name",
      "outputs": [
        {
          "internalType": "string",
          "name": "",
          "type": "string"
        }
      ],
      "stateMutability": "view",
      "type": "function"
    },
    {
      "inputs": [],
      "name": "owner",
      "outputs": [
        {
          "internalType": "address payable",
          "name": "",
          "type": "address"
        }
      ],
      "stateMutability": "view",
      "type": "function"
    },
    {
      "inputs": [
        {
          "internalType": "uint256",
          "name": "tokenId",
          "type": "uint256"
        }
      ],
      "name": "ownerOf",
      "outputs": [
        {
          "internalType": "address",
          "name": "",
          "type": "address"
        }
      ],
      "stateMutability": "view",
      "type": "function"
    },
    {
      "inputs": [
        {
          "internalType": "uint256",
          "name": "tokenId",
          "type": "uint256"
        },
        {
          "internalType": "uint256",
          "name": "price",
          "type": "uint256"
        },
        {
          "internalType": "string",
          "name": "audioURI",
          "type": "string"
        }
      ],
      "name": "resellToken",
      "outputs": [],
      "stateMutability": "payable",
      "type": "function"
    },
    {
      "inputs": [
        {
          "internalType": "address",
          "name": "from",
          "type": "address"
        },
        {
          "internalType": "address",
          "name": "to",
          "type": "address"
        },
        {
          "internalType": "uint256",
          "name": "tokenId",
          "type": "uint256"
        }
      ],
      "name": "safeTransferFrom",
      "outputs": [],
      "stateMutability": "nonpayable",
      "type": "function"
    },
    {
      "inputs": [
        {
          "internalType": "address",
          "name": "from",
          "type": "address"
        },
        {
          "internalType": "address",
          "name": "to",
          "type": "address"
        },
        {
          "internalType": "uint256",
          "name": "tokenId",
          "type": "uint256"
        },
        {
          "internalType": "bytes",
          "name": "_data",
          "type": "bytes"
        }
      ],
      "name": "safeTransferFrom",
      "outputs": [],
      "stateMutability": "nonpayable",
      "type": "function"
    },
    {
      "inputs": [
        {
          "internalType": "address",
          "name": "operator",
          "type": "address"
        },
        {
          "internalType": "bool",
          "name": "approved",
          "type": "bool"
        }
      ],
      "name": "setApprovalForAll",
      "outputs": [],
      "stateMutability": "nonpayable",
      "type": "function"
    },
    {
      "inputs": [
        {
          "internalType": "bytes4",
          "name": "interfaceId",
          "type": "bytes4"
        }
      ],
      "name": "supportsInterface",
      "outputs": [
        {
          "internalType": "bool",
          "name": "",
          "type": "bool"
        }
      ],
      "stateMutability": "view",
      "type": "function"
    },
    {
      "inputs": [],
      "name": "symbol",
      "outputs": [
        {
          "internalType": "string",
          "name": "",
          "type": "string"
        }
      ],
      "stateMutability": "view",
      "type": "function"
    },
    {
      "inputs": [
        {
          "internalType": "uint256",
          "name": "tokenId",
          "type": "uint256"
        }
      ],
      "name": "tokenURI",
      "outputs": [
        {
          "internalType": "string",
          "name": "",
          "type": "string"
        }
      ],
      "stateMutability": "view",
      "type": "function"
    },
    {
      "inputs": [
        {
          "internalType": "address",
          "name": "from",
          "type": "address"
        },
        {
          "internalType": "address",
          "name": "to",
          "type": "address"
        },
        {
          "internalType": "uint256",
          "name": "tokenId",
          "type": "uint256"
        }
      ],
      "name": "transferFrom",
      "outputs": [],
      "stateMutability": "nonpayable",
      "type": "function"
    },
    {
      "inputs": [
        {
          "internalType": "uint256",
          "name": "_listingPrice",
          "type": "uint256"
        }
      ],
      "name": "updateListingPrice",
      "outputs": [],
      "stateMutability": "payable",
      "type": "function"
    }
  ],
  "bytecode": "0x60806040526658d15e176280006009553480156200001c57600080fd5b506040518060400160405280601081526020017f4d657461766572736520546f6b656e73000000000000000000000000000000008152506040518060400160405280600481526020017f4d4554540000000000000000000000000000000000000000000000000000000081525081600090816200009a919062000370565b508060019081620000ac919062000370565b50505033600a60006101000a81548173ffffffffffffffffffffffffffffffffffffffff021916908373ffffffffffffffffffffffffffffffffffffffff16021790555062000457565b600081519050919050565b7f4e487b7100000000000000000000000000000000000000000000000000000000600052604160045260246000fd5b7f4e487b7100000000000000000000000000000000000000000000000000000000600052602260045260246000fd5b600060028204905060018216806200017857607f821691505b6020821081036200018e576200018d62000130565b5b50919050565b60008190508160005260206000209050919050565b60006020601f8301049050919050565b600082821b905092915050565b600060088302620001f87fffffffffffffffffffffffffffffffffffffffffffffffffffffffffffffffff82620001b9565b620002048683620001b9565b95508019841693508086168417925050509392505050565b6000819050919050565b6000819050919050565b6000620002516200024b62000245846200021c565b62000226565b6200021c565b9050919050565b6000819050919050565b6200026d8362000230565b620002856200027c8262000258565b848454620001c6565b825550505050565b600090565b6200029c6200028d565b620002a981848462000262565b505050565b5b81811015620002d157620002c560008262000292565b600181019050620002af565b5050565b601f8211156200032057620002ea8162000194565b620002f584620001a9565b8101602085101562000305578190505b6200031d6200031485620001a9565b830182620002ae565b50505b505050565b600082821c905092915050565b6000620003456000198460080262000325565b1980831691505092915050565b600062000360838362000332565b9150826002028217905092915050565b6200037b82620000f6565b67ffffffffffffffff81111562000397576200039662000101565b5b620003a382546200015f565b620003b0828285620002d5565b600060209050601f831160018114620003e85760008415620003d3578287015190505b620003df858262000352565b8655506200044f565b601f198416620003f88662000194565b60005b828110156200042257848901518255600182019150602085019450602081019050620003fb565b868310156200044257848901516200043e601f89168262000332565b8355505b6001600288020188555050505b505050505050565b61496c80620004676000396000f3fe60806040526004361061014b5760003560e01c8063824df416116100b6578063b88d4fde1161006f578063b88d4fde1461048a578063be9af536146104b3578063c6c9b5b1146104cf578063c78f19f9146104ff578063c87b56dd1461052a578063e985e9c5146105675761014b565b8063824df416146103965780638da5cb5b146103b257806395d89b41146103dd578063a22cb46514610408578063ae677aa314610431578063b863a7cd1461044d5761014b565b8063202e374011610108578063202e37401461027457806323b872dd1461029f57806342842e0e146102c857806345f8fa80146102f15780636352211e1461031c57806370a08231146103595761014b565b806301ffc9a71461015057806306fdde031461018d578063081812fc146101b8578063095ea7b3146101f55780630f08efe01461021e57806312e8558514610249575b600080fd5b34801561015c57600080fd5b5061017760048036038101906101729190612ddd565b6105a4565b6040516101849190612e25565b60405180910390f35b34801561019957600080fd5b506101a2610686565b6040516101af9190612ed0565b60405180910390f35b3480156101c457600080fd5b506101df60048036038101906101da9190612f28565b610718565b6040516101ec9190612f96565b60405180910390f35b34801561020157600080fd5b5061021c60048036038101906102179190612fdd565b61079d565b005b34801561022a57600080fd5b506102336108b4565b60405161024091906131f1565b60405180910390f35b34801561025557600080fd5b5061025e610b84565b60405161026b9190613222565b60405180910390f35b34801561028057600080fd5b50610289610b8e565b60405161029691906131f1565b60405180910390f35b3480156102ab57600080fd5b506102c660048036038101906102c1919061323d565b610ee7565b005b3480156102d457600080fd5b506102ef60048036038101906102ea919061323d565b610f47565b005b3480156102fd57600080fd5b50610306610f67565b60405161031391906131f1565b60405180910390f35b34801561032857600080fd5b50610343600480360381019061033e9190612f28565b6112c0565b6040516103509190612f96565b60405180910390f35b34801561036557600080fd5b50610380600480360381019061037b9190613290565b611371565b60405161038d9190613222565b60405180910390f35b6103b060048036038101906103ab91906133f2565b611428565b005b3480156103be57600080fd5b506103c7611650565b6040516103d49190613470565b60405180910390f35b3480156103e957600080fd5b506103f2611676565b6040516103ff9190612ed0565b60405180910390f35b34801561041457600080fd5b5061042f600480360381019061042a91906134b7565b611708565b005b61044b60048036038101906104469190612f28565b61171e565b005b34801561045957600080fd5b50610474600480360381019061046f9190612f28565b6117b8565b6040516104819190613580565b60405180910390f35b34801561049657600080fd5b506104b160048036038101906104ac9190613643565b611952565b005b6104cd60048036038101906104c89190612f28565b6119b4565b005b6104e960048036038101906104e491906136c6565b611bfa565b6040516104f69190613222565b60405180910390f35b34801561050b57600080fd5b50610514611c45565b6040516105219190613222565b60405180910390f35b34801561053657600080fd5b50610551600480360381019061054c9190612f28565b611c4b565b60405161055e9190612ed0565b60405180910390f35b34801561057357600080fd5b5061058e60048036038101906105899190613751565b611d9c565b60405161059b9190612e25565b60405180910390f35b60007f80ac58cd000000000000000000000000000000000000000000000000000000007bffffffffffffffffffffffffffffffffffffffffffffffffffffffff1916827bffffffffffffffffffffffffffffffffffffffffffffffffffffffff1916148061066f57507f5b5e139f000000000000000000000000000000000000000000000000000000007bffffffffffffffffffffffffffffffffffffffffffffffffffffffff1916827bffffffffffffffffffffffffffffffffffffffffffffffffffffffff1916145b8061067f575061067e82611e30565b5b9050919050565b606060008054610695906137c0565b80601f01602080910402602001604051908101604052809291908181526020018280546106c1906137c0565b801561070e5780601f106106e35761010080835404028352916020019161070e565b820191906000526020600020905b8154815290600101906020018083116106f157829003601f168201915b5050505050905090565b600061072382611e9a565b610762576040517f08c379a000000000000000000000000000000000000000000000000000000000815260040161075990613863565b60405180910390fd5b6004600083815260200190815260200160002060009054906101000a900473ffffffffffffffffffffffffffffffffffffffff169050919050565b60006107a8826112c0565b90508073ffffffffffffffffffffffffffffffffffffffff168373ffffffffffffffffffffffffffffffffffffffff1603610818576040517f08c379a000000000000000000000000000000000000000000000000000000000815260040161080f906138f5565b60405180910390fd5b8073ffffffffffffffffffffffffffffffffffffffff16610837611f06565b73ffffffffffffffffffffffffffffffffffffffff161480610866575061086581610860611f06565b611d9c565b5b6108a5576040517f08c379a000000000000000000000000000000000000000000000000000000000815260040161089c90613987565b60405180910390fd5b6108af8383611f0e565b505050565b60606000600754905060006008546007546108cf91906139d6565b90506000808267ffffffffffffffff8111156108ee576108ed6132c7565b5b60405190808252806020026020018201604052801561092757816020015b610914612d0d565b81526020019060019003908161090c5790505b5090506000600190505b848111610b79573073ffffffffffffffffffffffffffffffffffffffff16600b600083815260200190815260200160002060020160009054906101000a900473ffffffffffffffffffffffffffffffffffffffff1673ffffffffffffffffffffffffffffffffffffffff1603610b665760008190506000600b60008381526020019081526020016000209050806040518060c0016040529081600082015481526020016001820160009054906101000a900473ffffffffffffffffffffffffffffffffffffffff1673ffffffffffffffffffffffffffffffffffffffff1673ffffffffffffffffffffffffffffffffffffffff1681526020016002820160009054906101000a900473ffffffffffffffffffffffffffffffffffffffff1673ffffffffffffffffffffffffffffffffffffffff1673ffffffffffffffffffffffffffffffffffffffff168152602001600382015481526020016004820160009054906101000a900460ff16151515158152602001600582018054610ab4906137c0565b80601f0160208091040260200160405190810160405280929190818152602001828054610ae0906137c0565b8015610b2d5780601f10610b0257610100808354040283529160200191610b2d565b820191906000526020600020905b815481529060010190602001808311610b1057829003601f168201915b505050505081525050848681518110610b4957610b48613a0a565b5b6020026020010181905250600185610b619190613a39565b945050505b8080610b7190613a6d565b915050610931565b508094505050505090565b6000600954905090565b6060600060075490506000806000600190505b838111610c34573373ffffffffffffffffffffffffffffffffffffffff16600b600083815260200190815260200160002060020160009054906101000a900473ffffffffffffffffffffffffffffffffffffffff1673ffffffffffffffffffffffffffffffffffffffff1603610c2157600183610c1e9190613a39565b92505b8080610c2c90613a6d565b915050610ba1565b5060008267ffffffffffffffff811115610c5157610c506132c7565b5b604051908082528060200260200182016040528015610c8a57816020015b610c77612d0d565b815260200190600190039081610c6f5790505b5090506000600190505b848111610edc573373ffffffffffffffffffffffffffffffffffffffff16600b600083815260200190815260200160002060020160009054906101000a900473ffffffffffffffffffffffffffffffffffffffff1673ffffffffffffffffffffffffffffffffffffffff1603610ec95760008190506000600b60008381526020019081526020016000209050806040518060c0016040529081600082015481526020016001820160009054906101000a900473ffffffffffffffffffffffffffffffffffffffff1673ffffffffffffffffffffffffffffffffffffffff1673ffffffffffffffffffffffffffffffffffffffff1681526020016002820160009054906101000a900473ffffffffffffffffffffffffffffffffffffffff1673ffffffffffffffffffffffffffffffffffffffff1673ffffffffffffffffffffffffffffffffffffffff168152602001600382015481526020016004820160009054906101000a900460ff16151515158152602001600582018054610e17906137c0565b80601f0160208091040260200160405190810160405280929190818152602001828054610e43906137c0565b8015610e905780601f10610e6557610100808354040283529160200191610e90565b820191906000526020600020905b815481529060010190602001808311610e7357829003601f168201915b505050505081525050848681518110610eac57610eab613a0a565b5b6020026020010181905250600185610ec49190613a39565b945050505b8080610ed490613a6d565b915050610c94565b508094505050505090565b610ef8610ef2611f06565b82611fc7565b610f37576040517f08c379a0000000000000000000000000000000000000000000000000000000008152600401610f2e90613b27565b60405180910390fd5b610f428383836120a5565b505050565b610f6283838360405180602001604052806000815250611952565b505050565b6060600060075490506000806000600190505b83811161100d573373ffffffffffffffffffffffffffffffffffffffff16600b600083815260200190815260200160002060010160009054906101000a900473ffffffffffffffffffffffffffffffffffffffff1673ffffffffffffffffffffffffffffffffffffffff1603610ffa57600183610ff79190613a39565b92505b808061100590613a6d565b915050610f7a565b5060008267ffffffffffffffff81111561102a576110296132c7565b5b60405190808252806020026020018201604052801561106357816020015b611050612d0d565b8152602001906001900390816110485790505b5090506000600190505b8481116112b5573373ffffffffffffffffffffffffffffffffffffffff16600b600083815260200190815260200160002060010160009054906101000a900473ffffffffffffffffffffffffffffffffffffffff1673ffffffffffffffffffffffffffffffffffffffff16036112a25760008190506000600b60008381526020019081526020016000209050806040518060c0016040529081600082015481526020016001820160009054906101000a900473ffffffffffffffffffffffffffffffffffffffff1673ffffffffffffffffffffffffffffffffffffffff1673ffffffffffffffffffffffffffffffffffffffff1681526020016002820160009054906101000a900473ffffffffffffffffffffffffffffffffffffffff1673ffffffffffffffffffffffffffffffffffffffff1673ffffffffffffffffffffffffffffffffffffffff168152602001600382015481526020016004820160009054906101000a900460ff161515151581526020016005820180546111f0906137c0565b80601f016020809104026020016040519081016040528092919081815260200182805461121c906137c0565b80156112695780601f1061123e57610100808354040283529160200191611269565b820191906000526020600020905b81548152906001019060200180831161124c57829003601f168201915b50505050508152505084868151811061128557611284613a0a565b5b602002602001018190525060018561129d9190613a39565b945050505b80806112ad90613a6d565b91505061106d565b508094505050505090565b6000806002600084815260200190815260200160002060009054906101000a900473ffffffffffffffffffffffffffffffffffffffff169050600073ffffffffffffffffffffffffffffffffffffffff168173ffffffffffffffffffffffffffffffffffffffff1603611368576040517f08c379a000000000000000000000000000000000000000000000000000000000815260040161135f90613bb9565b60405180910390fd5b80915050919050565b60008073ffffffffffffffffffffffffffffffffffffffff168273ffffffffffffffffffffffffffffffffffffffff16036113e1576040517f08c379a00000000000000000000000000000000000000000000000000000000081526004016113d890613c4b565b60405180910390fd5b600360008373ffffffffffffffffffffffffffffffffffffffff1673ffffffffffffffffffffffffffffffffffffffff168152602001908152602001600020549050919050565b3373ffffffffffffffffffffffffffffffffffffffff16600b600085815260200190815260200160002060020160009054906101000a900473ffffffffffffffffffffffffffffffffffffffff1673ffffffffffffffffffffffffffffffffffffffff16146114cc576040517f08c379a00000000000000000000000000000000000000000000000000000000081526004016114c390613cdd565b60405180910390fd5b6009543414611510576040517f08c379a000000000000000000000000000000000000000000000000000000000815260040161150790613d6f565b60405180910390fd5b6000600b600085815260200190815260200160002060040160006101000a81548160ff02191690831515021790555081600b60008581526020019081526020016000206003018190555033600b600085815260200190815260200160002060010160006101000a81548173ffffffffffffffffffffffffffffffffffffffff021916908373ffffffffffffffffffffffffffffffffffffffff16021790555030600b600085815260200190815260200160002060020160006101000a81548173ffffffffffffffffffffffffffffffffffffffff021916908373ffffffffffffffffffffffffffffffffffffffff16021790555080600b600085815260200190815260200160002060050190816116279190613f3b565b506008600081548092919061163b9061400d565b919050555061164b3330856120a5565b505050565b600a60009054906101000a900473ffffffffffffffffffffffffffffffffffffffff1681565b606060018054611685906137c0565b80601f01602080910402602001604051908101604052809291908181526020018280546116b1906137c0565b80156116fe5780601f106116d3576101008083540402835291602001916116fe565b820191906000526020600020905b8154815290600101906020018083116116e157829003601f168201915b5050505050905090565b61171a611713611f06565b838361230b565b5050565b3373ffffffffffffffffffffffffffffffffffffffff16600a60009054906101000a900473ffffffffffffffffffffffffffffffffffffffff1673ffffffffffffffffffffffffffffffffffffffff16146117ae576040517f08c379a00000000000000000000000000000000000000000000000000000000081526004016117a5906140a8565b60405180910390fd5b8060098190555050565b6117c0612d0d565b600b60008381526020019081526020016000206040518060c0016040529081600082015481526020016001820160009054906101000a900473ffffffffffffffffffffffffffffffffffffffff1673ffffffffffffffffffffffffffffffffffffffff1673ffffffffffffffffffffffffffffffffffffffff1681526020016002820160009054906101000a900473ffffffffffffffffffffffffffffffffffffffff1673ffffffffffffffffffffffffffffffffffffffff1673ffffffffffffffffffffffffffffffffffffffff168152602001600382015481526020016004820160009054906101000a900460ff161515151581526020016005820180546118c9906137c0565b80601f01602080910402602001604051908101604052809291908181526020018280546118f5906137c0565b80156119425780601f1061191757610100808354040283529160200191611942565b820191906000526020600020905b81548152906001019060200180831161192557829003601f168201915b5050505050815250509050919050565b61196361195d611f06565b83611fc7565b6119a2576040517f08c379a000000000000000000000000000000000000000000000000000000000815260040161199990613b27565b60405180910390fd5b6119ae84848484612477565b50505050565b6000600b6000838152602001908152602001600020600301549050803414611a11576040517f08c379a0000000000000000000000000000000000000000000000000000000008152600401611a089061413a565b60405180910390fd5b33600b600084815260200190815260200160002060020160006101000a81548173ffffffffffffffffffffffffffffffffffffffff021916908373ffffffffffffffffffffffffffffffffffffffff1602179055506001600b600084815260200190815260200160002060040160006101000a81548160ff0219169083151502179055506000600b600084815260200190815260200160002060010160006101000a81548173ffffffffffffffffffffffffffffffffffffffff021916908373ffffffffffffffffffffffffffffffffffffffff16021790555060086000815480929190611afe90613a6d565b9190505550611b0e3033846120a5565b600a60009054906101000a900473ffffffffffffffffffffffffffffffffffffffff1673ffffffffffffffffffffffffffffffffffffffff166108fc6009549081150290604051600060405180830381858888f19350505050158015611b78573d6000803e3d6000fd5b50600b600083815260200190815260200160002060010160009054906101000a900473ffffffffffffffffffffffffffffffffffffffff1673ffffffffffffffffffffffffffffffffffffffff166108fc349081150290604051600060405180830381858888f19350505050158015611bf5573d6000803e3d6000fd5b505050565b600060076000815480929190611c0f90613a6d565b919050555060006007549050611c2533826124d3565b611c2f81866126ac565b611c3a818585612719565b809150509392505050565b60095481565b6060611c5682611e9a565b611c95576040517f08c379a0000000000000000000000000000000000000000000000000000000008152600401611c8c906141cc565b60405180910390fd5b6000600660008481526020019081526020016000208054611cb5906137c0565b80601f0160208091040260200160405190810160405280929190818152602001828054611ce1906137c0565b8015611d2e5780601f10611d0357610100808354040283529160200191611d2e565b820191906000526020600020905b815481529060010190602001808311611d1157829003601f168201915b505050505090506000611d3f61293b565b90506000815103611d54578192505050611d97565b600082511115611d89578082604051602001611d71929190614228565b60405160208183030381529060405292505050611d97565b611d9284612952565b925050505b919050565b6000600560008473ffffffffffffffffffffffffffffffffffffffff1673ffffffffffffffffffffffffffffffffffffffff16815260200190815260200160002060008373ffffffffffffffffffffffffffffffffffffffff1673ffffffffffffffffffffffffffffffffffffffff16815260200190815260200160002060009054906101000a900460ff16905092915050565b60007f01ffc9a7000000000000000000000000000000000000000000000000000000007bffffffffffffffffffffffffffffffffffffffffffffffffffffffff1916827bffffffffffffffffffffffffffffffffffffffffffffffffffffffff1916149050919050565b60008073ffffffffffffffffffffffffffffffffffffffff166002600084815260200190815260200160002060009054906101000a900473ffffffffffffffffffffffffffffffffffffffff1673ffffffffffffffffffffffffffffffffffffffff1614159050919050565b600033905090565b816004600083815260200190815260200160002060006101000a81548173ffffffffffffffffffffffffffffffffffffffff021916908373ffffffffffffffffffffffffffffffffffffffff160217905550808273ffffffffffffffffffffffffffffffffffffffff16611f81836112c0565b73ffffffffffffffffffffffffffffffffffffffff167f8c5be1e5ebec7d5bd14f71427d1e84f3dd0314c0f7b2291e5b200ac8c7c3b92560405160405180910390a45050565b6000611fd282611e9a565b612011576040517f08c379a0000000000000000000000000000000000000000000000000000000008152600401612008906142be565b60405180910390fd5b600061201c836112c0565b90508073ffffffffffffffffffffffffffffffffffffffff168473ffffffffffffffffffffffffffffffffffffffff16148061208b57508373ffffffffffffffffffffffffffffffffffffffff1661207384610718565b73ffffffffffffffffffffffffffffffffffffffff16145b8061209c575061209b8185611d9c565b5b91505092915050565b8273ffffffffffffffffffffffffffffffffffffffff166120c5826112c0565b73ffffffffffffffffffffffffffffffffffffffff161461211b576040517f08c379a000000000000000000000000000000000000000000000000000000000815260040161211290614350565b60405180910390fd5b600073ffffffffffffffffffffffffffffffffffffffff168273ffffffffffffffffffffffffffffffffffffffff160361218a576040517f08c379a0000000000000000000000000000000000000000000000000000000008152600401612181906143e2565b60405180910390fd5b6121958383836129f9565b6121a0600082611f0e565b6001600360008573ffffffffffffffffffffffffffffffffffffffff1673ffffffffffffffffffffffffffffffffffffffff16815260200190815260200160002060008282546121f091906139d6565b925050819055506001600360008473ffffffffffffffffffffffffffffffffffffffff1673ffffffffffffffffffffffffffffffffffffffff16815260200190815260200160002060008282546122479190613a39565b92505081905550816002600083815260200190815260200160002060006101000a81548173ffffffffffffffffffffffffffffffffffffffff021916908373ffffffffffffffffffffffffffffffffffffffff160217905550808273ffffffffffffffffffffffffffffffffffffffff168473ffffffffffffffffffffffffffffffffffffffff167fddf252ad1be2c89b69c2b068fc378daa952ba7f163c4a11628f55a4df523b3ef60405160405180910390a46123068383836129fe565b505050565b8173ffffffffffffffffffffffffffffffffffffffff168373ffffffffffffffffffffffffffffffffffffffff1603612379576040517f08c379a00000000000000000000000000000000000000000000000000000000081526004016123709061444e565b60405180910390fd5b80600560008573ffffffffffffffffffffffffffffffffffffffff1673ffffffffffffffffffffffffffffffffffffffff16815260200190815260200160002060008473ffffffffffffffffffffffffffffffffffffffff1673ffffffffffffffffffffffffffffffffffffffff16815260200190815260200160002060006101000a81548160ff0219169083151502179055508173ffffffffffffffffffffffffffffffffffffffff168373ffffffffffffffffffffffffffffffffffffffff167f17307eab39ab6107e8899845ad3d59bd9653f200f220920489ca2b5937696c318360405161246a9190612e25565b60405180910390a3505050565b6124828484846120a5565b61248e84848484612a03565b6124cd576040517f08c379a00000000000000000000000000000000000000000000000000000000081526004016124c4906144e0565b60405180910390fd5b50505050565b600073ffffffffffffffffffffffffffffffffffffffff168273ffffffffffffffffffffffffffffffffffffffff1603612542576040517f08c379a00000000000000000000000000000000000000000000000000000000081526004016125399061454c565b60405180910390fd5b61254b81611e9a565b1561258b576040517f08c379a0000000000000000000000000000000000000000000000000000000008152600401612582906145b8565b60405180910390fd5b612597600083836129f9565b6001600360008473ffffffffffffffffffffffffffffffffffffffff1673ffffffffffffffffffffffffffffffffffffffff16815260200190815260200160002060008282546125e79190613a39565b92505081905550816002600083815260200190815260200160002060006101000a81548173ffffffffffffffffffffffffffffffffffffffff021916908373ffffffffffffffffffffffffffffffffffffffff160217905550808273ffffffffffffffffffffffffffffffffffffffff16600073ffffffffffffffffffffffffffffffffffffffff167fddf252ad1be2c89b69c2b068fc378daa952ba7f163c4a11628f55a4df523b3ef60405160405180910390a46126a8600083836129fe565b5050565b6126b582611e9a565b6126f4576040517f08c379a00000000000000000000000000000000000000000000000000000000081526004016126eb9061464a565b60405180910390fd5b806006600084815260200190815260200160002090816127149190613f3b565b505050565b6000821161275c576040517f08c379a0000000000000000000000000000000000000000000000000000000008152600401612753906146b6565b60405180910390fd5b60095434146127a0576040517f08c379a000000000000000000000000000000000000000000000000000000000815260040161279790613d6f565b60405180910390fd5b6040518060c001604052808481526020013373ffffffffffffffffffffffffffffffffffffffff1681526020013073ffffffffffffffffffffffffffffffffffffffff16815260200183815260200160001515815260200182815250600b60008581526020019081526020016000206000820151816000015560208201518160010160006101000a81548173ffffffffffffffffffffffffffffffffffffffff021916908373ffffffffffffffffffffffffffffffffffffffff16021790555060408201518160020160006101000a81548173ffffffffffffffffffffffffffffffffffffffff021916908373ffffffffffffffffffffffffffffffffffffffff1602179055506060820151816003015560808201518160040160006101000a81548160ff02191690831515021790555060a08201518160050190816128e69190613f3b565b509050506128f53330856120a5565b827fddaeb01fb1ddce9789e64660541353c5a90fdd3e87ad074757173128396df02133308560008660405161292e9594939291906146d6565b60405180910390a2505050565b606060405180602001604052806000815250905090565b606061295d82611e9a565b61299c576040517f08c379a0000000000000000000000000000000000000000000000000000000008152600401612993906147a2565b60405180910390fd5b60006129a661293b565b905060008151116129c657604051806020016040528060008152506129f1565b806129d084612b8a565b6040516020016129e1929190614228565b6040516020818303038152906040525b915050919050565b505050565b505050565b6000612a248473ffffffffffffffffffffffffffffffffffffffff16612cea565b15612b7d578373ffffffffffffffffffffffffffffffffffffffff1663150b7a02612a4d611f06565b8786866040518563ffffffff1660e01b8152600401612a6f9493929190614817565b6020604051808303816000875af1925050508015612aab57506040513d601f19601f82011682018060405250810190612aa89190614878565b60015b612b2d573d8060008114612adb576040519150601f19603f3d011682016040523d82523d6000602084013e612ae0565b606091505b506000815103612b25576040517f08c379a0000000000000000000000000000000000000000000000000000000008152600401612b1c906144e0565b60405180910390fd5b805181602001fd5b63150b7a0260e01b7bffffffffffffffffffffffffffffffffffffffffffffffffffffffff1916817bffffffffffffffffffffffffffffffffffffffffffffffffffffffff191614915050612b82565b600190505b949350505050565b606060008203612bd1576040518060400160405280600181526020017f30000000000000000000000000000000000000000000000000000000000000008152509050612ce5565b600082905060005b60008214612c03578080612bec90613a6d565b915050600a82612bfc91906148d4565b9150612bd9565b60008167ffffffffffffffff811115612c1f57612c1e6132c7565b5b6040519080825280601f01601f191660200182016040528015612c515781602001600182028036833780820191505090505b5090505b60008514612cde57600182612c6a91906139d6565b9150600a85612c799190614905565b6030612c859190613a39565b60f81b818381518110612c9b57612c9a613a0a565b5b60200101907effffffffffffffffffffffffffffffffffffffffffffffffffffffffffffff1916908160001a905350600a85612cd791906148d4565b9450612c55565b8093505050505b919050565b6000808273ffffffffffffffffffffffffffffffffffffffff163b119050919050565b6040518060c0016040528060008152602001600073ffffffffffffffffffffffffffffffffffffffff168152602001600073ffffffffffffffffffffffffffffffffffffffff16815260200160008152602001600015158152602001606081525090565b6000604051905090565b600080fd5b600080fd5b60007fffffffff0000000000000000000000000000000000000000000000000000000082169050919050565b612dba81612d85565b8114612dc557600080fd5b50565b600081359050612dd781612db1565b92915050565b600060208284031215612df357612df2612d7b565b5b6000612e0184828501612dc8565b91505092915050565b60008115159050919050565b612e1f81612e0a565b82525050565b6000602082019050612e3a6000830184612e16565b92915050565b600081519050919050565b600082825260208201905092915050565b60005b83811015612e7a578082015181840152602081019050612e5f565b60008484015250505050565b6000601f19601f8301169050919050565b6000612ea282612e40565b612eac8185612e4b565b9350612ebc818560208601612e5c565b612ec581612e86565b840191505092915050565b60006020820190508181036000830152612eea8184612e97565b905092915050565b6000819050919050565b612f0581612ef2565b8114612f1057600080fd5b50565b600081359050612f2281612efc565b92915050565b600060208284031215612f3e57612f3d612d7b565b5b6000612f4c84828501612f13565b91505092915050565b600073ffffffffffffffffffffffffffffffffffffffff82169050919050565b6000612f8082612f55565b9050919050565b612f9081612f75565b82525050565b6000602082019050612fab6000830184612f87565b92915050565b612fba81612f75565b8114612fc557600080fd5b50565b600081359050612fd781612fb1565b92915050565b60008060408385031215612ff457612ff3612d7b565b5b600061300285828601612fc8565b925050602061301385828601612f13565b9150509250929050565b600081519050919050565b600082825260208201905092915050565b6000819050602082019050919050565b61305281612ef2565b82525050565b600061306382612f55565b9050919050565b61307381613058565b82525050565b61308281612e0a565b82525050565b600082825260208201905092915050565b60006130a482612e40565b6130ae8185613088565b93506130be818560208601612e5c565b6130c781612e86565b840191505092915050565b600060c0830160008301516130ea6000860182613049565b5060208301516130fd602086018261306a565b506040830151613110604086018261306a565b5060608301516131236060860182613049565b5060808301516131366080860182613079565b5060a083015184820360a086015261314e8282613099565b9150508091505092915050565b600061316783836130d2565b905092915050565b6000602082019050919050565b60006131878261301d565b6131918185613028565b9350836020820285016131a385613039565b8060005b858110156131df57848403895281516131c0858261315b565b94506131cb8361316f565b925060208a019950506001810190506131a7565b50829750879550505050505092915050565b6000602082019050818103600083015261320b818461317c565b905092915050565b61321c81612ef2565b82525050565b60006020820190506132376000830184613213565b92915050565b60008060006060848603121561325657613255612d7b565b5b600061326486828701612fc8565b935050602061327586828701612fc8565b925050604061328686828701612f13565b9150509250925092565b6000602082840312156132a6576132a5612d7b565b5b60006132b484828501612fc8565b91505092915050565b600080fd5b600080fd5b7f4e487b7100000000000000000000000000000000000000000000000000000000600052604160045260246000fd5b6132ff82612e86565b810181811067ffffffffffffffff8211171561331e5761331d6132c7565b5b80604052505050565b6000613331612d71565b905061333d82826132f6565b919050565b600067ffffffffffffffff82111561335d5761335c6132c7565b5b61336682612e86565b9050602081019050919050565b82818337600083830152505050565b600061339561339084613342565b613327565b9050828152602081018484840111156133b1576133b06132c2565b5b6133bc848285613373565b509392505050565b600082601f8301126133d9576133d86132bd565b5b81356133e9848260208601613382565b91505092915050565b60008060006060848603121561340b5761340a612d7b565b5b600061341986828701612f13565b935050602061342a86828701612f13565b925050604084013567ffffffffffffffff81111561344b5761344a612d80565b5b613457868287016133c4565b9150509250925092565b61346a81613058565b82525050565b60006020820190506134856000830184613461565b92915050565b61349481612e0a565b811461349f57600080fd5b50565b6000813590506134b18161348b565b92915050565b600080604083850312156134ce576134cd612d7b565b5b60006134dc85828601612fc8565b92505060206134ed858286016134a2565b9150509250929050565b600060c08301600083015161350f6000860182613049565b506020830151613522602086018261306a565b506040830151613535604086018261306a565b5060608301516135486060860182613049565b50608083015161355b6080860182613079565b5060a083015184820360a08601526135738282613099565b9150508091505092915050565b6000602082019050818103600083015261359a81846134f7565b905092915050565b600067ffffffffffffffff8211156135bd576135bc6132c7565b5b6135c682612e86565b9050602081019050919050565b60006135e66135e1846135a2565b613327565b905082815260208101848484011115613602576136016132c2565b5b61360d848285613373565b509392505050565b600082601f83011261362a576136296132bd565b5b813561363a8482602086016135d3565b91505092915050565b6000806000806080858703121561365d5761365c612d7b565b5b600061366b87828801612fc8565b945050602061367c87828801612fc8565b935050604061368d87828801612f13565b925050606085013567ffffffffffffffff8111156136ae576136ad612d80565b5b6136ba87828801613615565b91505092959194509250565b6000806000606084860312156136df576136de612d7b565b5b600084013567ffffffffffffffff8111156136fd576136fc612d80565b5b613709868287016133c4565b935050602061371a86828701612f13565b925050604084013567ffffffffffffffff81111561373b5761373a612d80565b5b613747868287016133c4565b9150509250925092565b6000806040838503121561376857613767612d7b565b5b600061377685828601612fc8565b925050602061378785828601612fc8565b9150509250929050565b7f4e487b7100000000000000000000000000000000000000000000000000000000600052602260045260246000fd5b600060028204905060018216806137d857607f821691505b6020821081036137eb576137ea613791565b5b50919050565b7f4552433732313a20617070726f76656420717565727920666f72206e6f6e657860008201527f697374656e7420746f6b656e0000000000000000000000000000000000000000602082015250565b600061384d602c83612e4b565b9150613858826137f1565b604082019050919050565b6000602082019050818103600083015261387c81613840565b9050919050565b7f4552433732313a20617070726f76616c20746f2063757272656e74206f776e6560008201527f7200000000000000000000000000000000000000000000000000000000000000602082015250565b60006138df602183612e4b565b91506138ea82613883565b604082019050919050565b6000602082019050818103600083015261390e816138d2565b9050919050565b7f4552433732313a20617070726f76652063616c6c6572206973206e6f74206f7760008201527f6e6572206e6f7220617070726f76656420666f7220616c6c0000000000000000602082015250565b6000613971603883612e4b565b915061397c82613915565b604082019050919050565b600060208201905081810360008301526139a081613964565b9050919050565b7f4e487b7100000000000000000000000000000000000000000000000000000000600052601160045260246000fd5b60006139e182612ef2565b91506139ec83612ef2565b9250828203905081811115613a0457613a036139a7565b5b92915050565b7f4e487b7100000000000000000000000000000000000000000000000000000000600052603260045260246000fd5b6000613a4482612ef2565b9150613a4f83612ef2565b9250828201905080821115613a6757613a666139a7565b5b92915050565b6000613a7882612ef2565b91507fffffffffffffffffffffffffffffffffffffffffffffffffffffffffffffffff8203613aaa57613aa96139a7565b5b600182019050919050565b7f4552433732313a207472616e736665722063616c6c6572206973206e6f74206f60008201527f776e6572206e6f7220617070726f766564000000000000000000000000000000602082015250565b6000613b11603183612e4b565b9150613b1c82613ab5565b604082019050919050565b60006020820190508181036000830152613b4081613b04565b9050919050565b7f4552433732313a206f776e657220717565727920666f72206e6f6e657869737460008201527f656e7420746f6b656e0000000000000000000000000000000000000000000000602082015250565b6000613ba3602983612e4b565b9150613bae82613b47565b604082019050919050565b60006020820190508181036000830152613bd281613b96565b9050919050565b7f4552433732313a2062616c616e636520717565727920666f7220746865207a6560008201527f726f206164647265737300000000000000000000000000000000000000000000602082015250565b6000613c35602a83612e4b565b9150613c4082613bd9565b604082019050919050565b60006020820190508181036000830152613c6481613c28565b9050919050565b7f4f6e6c79206974656d206f776e65722063616e20706572666f726d207468697360008201527f206f7065726174696f6e00000000000000000000000000000000000000000000602082015250565b6000613cc7602a83612e4b565b9150613cd282613c6b565b604082019050919050565b60006020820190508181036000830152613cf681613cba565b9050919050565b7f5072696365206d75737420626520657175616c20746f206c697374696e67207060008201527f7269636500000000000000000000000000000000000000000000000000000000602082015250565b6000613d59602483612e4b565b9150613d6482613cfd565b604082019050919050565b60006020820190508181036000830152613d8881613d4c565b9050919050565b60008190508160005260206000209050919050565b60006020601f8301049050919050565b600082821b905092915050565b600060088302613df17fffffffffffffffffffffffffffffffffffffffffffffffffffffffffffffffff82613db4565b613dfb8683613db4565b95508019841693508086168417925050509392505050565b6000819050919050565b6000613e38613e33613e2e84612ef2565b613e13565b612ef2565b9050919050565b6000819050919050565b613e5283613e1d565b613e66613e5e82613e3f565b848454613dc1565b825550505050565b600090565b613e7b613e6e565b613e86818484613e49565b505050565b5b81811015613eaa57613e9f600082613e73565b600181019050613e8c565b5050565b601f821115613eef57613ec081613d8f565b613ec984613da4565b81016020851015613ed8578190505b613eec613ee485613da4565b830182613e8b565b50505b505050565b600082821c905092915050565b6000613f1260001984600802613ef4565b1980831691505092915050565b6000613f2b8383613f01565b9150826002028217905092915050565b613f4482612e40565b67ffffffffffffffff811115613f5d57613f5c6132c7565b5b613f6782546137c0565b613f72828285613eae565b600060209050601f831160018114613fa55760008415613f93578287015190505b613f9d8582613f1f565b865550614005565b601f198416613fb386613d8f565b60005b82811015613fdb57848901518255600182019150602085019450602081019050613fb6565b86831015613ff85784890151613ff4601f891682613f01565b8355505b6001600288020188555050505b505050505050565b600061401882612ef2565b91506000820361402b5761402a6139a7565b5b600182039050919050565b7f4f6e6c79206d61726b6574706c616365206f776e65722063616e20757064617460008201527f65206c697374696e672070726963652e00000000000000000000000000000000602082015250565b6000614092603083612e4b565b915061409d82614036565b604082019050919050565b600060208201905081810360008301526140c181614085565b9050919050565b7f506c65617365207375626d6974207468652061736b696e67207072696365206960008201527f6e206f7264657220746f20636f6d706c65746520746865207075726368617365602082015250565b6000614124604083612e4b565b915061412f826140c8565b604082019050919050565b6000602082019050818103600083015261415381614117565b9050919050565b7f45524337323155524953746f726167653a2055524920717565727920666f722060008201527f6e6f6e6578697374656e7420746f6b656e000000000000000000000000000000602082015250565b60006141b6603183612e4b565b91506141c18261415a565b604082019050919050565b600060208201905081810360008301526141e5816141a9565b9050919050565b600081905092915050565b600061420282612e40565b61420c81856141ec565b935061421c818560208601612e5c565b80840191505092915050565b600061423482856141f7565b915061424082846141f7565b91508190509392505050565b7f4552433732313a206f70657261746f7220717565727920666f72206e6f6e657860008201527f697374656e7420746f6b656e0000000000000000000000000000000000000000602082015250565b60006142a8602c83612e4b565b91506142b38261424c565b604082019050919050565b600060208201905081810360008301526142d78161429b565b9050919050565b7f4552433732313a207472616e736665722066726f6d20696e636f72726563742060008201527f6f776e6572000000000000000000000000000000000000000000000000000000602082015250565b600061433a602583612e4b565b9150614345826142de565b604082019050919050565b600060208201905081810360008301526143698161432d565b9050919050565b7f4552433732313a207472616e7366657220746f20746865207a65726f2061646460008201527f7265737300000000000000000000000000000000000000000000000000000000602082015250565b60006143cc602483612e4b565b91506143d782614370565b604082019050919050565b600060208201905081810360008301526143fb816143bf565b9050919050565b7f4552433732313a20617070726f766520746f2063616c6c657200000000000000600082015250565b6000614438601983612e4b565b915061444382614402565b602082019050919050565b600060208201905081810360008301526144678161442b565b9050919050565b7f4552433732313a207472616e7366657220746f206e6f6e20455243373231526560008201527f63656976657220696d706c656d656e7465720000000000000000000000000000602082015250565b60006144ca603283612e4b565b91506144d58261446e565b604082019050919050565b600060208201905081810360008301526144f9816144bd565b9050919050565b7f4552433732313a206d696e7420746f20746865207a65726f2061646472657373600082015250565b6000614536602083612e4b565b915061454182614500565b602082019050919050565b6000602082019050818103600083015261456581614529565b9050919050565b7f4552433732313a20746f6b656e20616c7265616479206d696e74656400000000600082015250565b60006145a2601c83612e4b565b91506145ad8261456c565b602082019050919050565b600060208201905081810360008301526145d181614595565b9050919050565b7f45524337323155524953746f726167653a2055524920736574206f66206e6f6e60008201527f6578697374656e7420746f6b656e000000000000000000000000000000000000602082015250565b6000614634602e83612e4b565b915061463f826145d8565b604082019050919050565b6000602082019050818103600083015261466381614627565b9050919050565b7f5072696365206d757374206265206174206c6561737420312077656900000000600082015250565b60006146a0601c83612e4b565b91506146ab8261466a565b602082019050919050565b600060208201905081810360008301526146cf81614693565b9050919050565b600060a0820190506146eb6000830188612f87565b6146f86020830187612f87565b6147056040830186613213565b6147126060830185612e16565b81810360808301526147248184612e97565b90509695505050505050565b7f4552433732314d657461646174613a2055524920717565727920666f72206e6f60008201527f6e6578697374656e7420746f6b656e0000000000000000000000000000000000602082015250565b600061478c602f83612e4b565b915061479782614730565b604082019050919050565b600060208201905081810360008301526147bb8161477f565b9050919050565b600081519050919050565b600082825260208201905092915050565b60006147e9826147c2565b6147f381856147cd565b9350614803818560208601612e5c565b61480c81612e86565b840191505092915050565b600060808201905061482c6000830187612f87565b6148396020830186612f87565b6148466040830185613213565b818103606083015261485881846147de565b905095945050505050565b60008151905061487281612db1565b92915050565b60006020828403121561488e5761488d612d7b565b5b600061489c84828501614863565b91505092915050565b7f4e487b7100000000000000000000000000000000000000000000000000000000600052601260045260246000fd5b60006148df82612ef2565b91506148ea83612ef2565b9250826148fa576148f96148a5565b5b828204905092915050565b600061491082612ef2565b915061491b83612ef2565b92508261492b5761492a6148a5565b5b82820690509291505056fea26469706673582212205366da08a1023842d8c2168fc63a52415d0e879af653e2ebdcc26228fc60eb1764736f6c63430008140033",
  "linkReferences": {},
  "deployedLinkReferences": {}
}