{
  "_format": "hh-sol-artifact-1",
  "contractName": "NFTMarketplace",
  "sourceName": "contracts/NFTMarketplace.sol",
  "abi": [
    {
      "inputs": [],
      "stateMutability": "nonpayable",
      "type": "constructor"
    },
    {
      "anonymous": false,
      "inputs": [
        {
          "indexed": true,
          "internalType": "address",
          "name": "owner",
          "type": "address"
        },
        {
          "indexed": true,
          "internalType": "address",
          "name": "approved",
          "type": "address"
        },
        {
          "indexed": true,
          "internalType": "uint256",
          "name": "tokenId",
          "type": "uint256"
        }
      ],
      "name": "Approval",
      "type": "event"
    },
    {
      "anonymous": false,
      "inputs": [
        {
          "indexed": true,
          "internalType": "address",
          "name": "owner",
          "type": "address"
        },
        {
          "indexed": true,
          "internalType": "address",
          "name": "operator",
          "type": "address"
        },
        {
          "indexed": false,
          "internalType": "bool",
          "name": "approved",
          "type": "bool"
        }
      ],
      "name": "ApprovalForAll",
      "type": "event"
    },
    {
      "anonymous": false,
      "inputs": [
        {
          "indexed": true,
          "internalType": "uint256",
          "name": "tokenId",
          "type": "uint256"
        },
        {
          "indexed": false,
          "internalType": "address",
          "name": "seller",
          "type": "address"
        },
        {
          "indexed": false,
          "internalType": "address",
          "name": "owner",
          "type": "address"
        },
        {
          "indexed": false,
          "internalType": "uint256",
          "name": "price",
          "type": "uint256"
        },
        {
          "indexed": false,
          "internalType": "bool",
          "name": "sold",
          "type": "bool"
        }
      ],
      "name": "MarketItemCreated",
      "type": "event"
    },
    {
      "anonymous": false,
      "inputs": [
        {
          "indexed": true,
          "internalType": "address",
          "name": "from",
          "type": "address"
        },
        {
          "indexed": true,
          "internalType": "address",
          "name": "to",
          "type": "address"
        },
        {
          "indexed": true,
          "internalType": "uint256",
          "name": "tokenId",
          "type": "uint256"
        }
      ],
      "name": "Transfer",
      "type": "event"
    },
    {
      "inputs": [
        {
          "internalType": "address",
          "name": "to",
          "type": "address"
        },
        {
          "internalType": "uint256",
          "name": "tokenId",
          "type": "uint256"
        }
      ],
      "name": "approve",
      "outputs": [],
      "stateMutability": "nonpayable",
      "type": "function"
    },
    {
      "inputs": [
        {
          "internalType": "address",
          "name": "owner",
          "type": "address"
        }
      ],
      "name": "balanceOf",
      "outputs": [
        {
          "internalType": "uint256",
          "name": "",
          "type": "uint256"
        }
      ],
      "stateMutability": "view",
      "type": "function"
    },
    {
      "inputs": [
        {
          "internalType": "uint256",
          "name": "tokenId",
          "type": "uint256"
        }
      ],
      "name": "createMarketSale",
      "outputs": [],
      "stateMutability": "payable",
      "type": "function"
    },
    {
      "inputs": [
        {
          "internalType": "string",
          "name": "tokenURI",
          "type": "string"
        },
        {
          "internalType": "uint256",
          "name": "price",
          "type": "uint256"
        }
      ],
      "name": "createToken",
      "outputs": [
        {
          "internalType": "uint256",
          "name": "",
          "type": "uint256"
        }
      ],
      "stateMutability": "payable",
      "type": "function"
    },
    {
      "inputs": [],
      "name": "fetchItemsListed",
      "outputs": [
        {
          "components": [
            {
              "internalType": "uint256",
              "name": "tokenId",
              "type": "uint256"
            },
            {
              "internalType": "address payable",
              "name": "seller",
              "type": "address"
            },
            {
              "internalType": "address payable",
              "name": "owner",
              "type": "address"
            },
            {
              "internalType": "uint256",
              "name": "price",
              "type": "uint256"
            },
            {
              "internalType": "bool",
              "name": "sold",
              "type": "bool"
            }
          ],
          "internalType": "struct NFTMarketplace.MarketItem[]",
          "name": "",
          "type": "tuple[]"
        }
      ],
      "stateMutability": "view",
      "type": "function"
    },
    {
      "inputs": [],
      "name": "fetchMarketItems",
      "outputs": [
        {
          "components": [
            {
              "internalType": "uint256",
              "name": "tokenId",
              "type": "uint256"
            },
            {
              "internalType": "address payable",
              "name": "seller",
              "type": "address"
            },
            {
              "internalType": "address payable",
              "name": "owner",
              "type": "address"
            },
            {
              "internalType": "uint256",
              "name": "price",
              "type": "uint256"
            },
            {
              "internalType": "bool",
              "name": "sold",
              "type": "bool"
            }
          ],
          "internalType": "struct NFTMarketplace.MarketItem[]",
          "name": "",
          "type": "tuple[]"
        }
      ],
      "stateMutability": "view",
      "type": "function"
    },
    {
      "inputs": [],
      "name": "fetchMyNFTs",
      "outputs": [
        {
          "components": [
            {
              "internalType": "uint256",
              "name": "tokenId",
              "type": "uint256"
            },
            {
              "internalType": "address payable",
              "name": "seller",
              "type": "address"
            },
            {
              "internalType": "address payable",
              "name": "owner",
              "type": "address"
            },
            {
              "internalType": "uint256",
              "name": "price",
              "type": "uint256"
            },
            {
              "internalType": "bool",
              "name": "sold",
              "type": "bool"
            }
          ],
          "internalType": "struct NFTMarketplace.MarketItem[]",
          "name": "",
          "type": "tuple[]"
        }
      ],
      "stateMutability": "view",
      "type": "function"
    },
    {
      "inputs": [
        {
          "internalType": "uint256",
          "name": "tokenId",
          "type": "uint256"
        }
      ],
      "name": "fetchTokenDetails",
      "outputs": [
        {
          "components": [
            {
              "internalType": "uint256",
              "name": "tokenId",
              "type": "uint256"
            },
            {
              "internalType": "address payable",
              "name": "seller",
              "type": "address"
            },
            {
              "internalType": "address payable",
              "name": "owner",
              "type": "address"
            },
            {
              "internalType": "uint256",
              "name": "price",
              "type": "uint256"
            },
            {
              "internalType": "bool",
              "name": "sold",
              "type": "bool"
            }
          ],
          "internalType": "struct NFTMarketplace.MarketItem",
          "name": "",
          "type": "tuple"
        }
      ],
      "stateMutability": "view",
      "type": "function"
    },
    {
      "inputs": [
        {
          "internalType": "uint256",
          "name": "tokenId",
          "type": "uint256"
        }
      ],
      "name": "getApproved",
      "outputs": [
        {
          "internalType": "address",
          "name": "",
          "type": "address"
        }
      ],
      "stateMutability": "view",
      "type": "function"
    },
    {
      "inputs": [],
      "name": "getListingPrice",
      "outputs": [
        {
          "internalType": "uint256",
          "name": "",
          "type": "uint256"
        }
      ],
      "stateMutability": "view",
      "type": "function"
    },
    {
      "inputs": [
        {
          "internalType": "address",
          "name": "owner",
          "type": "address"
        },
        {
          "internalType": "address",
          "name": "operator",
          "type": "address"
        }
      ],
      "name": "isApprovedForAll",
      "outputs": [
        {
          "internalType": "bool",
          "name": "",
          "type": "bool"
        }
      ],
      "stateMutability": "view",
      "type": "function"
    },
    {
      "inputs": [],
      "name": "listingPrice",
      "outputs": [
        {
          "internalType": "uint256",
          "name": "",
          "type": "uint256"
        }
      ],
      "stateMutability": "view",
      "type": "function"
    },
    {
      "inputs": [],
      "name": "name",
      "outputs": [
        {
          "internalType": "string",
          "name": "",
          "type": "string"
        }
      ],
      "stateMutability": "view",
      "type": "function"
    },
    {
      "inputs": [],
      "name": "owner",
      "outputs": [
        {
          "internalType": "address payable",
          "name": "",
          "type": "address"
        }
      ],
      "stateMutability": "view",
      "type": "function"
    },
    {
      "inputs": [
        {
          "internalType": "uint256",
          "name": "tokenId",
          "type": "uint256"
        }
      ],
      "name": "ownerOf",
      "outputs": [
        {
          "internalType": "address",
          "name": "",
          "type": "address"
        }
      ],
      "stateMutability": "view",
      "type": "function"
    },
    {
      "inputs": [
        {
          "internalType": "uint256",
          "name": "tokenId",
          "type": "uint256"
        },
        {
          "internalType": "uint256",
          "name": "price",
          "type": "uint256"
        }
      ],
      "name": "resellToken",
      "outputs": [],
      "stateMutability": "payable",
      "type": "function"
    },
    {
      "inputs": [
        {
          "internalType": "address",
          "name": "from",
          "type": "address"
        },
        {
          "internalType": "address",
          "name": "to",
          "type": "address"
        },
        {
          "internalType": "uint256",
          "name": "tokenId",
          "type": "uint256"
        }
      ],
      "name": "safeTransferFrom",
      "outputs": [],
      "stateMutability": "nonpayable",
      "type": "function"
    },
    {
      "inputs": [
        {
          "internalType": "address",
          "name": "from",
          "type": "address"
        },
        {
          "internalType": "address",
          "name": "to",
          "type": "address"
        },
        {
          "internalType": "uint256",
          "name": "tokenId",
          "type": "uint256"
        },
        {
          "internalType": "bytes",
          "name": "_data",
          "type": "bytes"
        }
      ],
      "name": "safeTransferFrom",
      "outputs": [],
      "stateMutability": "nonpayable",
      "type": "function"
    },
    {
      "inputs": [
        {
          "internalType": "address",
          "name": "operator",
          "type": "address"
        },
        {
          "internalType": "bool",
          "name": "approved",
          "type": "bool"
        }
      ],
      "name": "setApprovalForAll",
      "outputs": [],
      "stateMutability": "nonpayable",
      "type": "function"
    },
    {
      "inputs": [
        {
          "internalType": "bytes4",
          "name": "interfaceId",
          "type": "bytes4"
        }
      ],
      "name": "supportsInterface",
      "outputs": [
        {
          "internalType": "bool",
          "name": "",
          "type": "bool"
        }
      ],
      "stateMutability": "view",
      "type": "function"
    },
    {
      "inputs": [],
      "name": "symbol",
      "outputs": [
        {
          "internalType": "string",
          "name": "",
          "type": "string"
        }
      ],
      "stateMutability": "view",
      "type": "function"
    },
    {
      "inputs": [
        {
          "internalType": "uint256",
          "name": "tokenId",
          "type": "uint256"
        }
      ],
      "name": "tokenURI",
      "outputs": [
        {
          "internalType": "string",
          "name": "",
          "type": "string"
        }
      ],
      "stateMutability": "view",
      "type": "function"
    },
    {
      "inputs": [
        {
          "internalType": "address",
          "name": "from",
          "type": "address"
        },
        {
          "internalType": "address",
          "name": "to",
          "type": "address"
        },
        {
          "internalType": "uint256",
          "name": "tokenId",
          "type": "uint256"
        }
      ],
      "name": "transferFrom",
      "outputs": [],
      "stateMutability": "nonpayable",
      "type": "function"
    },
    {
      "inputs": [
        {
          "internalType": "uint256",
          "name": "_listingPrice",
          "type": "uint256"
        }
      ],
      "name": "updateListingPrice",
      "outputs": [],
      "stateMutability": "payable",
      "type": "function"
    }
  ],
  "bytecode": "0x60806040526658d15e176280006009553480156200001c57600080fd5b506040518060400160405280601081526020017f4d657461766572736520546f6b656e73000000000000000000000000000000008152506040518060400160405280600481526020017f4d4554540000000000000000000000000000000000000000000000000000000081525081600090816200009a919062000370565b508060019081620000ac919062000370565b50505033600a60006101000a81548173ffffffffffffffffffffffffffffffffffffffff021916908373ffffffffffffffffffffffffffffffffffffffff16021790555062000457565b600081519050919050565b7f4e487b7100000000000000000000000000000000000000000000000000000000600052604160045260246000fd5b7f4e487b7100000000000000000000000000000000000000000000000000000000600052602260045260246000fd5b600060028204905060018216806200017857607f821691505b6020821081036200018e576200018d62000130565b5b50919050565b60008190508160005260206000209050919050565b60006020601f8301049050919050565b600082821b905092915050565b600060088302620001f87fffffffffffffffffffffffffffffffffffffffffffffffffffffffffffffffff82620001b9565b620002048683620001b9565b95508019841693508086168417925050509392505050565b6000819050919050565b6000819050919050565b6000620002516200024b62000245846200021c565b62000226565b6200021c565b9050919050565b6000819050919050565b6200026d8362000230565b620002856200027c8262000258565b848454620001c6565b825550505050565b600090565b6200029c6200028d565b620002a981848462000262565b505050565b5b81811015620002d157620002c560008262000292565b600181019050620002af565b5050565b601f8211156200032057620002ea8162000194565b620002f584620001a9565b8101602085101562000305578190505b6200031d6200031485620001a9565b830182620002ae565b50505b505050565b600082821c905092915050565b6000620003456000198460080262000325565b1980831691505092915050565b600062000360838362000332565b9150826002028217905092915050565b6200037b82620000f6565b67ffffffffffffffff81111562000397576200039662000101565b5b620003a382546200015f565b620003b0828285620002d5565b600060209050601f831160018114620003e85760008415620003d3578287015190505b620003df858262000352565b8655506200044f565b601f198416620003f88662000194565b60005b828110156200042257848901518255600182019150602085019450602081019050620003fb565b868310156200044257848901516200043e601f89168262000332565b8355505b6001600288020188555050505b505050505050565b6145be80620004676000396000f3fe60806040526004361061014b5760003560e01c806372b3b620116100b6578063b88d4fde1161006f578063b88d4fde1461049e578063be9af536146104c7578063c78f19f9146104e3578063c87b56dd1461050e578063e219fc751461054b578063e985e9c5146105675761014b565b806372b3b620146103965780638da5cb5b146103c657806395d89b41146103f1578063a22cb4651461041c578063ae677aa314610445578063b863a7cd146104615761014b565b8063202e374011610108578063202e37401461027457806323b872dd1461029f57806342842e0e146102c857806345f8fa80146102f15780636352211e1461031c57806370a08231146103595761014b565b806301ffc9a71461015057806306fdde031461018d578063081812fc146101b8578063095ea7b3146101f55780630f08efe01461021e57806312e8558514610249575b600080fd5b34801561015c57600080fd5b5061017760048036038101906101729190612b48565b6105a4565b6040516101849190612b90565b60405180910390f35b34801561019957600080fd5b506101a2610686565b6040516101af9190612c3b565b60405180910390f35b3480156101c457600080fd5b506101df60048036038101906101da9190612c93565b610718565b6040516101ec9190612d01565b60405180910390f35b34801561020157600080fd5b5061021c60048036038101906102179190612d48565b61079d565b005b34801561022a57600080fd5b506102336108b4565b6040516102409190612ede565b60405180910390f35b34801561025557600080fd5b5061025e610af2565b60405161026b9190612f0f565b60405180910390f35b34801561028057600080fd5b50610289610afc565b6040516102969190612ede565b60405180910390f35b3480156102ab57600080fd5b506102c660048036038101906102c19190612f2a565b610dc3565b005b3480156102d457600080fd5b506102ef60048036038101906102ea9190612f2a565b610e23565b005b3480156102fd57600080fd5b50610306610e43565b6040516103139190612ede565b60405180910390f35b34801561032857600080fd5b50610343600480360381019061033e9190612c93565b61110a565b6040516103509190612d01565b60405180910390f35b34801561036557600080fd5b50610380600480360381019061037b9190612f7d565b6111bb565b60405161038d9190612f0f565b60405180910390f35b6103b060048036038101906103ab91906130df565b611272565b6040516103bd9190612f0f565b60405180910390f35b3480156103d257600080fd5b506103db6112bb565b6040516103e8919061314a565b60405180910390f35b3480156103fd57600080fd5b506104066112e1565b6040516104139190612c3b565b60405180910390f35b34801561042857600080fd5b50610443600480360381019061043e9190613191565b611373565b005b61045f600480360381019061045a9190612c93565b611389565b005b34801561046d57600080fd5b5061048860048036038101906104839190612c93565b611423565b6040516104959190613239565b60405180910390f35b3480156104aa57600080fd5b506104c560048036038101906104c091906132f5565b61152b565b005b6104e160048036038101906104dc9190612c93565b61158d565b005b3480156104ef57600080fd5b506104f86117d3565b6040516105059190612f0f565b60405180910390f35b34801561051a57600080fd5b5061053560048036038101906105309190612c93565b6117d9565b6040516105429190612c3b565b60405180910390f35b61056560048036038101906105609190613378565b61192a565b005b34801561057357600080fd5b5061058e600480360381019061058991906133b8565b611b2d565b60405161059b9190612b90565b60405180910390f35b60007f80ac58cd000000000000000000000000000000000000000000000000000000007bffffffffffffffffffffffffffffffffffffffffffffffffffffffff1916827bffffffffffffffffffffffffffffffffffffffffffffffffffffffff1916148061066f57507f5b5e139f000000000000000000000000000000000000000000000000000000007bffffffffffffffffffffffffffffffffffffffffffffffffffffffff1916827bffffffffffffffffffffffffffffffffffffffffffffffffffffffff1916145b8061067f575061067e82611bc1565b5b9050919050565b60606000805461069590613427565b80601f01602080910402602001604051908101604052809291908181526020018280546106c190613427565b801561070e5780601f106106e35761010080835404028352916020019161070e565b820191906000526020600020905b8154815290600101906020018083116106f157829003601f168201915b5050505050905090565b600061072382611c2b565b610762576040517f08c379a0000000000000000000000000000000000000000000000000000000008152600401610759906134ca565b60405180910390fd5b6004600083815260200190815260200160002060009054906101000a900473ffffffffffffffffffffffffffffffffffffffff169050919050565b60006107a88261110a565b90508073ffffffffffffffffffffffffffffffffffffffff168373ffffffffffffffffffffffffffffffffffffffff1603610818576040517f08c379a000000000000000000000000000000000000000000000000000000000815260040161080f9061355c565b60405180910390fd5b8073ffffffffffffffffffffffffffffffffffffffff16610837611c97565b73ffffffffffffffffffffffffffffffffffffffff161480610866575061086581610860611c97565b611b2d565b5b6108a5576040517f08c379a000000000000000000000000000000000000000000000000000000000815260040161089c906135ee565b60405180910390fd5b6108af8383611c9f565b505050565b60606000600754905060006008546007546108cf919061363d565b90506000808267ffffffffffffffff8111156108ee576108ed612fb4565b5b60405190808252806020026020018201604052801561092757816020015b610914612a7f565b81526020019060019003908161090c5790505b5090506000600190505b848111610ae7573073ffffffffffffffffffffffffffffffffffffffff16600b600083815260200190815260200160002060020160009054906101000a900473ffffffffffffffffffffffffffffffffffffffff1673ffffffffffffffffffffffffffffffffffffffff1603610ad45760008190506000600b60008381526020019081526020016000209050806040518060a0016040529081600082015481526020016001820160009054906101000a900473ffffffffffffffffffffffffffffffffffffffff1673ffffffffffffffffffffffffffffffffffffffff1673ffffffffffffffffffffffffffffffffffffffff1681526020016002820160009054906101000a900473ffffffffffffffffffffffffffffffffffffffff1673ffffffffffffffffffffffffffffffffffffffff1673ffffffffffffffffffffffffffffffffffffffff168152602001600382015481526020016004820160009054906101000a900460ff161515151581525050848681518110610ab757610ab6613671565b5b6020026020010181905250600185610acf91906136a0565b945050505b8080610adf906136d4565b915050610931565b508094505050505090565b6000600954905090565b6060600060075490506000806000600190505b838111610ba2573373ffffffffffffffffffffffffffffffffffffffff16600b600083815260200190815260200160002060020160009054906101000a900473ffffffffffffffffffffffffffffffffffffffff1673ffffffffffffffffffffffffffffffffffffffff1603610b8f57600183610b8c91906136a0565b92505b8080610b9a906136d4565b915050610b0f565b5060008267ffffffffffffffff811115610bbf57610bbe612fb4565b5b604051908082528060200260200182016040528015610bf857816020015b610be5612a7f565b815260200190600190039081610bdd5790505b5090506000600190505b848111610db8573373ffffffffffffffffffffffffffffffffffffffff16600b600083815260200190815260200160002060020160009054906101000a900473ffffffffffffffffffffffffffffffffffffffff1673ffffffffffffffffffffffffffffffffffffffff1603610da55760008190506000600b60008381526020019081526020016000209050806040518060a0016040529081600082015481526020016001820160009054906101000a900473ffffffffffffffffffffffffffffffffffffffff1673ffffffffffffffffffffffffffffffffffffffff1673ffffffffffffffffffffffffffffffffffffffff1681526020016002820160009054906101000a900473ffffffffffffffffffffffffffffffffffffffff1673ffffffffffffffffffffffffffffffffffffffff1673ffffffffffffffffffffffffffffffffffffffff168152602001600382015481526020016004820160009054906101000a900460ff161515151581525050848681518110610d8857610d87613671565b5b6020026020010181905250600185610da091906136a0565b945050505b8080610db0906136d4565b915050610c02565b508094505050505090565b610dd4610dce611c97565b82611d58565b610e13576040517f08c379a0000000000000000000000000000000000000000000000000000000008152600401610e0a9061378e565b60405180910390fd5b610e1e838383611e36565b505050565b610e3e8383836040518060200160405280600081525061152b565b505050565b6060600060075490506000806000600190505b838111610ee9573373ffffffffffffffffffffffffffffffffffffffff16600b600083815260200190815260200160002060010160009054906101000a900473ffffffffffffffffffffffffffffffffffffffff1673ffffffffffffffffffffffffffffffffffffffff1603610ed657600183610ed391906136a0565b92505b8080610ee1906136d4565b915050610e56565b5060008267ffffffffffffffff811115610f0657610f05612fb4565b5b604051908082528060200260200182016040528015610f3f57816020015b610f2c612a7f565b815260200190600190039081610f245790505b5090506000600190505b8481116110ff573373ffffffffffffffffffffffffffffffffffffffff16600b600083815260200190815260200160002060010160009054906101000a900473ffffffffffffffffffffffffffffffffffffffff1673ffffffffffffffffffffffffffffffffffffffff16036110ec5760008190506000600b60008381526020019081526020016000209050806040518060a0016040529081600082015481526020016001820160009054906101000a900473ffffffffffffffffffffffffffffffffffffffff1673ffffffffffffffffffffffffffffffffffffffff1673ffffffffffffffffffffffffffffffffffffffff1681526020016002820160009054906101000a900473ffffffffffffffffffffffffffffffffffffffff1673ffffffffffffffffffffffffffffffffffffffff1673ffffffffffffffffffffffffffffffffffffffff168152602001600382015481526020016004820160009054906101000a900460ff1615151515815250508486815181106110cf576110ce613671565b5b60200260200101819052506001856110e791906136a0565b945050505b80806110f7906136d4565b915050610f49565b508094505050505090565b6000806002600084815260200190815260200160002060009054906101000a900473ffffffffffffffffffffffffffffffffffffffff169050600073ffffffffffffffffffffffffffffffffffffffff168173ffffffffffffffffffffffffffffffffffffffff16036111b2576040517f08c379a00000000000000000000000000000000000000000000000000000000081526004016111a990613820565b60405180910390fd5b80915050919050565b60008073ffffffffffffffffffffffffffffffffffffffff168273ffffffffffffffffffffffffffffffffffffffff160361122b576040517f08c379a0000000000000000000000000000000000000000000000000000000008152600401611222906138b2565b60405180910390fd5b600360008373ffffffffffffffffffffffffffffffffffffffff1673ffffffffffffffffffffffffffffffffffffffff168152602001908152602001600020549050919050565b600060076000815480929190611287906136d4565b91905055506000600754905061129d338261209c565b6112a78185612275565b6112b181846122e2565b8091505092915050565b600a60009054906101000a900473ffffffffffffffffffffffffffffffffffffffff1681565b6060600180546112f090613427565b80601f016020809104026020016040519081016040528092919081815260200182805461131c90613427565b80156113695780601f1061133e57610100808354040283529160200191611369565b820191906000526020600020905b81548152906001019060200180831161134c57829003601f168201915b5050505050905090565b61138561137e611c97565b83836124e5565b5050565b3373ffffffffffffffffffffffffffffffffffffffff16600a60009054906101000a900473ffffffffffffffffffffffffffffffffffffffff1673ffffffffffffffffffffffffffffffffffffffff1614611419576040517f08c379a000000000000000000000000000000000000000000000000000000000815260040161141090613944565b60405180910390fd5b8060098190555050565b61142b612a7f565b600b60008381526020019081526020016000206040518060a0016040529081600082015481526020016001820160009054906101000a900473ffffffffffffffffffffffffffffffffffffffff1673ffffffffffffffffffffffffffffffffffffffff1673ffffffffffffffffffffffffffffffffffffffff1681526020016002820160009054906101000a900473ffffffffffffffffffffffffffffffffffffffff1673ffffffffffffffffffffffffffffffffffffffff1673ffffffffffffffffffffffffffffffffffffffff168152602001600382015481526020016004820160009054906101000a900460ff1615151515815250509050919050565b61153c611536611c97565b83611d58565b61157b576040517f08c379a00000000000000000000000000000000000000000000000000000000081526004016115729061378e565b60405180910390fd5b61158784848484612651565b50505050565b6000600b60008381526020019081526020016000206003015490508034146115ea576040517f08c379a00000000000000000000000000000000000000000000000000000000081526004016115e1906139d6565b60405180910390fd5b33600b600084815260200190815260200160002060020160006101000a81548173ffffffffffffffffffffffffffffffffffffffff021916908373ffffffffffffffffffffffffffffffffffffffff1602179055506001600b600084815260200190815260200160002060040160006101000a81548160ff0219169083151502179055506000600b600084815260200190815260200160002060010160006101000a81548173ffffffffffffffffffffffffffffffffffffffff021916908373ffffffffffffffffffffffffffffffffffffffff160217905550600860008154809291906116d7906136d4565b91905055506116e7303384611e36565b600a60009054906101000a900473ffffffffffffffffffffffffffffffffffffffff1673ffffffffffffffffffffffffffffffffffffffff166108fc6009549081150290604051600060405180830381858888f19350505050158015611751573d6000803e3d6000fd5b50600b600083815260200190815260200160002060010160009054906101000a900473ffffffffffffffffffffffffffffffffffffffff1673ffffffffffffffffffffffffffffffffffffffff166108fc349081150290604051600060405180830381858888f193505050501580156117ce573d6000803e3d6000fd5b505050565b60095481565b60606117e482611c2b565b611823576040517f08c379a000000000000000000000000000000000000000000000000000000000815260040161181a90613a68565b60405180910390fd5b600060066000848152602001908152602001600020805461184390613427565b80601f016020809104026020016040519081016040528092919081815260200182805461186f90613427565b80156118bc5780601f10611891576101008083540402835291602001916118bc565b820191906000526020600020905b81548152906001019060200180831161189f57829003601f168201915b5050505050905060006118cd6126ad565b905060008151036118e2578192505050611925565b6000825111156119175780826040516020016118ff929190613ac4565b60405160208183030381529060405292505050611925565b611920846126c4565b925050505b919050565b3373ffffffffffffffffffffffffffffffffffffffff16600b600084815260200190815260200160002060020160009054906101000a900473ffffffffffffffffffffffffffffffffffffffff1673ffffffffffffffffffffffffffffffffffffffff16146119ce576040517f08c379a00000000000000000000000000000000000000000000000000000000081526004016119c590613b5a565b60405180910390fd5b6009543414611a12576040517f08c379a0000000000000000000000000000000000000000000000000000000008152600401611a0990613bec565b60405180910390fd5b6000600b600084815260200190815260200160002060040160006101000a81548160ff02191690831515021790555080600b60008481526020019081526020016000206003018190555033600b600084815260200190815260200160002060010160006101000a81548173ffffffffffffffffffffffffffffffffffffffff021916908373ffffffffffffffffffffffffffffffffffffffff16021790555030600b600084815260200190815260200160002060020160006101000a81548173ffffffffffffffffffffffffffffffffffffffff021916908373ffffffffffffffffffffffffffffffffffffffff16021790555060086000815480929190611b1990613c0c565b9190505550611b29333084611e36565b5050565b6000600560008473ffffffffffffffffffffffffffffffffffffffff1673ffffffffffffffffffffffffffffffffffffffff16815260200190815260200160002060008373ffffffffffffffffffffffffffffffffffffffff1673ffffffffffffffffffffffffffffffffffffffff16815260200190815260200160002060009054906101000a900460ff16905092915050565b60007f01ffc9a7000000000000000000000000000000000000000000000000000000007bffffffffffffffffffffffffffffffffffffffffffffffffffffffff1916827bffffffffffffffffffffffffffffffffffffffffffffffffffffffff1916149050919050565b60008073ffffffffffffffffffffffffffffffffffffffff166002600084815260200190815260200160002060009054906101000a900473ffffffffffffffffffffffffffffffffffffffff1673ffffffffffffffffffffffffffffffffffffffff1614159050919050565b600033905090565b816004600083815260200190815260200160002060006101000a81548173ffffffffffffffffffffffffffffffffffffffff021916908373ffffffffffffffffffffffffffffffffffffffff160217905550808273ffffffffffffffffffffffffffffffffffffffff16611d128361110a565b73ffffffffffffffffffffffffffffffffffffffff167f8c5be1e5ebec7d5bd14f71427d1e84f3dd0314c0f7b2291e5b200ac8c7c3b92560405160405180910390a45050565b6000611d6382611c2b565b611da2576040517f08c379a0000000000000000000000000000000000000000000000000000000008152600401611d9990613ca7565b60405180910390fd5b6000611dad8361110a565b90508073ffffffffffffffffffffffffffffffffffffffff168473ffffffffffffffffffffffffffffffffffffffff161480611e1c57508373ffffffffffffffffffffffffffffffffffffffff16611e0484610718565b73ffffffffffffffffffffffffffffffffffffffff16145b80611e2d5750611e2c8185611b2d565b5b91505092915050565b8273ffffffffffffffffffffffffffffffffffffffff16611e568261110a565b73ffffffffffffffffffffffffffffffffffffffff1614611eac576040517f08c379a0000000000000000000000000000000000000000000000000000000008152600401611ea390613d39565b60405180910390fd5b600073ffffffffffffffffffffffffffffffffffffffff168273ffffffffffffffffffffffffffffffffffffffff1603611f1b576040517f08c379a0000000000000000000000000000000000000000000000000000000008152600401611f1290613dcb565b60405180910390fd5b611f2683838361276b565b611f31600082611c9f565b6001600360008573ffffffffffffffffffffffffffffffffffffffff1673ffffffffffffffffffffffffffffffffffffffff1681526020019081526020016000206000828254611f81919061363d565b925050819055506001600360008473ffffffffffffffffffffffffffffffffffffffff1673ffffffffffffffffffffffffffffffffffffffff1681526020019081526020016000206000828254611fd891906136a0565b92505081905550816002600083815260200190815260200160002060006101000a81548173ffffffffffffffffffffffffffffffffffffffff021916908373ffffffffffffffffffffffffffffffffffffffff160217905550808273ffffffffffffffffffffffffffffffffffffffff168473ffffffffffffffffffffffffffffffffffffffff167fddf252ad1be2c89b69c2b068fc378daa952ba7f163c4a11628f55a4df523b3ef60405160405180910390a4612097838383612770565b505050565b600073ffffffffffffffffffffffffffffffffffffffff168273ffffffffffffffffffffffffffffffffffffffff160361210b576040517f08c379a000000000000000000000000000000000000000000000000000000000815260040161210290613e37565b60405180910390fd5b61211481611c2b565b15612154576040517f08c379a000000000000000000000000000000000000000000000000000000000815260040161214b90613ea3565b60405180910390fd5b6121606000838361276b565b6001600360008473ffffffffffffffffffffffffffffffffffffffff1673ffffffffffffffffffffffffffffffffffffffff16815260200190815260200160002060008282546121b091906136a0565b92505081905550816002600083815260200190815260200160002060006101000a81548173ffffffffffffffffffffffffffffffffffffffff021916908373ffffffffffffffffffffffffffffffffffffffff160217905550808273ffffffffffffffffffffffffffffffffffffffff16600073ffffffffffffffffffffffffffffffffffffffff167fddf252ad1be2c89b69c2b068fc378daa952ba7f163c4a11628f55a4df523b3ef60405160405180910390a461227160008383612770565b5050565b61227e82611c2b565b6122bd576040517f08c379a00000000000000000000000000000000000000000000000000000000081526004016122b490613f35565b60405180910390fd5b806006600084815260200190815260200160002090816122dd9190614101565b505050565b60008111612325576040517f08c379a000000000000000000000000000000000000000000000000000000000815260040161231c9061421f565b60405180910390fd5b6009543414612369576040517f08c379a000000000000000000000000000000000000000000000000000000000815260040161236090613bec565b60405180910390fd5b6040518060a001604052808381526020013373ffffffffffffffffffffffffffffffffffffffff1681526020013073ffffffffffffffffffffffffffffffffffffffff16815260200182815260200160001515815250600b60008481526020019081526020016000206000820151816000015560208201518160010160006101000a81548173ffffffffffffffffffffffffffffffffffffffff021916908373ffffffffffffffffffffffffffffffffffffffff16021790555060408201518160020160006101000a81548173ffffffffffffffffffffffffffffffffffffffff021916908373ffffffffffffffffffffffffffffffffffffffff1602179055506060820151816003015560808201518160040160006101000a81548160ff0219169083151502179055509050506124a2333084611e36565b817fb640004f1d14576d0c209e240cad0410e0d8c0c33a09375861fbadae2588a98d33308460006040516124d9949392919061423f565b60405180910390a25050565b8173ffffffffffffffffffffffffffffffffffffffff168373ffffffffffffffffffffffffffffffffffffffff1603612553576040517f08c379a000000000000000000000000000000000000000000000000000000000815260040161254a906142d0565b60405180910390fd5b80600560008573ffffffffffffffffffffffffffffffffffffffff1673ffffffffffffffffffffffffffffffffffffffff16815260200190815260200160002060008473ffffffffffffffffffffffffffffffffffffffff1673ffffffffffffffffffffffffffffffffffffffff16815260200190815260200160002060006101000a81548160ff0219169083151502179055508173ffffffffffffffffffffffffffffffffffffffff168373ffffffffffffffffffffffffffffffffffffffff167f17307eab39ab6107e8899845ad3d59bd9653f200f220920489ca2b5937696c31836040516126449190612b90565b60405180910390a3505050565b61265c848484611e36565b61266884848484612775565b6126a7576040517f08c379a000000000000000000000000000000000000000000000000000000000815260040161269e90614362565b60405180910390fd5b50505050565b606060405180602001604052806000815250905090565b60606126cf82611c2b565b61270e576040517f08c379a0000000000000000000000000000000000000000000000000000000008152600401612705906143f4565b60405180910390fd5b60006127186126ad565b905060008151116127385760405180602001604052806000815250612763565b80612742846128fc565b604051602001612753929190613ac4565b6040516020818303038152906040525b915050919050565b505050565b505050565b60006127968473ffffffffffffffffffffffffffffffffffffffff16612a5c565b156128ef578373ffffffffffffffffffffffffffffffffffffffff1663150b7a026127bf611c97565b8786866040518563ffffffff1660e01b81526004016127e19493929190614469565b6020604051808303816000875af192505050801561281d57506040513d601f19601f8201168201806040525081019061281a91906144ca565b60015b61289f573d806000811461284d576040519150601f19603f3d011682016040523d82523d6000602084013e612852565b606091505b506000815103612897576040517f08c379a000000000000000000000000000000000000000000000000000000000815260040161288e90614362565b60405180910390fd5b805181602001fd5b63150b7a0260e01b7bffffffffffffffffffffffffffffffffffffffffffffffffffffffff1916817bffffffffffffffffffffffffffffffffffffffffffffffffffffffff1916149150506128f4565b600190505b949350505050565b606060008203612943576040518060400160405280600181526020017f30000000000000000000000000000000000000000000000000000000000000008152509050612a57565b600082905060005b6000821461297557808061295e906136d4565b915050600a8261296e9190614526565b915061294b565b60008167ffffffffffffffff81111561299157612990612fb4565b5b6040519080825280601f01601f1916602001820160405280156129c35781602001600182028036833780820191505090505b5090505b60008514612a50576001826129dc919061363d565b9150600a856129eb9190614557565b60306129f791906136a0565b60f81b818381518110612a0d57612a0c613671565b5b60200101907effffffffffffffffffffffffffffffffffffffffffffffffffffffffffffff1916908160001a905350600a85612a499190614526565b94506129c7565b8093505050505b919050565b6000808273ffffffffffffffffffffffffffffffffffffffff163b119050919050565b6040518060a0016040528060008152602001600073ffffffffffffffffffffffffffffffffffffffff168152602001600073ffffffffffffffffffffffffffffffffffffffff168152602001600081526020016000151581525090565b6000604051905090565b600080fd5b600080fd5b60007fffffffff0000000000000000000000000000000000000000000000000000000082169050919050565b612b2581612af0565b8114612b3057600080fd5b50565b600081359050612b4281612b1c565b92915050565b600060208284031215612b5e57612b5d612ae6565b5b6000612b6c84828501612b33565b91505092915050565b60008115159050919050565b612b8a81612b75565b82525050565b6000602082019050612ba56000830184612b81565b92915050565b600081519050919050565b600082825260208201905092915050565b60005b83811015612be5578082015181840152602081019050612bca565b60008484015250505050565b6000601f19601f8301169050919050565b6000612c0d82612bab565b612c178185612bb6565b9350612c27818560208601612bc7565b612c3081612bf1565b840191505092915050565b60006020820190508181036000830152612c558184612c02565b905092915050565b6000819050919050565b612c7081612c5d565b8114612c7b57600080fd5b50565b600081359050612c8d81612c67565b92915050565b600060208284031215612ca957612ca8612ae6565b5b6000612cb784828501612c7e565b91505092915050565b600073ffffffffffffffffffffffffffffffffffffffff82169050919050565b6000612ceb82612cc0565b9050919050565b612cfb81612ce0565b82525050565b6000602082019050612d166000830184612cf2565b92915050565b612d2581612ce0565b8114612d3057600080fd5b50565b600081359050612d4281612d1c565b92915050565b60008060408385031215612d5f57612d5e612ae6565b5b6000612d6d85828601612d33565b9250506020612d7e85828601612c7e565b9150509250929050565b600081519050919050565b600082825260208201905092915050565b6000819050602082019050919050565b612dbd81612c5d565b82525050565b6000612dce82612cc0565b9050919050565b612dde81612dc3565b82525050565b612ded81612b75565b82525050565b60a082016000820151612e096000850182612db4565b506020820151612e1c6020850182612dd5565b506040820151612e2f6040850182612dd5565b506060820151612e426060850182612db4565b506080820151612e556080850182612de4565b50505050565b6000612e678383612df3565b60a08301905092915050565b6000602082019050919050565b6000612e8b82612d88565b612e958185612d93565b9350612ea083612da4565b8060005b83811015612ed1578151612eb88882612e5b565b9750612ec383612e73565b925050600181019050612ea4565b5085935050505092915050565b60006020820190508181036000830152612ef88184612e80565b905092915050565b612f0981612c5d565b82525050565b6000602082019050612f246000830184612f00565b92915050565b600080600060608486031215612f4357612f42612ae6565b5b6000612f5186828701612d33565b9350506020612f6286828701612d33565b9250506040612f7386828701612c7e565b9150509250925092565b600060208284031215612f9357612f92612ae6565b5b6000612fa184828501612d33565b91505092915050565b600080fd5b600080fd5b7f4e487b7100000000000000000000000000000000000000000000000000000000600052604160045260246000fd5b612fec82612bf1565b810181811067ffffffffffffffff8211171561300b5761300a612fb4565b5b80604052505050565b600061301e612adc565b905061302a8282612fe3565b919050565b600067ffffffffffffffff82111561304a57613049612fb4565b5b61305382612bf1565b9050602081019050919050565b82818337600083830152505050565b600061308261307d8461302f565b613014565b90508281526020810184848401111561309e5761309d612faf565b5b6130a9848285613060565b509392505050565b600082601f8301126130c6576130c5612faa565b5b81356130d684826020860161306f565b91505092915050565b600080604083850312156130f6576130f5612ae6565b5b600083013567ffffffffffffffff81111561311457613113612aeb565b5b613120858286016130b1565b925050602061313185828601612c7e565b9150509250929050565b61314481612dc3565b82525050565b600060208201905061315f600083018461313b565b92915050565b61316e81612b75565b811461317957600080fd5b50565b60008135905061318b81613165565b92915050565b600080604083850312156131a8576131a7612ae6565b5b60006131b685828601612d33565b92505060206131c78582860161317c565b9150509250929050565b60a0820160008201516131e76000850182612db4565b5060208201516131fa6020850182612dd5565b50604082015161320d6040850182612dd5565b5060608201516132206060850182612db4565b5060808201516132336080850182612de4565b50505050565b600060a08201905061324e60008301846131d1565b92915050565b600067ffffffffffffffff82111561326f5761326e612fb4565b5b61327882612bf1565b9050602081019050919050565b600061329861329384613254565b613014565b9050828152602081018484840111156132b4576132b3612faf565b5b6132bf848285613060565b509392505050565b600082601f8301126132dc576132db612faa565b5b81356132ec848260208601613285565b91505092915050565b6000806000806080858703121561330f5761330e612ae6565b5b600061331d87828801612d33565b945050602061332e87828801612d33565b935050604061333f87828801612c7e565b925050606085013567ffffffffffffffff8111156133605761335f612aeb565b5b61336c878288016132c7565b91505092959194509250565b6000806040838503121561338f5761338e612ae6565b5b600061339d85828601612c7e565b92505060206133ae85828601612c7e565b9150509250929050565b600080604083850312156133cf576133ce612ae6565b5b60006133dd85828601612d33565b92505060206133ee85828601612d33565b9150509250929050565b7f4e487b7100000000000000000000000000000000000000000000000000000000600052602260045260246000fd5b6000600282049050600182168061343f57607f821691505b602082108103613452576134516133f8565b5b50919050565b7f4552433732313a20617070726f76656420717565727920666f72206e6f6e657860008201527f697374656e7420746f6b656e0000000000000000000000000000000000000000602082015250565b60006134b4602c83612bb6565b91506134bf82613458565b604082019050919050565b600060208201905081810360008301526134e3816134a7565b9050919050565b7f4552433732313a20617070726f76616c20746f2063757272656e74206f776e6560008201527f7200000000000000000000000000000000000000000000000000000000000000602082015250565b6000613546602183612bb6565b9150613551826134ea565b604082019050919050565b6000602082019050818103600083015261357581613539565b9050919050565b7f4552433732313a20617070726f76652063616c6c6572206973206e6f74206f7760008201527f6e6572206e6f7220617070726f76656420666f7220616c6c0000000000000000602082015250565b60006135d8603883612bb6565b91506135e38261357c565b604082019050919050565b60006020820190508181036000830152613607816135cb565b9050919050565b7f4e487b7100000000000000000000000000000000000000000000000000000000600052601160045260246000fd5b600061364882612c5d565b915061365383612c5d565b925082820390508181111561366b5761366a61360e565b5b92915050565b7f4e487b7100000000000000000000000000000000000000000000000000000000600052603260045260246000fd5b60006136ab82612c5d565b91506136b683612c5d565b92508282019050808211156136ce576136cd61360e565b5b92915050565b60006136df82612c5d565b91507fffffffffffffffffffffffffffffffffffffffffffffffffffffffffffffffff82036137115761371061360e565b5b600182019050919050565b7f4552433732313a207472616e736665722063616c6c6572206973206e6f74206f60008201527f776e6572206e6f7220617070726f766564000000000000000000000000000000602082015250565b6000613778603183612bb6565b91506137838261371c565b604082019050919050565b600060208201905081810360008301526137a78161376b565b9050919050565b7f4552433732313a206f776e657220717565727920666f72206e6f6e657869737460008201527f656e7420746f6b656e0000000000000000000000000000000000000000000000602082015250565b600061380a602983612bb6565b9150613815826137ae565b604082019050919050565b60006020820190508181036000830152613839816137fd565b9050919050565b7f4552433732313a2062616c616e636520717565727920666f7220746865207a6560008201527f726f206164647265737300000000000000000000000000000000000000000000602082015250565b600061389c602a83612bb6565b91506138a782613840565b604082019050919050565b600060208201905081810360008301526138cb8161388f565b9050919050565b7f4f6e6c79206d61726b6574706c616365206f776e65722063616e20757064617460008201527f65206c697374696e672070726963652e00000000000000000000000000000000602082015250565b600061392e603083612bb6565b9150613939826138d2565b604082019050919050565b6000602082019050818103600083015261395d81613921565b9050919050565b7f506c65617365207375626d6974207468652061736b696e67207072696365206960008201527f6e206f7264657220746f20636f6d706c65746520746865207075726368617365602082015250565b60006139c0604083612bb6565b91506139cb82613964565b604082019050919050565b600060208201905081810360008301526139ef816139b3565b9050919050565b7f45524337323155524953746f726167653a2055524920717565727920666f722060008201527f6e6f6e6578697374656e7420746f6b656e000000000000000000000000000000602082015250565b6000613a52603183612bb6565b9150613a5d826139f6565b604082019050919050565b60006020820190508181036000830152613a8181613a45565b9050919050565b600081905092915050565b6000613a9e82612bab565b613aa88185613a88565b9350613ab8818560208601612bc7565b80840191505092915050565b6000613ad08285613a93565b9150613adc8284613a93565b91508190509392505050565b7f4f6e6c79206974656d206f776e65722063616e20706572666f726d207468697360008201527f206f7065726174696f6e00000000000000000000000000000000000000000000602082015250565b6000613b44602a83612bb6565b9150613b4f82613ae8565b604082019050919050565b60006020820190508181036000830152613b7381613b37565b9050919050565b7f5072696365206d75737420626520657175616c20746f206c697374696e67207060008201527f7269636500000000000000000000000000000000000000000000000000000000602082015250565b6000613bd6602483612bb6565b9150613be182613b7a565b604082019050919050565b60006020820190508181036000830152613c0581613bc9565b9050919050565b6000613c1782612c5d565b915060008203613c2a57613c2961360e565b5b600182039050919050565b7f4552433732313a206f70657261746f7220717565727920666f72206e6f6e657860008201527f697374656e7420746f6b656e0000000000000000000000000000000000000000602082015250565b6000613c91602c83612bb6565b9150613c9c82613c35565b604082019050919050565b60006020820190508181036000830152613cc081613c84565b9050919050565b7f4552433732313a207472616e736665722066726f6d20696e636f72726563742060008201527f6f776e6572000000000000000000000000000000000000000000000000000000602082015250565b6000613d23602583612bb6565b9150613d2e82613cc7565b604082019050919050565b60006020820190508181036000830152613d5281613d16565b9050919050565b7f4552433732313a207472616e7366657220746f20746865207a65726f2061646460008201527f7265737300000000000000000000000000000000000000000000000000000000602082015250565b6000613db5602483612bb6565b9150613dc082613d59565b604082019050919050565b60006020820190508181036000830152613de481613da8565b9050919050565b7f4552433732313a206d696e7420746f20746865207a65726f2061646472657373600082015250565b6000613e21602083612bb6565b9150613e2c82613deb565b602082019050919050565b60006020820190508181036000830152613e5081613e14565b9050919050565b7f4552433732313a20746f6b656e20616c7265616479206d696e74656400000000600082015250565b6000613e8d601c83612bb6565b9150613e9882613e57565b602082019050919050565b60006020820190508181036000830152613ebc81613e80565b9050919050565b7f45524337323155524953746f726167653a2055524920736574206f66206e6f6e60008201527f6578697374656e7420746f6b656e000000000000000000000000000000000000602082015250565b6000613f1f602e83612bb6565b9150613f2a82613ec3565b604082019050919050565b60006020820190508181036000830152613f4e81613f12565b9050919050565b60008190508160005260206000209050919050565b60006020601f8301049050919050565b600082821b905092915050565b600060088302613fb77fffffffffffffffffffffffffffffffffffffffffffffffffffffffffffffffff82613f7a565b613fc18683613f7a565b95508019841693508086168417925050509392505050565b6000819050919050565b6000613ffe613ff9613ff484612c5d565b613fd9565b612c5d565b9050919050565b6000819050919050565b61401883613fe3565b61402c61402482614005565b848454613f87565b825550505050565b600090565b614041614034565b61404c81848461400f565b505050565b5b8181101561407057614065600082614039565b600181019050614052565b5050565b601f8211156140b55761408681613f55565b61408f84613f6a565b8101602085101561409e578190505b6140b26140aa85613f6a565b830182614051565b50505b505050565b600082821c905092915050565b60006140d8600019846008026140ba565b1980831691505092915050565b60006140f183836140c7565b9150826002028217905092915050565b61410a82612bab565b67ffffffffffffffff81111561412357614122612fb4565b5b61412d8254613427565b614138828285614074565b600060209050601f83116001811461416b5760008415614159578287015190505b61416385826140e5565b8655506141cb565b601f19841661417986613f55565b60005b828110156141a15784890151825560018201915060208501945060208101905061417c565b868310156141be57848901516141ba601f8916826140c7565b8355505b6001600288020188555050505b505050505050565b7f5072696365206d757374206265206174206c6561737420312077656900000000600082015250565b6000614209601c83612bb6565b9150614214826141d3565b602082019050919050565b60006020820190508181036000830152614238816141fc565b9050919050565b60006080820190506142546000830187612cf2565b6142616020830186612cf2565b61426e6040830185612f00565b61427b6060830184612b81565b95945050505050565b7f4552433732313a20617070726f766520746f2063616c6c657200000000000000600082015250565b60006142ba601983612bb6565b91506142c582614284565b602082019050919050565b600060208201905081810360008301526142e9816142ad565b9050919050565b7f4552433732313a207472616e7366657220746f206e6f6e20455243373231526560008201527f63656976657220696d706c656d656e7465720000000000000000000000000000602082015250565b600061434c603283612bb6565b9150614357826142f0565b604082019050919050565b6000602082019050818103600083015261437b8161433f565b9050919050565b7f4552433732314d657461646174613a2055524920717565727920666f72206e6f60008201527f6e6578697374656e7420746f6b656e0000000000000000000000000000000000602082015250565b60006143de602f83612bb6565b91506143e982614382565b604082019050919050565b6000602082019050818103600083015261440d816143d1565b9050919050565b600081519050919050565b600082825260208201905092915050565b600061443b82614414565b614445818561441f565b9350614455818560208601612bc7565b61445e81612bf1565b840191505092915050565b600060808201905061447e6000830187612cf2565b61448b6020830186612cf2565b6144986040830185612f00565b81810360608301526144aa8184614430565b905095945050505050565b6000815190506144c481612b1c565b92915050565b6000602082840312156144e0576144df612ae6565b5b60006144ee848285016144b5565b91505092915050565b7f4e487b7100000000000000000000000000000000000000000000000000000000600052601260045260246000fd5b600061453182612c5d565b915061453c83612c5d565b92508261454c5761454b6144f7565b5b828204905092915050565b600061456282612c5d565b915061456d83612c5d565b92508261457d5761457c6144f7565b5b82820690509291505056fea2646970667358221220fc606c7d61d788d23c52887e3faffd2503fccac3ca866c1fca9152874050f42364736f6c63430008140033",
  "linkReferences": {},
  "deployedLinkReferences": {}
}