{
  "_format": "hh-sol-artifact-1",
  "contractName": "NFTMarketplace",
  "sourceName": "contracts/NFTMarketplace.sol",
  "abi": [
    {
      "inputs": [],
      "stateMutability": "nonpayable",
      "type": "constructor"
    },
    {
      "anonymous": false,
      "inputs": [
        {
          "indexed": true,
          "internalType": "address",
          "name": "owner",
          "type": "address"
        },
        {
          "indexed": true,
          "internalType": "address",
          "name": "approved",
          "type": "address"
        },
        {
          "indexed": true,
          "internalType": "uint256",
          "name": "tokenId",
          "type": "uint256"
        }
      ],
      "name": "Approval",
      "type": "event"
    },
    {
      "anonymous": false,
      "inputs": [
        {
          "indexed": true,
          "internalType": "address",
          "name": "owner",
          "type": "address"
        },
        {
          "indexed": true,
          "internalType": "address",
          "name": "operator",
          "type": "address"
        },
        {
          "indexed": false,
          "internalType": "bool",
          "name": "approved",
          "type": "bool"
        }
      ],
      "name": "ApprovalForAll",
      "type": "event"
    },
    {
      "anonymous": false,
      "inputs": [
        {
          "indexed": true,
          "internalType": "uint256",
          "name": "tokenId",
          "type": "uint256"
        },
        {
          "indexed": false,
          "internalType": "address",
          "name": "creator",
          "type": "address"
        },
        {
          "indexed": false,
          "internalType": "uint256",
          "name": "endTime",
          "type": "uint256"
        }
      ],
      "name": "AuctionCreated",
      "type": "event"
    },
    {
      "anonymous": false,
      "inputs": [
        {
          "indexed": true,
          "internalType": "uint256",
          "name": "tokenId",
          "type": "uint256"
        },
        {
          "indexed": false,
          "internalType": "address",
          "name": "winner",
          "type": "address"
        },
        {
          "indexed": false,
          "internalType": "uint256",
          "name": "winningBid",
          "type": "uint256"
        }
      ],
      "name": "AuctionEnded",
      "type": "event"
    },
    {
      "anonymous": false,
      "inputs": [
        {
          "indexed": true,
          "internalType": "uint256",
          "name": "tokenId",
          "type": "uint256"
        },
        {
          "indexed": false,
          "internalType": "address",
          "name": "bidder",
          "type": "address"
        },
        {
          "indexed": false,
          "internalType": "uint256",
          "name": "bidAmount",
          "type": "uint256"
        }
      ],
      "name": "BidPlaced",
      "type": "event"
    },
    {
      "anonymous": false,
      "inputs": [
        {
          "indexed": true,
          "internalType": "uint256",
          "name": "tokenId",
          "type": "uint256"
        },
        {
          "indexed": false,
          "internalType": "address",
          "name": "seller",
          "type": "address"
        },
        {
          "indexed": false,
          "internalType": "address",
          "name": "owner",
          "type": "address"
        },
        {
          "indexed": false,
          "internalType": "uint256",
          "name": "price",
          "type": "uint256"
        },
        {
          "indexed": false,
          "internalType": "bool",
          "name": "sold",
          "type": "bool"
        }
      ],
      "name": "MarketItemCreated",
      "type": "event"
    },
    {
      "anonymous": false,
      "inputs": [
        {
          "indexed": true,
          "internalType": "address",
          "name": "from",
          "type": "address"
        },
        {
          "indexed": true,
          "internalType": "address",
          "name": "to",
          "type": "address"
        },
        {
          "indexed": true,
          "internalType": "uint256",
          "name": "tokenId",
          "type": "uint256"
        }
      ],
      "name": "Transfer",
      "type": "event"
    },
    {
      "inputs": [
        {
          "internalType": "address",
          "name": "to",
          "type": "address"
        },
        {
          "internalType": "uint256",
          "name": "tokenId",
          "type": "uint256"
        }
      ],
      "name": "approve",
      "outputs": [],
      "stateMutability": "nonpayable",
      "type": "function"
    },
    {
      "inputs": [],
      "name": "auctionDuration",
      "outputs": [
        {
          "internalType": "uint256",
          "name": "",
          "type": "uint256"
        }
      ],
      "stateMutability": "view",
      "type": "function"
    },
    {
      "inputs": [
        {
          "internalType": "address",
          "name": "owner",
          "type": "address"
        }
      ],
      "name": "balanceOf",
      "outputs": [
        {
          "internalType": "uint256",
          "name": "",
          "type": "uint256"
        }
      ],
      "stateMutability": "view",
      "type": "function"
    },
    {
      "inputs": [],
      "name": "checkAndEndAuctions",
      "outputs": [],
      "stateMutability": "nonpayable",
      "type": "function"
    },
    {
      "inputs": [
        {
          "internalType": "uint256",
          "name": "tokenId",
          "type": "uint256"
        }
      ],
      "name": "createMarketSale",
      "outputs": [],
      "stateMutability": "nonpayable",
      "type": "function"
    },
    {
      "inputs": [
        {
          "internalType": "string",
          "name": "tokenURI",
          "type": "string"
        },
        {
          "internalType": "uint256",
          "name": "price",
          "type": "uint256"
        }
      ],
      "name": "createToken",
      "outputs": [
        {
          "internalType": "uint256",
          "name": "",
          "type": "uint256"
        }
      ],
      "stateMutability": "payable",
      "type": "function"
    },
    {
      "inputs": [
        {
          "internalType": "uint256",
          "name": "tokenId",
          "type": "uint256"
        }
      ],
      "name": "endAuction",
      "outputs": [],
      "stateMutability": "nonpayable",
      "type": "function"
    },
    {
      "inputs": [],
      "name": "fetchItemsListed",
      "outputs": [
        {
          "components": [
            {
              "internalType": "uint256",
              "name": "tokenId",
              "type": "uint256"
            },
            {
              "internalType": "address payable",
              "name": "seller",
              "type": "address"
            },
            {
              "internalType": "address payable",
              "name": "owner",
              "type": "address"
            },
            {
              "internalType": "uint256",
              "name": "price",
              "type": "uint256"
            },
            {
              "internalType": "bool",
              "name": "sold",
              "type": "bool"
            }
          ],
          "internalType": "struct NFTMarketplace.MarketItem[]",
          "name": "",
          "type": "tuple[]"
        }
      ],
      "stateMutability": "view",
      "type": "function"
    },
    {
      "inputs": [],
      "name": "fetchMarketItems",
      "outputs": [
        {
          "components": [
            {
              "internalType": "uint256",
              "name": "tokenId",
              "type": "uint256"
            },
            {
              "internalType": "address payable",
              "name": "seller",
              "type": "address"
            },
            {
              "internalType": "address payable",
              "name": "owner",
              "type": "address"
            },
            {
              "internalType": "uint256",
              "name": "price",
              "type": "uint256"
            },
            {
              "internalType": "bool",
              "name": "sold",
              "type": "bool"
            }
          ],
          "internalType": "struct NFTMarketplace.MarketItem[]",
          "name": "",
          "type": "tuple[]"
        }
      ],
      "stateMutability": "view",
      "type": "function"
    },
    {
      "inputs": [],
      "name": "fetchMyNFTs",
      "outputs": [
        {
          "components": [
            {
              "internalType": "uint256",
              "name": "tokenId",
              "type": "uint256"
            },
            {
              "internalType": "address payable",
              "name": "seller",
              "type": "address"
            },
            {
              "internalType": "address payable",
              "name": "owner",
              "type": "address"
            },
            {
              "internalType": "uint256",
              "name": "price",
              "type": "uint256"
            },
            {
              "internalType": "bool",
              "name": "sold",
              "type": "bool"
            }
          ],
          "internalType": "struct NFTMarketplace.MarketItem[]",
          "name": "",
          "type": "tuple[]"
        }
      ],
      "stateMutability": "view",
      "type": "function"
    },
    {
      "inputs": [
        {
          "internalType": "uint256",
          "name": "tokenId",
          "type": "uint256"
        }
      ],
      "name": "fetchTokenDetails",
      "outputs": [
        {
          "components": [
            {
              "internalType": "uint256",
              "name": "tokenId",
              "type": "uint256"
            },
            {
              "internalType": "address payable",
              "name": "seller",
              "type": "address"
            },
            {
              "internalType": "address payable",
              "name": "owner",
              "type": "address"
            },
            {
              "internalType": "uint256",
              "name": "price",
              "type": "uint256"
            },
            {
              "internalType": "bool",
              "name": "sold",
              "type": "bool"
            }
          ],
          "internalType": "struct NFTMarketplace.MarketItem",
          "name": "",
          "type": "tuple"
        }
      ],
      "stateMutability": "view",
      "type": "function"
    },
    {
      "inputs": [
        {
          "internalType": "uint256",
          "name": "tokenId",
          "type": "uint256"
        }
      ],
      "name": "getApproved",
      "outputs": [
        {
          "internalType": "address",
          "name": "",
          "type": "address"
        }
      ],
      "stateMutability": "view",
      "type": "function"
    },
    {
      "inputs": [],
      "name": "getListingPrice",
      "outputs": [
        {
          "internalType": "uint256",
          "name": "",
          "type": "uint256"
        }
      ],
      "stateMutability": "view",
      "type": "function"
    },
    {
      "inputs": [
        {
          "internalType": "address",
          "name": "owner",
          "type": "address"
        },
        {
          "internalType": "address",
          "name": "operator",
          "type": "address"
        }
      ],
      "name": "isApprovedForAll",
      "outputs": [
        {
          "internalType": "bool",
          "name": "",
          "type": "bool"
        }
      ],
      "stateMutability": "view",
      "type": "function"
    },
    {
      "inputs": [],
      "name": "listingPrice",
      "outputs": [
        {
          "internalType": "uint256",
          "name": "",
          "type": "uint256"
        }
      ],
      "stateMutability": "view",
      "type": "function"
    },
    {
      "inputs": [],
      "name": "name",
      "outputs": [
        {
          "internalType": "string",
          "name": "",
          "type": "string"
        }
      ],
      "stateMutability": "view",
      "type": "function"
    },
    {
      "inputs": [],
      "name": "owner",
      "outputs": [
        {
          "internalType": "address payable",
          "name": "",
          "type": "address"
        }
      ],
      "stateMutability": "view",
      "type": "function"
    },
    {
      "inputs": [
        {
          "internalType": "uint256",
          "name": "tokenId",
          "type": "uint256"
        }
      ],
      "name": "ownerOf",
      "outputs": [
        {
          "internalType": "address",
          "name": "",
          "type": "address"
        }
      ],
      "stateMutability": "view",
      "type": "function"
    },
    {
      "inputs": [
        {
          "internalType": "uint256",
          "name": "tokenId",
          "type": "uint256"
        }
      ],
      "name": "placeBid",
      "outputs": [],
      "stateMutability": "payable",
      "type": "function"
    },
    {
      "inputs": [
        {
          "internalType": "uint256",
          "name": "tokenId",
          "type": "uint256"
        },
        {
          "internalType": "uint256",
          "name": "price",
          "type": "uint256"
        }
      ],
      "name": "resellToken",
      "outputs": [],
      "stateMutability": "payable",
      "type": "function"
    },
    {
      "inputs": [
        {
          "internalType": "address",
          "name": "from",
          "type": "address"
        },
        {
          "internalType": "address",
          "name": "to",
          "type": "address"
        },
        {
          "internalType": "uint256",
          "name": "tokenId",
          "type": "uint256"
        }
      ],
      "name": "safeTransferFrom",
      "outputs": [],
      "stateMutability": "nonpayable",
      "type": "function"
    },
    {
      "inputs": [
        {
          "internalType": "address",
          "name": "from",
          "type": "address"
        },
        {
          "internalType": "address",
          "name": "to",
          "type": "address"
        },
        {
          "internalType": "uint256",
          "name": "tokenId",
          "type": "uint256"
        },
        {
          "internalType": "bytes",
          "name": "_data",
          "type": "bytes"
        }
      ],
      "name": "safeTransferFrom",
      "outputs": [],
      "stateMutability": "nonpayable",
      "type": "function"
    },
    {
      "inputs": [
        {
          "internalType": "address",
          "name": "operator",
          "type": "address"
        },
        {
          "internalType": "bool",
          "name": "approved",
          "type": "bool"
        }
      ],
      "name": "setApprovalForAll",
      "outputs": [],
      "stateMutability": "nonpayable",
      "type": "function"
    },
    {
      "inputs": [
        {
          "internalType": "bytes4",
          "name": "interfaceId",
          "type": "bytes4"
        }
      ],
      "name": "supportsInterface",
      "outputs": [
        {
          "internalType": "bool",
          "name": "",
          "type": "bool"
        }
      ],
      "stateMutability": "view",
      "type": "function"
    },
    {
      "inputs": [],
      "name": "symbol",
      "outputs": [
        {
          "internalType": "string",
          "name": "",
          "type": "string"
        }
      ],
      "stateMutability": "view",
      "type": "function"
    },
    {
      "inputs": [
        {
          "internalType": "uint256",
          "name": "tokenId",
          "type": "uint256"
        }
      ],
      "name": "tokenURI",
      "outputs": [
        {
          "internalType": "string",
          "name": "",
          "type": "string"
        }
      ],
      "stateMutability": "view",
      "type": "function"
    },
    {
      "inputs": [
        {
          "internalType": "address",
          "name": "from",
          "type": "address"
        },
        {
          "internalType": "address",
          "name": "to",
          "type": "address"
        },
        {
          "internalType": "uint256",
          "name": "tokenId",
          "type": "uint256"
        }
      ],
      "name": "transferFrom",
      "outputs": [],
      "stateMutability": "nonpayable",
      "type": "function"
    },
    {
      "inputs": [
        {
          "internalType": "uint256",
          "name": "_listingPrice",
          "type": "uint256"
        }
      ],
      "name": "updateListingPrice",
      "outputs": [],
      "stateMutability": "payable",
      "type": "function"
    }
  ],
  "bytecode": "0x60806040526658d15e1762800060095561012c600b553480156200002257600080fd5b506040518060400160405280601081526020017f4d657461766572736520546f6b656e73000000000000000000000000000000008152506040518060400160405280600481526020017f4d455454000000000000000000000000000000000000000000000000000000008152508160009081620000a0919062000376565b508060019081620000b2919062000376565b50505033600a60006101000a81548173ffffffffffffffffffffffffffffffffffffffff021916908373ffffffffffffffffffffffffffffffffffffffff1602179055506200045d565b600081519050919050565b7f4e487b7100000000000000000000000000000000000000000000000000000000600052604160045260246000fd5b7f4e487b7100000000000000000000000000000000000000000000000000000000600052602260045260246000fd5b600060028204905060018216806200017e57607f821691505b60208210810362000194576200019362000136565b5b50919050565b60008190508160005260206000209050919050565b60006020601f8301049050919050565b600082821b905092915050565b600060088302620001fe7fffffffffffffffffffffffffffffffffffffffffffffffffffffffffffffffff82620001bf565b6200020a8683620001bf565b95508019841693508086168417925050509392505050565b6000819050919050565b6000819050919050565b600062000257620002516200024b8462000222565b6200022c565b62000222565b9050919050565b6000819050919050565b620002738362000236565b6200028b62000282826200025e565b848454620001cc565b825550505050565b600090565b620002a262000293565b620002af81848462000268565b505050565b5b81811015620002d757620002cb60008262000298565b600181019050620002b5565b5050565b601f8211156200032657620002f0816200019a565b620002fb84620001af565b810160208510156200030b578190505b620003236200031a85620001af565b830182620002b4565b50505b505050565b600082821c905092915050565b60006200034b600019846008026200032b565b1980831691505092915050565b600062000366838362000338565b9150826002028217905092915050565b6200038182620000fc565b67ffffffffffffffff8111156200039d576200039c62000107565b5b620003a9825462000165565b620003b6828285620002db565b600060209050601f831160018114620003ee5760008415620003d9578287015190505b620003e5858262000358565b86555062000455565b601f198416620003fe866200019a565b60005b82811015620004285784890151825560018201915060208501945060208101905062000401565b8683101562000448578489015162000444601f89168262000338565b8355505b6001600288020188555050505b505050505050565b614f04806200046d6000396000f3fe6080604052600436106101b75760003560e01c806372b3b620116100ec578063b88d4fde1161008a578063c78f19f911610064578063c78f19f9146105e3578063c87b56dd1461060e578063e219fc751461064b578063e985e9c514610667576101b7565b8063b88d4fde14610568578063b9a2de3a14610591578063be9af536146105ba576101b7565b80639979ef45116100c65780639979ef45146104ca578063a22cb465146104e6578063ae677aa31461050f578063b863a7cd1461052b576101b7565b806372b3b620146104445780638da5cb5b1461047457806395d89b411461049f576101b7565b806312e855851161015957806342842e0e1161013357806342842e0e1461037657806345f8fa801461039f5780636352211e146103ca57806370a0823114610407576101b7565b806312e85585146102f7578063202e37401461032257806323b872dd1461034d576101b7565b8063081812fc11610195578063081812fc1461023b578063095ea7b3146102785780630cbf54c8146102a15780630f08efe0146102cc576101b7565b806301ffc9a7146101bc57806303bb502f146101f957806306fdde0314610210575b600080fd5b3480156101c857600080fd5b506101e360048036038101906101de9190613244565b6106a4565b6040516101f0919061328c565b60405180910390f35b34801561020557600080fd5b5061020e610786565b005b34801561021c57600080fd5b506102256107fc565b6040516102329190613337565b60405180910390f35b34801561024757600080fd5b50610262600480360381019061025d919061338f565b61088e565b60405161026f91906133fd565b60405180910390f35b34801561028457600080fd5b5061029f600480360381019061029a9190613444565b610913565b005b3480156102ad57600080fd5b506102b6610a2a565b6040516102c39190613493565b60405180910390f35b3480156102d857600080fd5b506102e1610a30565b6040516102ee9190613604565b60405180910390f35b34801561030357600080fd5b5061030c610c6e565b6040516103199190613493565b60405180910390f35b34801561032e57600080fd5b50610337610c78565b6040516103449190613604565b60405180910390f35b34801561035957600080fd5b50610374600480360381019061036f9190613626565b610f3f565b005b34801561038257600080fd5b5061039d60048036038101906103989190613626565b610f9f565b005b3480156103ab57600080fd5b506103b4610fbf565b6040516103c19190613604565b60405180910390f35b3480156103d657600080fd5b506103f160048036038101906103ec919061338f565b611286565b6040516103fe91906133fd565b60405180910390f35b34801561041357600080fd5b5061042e60048036038101906104299190613679565b611337565b60405161043b9190613493565b60405180910390f35b61045e600480360381019061045991906137db565b6113ee565b60405161046b9190613493565b60405180910390f35b34801561048057600080fd5b50610489611437565b6040516104969190613846565b60405180910390f35b3480156104ab57600080fd5b506104b461145d565b6040516104c19190613337565b60405180910390f35b6104e460048036038101906104df919061338f565b6114ef565b005b3480156104f257600080fd5b5061050d6004803603810190610508919061388d565b611766565b005b6105296004803603810190610524919061338f565b61177c565b005b34801561053757600080fd5b50610552600480360381019061054d919061338f565b611816565b60405161055f9190613935565b60405180910390f35b34801561057457600080fd5b5061058f600480360381019061058a91906139f1565b61191e565b005b34801561059d57600080fd5b506105b860048036038101906105b3919061338f565b611980565b005b3480156105c657600080fd5b506105e160048036038101906105dc919061338f565b611c02565b005b3480156105ef57600080fd5b506105f8611c16565b6040516106059190613493565b60405180910390f35b34801561061a57600080fd5b506106356004803603810190610630919061338f565b611c1c565b6040516106429190613337565b60405180910390f35b61066560048036038101906106609190613a74565b611d6d565b005b34801561067357600080fd5b5061068e60048036038101906106899190613ab4565b611f70565b60405161069b919061328c565b60405180910390f35b60007f80ac58cd000000000000000000000000000000000000000000000000000000007bffffffffffffffffffffffffffffffffffffffffffffffffffffffff1916827bffffffffffffffffffffffffffffffffffffffffffffffffffffffff1916148061076f57507f5b5e139f000000000000000000000000000000000000000000000000000000007bffffffffffffffffffffffffffffffffffffffffffffffffffffffff1916827bffffffffffffffffffffffffffffffffffffffffffffffffffffffff1916145b8061077f575061077e82612004565b5b9050919050565b600060075490506000600190505b8181116107f8576000600c600083815260200190815260200160002090508060040160009054906101000a900460ff161580156107d5575080600301544210155b156107e4576107e382611980565b5b5080806107f090613b23565b915050610794565b5050565b60606000805461080b90613b9a565b80601f016020809104026020016040519081016040528092919081815260200182805461083790613b9a565b80156108845780601f1061085957610100808354040283529160200191610884565b820191906000526020600020905b81548152906001019060200180831161086757829003601f168201915b5050505050905090565b60006108998261206e565b6108d8576040517f08c379a00000000000000000000000000000000000000000000000000000000081526004016108cf90613c3d565b60405180910390fd5b6004600083815260200190815260200160002060009054906101000a900473ffffffffffffffffffffffffffffffffffffffff169050919050565b600061091e82611286565b90508073ffffffffffffffffffffffffffffffffffffffff168373ffffffffffffffffffffffffffffffffffffffff160361098e576040517f08c379a000000000000000000000000000000000000000000000000000000000815260040161098590613ccf565b60405180910390fd5b8073ffffffffffffffffffffffffffffffffffffffff166109ad6120da565b73ffffffffffffffffffffffffffffffffffffffff1614806109dc57506109db816109d66120da565b611f70565b5b610a1b576040517f08c379a0000000000000000000000000000000000000000000000000000000008152600401610a1290613d61565b60405180910390fd5b610a2583836120e2565b505050565b600b5481565b6060600060075490506000600854600754610a4b9190613d81565b90506000808267ffffffffffffffff811115610a6a57610a696136b0565b5b604051908082528060200260200182016040528015610aa357816020015b610a90613171565b815260200190600190039081610a885790505b5090506000600190505b848111610c63573073ffffffffffffffffffffffffffffffffffffffff16600d600083815260200190815260200160002060020160009054906101000a900473ffffffffffffffffffffffffffffffffffffffff1673ffffffffffffffffffffffffffffffffffffffff1603610c505760008190506000600d60008381526020019081526020016000209050806040518060a0016040529081600082015481526020016001820160009054906101000a900473ffffffffffffffffffffffffffffffffffffffff1673ffffffffffffffffffffffffffffffffffffffff1673ffffffffffffffffffffffffffffffffffffffff1681526020016002820160009054906101000a900473ffffffffffffffffffffffffffffffffffffffff1673ffffffffffffffffffffffffffffffffffffffff1673ffffffffffffffffffffffffffffffffffffffff168152602001600382015481526020016004820160009054906101000a900460ff161515151581525050848681518110610c3357610c32613db5565b5b6020026020010181905250600185610c4b9190613de4565b945050505b8080610c5b90613b23565b915050610aad565b508094505050505090565b6000600954905090565b6060600060075490506000806000600190505b838111610d1e573373ffffffffffffffffffffffffffffffffffffffff16600d600083815260200190815260200160002060020160009054906101000a900473ffffffffffffffffffffffffffffffffffffffff1673ffffffffffffffffffffffffffffffffffffffff1603610d0b57600183610d089190613de4565b92505b8080610d1690613b23565b915050610c8b565b5060008267ffffffffffffffff811115610d3b57610d3a6136b0565b5b604051908082528060200260200182016040528015610d7457816020015b610d61613171565b815260200190600190039081610d595790505b5090506000600190505b848111610f34573373ffffffffffffffffffffffffffffffffffffffff16600d600083815260200190815260200160002060020160009054906101000a900473ffffffffffffffffffffffffffffffffffffffff1673ffffffffffffffffffffffffffffffffffffffff1603610f215760008190506000600d60008381526020019081526020016000209050806040518060a0016040529081600082015481526020016001820160009054906101000a900473ffffffffffffffffffffffffffffffffffffffff1673ffffffffffffffffffffffffffffffffffffffff1673ffffffffffffffffffffffffffffffffffffffff1681526020016002820160009054906101000a900473ffffffffffffffffffffffffffffffffffffffff1673ffffffffffffffffffffffffffffffffffffffff1673ffffffffffffffffffffffffffffffffffffffff168152602001600382015481526020016004820160009054906101000a900460ff161515151581525050848681518110610f0457610f03613db5565b5b6020026020010181905250600185610f1c9190613de4565b945050505b8080610f2c90613b23565b915050610d7e565b508094505050505090565b610f50610f4a6120da565b8261219b565b610f8f576040517f08c379a0000000000000000000000000000000000000000000000000000000008152600401610f8690613e8a565b60405180910390fd5b610f9a838383612279565b505050565b610fba8383836040518060200160405280600081525061191e565b505050565b6060600060075490506000806000600190505b838111611065573373ffffffffffffffffffffffffffffffffffffffff16600d600083815260200190815260200160002060010160009054906101000a900473ffffffffffffffffffffffffffffffffffffffff1673ffffffffffffffffffffffffffffffffffffffff16036110525760018361104f9190613de4565b92505b808061105d90613b23565b915050610fd2565b5060008267ffffffffffffffff811115611082576110816136b0565b5b6040519080825280602002602001820160405280156110bb57816020015b6110a8613171565b8152602001906001900390816110a05790505b5090506000600190505b84811161127b573373ffffffffffffffffffffffffffffffffffffffff16600d600083815260200190815260200160002060010160009054906101000a900473ffffffffffffffffffffffffffffffffffffffff1673ffffffffffffffffffffffffffffffffffffffff16036112685760008190506000600d60008381526020019081526020016000209050806040518060a0016040529081600082015481526020016001820160009054906101000a900473ffffffffffffffffffffffffffffffffffffffff1673ffffffffffffffffffffffffffffffffffffffff1673ffffffffffffffffffffffffffffffffffffffff1681526020016002820160009054906101000a900473ffffffffffffffffffffffffffffffffffffffff1673ffffffffffffffffffffffffffffffffffffffff1673ffffffffffffffffffffffffffffffffffffffff168152602001600382015481526020016004820160009054906101000a900460ff16151515158152505084868151811061124b5761124a613db5565b5b60200260200101819052506001856112639190613de4565b945050505b808061127390613b23565b9150506110c5565b508094505050505090565b6000806002600084815260200190815260200160002060009054906101000a900473ffffffffffffffffffffffffffffffffffffffff169050600073ffffffffffffffffffffffffffffffffffffffff168173ffffffffffffffffffffffffffffffffffffffff160361132e576040517f08c379a000000000000000000000000000000000000000000000000000000000815260040161132590613f1c565b60405180910390fd5b80915050919050565b60008073ffffffffffffffffffffffffffffffffffffffff168273ffffffffffffffffffffffffffffffffffffffff16036113a7576040517f08c379a000000000000000000000000000000000000000000000000000000000815260040161139e90613fae565b60405180910390fd5b600360008373ffffffffffffffffffffffffffffffffffffffff1673ffffffffffffffffffffffffffffffffffffffff168152602001908152602001600020549050919050565b60006007600081548092919061140390613b23565b91905055506000600754905061141933826124df565b61142381856126b8565b61142d8184612725565b8091505092915050565b600a60009054906101000a900473ffffffffffffffffffffffffffffffffffffffff1681565b60606001805461146c90613b9a565b80601f016020809104026020016040519081016040528092919081815260200182805461149890613b9a565b80156114e55780601f106114ba576101008083540402835291602001916114e5565b820191906000526020600020905b8154815290600101906020018083116114c857829003601f168201915b5050505050905090565b6000600c600083815260200190815260200160002090508060030154421061154c576040517f08c379a00000000000000000000000000000000000000000000000000000000081526004016115439061401a565b60405180910390fd5b80600201543411611592576040517f08c379a0000000000000000000000000000000000000000000000000000000008152600401611589906140ac565b60405180910390fd5b600073ffffffffffffffffffffffffffffffffffffffff168160010160009054906101000a900473ffffffffffffffffffffffffffffffffffffffff1673ffffffffffffffffffffffffffffffffffffffff161461165a578060010160009054906101000a900473ffffffffffffffffffffffffffffffffffffffff1673ffffffffffffffffffffffffffffffffffffffff166108fc82600201549081150290604051600060405180830381858888f19350505050158015611658573d6000803e3d6000fd5b505b6116996040518060400160405280601881526020017f506c6163696e672062696420666f7220746f6b656e49643a000000000000000081525083612af5565b6116dc6040518060400160405280601181526020017f41756374696f6e20656e642074696d653a0000000000000000000000000000008152508260030154612af5565b338160010160006101000a81548173ffffffffffffffffffffffffffffffffffffffff021916908373ffffffffffffffffffffffffffffffffffffffff160217905550348160020181905550817f0e54eff26401bf69b81b26f60bd85ef47f5d85275c1d268d84f68d6897431c47333460405161175a9291906140cc565b60405180910390a25050565b6117786117716120da565b8383612b91565b5050565b3373ffffffffffffffffffffffffffffffffffffffff16600a60009054906101000a900473ffffffffffffffffffffffffffffffffffffffff1673ffffffffffffffffffffffffffffffffffffffff161461180c576040517f08c379a000000000000000000000000000000000000000000000000000000000815260040161180390614167565b60405180910390fd5b8060098190555050565b61181e613171565b600d60008381526020019081526020016000206040518060a0016040529081600082015481526020016001820160009054906101000a900473ffffffffffffffffffffffffffffffffffffffff1673ffffffffffffffffffffffffffffffffffffffff1673ffffffffffffffffffffffffffffffffffffffff1681526020016002820160009054906101000a900473ffffffffffffffffffffffffffffffffffffffff1673ffffffffffffffffffffffffffffffffffffffff1673ffffffffffffffffffffffffffffffffffffffff168152602001600382015481526020016004820160009054906101000a900460ff1615151515815250509050919050565b61192f6119296120da565b8361219b565b61196e576040517f08c379a000000000000000000000000000000000000000000000000000000000815260040161196590613e8a565b60405180910390fd5b61197a84848484612cfd565b50505050565b6000600c600083815260200190815260200160002090508060040160009054906101000a900460ff16156119e9576040517f08c379a00000000000000000000000000000000000000000000000000000000081526004016119e0906141d3565b60405180910390fd5b8060030154421015611a30576040517f08c379a0000000000000000000000000000000000000000000000000000000008152600401611a279061423f565b60405180910390fd5b60018160040160006101000a81548160ff021916908315150217905550600073ffffffffffffffffffffffffffffffffffffffff168160010160009054906101000a900473ffffffffffffffffffffffffffffffffffffffff1673ffffffffffffffffffffffffffffffffffffffff1614611bbc57611ad4308260010160009054906101000a900473ffffffffffffffffffffffffffffffffffffffff1684612279565b600d600083815260200190815260200160002060010160009054906101000a900473ffffffffffffffffffffffffffffffffffffffff1673ffffffffffffffffffffffffffffffffffffffff166108fc82600201549081150290604051600060405180830381858888f19350505050158015611b54573d6000803e3d6000fd5b50817fd2aa34a4fdbbc6dff6a3e56f46e0f3ae2a31d7785ff3487aa5c95c642acea5018260010160009054906101000a900473ffffffffffffffffffffffffffffffffffffffff168360020154604051611baf9291906142be565b60405180910390a2611bfe565b611bfd30600d600085815260200190815260200160002060010160009054906101000a900473ffffffffffffffffffffffffffffffffffffffff1684612279565b5b5050565b611c0b81611980565b611c13610786565b50565b60095481565b6060611c278261206e565b611c66576040517f08c379a0000000000000000000000000000000000000000000000000000000008152600401611c5d90614359565b60405180910390fd5b6000600660008481526020019081526020016000208054611c8690613b9a565b80601f0160208091040260200160405190810160405280929190818152602001828054611cb290613b9a565b8015611cff5780601f10611cd457610100808354040283529160200191611cff565b820191906000526020600020905b815481529060010190602001808311611ce257829003601f168201915b505050505090506000611d10612d59565b90506000815103611d25578192505050611d68565b600082511115611d5a578082604051602001611d429291906143b5565b60405160208183030381529060405292505050611d68565b611d6384612d70565b925050505b919050565b3373ffffffffffffffffffffffffffffffffffffffff16600d600084815260200190815260200160002060020160009054906101000a900473ffffffffffffffffffffffffffffffffffffffff1673ffffffffffffffffffffffffffffffffffffffff1614611e11576040517f08c379a0000000000000000000000000000000000000000000000000000000008152600401611e089061444b565b60405180910390fd5b6009543414611e55576040517f08c379a0000000000000000000000000000000000000000000000000000000008152600401611e4c906144dd565b60405180910390fd5b6000600d600084815260200190815260200160002060040160006101000a81548160ff02191690831515021790555080600d60008481526020019081526020016000206003018190555033600d600084815260200190815260200160002060010160006101000a81548173ffffffffffffffffffffffffffffffffffffffff021916908373ffffffffffffffffffffffffffffffffffffffff16021790555030600d600084815260200190815260200160002060020160006101000a81548173ffffffffffffffffffffffffffffffffffffffff021916908373ffffffffffffffffffffffffffffffffffffffff16021790555060086000815480929190611f5c906144fd565b9190505550611f6c333084612279565b5050565b6000600560008473ffffffffffffffffffffffffffffffffffffffff1673ffffffffffffffffffffffffffffffffffffffff16815260200190815260200160002060008373ffffffffffffffffffffffffffffffffffffffff1673ffffffffffffffffffffffffffffffffffffffff16815260200190815260200160002060009054906101000a900460ff16905092915050565b60007f01ffc9a7000000000000000000000000000000000000000000000000000000007bffffffffffffffffffffffffffffffffffffffffffffffffffffffff1916827bffffffffffffffffffffffffffffffffffffffffffffffffffffffff1916149050919050565b60008073ffffffffffffffffffffffffffffffffffffffff166002600084815260200190815260200160002060009054906101000a900473ffffffffffffffffffffffffffffffffffffffff1673ffffffffffffffffffffffffffffffffffffffff1614159050919050565b600033905090565b816004600083815260200190815260200160002060006101000a81548173ffffffffffffffffffffffffffffffffffffffff021916908373ffffffffffffffffffffffffffffffffffffffff160217905550808273ffffffffffffffffffffffffffffffffffffffff1661215583611286565b73ffffffffffffffffffffffffffffffffffffffff167f8c5be1e5ebec7d5bd14f71427d1e84f3dd0314c0f7b2291e5b200ac8c7c3b92560405160405180910390a45050565b60006121a68261206e565b6121e5576040517f08c379a00000000000000000000000000000000000000000000000000000000081526004016121dc90614598565b60405180910390fd5b60006121f083611286565b90508073ffffffffffffffffffffffffffffffffffffffff168473ffffffffffffffffffffffffffffffffffffffff16148061225f57508373ffffffffffffffffffffffffffffffffffffffff166122478461088e565b73ffffffffffffffffffffffffffffffffffffffff16145b80612270575061226f8185611f70565b5b91505092915050565b8273ffffffffffffffffffffffffffffffffffffffff1661229982611286565b73ffffffffffffffffffffffffffffffffffffffff16146122ef576040517f08c379a00000000000000000000000000000000000000000000000000000000081526004016122e69061462a565b60405180910390fd5b600073ffffffffffffffffffffffffffffffffffffffff168273ffffffffffffffffffffffffffffffffffffffff160361235e576040517f08c379a0000000000000000000000000000000000000000000000000000000008152600401612355906146bc565b60405180910390fd5b612369838383612e17565b6123746000826120e2565b6001600360008573ffffffffffffffffffffffffffffffffffffffff1673ffffffffffffffffffffffffffffffffffffffff16815260200190815260200160002060008282546123c49190613d81565b925050819055506001600360008473ffffffffffffffffffffffffffffffffffffffff1673ffffffffffffffffffffffffffffffffffffffff168152602001908152602001600020600082825461241b9190613de4565b92505081905550816002600083815260200190815260200160002060006101000a81548173ffffffffffffffffffffffffffffffffffffffff021916908373ffffffffffffffffffffffffffffffffffffffff160217905550808273ffffffffffffffffffffffffffffffffffffffff168473ffffffffffffffffffffffffffffffffffffffff167fddf252ad1be2c89b69c2b068fc378daa952ba7f163c4a11628f55a4df523b3ef60405160405180910390a46124da838383612e1c565b505050565b600073ffffffffffffffffffffffffffffffffffffffff168273ffffffffffffffffffffffffffffffffffffffff160361254e576040517f08c379a000000000000000000000000000000000000000000000000000000000815260040161254590614728565b60405180910390fd5b6125578161206e565b15612597576040517f08c379a000000000000000000000000000000000000000000000000000000000815260040161258e90614794565b60405180910390fd5b6125a360008383612e17565b6001600360008473ffffffffffffffffffffffffffffffffffffffff1673ffffffffffffffffffffffffffffffffffffffff16815260200190815260200160002060008282546125f39190613de4565b92505081905550816002600083815260200190815260200160002060006101000a81548173ffffffffffffffffffffffffffffffffffffffff021916908373ffffffffffffffffffffffffffffffffffffffff160217905550808273ffffffffffffffffffffffffffffffffffffffff16600073ffffffffffffffffffffffffffffffffffffffff167fddf252ad1be2c89b69c2b068fc378daa952ba7f163c4a11628f55a4df523b3ef60405160405180910390a46126b460008383612e1c565b5050565b6126c18261206e565b612700576040517f08c379a00000000000000000000000000000000000000000000000000000000081526004016126f790614826565b60405180910390fd5b8060066000848152602001908152602001600020908161272091906149e8565b505050565b60008111612768576040517f08c379a000000000000000000000000000000000000000000000000000000000815260040161275f90614b06565b60405180910390fd5b60095434146127ac576040517f08c379a00000000000000000000000000000000000000000000000000000000081526004016127a3906144dd565b60405180910390fd5b6040518060a001604052808381526020013373ffffffffffffffffffffffffffffffffffffffff1681526020013073ffffffffffffffffffffffffffffffffffffffff16815260200182815260200160001515815250600d60008481526020019081526020016000206000820151816000015560208201518160010160006101000a81548173ffffffffffffffffffffffffffffffffffffffff021916908373ffffffffffffffffffffffffffffffffffffffff16021790555060408201518160020160006101000a81548173ffffffffffffffffffffffffffffffffffffffff021916908373ffffffffffffffffffffffffffffffffffffffff1602179055506060820151816003015560808201518160040160006101000a81548160ff0219169083151502179055509050506040518060a00160405280838152602001600073ffffffffffffffffffffffffffffffffffffffff168152602001828152602001600b544261291c9190613de4565b815260200160001515815250600c60008481526020019081526020016000206000820151816000015560208201518160010160006101000a81548173ffffffffffffffffffffffffffffffffffffffff021916908373ffffffffffffffffffffffffffffffffffffffff160217905550604082015181600201556060820151816003015560808201518160040160006101000a81548160ff021916908315150217905550905050612a026040518060400160405280601c81526020017f41756374696f6e206372656174656420666f7220746f6b656e49643a0000000081525083612af5565b612a576040518060400160405280601181526020017f41756374696f6e20656e642074696d653a000000000000000000000000000000815250600c600085815260200190815260200160002060030154612af5565b817f6ff530872708bbb51bad8ea341564e4ea039807ad1331f61ab4c906a66875daf33600c600086815260200190815260200160002060030154604051612a9f9291906140cc565b60405180910390a2612ab2333084612279565b817fb640004f1d14576d0c209e240cad0410e0d8c0c33a09375861fbadae2588a98d3330846000604051612ae99493929190614b26565b60405180910390a25050565b612b8d8282604051602401612b0b929190614b6b565b6040516020818303038152906040527fb60e72cc000000000000000000000000000000000000000000000000000000007bffffffffffffffffffffffffffffffffffffffffffffffffffffffff19166020820180517bffffffffffffffffffffffffffffffffffffffffffffffffffffffff8381831617835250505050612e21565b5050565b8173ffffffffffffffffffffffffffffffffffffffff168373ffffffffffffffffffffffffffffffffffffffff1603612bff576040517f08c379a0000000000000000000000000000000000000000000000000000000008152600401612bf690614be7565b60405180910390fd5b80600560008573ffffffffffffffffffffffffffffffffffffffff1673ffffffffffffffffffffffffffffffffffffffff16815260200190815260200160002060008473ffffffffffffffffffffffffffffffffffffffff1673ffffffffffffffffffffffffffffffffffffffff16815260200190815260200160002060006101000a81548160ff0219169083151502179055508173ffffffffffffffffffffffffffffffffffffffff168373ffffffffffffffffffffffffffffffffffffffff167f17307eab39ab6107e8899845ad3d59bd9653f200f220920489ca2b5937696c3183604051612cf0919061328c565b60405180910390a3505050565b612d08848484612279565b612d1484848484612e3b565b612d53576040517f08c379a0000000000000000000000000000000000000000000000000000000008152600401612d4a90614c79565b60405180910390fd5b50505050565b606060405180602001604052806000815250905090565b6060612d7b8261206e565b612dba576040517f08c379a0000000000000000000000000000000000000000000000000000000008152600401612db190614d0b565b60405180910390fd5b6000612dc4612d59565b90506000815111612de45760405180602001604052806000815250612e0f565b80612dee84612fc2565b604051602001612dff9291906143b5565b6040516020818303038152906040525b915050919050565b505050565b505050565b612e3881612e30613122613143565b63ffffffff16565b50565b6000612e5c8473ffffffffffffffffffffffffffffffffffffffff1661314e565b15612fb5578373ffffffffffffffffffffffffffffffffffffffff1663150b7a02612e856120da565b8786866040518563ffffffff1660e01b8152600401612ea79493929190614d80565b6020604051808303816000875af1925050508015612ee357506040513d601f19601f82011682018060405250810190612ee09190614de1565b60015b612f65573d8060008114612f13576040519150601f19603f3d011682016040523d82523d6000602084013e612f18565b606091505b506000815103612f5d576040517f08c379a0000000000000000000000000000000000000000000000000000000008152600401612f5490614c79565b60405180910390fd5b805181602001fd5b63150b7a0260e01b7bffffffffffffffffffffffffffffffffffffffffffffffffffffffff1916817bffffffffffffffffffffffffffffffffffffffffffffffffffffffff191614915050612fba565b600190505b949350505050565b606060008203613009576040518060400160405280600181526020017f3000000000000000000000000000000000000000000000000000000000000000815250905061311d565b600082905060005b6000821461303b57808061302490613b23565b915050600a826130349190614e3d565b9150613011565b60008167ffffffffffffffff811115613057576130566136b0565b5b6040519080825280601f01601f1916602001820160405280156130895781602001600182028036833780820191505090505b5090505b60008514613116576001826130a29190613d81565b9150600a856130b19190614e6e565b60306130bd9190613de4565b60f81b8183815181106130d3576130d2613db5565b5b60200101907effffffffffffffffffffffffffffffffffffffffffffffffffffffffffffff1916908160001a905350600a8561310f9190614e3d565b945061308d565b8093505050505b919050565b60006a636f6e736f6c652e6c6f679050600080835160208501845afa505050565b6131ce819050919050565b6000808273ffffffffffffffffffffffffffffffffffffffff163b119050919050565b6040518060a0016040528060008152602001600073ffffffffffffffffffffffffffffffffffffffff168152602001600073ffffffffffffffffffffffffffffffffffffffff168152602001600081526020016000151581525090565b6131d6614e9f565b565b6000604051905090565b600080fd5b600080fd5b60007fffffffff0000000000000000000000000000000000000000000000000000000082169050919050565b613221816131ec565b811461322c57600080fd5b50565b60008135905061323e81613218565b92915050565b60006020828403121561325a576132596131e2565b5b60006132688482850161322f565b91505092915050565b60008115159050919050565b61328681613271565b82525050565b60006020820190506132a1600083018461327d565b92915050565b600081519050919050565b600082825260208201905092915050565b60005b838110156132e15780820151818401526020810190506132c6565b60008484015250505050565b6000601f19601f8301169050919050565b6000613309826132a7565b61331381856132b2565b93506133238185602086016132c3565b61332c816132ed565b840191505092915050565b6000602082019050818103600083015261335181846132fe565b905092915050565b6000819050919050565b61336c81613359565b811461337757600080fd5b50565b60008135905061338981613363565b92915050565b6000602082840312156133a5576133a46131e2565b5b60006133b38482850161337a565b91505092915050565b600073ffffffffffffffffffffffffffffffffffffffff82169050919050565b60006133e7826133bc565b9050919050565b6133f7816133dc565b82525050565b600060208201905061341260008301846133ee565b92915050565b613421816133dc565b811461342c57600080fd5b50565b60008135905061343e81613418565b92915050565b6000806040838503121561345b5761345a6131e2565b5b60006134698582860161342f565b925050602061347a8582860161337a565b9150509250929050565b61348d81613359565b82525050565b60006020820190506134a86000830184613484565b92915050565b600081519050919050565b600082825260208201905092915050565b6000819050602082019050919050565b6134e381613359565b82525050565b60006134f4826133bc565b9050919050565b613504816134e9565b82525050565b61351381613271565b82525050565b60a08201600082015161352f60008501826134da565b50602082015161354260208501826134fb565b50604082015161355560408501826134fb565b50606082015161356860608501826134da565b50608082015161357b608085018261350a565b50505050565b600061358d8383613519565b60a08301905092915050565b6000602082019050919050565b60006135b1826134ae565b6135bb81856134b9565b93506135c6836134ca565b8060005b838110156135f75781516135de8882613581565b97506135e983613599565b9250506001810190506135ca565b5085935050505092915050565b6000602082019050818103600083015261361e81846135a6565b905092915050565b60008060006060848603121561363f5761363e6131e2565b5b600061364d8682870161342f565b935050602061365e8682870161342f565b925050604061366f8682870161337a565b9150509250925092565b60006020828403121561368f5761368e6131e2565b5b600061369d8482850161342f565b91505092915050565b600080fd5b600080fd5b7f4e487b7100000000000000000000000000000000000000000000000000000000600052604160045260246000fd5b6136e8826132ed565b810181811067ffffffffffffffff82111715613707576137066136b0565b5b80604052505050565b600061371a6131d8565b905061372682826136df565b919050565b600067ffffffffffffffff821115613746576137456136b0565b5b61374f826132ed565b9050602081019050919050565b82818337600083830152505050565b600061377e6137798461372b565b613710565b90508281526020810184848401111561379a576137996136ab565b5b6137a584828561375c565b509392505050565b600082601f8301126137c2576137c16136a6565b5b81356137d284826020860161376b565b91505092915050565b600080604083850312156137f2576137f16131e2565b5b600083013567ffffffffffffffff8111156138105761380f6131e7565b5b61381c858286016137ad565b925050602061382d8582860161337a565b9150509250929050565b613840816134e9565b82525050565b600060208201905061385b6000830184613837565b92915050565b61386a81613271565b811461387557600080fd5b50565b60008135905061388781613861565b92915050565b600080604083850312156138a4576138a36131e2565b5b60006138b28582860161342f565b92505060206138c385828601613878565b9150509250929050565b60a0820160008201516138e360008501826134da565b5060208201516138f660208501826134fb565b50604082015161390960408501826134fb565b50606082015161391c60608501826134da565b50608082015161392f608085018261350a565b50505050565b600060a08201905061394a60008301846138cd565b92915050565b600067ffffffffffffffff82111561396b5761396a6136b0565b5b613974826132ed565b9050602081019050919050565b600061399461398f84613950565b613710565b9050828152602081018484840111156139b0576139af6136ab565b5b6139bb84828561375c565b509392505050565b600082601f8301126139d8576139d76136a6565b5b81356139e8848260208601613981565b91505092915050565b60008060008060808587031215613a0b57613a0a6131e2565b5b6000613a198782880161342f565b9450506020613a2a8782880161342f565b9350506040613a3b8782880161337a565b925050606085013567ffffffffffffffff811115613a5c57613a5b6131e7565b5b613a68878288016139c3565b91505092959194509250565b60008060408385031215613a8b57613a8a6131e2565b5b6000613a998582860161337a565b9250506020613aaa8582860161337a565b9150509250929050565b60008060408385031215613acb57613aca6131e2565b5b6000613ad98582860161342f565b9250506020613aea8582860161342f565b9150509250929050565b7f4e487b7100000000000000000000000000000000000000000000000000000000600052601160045260246000fd5b6000613b2e82613359565b91507fffffffffffffffffffffffffffffffffffffffffffffffffffffffffffffffff8203613b6057613b5f613af4565b5b600182019050919050565b7f4e487b7100000000000000000000000000000000000000000000000000000000600052602260045260246000fd5b60006002820490506001821680613bb257607f821691505b602082108103613bc557613bc4613b6b565b5b50919050565b7f4552433732313a20617070726f76656420717565727920666f72206e6f6e657860008201527f697374656e7420746f6b656e0000000000000000000000000000000000000000602082015250565b6000613c27602c836132b2565b9150613c3282613bcb565b604082019050919050565b60006020820190508181036000830152613c5681613c1a565b9050919050565b7f4552433732313a20617070726f76616c20746f2063757272656e74206f776e6560008201527f7200000000000000000000000000000000000000000000000000000000000000602082015250565b6000613cb96021836132b2565b9150613cc482613c5d565b604082019050919050565b60006020820190508181036000830152613ce881613cac565b9050919050565b7f4552433732313a20617070726f76652063616c6c6572206973206e6f74206f7760008201527f6e6572206e6f7220617070726f76656420666f7220616c6c0000000000000000602082015250565b6000613d4b6038836132b2565b9150613d5682613cef565b604082019050919050565b60006020820190508181036000830152613d7a81613d3e565b9050919050565b6000613d8c82613359565b9150613d9783613359565b9250828203905081811115613daf57613dae613af4565b5b92915050565b7f4e487b7100000000000000000000000000000000000000000000000000000000600052603260045260246000fd5b6000613def82613359565b9150613dfa83613359565b9250828201905080821115613e1257613e11613af4565b5b92915050565b7f4552433732313a207472616e736665722063616c6c6572206973206e6f74206f60008201527f776e6572206e6f7220617070726f766564000000000000000000000000000000602082015250565b6000613e746031836132b2565b9150613e7f82613e18565b604082019050919050565b60006020820190508181036000830152613ea381613e67565b9050919050565b7f4552433732313a206f776e657220717565727920666f72206e6f6e657869737460008201527f656e7420746f6b656e0000000000000000000000000000000000000000000000602082015250565b6000613f066029836132b2565b9150613f1182613eaa565b604082019050919050565b60006020820190508181036000830152613f3581613ef9565b9050919050565b7f4552433732313a2062616c616e636520717565727920666f7220746865207a6560008201527f726f206164647265737300000000000000000000000000000000000000000000602082015250565b6000613f98602a836132b2565b9150613fa382613f3c565b604082019050919050565b60006020820190508181036000830152613fc781613f8b565b9050919050565b7f41756374696f6e2068617320656e646564000000000000000000000000000000600082015250565b60006140046011836132b2565b915061400f82613fce565b602082019050919050565b6000602082019050818103600083015261403381613ff7565b9050919050565b7f426964206d75737420626520686967686572207468616e20746865206375727260008201527f656e742068696768657374206269640000000000000000000000000000000000602082015250565b6000614096602f836132b2565b91506140a18261403a565b604082019050919050565b600060208201905081810360008301526140c581614089565b9050919050565b60006040820190506140e160008301856133ee565b6140ee6020830184613484565b9392505050565b7f4f6e6c79206d61726b6574706c616365206f776e65722063616e20757064617460008201527f65206c697374696e672070726963652e00000000000000000000000000000000602082015250565b60006141516030836132b2565b915061415c826140f5565b604082019050919050565b6000602082019050818103600083015261418081614144565b9050919050565b7f41756374696f6e2068617320616c726561647920656e64656400000000000000600082015250565b60006141bd6019836132b2565b91506141c882614187565b602082019050919050565b600060208201905081810360008301526141ec816141b0565b9050919050565b7f41756374696f6e20686173206e6f7420656e6465642079657400000000000000600082015250565b60006142296019836132b2565b9150614234826141f3565b602082019050919050565b600060208201905081810360008301526142588161421c565b9050919050565b6000819050919050565b600061428461427f61427a846133bc565b61425f565b6133bc565b9050919050565b600061429682614269565b9050919050565b60006142a88261428b565b9050919050565b6142b88161429d565b82525050565b60006040820190506142d360008301856142af565b6142e06020830184613484565b9392505050565b7f45524337323155524953746f726167653a2055524920717565727920666f722060008201527f6e6f6e6578697374656e7420746f6b656e000000000000000000000000000000602082015250565b60006143436031836132b2565b915061434e826142e7565b604082019050919050565b6000602082019050818103600083015261437281614336565b9050919050565b600081905092915050565b600061438f826132a7565b6143998185614379565b93506143a98185602086016132c3565b80840191505092915050565b60006143c18285614384565b91506143cd8284614384565b91508190509392505050565b7f4f6e6c79206974656d206f776e65722063616e20706572666f726d207468697360008201527f206f7065726174696f6e00000000000000000000000000000000000000000000602082015250565b6000614435602a836132b2565b9150614440826143d9565b604082019050919050565b6000602082019050818103600083015261446481614428565b9050919050565b7f5072696365206d75737420626520657175616c20746f206c697374696e67207060008201527f7269636500000000000000000000000000000000000000000000000000000000602082015250565b60006144c76024836132b2565b91506144d28261446b565b604082019050919050565b600060208201905081810360008301526144f6816144ba565b9050919050565b600061450882613359565b91506000820361451b5761451a613af4565b5b600182039050919050565b7f4552433732313a206f70657261746f7220717565727920666f72206e6f6e657860008201527f697374656e7420746f6b656e0000000000000000000000000000000000000000602082015250565b6000614582602c836132b2565b915061458d82614526565b604082019050919050565b600060208201905081810360008301526145b181614575565b9050919050565b7f4552433732313a207472616e736665722066726f6d20696e636f72726563742060008201527f6f776e6572000000000000000000000000000000000000000000000000000000602082015250565b60006146146025836132b2565b915061461f826145b8565b604082019050919050565b6000602082019050818103600083015261464381614607565b9050919050565b7f4552433732313a207472616e7366657220746f20746865207a65726f2061646460008201527f7265737300000000000000000000000000000000000000000000000000000000602082015250565b60006146a66024836132b2565b91506146b18261464a565b604082019050919050565b600060208201905081810360008301526146d581614699565b9050919050565b7f4552433732313a206d696e7420746f20746865207a65726f2061646472657373600082015250565b60006147126020836132b2565b915061471d826146dc565b602082019050919050565b6000602082019050818103600083015261474181614705565b9050919050565b7f4552433732313a20746f6b656e20616c7265616479206d696e74656400000000600082015250565b600061477e601c836132b2565b915061478982614748565b602082019050919050565b600060208201905081810360008301526147ad81614771565b9050919050565b7f45524337323155524953746f726167653a2055524920736574206f66206e6f6e60008201527f6578697374656e7420746f6b656e000000000000000000000000000000000000602082015250565b6000614810602e836132b2565b915061481b826147b4565b604082019050919050565b6000602082019050818103600083015261483f81614803565b9050919050565b60008190508160005260206000209050919050565b60006020601f8301049050919050565b600082821b905092915050565b6000600883026148a87fffffffffffffffffffffffffffffffffffffffffffffffffffffffffffffffff8261486b565b6148b2868361486b565b95508019841693508086168417925050509392505050565b60006148e56148e06148db84613359565b61425f565b613359565b9050919050565b6000819050919050565b6148ff836148ca565b61491361490b826148ec565b848454614878565b825550505050565b600090565b61492861491b565b6149338184846148f6565b505050565b5b818110156149575761494c600082614920565b600181019050614939565b5050565b601f82111561499c5761496d81614846565b6149768461485b565b81016020851015614985578190505b6149996149918561485b565b830182614938565b50505b505050565b600082821c905092915050565b60006149bf600019846008026149a1565b1980831691505092915050565b60006149d883836149ae565b9150826002028217905092915050565b6149f1826132a7565b67ffffffffffffffff811115614a0a57614a096136b0565b5b614a148254613b9a565b614a1f82828561495b565b600060209050601f831160018114614a525760008415614a40578287015190505b614a4a85826149cc565b865550614ab2565b601f198416614a6086614846565b60005b82811015614a8857848901518255600182019150602085019450602081019050614a63565b86831015614aa55784890151614aa1601f8916826149ae565b8355505b6001600288020188555050505b505050505050565b7f5072696365206d757374206265206174206c6561737420312077656900000000600082015250565b6000614af0601c836132b2565b9150614afb82614aba565b602082019050919050565b60006020820190508181036000830152614b1f81614ae3565b9050919050565b6000608082019050614b3b60008301876133ee565b614b4860208301866133ee565b614b556040830185613484565b614b62606083018461327d565b95945050505050565b60006040820190508181036000830152614b8581856132fe565b9050614b946020830184613484565b9392505050565b7f4552433732313a20617070726f766520746f2063616c6c657200000000000000600082015250565b6000614bd16019836132b2565b9150614bdc82614b9b565b602082019050919050565b60006020820190508181036000830152614c0081614bc4565b9050919050565b7f4552433732313a207472616e7366657220746f206e6f6e20455243373231526560008201527f63656976657220696d706c656d656e7465720000000000000000000000000000602082015250565b6000614c636032836132b2565b9150614c6e82614c07565b604082019050919050565b60006020820190508181036000830152614c9281614c56565b9050919050565b7f4552433732314d657461646174613a2055524920717565727920666f72206e6f60008201527f6e6578697374656e7420746f6b656e0000000000000000000000000000000000602082015250565b6000614cf5602f836132b2565b9150614d0082614c99565b604082019050919050565b60006020820190508181036000830152614d2481614ce8565b9050919050565b600081519050919050565b600082825260208201905092915050565b6000614d5282614d2b565b614d5c8185614d36565b9350614d6c8185602086016132c3565b614d75816132ed565b840191505092915050565b6000608082019050614d9560008301876133ee565b614da260208301866133ee565b614daf6040830185613484565b8181036060830152614dc18184614d47565b905095945050505050565b600081519050614ddb81613218565b92915050565b600060208284031215614df757614df66131e2565b5b6000614e0584828501614dcc565b91505092915050565b7f4e487b7100000000000000000000000000000000000000000000000000000000600052601260045260246000fd5b6000614e4882613359565b9150614e5383613359565b925082614e6357614e62614e0e565b5b828204905092915050565b6000614e7982613359565b9150614e8483613359565b925082614e9457614e93614e0e565b5b828206905092915050565b7f4e487b7100000000000000000000000000000000000000000000000000000000600052605160045260246000fdfea264697066735822122008e0e3a3522b533859259b1bcedd5a8866d576231eaad43ec1a699e4b32f6c4064736f6c63430008140033",
  "linkReferences": {},
  "deployedLinkReferences": {}
}